{
  "_format": "hh-sol-artifact-1",
  "contractName": "VPOAdapter",
  "sourceName": "contracts/adapter/VPOAdapter.sol",
  "abi": [
    {
      "inputs": [
        {
          "internalType": "address",
          "name": "admin_",
          "type": "address"
        }
      ],
      "stateMutability": "nonpayable",
      "type": "constructor"
    },
    {
      "inputs": [],
      "name": "AlreadyFulfilled",
      "type": "error"
    },
    {
      "inputs": [],
      "name": "NotFound",
      "type": "error"
    },
    {
      "inputs": [],
      "name": "OnlyAdmin",
      "type": "error"
    },
    {
      "inputs": [],
      "name": "Unauthorized",
      "type": "error"
    },
    {
      "inputs": [],
      "name": "ZeroAddress",
      "type": "error"
    },
    {
      "anonymous": false,
      "inputs": [
        {
          "indexed": true,
          "internalType": "address",
          "name": "node",
          "type": "address"
        },
        {
          "indexed": false,
          "internalType": "bool",
          "name": "enabled",
          "type": "bool"
        }
      ],
      "name": "AVSNodeUpdated",
      "type": "event"
    },
    {
      "anonymous": false,
      "inputs": [
        {
          "indexed": true,
          "internalType": "bytes32",
          "name": "requestId",
          "type": "bytes32"
        },
        {
          "indexed": false,
          "internalType": "bytes",
          "name": "attestationCid",
          "type": "bytes"
        },
        {
          "indexed": false,
          "internalType": "bool",
          "name": "outcome",
          "type": "bool"
        },
        {
          "indexed": false,
          "internalType": "bytes",
          "name": "metadata",
          "type": "bytes"
        }
      ],
      "name": "VerificationFulfilled",
      "type": "event"
    },
    {
      "anonymous": false,
      "inputs": [
        {
          "indexed": true,
          "internalType": "bytes32",
          "name": "requestId",
          "type": "bytes32"
        },
        {
          "indexed": true,
          "internalType": "address",
          "name": "requester",
          "type": "address"
        },
        {
          "indexed": true,
          "internalType": "bytes32",
          "name": "marketRef",
          "type": "bytes32"
        },
        {
          "indexed": false,
          "internalType": "bytes",
          "name": "data",
          "type": "bytes"
        }
      ],
      "name": "VerificationRequested",
      "type": "event"
    },
    {
      "inputs": [],
      "name": "admin",
      "outputs": [
        {
          "internalType": "address",
          "name": "",
          "type": "address"
        }
      ],
      "stateMutability": "view",
      "type": "function"
    },
    {
      "inputs": [
        {
          "internalType": "address",
          "name": "",
          "type": "address"
        }
      ],
      "name": "avsNodes",
      "outputs": [
        {
          "internalType": "bool",
          "name": "",
          "type": "bool"
        }
      ],
      "stateMutability": "view",
      "type": "function"
    },
    {
      "inputs": [
        {
          "internalType": "bytes32",
          "name": "requestId",
          "type": "bytes32"
        },
        {
          "internalType": "bytes",
          "name": "attestationCid",
          "type": "bytes"
        },
        {
          "internalType": "bool",
          "name": "outcome",
          "type": "bool"
        },
        {
          "internalType": "bytes",
          "name": "metadata",
          "type": "bytes"
        }
      ],
      "name": "fulfillVerification",
      "outputs": [],
      "stateMutability": "nonpayable",
      "type": "function"
    },
    {
      "inputs": [
        {
          "internalType": "bytes32",
          "name": "requestId",
          "type": "bytes32"
        }
      ],
      "name": "getFulfillment",
      "outputs": [
        {
          "internalType": "bool",
          "name": "exists",
          "type": "bool"
        },
        {
          "internalType": "bytes",
          "name": "attestationCid",
          "type": "bytes"
        },
        {
          "internalType": "bool",
          "name": "outcome",
          "type": "bool"
        },
        {
          "internalType": "bytes",
          "name": "metadata",
          "type": "bytes"
        }
      ],
      "stateMutability": "view",
      "type": "function"
    },
    {
      "inputs": [
        {
          "internalType": "bytes32",
          "name": "requestId",
          "type": "bytes32"
        }
      ],
      "name": "getRequest",
      "outputs": [
        {
          "components": [
            {
              "internalType": "bytes32",
              "name": "marketRef",
              "type": "bytes32"
            },
            {
              "internalType": "address",
              "name": "requester",
              "type": "address"
            },
            {
              "internalType": "bytes",
              "name": "data",
              "type": "bytes"
            },
            {
              "internalType": "bool",
              "name": "fulfilled",
              "type": "bool"
            },
            {
              "internalType": "bytes",
              "name": "attestationCid",
              "type": "bytes"
            },
            {
              "internalType": "bool",
              "name": "outcome",
              "type": "bool"
            },
            {
              "internalType": "bytes",
              "name": "metadata",
              "type": "bytes"
            }
          ],
          "internalType": "struct VPOAdapter.Request",
          "name": "",
          "type": "tuple"
        }
      ],
      "stateMutability": "view",
      "type": "function"
    },
    {
      "inputs": [
        {
          "internalType": "bytes32",
          "name": "marketRef",
          "type": "bytes32"
        },
        {
          "internalType": "bytes",
          "name": "data",
          "type": "bytes"
        }
      ],
      "name": "requestVerification",
      "outputs": [
        {
          "internalType": "bytes32",
          "name": "requestId",
          "type": "bytes32"
        }
      ],
      "stateMutability": "nonpayable",
      "type": "function"
    },
    {
      "inputs": [
        {
          "internalType": "address",
          "name": "node",
          "type": "address"
        },
        {
          "internalType": "bool",
          "name": "enabled",
          "type": "bool"
        }
      ],
      "name": "setAVSNode",
      "outputs": [],
      "stateMutability": "nonpayable",
      "type": "function"
    }
  ],
  "bytecode": "0x6080604052348015600f57600080fd5b5060405161107d38038061107d833981016040819052602c916076565b6001600160a01b03811660525760405163d92e233d60e01b815260040160405180910390fd5b600280546001600160a01b0319166001600160a01b039290921691909117905560a4565b600060208284031215608757600080fd5b81516001600160a01b0381168114609d57600080fd5b9392505050565b610fca806100b36000396000f3fe608060405234801561001057600080fd5b506004361061007d5760003560e01c8063f1d1b3811161005b578063f1d1b381146100e4578063f7c226da14610117578063f851a4401461012a578063fb1e61ca1461015557600080fd5b8063285b80a21461008257806396c59cc114610097578063a4e132bc146100c3575b600080fd5b610095610090366004610a37565b610175565b005b6100aa6100a5366004610ac7565b61028b565b6040516100ba9493929190610b26565b60405180910390f35b6100d66100d1366004610b66565b61053d565b6040519081526020016100ba565b6101076100f2366004610bc9565b60016020526000908152604090205460ff1681565b60405190151581526020016100ba565b610095610125366004610beb565b6106da565b60025461013d906001600160a01b031681565b6040516001600160a01b0390911681526020016100ba565b610168610163366004610ac7565b61078b565b6040516100ba9190610c1e565b3360009081526001602052604090205460ff166101a4576040516282b42960e81b815260040160405180910390fd5b600086815260208190526040902060018101546001600160a01b03166101dd5760405163c5723b5160e01b815260040160405180910390fd5b600381015460ff161561020357604051634a4117f960e01b815260040160405180910390fd5b60038101805460ff1916600117905560048101610221868883610d5a565b5060058101805460ff191685151517905560068101610241838583610d5a565b50867f89b763933efe68c9fb105be2523d43afbb04f27b42bda7793a30bb6ae16bc4ff878787878760405161027a959493929190610e43565b60405180910390a250505050505050565b600081815260208181526040808320815160e0810183528154815260018201546001600160a01b0316938101939093526002810180546060948694869486949293909291840191906102dc90610cd1565b80601f016020809104026020016040519081016040528092919081815260200182805461030890610cd1565b80156103555780601f1061032a57610100808354040283529160200191610355565b820191906000526020600020905b81548152906001019060200180831161033857829003601f168201915b5050509183525050600382015460ff161515602082015260048201805460409092019161038190610cd1565b80601f01602080910402602001604051908101604052809291908181526020018280546103ad90610cd1565b80156103fa5780601f106103cf576101008083540402835291602001916103fa565b820191906000526020600020905b8154815290600101906020018083116103dd57829003601f168201915b5050509183525050600582015460ff161515602082015260068201805460409092019161042690610cd1565b80601f016020809104026020016040519081016040528092919081815260200182805461045290610cd1565b801561049f5780601f106104745761010080835404028352916020019161049f565b820191906000526020600020905b81548152906001019060200180831161048257829003601f168201915b5050509190925250505060208101519091506001600160a01b03166104e85750506040805160208082018352600080835283519182019093528281529194509250839150610536565b806060015161051b5750506040805160208082018352600080835283519182019093528281529194509250839150610536565b600181608001518260a001518360c001519450945094509450505b9193509193565b600083334285854460405160200161055a96959493929190610e7e565b60408051601f19818403018152828252805160209182012060e08401835287845233848301528251601f8701839004830281018301845286815290945091830191908690869081908401838280828437600092018290525093855250505060208083018290526040805180830182528381528185015260608401839052805180830182528381526080909401939093528482528181529082902083518155908301516001820180546001600160a01b0319166001600160a01b039092169190911790559082015160028201906106309082610eb9565b50606082015160038201805460ff19169115159190911790556080820151600482019061065d9082610eb9565b5060a082015160058201805460ff191691151591909117905560c0820151600682019061068a9082610eb9565b5090505083336001600160a01b0316827f34602e40c4c49141c143fef967cb05afc0207ba0f21b2bc82b56b712b4250fca86866040516106cb929190610f78565b60405180910390a49392505050565b6002546001600160a01b0316331461070557604051634755657960e01b815260040160405180910390fd5b6001600160a01b03821661072c5760405163d92e233d60e01b815260040160405180910390fd5b6001600160a01b038216600081815260016020908152604091829020805460ff191685151590811790915591519182527fa8cfb85fb565846d65e4062d92a89056ecb7aa24252225132315978a9ed574c1910160405180910390a25050565b6040805160e080820183526000808352602080840182905260608486018190528085018390526080850181905260a0850183905260c085015285825281815290849020845192830185528054835260018101546001600160a01b03169183019190915260028101805493949293919284019161080690610cd1565b80601f016020809104026020016040519081016040528092919081815260200182805461083290610cd1565b801561087f5780601f106108545761010080835404028352916020019161087f565b820191906000526020600020905b81548152906001019060200180831161086257829003601f168201915b5050509183525050600382015460ff16151560208201526004820180546040909201916108ab90610cd1565b80601f01602080910402602001604051908101604052809291908181526020018280546108d790610cd1565b80156109245780601f106108f957610100808354040283529160200191610924565b820191906000526020600020905b81548152906001019060200180831161090757829003601f168201915b5050509183525050600582015460ff161515602082015260068201805460409092019161095090610cd1565b80601f016020809104026020016040519081016040528092919081815260200182805461097c90610cd1565b80156109c95780601f1061099e576101008083540402835291602001916109c9565b820191906000526020600020905b8154815290600101906020018083116109ac57829003601f168201915b5050505050815250509050919050565b60008083601f8401126109eb57600080fd5b50813567ffffffffffffffff811115610a0357600080fd5b602083019150836020828501011115610a1b57600080fd5b9250929050565b80358015158114610a3257600080fd5b919050565b60008060008060008060808789031215610a5057600080fd5b86359550602087013567ffffffffffffffff811115610a6e57600080fd5b610a7a89828a016109d9565b9096509450610a8d905060408801610a22565b9250606087013567ffffffffffffffff811115610aa957600080fd5b610ab589828a016109d9565b979a9699509497509295939492505050565b600060208284031215610ad957600080fd5b5035919050565b6000815180845260005b81811015610b0657602081850181015186830182015201610aea565b506000602082860101526020601f19601f83011685010191505092915050565b8415158152608060208201526000610b416080830186610ae0565b84151560408401528281036060840152610b5b8185610ae0565b979650505050505050565b600080600060408486031215610b7b57600080fd5b83359250602084013567ffffffffffffffff811115610b9957600080fd5b610ba5868287016109d9565b9497909650939450505050565b80356001600160a01b0381168114610a3257600080fd5b600060208284031215610bdb57600080fd5b610be482610bb2565b9392505050565b60008060408385031215610bfe57600080fd5b610c0783610bb2565b9150610c1560208401610a22565b90509250929050565b602081528151602082015260018060a01b0360208301511660408201526000604083015160e06060840152610c57610100840182610ae0565b90506060840151151560808401526080840151601f198483030160a0850152610c808282610ae0565b91505060a0840151610c9660c085018215159052565b5060c0840151838203601f190160e0850152610cb28282610ae0565b95945050505050565b634e487b7160e01b600052604160045260246000fd5b600181811c90821680610ce557607f821691505b602082108103610d0557634e487b7160e01b600052602260045260246000fd5b50919050565b601f821115610d5557806000526020600020601f840160051c81016020851015610d325750805b601f840160051c820191505b81811015610d525760008155600101610d3e565b50505b505050565b67ffffffffffffffff831115610d7257610d72610cbb565b610d8683610d808354610cd1565b83610d0b565b6000601f841160018114610dba5760008515610da25750838201355b600019600387901b1c1916600186901b178355610d52565b600083815260209020601f19861690835b82811015610deb5786850135825560209485019460019092019101610dcb565b5086821015610e085760001960f88860031b161c19848701351681555b505060018560011b0183555050505050565b81835281816020850137506000828201602090810191909152601f909101601f19169091010190565b606081526000610e57606083018789610e1a565b85151560208401528281036040840152610e72818587610e1a565b98975050505050505050565b8681526bffffffffffffffffffffffff198660601b166020820152846034820152828460548301376054920191820152607401949350505050565b815167ffffffffffffffff811115610ed357610ed3610cbb565b610ee781610ee18454610cd1565b84610d0b565b6020601f821160018114610f1b5760008315610f035750848201515b600019600385901b1c1916600184901b178455610d52565b600084815260208120601f198516915b82811015610f4b5787850151825560209485019460019092019101610f2b565b5084821015610f695786840151600019600387901b60f8161c191681555b50505050600190811b01905550565b602081526000610f8c602083018486610e1a565b94935050505056fea26469706673582212206bea9e7d8211b25a59361d2554bed5d3c0434dff2a686fe2501b102c971bb09c64736f6c634300081a0033",
  "linkReferences": {},
  "deployedLinkReferences": {}
}