{
  "_format": "hh-sol-artifact-1",
  "contractName": "VPOAdapter",
  "sourceName": "contracts/adapter/VPOAdapter.sol",
  "abi": [
    {
      "inputs": [
        {
          "internalType": "address",
          "name": "admin_",
          "type": "address"
        }
      ],
      "stateMutability": "nonpayable",
      "type": "constructor"
    },
    {
      "inputs": [],
      "name": "AlreadyFulfilled",
      "type": "error"
    },
    {
      "inputs": [],
      "name": "InvalidParameter",
      "type": "error"
    },
    {
      "inputs": [],
      "name": "NotFound",
      "type": "error"
    },
    {
      "inputs": [],
      "name": "OnlyAdmin",
      "type": "error"
    },
    {
      "inputs": [],
      "name": "Unauthorized",
      "type": "error"
    },
    {
      "inputs": [],
      "name": "ZeroAddress",
      "type": "error"
    },
    {
      "anonymous": false,
      "inputs": [
        {
          "indexed": true,
          "internalType": "address",
          "name": "node",
          "type": "address"
        },
        {
          "indexed": false,
          "internalType": "bool",
          "name": "enabled",
          "type": "bool"
        }
      ],
      "name": "AVSNodeUpdated",
      "type": "event"
    },
    {
      "anonymous": false,
      "inputs": [
        {
          "indexed": true,
          "internalType": "bytes32",
          "name": "requestId",
          "type": "bytes32"
        },
        {
          "indexed": true,
          "internalType": "address",
          "name": "operator",
          "type": "address"
        },
        {
          "indexed": false,
          "internalType": "bool",
          "name": "outcome",
          "type": "bool"
        },
        {
          "indexed": false,
          "internalType": "bytes",
          "name": "attestationCid",
          "type": "bytes"
        },
        {
          "indexed": false,
          "internalType": "bytes",
          "name": "signature",
          "type": "bytes"
        }
      ],
      "name": "AttestationSubmitted",
      "type": "event"
    },
    {
      "anonymous": false,
      "inputs": [
        {
          "indexed": true,
          "internalType": "address",
          "name": "operator",
          "type": "address"
        },
        {
          "indexed": false,
          "internalType": "uint256",
          "name": "weight",
          "type": "uint256"
        }
      ],
      "name": "OperatorWeightUpdated",
      "type": "event"
    },
    {
      "anonymous": false,
      "inputs": [
        {
          "indexed": true,
          "internalType": "bytes32",
          "name": "requestId",
          "type": "bytes32"
        },
        {
          "indexed": false,
          "internalType": "bool",
          "name": "outcome",
          "type": "bool"
        },
        {
          "indexed": false,
          "internalType": "uint256",
          "name": "totalWeight",
          "type": "uint256"
        }
      ],
      "name": "QuorumReached",
      "type": "event"
    },
    {
      "anonymous": false,
      "inputs": [
        {
          "indexed": false,
          "internalType": "uint256",
          "name": "threshold",
          "type": "uint256"
        }
      ],
      "name": "QuorumThresholdUpdated",
      "type": "event"
    },
    {
      "anonymous": false,
      "inputs": [
        {
          "indexed": true,
          "internalType": "bytes32",
          "name": "requestId",
          "type": "bytes32"
        },
        {
          "indexed": false,
          "internalType": "bool",
          "name": "outcome",
          "type": "bool"
        },
        {
          "indexed": false,
          "internalType": "bytes",
          "name": "aggregateSignature",
          "type": "bytes"
        },
        {
          "indexed": false,
          "internalType": "uint256",
          "name": "totalWeight",
          "type": "uint256"
        }
      ],
      "name": "ResolutionFinalized",
      "type": "event"
    },
    {
      "anonymous": false,
      "inputs": [
        {
          "indexed": true,
          "internalType": "bytes32",
          "name": "requestId",
          "type": "bytes32"
        },
        {
          "indexed": false,
          "internalType": "bytes",
          "name": "attestationCid",
          "type": "bytes"
        },
        {
          "indexed": false,
          "internalType": "bool",
          "name": "outcome",
          "type": "bool"
        },
        {
          "indexed": false,
          "internalType": "bytes",
          "name": "metadata",
          "type": "bytes"
        }
      ],
      "name": "VerificationFulfilled",
      "type": "event"
    },
    {
      "anonymous": false,
      "inputs": [
        {
          "indexed": true,
          "internalType": "bytes32",
          "name": "requestId",
          "type": "bytes32"
        },
        {
          "indexed": true,
          "internalType": "address",
          "name": "requester",
          "type": "address"
        },
        {
          "indexed": true,
          "internalType": "bytes32",
          "name": "marketRef",
          "type": "bytes32"
        },
        {
          "indexed": false,
          "internalType": "bytes",
          "name": "data",
          "type": "bytes"
        }
      ],
      "name": "VerificationRequested",
      "type": "event"
    },
    {
      "inputs": [],
      "name": "admin",
      "outputs": [
        {
          "internalType": "address",
          "name": "",
          "type": "address"
        }
      ],
      "stateMutability": "view",
      "type": "function"
    },
    {
      "inputs": [
        {
          "internalType": "address",
          "name": "",
          "type": "address"
        }
      ],
      "name": "avsNodes",
      "outputs": [
        {
          "internalType": "bool",
          "name": "",
          "type": "bool"
        }
      ],
      "stateMutability": "view",
      "type": "function"
    },
    {
      "inputs": [
        {
          "internalType": "bytes32",
          "name": "requestId",
          "type": "bytes32"
        },
        {
          "internalType": "bool",
          "name": "outcome",
          "type": "bool"
        },
        {
          "internalType": "bytes",
          "name": "aggregateSignature",
          "type": "bytes"
        }
      ],
      "name": "finalizeResolution",
      "outputs": [],
      "stateMutability": "nonpayable",
      "type": "function"
    },
    {
      "inputs": [
        {
          "internalType": "bytes32",
          "name": "requestId",
          "type": "bytes32"
        },
        {
          "internalType": "bytes",
          "name": "attestationCid",
          "type": "bytes"
        },
        {
          "internalType": "bool",
          "name": "outcome",
          "type": "bool"
        },
        {
          "internalType": "bytes",
          "name": "metadata",
          "type": "bytes"
        }
      ],
      "name": "fulfillVerification",
      "outputs": [],
      "stateMutability": "nonpayable",
      "type": "function"
    },
    {
      "inputs": [
        {
          "internalType": "bytes32",
          "name": "requestId",
          "type": "bytes32"
        }
      ],
      "name": "getAttestations",
      "outputs": [
        {
          "components": [
            {
              "internalType": "address",
              "name": "operator",
              "type": "address"
            },
            {
              "internalType": "bool",
              "name": "outcome",
              "type": "bool"
            },
            {
              "internalType": "bytes",
              "name": "attestationCid",
              "type": "bytes"
            },
            {
              "internalType": "bytes",
              "name": "signature",
              "type": "bytes"
            },
            {
              "internalType": "uint256",
              "name": "timestamp",
              "type": "uint256"
            }
          ],
          "internalType": "struct VPOAdapter.Attestation[]",
          "name": "",
          "type": "tuple[]"
        }
      ],
      "stateMutability": "view",
      "type": "function"
    },
    {
      "inputs": [
        {
          "internalType": "bytes32",
          "name": "requestId",
          "type": "bytes32"
        }
      ],
      "name": "getFulfillment",
      "outputs": [
        {
          "internalType": "bool",
          "name": "exists",
          "type": "bool"
        },
        {
          "internalType": "bytes",
          "name": "attestationCid",
          "type": "bytes"
        },
        {
          "internalType": "bool",
          "name": "outcome",
          "type": "bool"
        },
        {
          "internalType": "bytes",
          "name": "metadata",
          "type": "bytes"
        }
      ],
      "stateMutability": "view",
      "type": "function"
    },
    {
      "inputs": [
        {
          "internalType": "bytes32",
          "name": "requestId",
          "type": "bytes32"
        }
      ],
      "name": "getQuorumStatus",
      "outputs": [
        {
          "internalType": "bool",
          "name": "isQuorumReached",
          "type": "bool"
        },
        {
          "internalType": "uint256",
          "name": "yesWeight",
          "type": "uint256"
        },
        {
          "internalType": "uint256",
          "name": "noWeight",
          "type": "uint256"
        },
        {
          "internalType": "uint256",
          "name": "requiredWeight",
          "type": "uint256"
        }
      ],
      "stateMutability": "view",
      "type": "function"
    },
    {
      "inputs": [
        {
          "internalType": "bytes32",
          "name": "requestId",
          "type": "bytes32"
        }
      ],
      "name": "getRequest",
      "outputs": [
        {
          "components": [
            {
              "internalType": "bytes32",
              "name": "marketRef",
              "type": "bytes32"
            },
            {
              "internalType": "address",
              "name": "requester",
              "type": "address"
            },
            {
              "internalType": "bytes",
              "name": "data",
              "type": "bytes"
            },
            {
              "internalType": "bool",
              "name": "fulfilled",
              "type": "bool"
            },
            {
              "internalType": "bytes",
              "name": "attestationCid",
              "type": "bytes"
            },
            {
              "internalType": "bool",
              "name": "outcome",
              "type": "bool"
            },
            {
              "internalType": "bytes",
              "name": "metadata",
              "type": "bytes"
            }
          ],
          "internalType": "struct VPOAdapter.Request",
          "name": "",
          "type": "tuple"
        }
      ],
      "stateMutability": "view",
      "type": "function"
    },
    {
      "inputs": [
        {
          "internalType": "address",
          "name": "",
          "type": "address"
        }
      ],
      "name": "operatorWeights",
      "outputs": [
        {
          "internalType": "uint256",
          "name": "",
          "type": "uint256"
        }
      ],
      "stateMutability": "view",
      "type": "function"
    },
    {
      "inputs": [],
      "name": "quorumThreshold",
      "outputs": [
        {
          "internalType": "uint256",
          "name": "",
          "type": "uint256"
        }
      ],
      "stateMutability": "view",
      "type": "function"
    },
    {
      "inputs": [
        {
          "internalType": "bytes32",
          "name": "marketRef",
          "type": "bytes32"
        },
        {
          "internalType": "bytes",
          "name": "data",
          "type": "bytes"
        }
      ],
      "name": "requestVerification",
      "outputs": [
        {
          "internalType": "bytes32",
          "name": "requestId",
          "type": "bytes32"
        }
      ],
      "stateMutability": "nonpayable",
      "type": "function"
    },
    {
      "inputs": [
        {
          "internalType": "address",
          "name": "node",
          "type": "address"
        },
        {
          "internalType": "bool",
          "name": "enabled",
          "type": "bool"
        }
      ],
      "name": "setAVSNode",
      "outputs": [],
      "stateMutability": "nonpayable",
      "type": "function"
    },
    {
      "inputs": [
        {
          "internalType": "address",
          "name": "operator",
          "type": "address"
        },
        {
          "internalType": "uint256",
          "name": "weight",
          "type": "uint256"
        }
      ],
      "name": "setOperatorWeight",
      "outputs": [],
      "stateMutability": "nonpayable",
      "type": "function"
    },
    {
      "inputs": [
        {
          "internalType": "uint256",
          "name": "threshold",
          "type": "uint256"
        }
      ],
      "name": "setQuorumThreshold",
      "outputs": [],
      "stateMutability": "nonpayable",
      "type": "function"
    },
    {
      "inputs": [
        {
          "internalType": "bytes32",
          "name": "requestId",
          "type": "bytes32"
        },
        {
          "internalType": "bool",
          "name": "outcome",
          "type": "bool"
        },
        {
          "internalType": "bytes",
          "name": "attestationCid",
          "type": "bytes"
        },
        {
          "internalType": "bytes",
          "name": "signature",
          "type": "bytes"
        }
      ],
      "name": "submitAttestation",
      "outputs": [],
      "stateMutability": "nonpayable",
      "type": "function"
    },
    {
      "inputs": [],
      "name": "totalOperatorWeight",
      "outputs": [
        {
          "internalType": "uint256",
          "name": "",
          "type": "uint256"
        }
      ],
      "stateMutability": "view",
      "type": "function"
    }
  ],
  "bytecode": "0x60806040526042600655348015601457600080fd5b50604051611d22380380611d22833981016040819052603191607b565b6001600160a01b03811660575760405163d92e233d60e01b815260040160405180910390fd5b600780546001600160a01b0319166001600160a01b039290921691909117905560a9565b600060208284031215608c57600080fd5b81516001600160a01b038116811460a257600080fd5b9392505050565b611c6a806100b86000396000f3fe608060405234801561001057600080fd5b50600436106101005760003560e01c8063a4e132bc11610097578063f1d1b38111610066578063f1d1b3811461023a578063f7c226da1461026d578063f851a44014610280578063fb1e61ca146102ab57600080fd5b8063a4e132bc146101c9578063b457c25a146101dc578063c09fff13146101fc578063c5e9a2791461023157600080fd5b80634524c7e1116100d35780634524c7e1146101695780637b7a91dd1461017c5780639378c8fa1461019357806396c59cc1146101a657600080fd5b80630e6b111014610105578063285b80a21461011a57806337e59e361461012d578063421c1a3114610156575b600080fd5b6101186101133660046114be565b6102cb565b005b610118610128366004611541565b61039b565b61014061013b3660046115d1565b61040a565b60405161014d9190611630565b60405180910390f35b6101186101643660046116e5565b6105d2565b6101186101773660046115d1565b610610565b61018560065481565b60405190815260200161014d565b6101186101a1366004611756565b610698565b6101b96101b43660046115d1565b6106df565b60405161014d94939291906117b0565b6101856101d73660046117f0565b610991565b6101856101ea36600461183c565b60026020526000908152604090205481565b61020f61020a3660046115d1565b610b2e565b604080519415158552602085019390935291830152606082015260800161014d565b61018560035481565b61025d61024836600461183c565b60016020526000908152604090205460ff1681565b604051901515815260200161014d565b61011861027b36600461185e565b610b9f565b600754610293906001600160a01b031681565b6040516001600160a01b03909116815260200161014d565b6102be6102b93660046115d1565b610c50565b60405161014d9190611891565b6007546001600160a01b031633146102f657604051634755657960e01b815260040160405180910390fd5b6001600160a01b03821661031d5760405163d92e233d60e01b815260040160405180910390fd5b6001600160a01b0382166000908152600260205260409020805490829055600354829061034b908390611944565b6103559190611957565b6003556040518281526001600160a01b038416907ff21e638cbccad60709e37c990768543730ce2449d9c79b38e1e972fa99b3a2199060200160405180910390a2505050565b3360009081526001602052604090205460ff166103ca576040516282b42960e81b815260040160405180910390fd5b6103d986848787868633610e9e565b6103e38684611207565b1561040257610402868460405180602001604052806000815250611264565b505050505050565b606060046000838152602001908152602001600020805480602002602001604051908101604052809291908181526020016000905b828210156105c75760008481526020908190206040805160a0810182526004860290920180546001600160a01b0381168452600160a01b900460ff161515938301939093526001830180549293929184019161049a9061196a565b80601f01602080910402602001604051908101604052809291908181526020018280546104c69061196a565b80156105135780601f106104e857610100808354040283529160200191610513565b820191906000526020600020905b8154815290600101906020018083116104f657829003601f168201915b5050505050815260200160028201805461052c9061196a565b80601f01602080910402602001604051908101604052809291908181526020018280546105589061196a565b80156105a55780601f1061057a576101008083540402835291602001916105a5565b820191906000526020600020905b81548152906001019060200180831161058857829003601f168201915b505050505081526020016003820154815250508152602001906001019061043f565b505050509050919050565b3360009081526001602052604090205460ff16610601576040516282b42960e81b815260040160405180910390fd5b61040286868686868633610e9e565b6007546001600160a01b0316331461063b57604051634755657960e01b815260040160405180910390fd5b606481111561065d57604051630309cb8760e51b815260040160405180910390fd5b60068190556040518181527fbc589fccf641d342b7853c2c6faca39631d4d19efbe77e71e5611e31678c220e9060200160405180910390a150565b6106d9848484848080601f01602080910402602001604051908101604052809392919081815260200183838082843760009201919091525061126492505050565b50505050565b600081815260208181526040808320815160e0810183528154815260018201546001600160a01b0316938101939093526002810180546060948694869486949293909291840191906107309061196a565b80601f016020809104026020016040519081016040528092919081815260200182805461075c9061196a565b80156107a95780601f1061077e576101008083540402835291602001916107a9565b820191906000526020600020905b81548152906001019060200180831161078c57829003601f168201915b5050509183525050600382015460ff16151560208201526004820180546040909201916107d59061196a565b80601f01602080910402602001604051908101604052809291908181526020018280546108019061196a565b801561084e5780601f106108235761010080835404028352916020019161084e565b820191906000526020600020905b81548152906001019060200180831161083157829003601f168201915b5050509183525050600582015460ff161515602082015260068201805460409092019161087a9061196a565b80601f01602080910402602001604051908101604052809291908181526020018280546108a69061196a565b80156108f35780601f106108c8576101008083540402835291602001916108f3565b820191906000526020600020905b8154815290600101906020018083116108d657829003601f168201915b5050509190925250505060208101519091506001600160a01b031661093c575050604080516020808201835260008083528351918201909352828152919450925083915061098a565b806060015161096f575050604080516020808201835260008083528351918201909352828152919450925083915061098a565b600181608001518260a001518360c001519450945094509450505b9193509193565b60008333428585446040516020016109ae969594939291906119a4565b60408051601f19818403018152828252805160209182012060e08401835287845233848301528251601f8701839004830281018301845286815290945091830191908690869081908401838280828437600092018290525093855250505060208083018290526040805180830182528381528185015260608401839052805180830182528381526080909401939093528482528181529082902083518155908301516001820180546001600160a01b0319166001600160a01b03909216919091179055908201516002820190610a849082611a44565b50606082015160038201805460ff191691151591909117905560808201516004820190610ab19082611a44565b5060a082015160058201805460ff191691151591909117905560c08201516006820190610ade9082611a44565b5090505083336001600160a01b0316827f34602e40c4c49141c143fef967cb05afc0207ba0f21b2bc82b56b712b4250fca8686604051610b1f929190611b2c565b60405180910390a49392505050565b6000806000806064600654600354610b469190611b48565b610b509190611b5f565b60008681526005602090815260408083206001845290915280822054828052912054909450925090508083101580610b885750808210155b8015610b9657506000600354115b93509193509193565b6007546001600160a01b03163314610bca57604051634755657960e01b815260040160405180910390fd5b6001600160a01b038216610bf15760405163d92e233d60e01b815260040160405180910390fd5b6001600160a01b038216600081815260016020908152604091829020805460ff191685151590811790915591519182527fa8cfb85fb565846d65e4062d92a89056ecb7aa24252225132315978a9ed574c1910160405180910390a25050565b6040805160e080820183526000808352602080840182905260608486018190528085018390526080850181905260a0850183905260c085015285825281815290849020845192830185528054835260018101546001600160a01b031691830191909152600281018054939492939192840191610ccb9061196a565b80601f0160208091040260200160405190810160405280929190818152602001828054610cf79061196a565b8015610d445780601f10610d1957610100808354040283529160200191610d44565b820191906000526020600020905b815481529060010190602001808311610d2757829003601f168201915b5050509183525050600382015460ff1615156020820152600482018054604090920191610d709061196a565b80601f0160208091040260200160405190810160405280929190818152602001828054610d9c9061196a565b8015610de95780601f10610dbe57610100808354040283529160200191610de9565b820191906000526020600020905b815481529060010190602001808311610dcc57829003601f168201915b5050509183525050600582015460ff1615156020820152600682018054604090920191610e159061196a565b80601f0160208091040260200160405190810160405280929190818152602001828054610e419061196a565b8015610e8e5780601f10610e6357610100808354040283529160200191610e8e565b820191906000526020600020905b815481529060010190602001808311610e7157829003601f168201915b5050505050815250509050919050565b600087815260208190526040902060018101546001600160a01b0316610ed75760405163c5723b5160e01b815260040160405180910390fd5b600381015460ff1615610efd57604051634a4117f960e01b815260040160405180910390fd5b6001600160a01b03821660009081526002602052604081205490819003610f36576040516282b42960e81b815260040160405180910390fd5b60005b60008a815260046020526040902054811015610fbb5760008a815260046020526040902080546001600160a01b038616919083908110610f7b57610f7b611b81565b60009182526020909120600490910201546001600160a01b031603610fb357604051634a4117f960e01b815260040160405180910390fd5b600101610f39565b50600460008a81526020019081526020016000206040518060a00160405280856001600160a01b031681526020018a1515815260200189898080601f016020809104026020016040519081016040528093929190818152602001838380828437600092019190915250505090825250604080516020601f8a01819004810282018101909252888152918101919089908990819084018382808284376000920182905250938552505042602093840152508354600181810186559482529082902083516004909202018054928401511515600160a01b026001600160a81b03199093166001600160a01b0390921691909117919091178155604082015191929091908201906110c99082611a44565b50606082015160028201906110de9082611a44565b506080919091015160039091015560008981526005602090815260408083208b1515845290915281208054839290611117908490611957565b92505081905550826001600160a01b0316897f4164d38fcc30943a577283f30908d604d84a89a2e856b65b33296323553558058a8a8a8a8a604051611160959493929190611b97565b60405180910390a360008981526005602090815260408083208b1515845290915281205460065460035491929160649161119991611b48565b6111a39190611b5f565b90508082101580156111b757506000600354115b156111fa57604080518b15158152602081018490528c917f4788c192b43b1eaa29d531808a78165d3487d939b8246058f5ad10d22fc2bd0d910160405180910390a25b5050505050505050505050565b600060035460000361121b5750600061125e565b6000838152600560209081526040808320851515845290915281205460065460035491929160649161124c91611b48565b6112569190611b5f565b909110159150505b92915050565b600083815260208190526040902060018101546001600160a01b031661129d5760405163c5723b5160e01b815260040160405180910390fd5b600381015460ff16156112c357604051634a4117f960e01b815260040160405180910390fd5b6112cd8484611207565b6112ea57604051630309cb8760e51b815260040160405180910390fd5b6040805160208082018352600080835287815260049091529190912054156113c8576000858152600460205260408120805490919061132b5761132b611b81565b906000526020600020906004020160010180546113479061196a565b80601f01602080910402602001604051908101604052809291908181526020018280546113739061196a565b80156113c05780601f10611395576101008083540402835291602001916113c0565b820191906000526020600020905b8154815290600101906020018083116113a357829003601f168201915b505050505090505b60038201805460ff19166001179055600482016113e58282611a44565b5060058201805460ff1916851515179055600682016114048482611a44565b50600085815260056020908152604080832087151584529091529081902054905186917f62c5313ac9057b028c77d3d71a8bc78681ab575a0cab56a1fef1e7484cd6b48d91611457918891889190611bd2565b60405180910390a2847f89b763933efe68c9fb105be2523d43afbb04f27b42bda7793a30bb6ae16bc4ff82868660405161149393929190611bfd565b60405180910390a25050505050565b80356001600160a01b03811681146114b957600080fd5b919050565b600080604083850312156114d157600080fd5b6114da836114a2565b946020939093013593505050565b60008083601f8401126114fa57600080fd5b50813567ffffffffffffffff81111561151257600080fd5b60208301915083602082850101111561152a57600080fd5b9250929050565b803580151581146114b957600080fd5b6000806000806000806080878903121561155a57600080fd5b86359550602087013567ffffffffffffffff81111561157857600080fd5b61158489828a016114e8565b9096509450611597905060408801611531565b9250606087013567ffffffffffffffff8111156115b357600080fd5b6115bf89828a016114e8565b979a9699509497509295939492505050565b6000602082840312156115e357600080fd5b5035919050565b6000815180845260005b81811015611610576020818501810151868301820152016115f4565b506000602082860101526020601f19601f83011685010191505092915050565b6000602082016020835280845180835260408501915060408160051b86010192506020860160005b828110156116d957603f19878603018452815160018060a01b038151168652602081015115156020870152604081015160a0604088015261169c60a08801826115ea565b9050606082015187820360608901526116b582826115ea565b60809384015198909301979097525094506020938401939190910190600101611658565b50929695505050505050565b600080600080600080608087890312156116fe57600080fd5b8635955061170e60208801611531565b9450604087013567ffffffffffffffff81111561172a57600080fd5b61173689828a016114e8565b909550935050606087013567ffffffffffffffff8111156115b357600080fd5b6000806000806060858703121561176c57600080fd5b8435935061177c60208601611531565b9250604085013567ffffffffffffffff81111561179857600080fd5b6117a4878288016114e8565b95989497509550505050565b84151581526080602082015260006117cb60808301866115ea565b841515604084015282810360608401526117e581856115ea565b979650505050505050565b60008060006040848603121561180557600080fd5b83359250602084013567ffffffffffffffff81111561182357600080fd5b61182f868287016114e8565b9497909650939450505050565b60006020828403121561184e57600080fd5b611857826114a2565b9392505050565b6000806040838503121561187157600080fd5b61187a836114a2565b915061188860208401611531565b90509250929050565b602081528151602082015260018060a01b0360208301511660408201526000604083015160e060608401526118ca6101008401826115ea565b90506060840151151560808401526080840151601f198483030160a08501526118f382826115ea565b91505060a084015161190960c085018215159052565b5060c0840151838203601f190160e085015261192582826115ea565b95945050505050565b634e487b7160e01b600052601160045260246000fd5b8181038181111561125e5761125e61192e565b8082018082111561125e5761125e61192e565b600181811c9082168061197e57607f821691505b60208210810361199e57634e487b7160e01b600052602260045260246000fd5b50919050565b8681526bffffffffffffffffffffffff198660601b166020820152846034820152828460548301376054920191820152607401949350505050565b634e487b7160e01b600052604160045260246000fd5b601f821115611a3f57806000526020600020601f840160051c81016020851015611a1c5750805b601f840160051c820191505b81811015611a3c5760008155600101611a28565b50505b505050565b815167ffffffffffffffff811115611a5e57611a5e6119df565b611a7281611a6c845461196a565b846119f5565b6020601f821160018114611aa65760008315611a8e5750848201515b600019600385901b1c1916600184901b178455611a3c565b600084815260208120601f198516915b82811015611ad65787850151825560209485019460019092019101611ab6565b5084821015611af45786840151600019600387901b60f8161c191681555b50505050600190811b01905550565b81835281816020850137506000828201602090810191909152601f909101601f19169091010190565b602081526000611b40602083018486611b03565b949350505050565b808202811582820484141761125e5761125e61192e565b600082611b7c57634e487b7160e01b600052601260045260246000fd5b500490565b634e487b7160e01b600052603260045260246000fd5b8515158152606060208201526000611bb3606083018688611b03565b8281036040840152611bc6818587611b03565b98975050505050505050565b8315158152606060208201526000611bed60608301856115ea565b9050826040830152949350505050565b606081526000611c1060608301866115ea565b84151560208401528281036040840152611c2a81856115ea565b969550505050505056fea264697066735822122092cca1be4003265f4837ac098d81e4e87649c708f64945a40a1c61bb889cc08664736f6c634300081a0033",
  "linkReferences": {},
  "deployedLinkReferences": {}
}