{
  "_format": "hh-sol-artifact-1",
  "contractName": "GnosisAdapter",
  "sourceName": "contracts/adapter/GnosisAdapter.sol",
  "abi": [
    {
      "inputs": [
        {
          "internalType": "address",
          "name": "veyraOracleAVS_",
          "type": "address"
        },
        {
          "internalType": "address",
          "name": "conditionalTokens_",
          "type": "address"
        },
        {
          "internalType": "address",
          "name": "admin_",
          "type": "address"
        }
      ],
      "stateMutability": "nonpayable",
      "type": "constructor"
    },
    {
      "inputs": [],
      "name": "AlreadyFulfilled",
      "type": "error"
    },
    {
      "inputs": [],
      "name": "NotFound",
      "type": "error"
    },
    {
      "inputs": [],
      "name": "OnlyAdmin",
      "type": "error"
    },
    {
      "inputs": [],
      "name": "ZeroAddress",
      "type": "error"
    },
    {
      "anonymous": false,
      "inputs": [
        {
          "indexed": true,
          "internalType": "bytes32",
          "name": "conditionId",
          "type": "bytes32"
        },
        {
          "indexed": true,
          "internalType": "bytes32",
          "name": "requestId",
          "type": "bytes32"
        },
        {
          "indexed": false,
          "internalType": "bytes32",
          "name": "questionId",
          "type": "bytes32"
        },
        {
          "indexed": false,
          "internalType": "uint256",
          "name": "outcomeSlotCount",
          "type": "uint256"
        }
      ],
      "name": "ConditionHandled",
      "type": "event"
    },
    {
      "anonymous": false,
      "inputs": [
        {
          "indexed": true,
          "internalType": "bytes32",
          "name": "conditionId",
          "type": "bytes32"
        },
        {
          "indexed": true,
          "internalType": "bytes32",
          "name": "requestId",
          "type": "bytes32"
        },
        {
          "indexed": false,
          "internalType": "bool",
          "name": "outcome",
          "type": "bool"
        }
      ],
      "name": "ConditionResolved",
      "type": "event"
    },
    {
      "inputs": [],
      "name": "admin",
      "outputs": [
        {
          "internalType": "address",
          "name": "",
          "type": "address"
        }
      ],
      "stateMutability": "view",
      "type": "function"
    },
    {
      "inputs": [
        {
          "internalType": "bytes32",
          "name": "",
          "type": "bytes32"
        }
      ],
      "name": "conditionResolved",
      "outputs": [
        {
          "internalType": "bool",
          "name": "",
          "type": "bool"
        }
      ],
      "stateMutability": "view",
      "type": "function"
    },
    {
      "inputs": [
        {
          "internalType": "bytes32",
          "name": "",
          "type": "bytes32"
        }
      ],
      "name": "conditionToRequest",
      "outputs": [
        {
          "internalType": "bytes32",
          "name": "",
          "type": "bytes32"
        }
      ],
      "stateMutability": "view",
      "type": "function"
    },
    {
      "inputs": [],
      "name": "conditionalTokens",
      "outputs": [
        {
          "internalType": "contract IGnosisConditionalTokens",
          "name": "",
          "type": "address"
        }
      ],
      "stateMutability": "view",
      "type": "function"
    },
    {
      "inputs": [
        {
          "internalType": "bytes32",
          "name": "requestId",
          "type": "bytes32"
        }
      ],
      "name": "getConditionId",
      "outputs": [
        {
          "internalType": "bytes32",
          "name": "conditionId",
          "type": "bytes32"
        }
      ],
      "stateMutability": "view",
      "type": "function"
    },
    {
      "inputs": [
        {
          "internalType": "bytes32",
          "name": "conditionId",
          "type": "bytes32"
        }
      ],
      "name": "getRequestId",
      "outputs": [
        {
          "internalType": "bytes32",
          "name": "requestId",
          "type": "bytes32"
        }
      ],
      "stateMutability": "view",
      "type": "function"
    },
    {
      "inputs": [
        {
          "internalType": "bytes32",
          "name": "conditionId",
          "type": "bytes32"
        },
        {
          "internalType": "bytes32",
          "name": "questionId",
          "type": "bytes32"
        },
        {
          "internalType": "uint256",
          "name": "outcomeSlotCount",
          "type": "uint256"
        },
        {
          "internalType": "bytes",
          "name": "data",
          "type": "bytes"
        }
      ],
      "name": "handleCondition",
      "outputs": [
        {
          "internalType": "bytes32",
          "name": "requestId",
          "type": "bytes32"
        }
      ],
      "stateMutability": "nonpayable",
      "type": "function"
    },
    {
      "inputs": [
        {
          "internalType": "bytes32",
          "name": "",
          "type": "bytes32"
        }
      ],
      "name": "requestToCondition",
      "outputs": [
        {
          "internalType": "bytes32",
          "name": "",
          "type": "bytes32"
        }
      ],
      "stateMutability": "view",
      "type": "function"
    },
    {
      "inputs": [
        {
          "internalType": "bytes32",
          "name": "requestId",
          "type": "bytes32"
        },
        {
          "internalType": "uint256",
          "name": "outcomeSlotCount",
          "type": "uint256"
        }
      ],
      "name": "resolveCondition",
      "outputs": [
        {
          "internalType": "bytes32",
          "name": "conditionId",
          "type": "bytes32"
        }
      ],
      "stateMutability": "nonpayable",
      "type": "function"
    },
    {
      "inputs": [],
      "name": "veyraOracleAVS",
      "outputs": [
        {
          "internalType": "contract IVeyraOracleAVS",
          "name": "",
          "type": "address"
        }
      ],
      "stateMutability": "view",
      "type": "function"
    }
  ],
  "bytecode": "0x60c0346100f957601f610b2238819003918201601f19168301916001600160401b038311848410176100fe578084926060946040528339810103126100f95761004781610114565b61005f604061005860208501610114565b9301610114565b6001600160a01b039091169182156100e8576001600160a01b03169081156100e8576001600160a01b03169182156100e85760805260a052600080546001600160a01b0319169190911790556040516109f990816101298239608051818181610129015281816102f80152610618015260a05181818161016e0152818161025701526106820152f35b63d92e233d60e01b60005260046000fd5b600080fd5b634e487b7160e01b600052604160045260246000fd5b51906001600160a01b03821682036100f95756fe608080604052600436101561001357600080fd5b60003560e01c90816304329c031461042f5750806335c0c25e146103fe57806339ed28b4146101e95780634e4bdc7e1461019d5780635bd9e299146101585780636abe0ed4146101135780636b28ccf9146100e75780636ddf5730146100bb5780639d8b43a5146100bb5763f851a4401461008d57600080fd5b346100b65760003660031901126100b6576000546040516001600160a01b039091168152602090f35b600080fd5b346100b65760203660031901126100b65760043560005260016020526020604060002054604051908152f35b346100b65760203660031901126100b65760043560005260026020526020604060002054604051908152f35b346100b65760003660031901126100b6576040517f00000000000000000000000000000000000000000000000000000000000000006001600160a01b03168152602090f35b346100b65760003660031901126100b6576040517f00000000000000000000000000000000000000000000000000000000000000006001600160a01b03168152602090f35b346100b65760403660031901126100b6576000546001600160a01b031633036101d85760206101d06024356004356105e4565b604051908152f35b634755657960e01b60005260046000fd5b346100b65760803660031901126100b65760643560043567ffffffffffffffff82116100b657366023830112156100b65781600401359167ffffffffffffffff83116100b65736602484830101116100b65760405163a254aac760e01b8152600481018390526000816024817f00000000000000000000000000000000000000000000000000000000000000006001600160a01b03165afa9081156103bd576000916103da575b506103c9578160005260016020526040600020546103c9576024606460209285604051968794859363c243807160e01b855288600486015260408286015282604486015201848401376000838284010152601f80199101168101030181600060018060a01b037f0000000000000000000000000000000000000000000000000000000000000000165af19182156103bd57600092610386575b60208380848060005260018452816040600020558160005260028452806040600020557f8871d37b025fb5dd6cdcab646a73f39f617113c4d8337ed245825c4ef3db35e560408051602435815260443587820152a3604051908152f35b6020813d6020116103b5575b8161039f60209383610457565b810103126103b1575191506020610329565b8280fd5b3d9150610392565b6040513d6000823e3d90fd5b634a4117f960e01b60005260046000fd5b6103f791503d806000833e6103ef8183610457565b8101906104b4565b5084610290565b346100b65760203660031901126100b6576004356000526003602052602060ff604060002054166040519015158152f35b346100b65760203660031901126100b657602090600435600052600282526040600020548152f35b90601f8019910116810190811067ffffffffffffffff82111761047957604052565b634e487b7160e01b600052604160045260246000fd5b519081151582036100b657565b67ffffffffffffffff81116104795760051b60200190565b91906040838203126100b6576104c98361048f565b9260208101519067ffffffffffffffff82116100b657019080601f830112156100b65781516104f78161049c565b926105056040519485610457565b81845260208085019260051b8201019283116100b657602001905b82821061052d5750505090565b8151815260209182019101610520565b81601f820112156100b65780519067ffffffffffffffff82116104795760405192610572601f8401601f191660200185610457565b828452602083830101116100b65760005b82811061059857505060206000918301015290565b80602080928401015182828701015201610583565b8051156105ba5760200190565b634e487b7160e01b600052603260045260246000fd5b80518210156105ba5760209160051b010190565b60008181526002602052604081205493929084156109b4576040516396c59cc160e01b8152600481018490529181836024817f00000000000000000000000000000000000000000000000000000000000000006001600160a01b03165afa9283156107c4578290839461092f575b501561092057858252600360205260ff6040832054166109115760405163a254aac760e01b8152600481018790527f00000000000000000000000000000000000000000000000000000000000000006001600160a01b0316908381602481855afa9081156109065784916108eb575b506108a0576106cf8261049c565b916106dd6040519384610457565b8083526106e98161049c565b602084019190601f19013683378515610804576001610707856105ad565b5260015b8181106107ef5750505b813b156107eb57918391604051938492633124a62b60e21b845260448401908b60048601526040602486015251809152606484019190855b8181106107cf575050508383809203925af180156107c457926040836020937fd4f52ab5fba0009b912ee555cc8105b66284f4dc2f90c13f048c1b397aedd9b3958a976107b4575b879052506003845220805460ff191660011790556040519015158152a3565b6107bd91610457565b3881610795565b6040513d84823e3d90fd5b825184528896508795506020938401939092019160010161074d565b8380fd5b80866107fd600193886105d0565b520161070b565b8461080e856105ad565b526001811161081e575b50610715565b96939592979491906000198801978811978861088c576001610840828c6105d0565b526001895b610878578181101561086757808961085f6001938e6105d0565b520189610845565b505090919497929593965038610818565b634e487b7160e01b89526011600452602489fd5b634e487b7160e01b88526011600452602488fd5b5050602085949592604083857fd4f52ab5fba0009b912ee555cc8105b66284f4dc2f90c13f048c1b397aedd9b395526003845220600160ff198254161790556040519015158152a390565b6108ff91503d8086833e6103ef8183610457565b50386106c1565b6040513d86823e3d90fd5b634a4117f960e01b8252600482fd5b63c5723b5160e01b8252600482fd5b9350503d8083853e6109418185610457565b83016080848203126103b1576109568461048f565b90602085015167ffffffffffffffff81116109b0578161097791870161053d565b506109846040860161048f565b9460608101519067ffffffffffffffff82116109ac576109a592910161053d565b5038610652565b8580fd5b8480fd5b63c5723b5160e01b8152600490fdfea2646970667358221220f342fd4a666875690b2b8c41cf7016efa1ecd8825a53ffc012d178ff53254dcd64736f6c634300081a0033",
  "linkReferences": {},
  "deployedLinkReferences": {}
}