{
  "_format": "hh-sol-artifact-1",
  "contractName": "ERC20Mock",
  "sourceName": "contracts/test/ERC20Mock.sol",
  "abi": [
    {
      "inputs": [
        {
          "internalType": "string",
          "name": "name_",
          "type": "string"
        },
        {
          "internalType": "string",
          "name": "symbol_",
          "type": "string"
        },
        {
          "internalType": "uint8",
          "name": "decimals_",
          "type": "uint8"
        }
      ],
      "stateMutability": "nonpayable",
      "type": "constructor"
    },
    {
      "anonymous": false,
      "inputs": [
        {
          "indexed": true,
          "internalType": "address",
          "name": "owner",
          "type": "address"
        },
        {
          "indexed": true,
          "internalType": "address",
          "name": "spender",
          "type": "address"
        },
        {
          "indexed": false,
          "internalType": "uint256",
          "name": "value",
          "type": "uint256"
        }
      ],
      "name": "Approval",
      "type": "event"
    },
    {
      "anonymous": false,
      "inputs": [
        {
          "indexed": true,
          "internalType": "address",
          "name": "from",
          "type": "address"
        },
        {
          "indexed": true,
          "internalType": "address",
          "name": "to",
          "type": "address"
        },
        {
          "indexed": false,
          "internalType": "uint256",
          "name": "value",
          "type": "uint256"
        }
      ],
      "name": "Transfer",
      "type": "event"
    },
    {
      "inputs": [
        {
          "internalType": "address",
          "name": "",
          "type": "address"
        },
        {
          "internalType": "address",
          "name": "",
          "type": "address"
        }
      ],
      "name": "allowance",
      "outputs": [
        {
          "internalType": "uint256",
          "name": "",
          "type": "uint256"
        }
      ],
      "stateMutability": "view",
      "type": "function"
    },
    {
      "inputs": [
        {
          "internalType": "address",
          "name": "spender",
          "type": "address"
        },
        {
          "internalType": "uint256",
          "name": "amount",
          "type": "uint256"
        }
      ],
      "name": "approve",
      "outputs": [
        {
          "internalType": "bool",
          "name": "",
          "type": "bool"
        }
      ],
      "stateMutability": "nonpayable",
      "type": "function"
    },
    {
      "inputs": [
        {
          "internalType": "address",
          "name": "",
          "type": "address"
        }
      ],
      "name": "balanceOf",
      "outputs": [
        {
          "internalType": "uint256",
          "name": "",
          "type": "uint256"
        }
      ],
      "stateMutability": "view",
      "type": "function"
    },
    {
      "inputs": [],
      "name": "decimals",
      "outputs": [
        {
          "internalType": "uint8",
          "name": "",
          "type": "uint8"
        }
      ],
      "stateMutability": "view",
      "type": "function"
    },
    {
      "inputs": [
        {
          "internalType": "address",
          "name": "to",
          "type": "address"
        },
        {
          "internalType": "uint256",
          "name": "amount",
          "type": "uint256"
        }
      ],
      "name": "mint",
      "outputs": [],
      "stateMutability": "nonpayable",
      "type": "function"
    },
    {
      "inputs": [],
      "name": "name",
      "outputs": [
        {
          "internalType": "string",
          "name": "",
          "type": "string"
        }
      ],
      "stateMutability": "view",
      "type": "function"
    },
    {
      "inputs": [],
      "name": "symbol",
      "outputs": [
        {
          "internalType": "string",
          "name": "",
          "type": "string"
        }
      ],
      "stateMutability": "view",
      "type": "function"
    },
    {
      "inputs": [],
      "name": "totalSupply",
      "outputs": [
        {
          "internalType": "uint256",
          "name": "",
          "type": "uint256"
        }
      ],
      "stateMutability": "view",
      "type": "function"
    },
    {
      "inputs": [
        {
          "internalType": "address",
          "name": "to",
          "type": "address"
        },
        {
          "internalType": "uint256",
          "name": "amount",
          "type": "uint256"
        }
      ],
      "name": "transfer",
      "outputs": [
        {
          "internalType": "bool",
          "name": "",
          "type": "bool"
        }
      ],
      "stateMutability": "nonpayable",
      "type": "function"
    },
    {
      "inputs": [
        {
          "internalType": "address",
          "name": "from",
          "type": "address"
        },
        {
          "internalType": "address",
          "name": "to",
          "type": "address"
        },
        {
          "internalType": "uint256",
          "name": "amount",
          "type": "uint256"
        }
      ],
      "name": "transferFrom",
      "outputs": [
        {
          "internalType": "bool",
          "name": "",
          "type": "bool"
        }
      ],
      "stateMutability": "nonpayable",
      "type": "function"
    }
  ],
  "bytecode": "0x608060405234801561001057600080fd5b50604051610a70380380610a7083398101604081905261002f9161011e565b600061003b848261022a565b506001610048838261022a565b506002805460ff191660ff92909216919091179055506102e89050565b634e487b7160e01b600052604160045260246000fd5b600082601f83011261008c57600080fd5b81516001600160401b038111156100a5576100a5610065565b604051601f8201601f19908116603f011681016001600160401b03811182821017156100d3576100d3610065565b6040528181528382016020018510156100eb57600080fd5b60005b8281101561010a576020818601810151838301820152016100ee565b506000918101602001919091529392505050565b60008060006060848603121561013357600080fd5b83516001600160401b0381111561014957600080fd5b6101558682870161007b565b602086015190945090506001600160401b0381111561017357600080fd5b61017f8682870161007b565b925050604084015160ff8116811461019657600080fd5b809150509250925092565b600181811c908216806101b557607f821691505b6020821081036101d557634e487b7160e01b600052602260045260246000fd5b50919050565b601f82111561022557806000526020600020601f840160051c810160208510156102025750805b601f840160051c820191505b81811015610222576000815560010161020e565b50505b505050565b81516001600160401b0381111561024357610243610065565b6102578161025184546101a1565b846101db565b6020601f82116001811461028b57600083156102735750848201515b600019600385901b1c1916600184901b178455610222565b600084815260208120601f198516915b828110156102bb578785015182556020948501946001909201910161029b565b50848210156102d95786840151600019600387901b60f8161c191681555b50505050600190811b01905550565b610779806102f76000396000f3fe608060405234801561001057600080fd5b506004361061009e5760003560e01c806340c10f191161006657806340c10f191461012d57806370a082311461014257806395d89b4114610162578063a9059cbb1461016a578063dd62ed3e1461017d57600080fd5b806306fdde03146100a3578063095ea7b3146100c157806318160ddd146100e457806323b872dd146100fb578063313ce5671461010e575b600080fd5b6100ab6101a8565b6040516100b891906105a7565b60405180910390f35b6100d46100cf366004610611565b610236565b60405190151581526020016100b8565b6100ed60035481565b6040519081526020016100b8565b6100d461010936600461063b565b6102a3565b60025461011b9060ff1681565b60405160ff90911681526020016100b8565b61014061013b366004610611565b61043c565b005b6100ed610150366004610678565b60046020526000908152604090205481565b6100ab6104c7565b6100d4610178366004610611565b6104d4565b6100ed61018b36600461069a565b600560209081526000928352604080842090915290825290205481565b600080546101b5906106cd565b80601f01602080910402602001604051908101604052809291908181526020018280546101e1906106cd565b801561022e5780601f106102035761010080835404028352916020019161022e565b820191906000526020600020905b81548152906001019060200180831161021157829003601f168201915b505050505081565b3360008181526005602090815260408083206001600160a01b038716808552925280832085905551919290917f8c5be1e5ebec7d5bd14f71427d1e84f3dd0314c0f7b2291e5b200ac8c7c3b925906102919086815260200190565b60405180910390a35060015b92915050565b6001600160a01b0383166000908152600460205260408120548211156102f65760405162461bcd60e51b815260206004820152600360248201526218985b60ea1b60448201526064015b60405180910390fd5b6001600160a01b03841660009081526005602090815260408083203384529091529020548211156103515760405162461bcd60e51b8152602060048201526005602482015264616c6c6f7760d81b60448201526064016102ed565b6001600160a01b03841660009081526005602090815260408083203384529091528120805484929061038490849061071d565b90915550506001600160a01b038416600090815260046020526040812080548492906103b190849061071d565b90915550506001600160a01b038316600090815260046020526040812080548492906103de908490610730565b92505081905550826001600160a01b0316846001600160a01b03167fddf252ad1be2c89b69c2b068fc378daa952ba7f163c4a11628f55a4df523b3ef8460405161042a91815260200190565b60405180910390a35060019392505050565b6001600160a01b03821660009081526004602052604081208054839290610464908490610730565b92505081905550806003600082825461047d9190610730565b90915550506040518181526001600160a01b038316906000907fddf252ad1be2c89b69c2b068fc378daa952ba7f163c4a11628f55a4df523b3ef9060200160405180910390a35050565b600180546101b5906106cd565b336000908152600460205260408120548211156105195760405162461bcd60e51b815260206004820152600360248201526218985b60ea1b60448201526064016102ed565b336000908152600460205260408120805484929061053890849061071d565b90915550506001600160a01b03831660009081526004602052604081208054849290610565908490610730565b90915550506040518281526001600160a01b0384169033907fddf252ad1be2c89b69c2b068fc378daa952ba7f163c4a11628f55a4df523b3ef90602001610291565b602081526000825180602084015260005b818110156105d557602081860181015160408684010152016105b8565b506000604082850101526040601f19601f83011684010191505092915050565b80356001600160a01b038116811461060c57600080fd5b919050565b6000806040838503121561062457600080fd5b61062d836105f5565b946020939093013593505050565b60008060006060848603121561065057600080fd5b610659846105f5565b9250610667602085016105f5565b929592945050506040919091013590565b60006020828403121561068a57600080fd5b610693826105f5565b9392505050565b600080604083850312156106ad57600080fd5b6106b6836105f5565b91506106c4602084016105f5565b90509250929050565b600181811c908216806106e157607f821691505b60208210810361070157634e487b7160e01b600052602260045260246000fd5b50919050565b634e487b7160e01b600052601160045260246000fd5b8181038181111561029d5761029d610707565b8082018082111561029d5761029d61070756fea26469706673582212205f98a548c42f6ecbcbdcd7be148735476934afa83dd1bfd24902ecebdc139b8c64736f6c634300081a0033",
  "linkReferences": {},
  "deployedLinkReferences": {}
}