{
  "_format": "hh-sol-artifact-1",
  "contractName": "MockUMAOptimisticOracle",
  "sourceName": "contracts/test/MockUMAOptimisticOracle.sol",
  "abi": [
    {
      "anonymous": false,
      "inputs": [
        {
          "indexed": true,
          "internalType": "bytes32",
          "name": "assertionId",
          "type": "bytes32"
        },
        {
          "indexed": false,
          "internalType": "bytes",
          "name": "claim",
          "type": "bytes"
        },
        {
          "indexed": true,
          "internalType": "address",
          "name": "asserter",
          "type": "address"
        },
        {
          "indexed": false,
          "internalType": "address",
          "name": "callbackRecipient",
          "type": "address"
        },
        {
          "indexed": false,
          "internalType": "address",
          "name": "escalationManager",
          "type": "address"
        },
        {
          "indexed": false,
          "internalType": "uint64",
          "name": "liveness",
          "type": "uint64"
        },
        {
          "indexed": false,
          "internalType": "address",
          "name": "currency",
          "type": "address"
        },
        {
          "indexed": false,
          "internalType": "uint256",
          "name": "bond",
          "type": "uint256"
        },
        {
          "indexed": false,
          "internalType": "bytes32",
          "name": "identifier",
          "type": "bytes32"
        }
      ],
      "name": "AssertionMade",
      "type": "event"
    },
    {
      "anonymous": false,
      "inputs": [
        {
          "indexed": true,
          "internalType": "bytes32",
          "name": "assertionId",
          "type": "bytes32"
        },
        {
          "indexed": false,
          "internalType": "bool",
          "name": "resolution",
          "type": "bool"
        }
      ],
      "name": "AssertionSettled",
      "type": "event"
    },
    {
      "inputs": [
        {
          "internalType": "bytes",
          "name": "claim",
          "type": "bytes"
        },
        {
          "internalType": "address",
          "name": "asserter",
          "type": "address"
        },
        {
          "internalType": "address",
          "name": "callbackRecipient",
          "type": "address"
        },
        {
          "internalType": "address",
          "name": "escalationManager",
          "type": "address"
        },
        {
          "internalType": "uint64",
          "name": "liveness",
          "type": "uint64"
        },
        {
          "internalType": "address",
          "name": "currency",
          "type": "address"
        },
        {
          "internalType": "uint256",
          "name": "bond",
          "type": "uint256"
        },
        {
          "internalType": "bytes32",
          "name": "identifier",
          "type": "bytes32"
        }
      ],
      "name": "assertTruth",
      "outputs": [
        {
          "internalType": "bytes32",
          "name": "assertionId",
          "type": "bytes32"
        }
      ],
      "stateMutability": "nonpayable",
      "type": "function"
    },
    {
      "inputs": [
        {
          "internalType": "bytes32",
          "name": "",
          "type": "bytes32"
        }
      ],
      "name": "assertions",
      "outputs": [
        {
          "internalType": "address",
          "name": "asserter",
          "type": "address"
        },
        {
          "internalType": "bytes",
          "name": "claim",
          "type": "bytes"
        },
        {
          "internalType": "address",
          "name": "callbackRecipient",
          "type": "address"
        },
        {
          "internalType": "address",
          "name": "escalationManager",
          "type": "address"
        },
        {
          "internalType": "uint64",
          "name": "liveness",
          "type": "uint64"
        },
        {
          "internalType": "address",
          "name": "currency",
          "type": "address"
        },
        {
          "internalType": "uint256",
          "name": "bond",
          "type": "uint256"
        },
        {
          "internalType": "bytes32",
          "name": "identifier",
          "type": "bytes32"
        },
        {
          "internalType": "bool",
          "name": "settled",
          "type": "bool"
        },
        {
          "internalType": "bool",
          "name": "settlementResolution",
          "type": "bool"
        }
      ],
      "stateMutability": "view",
      "type": "function"
    },
    {
      "inputs": [
        {
          "internalType": "bytes32",
          "name": "assertionId",
          "type": "bytes32"
        }
      ],
      "name": "getAssertion",
      "outputs": [
        {
          "internalType": "address",
          "name": "asserter",
          "type": "address"
        },
        {
          "internalType": "bytes",
          "name": "claim",
          "type": "bytes"
        },
        {
          "internalType": "address",
          "name": "callbackRecipient",
          "type": "address"
        },
        {
          "internalType": "address",
          "name": "escalationManager",
          "type": "address"
        },
        {
          "internalType": "uint64",
          "name": "liveness",
          "type": "uint64"
        },
        {
          "internalType": "address",
          "name": "currency",
          "type": "address"
        },
        {
          "internalType": "uint256",
          "name": "bond",
          "type": "uint256"
        },
        {
          "internalType": "bytes32",
          "name": "identifier",
          "type": "bytes32"
        },
        {
          "internalType": "bool",
          "name": "settled",
          "type": "bool"
        },
        {
          "internalType": "bool",
          "name": "settlementResolution",
          "type": "bool"
        }
      ],
      "stateMutability": "view",
      "type": "function"
    },
    {
      "inputs": [
        {
          "internalType": "bytes32",
          "name": "assertionId",
          "type": "bytes32"
        },
        {
          "internalType": "bool",
          "name": "resolution",
          "type": "bool"
        }
      ],
      "name": "settleAssertion",
      "outputs": [],
      "stateMutability": "nonpayable",
      "type": "function"
    }
  ],
  "bytecode": "0x60808060405234601557610971908161001b8239f35b600080fdfe608080604052600436101561001357600080fd5b60003560e01c908163883028841461067257508063aae82fd91461056d578063b905d7c8146100f35763d60715b51461004b57600080fd5b346100ee5760203660031901126100ee57600435600090815260208190526040902080546001600160a01b0316906100ea61008860018301610897565b60028301546003840154600485015460058601546006870154600790970154604051988998600883901c60ff90811698931696909593946001600160a01b039081169460a081901c67ffffffffffffffff16949082169392909116918b6107a8565b0390f35b600080fd5b346100ee576101003660031901126100ee5760043567ffffffffffffffff81116100ee57366023820112156100ee5780600401359067ffffffffffffffff8211610557576040519161014f601f8201601f19166020018461083b565b808352602083019136602483830101116100ee57816000926024602093018537840101526024356001600160a01b03811681036100ee57604435906001600160a01b03821682036100ee57606435926001600160a01b03841684036100ee5760843567ffffffffffffffff811681036100ee5760a435916001600160a01b03831683036100ee5760405161022760546020838b6101f483830197889251928391610760565b81016bffffffffffffffffffffffff198a60601b168382015242603482015244848201520301603481018452018261083b565b519020946040516102378161081e565b6001600160a01b03858116825260208083018a8152888316604080860191909152858416606086015267ffffffffffffffff878116608087015288851660a087015260c43560c087015260e43560e08701526000610100870181905261012087018190528c8152938490529220845181546001600160a01b0319169416939093178355518051918211610557576102d1600184015461085d565b601f811161050c575b5091899795939160209b9795938c90601f831160011461045e5793610120600761040f9a9895857fa6cdd1c5904ded4e53151faf7e6e3d968e9f4f2fde0b598f6c04406bfe35b5779d9b99966103fb9667ffffffffffffffff9a600092610453575b50508160011b916000199060031b1c19161760018201555b60408401516002820180546001600160a01b039283166001600160a01b031991821617909155606086015160038401805460808901518d1660a090811b938616918516919091178d821b191692909217905586015160048401805491909316911617905560c0840151600582015560e0840151600682015561010084015191018054929093015161ff0090151560081b1690151560ff1661ffff1990921691909117179055565b60405196879660e0885260e0880190610783565b6001600160a01b039a8b16878e0152908a16604087015291166060850152908716608084015260c43560a084015260e43560c08401529516940390a3604051908152f35b01519050388061033c565b9060018401600052806000209160005b601f19851681106104f25750600761040f9a98956001866103fb967fa6cdd1c5904ded4e53151faf7e6e3d968e9f4f2fde0b598f6c04406bfe35b5779f9d9b98966101209667ffffffffffffffff9c98601f198116106104d9575b505050811b016001820155610354565b015160001960f88460031b161c191690553880806104c9565b8282015184558e9c50600190930192918f01918f0161046e565b600184016000526020600020601f840160051c8101916020851061054d575b601f0160051c01905b81811061054157506102da565b60008155600101610534565b909150819061052b565b634e487b7160e01b600052604160045260246000fd5b346100ee5760403660031901126100ee576004356024358015158082036100ee57600083815260208190526040902080546001600160a01b0316156106375760070190815460ff81166106005761ffff191692151560081b61ff00169290921760011790557f507b6ce512d3d6ce6508af8152d3474bd60deabc208a47aa5fd2820238a5db9e90602090604051908152a2005b60405162461bcd60e51b815260206004820152600f60248201526e105b1c9958591e481cd95d1d1b1959608a1b6044820152606490fd5b60405162461bcd60e51b8152602060048201526013602482015272105cdcd95c9d1a5bdb881b9bdd08199bdd5b99606a1b6044820152606490fd5b346100ee5760203660031901126100ee576004356000526000602052604060002061069c8261081e565b80546001600160a01b031682526100ea6106b860018301610897565b9283602082015260018060a01b036002840154169283604083015260038101549067ffffffffffffffff60018060a01b0383169283606086015260a01c1680608085015260018060a01b036004830154168060a08601526005830154918260c087015260076006850154948560e089015201549460ff808716151596876101008a015260081c161515968761012082015260018060a01b03905116986040519a8b9a8b6107a8565b60005b8381106107735750506000910152565b8181015183820152602001610763565b9060209161079c81518092818552858086019101610760565b601f01601f1916010190565b9895929a9996936107df67ffffffffffffffff936101209a979360018060a01b03168c5261014060208d01526101408c0190610783565b6001600160a01b039c8d1660408c0152908c1660608b015291166080890152981660a087015260c086015260e085015215156101008401521515910152565b610140810190811067ffffffffffffffff82111761055757604052565b90601f8019910116810190811067ffffffffffffffff82111761055757604052565b90600182811c9216801561088d575b602083101461087757565b634e487b7160e01b600052602260045260246000fd5b91607f169161086c565b90604051918260008254926108ab8461085d565b808452936001811690811561091957506001146108d2575b506108d09250038361083b565b565b90506000929192526020600020906000915b8183106108fd5750509060206108d092820101386108c3565b60209193508060019154838589010152019101909184926108e4565b9050602092506108d094915060ff191682840152151560051b820101386108c356fea26469706673582212200b3fc4d6fb56844c2a501e543a365b4214c14f6da4d32ce3e1fcd7af71cca28064736f6c634300081a0033",
  "linkReferences": {},
  "deployedLinkReferences": {}
}