{
  "_format": "hh-sol-artifact-1",
  "contractName": "MockAllocationManager",
  "sourceName": "protocol/contracts/test/MockAllocationManager.sol",
  "abi": [
    {
      "inputs": [
        {
          "internalType": "address",
          "name": "avsAddress",
          "type": "address"
        }
      ],
      "name": "getAVSId",
      "outputs": [
        {
          "internalType": "bytes32",
          "name": "avsId",
          "type": "bytes32"
        }
      ],
      "stateMutability": "view",
      "type": "function"
    },
    {
      "inputs": [
        {
          "internalType": "bytes32",
          "name": "avsId",
          "type": "bytes32"
        }
      ],
      "name": "getAVSOperators",
      "outputs": [
        {
          "internalType": "address[]",
          "name": "operators",
          "type": "address[]"
        }
      ],
      "stateMutability": "view",
      "type": "function"
    },
    {
      "inputs": [
        {
          "internalType": "address",
          "name": "operator",
          "type": "address"
        },
        {
          "internalType": "bytes32",
          "name": "avsId",
          "type": "bytes32"
        }
      ],
      "name": "isOperatorRegisteredToAVS",
      "outputs": [
        {
          "internalType": "bool",
          "name": "isRegistered",
          "type": "bool"
        }
      ],
      "stateMutability": "view",
      "type": "function"
    },
    {
      "inputs": [
        {
          "internalType": "bytes32",
          "name": "avsId",
          "type": "bytes32"
        }
      ],
      "name": "optInToAVS",
      "outputs": [],
      "stateMutability": "nonpayable",
      "type": "function"
    },
    {
      "inputs": [
        {
          "internalType": "bytes32",
          "name": "avsId",
          "type": "bytes32"
        }
      ],
      "name": "optOutOfAVS",
      "outputs": [],
      "stateMutability": "nonpayable",
      "type": "function"
    },
    {
      "inputs": [
        {
          "internalType": "string",
          "name": "",
          "type": "string"
        },
        {
          "internalType": "bytes",
          "name": "slashingParams",
          "type": "bytes"
        }
      ],
      "name": "registerAVS",
      "outputs": [
        {
          "internalType": "bytes32",
          "name": "avsId",
          "type": "bytes32"
        }
      ],
      "stateMutability": "nonpayable",
      "type": "function"
    },
    {
      "inputs": [
        {
          "internalType": "address",
          "name": "operator",
          "type": "address"
        },
        {
          "internalType": "bytes32",
          "name": "avsId",
          "type": "bytes32"
        }
      ],
      "name": "registerOperatorToAVS",
      "outputs": [],
      "stateMutability": "nonpayable",
      "type": "function"
    },
    {
      "inputs": [
        {
          "internalType": "address",
          "name": "avsAddress",
          "type": "address"
        },
        {
          "internalType": "bytes32",
          "name": "avsId",
          "type": "bytes32"
        }
      ],
      "name": "setAVSId",
      "outputs": [],
      "stateMutability": "nonpayable",
      "type": "function"
    }
  ],
  "bytecode": "0x608080604052346039577f6b63c93bb9c103f4cc9e2c9c8bd4f072636ce7fdd2b8f9b25bea9098a58e439960035561051c908161003f8239f35b600080fdfe6080604052600436101561001257600080fd5b60003560e01c80633a3a06711461039357806344ae5b0f146103045780634501f573146102cc5780636b56214b146101f55780638c3b1388146101bb578063af5d736e146100fd578063ca25f210146100b05763d22f49941461007457600080fd5b346100ab5760203660031901126100ab5760043560009081526002602090815260408083203384529091529020805460ff19169055005b600080fd5b346100ab5760403660031901126100ab576100c9610408565b602435600052600260205260406000209060018060a01b0316600052602052602060ff604060002054166040519015158152f35b346100ab5760203660031901126100ab57600435600052600060205260406000206040518060208354918281520190819360005260206000209060005b81811061019c57505050816101509103826104c4565b6040519182916020830190602084525180915260408301919060005b81811061017a575050500390f35b82516001600160a01b031684528594506020938401939092019160010161016c565b82546001600160a01b031684526020909301926001928301920161013a565b346100ab5760203660031901126100ab576001600160a01b036101dc610408565b1660005260016020526020604060002054604051908152f35b346100ab5760403660031901126100ab5760043567ffffffffffffffff81116100ab5761022690369060040161041e565b505060243567ffffffffffffffff81116100ab5761024890369060040161041e565b9060035490339060208410156102a0575b6020838360018060a01b0316600052600182528060406000205560405182810190828252426040820152604081526102926060826104c4565b519020600355604051908152f35b60209150809293810103126100ab57356001600160a01b03811691908290036100ab5760209183610259565b346100ab5760403660031901126100ab576001600160a01b036102ed610408565b166000526001602052602435604060002055600080f35b346100ab5760403660031901126100ab5761031d610408565b602435806000526002602052604060002060018060a01b03831660005260205260ff604060002054161561034d57005b80600052600060205261036482604060002061044c565b60009081526002602090815260408083206001600160a01b03909416835292905220805460ff19166001179055005b346100ab5760203660031901126100ab57600435600081815260026020908152604080832033845290915290205460ff16156103cb57005b8060005260006020526103e233604060002061044c565b60009081526002602090815260408083203384529091529020805460ff19166001179055005b600435906001600160a01b03821682036100ab57565b9181601f840112156100ab5782359167ffffffffffffffff83116100ab57602083818601950101116100ab57565b805490680100000000000000008210156104ae5760018201808255821015610498576000526020600020019060018060a01b03166bffffffffffffffffffffffff60a01b825416179055565b634e487b7160e01b600052603260045260246000fd5b634e487b7160e01b600052604160045260246000fd5b90601f8019910116810190811067ffffffffffffffff8211176104ae5760405256fea2646970667358221220181f64dce63fa276d73dab2106a76a17b047426d8ae54cc9ccd874deb8fd4bd564736f6c634300081a0033",
  "linkReferences": {},
  "deployedLinkReferences": {}
}