{
  "_format": "hh-sol-artifact-1",
  "contractName": "MockGnosisConditionalTokens",
  "sourceName": "contracts/test/MockGnosisConditionalTokens.sol",
  "abi": [
    {
      "anonymous": false,
      "inputs": [
        {
          "indexed": true,
          "internalType": "bytes32",
          "name": "conditionId",
          "type": "bytes32"
        },
        {
          "indexed": true,
          "internalType": "address",
          "name": "oracle",
          "type": "address"
        },
        {
          "indexed": true,
          "internalType": "bytes32",
          "name": "questionId",
          "type": "bytes32"
        },
        {
          "indexed": false,
          "internalType": "uint256",
          "name": "outcomeSlotCount",
          "type": "uint256"
        }
      ],
      "name": "ConditionPreparation",
      "type": "event"
    },
    {
      "anonymous": false,
      "inputs": [
        {
          "indexed": true,
          "internalType": "bytes32",
          "name": "conditionId",
          "type": "bytes32"
        },
        {
          "indexed": false,
          "internalType": "uint256[]",
          "name": "payouts",
          "type": "uint256[]"
        }
      ],
      "name": "PayoutReported",
      "type": "event"
    },
    {
      "inputs": [
        {
          "internalType": "bytes32",
          "name": "",
          "type": "bytes32"
        }
      ],
      "name": "conditions",
      "outputs": [
        {
          "internalType": "address",
          "name": "oracle",
          "type": "address"
        },
        {
          "internalType": "bytes32",
          "name": "questionId",
          "type": "bytes32"
        },
        {
          "internalType": "uint256",
          "name": "outcomeSlotCount",
          "type": "uint256"
        },
        {
          "internalType": "bool",
          "name": "resolved",
          "type": "bool"
        }
      ],
      "stateMutability": "view",
      "type": "function"
    },
    {
      "inputs": [
        {
          "internalType": "bytes32",
          "name": "conditionId",
          "type": "bytes32"
        }
      ],
      "name": "getConditionPayouts",
      "outputs": [
        {
          "internalType": "bool",
          "name": "resolved",
          "type": "bool"
        },
        {
          "internalType": "uint256[]",
          "name": "payouts",
          "type": "uint256[]"
        }
      ],
      "stateMutability": "view",
      "type": "function"
    },
    {
      "inputs": [
        {
          "internalType": "bytes32",
          "name": "conditionId",
          "type": "bytes32"
        },
        {
          "internalType": "uint256",
          "name": "outcomeSlot",
          "type": "uint256"
        }
      ],
      "name": "getPayout",
      "outputs": [
        {
          "internalType": "uint256",
          "name": "",
          "type": "uint256"
        }
      ],
      "stateMutability": "view",
      "type": "function"
    },
    {
      "inputs": [
        {
          "internalType": "address",
          "name": "oracle",
          "type": "address"
        },
        {
          "internalType": "bytes32",
          "name": "questionId",
          "type": "bytes32"
        },
        {
          "internalType": "uint256",
          "name": "outcomeSlotCount",
          "type": "uint256"
        }
      ],
      "name": "prepareCondition",
      "outputs": [
        {
          "internalType": "bytes32",
          "name": "conditionId",
          "type": "bytes32"
        }
      ],
      "stateMutability": "nonpayable",
      "type": "function"
    },
    {
      "inputs": [
        {
          "internalType": "bytes32",
          "name": "conditionId",
          "type": "bytes32"
        },
        {
          "internalType": "uint256[]",
          "name": "payouts",
          "type": "uint256[]"
        }
      ],
      "name": "reportPayouts",
      "outputs": [],
      "stateMutability": "nonpayable",
      "type": "function"
    }
  ],
  "bytecode": "0x6080604052348015600f57600080fd5b506107e88061001f6000396000f3fe608060405234801561001057600080fd5b50600436106100575760003560e01c806394dfeed01461005c578063a254aac7146100cf578063c49298ac146100f0578063cef58f1314610105578063d96ee75414610126575b600080fd5b61009e61006a366004610615565b60006020819052908152604090208054600182015460028301546003909301546001600160a01b0390921692909160ff1684565b604080516001600160a01b039095168552602085019390935291830152151560608201526080015b60405180910390f35b6100e26100dd366004610615565b610139565b6040516100c692919061062e565b6101036100fe36600461067f565b6101f4565b005b610118610113366004610700565b610345565b6040519081526020016100c6565b610118610134366004610722565b610433565b600081815260208181526040808320815160a08101835281546001600160a01b03168152600182015481850152600282015481840152600382015460ff1615156060828101919091526004830180548551818802810188019096528086529195879593949360808601939092918301828280156101d557602002820191906000526020600020905b8154815260200190600101908083116101c1575b5050505050815250509050806060015181608001519250925050915091565b600083815260208190526040902080546001600160a01b03166102545760405162461bcd60e51b815260206004820152601360248201527210dbdb991a5d1a5bdb881b9bdd08199bdd5b99606a1b60448201526064015b60405180910390fd5b600381015460ff161561029c5760405162461bcd60e51b815260206004820152601060248201526f105b1c9958591e481c995cdbdb1d995960821b604482015260640161024b565b600281015482146102e75760405162461bcd60e51b8152602060048201526015602482015274092dcecc2d8d2c840e0c2f2deeae840d8cadccee8d605b1b604482015260640161024b565b60038101805460ff1916600117905561030460048201848461057a565b50837fcaf7fe52b27409491ac02c0b2cc4bcbfea8a7a9c417783bbb06c73a8c03e55ed8484604051610337929190610763565b60405180910390a250505050565b600082815260208181526040808320815160a08101835281546001600160a01b03168152600182015481850152600282015481840152600382015460ff1615156060820152600482018054845181870281018701909552808552869592946080860193909291908301828280156103db57602002820191906000526020600020905b8154815260200190600101908083116103c7575b5050505050815250509050806060015115806103fc57508060800151518310155b1561040b57600091505061042d565b806080015183815181106104215761042161079c565b60200260200101519150505b92915050565b6040516bffffffffffffffffffffffff19606085901b166020820152603481018390526054810182905242607482015260009060940160408051808303601f19018152828252805160209182012060a0840183526001600160a01b038816845281840187905283830186905260006060850181905283518181529283019093529350608083019150905260008281526020818152604091829020835181546001600160a01b0319166001600160a01b03909116178155838201516001820155918301516002830155606083015160038301805460ff19169115159190911790556080830151805161052a92600485019201906105c5565b5090505082846001600160a01b0316827fab3760c3bd2bb38b5bcf54dc79802ed67338b4cf29f3054ded67ed24661e41778560405161056b91815260200190565b60405180910390a49392505050565b8280548282559060005260206000209081019282156105b5579160200282015b828111156105b557823582559160200191906001019061059a565b506105c1929150610600565b5090565b8280548282559060005260206000209081019282156105b5579160200282015b828111156105b55782518255916020019190600101906105e5565b5b808211156105c15760008155600101610601565b60006020828403121561062757600080fd5b5035919050565b60006040820184151583526040602084015280845180835260608501915060208601925060005b81811015610673578351835260209384019390920191600101610655565b50909695505050505050565b60008060006040848603121561069457600080fd5b83359250602084013567ffffffffffffffff8111156106b257600080fd5b8401601f810186136106c357600080fd5b803567ffffffffffffffff8111156106da57600080fd5b8660208260051b84010111156106ef57600080fd5b939660209190910195509293505050565b6000806040838503121561071357600080fd5b50508035926020909101359150565b60008060006060848603121561073757600080fd5b83356001600160a01b038116811461074e57600080fd5b95602085013595506040909401359392505050565b6020808252810182905260006001600160fb1b0383111561078357600080fd5b8260051b80856040850137919091016040019392505050565b634e487b7160e01b600052603260045260246000fdfea2646970667358221220f8e4d5e94077930e3d1ca54c45f544d3b5e5d917e5cf167347124e6543a3310e64736f6c634300081a0033",
  "linkReferences": {},
  "deployedLinkReferences": {}
}