{"contracts/adapter/VPOAdapter.sol":{"VPOAdapter":{"abi":[{"inputs":[{"internalType":"address","name":"admin_","type":"address"},{"internalType":"address","name":"eigenVerify_","type":"address"},{"internalType":"address","name":"slashing_","type":"address"}],"stateMutability":"nonpayable","type":"constructor"},{"inputs":[],"name":"AlreadyFulfilled","type":"error"},{"inputs":[],"name":"InvalidParameter","type":"error"},{"inputs":[],"name":"NotFound","type":"error"},{"inputs":[],"name":"OnlyAdmin","type":"error"},{"inputs":[],"name":"Unauthorized","type":"error"},{"inputs":[],"name":"ZeroAddress","type":"error"},{"anonymous":false,"inputs":[{"indexed":true,"internalType":"address","name":"node","type":"address"},{"indexed":false,"internalType":"bool","name":"enabled","type":"bool"}],"name":"AVSNodeUpdated","type":"event"},{"anonymous":false,"inputs":[{"indexed":true,"internalType":"bytes32","name":"requestId","type":"bytes32"},{"indexed":true,"internalType":"address","name":"operator","type":"address"},{"indexed":false,"internalType":"bool","name":"outcome","type":"bool"},{"indexed":false,"internalType":"bytes","name":"attestationCid","type":"bytes"},{"indexed":false,"internalType":"bytes","name":"signature","type":"bytes"}],"name":"AttestationSubmitted","type":"event"},{"anonymous":false,"inputs":[{"indexed":true,"internalType":"address","name":"operator","type":"address"},{"indexed":false,"internalType":"uint256","name":"weight","type":"uint256"}],"name":"OperatorWeightUpdated","type":"event"},{"anonymous":false,"inputs":[{"indexed":true,"internalType":"bytes32","name":"requestId","type":"bytes32"},{"indexed":true,"internalType":"address","name":"operator","type":"address"},{"indexed":false,"internalType":"bytes","name":"proof","type":"bytes"}],"name":"ProofVerificationFailed","type":"event"},{"anonymous":false,"inputs":[{"indexed":true,"internalType":"bytes32","name":"requestId","type":"bytes32"},{"indexed":false,"internalType":"bool","name":"outcome","type":"bool"},{"indexed":false,"internalType":"uint256","name":"totalWeight","type":"uint256"}],"name":"QuorumReached","type":"event"},{"anonymous":false,"inputs":[{"indexed":false,"internalType":"uint256","name":"threshold","type":"uint256"}],"name":"QuorumThresholdUpdated","type":"event"},{"anonymous":false,"inputs":[{"indexed":true,"internalType":"bytes32","name":"requestId","type":"bytes32"},{"indexed":false,"internalType":"bool","name":"outcome","type":"bool"},{"indexed":false,"internalType":"bytes","name":"aggregateSignature","type":"bytes"},{"indexed":false,"internalType":"uint256","name":"totalWeight","type":"uint256"}],"name":"ResolutionFinalized","type":"event"},{"anonymous":false,"inputs":[{"indexed":true,"internalType":"bytes32","name":"requestId","type":"bytes32"},{"indexed":false,"internalType":"bytes","name":"attestationCid","type":"bytes"},{"indexed":false,"internalType":"bool","name":"outcome","type":"bool"},{"indexed":false,"internalType":"bytes","name":"metadata","type":"bytes"}],"name":"VerificationFulfilled","type":"event"},{"anonymous":false,"inputs":[{"indexed":true,"internalType":"bytes32","name":"requestId","type":"bytes32"},{"indexed":true,"internalType":"address","name":"requester","type":"address"},{"indexed":true,"internalType":"bytes32","name":"marketRef","type":"bytes32"},{"indexed":false,"internalType":"bytes","name":"data","type":"bytes"}],"name":"VerificationRequested","type":"event"},{"inputs":[],"name":"admin","outputs":[{"internalType":"address","name":"","type":"address"}],"stateMutability":"view","type":"function"},{"inputs":[{"internalType":"address","name":"","type":"address"}],"name":"avsNodes","outputs":[{"internalType":"bool","name":"","type":"bool"}],"stateMutability":"view","type":"function"},{"inputs":[],"name":"eigenVerify","outputs":[{"internalType":"contract IEigenVerify","name":"","type":"address"}],"stateMutability":"view","type":"function"},{"inputs":[{"internalType":"bytes32","name":"requestId","type":"bytes32"},{"internalType":"bool","name":"outcome","type":"bool"},{"internalType":"bytes","name":"aggregateSignature","type":"bytes"}],"name":"finalizeResolution","outputs":[],"stateMutability":"nonpayable","type":"function"},{"inputs":[{"internalType":"bytes32","name":"requestId","type":"bytes32"},{"internalType":"bytes","name":"attestationCid","type":"bytes"},{"internalType":"bool","name":"outcome","type":"bool"},{"internalType":"bytes","name":"metadata","type":"bytes"}],"name":"fulfillVerification","outputs":[],"stateMutability":"nonpayable","type":"function"},{"inputs":[{"internalType":"bytes32","name":"requestId","type":"bytes32"}],"name":"getAttestations","outputs":[{"components":[{"internalType":"address","name":"operator","type":"address"},{"internalType":"bool","name":"outcome","type":"bool"},{"internalType":"bytes","name":"attestationCid","type":"bytes"},{"internalType":"bytes","name":"signature","type":"bytes"},{"internalType":"bytes32","name":"proofHash","type":"bytes32"},{"internalType":"uint256","name":"timestamp","type":"uint256"}],"internalType":"struct VPOAdapter.Attestation[]","name":"","type":"tuple[]"}],"stateMutability":"view","type":"function"},{"inputs":[{"internalType":"bytes32","name":"requestId","type":"bytes32"}],"name":"getFulfillment","outputs":[{"internalType":"bool","name":"exists","type":"bool"},{"internalType":"bytes","name":"attestationCid","type":"bytes"},{"internalType":"bool","name":"outcome","type":"bool"},{"internalType":"bytes","name":"metadata","type":"bytes"}],"stateMutability":"view","type":"function"},{"inputs":[{"internalType":"bytes32","name":"requestId","type":"bytes32"},{"internalType":"address","name":"operator","type":"address"}],"name":"getProof","outputs":[{"internalType":"bytes","name":"proof","type":"bytes"}],"stateMutability":"view","type":"function"},{"inputs":[{"internalType":"bytes32","name":"requestId","type":"bytes32"},{"internalType":"address","name":"operator","type":"address"}],"name":"getProofHash","outputs":[{"internalType":"bytes32","name":"proofHash","type":"bytes32"}],"stateMutability":"view","type":"function"},{"inputs":[{"internalType":"bytes32","name":"requestId","type":"bytes32"}],"name":"getQuorumStatus","outputs":[{"internalType":"bool","name":"isQuorumReached","type":"bool"},{"internalType":"uint256","name":"yesWeight","type":"uint256"},{"internalType":"uint256","name":"noWeight","type":"uint256"},{"internalType":"uint256","name":"requiredWeight","type":"uint256"}],"stateMutability":"view","type":"function"},{"inputs":[{"internalType":"bytes32","name":"requestId","type":"bytes32"}],"name":"getRequest","outputs":[{"components":[{"internalType":"bytes32","name":"marketRef","type":"bytes32"},{"internalType":"address","name":"requester","type":"address"},{"internalType":"bytes","name":"data","type":"bytes"},{"internalType":"bool","name":"fulfilled","type":"bool"},{"internalType":"bytes","name":"attestationCid","type":"bytes"},{"internalType":"bool","name":"outcome","type":"bool"},{"internalType":"bytes","name":"metadata","type":"bytes"}],"internalType":"struct VPOAdapter.Request","name":"","type":"tuple"}],"stateMutability":"view","type":"function"},{"inputs":[{"internalType":"address","name":"","type":"address"}],"name":"operatorWeights","outputs":[{"internalType":"uint256","name":"","type":"uint256"}],"stateMutability":"view","type":"function"},{"inputs":[],"name":"quorumThreshold","outputs":[{"internalType":"uint256","name":"","type":"uint256"}],"stateMutability":"view","type":"function"},{"inputs":[{"internalType":"bytes32","name":"marketRef","type":"bytes32"},{"internalType":"bytes","name":"data","type":"bytes"}],"name":"requestVerification","outputs":[{"internalType":"bytes32","name":"requestId","type":"bytes32"}],"stateMutability":"nonpayable","type":"function"},{"inputs":[{"internalType":"address","name":"node","type":"address"},{"internalType":"bool","name":"enabled","type":"bool"}],"name":"setAVSNode","outputs":[],"stateMutability":"nonpayable","type":"function"},{"inputs":[{"internalType":"address","name":"operator","type":"address"},{"internalType":"uint256","name":"weight","type":"uint256"}],"name":"setOperatorWeight","outputs":[],"stateMutability":"nonpayable","type":"function"},{"inputs":[{"internalType":"uint256","name":"threshold","type":"uint256"}],"name":"setQuorumThreshold","outputs":[],"stateMutability":"nonpayable","type":"function"},{"inputs":[],"name":"slashing","outputs":[{"internalType":"contract ISlashing","name":"","type":"address"}],"stateMutability":"view","type":"function"},{"inputs":[{"internalType":"bytes32","name":"requestId","type":"bytes32"},{"internalType":"bool","name":"outcome","type":"bool"},{"internalType":"bytes","name":"attestationCid","type":"bytes"},{"internalType":"bytes","name":"signature","type":"bytes"},{"internalType":"bytes","name":"proof","type":"bytes"}],"name":"submitAttestation","outputs":[],"stateMutability":"nonpayable","type":"function"},{"inputs":[],"name":"totalOperatorWeight","outputs":[{"internalType":"uint256","name":"","type":"uint256"}],"stateMutability":"view","type":"function"}],"evm":{"bytecode":{"linkReferences":{},"object":"60c0346100f057601f61218638819003918201601f19168301916001600160401b038311848410176100f5578084926060946040528339810103126100f0576100478161010b565b61005f60406100586020850161010b565b930161010b565b60426006556001600160a01b039091169182156100df576001600160a01b03169081156100df576001600160a01b03169182156100df57600880546001600160a01b03191691909117905560805260a05260405161206690816101208239608051818181610cad015261153a015260a0518181816103b10152611ecf0152f35b63d92e233d60e01b60005260046000fd5b600080fd5b634e487b7160e01b600052604160045260246000fd5b51906001600160a01b03821682036100f05756fe60a0604052600436101561001257600080fd5b60003560e01c80630e6b111014610e37578063276d652614610dd1578063285b80a214610d0a5780632af002e814610cdc5780632e52ec8b14610c9757806337e59e3614610b015780634524c7e114610a905780634949136f146109dc5780637b7a91dd146109be5780639378c8fa1461096d57806396c59cc114610918578063a4e132bc146104c9578063b457c25a1461048f578063c09fff13146103fe578063c5e9a279146103e0578063ca31fb9f1461039b578063f1d1b3811461035c578063f7c226da146102a3578063f851a4401461027a5763fb1e61ca146100f857600080fd5b3461027557602036600319011261027557606060c060405161011981611090565b6000815260006020820152826040820152600083820152826080820152600060a082015201526004356000526000602052604060002060405161015b81611090565b8154815261027160018060a01b0360018401541692602083019384526006610256604051610197816101908160028801610ff2565b03826110ab565b6040860190815260ff6003850154169060608701911515825261023b604051916101cf836101c88160048b01610ff2565b03846110ab565b6080890192835261020260ff6005890154169760a08b0198151589526101fb6040518099819301610ff2565b03876110ab565b60c08901958652604051998a9960208b525160208b015260018060a01b0390511660408a01525160e060608a0152610100890190610f27565b91511515608088015251868203601f190160a0880152610f27565b9151151560c085015251838203601f190160e0850152610f27565b0390f35b600080fd5b34610275576000366003190112610275576008546040516001600160a01b039091168152602090f35b34610275576040366003190112610275576102bc610ed8565b6102c4610f79565b6008549091906001600160a01b0316330361034b576001600160a01b031690811561033a5760207fa8cfb85fb565846d65e4062d92a89056ecb7aa24252225132315978a9ed574c191836000526001825261032f8160406000209060ff801983541691151516179055565b6040519015158152a2005b63d92e233d60e01b60005260046000fd5b634755657960e01b60005260046000fd5b34610275576020366003190112610275576001600160a01b0361037d610ed8565b166000526001602052602060ff604060002054166040519015158152f35b34610275576000366003190112610275576040517f00000000000000000000000000000000000000000000000000000000000000006001600160a01b03168152602090f35b34610275576000366003190112610275576020600354604051908152f35b34610275576020366003190112610275576080600435600354906064610426600654846113fc565b6000928352600560209081526040808520600186529091528084205484805293205491900480831080159491939190610484575b8461047a575b506040519315158452602084015260408301526060820152f35b1515935085610460565b83831015945061045a565b34610275576020366003190112610275576001600160a01b036104b0610ed8565b1660005260026020526020604060002054604051908152f35b34610275576040366003190112610275576004356024356001600160401b038111610275576104fc903690600401610f4c565b909160405160208101908282523360601b60408201524260548201528385607483013761053b60206074838781014483820152030180845201826110ab565b519020916040519361054c85611090565b8285526020850190338252610562368483611232565b9560408101968752606081019660008852602097604051906105848a836110ab565b600082526080840191825260a084019260008452604051966105a68c896110ab565b600080895260c087019889528b8152808d526040902095518655516001860180546001600160a01b0319166001600160a01b039290921691909117905551805160028601916001600160401b03821161080e5761060d826106078554610fb8565b85611389565b8c908d601f84116001146108aa575091806106459261066096959460009261089f575b50508160011b916000199060031b1c19161790565b90555b511515600385019060ff801983541691151516179055565b51805160048401916001600160401b03821161080e57610684826106078554610fb8565b8a90601f831160011461082f578260069695936106d795936106bc936000926108245750508160011b916000199060031b1c19161790565b90555b511515600583019060ff801983541691151516179055565b0191519182516001600160401b03811161080e5786936106fb826106078554610fb8565b8890601f831160011461077e57827f34602e40c4c49141c143fef967cb05afc0207ba0f21b2bc82b56b712b4250fca95936107689593610751936000926107735750508160011b916000199060031b1c19161790565b90555b60405191829189835233968a8401916113db565b0390a4604051908152f35b015190508c80610630565b90601f19831691846000528a6000209260005b8c8282106107f55750509260019285927f34602e40c4c49141c143fef967cb05afc0207ba0f21b2bc82b56b712b4250fca98966107689896106107dc575b505050811b019055610754565b015160001960f88460031b161c191690558b80806107cf565b8484015186558c99506001909501949384019301610791565b634e487b7160e01b600052604160045260246000fd5b015190508e80610630565b60008481528c8120929190601f198516908e5b82821061088757505092600192859260069998966106d798961061086e575b505050811b0190556106bf565b015160001960f88460031b161c191690558d8080610861565b80600186978294978701518155019601940190610842565b015190508f80610630565b9190601f1984168560005283600020936000905b82821061090057505091600193918561066098979694106108e7575b505050811b019055610648565b015160001960f88460031b161c191690558e80806108da565b806001869782949787015181550196019401906108be565b3461027557602036600319011261027557610271610937600435611269565b61095860409593955195869515158652608060208701526080860190610f27565b91151560408501528382036060850152610f27565b3461027557606036600319011261027557610986610f79565b604435906001600160401b038211610275576109b36109ac6109bc933690600401610f4c565b3691611232565b90600435611b38565b005b34610275576000366003190112610275576020600654604051908152f35b346102755760a0366003190112610275576109f5610f79565b6044356001600160401b03811161027557610a14903690600401610f4c565b6064929192356001600160401b03811161027557610a36903690600401610f4c565b6084929192356001600160401b03811161027557610a58903690600401610f4c565b93909233600052600160205260ff6040600020541615610a80576109bc96339660043561142b565b6282b42960e81b60005260046000fd5b3461027557602036600319011261027557600854600435906001600160a01b0316330361034b5760648111610af0576020817fbc589fccf641d342b7853c2c6faca39631d4d19efbe77e71e5611e31678c220e92600655604051908152a1005b630309cb8760e51b60005260046000fd5b3461027557602036600319011261027557600435600052600460205260406000208054906001600160401b03821161080e5760405191610b4760208260051b01846110ab565b80835260208301809260005260206000206000915b838310610c1957848660405191829160208301906020845251809152604083019060408160051b85010192916000905b828210610b9b57505050500390f35b919360019193955060208091603f19898203018552875190848060a01b0382511681528282015115158382015260a080610bf9610be7604086015160c0604087015260c0860190610f27565b60608601518582036060870152610f27565b936080810151608085015201519101529601920192018594939192610b8c565b60056020600192604051610c2c81611075565b60ff8654868060a01b038116835260a01c16151583820152604051610c578161019081898b01610ff2565b6040820152604051610c70816101908160028b01610ff2565b606082015260038601546080820152600486015460a0820152815201920192019190610b5c565b34610275576000366003190112610275576040517f00000000000000000000000000000000000000000000000000000000000000006001600160a01b03168152602090f35b34610275576040366003190112610275576020610d02610cfa610eee565b600435611111565b604051908152f35b34610275576080366003190112610275576004356024356001600160401b03811161027557610d3d903690600401610f4c565b60443592918315158403610275576064356001600160401b03811161027557610d6a903690600401610f4c565b929033600052600160205260ff6040600020541615610a8057610d9c9360608110610dc8578181935b3395898961142b565b610da68282611afc565b610dac57005b6109bc9160405191610dbf6020846110ab565b60008352611b38565b81600093610d93565b3461027557604036600319011261027557610dea610eee565b600435600052600760205260406000209060018060a01b0316600052602052610271610190610e23604060002060405192838092610ff2565b604051918291602083526020830190610f27565b3461027557604036600319011261027557610e50610ed8565b60085460243591906001600160a01b0316330361034b576001600160a01b031690811561033a5760207ff21e638cbccad60709e37c990768543730ce2449d9c79b38e1e972fa99b3a219918360005260028252610ecc81610ec7604060002054876000526002865282604060002055600354610f88565b610fab565b600355604051908152a2005b600435906001600160a01b038216820361027557565b602435906001600160a01b038216820361027557565b60005b838110610f175750506000910152565b8181015183820152602001610f07565b90602091610f4081518092818552858086019101610f04565b601f01601f1916010190565b9181601f84011215610275578235916001600160401b038311610275576020838186019501011161027557565b60243590811515820361027557565b91908203918211610f9557565b634e487b7160e01b600052601160045260246000fd5b91908201809211610f9557565b90600182811c92168015610fe8575b6020831014610fd257565b634e487b7160e01b600052602260045260246000fd5b91607f1691610fc7565b6000929181549161100283610fb8565b8083529260018116908115611058575060011461101e57505050565b60009081526020812093945091925b83831061103e575060209250010190565b60018160209294939454838587010152019101919061102d565b915050602093945060ff929192191683830152151560051b010190565b60c081019081106001600160401b0382111761080e57604052565b60e081019081106001600160401b0382111761080e57604052565b90601f801991011681019081106001600160401b0382111761080e57604052565b6001600160401b03811161080e57601f01601f191660200190565b80518210156110fb5760209160051b010190565b634e487b7160e01b600052603260045260246000fd5b6000526004602052604060002080546001600160401b03811161080e576040519161114260208360051b01846110ab565b818352602083019060005260206000206000915b8383106111b4575050505060005b81518110156111ac576001600160a01b0361117f82846110e7565b5151166001600160a01b0384161461119957600101611164565b608092506111a6916110e7565b51015190565b505050600090565b600560206001926040516111c781611075565b60ff8654868060a01b038116835260a01c161515838201526040516111f28161019081898b01610ff2565b604082015260405161120b816101908160028b01610ff2565b606082015260038601546080820152600486015460a0820152815201920192019190611156565b92919261123e826110cc565b9161124c60405193846110ab565b829481845281830111610275578281602093846000960137010152565b6000526000602052600660406000209160405161128581611090565b8354815260018401546001600160a01b0316602082019081526040516112b2816101908160028a01610ff2565b604083015260ff6003860154169060608301911515825260c0604051936112e7856112e08160048c01610ff2565b03866110ab565b6080810194855261131a60ff60058a0154169860a083019915158a52611313604051809a819301610ff2565b03886110ab565b01948552516001600160a01b03161561137357511561134157519251915160019392151591565b509150506000906040516113566020826110ab565b600081529060009060405161136c6020826110ab565b6000815290565b50509150506000906040516113566020826110ab565b601f821161139657505050565b6000526020600020906020601f840160051c830193106113d1575b601f0160051c01905b8181106113c5575050565b600081556001016113ba565b90915081906113b1565b908060209392818452848401376000828201840152601f01601f1916010190565b81810292918115918404141715610f9557565b80548210156110fb576000526005602060002091020190600090565b98969794909598929192608052608051600052600060205260406000209860018060a01b0360018b01541615611aeb5760ff60038b0154166114d7576001600160a01b038616600081815260026020526040902054909990918215610a805760005b60805160005260046020526040600020548110156114e85760805160005260046020528b6114bf82604060002061140f565b50546001600160a01b0316146114d75760010161148d565b634a4117f960e01b60005260046000fd5b5090919293949596989a6000611536919b999b60405180938192637bf41d7760e11b8352604060048401526002611523604485018a8a6113db565b8481036003190160248601529101610ff2565b03817f00000000000000000000000000000000000000000000000000000000000000006001600160a01b03165afa908115611adf576000908192611a49575b5015611a3b576020815191012098604099600360208c611597815191826110ab565b828152016259455360e81b815220149a1515809b03611a2e57506115bc368383611232565b6020815191012091608051600052600760205289806000206000908b825260205220916001600160401b03821161080e576115fb826106078554610fb8565b600090601f83116001146119ca5761162b9291600091836119bf5750508160011b916000199060031b1c19161790565b90555b6080516000526004602052876000209088519061164a82611075565b88825260208201928b845261166036888a611232565b908b840191825261167236888c611232565b926060850193845260808501524260a085015280546801000000000000000081101561080e576116a79160018201815561140f565b9490946119a9578351855491516001600160a81b03199092166001600160a01b03919091161790151560a01b60ff60a01b1617845551805160018501916001600160401b03821161080e57611700826106078554610fb8565b602090601f83116001146119425761173092916000918361189f5750508160011b916000199060031b1c19161790565b90555b51805160028401916001600160401b03821161080e57611757826106078554610fb8565b602090601f83116001146118aa57937f4164d38fcc30943a577283f30908d604d84a89a2e856b65b332963235535580599989795936117b78460049560a09561181d9b9960009261189f5750508160011b916000199060031b1c19161790565b90555b6080810151600385015501519101556080516000526005602052886000208a6000526020526117ee89600020918254610fab565b905561180c88519485948b86526060602087015260608601916113db565b9083820389850152608051966113db565b0390a360805160005260056020528060002082600052602052806000205490600354606461184d600654836113fc565b048310159081611895575b5061186257505050565b7f4788c192b43b1eaa29d531808a78165d3487d939b8246058f5ad10d22fc2bd0d918151938452602084015260805192a2565b9050151538611858565b015190503880610630565b9083600052806000209160005b601f198516811061192a57509360018460a09461181d9a98947f4164d38fcc30943a577283f30908d604d84a89a2e856b65b33296323553558059e9d9c9a98600498601f19811610611911575b505050811b0190556117ba565b015160001960f88460031b161c19169055388080611904565b919260206001819286850151815501940192016118b7565b90601f1983169184600052816000209260005b8181106119915750908460019594939210611978575b505050811b019055611733565b015160001960f88460031b161c1916905538808061196b565b92936020600181928786015181550195019301611955565b634e487b7160e01b600052600060045260246000fd5b013590503880610630565b8382526020822091601f198416815b818110611a1657509084600195949392106119fc575b505050811b01905561162e565b0135600019600384901b60f8161c191690553880806119ef565b919360206001819287870135815501950192016119d9565b92610af093608051611e8a565b50610af09289608051611e8a565b9091503d8083833e611a5b81836110ab565b810191604082840312611ad4578151918215158303611ad7576020810151906001600160401b038211611adb570183601f82011215611ad757805191611aa0836110cc565b94611aae60405196876110ab565b83865260208484010111611ad4575090611ace9160208086019101610f04565b38611575565b80fd5b5080fd5b8280fd5b6040513d6000823e3d90fd5b63c5723b5160e01b60005260046000fd5b906003549182156111ac57600052600560205260406000209015156000526020526064611b3260406000205492600654906113fc565b04111590565b919082600052600060205260406000209160018060a01b0360018401541615611aeb57600383019182549360ff85166114d757611b758287611afc565b15610af057602093604051611b8a86826110ab565b60008152958760005260048652604060002054611e38575b60ff19166001179055845160048201906001600160401b03811161080e57611bd481611bce8454610fb8565b84611389565b85601f8211600114611dcf57816006949392611c0692600091611dc4575b508160011b916000199060031b1c19161790565b90555b611c2283600583019060ff801983541691151516179055565b0182516001600160401b03811161080e57611c4181611bce8454610fb8565b84601f8211600114611d355792611d149592611c9a837f89b763933efe68c9fb105be2523d43afbb04f27b42bda7793a30bb6ae16bc4ff999794611d2597600091611d2a57508160011b916000199060031b1c19161790565b90555b8760005260058352604060002090151590816000528352877f62c5313ac9057b028c77d3d71a8bc78681ab575a0cab56a1fef1e7484cd6b48d6040600020546040518091858252606088830152611cf76060830188610f27565b9060408301520390a2604051958695606087526060870190610f27565b928501528382036040850152610f27565b0390a2565b905085015138611bf2565b601f1982169083600052866000209160005b818110611dad575083611d259693611d149996937f89b763933efe68c9fb105be2523d43afbb04f27b42bda7793a30bb6ae16bc4ff9b999660019410611d94575b5050811b019055611c9d565b86015160001960f88460031b161c191690553880611d88565b91928860018192868b015181550194019201611d47565b905089015138611bf2565b601f1982169083600052876000209160005b898b838310611e2357505050918391600696959460019410611e0a575b5050811b019055611c09565b8a015160001960f88460031b161c191690553880611dfe565b84015185556001909401939283019201611de1565b955086600052600485526040600020600090805415611e7657611e6e878360019493859452206101906040518094819301610ff2565b969050611ba2565b634e487b7160e01b82526032600452602482fd5b91949392909260009360018060a01b0316938481526002602052806040812055611eb687600354610f88565b600355604051630991d88160e21b8152600481018690527f00000000000000000000000000000000000000000000000000000000000000006001600160a01b031690602081602481855afa908115612025578391611ff3575b5080611f5b575b5050507faffd8b9ffb2058f05fe3e1c643891491b6253aabe27bf992f581214ae071abcc9293949550611f566040519283926020845260208401916113db565b0390a3565b8298818111600014611feb5750905b803b15611adb57604483926040519a8b9384926302fb4d8560e01b84528b600485015260248401525af1968715611fde577faffd8b9ffb2058f05fe3e1c643891491b6253aabe27bf992f581214ae071abcc94959697611fce575b87969594611f16565b81611fd8916110ab565b38611fc5565b50604051903d90823e3d90fd5b905090611f6a565b90506020813d60201161201d575b8161200e602093836110ab565b81010312611adb575138611f0f565b3d9150612001565b6040513d85823e3d90fdfea264697066735822122094b8eb0087cead13591951e1531469d1b7b281456f3936f65cfa8ff7a9fbbadc64736f6c634300081a0033","opcodes":"PUSH1 0xC0 CALLVALUE PUSH2 0xF0 JUMPI PUSH1 0x1F PUSH2 0x2186 CODESIZE DUP2 SWAP1 SUB SWAP2 DUP3 ADD PUSH1 0x1F NOT AND DUP4 ADD SWAP2 PUSH1 0x1 PUSH1 0x1 PUSH1 0x40 SHL SUB DUP4 GT DUP5 DUP5 LT OR PUSH2 0xF5 JUMPI DUP1 DUP5 SWAP3 PUSH1 0x60 SWAP5 PUSH1 0x40 MSTORE DUP4 CODECOPY DUP2 ADD SUB SLT PUSH2 0xF0 JUMPI PUSH2 0x47 DUP2 PUSH2 0x10B JUMP JUMPDEST PUSH2 0x5F PUSH1 0x40 PUSH2 0x58 PUSH1 0x20 DUP6 ADD PUSH2 0x10B JUMP JUMPDEST SWAP4 ADD PUSH2 0x10B JUMP JUMPDEST PUSH1 0x42 PUSH1 0x6 SSTORE PUSH1 0x1 PUSH1 0x1 PUSH1 0xA0 SHL SUB SWAP1 SWAP2 AND SWAP2 DUP3 ISZERO PUSH2 0xDF JUMPI PUSH1 0x1 PUSH1 0x1 PUSH1 0xA0 SHL SUB AND SWAP1 DUP2 ISZERO PUSH2 0xDF JUMPI PUSH1 0x1 PUSH1 0x1 PUSH1 0xA0 SHL SUB AND SWAP2 DUP3 ISZERO PUSH2 0xDF JUMPI PUSH1 0x8 DUP1 SLOAD PUSH1 0x1 PUSH1 0x1 PUSH1 0xA0 SHL SUB NOT AND SWAP2 SWAP1 SWAP2 OR SWAP1 SSTORE PUSH1 0x80 MSTORE PUSH1 0xA0 MSTORE PUSH1 0x40 MLOAD PUSH2 0x2066 SWAP1 DUP2 PUSH2 0x120 DUP3 CODECOPY PUSH1 0x80 MLOAD DUP2 DUP2 DUP2 PUSH2 0xCAD ADD MSTORE PUSH2 0x153A ADD MSTORE PUSH1 0xA0 MLOAD DUP2 DUP2 DUP2 PUSH2 0x3B1 ADD MSTORE PUSH2 0x1ECF ADD MSTORE RETURN JUMPDEST PUSH4 0xD92E233D PUSH1 0xE0 SHL PUSH1 0x0 MSTORE PUSH1 0x4 PUSH1 0x0 REVERT JUMPDEST PUSH1 0x0 DUP1 REVERT JUMPDEST PUSH4 0x4E487B71 PUSH1 0xE0 SHL PUSH1 0x0 MSTORE PUSH1 0x41 PUSH1 0x4 MSTORE PUSH1 0x24 PUSH1 0x0 REVERT JUMPDEST MLOAD SWAP1 PUSH1 0x1 PUSH1 0x1 PUSH1 0xA0 SHL SUB DUP3 AND DUP3 SUB PUSH2 0xF0 JUMPI JUMP INVALID PUSH1 0xA0 PUSH1 0x40 MSTORE PUSH1 0x4 CALLDATASIZE LT ISZERO PUSH2 0x12 JUMPI PUSH1 0x0 DUP1 REVERT JUMPDEST PUSH1 0x0 CALLDATALOAD PUSH1 0xE0 SHR DUP1 PUSH4 0xE6B1110 EQ PUSH2 0xE37 JUMPI DUP1 PUSH4 0x276D6526 EQ PUSH2 0xDD1 JUMPI DUP1 PUSH4 0x285B80A2 EQ PUSH2 0xD0A JUMPI DUP1 PUSH4 0x2AF002E8 EQ PUSH2 0xCDC JUMPI DUP1 PUSH4 0x2E52EC8B EQ PUSH2 0xC97 JUMPI DUP1 PUSH4 0x37E59E36 EQ PUSH2 0xB01 JUMPI DUP1 PUSH4 0x4524C7E1 EQ PUSH2 0xA90 JUMPI DUP1 PUSH4 0x4949136F EQ PUSH2 0x9DC JUMPI DUP1 PUSH4 0x7B7A91DD EQ PUSH2 0x9BE JUMPI DUP1 PUSH4 0x9378C8FA EQ PUSH2 0x96D JUMPI DUP1 PUSH4 0x96C59CC1 EQ PUSH2 0x918 JUMPI DUP1 PUSH4 0xA4E132BC EQ PUSH2 0x4C9 JUMPI DUP1 PUSH4 0xB457C25A EQ PUSH2 0x48F JUMPI DUP1 PUSH4 0xC09FFF13 EQ PUSH2 0x3FE JUMPI DUP1 PUSH4 0xC5E9A279 EQ PUSH2 0x3E0 JUMPI DUP1 PUSH4 0xCA31FB9F EQ PUSH2 0x39B JUMPI DUP1 PUSH4 0xF1D1B381 EQ PUSH2 0x35C JUMPI DUP1 PUSH4 0xF7C226DA EQ PUSH2 0x2A3 JUMPI DUP1 PUSH4 0xF851A440 EQ PUSH2 0x27A JUMPI PUSH4 0xFB1E61CA EQ PUSH2 0xF8 JUMPI PUSH1 0x0 DUP1 REVERT JUMPDEST CALLVALUE PUSH2 0x275 JUMPI PUSH1 0x20 CALLDATASIZE PUSH1 0x3 NOT ADD SLT PUSH2 0x275 JUMPI PUSH1 0x60 PUSH1 0xC0 PUSH1 0x40 MLOAD PUSH2 0x119 DUP2 PUSH2 0x1090 JUMP JUMPDEST PUSH1 0x0 DUP2 MSTORE PUSH1 0x0 PUSH1 0x20 DUP3 ADD MSTORE DUP3 PUSH1 0x40 DUP3 ADD MSTORE PUSH1 0x0 DUP4 DUP3 ADD MSTORE DUP3 PUSH1 0x80 DUP3 ADD MSTORE PUSH1 0x0 PUSH1 0xA0 DUP3 ADD MSTORE ADD MSTORE PUSH1 0x4 CALLDATALOAD PUSH1 0x0 MSTORE PUSH1 0x0 PUSH1 0x20 MSTORE PUSH1 0x40 PUSH1 0x0 KECCAK256 PUSH1 0x40 MLOAD PUSH2 0x15B DUP2 PUSH2 0x1090 JUMP JUMPDEST DUP2 SLOAD DUP2 MSTORE PUSH2 0x271 PUSH1 0x1 DUP1 PUSH1 0xA0 SHL SUB PUSH1 0x1 DUP5 ADD SLOAD AND SWAP3 PUSH1 0x20 DUP4 ADD SWAP4 DUP5 MSTORE PUSH1 0x6 PUSH2 0x256 PUSH1 0x40 MLOAD PUSH2 0x197 DUP2 PUSH2 0x190 DUP2 PUSH1 0x2 DUP9 ADD PUSH2 0xFF2 JUMP JUMPDEST SUB DUP3 PUSH2 0x10AB JUMP JUMPDEST PUSH1 0x40 DUP7 ADD SWAP1 DUP2 MSTORE PUSH1 0xFF PUSH1 0x3 DUP6 ADD SLOAD AND SWAP1 PUSH1 0x60 DUP8 ADD SWAP2 ISZERO ISZERO DUP3 MSTORE PUSH2 0x23B PUSH1 0x40 MLOAD SWAP2 PUSH2 0x1CF DUP4 PUSH2 0x1C8 DUP2 PUSH1 0x4 DUP12 ADD PUSH2 0xFF2 JUMP JUMPDEST SUB DUP5 PUSH2 0x10AB JUMP JUMPDEST PUSH1 0x80 DUP10 ADD SWAP3 DUP4 MSTORE PUSH2 0x202 PUSH1 0xFF PUSH1 0x5 DUP10 ADD SLOAD AND SWAP8 PUSH1 0xA0 DUP12 ADD SWAP9 ISZERO ISZERO DUP10 MSTORE PUSH2 0x1FB PUSH1 0x40 MLOAD DUP1 SWAP10 DUP2 SWAP4 ADD PUSH2 0xFF2 JUMP JUMPDEST SUB DUP8 PUSH2 0x10AB JUMP JUMPDEST PUSH1 0xC0 DUP10 ADD SWAP6 DUP7 MSTORE PUSH1 0x40 MLOAD SWAP10 DUP11 SWAP10 PUSH1 0x20 DUP12 MSTORE MLOAD PUSH1 0x20 DUP12 ADD MSTORE PUSH1 0x1 DUP1 PUSH1 0xA0 SHL SUB SWAP1 MLOAD AND PUSH1 0x40 DUP11 ADD MSTORE MLOAD PUSH1 0xE0 PUSH1 0x60 DUP11 ADD MSTORE PUSH2 0x100 DUP10 ADD SWAP1 PUSH2 0xF27 JUMP JUMPDEST SWAP2 MLOAD ISZERO ISZERO PUSH1 0x80 DUP9 ADD MSTORE MLOAD DUP7 DUP3 SUB PUSH1 0x1F NOT ADD PUSH1 0xA0 DUP9 ADD MSTORE PUSH2 0xF27 JUMP JUMPDEST SWAP2 MLOAD ISZERO ISZERO PUSH1 0xC0 DUP6 ADD MSTORE MLOAD DUP4 DUP3 SUB PUSH1 0x1F NOT ADD PUSH1 0xE0 DUP6 ADD MSTORE PUSH2 0xF27 JUMP JUMPDEST SUB SWAP1 RETURN JUMPDEST PUSH1 0x0 DUP1 REVERT JUMPDEST CALLVALUE PUSH2 0x275 JUMPI PUSH1 0x0 CALLDATASIZE PUSH1 0x3 NOT ADD SLT PUSH2 0x275 JUMPI PUSH1 0x8 SLOAD PUSH1 0x40 MLOAD PUSH1 0x1 PUSH1 0x1 PUSH1 0xA0 SHL SUB SWAP1 SWAP2 AND DUP2 MSTORE PUSH1 0x20 SWAP1 RETURN JUMPDEST CALLVALUE PUSH2 0x275 JUMPI PUSH1 0x40 CALLDATASIZE PUSH1 0x3 NOT ADD SLT PUSH2 0x275 JUMPI PUSH2 0x2BC PUSH2 0xED8 JUMP JUMPDEST PUSH2 0x2C4 PUSH2 0xF79 JUMP JUMPDEST PUSH1 0x8 SLOAD SWAP1 SWAP2 SWAP1 PUSH1 0x1 PUSH1 0x1 PUSH1 0xA0 SHL SUB AND CALLER SUB PUSH2 0x34B JUMPI PUSH1 0x1 PUSH1 0x1 PUSH1 0xA0 SHL SUB AND SWAP1 DUP2 ISZERO PUSH2 0x33A JUMPI PUSH1 0x20 PUSH32 0xA8CFB85FB565846D65E4062D92A89056ECB7AA24252225132315978A9ED574C1 SWAP2 DUP4 PUSH1 0x0 MSTORE PUSH1 0x1 DUP3 MSTORE PUSH2 0x32F DUP2 PUSH1 0x40 PUSH1 0x0 KECCAK256 SWAP1 PUSH1 0xFF DUP1 NOT DUP4 SLOAD AND SWAP2 ISZERO ISZERO AND OR SWAP1 SSTORE JUMP JUMPDEST PUSH1 0x40 MLOAD SWAP1 ISZERO ISZERO DUP2 MSTORE LOG2 STOP JUMPDEST PUSH4 0xD92E233D PUSH1 0xE0 SHL PUSH1 0x0 MSTORE PUSH1 0x4 PUSH1 0x0 REVERT JUMPDEST PUSH4 0x47556579 PUSH1 0xE0 SHL PUSH1 0x0 MSTORE PUSH1 0x4 PUSH1 0x0 REVERT JUMPDEST CALLVALUE PUSH2 0x275 JUMPI PUSH1 0x20 CALLDATASIZE PUSH1 0x3 NOT ADD SLT PUSH2 0x275 JUMPI PUSH1 0x1 PUSH1 0x1 PUSH1 0xA0 SHL SUB PUSH2 0x37D PUSH2 0xED8 JUMP JUMPDEST AND PUSH1 0x0 MSTORE PUSH1 0x1 PUSH1 0x20 MSTORE PUSH1 0x20 PUSH1 0xFF PUSH1 0x40 PUSH1 0x0 KECCAK256 SLOAD AND PUSH1 0x40 MLOAD SWAP1 ISZERO ISZERO DUP2 MSTORE RETURN JUMPDEST CALLVALUE PUSH2 0x275 JUMPI PUSH1 0x0 CALLDATASIZE PUSH1 0x3 NOT ADD SLT PUSH2 0x275 JUMPI PUSH1 0x40 MLOAD PUSH32 0x0 PUSH1 0x1 PUSH1 0x1 PUSH1 0xA0 SHL SUB AND DUP2 MSTORE PUSH1 0x20 SWAP1 RETURN JUMPDEST CALLVALUE PUSH2 0x275 JUMPI PUSH1 0x0 CALLDATASIZE PUSH1 0x3 NOT ADD SLT PUSH2 0x275 JUMPI PUSH1 0x20 PUSH1 0x3 SLOAD PUSH1 0x40 MLOAD SWAP1 DUP2 MSTORE RETURN JUMPDEST CALLVALUE PUSH2 0x275 JUMPI PUSH1 0x20 CALLDATASIZE PUSH1 0x3 NOT ADD SLT PUSH2 0x275 JUMPI PUSH1 0x80 PUSH1 0x4 CALLDATALOAD PUSH1 0x3 SLOAD SWAP1 PUSH1 0x64 PUSH2 0x426 PUSH1 0x6 SLOAD DUP5 PUSH2 0x13FC JUMP JUMPDEST PUSH1 0x0 SWAP3 DUP4 MSTORE PUSH1 0x5 PUSH1 0x20 SWAP1 DUP2 MSTORE PUSH1 0x40 DUP1 DUP6 KECCAK256 PUSH1 0x1 DUP7 MSTORE SWAP1 SWAP2 MSTORE DUP1 DUP5 KECCAK256 SLOAD DUP5 DUP1 MSTORE SWAP4 KECCAK256 SLOAD SWAP2 SWAP1 DIV DUP1 DUP4 LT DUP1 ISZERO SWAP5 SWAP2 SWAP4 SWAP2 SWAP1 PUSH2 0x484 JUMPI JUMPDEST DUP5 PUSH2 0x47A JUMPI JUMPDEST POP PUSH1 0x40 MLOAD SWAP4 ISZERO ISZERO DUP5 MSTORE PUSH1 0x20 DUP5 ADD MSTORE PUSH1 0x40 DUP4 ADD MSTORE PUSH1 0x60 DUP3 ADD MSTORE RETURN JUMPDEST ISZERO ISZERO SWAP4 POP DUP6 PUSH2 0x460 JUMP JUMPDEST DUP4 DUP4 LT ISZERO SWAP5 POP PUSH2 0x45A JUMP JUMPDEST CALLVALUE PUSH2 0x275 JUMPI PUSH1 0x20 CALLDATASIZE PUSH1 0x3 NOT ADD SLT PUSH2 0x275 JUMPI PUSH1 0x1 PUSH1 0x1 PUSH1 0xA0 SHL SUB PUSH2 0x4B0 PUSH2 0xED8 JUMP JUMPDEST AND PUSH1 0x0 MSTORE PUSH1 0x2 PUSH1 0x20 MSTORE PUSH1 0x20 PUSH1 0x40 PUSH1 0x0 KECCAK256 SLOAD PUSH1 0x40 MLOAD SWAP1 DUP2 MSTORE RETURN JUMPDEST CALLVALUE PUSH2 0x275 JUMPI PUSH1 0x40 CALLDATASIZE PUSH1 0x3 NOT ADD SLT PUSH2 0x275 JUMPI PUSH1 0x4 CALLDATALOAD PUSH1 0x24 CALLDATALOAD PUSH1 0x1 PUSH1 0x1 PUSH1 0x40 SHL SUB DUP2 GT PUSH2 0x275 JUMPI PUSH2 0x4FC SWAP1 CALLDATASIZE SWAP1 PUSH1 0x4 ADD PUSH2 0xF4C JUMP JUMPDEST SWAP1 SWAP2 PUSH1 0x40 MLOAD PUSH1 0x20 DUP2 ADD SWAP1 DUP3 DUP3 MSTORE CALLER PUSH1 0x60 SHL PUSH1 0x40 DUP3 ADD MSTORE TIMESTAMP PUSH1 0x54 DUP3 ADD MSTORE DUP4 DUP6 PUSH1 0x74 DUP4 ADD CALLDATACOPY PUSH2 0x53B PUSH1 0x20 PUSH1 0x74 DUP4 DUP8 DUP2 ADD PREVRANDAO DUP4 DUP3 ADD MSTORE SUB ADD DUP1 DUP5 MSTORE ADD DUP3 PUSH2 0x10AB JUMP JUMPDEST MLOAD SWAP1 KECCAK256 SWAP2 PUSH1 0x40 MLOAD SWAP4 PUSH2 0x54C DUP6 PUSH2 0x1090 JUMP JUMPDEST DUP3 DUP6 MSTORE PUSH1 0x20 DUP6 ADD SWAP1 CALLER DUP3 MSTORE PUSH2 0x562 CALLDATASIZE DUP5 DUP4 PUSH2 0x1232 JUMP JUMPDEST SWAP6 PUSH1 0x40 DUP2 ADD SWAP7 DUP8 MSTORE PUSH1 0x60 DUP2 ADD SWAP7 PUSH1 0x0 DUP9 MSTORE PUSH1 0x20 SWAP8 PUSH1 0x40 MLOAD SWAP1 PUSH2 0x584 DUP11 DUP4 PUSH2 0x10AB JUMP JUMPDEST PUSH1 0x0 DUP3 MSTORE PUSH1 0x80 DUP5 ADD SWAP2 DUP3 MSTORE PUSH1 0xA0 DUP5 ADD SWAP3 PUSH1 0x0 DUP5 MSTORE PUSH1 0x40 MLOAD SWAP7 PUSH2 0x5A6 DUP13 DUP10 PUSH2 0x10AB JUMP JUMPDEST PUSH1 0x0 DUP1 DUP10 MSTORE PUSH1 0xC0 DUP8 ADD SWAP9 DUP10 MSTORE DUP12 DUP2 MSTORE DUP1 DUP14 MSTORE PUSH1 0x40 SWAP1 KECCAK256 SWAP6 MLOAD DUP7 SSTORE MLOAD PUSH1 0x1 DUP7 ADD DUP1 SLOAD PUSH1 0x1 PUSH1 0x1 PUSH1 0xA0 SHL SUB NOT AND PUSH1 0x1 PUSH1 0x1 PUSH1 0xA0 SHL SUB SWAP3 SWAP1 SWAP3 AND SWAP2 SWAP1 SWAP2 OR SWAP1 SSTORE MLOAD DUP1 MLOAD PUSH1 0x2 DUP7 ADD SWAP2 PUSH1 0x1 PUSH1 0x1 PUSH1 0x40 SHL SUB DUP3 GT PUSH2 0x80E JUMPI PUSH2 0x60D DUP3 PUSH2 0x607 DUP6 SLOAD PUSH2 0xFB8 JUMP JUMPDEST DUP6 PUSH2 0x1389 JUMP JUMPDEST DUP13 SWAP1 DUP14 PUSH1 0x1F DUP5 GT PUSH1 0x1 EQ PUSH2 0x8AA JUMPI POP SWAP2 DUP1 PUSH2 0x645 SWAP3 PUSH2 0x660 SWAP7 SWAP6 SWAP5 PUSH1 0x0 SWAP3 PUSH2 0x89F JUMPI JUMPDEST POP POP DUP2 PUSH1 0x1 SHL SWAP2 PUSH1 0x0 NOT SWAP1 PUSH1 0x3 SHL SHR NOT AND OR SWAP1 JUMP JUMPDEST SWAP1 SSTORE JUMPDEST MLOAD ISZERO ISZERO PUSH1 0x3 DUP6 ADD SWAP1 PUSH1 0xFF DUP1 NOT DUP4 SLOAD AND SWAP2 ISZERO ISZERO AND OR SWAP1 SSTORE JUMP JUMPDEST MLOAD DUP1 MLOAD PUSH1 0x4 DUP5 ADD SWAP2 PUSH1 0x1 PUSH1 0x1 PUSH1 0x40 SHL SUB DUP3 GT PUSH2 0x80E JUMPI PUSH2 0x684 DUP3 PUSH2 0x607 DUP6 SLOAD PUSH2 0xFB8 JUMP JUMPDEST DUP11 SWAP1 PUSH1 0x1F DUP4 GT PUSH1 0x1 EQ PUSH2 0x82F JUMPI DUP3 PUSH1 0x6 SWAP7 SWAP6 SWAP4 PUSH2 0x6D7 SWAP6 SWAP4 PUSH2 0x6BC SWAP4 PUSH1 0x0 SWAP3 PUSH2 0x824 JUMPI POP POP DUP2 PUSH1 0x1 SHL SWAP2 PUSH1 0x0 NOT SWAP1 PUSH1 0x3 SHL SHR NOT AND OR SWAP1 JUMP JUMPDEST SWAP1 SSTORE JUMPDEST MLOAD ISZERO ISZERO PUSH1 0x5 DUP4 ADD SWAP1 PUSH1 0xFF DUP1 NOT DUP4 SLOAD AND SWAP2 ISZERO ISZERO AND OR SWAP1 SSTORE JUMP JUMPDEST ADD SWAP2 MLOAD SWAP2 DUP3 MLOAD PUSH1 0x1 PUSH1 0x1 PUSH1 0x40 SHL SUB DUP2 GT PUSH2 0x80E JUMPI DUP7 SWAP4 PUSH2 0x6FB DUP3 PUSH2 0x607 DUP6 SLOAD PUSH2 0xFB8 JUMP JUMPDEST DUP9 SWAP1 PUSH1 0x1F DUP4 GT PUSH1 0x1 EQ PUSH2 0x77E JUMPI DUP3 PUSH32 0x34602E40C4C49141C143FEF967CB05AFC0207BA0F21B2BC82B56B712B4250FCA SWAP6 SWAP4 PUSH2 0x768 SWAP6 SWAP4 PUSH2 0x751 SWAP4 PUSH1 0x0 SWAP3 PUSH2 0x773 JUMPI POP POP DUP2 PUSH1 0x1 SHL SWAP2 PUSH1 0x0 NOT SWAP1 PUSH1 0x3 SHL SHR NOT AND OR SWAP1 JUMP JUMPDEST SWAP1 SSTORE JUMPDEST PUSH1 0x40 MLOAD SWAP2 DUP3 SWAP2 DUP10 DUP4 MSTORE CALLER SWAP7 DUP11 DUP5 ADD SWAP2 PUSH2 0x13DB JUMP JUMPDEST SUB SWAP1 LOG4 PUSH1 0x40 MLOAD SWAP1 DUP2 MSTORE RETURN JUMPDEST ADD MLOAD SWAP1 POP DUP13 DUP1 PUSH2 0x630 JUMP JUMPDEST SWAP1 PUSH1 0x1F NOT DUP4 AND SWAP2 DUP5 PUSH1 0x0 MSTORE DUP11 PUSH1 0x0 KECCAK256 SWAP3 PUSH1 0x0 JUMPDEST DUP13 DUP3 DUP3 LT PUSH2 0x7F5 JUMPI POP POP SWAP3 PUSH1 0x1 SWAP3 DUP6 SWAP3 PUSH32 0x34602E40C4C49141C143FEF967CB05AFC0207BA0F21B2BC82B56B712B4250FCA SWAP9 SWAP7 PUSH2 0x768 SWAP9 SWAP7 LT PUSH2 0x7DC JUMPI JUMPDEST POP POP POP DUP2 SHL ADD SWAP1 SSTORE PUSH2 0x754 JUMP JUMPDEST ADD MLOAD PUSH1 0x0 NOT PUSH1 0xF8 DUP5 PUSH1 0x3 SHL AND SHR NOT AND SWAP1 SSTORE DUP12 DUP1 DUP1 PUSH2 0x7CF JUMP JUMPDEST DUP5 DUP5 ADD MLOAD DUP7 SSTORE DUP13 SWAP10 POP PUSH1 0x1 SWAP1 SWAP6 ADD SWAP5 SWAP4 DUP5 ADD SWAP4 ADD PUSH2 0x791 JUMP JUMPDEST PUSH4 0x4E487B71 PUSH1 0xE0 SHL PUSH1 0x0 MSTORE PUSH1 0x41 PUSH1 0x4 MSTORE PUSH1 0x24 PUSH1 0x0 REVERT JUMPDEST ADD MLOAD SWAP1 POP DUP15 DUP1 PUSH2 0x630 JUMP JUMPDEST PUSH1 0x0 DUP5 DUP2 MSTORE DUP13 DUP2 KECCAK256 SWAP3 SWAP2 SWAP1 PUSH1 0x1F NOT DUP6 AND SWAP1 DUP15 JUMPDEST DUP3 DUP3 LT PUSH2 0x887 JUMPI POP POP SWAP3 PUSH1 0x1 SWAP3 DUP6 SWAP3 PUSH1 0x6 SWAP10 SWAP9 SWAP7 PUSH2 0x6D7 SWAP9 SWAP7 LT PUSH2 0x86E JUMPI JUMPDEST POP POP POP DUP2 SHL ADD SWAP1 SSTORE PUSH2 0x6BF JUMP JUMPDEST ADD MLOAD PUSH1 0x0 NOT PUSH1 0xF8 DUP5 PUSH1 0x3 SHL AND SHR NOT AND SWAP1 SSTORE DUP14 DUP1 DUP1 PUSH2 0x861 JUMP JUMPDEST DUP1 PUSH1 0x1 DUP7 SWAP8 DUP3 SWAP5 SWAP8 DUP8 ADD MLOAD DUP2 SSTORE ADD SWAP7 ADD SWAP5 ADD SWAP1 PUSH2 0x842 JUMP JUMPDEST ADD MLOAD SWAP1 POP DUP16 DUP1 PUSH2 0x630 JUMP JUMPDEST SWAP2 SWAP1 PUSH1 0x1F NOT DUP5 AND DUP6 PUSH1 0x0 MSTORE DUP4 PUSH1 0x0 KECCAK256 SWAP4 PUSH1 0x0 SWAP1 JUMPDEST DUP3 DUP3 LT PUSH2 0x900 JUMPI POP POP SWAP2 PUSH1 0x1 SWAP4 SWAP2 DUP6 PUSH2 0x660 SWAP9 SWAP8 SWAP7 SWAP5 LT PUSH2 0x8E7 JUMPI JUMPDEST POP POP POP DUP2 SHL ADD SWAP1 SSTORE PUSH2 0x648 JUMP JUMPDEST ADD MLOAD PUSH1 0x0 NOT PUSH1 0xF8 DUP5 PUSH1 0x3 SHL AND SHR NOT AND SWAP1 SSTORE DUP15 DUP1 DUP1 PUSH2 0x8DA JUMP JUMPDEST DUP1 PUSH1 0x1 DUP7 SWAP8 DUP3 SWAP5 SWAP8 DUP8 ADD MLOAD DUP2 SSTORE ADD SWAP7 ADD SWAP5 ADD SWAP1 PUSH2 0x8BE JUMP JUMPDEST CALLVALUE PUSH2 0x275 JUMPI PUSH1 0x20 CALLDATASIZE PUSH1 0x3 NOT ADD SLT PUSH2 0x275 JUMPI PUSH2 0x271 PUSH2 0x937 PUSH1 0x4 CALLDATALOAD PUSH2 0x1269 JUMP JUMPDEST PUSH2 0x958 PUSH1 0x40 SWAP6 SWAP4 SWAP6 MLOAD SWAP6 DUP7 SWAP6 ISZERO ISZERO DUP7 MSTORE PUSH1 0x80 PUSH1 0x20 DUP8 ADD MSTORE PUSH1 0x80 DUP7 ADD SWAP1 PUSH2 0xF27 JUMP JUMPDEST SWAP2 ISZERO ISZERO PUSH1 0x40 DUP6 ADD MSTORE DUP4 DUP3 SUB PUSH1 0x60 DUP6 ADD MSTORE PUSH2 0xF27 JUMP JUMPDEST CALLVALUE PUSH2 0x275 JUMPI PUSH1 0x60 CALLDATASIZE PUSH1 0x3 NOT ADD SLT PUSH2 0x275 JUMPI PUSH2 0x986 PUSH2 0xF79 JUMP JUMPDEST PUSH1 0x44 CALLDATALOAD SWAP1 PUSH1 0x1 PUSH1 0x1 PUSH1 0x40 SHL SUB DUP3 GT PUSH2 0x275 JUMPI PUSH2 0x9B3 PUSH2 0x9AC PUSH2 0x9BC SWAP4 CALLDATASIZE SWAP1 PUSH1 0x4 ADD PUSH2 0xF4C JUMP JUMPDEST CALLDATASIZE SWAP2 PUSH2 0x1232 JUMP JUMPDEST SWAP1 PUSH1 0x4 CALLDATALOAD PUSH2 0x1B38 JUMP JUMPDEST STOP JUMPDEST CALLVALUE PUSH2 0x275 JUMPI PUSH1 0x0 CALLDATASIZE PUSH1 0x3 NOT ADD SLT PUSH2 0x275 JUMPI PUSH1 0x20 PUSH1 0x6 SLOAD PUSH1 0x40 MLOAD SWAP1 DUP2 MSTORE RETURN JUMPDEST CALLVALUE PUSH2 0x275 JUMPI PUSH1 0xA0 CALLDATASIZE PUSH1 0x3 NOT ADD SLT PUSH2 0x275 JUMPI PUSH2 0x9F5 PUSH2 0xF79 JUMP JUMPDEST PUSH1 0x44 CALLDATALOAD PUSH1 0x1 PUSH1 0x1 PUSH1 0x40 SHL SUB DUP2 GT PUSH2 0x275 JUMPI PUSH2 0xA14 SWAP1 CALLDATASIZE SWAP1 PUSH1 0x4 ADD PUSH2 0xF4C JUMP JUMPDEST PUSH1 0x64 SWAP3 SWAP2 SWAP3 CALLDATALOAD PUSH1 0x1 PUSH1 0x1 PUSH1 0x40 SHL SUB DUP2 GT PUSH2 0x275 JUMPI PUSH2 0xA36 SWAP1 CALLDATASIZE SWAP1 PUSH1 0x4 ADD PUSH2 0xF4C JUMP JUMPDEST PUSH1 0x84 SWAP3 SWAP2 SWAP3 CALLDATALOAD PUSH1 0x1 PUSH1 0x1 PUSH1 0x40 SHL SUB DUP2 GT PUSH2 0x275 JUMPI PUSH2 0xA58 SWAP1 CALLDATASIZE SWAP1 PUSH1 0x4 ADD PUSH2 0xF4C JUMP JUMPDEST SWAP4 SWAP1 SWAP3 CALLER PUSH1 0x0 MSTORE PUSH1 0x1 PUSH1 0x20 MSTORE PUSH1 0xFF PUSH1 0x40 PUSH1 0x0 KECCAK256 SLOAD AND ISZERO PUSH2 0xA80 JUMPI PUSH2 0x9BC SWAP7 CALLER SWAP7 PUSH1 0x4 CALLDATALOAD PUSH2 0x142B JUMP JUMPDEST PUSH3 0x82B429 PUSH1 0xE8 SHL PUSH1 0x0 MSTORE PUSH1 0x4 PUSH1 0x0 REVERT JUMPDEST CALLVALUE PUSH2 0x275 JUMPI PUSH1 0x20 CALLDATASIZE PUSH1 0x3 NOT ADD SLT PUSH2 0x275 JUMPI PUSH1 0x8 SLOAD PUSH1 0x4 CALLDATALOAD SWAP1 PUSH1 0x1 PUSH1 0x1 PUSH1 0xA0 SHL SUB AND CALLER SUB PUSH2 0x34B JUMPI PUSH1 0x64 DUP2 GT PUSH2 0xAF0 JUMPI PUSH1 0x20 DUP2 PUSH32 0xBC589FCCF641D342B7853C2C6FACA39631D4D19EFBE77E71E5611E31678C220E SWAP3 PUSH1 0x6 SSTORE PUSH1 0x40 MLOAD SWAP1 DUP2 MSTORE LOG1 STOP JUMPDEST PUSH4 0x309CB87 PUSH1 0xE5 SHL PUSH1 0x0 MSTORE PUSH1 0x4 PUSH1 0x0 REVERT JUMPDEST CALLVALUE PUSH2 0x275 JUMPI PUSH1 0x20 CALLDATASIZE PUSH1 0x3 NOT ADD SLT PUSH2 0x275 JUMPI PUSH1 0x4 CALLDATALOAD PUSH1 0x0 MSTORE PUSH1 0x4 PUSH1 0x20 MSTORE PUSH1 0x40 PUSH1 0x0 KECCAK256 DUP1 SLOAD SWAP1 PUSH1 0x1 PUSH1 0x1 PUSH1 0x40 SHL SUB DUP3 GT PUSH2 0x80E JUMPI PUSH1 0x40 MLOAD SWAP2 PUSH2 0xB47 PUSH1 0x20 DUP3 PUSH1 0x5 SHL ADD DUP5 PUSH2 0x10AB JUMP JUMPDEST DUP1 DUP4 MSTORE PUSH1 0x20 DUP4 ADD DUP1 SWAP3 PUSH1 0x0 MSTORE PUSH1 0x20 PUSH1 0x0 KECCAK256 PUSH1 0x0 SWAP2 JUMPDEST DUP4 DUP4 LT PUSH2 0xC19 JUMPI DUP5 DUP7 PUSH1 0x40 MLOAD SWAP2 DUP3 SWAP2 PUSH1 0x20 DUP4 ADD SWAP1 PUSH1 0x20 DUP5 MSTORE MLOAD DUP1 SWAP2 MSTORE PUSH1 0x40 DUP4 ADD SWAP1 PUSH1 0x40 DUP2 PUSH1 0x5 SHL DUP6 ADD ADD SWAP3 SWAP2 PUSH1 0x0 SWAP1 JUMPDEST DUP3 DUP3 LT PUSH2 0xB9B JUMPI POP POP POP POP SUB SWAP1 RETURN JUMPDEST SWAP2 SWAP4 PUSH1 0x1 SWAP2 SWAP4 SWAP6 POP PUSH1 0x20 DUP1 SWAP2 PUSH1 0x3F NOT DUP10 DUP3 SUB ADD DUP6 MSTORE DUP8 MLOAD SWAP1 DUP5 DUP1 PUSH1 0xA0 SHL SUB DUP3 MLOAD AND DUP2 MSTORE DUP3 DUP3 ADD MLOAD ISZERO ISZERO DUP4 DUP3 ADD MSTORE PUSH1 0xA0 DUP1 PUSH2 0xBF9 PUSH2 0xBE7 PUSH1 0x40 DUP7 ADD MLOAD PUSH1 0xC0 PUSH1 0x40 DUP8 ADD MSTORE PUSH1 0xC0 DUP7 ADD SWAP1 PUSH2 0xF27 JUMP JUMPDEST PUSH1 0x60 DUP7 ADD MLOAD DUP6 DUP3 SUB PUSH1 0x60 DUP8 ADD MSTORE PUSH2 0xF27 JUMP JUMPDEST SWAP4 PUSH1 0x80 DUP2 ADD MLOAD PUSH1 0x80 DUP6 ADD MSTORE ADD MLOAD SWAP2 ADD MSTORE SWAP7 ADD SWAP3 ADD SWAP3 ADD DUP6 SWAP5 SWAP4 SWAP2 SWAP3 PUSH2 0xB8C JUMP JUMPDEST PUSH1 0x5 PUSH1 0x20 PUSH1 0x1 SWAP3 PUSH1 0x40 MLOAD PUSH2 0xC2C DUP2 PUSH2 0x1075 JUMP JUMPDEST PUSH1 0xFF DUP7 SLOAD DUP7 DUP1 PUSH1 0xA0 SHL SUB DUP2 AND DUP4 MSTORE PUSH1 0xA0 SHR AND ISZERO ISZERO DUP4 DUP3 ADD MSTORE PUSH1 0x40 MLOAD PUSH2 0xC57 DUP2 PUSH2 0x190 DUP2 DUP10 DUP12 ADD PUSH2 0xFF2 JUMP JUMPDEST PUSH1 0x40 DUP3 ADD MSTORE PUSH1 0x40 MLOAD PUSH2 0xC70 DUP2 PUSH2 0x190 DUP2 PUSH1 0x2 DUP12 ADD PUSH2 0xFF2 JUMP JUMPDEST PUSH1 0x60 DUP3 ADD MSTORE PUSH1 0x3 DUP7 ADD SLOAD PUSH1 0x80 DUP3 ADD MSTORE PUSH1 0x4 DUP7 ADD SLOAD PUSH1 0xA0 DUP3 ADD MSTORE DUP2 MSTORE ADD SWAP3 ADD SWAP3 ADD SWAP2 SWAP1 PUSH2 0xB5C JUMP JUMPDEST CALLVALUE PUSH2 0x275 JUMPI PUSH1 0x0 CALLDATASIZE PUSH1 0x3 NOT ADD SLT PUSH2 0x275 JUMPI PUSH1 0x40 MLOAD PUSH32 0x0 PUSH1 0x1 PUSH1 0x1 PUSH1 0xA0 SHL SUB AND DUP2 MSTORE PUSH1 0x20 SWAP1 RETURN JUMPDEST CALLVALUE PUSH2 0x275 JUMPI PUSH1 0x40 CALLDATASIZE PUSH1 0x3 NOT ADD SLT PUSH2 0x275 JUMPI PUSH1 0x20 PUSH2 0xD02 PUSH2 0xCFA PUSH2 0xEEE JUMP JUMPDEST PUSH1 0x4 CALLDATALOAD PUSH2 0x1111 JUMP JUMPDEST PUSH1 0x40 MLOAD SWAP1 DUP2 MSTORE RETURN JUMPDEST CALLVALUE PUSH2 0x275 JUMPI PUSH1 0x80 CALLDATASIZE PUSH1 0x3 NOT ADD SLT PUSH2 0x275 JUMPI PUSH1 0x4 CALLDATALOAD PUSH1 0x24 CALLDATALOAD PUSH1 0x1 PUSH1 0x1 PUSH1 0x40 SHL SUB DUP2 GT PUSH2 0x275 JUMPI PUSH2 0xD3D SWAP1 CALLDATASIZE SWAP1 PUSH1 0x4 ADD PUSH2 0xF4C JUMP JUMPDEST PUSH1 0x44 CALLDATALOAD SWAP3 SWAP2 DUP4 ISZERO ISZERO DUP5 SUB PUSH2 0x275 JUMPI PUSH1 0x64 CALLDATALOAD PUSH1 0x1 PUSH1 0x1 PUSH1 0x40 SHL SUB DUP2 GT PUSH2 0x275 JUMPI PUSH2 0xD6A SWAP1 CALLDATASIZE SWAP1 PUSH1 0x4 ADD PUSH2 0xF4C JUMP JUMPDEST SWAP3 SWAP1 CALLER PUSH1 0x0 MSTORE PUSH1 0x1 PUSH1 0x20 MSTORE PUSH1 0xFF PUSH1 0x40 PUSH1 0x0 KECCAK256 SLOAD AND ISZERO PUSH2 0xA80 JUMPI PUSH2 0xD9C SWAP4 PUSH1 0x60 DUP2 LT PUSH2 0xDC8 JUMPI DUP2 DUP2 SWAP4 JUMPDEST CALLER SWAP6 DUP10 DUP10 PUSH2 0x142B JUMP JUMPDEST PUSH2 0xDA6 DUP3 DUP3 PUSH2 0x1AFC JUMP JUMPDEST PUSH2 0xDAC JUMPI STOP JUMPDEST PUSH2 0x9BC SWAP2 PUSH1 0x40 MLOAD SWAP2 PUSH2 0xDBF PUSH1 0x20 DUP5 PUSH2 0x10AB JUMP JUMPDEST PUSH1 0x0 DUP4 MSTORE PUSH2 0x1B38 JUMP JUMPDEST DUP2 PUSH1 0x0 SWAP4 PUSH2 0xD93 JUMP JUMPDEST CALLVALUE PUSH2 0x275 JUMPI PUSH1 0x40 CALLDATASIZE PUSH1 0x3 NOT ADD SLT PUSH2 0x275 JUMPI PUSH2 0xDEA PUSH2 0xEEE JUMP JUMPDEST PUSH1 0x4 CALLDATALOAD PUSH1 0x0 MSTORE PUSH1 0x7 PUSH1 0x20 MSTORE PUSH1 0x40 PUSH1 0x0 KECCAK256 SWAP1 PUSH1 0x1 DUP1 PUSH1 0xA0 SHL SUB AND PUSH1 0x0 MSTORE PUSH1 0x20 MSTORE PUSH2 0x271 PUSH2 0x190 PUSH2 0xE23 PUSH1 0x40 PUSH1 0x0 KECCAK256 PUSH1 0x40 MLOAD SWAP3 DUP4 DUP1 SWAP3 PUSH2 0xFF2 JUMP JUMPDEST PUSH1 0x40 MLOAD SWAP2 DUP3 SWAP2 PUSH1 0x20 DUP4 MSTORE PUSH1 0x20 DUP4 ADD SWAP1 PUSH2 0xF27 JUMP JUMPDEST CALLVALUE PUSH2 0x275 JUMPI PUSH1 0x40 CALLDATASIZE PUSH1 0x3 NOT ADD SLT PUSH2 0x275 JUMPI PUSH2 0xE50 PUSH2 0xED8 JUMP JUMPDEST PUSH1 0x8 SLOAD PUSH1 0x24 CALLDATALOAD SWAP2 SWAP1 PUSH1 0x1 PUSH1 0x1 PUSH1 0xA0 SHL SUB AND CALLER SUB PUSH2 0x34B JUMPI PUSH1 0x1 PUSH1 0x1 PUSH1 0xA0 SHL SUB AND SWAP1 DUP2 ISZERO PUSH2 0x33A JUMPI PUSH1 0x20 PUSH32 0xF21E638CBCCAD60709E37C990768543730CE2449D9C79B38E1E972FA99B3A219 SWAP2 DUP4 PUSH1 0x0 MSTORE PUSH1 0x2 DUP3 MSTORE PUSH2 0xECC DUP2 PUSH2 0xEC7 PUSH1 0x40 PUSH1 0x0 KECCAK256 SLOAD DUP8 PUSH1 0x0 MSTORE PUSH1 0x2 DUP7 MSTORE DUP3 PUSH1 0x40 PUSH1 0x0 KECCAK256 SSTORE PUSH1 0x3 SLOAD PUSH2 0xF88 JUMP JUMPDEST PUSH2 0xFAB JUMP JUMPDEST PUSH1 0x3 SSTORE PUSH1 0x40 MLOAD SWAP1 DUP2 MSTORE LOG2 STOP JUMPDEST PUSH1 0x4 CALLDATALOAD SWAP1 PUSH1 0x1 PUSH1 0x1 PUSH1 0xA0 SHL SUB DUP3 AND DUP3 SUB PUSH2 0x275 JUMPI JUMP JUMPDEST PUSH1 0x24 CALLDATALOAD SWAP1 PUSH1 0x1 PUSH1 0x1 PUSH1 0xA0 SHL SUB DUP3 AND DUP3 SUB PUSH2 0x275 JUMPI JUMP JUMPDEST PUSH1 0x0 JUMPDEST DUP4 DUP2 LT PUSH2 0xF17 JUMPI POP POP PUSH1 0x0 SWAP2 ADD MSTORE JUMP JUMPDEST DUP2 DUP2 ADD MLOAD DUP4 DUP3 ADD MSTORE PUSH1 0x20 ADD PUSH2 0xF07 JUMP JUMPDEST SWAP1 PUSH1 0x20 SWAP2 PUSH2 0xF40 DUP2 MLOAD DUP1 SWAP3 DUP2 DUP6 MSTORE DUP6 DUP1 DUP7 ADD SWAP2 ADD PUSH2 0xF04 JUMP JUMPDEST PUSH1 0x1F ADD PUSH1 0x1F NOT AND ADD ADD SWAP1 JUMP JUMPDEST SWAP2 DUP2 PUSH1 0x1F DUP5 ADD SLT ISZERO PUSH2 0x275 JUMPI DUP3 CALLDATALOAD SWAP2 PUSH1 0x1 PUSH1 0x1 PUSH1 0x40 SHL SUB DUP4 GT PUSH2 0x275 JUMPI PUSH1 0x20 DUP4 DUP2 DUP7 ADD SWAP6 ADD ADD GT PUSH2 0x275 JUMPI JUMP JUMPDEST PUSH1 0x24 CALLDATALOAD SWAP1 DUP2 ISZERO ISZERO DUP3 SUB PUSH2 0x275 JUMPI JUMP JUMPDEST SWAP2 SWAP1 DUP3 SUB SWAP2 DUP3 GT PUSH2 0xF95 JUMPI JUMP JUMPDEST PUSH4 0x4E487B71 PUSH1 0xE0 SHL PUSH1 0x0 MSTORE PUSH1 0x11 PUSH1 0x4 MSTORE PUSH1 0x24 PUSH1 0x0 REVERT JUMPDEST SWAP2 SWAP1 DUP3 ADD DUP1 SWAP3 GT PUSH2 0xF95 JUMPI JUMP JUMPDEST SWAP1 PUSH1 0x1 DUP3 DUP2 SHR SWAP3 AND DUP1 ISZERO PUSH2 0xFE8 JUMPI JUMPDEST PUSH1 0x20 DUP4 LT EQ PUSH2 0xFD2 JUMPI JUMP JUMPDEST PUSH4 0x4E487B71 PUSH1 0xE0 SHL PUSH1 0x0 MSTORE PUSH1 0x22 PUSH1 0x4 MSTORE PUSH1 0x24 PUSH1 0x0 REVERT JUMPDEST SWAP2 PUSH1 0x7F AND SWAP2 PUSH2 0xFC7 JUMP JUMPDEST PUSH1 0x0 SWAP3 SWAP2 DUP2 SLOAD SWAP2 PUSH2 0x1002 DUP4 PUSH2 0xFB8 JUMP JUMPDEST DUP1 DUP4 MSTORE SWAP3 PUSH1 0x1 DUP2 AND SWAP1 DUP2 ISZERO PUSH2 0x1058 JUMPI POP PUSH1 0x1 EQ PUSH2 0x101E JUMPI POP POP POP JUMP JUMPDEST PUSH1 0x0 SWAP1 DUP2 MSTORE PUSH1 0x20 DUP2 KECCAK256 SWAP4 SWAP5 POP SWAP2 SWAP3 JUMPDEST DUP4 DUP4 LT PUSH2 0x103E JUMPI POP PUSH1 0x20 SWAP3 POP ADD ADD SWAP1 JUMP JUMPDEST PUSH1 0x1 DUP2 PUSH1 0x20 SWAP3 SWAP5 SWAP4 SWAP5 SLOAD DUP4 DUP6 DUP8 ADD ADD MSTORE ADD SWAP2 ADD SWAP2 SWAP1 PUSH2 0x102D JUMP JUMPDEST SWAP2 POP POP PUSH1 0x20 SWAP4 SWAP5 POP PUSH1 0xFF SWAP3 SWAP2 SWAP3 NOT AND DUP4 DUP4 ADD MSTORE ISZERO ISZERO PUSH1 0x5 SHL ADD ADD SWAP1 JUMP JUMPDEST PUSH1 0xC0 DUP2 ADD SWAP1 DUP2 LT PUSH1 0x1 PUSH1 0x1 PUSH1 0x40 SHL SUB DUP3 GT OR PUSH2 0x80E JUMPI PUSH1 0x40 MSTORE JUMP JUMPDEST PUSH1 0xE0 DUP2 ADD SWAP1 DUP2 LT PUSH1 0x1 PUSH1 0x1 PUSH1 0x40 SHL SUB DUP3 GT OR PUSH2 0x80E JUMPI PUSH1 0x40 MSTORE JUMP JUMPDEST SWAP1 PUSH1 0x1F DUP1 NOT SWAP2 ADD AND DUP2 ADD SWAP1 DUP2 LT PUSH1 0x1 PUSH1 0x1 PUSH1 0x40 SHL SUB DUP3 GT OR PUSH2 0x80E JUMPI PUSH1 0x40 MSTORE JUMP JUMPDEST PUSH1 0x1 PUSH1 0x1 PUSH1 0x40 SHL SUB DUP2 GT PUSH2 0x80E JUMPI PUSH1 0x1F ADD PUSH1 0x1F NOT AND PUSH1 0x20 ADD SWAP1 JUMP JUMPDEST DUP1 MLOAD DUP3 LT ISZERO PUSH2 0x10FB JUMPI PUSH1 0x20 SWAP2 PUSH1 0x5 SHL ADD ADD SWAP1 JUMP JUMPDEST PUSH4 0x4E487B71 PUSH1 0xE0 SHL PUSH1 0x0 MSTORE PUSH1 0x32 PUSH1 0x4 MSTORE PUSH1 0x24 PUSH1 0x0 REVERT JUMPDEST PUSH1 0x0 MSTORE PUSH1 0x4 PUSH1 0x20 MSTORE PUSH1 0x40 PUSH1 0x0 KECCAK256 DUP1 SLOAD PUSH1 0x1 PUSH1 0x1 PUSH1 0x40 SHL SUB DUP2 GT PUSH2 0x80E JUMPI PUSH1 0x40 MLOAD SWAP2 PUSH2 0x1142 PUSH1 0x20 DUP4 PUSH1 0x5 SHL ADD DUP5 PUSH2 0x10AB JUMP JUMPDEST DUP2 DUP4 MSTORE PUSH1 0x20 DUP4 ADD SWAP1 PUSH1 0x0 MSTORE PUSH1 0x20 PUSH1 0x0 KECCAK256 PUSH1 0x0 SWAP2 JUMPDEST DUP4 DUP4 LT PUSH2 0x11B4 JUMPI POP POP POP POP PUSH1 0x0 JUMPDEST DUP2 MLOAD DUP2 LT ISZERO PUSH2 0x11AC JUMPI PUSH1 0x1 PUSH1 0x1 PUSH1 0xA0 SHL SUB PUSH2 0x117F DUP3 DUP5 PUSH2 0x10E7 JUMP JUMPDEST MLOAD MLOAD AND PUSH1 0x1 PUSH1 0x1 PUSH1 0xA0 SHL SUB DUP5 AND EQ PUSH2 0x1199 JUMPI PUSH1 0x1 ADD PUSH2 0x1164 JUMP JUMPDEST PUSH1 0x80 SWAP3 POP PUSH2 0x11A6 SWAP2 PUSH2 0x10E7 JUMP JUMPDEST MLOAD ADD MLOAD SWAP1 JUMP JUMPDEST POP POP POP PUSH1 0x0 SWAP1 JUMP JUMPDEST PUSH1 0x5 PUSH1 0x20 PUSH1 0x1 SWAP3 PUSH1 0x40 MLOAD PUSH2 0x11C7 DUP2 PUSH2 0x1075 JUMP JUMPDEST PUSH1 0xFF DUP7 SLOAD DUP7 DUP1 PUSH1 0xA0 SHL SUB DUP2 AND DUP4 MSTORE PUSH1 0xA0 SHR AND ISZERO ISZERO DUP4 DUP3 ADD MSTORE PUSH1 0x40 MLOAD PUSH2 0x11F2 DUP2 PUSH2 0x190 DUP2 DUP10 DUP12 ADD PUSH2 0xFF2 JUMP JUMPDEST PUSH1 0x40 DUP3 ADD MSTORE PUSH1 0x40 MLOAD PUSH2 0x120B DUP2 PUSH2 0x190 DUP2 PUSH1 0x2 DUP12 ADD PUSH2 0xFF2 JUMP JUMPDEST PUSH1 0x60 DUP3 ADD MSTORE PUSH1 0x3 DUP7 ADD SLOAD PUSH1 0x80 DUP3 ADD MSTORE PUSH1 0x4 DUP7 ADD SLOAD PUSH1 0xA0 DUP3 ADD MSTORE DUP2 MSTORE ADD SWAP3 ADD SWAP3 ADD SWAP2 SWAP1 PUSH2 0x1156 JUMP JUMPDEST SWAP3 SWAP2 SWAP3 PUSH2 0x123E DUP3 PUSH2 0x10CC JUMP JUMPDEST SWAP2 PUSH2 0x124C PUSH1 0x40 MLOAD SWAP4 DUP5 PUSH2 0x10AB JUMP JUMPDEST DUP3 SWAP5 DUP2 DUP5 MSTORE DUP2 DUP4 ADD GT PUSH2 0x275 JUMPI DUP3 DUP2 PUSH1 0x20 SWAP4 DUP5 PUSH1 0x0 SWAP7 ADD CALLDATACOPY ADD ADD MSTORE JUMP JUMPDEST PUSH1 0x0 MSTORE PUSH1 0x0 PUSH1 0x20 MSTORE PUSH1 0x6 PUSH1 0x40 PUSH1 0x0 KECCAK256 SWAP2 PUSH1 0x40 MLOAD PUSH2 0x1285 DUP2 PUSH2 0x1090 JUMP JUMPDEST DUP4 SLOAD DUP2 MSTORE PUSH1 0x1 DUP5 ADD SLOAD PUSH1 0x1 PUSH1 0x1 PUSH1 0xA0 SHL SUB AND PUSH1 0x20 DUP3 ADD SWAP1 DUP2 MSTORE PUSH1 0x40 MLOAD PUSH2 0x12B2 DUP2 PUSH2 0x190 DUP2 PUSH1 0x2 DUP11 ADD PUSH2 0xFF2 JUMP JUMPDEST PUSH1 0x40 DUP4 ADD MSTORE PUSH1 0xFF PUSH1 0x3 DUP7 ADD SLOAD AND SWAP1 PUSH1 0x60 DUP4 ADD SWAP2 ISZERO ISZERO DUP3 MSTORE PUSH1 0xC0 PUSH1 0x40 MLOAD SWAP4 PUSH2 0x12E7 DUP6 PUSH2 0x12E0 DUP2 PUSH1 0x4 DUP13 ADD PUSH2 0xFF2 JUMP JUMPDEST SUB DUP7 PUSH2 0x10AB JUMP JUMPDEST PUSH1 0x80 DUP2 ADD SWAP5 DUP6 MSTORE PUSH2 0x131A PUSH1 0xFF PUSH1 0x5 DUP11 ADD SLOAD AND SWAP9 PUSH1 0xA0 DUP4 ADD SWAP10 ISZERO ISZERO DUP11 MSTORE PUSH2 0x1313 PUSH1 0x40 MLOAD DUP1 SWAP11 DUP2 SWAP4 ADD PUSH2 0xFF2 JUMP JUMPDEST SUB DUP9 PUSH2 0x10AB JUMP JUMPDEST ADD SWAP5 DUP6 MSTORE MLOAD PUSH1 0x1 PUSH1 0x1 PUSH1 0xA0 SHL SUB AND ISZERO PUSH2 0x1373 JUMPI MLOAD ISZERO PUSH2 0x1341 JUMPI MLOAD SWAP3 MLOAD SWAP2 MLOAD PUSH1 0x1 SWAP4 SWAP3 ISZERO ISZERO SWAP2 JUMP JUMPDEST POP SWAP2 POP POP PUSH1 0x0 SWAP1 PUSH1 0x40 MLOAD PUSH2 0x1356 PUSH1 0x20 DUP3 PUSH2 0x10AB JUMP JUMPDEST PUSH1 0x0 DUP2 MSTORE SWAP1 PUSH1 0x0 SWAP1 PUSH1 0x40 MLOAD PUSH2 0x136C PUSH1 0x20 DUP3 PUSH2 0x10AB JUMP JUMPDEST PUSH1 0x0 DUP2 MSTORE SWAP1 JUMP JUMPDEST POP POP SWAP2 POP POP PUSH1 0x0 SWAP1 PUSH1 0x40 MLOAD PUSH2 0x1356 PUSH1 0x20 DUP3 PUSH2 0x10AB JUMP JUMPDEST PUSH1 0x1F DUP3 GT PUSH2 0x1396 JUMPI POP POP POP JUMP JUMPDEST PUSH1 0x0 MSTORE PUSH1 0x20 PUSH1 0x0 KECCAK256 SWAP1 PUSH1 0x20 PUSH1 0x1F DUP5 ADD PUSH1 0x5 SHR DUP4 ADD SWAP4 LT PUSH2 0x13D1 JUMPI JUMPDEST PUSH1 0x1F ADD PUSH1 0x5 SHR ADD SWAP1 JUMPDEST DUP2 DUP2 LT PUSH2 0x13C5 JUMPI POP POP JUMP JUMPDEST PUSH1 0x0 DUP2 SSTORE PUSH1 0x1 ADD PUSH2 0x13BA JUMP JUMPDEST SWAP1 SWAP2 POP DUP2 SWAP1 PUSH2 0x13B1 JUMP JUMPDEST SWAP1 DUP1 PUSH1 0x20 SWAP4 SWAP3 DUP2 DUP5 MSTORE DUP5 DUP5 ADD CALLDATACOPY PUSH1 0x0 DUP3 DUP3 ADD DUP5 ADD MSTORE PUSH1 0x1F ADD PUSH1 0x1F NOT AND ADD ADD SWAP1 JUMP JUMPDEST DUP2 DUP2 MUL SWAP3 SWAP2 DUP2 ISZERO SWAP2 DUP5 DIV EQ OR ISZERO PUSH2 0xF95 JUMPI JUMP JUMPDEST DUP1 SLOAD DUP3 LT ISZERO PUSH2 0x10FB JUMPI PUSH1 0x0 MSTORE PUSH1 0x5 PUSH1 0x20 PUSH1 0x0 KECCAK256 SWAP2 MUL ADD SWAP1 PUSH1 0x0 SWAP1 JUMP JUMPDEST SWAP9 SWAP7 SWAP8 SWAP5 SWAP1 SWAP6 SWAP9 SWAP3 SWAP2 SWAP3 PUSH1 0x80 MSTORE PUSH1 0x80 MLOAD PUSH1 0x0 MSTORE PUSH1 0x0 PUSH1 0x20 MSTORE PUSH1 0x40 PUSH1 0x0 KECCAK256 SWAP9 PUSH1 0x1 DUP1 PUSH1 0xA0 SHL SUB PUSH1 0x1 DUP12 ADD SLOAD AND ISZERO PUSH2 0x1AEB JUMPI PUSH1 0xFF PUSH1 0x3 DUP12 ADD SLOAD AND PUSH2 0x14D7 JUMPI PUSH1 0x1 PUSH1 0x1 PUSH1 0xA0 SHL SUB DUP7 AND PUSH1 0x0 DUP2 DUP2 MSTORE PUSH1 0x2 PUSH1 0x20 MSTORE PUSH1 0x40 SWAP1 KECCAK256 SLOAD SWAP1 SWAP10 SWAP1 SWAP2 DUP3 ISZERO PUSH2 0xA80 JUMPI PUSH1 0x0 JUMPDEST PUSH1 0x80 MLOAD PUSH1 0x0 MSTORE PUSH1 0x4 PUSH1 0x20 MSTORE PUSH1 0x40 PUSH1 0x0 KECCAK256 SLOAD DUP2 LT ISZERO PUSH2 0x14E8 JUMPI PUSH1 0x80 MLOAD PUSH1 0x0 MSTORE PUSH1 0x4 PUSH1 0x20 MSTORE DUP12 PUSH2 0x14BF DUP3 PUSH1 0x40 PUSH1 0x0 KECCAK256 PUSH2 0x140F JUMP JUMPDEST POP SLOAD PUSH1 0x1 PUSH1 0x1 PUSH1 0xA0 SHL SUB AND EQ PUSH2 0x14D7 JUMPI PUSH1 0x1 ADD PUSH2 0x148D JUMP JUMPDEST PUSH4 0x4A4117F9 PUSH1 0xE0 SHL PUSH1 0x0 MSTORE PUSH1 0x4 PUSH1 0x0 REVERT JUMPDEST POP SWAP1 SWAP2 SWAP3 SWAP4 SWAP5 SWAP6 SWAP7 SWAP9 SWAP11 PUSH1 0x0 PUSH2 0x1536 SWAP2 SWAP12 SWAP10 SWAP12 PUSH1 0x40 MLOAD DUP1 SWAP4 DUP2 SWAP3 PUSH4 0x7BF41D77 PUSH1 0xE1 SHL DUP4 MSTORE PUSH1 0x40 PUSH1 0x4 DUP5 ADD MSTORE PUSH1 0x2 PUSH2 0x1523 PUSH1 0x44 DUP6 ADD DUP11 DUP11 PUSH2 0x13DB JUMP JUMPDEST DUP5 DUP2 SUB PUSH1 0x3 NOT ADD PUSH1 0x24 DUP7 ADD MSTORE SWAP2 ADD PUSH2 0xFF2 JUMP JUMPDEST SUB DUP2 PUSH32 0x0 PUSH1 0x1 PUSH1 0x1 PUSH1 0xA0 SHL SUB AND GAS STATICCALL SWAP1 DUP2 ISZERO PUSH2 0x1ADF JUMPI PUSH1 0x0 SWAP1 DUP2 SWAP3 PUSH2 0x1A49 JUMPI JUMPDEST POP ISZERO PUSH2 0x1A3B JUMPI PUSH1 0x20 DUP2 MLOAD SWAP2 ADD KECCAK256 SWAP9 PUSH1 0x40 SWAP10 PUSH1 0x3 PUSH1 0x20 DUP13 PUSH2 0x1597 DUP2 MLOAD SWAP2 DUP3 PUSH2 0x10AB JUMP JUMPDEST DUP3 DUP2 MSTORE ADD PUSH3 0x594553 PUSH1 0xE8 SHL DUP2 MSTORE KECCAK256 EQ SWAP11 ISZERO ISZERO DUP1 SWAP12 SUB PUSH2 0x1A2E JUMPI POP PUSH2 0x15BC CALLDATASIZE DUP4 DUP4 PUSH2 0x1232 JUMP JUMPDEST PUSH1 0x20 DUP2 MLOAD SWAP2 ADD KECCAK256 SWAP2 PUSH1 0x80 MLOAD PUSH1 0x0 MSTORE PUSH1 0x7 PUSH1 0x20 MSTORE DUP10 DUP1 PUSH1 0x0 KECCAK256 PUSH1 0x0 SWAP1 DUP12 DUP3 MSTORE PUSH1 0x20 MSTORE KECCAK256 SWAP2 PUSH1 0x1 PUSH1 0x1 PUSH1 0x40 SHL SUB DUP3 GT PUSH2 0x80E JUMPI PUSH2 0x15FB DUP3 PUSH2 0x607 DUP6 SLOAD PUSH2 0xFB8 JUMP JUMPDEST PUSH1 0x0 SWAP1 PUSH1 0x1F DUP4 GT PUSH1 0x1 EQ PUSH2 0x19CA JUMPI PUSH2 0x162B SWAP3 SWAP2 PUSH1 0x0 SWAP2 DUP4 PUSH2 0x19BF JUMPI POP POP DUP2 PUSH1 0x1 SHL SWAP2 PUSH1 0x0 NOT SWAP1 PUSH1 0x3 SHL SHR NOT AND OR SWAP1 JUMP JUMPDEST SWAP1 SSTORE JUMPDEST PUSH1 0x80 MLOAD PUSH1 0x0 MSTORE PUSH1 0x4 PUSH1 0x20 MSTORE DUP8 PUSH1 0x0 KECCAK256 SWAP1 DUP9 MLOAD SWAP1 PUSH2 0x164A DUP3 PUSH2 0x1075 JUMP JUMPDEST DUP9 DUP3 MSTORE PUSH1 0x20 DUP3 ADD SWAP3 DUP12 DUP5 MSTORE PUSH2 0x1660 CALLDATASIZE DUP9 DUP11 PUSH2 0x1232 JUMP JUMPDEST SWAP1 DUP12 DUP5 ADD SWAP2 DUP3 MSTORE PUSH2 0x1672 CALLDATASIZE DUP9 DUP13 PUSH2 0x1232 JUMP JUMPDEST SWAP3 PUSH1 0x60 DUP6 ADD SWAP4 DUP5 MSTORE PUSH1 0x80 DUP6 ADD MSTORE TIMESTAMP PUSH1 0xA0 DUP6 ADD MSTORE DUP1 SLOAD PUSH9 0x10000000000000000 DUP2 LT ISZERO PUSH2 0x80E JUMPI PUSH2 0x16A7 SWAP2 PUSH1 0x1 DUP3 ADD DUP2 SSTORE PUSH2 0x140F JUMP JUMPDEST SWAP5 SWAP1 SWAP5 PUSH2 0x19A9 JUMPI DUP4 MLOAD DUP6 SLOAD SWAP2 MLOAD PUSH1 0x1 PUSH1 0x1 PUSH1 0xA8 SHL SUB NOT SWAP1 SWAP3 AND PUSH1 0x1 PUSH1 0x1 PUSH1 0xA0 SHL SUB SWAP2 SWAP1 SWAP2 AND OR SWAP1 ISZERO ISZERO PUSH1 0xA0 SHL PUSH1 0xFF PUSH1 0xA0 SHL AND OR DUP5 SSTORE MLOAD DUP1 MLOAD PUSH1 0x1 DUP6 ADD SWAP2 PUSH1 0x1 PUSH1 0x1 PUSH1 0x40 SHL SUB DUP3 GT PUSH2 0x80E JUMPI PUSH2 0x1700 DUP3 PUSH2 0x607 DUP6 SLOAD PUSH2 0xFB8 JUMP JUMPDEST PUSH1 0x20 SWAP1 PUSH1 0x1F DUP4 GT PUSH1 0x1 EQ PUSH2 0x1942 JUMPI PUSH2 0x1730 SWAP3 SWAP2 PUSH1 0x0 SWAP2 DUP4 PUSH2 0x189F JUMPI POP POP DUP2 PUSH1 0x1 SHL SWAP2 PUSH1 0x0 NOT SWAP1 PUSH1 0x3 SHL SHR NOT AND OR SWAP1 JUMP JUMPDEST SWAP1 SSTORE JUMPDEST MLOAD DUP1 MLOAD PUSH1 0x2 DUP5 ADD SWAP2 PUSH1 0x1 PUSH1 0x1 PUSH1 0x40 SHL SUB DUP3 GT PUSH2 0x80E JUMPI PUSH2 0x1757 DUP3 PUSH2 0x607 DUP6 SLOAD PUSH2 0xFB8 JUMP JUMPDEST PUSH1 0x20 SWAP1 PUSH1 0x1F DUP4 GT PUSH1 0x1 EQ PUSH2 0x18AA JUMPI SWAP4 PUSH32 0x4164D38FCC30943A577283F30908D604D84A89A2E856B65B3329632355355805 SWAP10 SWAP9 SWAP8 SWAP6 SWAP4 PUSH2 0x17B7 DUP5 PUSH1 0x4 SWAP6 PUSH1 0xA0 SWAP6 PUSH2 0x181D SWAP12 SWAP10 PUSH1 0x0 SWAP3 PUSH2 0x189F JUMPI POP POP DUP2 PUSH1 0x1 SHL SWAP2 PUSH1 0x0 NOT SWAP1 PUSH1 0x3 SHL SHR NOT AND OR SWAP1 JUMP JUMPDEST SWAP1 SSTORE JUMPDEST PUSH1 0x80 DUP2 ADD MLOAD PUSH1 0x3 DUP6 ADD SSTORE ADD MLOAD SWAP2 ADD SSTORE PUSH1 0x80 MLOAD PUSH1 0x0 MSTORE PUSH1 0x5 PUSH1 0x20 MSTORE DUP9 PUSH1 0x0 KECCAK256 DUP11 PUSH1 0x0 MSTORE PUSH1 0x20 MSTORE PUSH2 0x17EE DUP10 PUSH1 0x0 KECCAK256 SWAP2 DUP3 SLOAD PUSH2 0xFAB JUMP JUMPDEST SWAP1 SSTORE PUSH2 0x180C DUP9 MLOAD SWAP5 DUP6 SWAP5 DUP12 DUP7 MSTORE PUSH1 0x60 PUSH1 0x20 DUP8 ADD MSTORE PUSH1 0x60 DUP7 ADD SWAP2 PUSH2 0x13DB JUMP JUMPDEST SWAP1 DUP4 DUP3 SUB DUP10 DUP6 ADD MSTORE PUSH1 0x80 MLOAD SWAP7 PUSH2 0x13DB JUMP JUMPDEST SUB SWAP1 LOG3 PUSH1 0x80 MLOAD PUSH1 0x0 MSTORE PUSH1 0x5 PUSH1 0x20 MSTORE DUP1 PUSH1 0x0 KECCAK256 DUP3 PUSH1 0x0 MSTORE PUSH1 0x20 MSTORE DUP1 PUSH1 0x0 KECCAK256 SLOAD SWAP1 PUSH1 0x3 SLOAD PUSH1 0x64 PUSH2 0x184D PUSH1 0x6 SLOAD DUP4 PUSH2 0x13FC JUMP JUMPDEST DIV DUP4 LT ISZERO SWAP1 DUP2 PUSH2 0x1895 JUMPI JUMPDEST POP PUSH2 0x1862 JUMPI POP POP POP JUMP JUMPDEST PUSH32 0x4788C192B43B1EAA29D531808A78165D3487D939B8246058F5AD10D22FC2BD0D SWAP2 DUP2 MLOAD SWAP4 DUP5 MSTORE PUSH1 0x20 DUP5 ADD MSTORE PUSH1 0x80 MLOAD SWAP3 LOG2 JUMP JUMPDEST SWAP1 POP ISZERO ISZERO CODESIZE PUSH2 0x1858 JUMP JUMPDEST ADD MLOAD SWAP1 POP CODESIZE DUP1 PUSH2 0x630 JUMP JUMPDEST SWAP1 DUP4 PUSH1 0x0 MSTORE DUP1 PUSH1 0x0 KECCAK256 SWAP2 PUSH1 0x0 JUMPDEST PUSH1 0x1F NOT DUP6 AND DUP2 LT PUSH2 0x192A JUMPI POP SWAP4 PUSH1 0x1 DUP5 PUSH1 0xA0 SWAP5 PUSH2 0x181D SWAP11 SWAP9 SWAP5 PUSH32 0x4164D38FCC30943A577283F30908D604D84A89A2E856B65B3329632355355805 SWAP15 SWAP14 SWAP13 SWAP11 SWAP9 PUSH1 0x4 SWAP9 PUSH1 0x1F NOT DUP2 AND LT PUSH2 0x1911 JUMPI JUMPDEST POP POP POP DUP2 SHL ADD SWAP1 SSTORE PUSH2 0x17BA JUMP JUMPDEST ADD MLOAD PUSH1 0x0 NOT PUSH1 0xF8 DUP5 PUSH1 0x3 SHL AND SHR NOT AND SWAP1 SSTORE CODESIZE DUP1 DUP1 PUSH2 0x1904 JUMP JUMPDEST SWAP2 SWAP3 PUSH1 0x20 PUSH1 0x1 DUP2 SWAP3 DUP7 DUP6 ADD MLOAD DUP2 SSTORE ADD SWAP5 ADD SWAP3 ADD PUSH2 0x18B7 JUMP JUMPDEST SWAP1 PUSH1 0x1F NOT DUP4 AND SWAP2 DUP5 PUSH1 0x0 MSTORE DUP2 PUSH1 0x0 KECCAK256 SWAP3 PUSH1 0x0 JUMPDEST DUP2 DUP2 LT PUSH2 0x1991 JUMPI POP SWAP1 DUP5 PUSH1 0x1 SWAP6 SWAP5 SWAP4 SWAP3 LT PUSH2 0x1978 JUMPI JUMPDEST POP POP POP DUP2 SHL ADD SWAP1 SSTORE PUSH2 0x1733 JUMP JUMPDEST ADD MLOAD PUSH1 0x0 NOT PUSH1 0xF8 DUP5 PUSH1 0x3 SHL AND SHR NOT AND SWAP1 SSTORE CODESIZE DUP1 DUP1 PUSH2 0x196B JUMP JUMPDEST SWAP3 SWAP4 PUSH1 0x20 PUSH1 0x1 DUP2 SWAP3 DUP8 DUP7 ADD MLOAD DUP2 SSTORE ADD SWAP6 ADD SWAP4 ADD PUSH2 0x1955 JUMP JUMPDEST PUSH4 0x4E487B71 PUSH1 0xE0 SHL PUSH1 0x0 MSTORE PUSH1 0x0 PUSH1 0x4 MSTORE PUSH1 0x24 PUSH1 0x0 REVERT JUMPDEST ADD CALLDATALOAD SWAP1 POP CODESIZE DUP1 PUSH2 0x630 JUMP JUMPDEST DUP4 DUP3 MSTORE PUSH1 0x20 DUP3 KECCAK256 SWAP2 PUSH1 0x1F NOT DUP5 AND DUP2 JUMPDEST DUP2 DUP2 LT PUSH2 0x1A16 JUMPI POP SWAP1 DUP5 PUSH1 0x1 SWAP6 SWAP5 SWAP4 SWAP3 LT PUSH2 0x19FC JUMPI JUMPDEST POP POP POP DUP2 SHL ADD SWAP1 SSTORE PUSH2 0x162E JUMP JUMPDEST ADD CALLDATALOAD PUSH1 0x0 NOT PUSH1 0x3 DUP5 SWAP1 SHL PUSH1 0xF8 AND SHR NOT AND SWAP1 SSTORE CODESIZE DUP1 DUP1 PUSH2 0x19EF JUMP JUMPDEST SWAP2 SWAP4 PUSH1 0x20 PUSH1 0x1 DUP2 SWAP3 DUP8 DUP8 ADD CALLDATALOAD DUP2 SSTORE ADD SWAP6 ADD SWAP3 ADD PUSH2 0x19D9 JUMP JUMPDEST SWAP3 PUSH2 0xAF0 SWAP4 PUSH1 0x80 MLOAD PUSH2 0x1E8A JUMP JUMPDEST POP PUSH2 0xAF0 SWAP3 DUP10 PUSH1 0x80 MLOAD PUSH2 0x1E8A JUMP JUMPDEST SWAP1 SWAP2 POP RETURNDATASIZE DUP1 DUP4 DUP4 RETURNDATACOPY PUSH2 0x1A5B DUP2 DUP4 PUSH2 0x10AB JUMP JUMPDEST DUP2 ADD SWAP2 PUSH1 0x40 DUP3 DUP5 SUB SLT PUSH2 0x1AD4 JUMPI DUP2 MLOAD SWAP2 DUP3 ISZERO ISZERO DUP4 SUB PUSH2 0x1AD7 JUMPI PUSH1 0x20 DUP2 ADD MLOAD SWAP1 PUSH1 0x1 PUSH1 0x1 PUSH1 0x40 SHL SUB DUP3 GT PUSH2 0x1ADB JUMPI ADD DUP4 PUSH1 0x1F DUP3 ADD SLT ISZERO PUSH2 0x1AD7 JUMPI DUP1 MLOAD SWAP2 PUSH2 0x1AA0 DUP4 PUSH2 0x10CC JUMP JUMPDEST SWAP5 PUSH2 0x1AAE PUSH1 0x40 MLOAD SWAP7 DUP8 PUSH2 0x10AB JUMP JUMPDEST DUP4 DUP7 MSTORE PUSH1 0x20 DUP5 DUP5 ADD ADD GT PUSH2 0x1AD4 JUMPI POP SWAP1 PUSH2 0x1ACE SWAP2 PUSH1 0x20 DUP1 DUP7 ADD SWAP2 ADD PUSH2 0xF04 JUMP JUMPDEST CODESIZE PUSH2 0x1575 JUMP JUMPDEST DUP1 REVERT JUMPDEST POP DUP1 REVERT JUMPDEST DUP3 DUP1 REVERT JUMPDEST PUSH1 0x40 MLOAD RETURNDATASIZE PUSH1 0x0 DUP3 RETURNDATACOPY RETURNDATASIZE SWAP1 REVERT JUMPDEST PUSH4 0xC5723B51 PUSH1 0xE0 SHL PUSH1 0x0 MSTORE PUSH1 0x4 PUSH1 0x0 REVERT JUMPDEST SWAP1 PUSH1 0x3 SLOAD SWAP2 DUP3 ISZERO PUSH2 0x11AC JUMPI PUSH1 0x0 MSTORE PUSH1 0x5 PUSH1 0x20 MSTORE PUSH1 0x40 PUSH1 0x0 KECCAK256 SWAP1 ISZERO ISZERO PUSH1 0x0 MSTORE PUSH1 0x20 MSTORE PUSH1 0x64 PUSH2 0x1B32 PUSH1 0x40 PUSH1 0x0 KECCAK256 SLOAD SWAP3 PUSH1 0x6 SLOAD SWAP1 PUSH2 0x13FC JUMP JUMPDEST DIV GT ISZERO SWAP1 JUMP JUMPDEST SWAP2 SWAP1 DUP3 PUSH1 0x0 MSTORE PUSH1 0x0 PUSH1 0x20 MSTORE PUSH1 0x40 PUSH1 0x0 KECCAK256 SWAP2 PUSH1 0x1 DUP1 PUSH1 0xA0 SHL SUB PUSH1 0x1 DUP5 ADD SLOAD AND ISZERO PUSH2 0x1AEB JUMPI PUSH1 0x3 DUP4 ADD SWAP2 DUP3 SLOAD SWAP4 PUSH1 0xFF DUP6 AND PUSH2 0x14D7 JUMPI PUSH2 0x1B75 DUP3 DUP8 PUSH2 0x1AFC JUMP JUMPDEST ISZERO PUSH2 0xAF0 JUMPI PUSH1 0x20 SWAP4 PUSH1 0x40 MLOAD PUSH2 0x1B8A DUP7 DUP3 PUSH2 0x10AB JUMP JUMPDEST PUSH1 0x0 DUP2 MSTORE SWAP6 DUP8 PUSH1 0x0 MSTORE PUSH1 0x4 DUP7 MSTORE PUSH1 0x40 PUSH1 0x0 KECCAK256 SLOAD PUSH2 0x1E38 JUMPI JUMPDEST PUSH1 0xFF NOT AND PUSH1 0x1 OR SWAP1 SSTORE DUP5 MLOAD PUSH1 0x4 DUP3 ADD SWAP1 PUSH1 0x1 PUSH1 0x1 PUSH1 0x40 SHL SUB DUP2 GT PUSH2 0x80E JUMPI PUSH2 0x1BD4 DUP2 PUSH2 0x1BCE DUP5 SLOAD PUSH2 0xFB8 JUMP JUMPDEST DUP5 PUSH2 0x1389 JUMP JUMPDEST DUP6 PUSH1 0x1F DUP3 GT PUSH1 0x1 EQ PUSH2 0x1DCF JUMPI DUP2 PUSH1 0x6 SWAP5 SWAP4 SWAP3 PUSH2 0x1C06 SWAP3 PUSH1 0x0 SWAP2 PUSH2 0x1DC4 JUMPI JUMPDEST POP DUP2 PUSH1 0x1 SHL SWAP2 PUSH1 0x0 NOT SWAP1 PUSH1 0x3 SHL SHR NOT AND OR SWAP1 JUMP JUMPDEST SWAP1 SSTORE JUMPDEST PUSH2 0x1C22 DUP4 PUSH1 0x5 DUP4 ADD SWAP1 PUSH1 0xFF DUP1 NOT DUP4 SLOAD AND SWAP2 ISZERO ISZERO AND OR SWAP1 SSTORE JUMP JUMPDEST ADD DUP3 MLOAD PUSH1 0x1 PUSH1 0x1 PUSH1 0x40 SHL SUB DUP2 GT PUSH2 0x80E JUMPI PUSH2 0x1C41 DUP2 PUSH2 0x1BCE DUP5 SLOAD PUSH2 0xFB8 JUMP JUMPDEST DUP5 PUSH1 0x1F DUP3 GT PUSH1 0x1 EQ PUSH2 0x1D35 JUMPI SWAP3 PUSH2 0x1D14 SWAP6 SWAP3 PUSH2 0x1C9A DUP4 PUSH32 0x89B763933EFE68C9FB105BE2523D43AFBB04F27B42BDA7793A30BB6AE16BC4FF SWAP10 SWAP8 SWAP5 PUSH2 0x1D25 SWAP8 PUSH1 0x0 SWAP2 PUSH2 0x1D2A JUMPI POP DUP2 PUSH1 0x1 SHL SWAP2 PUSH1 0x0 NOT SWAP1 PUSH1 0x3 SHL SHR NOT AND OR SWAP1 JUMP JUMPDEST SWAP1 SSTORE JUMPDEST DUP8 PUSH1 0x0 MSTORE PUSH1 0x5 DUP4 MSTORE PUSH1 0x40 PUSH1 0x0 KECCAK256 SWAP1 ISZERO ISZERO SWAP1 DUP2 PUSH1 0x0 MSTORE DUP4 MSTORE DUP8 PUSH32 0x62C5313AC9057B028C77D3D71A8BC78681AB575A0CAB56A1FEF1E7484CD6B48D PUSH1 0x40 PUSH1 0x0 KECCAK256 SLOAD PUSH1 0x40 MLOAD DUP1 SWAP2 DUP6 DUP3 MSTORE PUSH1 0x60 DUP9 DUP4 ADD MSTORE PUSH2 0x1CF7 PUSH1 0x60 DUP4 ADD DUP9 PUSH2 0xF27 JUMP JUMPDEST SWAP1 PUSH1 0x40 DUP4 ADD MSTORE SUB SWAP1 LOG2 PUSH1 0x40 MLOAD SWAP6 DUP7 SWAP6 PUSH1 0x60 DUP8 MSTORE PUSH1 0x60 DUP8 ADD SWAP1 PUSH2 0xF27 JUMP JUMPDEST SWAP3 DUP6 ADD MSTORE DUP4 DUP3 SUB PUSH1 0x40 DUP6 ADD MSTORE PUSH2 0xF27 JUMP JUMPDEST SUB SWAP1 LOG2 JUMP JUMPDEST SWAP1 POP DUP6 ADD MLOAD CODESIZE PUSH2 0x1BF2 JUMP JUMPDEST PUSH1 0x1F NOT DUP3 AND SWAP1 DUP4 PUSH1 0x0 MSTORE DUP7 PUSH1 0x0 KECCAK256 SWAP2 PUSH1 0x0 JUMPDEST DUP2 DUP2 LT PUSH2 0x1DAD JUMPI POP DUP4 PUSH2 0x1D25 SWAP7 SWAP4 PUSH2 0x1D14 SWAP10 SWAP7 SWAP4 PUSH32 0x89B763933EFE68C9FB105BE2523D43AFBB04F27B42BDA7793A30BB6AE16BC4FF SWAP12 SWAP10 SWAP7 PUSH1 0x1 SWAP5 LT PUSH2 0x1D94 JUMPI JUMPDEST POP POP DUP2 SHL ADD SWAP1 SSTORE PUSH2 0x1C9D JUMP JUMPDEST DUP7 ADD MLOAD PUSH1 0x0 NOT PUSH1 0xF8 DUP5 PUSH1 0x3 SHL AND SHR NOT AND SWAP1 SSTORE CODESIZE DUP1 PUSH2 0x1D88 JUMP JUMPDEST SWAP2 SWAP3 DUP9 PUSH1 0x1 DUP2 SWAP3 DUP7 DUP12 ADD MLOAD DUP2 SSTORE ADD SWAP5 ADD SWAP3 ADD PUSH2 0x1D47 JUMP JUMPDEST SWAP1 POP DUP10 ADD MLOAD CODESIZE PUSH2 0x1BF2 JUMP JUMPDEST PUSH1 0x1F NOT DUP3 AND SWAP1 DUP4 PUSH1 0x0 MSTORE DUP8 PUSH1 0x0 KECCAK256 SWAP2 PUSH1 0x0 JUMPDEST DUP10 DUP12 DUP4 DUP4 LT PUSH2 0x1E23 JUMPI POP POP POP SWAP2 DUP4 SWAP2 PUSH1 0x6 SWAP7 SWAP6 SWAP5 PUSH1 0x1 SWAP5 LT PUSH2 0x1E0A JUMPI JUMPDEST POP POP DUP2 SHL ADD SWAP1 SSTORE PUSH2 0x1C09 JUMP JUMPDEST DUP11 ADD MLOAD PUSH1 0x0 NOT PUSH1 0xF8 DUP5 PUSH1 0x3 SHL AND SHR NOT AND SWAP1 SSTORE CODESIZE DUP1 PUSH2 0x1DFE JUMP JUMPDEST DUP5 ADD MLOAD DUP6 SSTORE PUSH1 0x1 SWAP1 SWAP5 ADD SWAP4 SWAP3 DUP4 ADD SWAP3 ADD PUSH2 0x1DE1 JUMP JUMPDEST SWAP6 POP DUP7 PUSH1 0x0 MSTORE PUSH1 0x4 DUP6 MSTORE PUSH1 0x40 PUSH1 0x0 KECCAK256 PUSH1 0x0 SWAP1 DUP1 SLOAD ISZERO PUSH2 0x1E76 JUMPI PUSH2 0x1E6E DUP8 DUP4 PUSH1 0x1 SWAP5 SWAP4 DUP6 SWAP5 MSTORE KECCAK256 PUSH2 0x190 PUSH1 0x40 MLOAD DUP1 SWAP5 DUP2 SWAP4 ADD PUSH2 0xFF2 JUMP JUMPDEST SWAP7 SWAP1 POP PUSH2 0x1BA2 JUMP JUMPDEST PUSH4 0x4E487B71 PUSH1 0xE0 SHL DUP3 MSTORE PUSH1 0x32 PUSH1 0x4 MSTORE PUSH1 0x24 DUP3 REVERT JUMPDEST SWAP2 SWAP5 SWAP4 SWAP3 SWAP1 SWAP3 PUSH1 0x0 SWAP4 PUSH1 0x1 DUP1 PUSH1 0xA0 SHL SUB AND SWAP4 DUP5 DUP2 MSTORE PUSH1 0x2 PUSH1 0x20 MSTORE DUP1 PUSH1 0x40 DUP2 KECCAK256 SSTORE PUSH2 0x1EB6 DUP8 PUSH1 0x3 SLOAD PUSH2 0xF88 JUMP JUMPDEST PUSH1 0x3 SSTORE PUSH1 0x40 MLOAD PUSH4 0x991D881 PUSH1 0xE2 SHL DUP2 MSTORE PUSH1 0x4 DUP2 ADD DUP7 SWAP1 MSTORE PUSH32 0x0 PUSH1 0x1 PUSH1 0x1 PUSH1 0xA0 SHL SUB AND SWAP1 PUSH1 0x20 DUP2 PUSH1 0x24 DUP2 DUP6 GAS STATICCALL SWAP1 DUP2 ISZERO PUSH2 0x2025 JUMPI DUP4 SWAP2 PUSH2 0x1FF3 JUMPI JUMPDEST POP DUP1 PUSH2 0x1F5B JUMPI JUMPDEST POP POP POP PUSH32 0xAFFD8B9FFB2058F05FE3E1C643891491B6253AABE27BF992F581214AE071ABCC SWAP3 SWAP4 SWAP5 SWAP6 POP PUSH2 0x1F56 PUSH1 0x40 MLOAD SWAP3 DUP4 SWAP3 PUSH1 0x20 DUP5 MSTORE PUSH1 0x20 DUP5 ADD SWAP2 PUSH2 0x13DB JUMP JUMPDEST SUB SWAP1 LOG3 JUMP JUMPDEST DUP3 SWAP9 DUP2 DUP2 GT PUSH1 0x0 EQ PUSH2 0x1FEB JUMPI POP SWAP1 JUMPDEST DUP1 EXTCODESIZE ISZERO PUSH2 0x1ADB JUMPI PUSH1 0x44 DUP4 SWAP3 PUSH1 0x40 MLOAD SWAP11 DUP12 SWAP4 DUP5 SWAP3 PUSH4 0x2FB4D85 PUSH1 0xE0 SHL DUP5 MSTORE DUP12 PUSH1 0x4 DUP6 ADD MSTORE PUSH1 0x24 DUP5 ADD MSTORE GAS CALL SWAP7 DUP8 ISZERO PUSH2 0x1FDE JUMPI PUSH32 0xAFFD8B9FFB2058F05FE3E1C643891491B6253AABE27BF992F581214AE071ABCC SWAP5 SWAP6 SWAP7 SWAP8 PUSH2 0x1FCE JUMPI JUMPDEST DUP8 SWAP7 SWAP6 SWAP5 PUSH2 0x1F16 JUMP JUMPDEST DUP2 PUSH2 0x1FD8 SWAP2 PUSH2 0x10AB JUMP JUMPDEST CODESIZE PUSH2 0x1FC5 JUMP JUMPDEST POP PUSH1 0x40 MLOAD SWAP1 RETURNDATASIZE SWAP1 DUP3 RETURNDATACOPY RETURNDATASIZE SWAP1 REVERT JUMPDEST SWAP1 POP SWAP1 PUSH2 0x1F6A JUMP JUMPDEST SWAP1 POP PUSH1 0x20 DUP2 RETURNDATASIZE PUSH1 0x20 GT PUSH2 0x201D JUMPI JUMPDEST DUP2 PUSH2 0x200E PUSH1 0x20 SWAP4 DUP4 PUSH2 0x10AB JUMP JUMPDEST DUP2 ADD SUB SLT PUSH2 0x1ADB JUMPI MLOAD CODESIZE PUSH2 0x1F0F JUMP JUMPDEST RETURNDATASIZE SWAP2 POP PUSH2 0x2001 JUMP JUMPDEST PUSH1 0x40 MLOAD RETURNDATASIZE DUP6 DUP3 RETURNDATACOPY RETURNDATASIZE SWAP1 REVERT INVALID LOG2 PUSH5 0x6970667358 0x22 SLT KECCAK256 SWAP5 0xB8 0xEB STOP DUP8 0xCE 0xAD SGT MSIZE NOT MLOAD 0xE1 MSTORE8 EQ PUSH10 0xD1B7B281456F3936F65C STATICCALL DUP16 0xF7 0xA9 0xFB 0xBA 0xDC PUSH5 0x736F6C6343 STOP ADDMOD BYTE STOP CALLER "},"methodIdentifiers":{"admin()":"f851a440","avsNodes(address)":"f1d1b381","eigenVerify()":"2e52ec8b","finalizeResolution(bytes32,bool,bytes)":"9378c8fa","fulfillVerification(bytes32,bytes,bool,bytes)":"285b80a2","getAttestations(bytes32)":"37e59e36","getFulfillment(bytes32)":"96c59cc1","getProof(bytes32,address)":"276d6526","getProofHash(bytes32,address)":"2af002e8","getQuorumStatus(bytes32)":"c09fff13","getRequest(bytes32)":"fb1e61ca","operatorWeights(address)":"b457c25a","quorumThreshold()":"7b7a91dd","requestVerification(bytes32,bytes)":"a4e132bc","setAVSNode(address,bool)":"f7c226da","setOperatorWeight(address,uint256)":"0e6b1110","setQuorumThreshold(uint256)":"4524c7e1","slashing()":"ca31fb9f","submitAttestation(bytes32,bool,bytes,bytes,bytes)":"4949136f","totalOperatorWeight()":"c5e9a279"}}}}}