{"contracts/market/MarketFactory.sol":{"MarketFactory":{"abi":[{"inputs":[{"internalType":"address","name":"admin_","type":"address"},{"internalType":"address","name":"oracle_","type":"address"},{"internalType":"address","name":"feeRecipient_","type":"address"},{"internalType":"uint256","name":"flatFee_","type":"uint256"}],"stateMutability":"nonpayable","type":"constructor"},{"inputs":[],"name":"InvalidFee","type":"error"},{"inputs":[],"name":"InvalidParameter","type":"error"},{"inputs":[],"name":"InvalidTime","type":"error"},{"inputs":[],"name":"OnlyAdmin","type":"error"},{"inputs":[],"name":"ZeroAddress","type":"error"},{"anonymous":false,"inputs":[{"indexed":false,"internalType":"address","name":"admin","type":"address"}],"name":"AdminUpdated","type":"event"},{"anonymous":false,"inputs":[{"indexed":false,"internalType":"address","name":"recipient","type":"address"}],"name":"FeeRecipientUpdated","type":"event"},{"anonymous":false,"inputs":[{"indexed":false,"internalType":"uint256","name":"amount","type":"uint256"}],"name":"FlatFeeUpdated","type":"event"},{"anonymous":false,"inputs":[{"indexed":true,"internalType":"bytes32","name":"marketId","type":"bytes32"},{"indexed":false,"internalType":"address","name":"market","type":"address"},{"indexed":false,"internalType":"address","name":"vault","type":"address"},{"indexed":false,"internalType":"string","name":"question","type":"string"},{"indexed":false,"internalType":"uint256","name":"endTime","type":"uint256"},{"indexed":false,"internalType":"uint16","name":"feeBps","type":"uint16"},{"indexed":false,"internalType":"uint256","name":"flatFee","type":"uint256"},{"indexed":false,"internalType":"address","name":"feeRecipient","type":"address"}],"name":"MarketDeployed","type":"event"},{"anonymous":false,"inputs":[{"indexed":false,"internalType":"address","name":"oracle","type":"address"}],"name":"OracleUpdated","type":"event"},{"inputs":[],"name":"admin","outputs":[{"internalType":"address","name":"","type":"address"}],"stateMutability":"view","type":"function"},{"inputs":[{"internalType":"address","name":"creator","type":"address"},{"internalType":"string","name":"question","type":"string"},{"internalType":"uint256","name":"endTime","type":"uint256"}],"name":"computeMarketId","outputs":[{"internalType":"bytes32","name":"","type":"bytes32"}],"stateMutability":"pure","type":"function"},{"inputs":[{"internalType":"address","name":"collateral","type":"address"},{"internalType":"string","name":"question","type":"string"},{"internalType":"uint256","name":"endTime","type":"uint256"},{"internalType":"uint16","name":"feeBps","type":"uint16"}],"name":"createMarket","outputs":[{"internalType":"address","name":"market","type":"address"},{"internalType":"address","name":"vault","type":"address"}],"stateMutability":"nonpayable","type":"function"},{"inputs":[{"internalType":"address","name":"collateral_","type":"address"},{"internalType":"string","name":"question_","type":"string"},{"internalType":"uint256","name":"endTime_","type":"uint256"},{"internalType":"uint16","name":"feeBps_","type":"uint16"},{"internalType":"address","name":"oracle_","type":"address"}],"name":"createMarketWithOracle","outputs":[{"internalType":"address","name":"market","type":"address"},{"internalType":"address","name":"vault","type":"address"}],"stateMutability":"nonpayable","type":"function"},{"inputs":[],"name":"feeRecipient","outputs":[{"internalType":"address","name":"","type":"address"}],"stateMutability":"view","type":"function"},{"inputs":[],"name":"flatFee","outputs":[{"internalType":"uint256","name":"","type":"uint256"}],"stateMutability":"view","type":"function"},{"inputs":[],"name":"oracle","outputs":[{"internalType":"address","name":"","type":"address"}],"stateMutability":"view","type":"function"},{"inputs":[{"internalType":"address","name":"admin_","type":"address"}],"name":"setAdmin","outputs":[],"stateMutability":"nonpayable","type":"function"},{"inputs":[{"internalType":"address","name":"recipient","type":"address"}],"name":"setFeeRecipient","outputs":[],"stateMutability":"nonpayable","type":"function"},{"inputs":[{"internalType":"uint256","name":"amount","type":"uint256"}],"name":"setFlatFee","outputs":[],"stateMutability":"nonpayable","type":"function"},{"inputs":[{"internalType":"address","name":"oracle_","type":"address"}],"name":"setOracle","outputs":[],"stateMutability":"nonpayable","type":"function"}],"evm":{"bytecode":{"linkReferences":{},"object":"60803461010357601f61250e38819003918201601f19168301916001600160401b0383118484101761010857808492608094604052833981010312610103576100478161011e565b906100546020820161011e565b60606100626040840161011e565b920151926001600160a01b0316801580156100f2575b80156100e1575b6100d057600080546001600160a01b03199081169290921790556001805482166001600160a01b0393841617905560028054909116929091169190911790556003556040516123db90816101338239f35b63d92e233d60e01b60005260046000fd5b506001600160a01b0383161561007f565b506001600160a01b03821615610078565b600080fd5b634e487b7160e01b600052604160045260246000fd5b51906001600160a01b03821682036101035756fe608080604052600436101561001357600080fd5b60003560e01c90816323fa495a146104005750806343ca9fe9146103a15780634690484014610378578063704b6c02146102fe5780637adbf9731461027e5780637dc0d1d0146102555780637df66f76146101d6578063b9dc645614610186578063d9eb594714610168578063e74b981b146100c65763f851a4401461009857600080fd5b346100c15760003660031901126100c1576000546040516001600160a01b039091168152602090f35b600080fd5b346100c15760203660031901126100c1576100df610455565b6000546001600160a01b03163303610157576001600160a01b03168015610146576020817f7a7b5a0a132f9e0581eb8527f66eae9ee89c2a3e79d4ac7e41a1f1f4d48a7fc2926bffffffffffffffffffffffff60a01b6002541617600255604051908152a1005b63d92e233d60e01b60005260046000fd5b634755657960e01b60005260046000fd5b346100c15760003660031901126100c1576020600354604051908152f35b346100c15760603660031901126100c15761019f610455565b60243567ffffffffffffffff81116100c1576020916101c56101ce9236906004016104a3565b604435916107d0565b604051908152f35b346100c15760a03660031901126100c1576101ef610455565b60243567ffffffffffffffff81116100c15761020f9036906004016104a3565b906102186104fa565b608435916001600160a01b03831683036100c157610239936044359161054c565b604080516001600160a01b039384168152919092166020820152f35b346100c15760003660031901126100c1576001546040516001600160a01b039091168152602090f35b346100c15760203660031901126100c157610297610455565b6000546001600160a01b03163303610157576001600160a01b03168015610146576020817f3df77beb5db05fcdd70a30fc8adf3f83f9501b68579455adbd100b8180940394926bffffffffffffffffffffffff60a01b6001541617600155604051908152a1005b346100c15760203660031901126100c157610317610455565b600054906001600160a01b0382163303610157576001600160a01b0316908115610146576001600160a01b03191681176000556040519081527f54e4612788f90384e6843298d7854436f3a585b2c3831ab66abf1de63bfa6c2d90602090a1005b346100c15760003660031901126100c1576002546040516001600160a01b039091168152602090f35b346100c15760803660031901126100c1576103ba610455565b6024359067ffffffffffffffff82116100c1576103de6102399236906004016104a3565b906103e76104fa565b6001546001600160a01b0316929091604435919061054c565b346100c15760203660031901126100c157600054600435906001600160a01b03163303610157577f2dfc898b3677e9a8db0ccd358b29e83d409f092f876498f4cf135d707165f85f91816020926003558152a1005b600435906001600160a01b03821682036100c157565b90601f8019910116810190811067ffffffffffffffff82111761048d57604052565b634e487b7160e01b600052604160045260246000fd5b81601f820112156100c15780359067ffffffffffffffff821161048d57604051926104d8601f8401601f19166020018561046b565b828452602083830101116100c157816000926020809301838601378301015290565b6064359061ffff821682036100c157565b919082519283825260005b848110610537575050826000602080949584010152601f8019910116010190565b80602080928401015182828601015201610516565b6000956001600160a01b03909116949093909290851561078f578251156107c157428211156107b25761ffff169261271084116107a3576001600160a01b03811661079e57506001546001600160a01b03165b6001600160a01b031692831561078f576105ba8284336107d0565b9360405161058e8082019082821067ffffffffffffffff83111761077b576020918391611e1883398a815203019089f08015610770576003546002546040516001600160a01b039384169a90949293909116916115fe808601929086841067ffffffffffffffff85111761075c579186959493916101209361081a8839825260208201523060408201528b606082015289608082015261014060a082015261066661014082018a61050b565b938860c08301528760e08301526101008201520152039088f08015610751576001600160a01b031696863b1561074e57604051636dcea85f60e01b8152600481018990528181602481838c5af1801561074357917f15d034aa4180a2237eb2516715047323453e9af21d2e5d59705c80f163d046fc9593916107199593610733575b505060035460018060a01b0360025416916040519586958c87528b602088015260e0604088015260e087019061050b565b936060860152608085015260a084015260c08301520390a2565b8161073d9161046b565b386106e8565b6040513d84823e3d90fd5b80fd5b6040513d89823e3d90fd5b634e487b7160e01b8e52604160045260248efd5b6040513d8a823e3d90fd5b634e487b7160e01b8b52604160045260248bfd5b63d92e233d60e01b8752600487fd5b61059f565b6358d620b360e01b8752600487fd5b6337bf561360e11b8752600487fd5b630309cb8760e51b8752600487fd5b916107ff9161081391604051938492602084019660018060a01b0316875260606040850152608084019061050b565b90606083015203601f19810183528261046b565b5190209056fe61012060405234610469576115fe8038038061001a8161046e565b928339810190610140818303126104695761003481610493565b9061004160208201610493565b9261004e60408301610493565b61005a60608401610493565b9360808401519360a081015160018060401b0381116104695781019484601f87011215610469578551956001600160401b0387116103dc576100a5601f8801601f191660200161046e565b96808852602088019660208284010111610469578660206100c693016104a7565b60c08201519660e08301519861ffff8a16809a03610469576100f16101206101008601519501610493565b60016000819055805460ff191690556001600160a01b039095169485158015610458575b8015610447575b8015610436575b6103f25788511561042557428a1115610414576127108b11610403576001600160a01b03169485156103f2576080526001600160a01b0390811660a081905260c0969096521660e052610100528451966001600160401b0388116103dc57600254600181811c911680156103d2575b60208210146103bc57601f8111610357575b50602097601f81116001146102d757916080959391836102329896946000805160206115de8339815191529a9b6000916102cc575b508160011b916000199060031b1c1916176002555b8960035561ffff19600454161760045560055560018060a81b03196006541617600655610100519660405195869460608652518094816060880152878701906104a7565b60208401526040830152601f01601f19168101030190a260405161111390816104cb82396080518161063a015260a05181818161088401528181610a720152610c16015260c0518181816103d70152818161067f0152610cf4015260e051818181610133015281816101f301528181610495015261073701526101005181818161085601528181610ac101528181610b880152610c5d0152f35b9050870151386101d9565b601f1981166002600052896000209060005b81811061033f5750826080989694926000805160206115de8339815191529b9c6102329b99979560019410610326575b5050811b016002556101ee565b89015160001960f88460031b161c191690553880610319565b898c0151835560209b8c019b600190930192016102e9565b60026000527f405787fa12a823e0f2b7631cc41b3ba8828b3321ca811111fa75cd3aa3bb5ace601f8a0160051c81019160208b106103b2575b601f0160051c01905b8181106103a657506101a4565b60008155600101610399565b9091508190610390565b634e487b7160e01b600052602260045260246000fd5b90607f1690610192565b634e487b7160e01b600052604160045260246000fd5b63d92e233d60e01b60005260046000fd5b6358d620b360e01b60005260046000fd5b6337bf561360e11b60005260046000fd5b630309cb8760e51b60005260046000fd5b506001600160a01b03831615610123565b506001600160a01b0387161561011c565b506001600160a01b03821615610115565b600080fd5b6040519190601f01601f191682016001600160401b038111838210176103dc57604052565b51906001600160a01b038216820361046957565b60005b8381106104ba5750506000910152565b81810151838201526020016104aa56fe608080604052600436101561001357600080fd5b600090813560e01c9081630bedd40914610f0757508063200d2ed214610ed857806324a9d85314610eb657806327793f8714610e925780633197cbb614610e745780633fad9ae014610d635780634690484014610d3a5780634805a34a14610ce057806348dba54e14610ca35780635c975abb14610c805780636ed71ede14610c455780637dc0d1d014610c0057806397a9895514610b4357806397bfff7714610a05578063bd3fb12f14610814578063be040fb0146106ae578063c45a015514610669578063d8dfeb4514610624578063d9eb594714610606578063e24c469b14610444578063f160d369146103ae578063f571c5f3146101655763fbfa77cf1461011e57600080fd5b346101625780600319360112610162576040517f00000000000000000000000000000000000000000000000000000000000000006001600160a01b03168152602090f35b80fd5b50346101625761017436610fc1565b61017c61106a565b60ff60065460a01c16600381101561039a5761038b5760035442101561038b57600554908181111561037c576101b2828261103a565b831561034c573385526007602052604085205482811061033d57826101d69161103a565b338652600760205260408620555b60065485906001600160a01b037f000000000000000000000000000000000000000000000000000000000000000081169116813b1561033957604051631290227360e21b81523360048201526001600160a01b0391909116602482015260448101869052828160648183865af190811561032e578391610319575b5050803b1561031557604051631290227360e21b815233600482018190526024820152604481018490529082908290606490829084905af1801561030a576102f1575b50506040805194151585526020850191909152830152606082015233907f69fd83406168ef35927190021ab940690b846cc0c13e3c76f0a74a83bdaddf9e9080608081015b0390a26001815580f35b816102fb91610f41565b6103065784386102a2565b8480fd5b6040513d84823e3d90fd5b5080fd5b8161032391610f41565b61031557813861025f565b6040513d85823e3d90fd5b8280fd5b631e9acf1760e31b8652600486fd5b3385526008602052604085205482811061033d578261036a9161103a565b338652600860205260408620556101e4565b630309cb8760e51b8452600484fd5b63e2c865df60e01b8352600483fd5b634e487b7160e01b84526021600452602484fd5b5034610162576020366003190112610162576004356001600160a01b03811690819003610315577f00000000000000000000000000000000000000000000000000000000000000006001600160a01b03163303610435578015610426576bffffffffffffffffffffffff60a01b600654161760065580f35b63d92e233d60e01b8252600482fd5b630636a15760e11b8252600482fd5b50346101625761045336610fc1565b61045b61106a565b60ff60065460a01c16600381101561039a5761038b5760035442101561038b57600554908181111561037c57610491828261103a565b90847f00000000000000000000000000000000000000000000000000000000000000006001600160a01b0316803b1561031557604051630ae61b7960e11b815233600482015260248101849052828160448183865af190811561032e5783916105f1575b50506006546001600160a01b031690803b1561033957604051631290227360e21b81523360048201526001600160a01b039290921660248301526044820186905282908290606490829084905af1801561030a576105dc575b50506102e77f69fd83406168ef35927190021ab940690b846cc0c13e3c76f0a74a83bdaddf9e93856000146105be5733875260076020526040872061059485825461105d565b90555b60405193849333978590949392606092608083019615158352602083015260408201520152565b3387526008602052604087206105d585825461105d565b9055610597565b816105e691610f41565b61030657843861054e565b816105fb91610f41565b6103155781386104f5565b50346101625780600319360112610162576020600554604051908152f35b50346101625780600319360112610162576040517f00000000000000000000000000000000000000000000000000000000000000006001600160a01b03168152602090f35b50346101625780600319360112610162576040517f00000000000000000000000000000000000000000000000000000000000000006001600160a01b03168152602090f35b50346101625780600319360112610162576106c761106a565b60065460ff8160a01c166003811015610800576002036107f15761070b9033835260076020526040832054338452600860205260ff60408520549260a81c166110c0565b80156107e257338252600760205281604081205533825260086020528160408120558160018060a01b037f000000000000000000000000000000000000000000000000000000000000000016803b1561031557604051631290227360e21b815233600482018190526024820152604481018490529082908290606490829084905af1801561030a576107cd575b50506040519081527f222838db2794d11532d940e8dec38ae307ed0b63cd97c233322e221f998767a660203392a26001815580f35b816107d791610f41565b610315578138610798565b630309cb8760e51b8252600482fd5b63174b639360e11b8252600482fd5b634e487b7160e01b83526021600452602483fd5b503461016257806003193601126101625761082d61106a565b60065460ff8160a01c166003811015610800576001036107e257604051632b7531e160e21b81527f0000000000000000000000000000000000000000000000000000000000000000600482018190529183826024817f00000000000000000000000000000000000000000000000000000000000000006001600160a01b03165afa80156109fa578485938692610980575b5015610971576020838051810103126103065760208301519160ff83169283810361096d576001841161095e5761ffff60a01b1990911660a89190911b60ff60a81b1617600160a11b176006556040519182526060602083018190527f2b17c9e611787445a3bcc13ee7cb1e211c6cd8b508850278cd1fa701d613302c9383926102e792909161095091850190610f9c565b908382036040850152610f9c565b630309cb8760e51b8752600487fd5b8680fd5b63174b639360e11b8552600485fd5b935050503d8085843e6109938184610f41565b82016060838203126103065782519283151584036109f657602081015167ffffffffffffffff811161096d57826109cb918301610fe5565b91604082015167ffffffffffffffff81116109f2576109ea9201610fe5565b9092386108be565b8780fd5b8580fd5b6040513d86823e3d90fd5b50346101625760203660031901126101625760043567ffffffffffffffff811161031557366023820112156103155780600401359067ffffffffffffffff82116103395736602483830101116103395760ff60065460a01c16600381101561039a57600103610b345782907f00000000000000000000000000000000000000000000000000000000000000006001600160a01b031690813b15610339578291602483606487946040519889968795869363b8fec5b560e01b85527f0000000000000000000000000000000000000000000000000000000000000000600486015260408286015282604486015201848401378181018301849052601f01601f191681010301925af18015610b2757610b195780f35b610b2291610f41565b388180f35b50604051903d90823e3d90fd5b630309cb8760e51b8352600483fd5b50346101625780600319360112610162576003544210610bf15760ff60065460a01c166003811015610bdd57610bce576006805460ff60a01b1916600160a01b1790557f00000000000000000000000000000000000000000000000000000000000000007ff0b26890989c7abe4fcbc3b91d347980cc1b29a59b4d5c2f7bfb99327bef84858280a280f35b630309cb8760e51b8152600490fd5b634e487b7160e01b82526021600452602482fd5b6308fd3d0560e01b8152600490fd5b50346101625780600319360112610162576040517f00000000000000000000000000000000000000000000000000000000000000006001600160a01b03168152602090f35b503461016257806003193601126101625760206040517f00000000000000000000000000000000000000000000000000000000000000008152f35b5034610162578060031936011261016257602060ff600154166040519015158152f35b5034610162576020366003190112610162576004356001600160a01b03811690819003610315578160409160209352600783522054604051908152f35b5034610162576020366003190112610162577f00000000000000000000000000000000000000000000000000000000000000006001600160a01b03163303610d2b5760043560055580f35b630636a15760e11b8152600490fd5b50346101625780600319360112610162576006546040516001600160a01b039091168152602090f35b50346101625780600319360112610162576040519080600254908160011c91600181168015610e6a575b602084108114610e5657838652908115610e2f5750600114610dd2575b610dce84610dba81860382610f41565b604051918291602083526020830190610f9c565b0390f35b600281527f405787fa12a823e0f2b7631cc41b3ba8828b3321ca811111fa75cd3aa3bb5ace939250905b808210610e1557509091508101602001610dba82610daa565b919260018160209254838588010152019101909291610dfc565b60ff191660208087019190915292151560051b85019092019250610dba9150839050610daa565b634e487b7160e01b83526022600452602483fd5b92607f1692610d8d565b50346101625780600319360112610162576020600354604051908152f35b5034610162578060031936011261016257602060ff60065460a81c16604051908152f35b5034610162578060031936011261016257602061ffff60045416604051908152f35b503461016257806003193601126101625760ff60065460a01c1660405190600381101561080057602092508152f35b905034610315576020366003190112610315576004356001600160a01b038116908190036103395782604091602094526008845220548152f35b90601f8019910116810190811067ffffffffffffffff821117610f6357604052565b634e487b7160e01b600052604160045260246000fd5b60005b838110610f8c5750506000910152565b8181015183820152602001610f7c565b90602091610fb581518092818552858086019101610f79565b601f01601f1916010190565b6040906003190112610fe0576004358015158103610fe0579060243590565b600080fd5b81601f82011215610fe057805167ffffffffffffffff8111610f635760405192611019601f8301601f191660200185610f41565b81845260208284010111610fe0576110379160208085019101610f79565b90565b9190820391821161104757565b634e487b7160e01b600052601160045260246000fd5b9190820180921161104757565b60026000541461107b576002600055565b60405162461bcd60e51b815260206004820152601f60248201527f5265656e7472616e637947756172643a207265656e7472616e742063616c6c006044820152606490fd5b60ff16806110cd57505090565b600191925014611037575060009056fea26469706673582212206abf19d5f70476d15c140520ccac8a5fdd8114c93e9116a5274cbe7f848d3f5964736f6c634300081a00336f32195b7d0d8b110adfb4d94d26620ec7319053a80302562d6dbbd62805ba9f60a034608b57601f61058e38819003918201601f19168301916001600160401b03831184841017609057808492602094604052833981010312608b57516001600160a01b03811690819003608b578015607a576080526040516104e790816100a782396080518181816082015281816101af01526103d90152f35b63d92e233d60e01b60005260046000fd5b600080fd5b634e487b7160e01b600052604160045260246000fdfe608080604052600436101561001357600080fd5b60003560e01c90816315cc36f214610368575080631aefb1071461032e5780634a4089cc1461024d5780634c109fd8146101505780636dcea85f146100df57806380f55605146100b65763d8dfeb451461006c57600080fd5b346100b15760003660031901126100b1576040517f00000000000000000000000000000000000000000000000000000000000000006001600160a01b03168152602090f35b600080fd5b346100b15760003660031901126100b1576000546040516001600160a01b039091168152602090f35b346100b15760203660031901126100b1576100f861044b565b6000549060ff8260a01c1661013f576001600160a01b0316801561012e576001600160a81b031990911617600160a01b17600055005b63d92e233d60e01b60005260046000fd5b630309cb8760e51b60005260046000fd5b346100b15760403660031901126100b15761016961044b565b6000546001600160a01b0316330361023c5760405163a9059cbb60e01b81526001600160a01b039091166004820152602480359082015260208180604481015b038160007f00000000000000000000000000000000000000000000000000000000000000006001600160a01b03165af190811561023057600091610201575b50156101f057005b6312171d8360e31b60005260046000fd5b610223915060203d602011610229575b61021b8183610461565b810190610499565b816101e8565b503d610211565b6040513d6000823e3d90fd5b639e0125a960e01b60005260046000fd5b346100b15760603660031901126100b15761026661044b565b602435906001600160a01b03821682036100b15760005460443591906001600160a01b0316330361023c57811561013f576001600160a01b03166000818152600160205260409020549290919081841061031d578184039384116103075760009283526001602090815260409384902094909455915163a9059cbb60e01b81526001600160a01b0390921660048301526024820152908180604481016101a9565b634e487b7160e01b600052601160045260246000fd5b633a23d82560e01b60005260046000fd5b346100b15760203660031901126100b1576001600160a01b0361034f61044b565b1660005260016020526020604060002054604051908152f35b346100b15760403660031901126100b15761038161044b565b6000546024359291906001600160a01b0316330361023c57821561013f576323b872dd60e01b82526001600160a01b0390811660048301819052306024840152604483018490529190602090829060649082906000907f0000000000000000000000000000000000000000000000000000000000000000165af19081156102305760009161042c575b50156101f0576000526001602052604060002080549182018092116103075755005b610445915060203d6020116102295761021b8183610461565b8361040a565b600435906001600160a01b03821682036100b157565b90601f8019910116810190811067ffffffffffffffff82111761048357604052565b634e487b7160e01b600052604160045260246000fd5b908160209103126100b1575180151581036100b1579056fea26469706673582212207058e27918cf68be1ef10c1e83c854b3e9fb09d8aed162f00831bb272cc10df864736f6c634300081a0033a26469706673582212208fa65d170c0c212fbe7845e00d838b9bf1220bc84644cc9e304d4066d1d1b30064736f6c634300081a0033","opcodes":"PUSH1 0x80 CALLVALUE PUSH2 0x103 JUMPI PUSH1 0x1F PUSH2 0x250E CODESIZE DUP2 SWAP1 SUB SWAP2 DUP3 ADD PUSH1 0x1F NOT AND DUP4 ADD SWAP2 PUSH1 0x1 PUSH1 0x1 PUSH1 0x40 SHL SUB DUP4 GT DUP5 DUP5 LT OR PUSH2 0x108 JUMPI DUP1 DUP5 SWAP3 PUSH1 0x80 SWAP5 PUSH1 0x40 MSTORE DUP4 CODECOPY DUP2 ADD SUB SLT PUSH2 0x103 JUMPI PUSH2 0x47 DUP2 PUSH2 0x11E JUMP JUMPDEST SWAP1 PUSH2 0x54 PUSH1 0x20 DUP3 ADD PUSH2 0x11E JUMP JUMPDEST PUSH1 0x60 PUSH2 0x62 PUSH1 0x40 DUP5 ADD PUSH2 0x11E JUMP JUMPDEST SWAP3 ADD MLOAD SWAP3 PUSH1 0x1 PUSH1 0x1 PUSH1 0xA0 SHL SUB AND DUP1 ISZERO DUP1 ISZERO PUSH2 0xF2 JUMPI JUMPDEST DUP1 ISZERO PUSH2 0xE1 JUMPI JUMPDEST PUSH2 0xD0 JUMPI PUSH1 0x0 DUP1 SLOAD PUSH1 0x1 PUSH1 0x1 PUSH1 0xA0 SHL SUB NOT SWAP1 DUP2 AND SWAP3 SWAP1 SWAP3 OR SWAP1 SSTORE PUSH1 0x1 DUP1 SLOAD DUP3 AND PUSH1 0x1 PUSH1 0x1 PUSH1 0xA0 SHL SUB SWAP4 DUP5 AND OR SWAP1 SSTORE PUSH1 0x2 DUP1 SLOAD SWAP1 SWAP2 AND SWAP3 SWAP1 SWAP2 AND SWAP2 SWAP1 SWAP2 OR SWAP1 SSTORE PUSH1 0x3 SSTORE PUSH1 0x40 MLOAD PUSH2 0x23DB SWAP1 DUP2 PUSH2 0x133 DUP3 CODECOPY RETURN JUMPDEST PUSH4 0xD92E233D PUSH1 0xE0 SHL PUSH1 0x0 MSTORE PUSH1 0x4 PUSH1 0x0 REVERT JUMPDEST POP PUSH1 0x1 PUSH1 0x1 PUSH1 0xA0 SHL SUB DUP4 AND ISZERO PUSH2 0x7F JUMP JUMPDEST POP PUSH1 0x1 PUSH1 0x1 PUSH1 0xA0 SHL SUB DUP3 AND ISZERO PUSH2 0x78 JUMP JUMPDEST PUSH1 0x0 DUP1 REVERT JUMPDEST PUSH4 0x4E487B71 PUSH1 0xE0 SHL PUSH1 0x0 MSTORE PUSH1 0x41 PUSH1 0x4 MSTORE PUSH1 0x24 PUSH1 0x0 REVERT JUMPDEST MLOAD SWAP1 PUSH1 0x1 PUSH1 0x1 PUSH1 0xA0 SHL SUB DUP3 AND DUP3 SUB PUSH2 0x103 JUMPI JUMP INVALID PUSH1 0x80 DUP1 PUSH1 0x40 MSTORE PUSH1 0x4 CALLDATASIZE LT ISZERO PUSH2 0x13 JUMPI PUSH1 0x0 DUP1 REVERT JUMPDEST PUSH1 0x0 CALLDATALOAD PUSH1 0xE0 SHR SWAP1 DUP2 PUSH4 0x23FA495A EQ PUSH2 0x400 JUMPI POP DUP1 PUSH4 0x43CA9FE9 EQ PUSH2 0x3A1 JUMPI DUP1 PUSH4 0x46904840 EQ PUSH2 0x378 JUMPI DUP1 PUSH4 0x704B6C02 EQ PUSH2 0x2FE JUMPI DUP1 PUSH4 0x7ADBF973 EQ PUSH2 0x27E JUMPI DUP1 PUSH4 0x7DC0D1D0 EQ PUSH2 0x255 JUMPI DUP1 PUSH4 0x7DF66F76 EQ PUSH2 0x1D6 JUMPI DUP1 PUSH4 0xB9DC6456 EQ PUSH2 0x186 JUMPI DUP1 PUSH4 0xD9EB5947 EQ PUSH2 0x168 JUMPI DUP1 PUSH4 0xE74B981B EQ PUSH2 0xC6 JUMPI PUSH4 0xF851A440 EQ PUSH2 0x98 JUMPI PUSH1 0x0 DUP1 REVERT JUMPDEST CALLVALUE PUSH2 0xC1 JUMPI PUSH1 0x0 CALLDATASIZE PUSH1 0x3 NOT ADD SLT PUSH2 0xC1 JUMPI PUSH1 0x0 SLOAD PUSH1 0x40 MLOAD PUSH1 0x1 PUSH1 0x1 PUSH1 0xA0 SHL SUB SWAP1 SWAP2 AND DUP2 MSTORE PUSH1 0x20 SWAP1 RETURN JUMPDEST PUSH1 0x0 DUP1 REVERT JUMPDEST CALLVALUE PUSH2 0xC1 JUMPI PUSH1 0x20 CALLDATASIZE PUSH1 0x3 NOT ADD SLT PUSH2 0xC1 JUMPI PUSH2 0xDF PUSH2 0x455 JUMP JUMPDEST PUSH1 0x0 SLOAD PUSH1 0x1 PUSH1 0x1 PUSH1 0xA0 SHL SUB AND CALLER SUB PUSH2 0x157 JUMPI PUSH1 0x1 PUSH1 0x1 PUSH1 0xA0 SHL SUB AND DUP1 ISZERO PUSH2 0x146 JUMPI PUSH1 0x20 DUP2 PUSH32 0x7A7B5A0A132F9E0581EB8527F66EAE9EE89C2A3E79D4AC7E41A1F1F4D48A7FC2 SWAP3 PUSH12 0xFFFFFFFFFFFFFFFFFFFFFFFF PUSH1 0xA0 SHL PUSH1 0x2 SLOAD AND OR PUSH1 0x2 SSTORE PUSH1 0x40 MLOAD SWAP1 DUP2 MSTORE LOG1 STOP JUMPDEST PUSH4 0xD92E233D PUSH1 0xE0 SHL PUSH1 0x0 MSTORE PUSH1 0x4 PUSH1 0x0 REVERT JUMPDEST PUSH4 0x47556579 PUSH1 0xE0 SHL PUSH1 0x0 MSTORE PUSH1 0x4 PUSH1 0x0 REVERT JUMPDEST CALLVALUE PUSH2 0xC1 JUMPI PUSH1 0x0 CALLDATASIZE PUSH1 0x3 NOT ADD SLT PUSH2 0xC1 JUMPI PUSH1 0x20 PUSH1 0x3 SLOAD PUSH1 0x40 MLOAD SWAP1 DUP2 MSTORE RETURN JUMPDEST CALLVALUE PUSH2 0xC1 JUMPI PUSH1 0x60 CALLDATASIZE PUSH1 0x3 NOT ADD SLT PUSH2 0xC1 JUMPI PUSH2 0x19F PUSH2 0x455 JUMP JUMPDEST PUSH1 0x24 CALLDATALOAD PUSH8 0xFFFFFFFFFFFFFFFF DUP2 GT PUSH2 0xC1 JUMPI PUSH1 0x20 SWAP2 PUSH2 0x1C5 PUSH2 0x1CE SWAP3 CALLDATASIZE SWAP1 PUSH1 0x4 ADD PUSH2 0x4A3 JUMP JUMPDEST PUSH1 0x44 CALLDATALOAD SWAP2 PUSH2 0x7D0 JUMP JUMPDEST PUSH1 0x40 MLOAD SWAP1 DUP2 MSTORE RETURN JUMPDEST CALLVALUE PUSH2 0xC1 JUMPI PUSH1 0xA0 CALLDATASIZE PUSH1 0x3 NOT ADD SLT PUSH2 0xC1 JUMPI PUSH2 0x1EF PUSH2 0x455 JUMP JUMPDEST PUSH1 0x24 CALLDATALOAD PUSH8 0xFFFFFFFFFFFFFFFF DUP2 GT PUSH2 0xC1 JUMPI PUSH2 0x20F SWAP1 CALLDATASIZE SWAP1 PUSH1 0x4 ADD PUSH2 0x4A3 JUMP JUMPDEST SWAP1 PUSH2 0x218 PUSH2 0x4FA JUMP JUMPDEST PUSH1 0x84 CALLDATALOAD SWAP2 PUSH1 0x1 PUSH1 0x1 PUSH1 0xA0 SHL SUB DUP4 AND DUP4 SUB PUSH2 0xC1 JUMPI PUSH2 0x239 SWAP4 PUSH1 0x44 CALLDATALOAD SWAP2 PUSH2 0x54C JUMP JUMPDEST PUSH1 0x40 DUP1 MLOAD PUSH1 0x1 PUSH1 0x1 PUSH1 0xA0 SHL SUB SWAP4 DUP5 AND DUP2 MSTORE SWAP2 SWAP1 SWAP3 AND PUSH1 0x20 DUP3 ADD MSTORE RETURN JUMPDEST CALLVALUE PUSH2 0xC1 JUMPI PUSH1 0x0 CALLDATASIZE PUSH1 0x3 NOT ADD SLT PUSH2 0xC1 JUMPI PUSH1 0x1 SLOAD PUSH1 0x40 MLOAD PUSH1 0x1 PUSH1 0x1 PUSH1 0xA0 SHL SUB SWAP1 SWAP2 AND DUP2 MSTORE PUSH1 0x20 SWAP1 RETURN JUMPDEST CALLVALUE PUSH2 0xC1 JUMPI PUSH1 0x20 CALLDATASIZE PUSH1 0x3 NOT ADD SLT PUSH2 0xC1 JUMPI PUSH2 0x297 PUSH2 0x455 JUMP JUMPDEST PUSH1 0x0 SLOAD PUSH1 0x1 PUSH1 0x1 PUSH1 0xA0 SHL SUB AND CALLER SUB PUSH2 0x157 JUMPI PUSH1 0x1 PUSH1 0x1 PUSH1 0xA0 SHL SUB AND DUP1 ISZERO PUSH2 0x146 JUMPI PUSH1 0x20 DUP2 PUSH32 0x3DF77BEB5DB05FCDD70A30FC8ADF3F83F9501B68579455ADBD100B8180940394 SWAP3 PUSH12 0xFFFFFFFFFFFFFFFFFFFFFFFF PUSH1 0xA0 SHL PUSH1 0x1 SLOAD AND OR PUSH1 0x1 SSTORE PUSH1 0x40 MLOAD SWAP1 DUP2 MSTORE LOG1 STOP JUMPDEST CALLVALUE PUSH2 0xC1 JUMPI PUSH1 0x20 CALLDATASIZE PUSH1 0x3 NOT ADD SLT PUSH2 0xC1 JUMPI PUSH2 0x317 PUSH2 0x455 JUMP JUMPDEST PUSH1 0x0 SLOAD SWAP1 PUSH1 0x1 PUSH1 0x1 PUSH1 0xA0 SHL SUB DUP3 AND CALLER SUB PUSH2 0x157 JUMPI PUSH1 0x1 PUSH1 0x1 PUSH1 0xA0 SHL SUB AND SWAP1 DUP2 ISZERO PUSH2 0x146 JUMPI PUSH1 0x1 PUSH1 0x1 PUSH1 0xA0 SHL SUB NOT AND DUP2 OR PUSH1 0x0 SSTORE PUSH1 0x40 MLOAD SWAP1 DUP2 MSTORE PUSH32 0x54E4612788F90384E6843298D7854436F3A585B2C3831AB66ABF1DE63BFA6C2D SWAP1 PUSH1 0x20 SWAP1 LOG1 STOP JUMPDEST CALLVALUE PUSH2 0xC1 JUMPI PUSH1 0x0 CALLDATASIZE PUSH1 0x3 NOT ADD SLT PUSH2 0xC1 JUMPI PUSH1 0x2 SLOAD PUSH1 0x40 MLOAD PUSH1 0x1 PUSH1 0x1 PUSH1 0xA0 SHL SUB SWAP1 SWAP2 AND DUP2 MSTORE PUSH1 0x20 SWAP1 RETURN JUMPDEST CALLVALUE PUSH2 0xC1 JUMPI PUSH1 0x80 CALLDATASIZE PUSH1 0x3 NOT ADD SLT PUSH2 0xC1 JUMPI PUSH2 0x3BA PUSH2 0x455 JUMP JUMPDEST PUSH1 0x24 CALLDATALOAD SWAP1 PUSH8 0xFFFFFFFFFFFFFFFF DUP3 GT PUSH2 0xC1 JUMPI PUSH2 0x3DE PUSH2 0x239 SWAP3 CALLDATASIZE SWAP1 PUSH1 0x4 ADD PUSH2 0x4A3 JUMP JUMPDEST SWAP1 PUSH2 0x3E7 PUSH2 0x4FA JUMP JUMPDEST PUSH1 0x1 SLOAD PUSH1 0x1 PUSH1 0x1 PUSH1 0xA0 SHL SUB AND SWAP3 SWAP1 SWAP2 PUSH1 0x44 CALLDATALOAD SWAP2 SWAP1 PUSH2 0x54C JUMP JUMPDEST CALLVALUE PUSH2 0xC1 JUMPI PUSH1 0x20 CALLDATASIZE PUSH1 0x3 NOT ADD SLT PUSH2 0xC1 JUMPI PUSH1 0x0 SLOAD PUSH1 0x4 CALLDATALOAD SWAP1 PUSH1 0x1 PUSH1 0x1 PUSH1 0xA0 SHL SUB AND CALLER SUB PUSH2 0x157 JUMPI PUSH32 0x2DFC898B3677E9A8DB0CCD358B29E83D409F092F876498F4CF135D707165F85F SWAP2 DUP2 PUSH1 0x20 SWAP3 PUSH1 0x3 SSTORE DUP2 MSTORE LOG1 STOP JUMPDEST PUSH1 0x4 CALLDATALOAD SWAP1 PUSH1 0x1 PUSH1 0x1 PUSH1 0xA0 SHL SUB DUP3 AND DUP3 SUB PUSH2 0xC1 JUMPI JUMP JUMPDEST SWAP1 PUSH1 0x1F DUP1 NOT SWAP2 ADD AND DUP2 ADD SWAP1 DUP2 LT PUSH8 0xFFFFFFFFFFFFFFFF DUP3 GT OR PUSH2 0x48D JUMPI PUSH1 0x40 MSTORE JUMP JUMPDEST PUSH4 0x4E487B71 PUSH1 0xE0 SHL PUSH1 0x0 MSTORE PUSH1 0x41 PUSH1 0x4 MSTORE PUSH1 0x24 PUSH1 0x0 REVERT JUMPDEST DUP2 PUSH1 0x1F DUP3 ADD SLT ISZERO PUSH2 0xC1 JUMPI DUP1 CALLDATALOAD SWAP1 PUSH8 0xFFFFFFFFFFFFFFFF DUP3 GT PUSH2 0x48D JUMPI PUSH1 0x40 MLOAD SWAP3 PUSH2 0x4D8 PUSH1 0x1F DUP5 ADD PUSH1 0x1F NOT AND PUSH1 0x20 ADD DUP6 PUSH2 0x46B JUMP JUMPDEST DUP3 DUP5 MSTORE PUSH1 0x20 DUP4 DUP4 ADD ADD GT PUSH2 0xC1 JUMPI DUP2 PUSH1 0x0 SWAP3 PUSH1 0x20 DUP1 SWAP4 ADD DUP4 DUP7 ADD CALLDATACOPY DUP4 ADD ADD MSTORE SWAP1 JUMP JUMPDEST PUSH1 0x64 CALLDATALOAD SWAP1 PUSH2 0xFFFF DUP3 AND DUP3 SUB PUSH2 0xC1 JUMPI JUMP JUMPDEST SWAP2 SWAP1 DUP3 MLOAD SWAP3 DUP4 DUP3 MSTORE PUSH1 0x0 JUMPDEST DUP5 DUP2 LT PUSH2 0x537 JUMPI POP POP DUP3 PUSH1 0x0 PUSH1 0x20 DUP1 SWAP5 SWAP6 DUP5 ADD ADD MSTORE PUSH1 0x1F DUP1 NOT SWAP2 ADD AND ADD ADD SWAP1 JUMP JUMPDEST DUP1 PUSH1 0x20 DUP1 SWAP3 DUP5 ADD ADD MLOAD DUP3 DUP3 DUP7 ADD ADD MSTORE ADD PUSH2 0x516 JUMP JUMPDEST PUSH1 0x0 SWAP6 PUSH1 0x1 PUSH1 0x1 PUSH1 0xA0 SHL SUB SWAP1 SWAP2 AND SWAP5 SWAP1 SWAP4 SWAP1 SWAP3 SWAP1 DUP6 ISZERO PUSH2 0x78F JUMPI DUP3 MLOAD ISZERO PUSH2 0x7C1 JUMPI TIMESTAMP DUP3 GT ISZERO PUSH2 0x7B2 JUMPI PUSH2 0xFFFF AND SWAP3 PUSH2 0x2710 DUP5 GT PUSH2 0x7A3 JUMPI PUSH1 0x1 PUSH1 0x1 PUSH1 0xA0 SHL SUB DUP2 AND PUSH2 0x79E JUMPI POP PUSH1 0x1 SLOAD PUSH1 0x1 PUSH1 0x1 PUSH1 0xA0 SHL SUB AND JUMPDEST PUSH1 0x1 PUSH1 0x1 PUSH1 0xA0 SHL SUB AND SWAP3 DUP4 ISZERO PUSH2 0x78F JUMPI PUSH2 0x5BA DUP3 DUP5 CALLER PUSH2 0x7D0 JUMP JUMPDEST SWAP4 PUSH1 0x40 MLOAD PUSH2 0x58E DUP1 DUP3 ADD SWAP1 DUP3 DUP3 LT PUSH8 0xFFFFFFFFFFFFFFFF DUP4 GT OR PUSH2 0x77B JUMPI PUSH1 0x20 SWAP2 DUP4 SWAP2 PUSH2 0x1E18 DUP4 CODECOPY DUP11 DUP2 MSTORE SUB ADD SWAP1 DUP10 CREATE DUP1 ISZERO PUSH2 0x770 JUMPI PUSH1 0x3 SLOAD PUSH1 0x2 SLOAD PUSH1 0x40 MLOAD PUSH1 0x1 PUSH1 0x1 PUSH1 0xA0 SHL SUB SWAP4 DUP5 AND SWAP11 SWAP1 SWAP5 SWAP3 SWAP4 SWAP1 SWAP2 AND SWAP2 PUSH2 0x15FE DUP1 DUP7 ADD SWAP3 SWAP1 DUP7 DUP5 LT PUSH8 0xFFFFFFFFFFFFFFFF DUP6 GT OR PUSH2 0x75C JUMPI SWAP2 DUP7 SWAP6 SWAP5 SWAP4 SWAP2 PUSH2 0x120 SWAP4 PUSH2 0x81A DUP9 CODECOPY DUP3 MSTORE PUSH1 0x20 DUP3 ADD MSTORE ADDRESS PUSH1 0x40 DUP3 ADD MSTORE DUP12 PUSH1 0x60 DUP3 ADD MSTORE DUP10 PUSH1 0x80 DUP3 ADD MSTORE PUSH2 0x140 PUSH1 0xA0 DUP3 ADD MSTORE PUSH2 0x666 PUSH2 0x140 DUP3 ADD DUP11 PUSH2 0x50B JUMP JUMPDEST SWAP4 DUP9 PUSH1 0xC0 DUP4 ADD MSTORE DUP8 PUSH1 0xE0 DUP4 ADD MSTORE PUSH2 0x100 DUP3 ADD MSTORE ADD MSTORE SUB SWAP1 DUP9 CREATE DUP1 ISZERO PUSH2 0x751 JUMPI PUSH1 0x1 PUSH1 0x1 PUSH1 0xA0 SHL SUB AND SWAP7 DUP7 EXTCODESIZE ISZERO PUSH2 0x74E JUMPI PUSH1 0x40 MLOAD PUSH4 0x6DCEA85F PUSH1 0xE0 SHL DUP2 MSTORE PUSH1 0x4 DUP2 ADD DUP10 SWAP1 MSTORE DUP2 DUP2 PUSH1 0x24 DUP2 DUP4 DUP13 GAS CALL DUP1 ISZERO PUSH2 0x743 JUMPI SWAP2 PUSH32 0x15D034AA4180A2237EB2516715047323453E9AF21D2E5D59705C80F163D046FC SWAP6 SWAP4 SWAP2 PUSH2 0x719 SWAP6 SWAP4 PUSH2 0x733 JUMPI JUMPDEST POP POP PUSH1 0x3 SLOAD PUSH1 0x1 DUP1 PUSH1 0xA0 SHL SUB PUSH1 0x2 SLOAD AND SWAP2 PUSH1 0x40 MLOAD SWAP6 DUP7 SWAP6 DUP13 DUP8 MSTORE DUP12 PUSH1 0x20 DUP9 ADD MSTORE PUSH1 0xE0 PUSH1 0x40 DUP9 ADD MSTORE PUSH1 0xE0 DUP8 ADD SWAP1 PUSH2 0x50B JUMP JUMPDEST SWAP4 PUSH1 0x60 DUP7 ADD MSTORE PUSH1 0x80 DUP6 ADD MSTORE PUSH1 0xA0 DUP5 ADD MSTORE PUSH1 0xC0 DUP4 ADD MSTORE SUB SWAP1 LOG2 JUMP JUMPDEST DUP2 PUSH2 0x73D SWAP2 PUSH2 0x46B JUMP JUMPDEST CODESIZE PUSH2 0x6E8 JUMP JUMPDEST PUSH1 0x40 MLOAD RETURNDATASIZE DUP5 DUP3 RETURNDATACOPY RETURNDATASIZE SWAP1 REVERT JUMPDEST DUP1 REVERT JUMPDEST PUSH1 0x40 MLOAD RETURNDATASIZE DUP10 DUP3 RETURNDATACOPY RETURNDATASIZE SWAP1 REVERT JUMPDEST PUSH4 0x4E487B71 PUSH1 0xE0 SHL DUP15 MSTORE PUSH1 0x41 PUSH1 0x4 MSTORE PUSH1 0x24 DUP15 REVERT JUMPDEST PUSH1 0x40 MLOAD RETURNDATASIZE DUP11 DUP3 RETURNDATACOPY RETURNDATASIZE SWAP1 REVERT JUMPDEST PUSH4 0x4E487B71 PUSH1 0xE0 SHL DUP12 MSTORE PUSH1 0x41 PUSH1 0x4 MSTORE PUSH1 0x24 DUP12 REVERT JUMPDEST PUSH4 0xD92E233D PUSH1 0xE0 SHL DUP8 MSTORE PUSH1 0x4 DUP8 REVERT JUMPDEST PUSH2 0x59F JUMP JUMPDEST PUSH4 0x58D620B3 PUSH1 0xE0 SHL DUP8 MSTORE PUSH1 0x4 DUP8 REVERT JUMPDEST PUSH4 0x37BF5613 PUSH1 0xE1 SHL DUP8 MSTORE PUSH1 0x4 DUP8 REVERT JUMPDEST PUSH4 0x309CB87 PUSH1 0xE5 SHL DUP8 MSTORE PUSH1 0x4 DUP8 REVERT JUMPDEST SWAP2 PUSH2 0x7FF SWAP2 PUSH2 0x813 SWAP2 PUSH1 0x40 MLOAD SWAP4 DUP5 SWAP3 PUSH1 0x20 DUP5 ADD SWAP7 PUSH1 0x1 DUP1 PUSH1 0xA0 SHL SUB AND DUP8 MSTORE PUSH1 0x60 PUSH1 0x40 DUP6 ADD MSTORE PUSH1 0x80 DUP5 ADD SWAP1 PUSH2 0x50B JUMP JUMPDEST SWAP1 PUSH1 0x60 DUP4 ADD MSTORE SUB PUSH1 0x1F NOT DUP2 ADD DUP4 MSTORE DUP3 PUSH2 0x46B JUMP JUMPDEST MLOAD SWAP1 KECCAK256 SWAP1 JUMP INVALID PUSH2 0x120 PUSH1 0x40 MSTORE CALLVALUE PUSH2 0x469 JUMPI PUSH2 0x15FE DUP1 CODESIZE SUB DUP1 PUSH2 0x1A DUP2 PUSH2 0x46E JUMP JUMPDEST SWAP3 DUP4 CODECOPY DUP2 ADD SWAP1 PUSH2 0x140 DUP2 DUP4 SUB SLT PUSH2 0x469 JUMPI PUSH2 0x34 DUP2 PUSH2 0x493 JUMP JUMPDEST SWAP1 PUSH2 0x41 PUSH1 0x20 DUP3 ADD PUSH2 0x493 JUMP JUMPDEST SWAP3 PUSH2 0x4E PUSH1 0x40 DUP4 ADD PUSH2 0x493 JUMP JUMPDEST PUSH2 0x5A PUSH1 0x60 DUP5 ADD PUSH2 0x493 JUMP JUMPDEST SWAP4 PUSH1 0x80 DUP5 ADD MLOAD SWAP4 PUSH1 0xA0 DUP2 ADD MLOAD PUSH1 0x1 DUP1 PUSH1 0x40 SHL SUB DUP2 GT PUSH2 0x469 JUMPI DUP2 ADD SWAP5 DUP5 PUSH1 0x1F DUP8 ADD SLT ISZERO PUSH2 0x469 JUMPI DUP6 MLOAD SWAP6 PUSH1 0x1 PUSH1 0x1 PUSH1 0x40 SHL SUB DUP8 GT PUSH2 0x3DC JUMPI PUSH2 0xA5 PUSH1 0x1F DUP9 ADD PUSH1 0x1F NOT AND PUSH1 0x20 ADD PUSH2 0x46E JUMP JUMPDEST SWAP7 DUP1 DUP9 MSTORE PUSH1 0x20 DUP9 ADD SWAP7 PUSH1 0x20 DUP3 DUP5 ADD ADD GT PUSH2 0x469 JUMPI DUP7 PUSH1 0x20 PUSH2 0xC6 SWAP4 ADD PUSH2 0x4A7 JUMP JUMPDEST PUSH1 0xC0 DUP3 ADD MLOAD SWAP7 PUSH1 0xE0 DUP4 ADD MLOAD SWAP9 PUSH2 0xFFFF DUP11 AND DUP1 SWAP11 SUB PUSH2 0x469 JUMPI PUSH2 0xF1 PUSH2 0x120 PUSH2 0x100 DUP7 ADD MLOAD SWAP6 ADD PUSH2 0x493 JUMP JUMPDEST PUSH1 0x1 PUSH1 0x0 DUP2 SWAP1 SSTORE DUP1 SLOAD PUSH1 0xFF NOT AND SWAP1 SSTORE PUSH1 0x1 PUSH1 0x1 PUSH1 0xA0 SHL SUB SWAP1 SWAP6 AND SWAP5 DUP6 ISZERO DUP1 ISZERO PUSH2 0x458 JUMPI JUMPDEST DUP1 ISZERO PUSH2 0x447 JUMPI JUMPDEST DUP1 ISZERO PUSH2 0x436 JUMPI JUMPDEST PUSH2 0x3F2 JUMPI DUP9 MLOAD ISZERO PUSH2 0x425 JUMPI TIMESTAMP DUP11 GT ISZERO PUSH2 0x414 JUMPI PUSH2 0x2710 DUP12 GT PUSH2 0x403 JUMPI PUSH1 0x1 PUSH1 0x1 PUSH1 0xA0 SHL SUB AND SWAP5 DUP6 ISZERO PUSH2 0x3F2 JUMPI PUSH1 0x80 MSTORE PUSH1 0x1 PUSH1 0x1 PUSH1 0xA0 SHL SUB SWAP1 DUP2 AND PUSH1 0xA0 DUP2 SWAP1 MSTORE PUSH1 0xC0 SWAP7 SWAP1 SWAP7 MSTORE AND PUSH1 0xE0 MSTORE PUSH2 0x100 MSTORE DUP5 MLOAD SWAP7 PUSH1 0x1 PUSH1 0x1 PUSH1 0x40 SHL SUB DUP9 GT PUSH2 0x3DC JUMPI PUSH1 0x2 SLOAD PUSH1 0x1 DUP2 DUP2 SHR SWAP2 AND DUP1 ISZERO PUSH2 0x3D2 JUMPI JUMPDEST PUSH1 0x20 DUP3 LT EQ PUSH2 0x3BC JUMPI PUSH1 0x1F DUP2 GT PUSH2 0x357 JUMPI JUMPDEST POP PUSH1 0x20 SWAP8 PUSH1 0x1F DUP2 GT PUSH1 0x1 EQ PUSH2 0x2D7 JUMPI SWAP2 PUSH1 0x80 SWAP6 SWAP4 SWAP2 DUP4 PUSH2 0x232 SWAP9 SWAP7 SWAP5 PUSH1 0x0 DUP1 MLOAD PUSH1 0x20 PUSH2 0x15DE DUP4 CODECOPY DUP2 MLOAD SWAP2 MSTORE SWAP11 SWAP12 PUSH1 0x0 SWAP2 PUSH2 0x2CC JUMPI JUMPDEST POP DUP2 PUSH1 0x1 SHL SWAP2 PUSH1 0x0 NOT SWAP1 PUSH1 0x3 SHL SHR NOT AND OR PUSH1 0x2 SSTORE JUMPDEST DUP10 PUSH1 0x3 SSTORE PUSH2 0xFFFF NOT PUSH1 0x4 SLOAD AND OR PUSH1 0x4 SSTORE PUSH1 0x5 SSTORE PUSH1 0x1 DUP1 PUSH1 0xA8 SHL SUB NOT PUSH1 0x6 SLOAD AND OR PUSH1 0x6 SSTORE PUSH2 0x100 MLOAD SWAP7 PUSH1 0x40 MLOAD SWAP6 DUP7 SWAP5 PUSH1 0x60 DUP7 MSTORE MLOAD DUP1 SWAP5 DUP2 PUSH1 0x60 DUP9 ADD MSTORE DUP8 DUP8 ADD SWAP1 PUSH2 0x4A7 JUMP JUMPDEST PUSH1 0x20 DUP5 ADD MSTORE PUSH1 0x40 DUP4 ADD MSTORE PUSH1 0x1F ADD PUSH1 0x1F NOT AND DUP2 ADD SUB ADD SWAP1 LOG2 PUSH1 0x40 MLOAD PUSH2 0x1113 SWAP1 DUP2 PUSH2 0x4CB DUP3 CODECOPY PUSH1 0x80 MLOAD DUP2 PUSH2 0x63A ADD MSTORE PUSH1 0xA0 MLOAD DUP2 DUP2 DUP2 PUSH2 0x884 ADD MSTORE DUP2 DUP2 PUSH2 0xA72 ADD MSTORE PUSH2 0xC16 ADD MSTORE PUSH1 0xC0 MLOAD DUP2 DUP2 DUP2 PUSH2 0x3D7 ADD MSTORE DUP2 DUP2 PUSH2 0x67F ADD MSTORE PUSH2 0xCF4 ADD MSTORE PUSH1 0xE0 MLOAD DUP2 DUP2 DUP2 PUSH2 0x133 ADD MSTORE DUP2 DUP2 PUSH2 0x1F3 ADD MSTORE DUP2 DUP2 PUSH2 0x495 ADD MSTORE PUSH2 0x737 ADD MSTORE PUSH2 0x100 MLOAD DUP2 DUP2 DUP2 PUSH2 0x856 ADD MSTORE DUP2 DUP2 PUSH2 0xAC1 ADD MSTORE DUP2 DUP2 PUSH2 0xB88 ADD MSTORE PUSH2 0xC5D ADD MSTORE RETURN JUMPDEST SWAP1 POP DUP8 ADD MLOAD CODESIZE PUSH2 0x1D9 JUMP JUMPDEST PUSH1 0x1F NOT DUP2 AND PUSH1 0x2 PUSH1 0x0 MSTORE DUP10 PUSH1 0x0 KECCAK256 SWAP1 PUSH1 0x0 JUMPDEST DUP2 DUP2 LT PUSH2 0x33F JUMPI POP DUP3 PUSH1 0x80 SWAP9 SWAP7 SWAP5 SWAP3 PUSH1 0x0 DUP1 MLOAD PUSH1 0x20 PUSH2 0x15DE DUP4 CODECOPY DUP2 MLOAD SWAP2 MSTORE SWAP12 SWAP13 PUSH2 0x232 SWAP12 SWAP10 SWAP8 SWAP6 PUSH1 0x1 SWAP5 LT PUSH2 0x326 JUMPI JUMPDEST POP POP DUP2 SHL ADD PUSH1 0x2 SSTORE PUSH2 0x1EE JUMP JUMPDEST DUP10 ADD MLOAD PUSH1 0x0 NOT PUSH1 0xF8 DUP5 PUSH1 0x3 SHL AND SHR NOT AND SWAP1 SSTORE CODESIZE DUP1 PUSH2 0x319 JUMP JUMPDEST DUP10 DUP13 ADD MLOAD DUP4 SSTORE PUSH1 0x20 SWAP12 DUP13 ADD SWAP12 PUSH1 0x1 SWAP1 SWAP4 ADD SWAP3 ADD PUSH2 0x2E9 JUMP JUMPDEST PUSH1 0x2 PUSH1 0x0 MSTORE PUSH32 0x405787FA12A823E0F2B7631CC41B3BA8828B3321CA811111FA75CD3AA3BB5ACE PUSH1 0x1F DUP11 ADD PUSH1 0x5 SHR DUP2 ADD SWAP2 PUSH1 0x20 DUP12 LT PUSH2 0x3B2 JUMPI JUMPDEST PUSH1 0x1F ADD PUSH1 0x5 SHR ADD SWAP1 JUMPDEST DUP2 DUP2 LT PUSH2 0x3A6 JUMPI POP PUSH2 0x1A4 JUMP JUMPDEST PUSH1 0x0 DUP2 SSTORE PUSH1 0x1 ADD PUSH2 0x399 JUMP JUMPDEST SWAP1 SWAP2 POP DUP2 SWAP1 PUSH2 0x390 JUMP JUMPDEST PUSH4 0x4E487B71 PUSH1 0xE0 SHL PUSH1 0x0 MSTORE PUSH1 0x22 PUSH1 0x4 MSTORE PUSH1 0x24 PUSH1 0x0 REVERT JUMPDEST SWAP1 PUSH1 0x7F AND SWAP1 PUSH2 0x192 JUMP JUMPDEST PUSH4 0x4E487B71 PUSH1 0xE0 SHL PUSH1 0x0 MSTORE PUSH1 0x41 PUSH1 0x4 MSTORE PUSH1 0x24 PUSH1 0x0 REVERT JUMPDEST PUSH4 0xD92E233D PUSH1 0xE0 SHL PUSH1 0x0 MSTORE PUSH1 0x4 PUSH1 0x0 REVERT JUMPDEST PUSH4 0x58D620B3 PUSH1 0xE0 SHL PUSH1 0x0 MSTORE PUSH1 0x4 PUSH1 0x0 REVERT JUMPDEST PUSH4 0x37BF5613 PUSH1 0xE1 SHL PUSH1 0x0 MSTORE PUSH1 0x4 PUSH1 0x0 REVERT JUMPDEST PUSH4 0x309CB87 PUSH1 0xE5 SHL PUSH1 0x0 MSTORE PUSH1 0x4 PUSH1 0x0 REVERT JUMPDEST POP PUSH1 0x1 PUSH1 0x1 PUSH1 0xA0 SHL SUB DUP4 AND ISZERO PUSH2 0x123 JUMP JUMPDEST POP PUSH1 0x1 PUSH1 0x1 PUSH1 0xA0 SHL SUB DUP8 AND ISZERO PUSH2 0x11C JUMP JUMPDEST POP PUSH1 0x1 PUSH1 0x1 PUSH1 0xA0 SHL SUB DUP3 AND ISZERO PUSH2 0x115 JUMP JUMPDEST PUSH1 0x0 DUP1 REVERT JUMPDEST PUSH1 0x40 MLOAD SWAP2 SWAP1 PUSH1 0x1F ADD PUSH1 0x1F NOT AND DUP3 ADD PUSH1 0x1 PUSH1 0x1 PUSH1 0x40 SHL SUB DUP2 GT DUP4 DUP3 LT OR PUSH2 0x3DC JUMPI PUSH1 0x40 MSTORE JUMP JUMPDEST MLOAD SWAP1 PUSH1 0x1 PUSH1 0x1 PUSH1 0xA0 SHL SUB DUP3 AND DUP3 SUB PUSH2 0x469 JUMPI JUMP JUMPDEST PUSH1 0x0 JUMPDEST DUP4 DUP2 LT PUSH2 0x4BA JUMPI POP POP PUSH1 0x0 SWAP2 ADD MSTORE JUMP JUMPDEST DUP2 DUP2 ADD MLOAD DUP4 DUP3 ADD MSTORE PUSH1 0x20 ADD PUSH2 0x4AA JUMP INVALID PUSH1 0x80 DUP1 PUSH1 0x40 MSTORE PUSH1 0x4 CALLDATASIZE LT ISZERO PUSH2 0x13 JUMPI PUSH1 0x0 DUP1 REVERT JUMPDEST PUSH1 0x0 SWAP1 DUP2 CALLDATALOAD PUSH1 0xE0 SHR SWAP1 DUP2 PUSH4 0xBEDD409 EQ PUSH2 0xF07 JUMPI POP DUP1 PUSH4 0x200D2ED2 EQ PUSH2 0xED8 JUMPI DUP1 PUSH4 0x24A9D853 EQ PUSH2 0xEB6 JUMPI DUP1 PUSH4 0x27793F87 EQ PUSH2 0xE92 JUMPI DUP1 PUSH4 0x3197CBB6 EQ PUSH2 0xE74 JUMPI DUP1 PUSH4 0x3FAD9AE0 EQ PUSH2 0xD63 JUMPI DUP1 PUSH4 0x46904840 EQ PUSH2 0xD3A JUMPI DUP1 PUSH4 0x4805A34A EQ PUSH2 0xCE0 JUMPI DUP1 PUSH4 0x48DBA54E EQ PUSH2 0xCA3 JUMPI DUP1 PUSH4 0x5C975ABB EQ PUSH2 0xC80 JUMPI DUP1 PUSH4 0x6ED71EDE EQ PUSH2 0xC45 JUMPI DUP1 PUSH4 0x7DC0D1D0 EQ PUSH2 0xC00 JUMPI DUP1 PUSH4 0x97A98955 EQ PUSH2 0xB43 JUMPI DUP1 PUSH4 0x97BFFF77 EQ PUSH2 0xA05 JUMPI DUP1 PUSH4 0xBD3FB12F EQ PUSH2 0x814 JUMPI DUP1 PUSH4 0xBE040FB0 EQ PUSH2 0x6AE JUMPI DUP1 PUSH4 0xC45A0155 EQ PUSH2 0x669 JUMPI DUP1 PUSH4 0xD8DFEB45 EQ PUSH2 0x624 JUMPI DUP1 PUSH4 0xD9EB5947 EQ PUSH2 0x606 JUMPI DUP1 PUSH4 0xE24C469B EQ PUSH2 0x444 JUMPI DUP1 PUSH4 0xF160D369 EQ PUSH2 0x3AE JUMPI DUP1 PUSH4 0xF571C5F3 EQ PUSH2 0x165 JUMPI PUSH4 0xFBFA77CF EQ PUSH2 0x11E JUMPI PUSH1 0x0 DUP1 REVERT JUMPDEST CALLVALUE PUSH2 0x162 JUMPI DUP1 PUSH1 0x3 NOT CALLDATASIZE ADD SLT PUSH2 0x162 JUMPI PUSH1 0x40 MLOAD PUSH32 0x0 PUSH1 0x1 PUSH1 0x1 PUSH1 0xA0 SHL SUB AND DUP2 MSTORE PUSH1 0x20 SWAP1 RETURN JUMPDEST DUP1 REVERT JUMPDEST POP CALLVALUE PUSH2 0x162 JUMPI PUSH2 0x174 CALLDATASIZE PUSH2 0xFC1 JUMP JUMPDEST PUSH2 0x17C PUSH2 0x106A JUMP JUMPDEST PUSH1 0xFF PUSH1 0x6 SLOAD PUSH1 0xA0 SHR AND PUSH1 0x3 DUP2 LT ISZERO PUSH2 0x39A JUMPI PUSH2 0x38B JUMPI PUSH1 0x3 SLOAD TIMESTAMP LT ISZERO PUSH2 0x38B JUMPI PUSH1 0x5 SLOAD SWAP1 DUP2 DUP2 GT ISZERO PUSH2 0x37C JUMPI PUSH2 0x1B2 DUP3 DUP3 PUSH2 0x103A JUMP JUMPDEST DUP4 ISZERO PUSH2 0x34C JUMPI CALLER DUP6 MSTORE PUSH1 0x7 PUSH1 0x20 MSTORE PUSH1 0x40 DUP6 KECCAK256 SLOAD DUP3 DUP2 LT PUSH2 0x33D JUMPI DUP3 PUSH2 0x1D6 SWAP2 PUSH2 0x103A JUMP JUMPDEST CALLER DUP7 MSTORE PUSH1 0x7 PUSH1 0x20 MSTORE PUSH1 0x40 DUP7 KECCAK256 SSTORE JUMPDEST PUSH1 0x6 SLOAD DUP6 SWAP1 PUSH1 0x1 PUSH1 0x1 PUSH1 0xA0 SHL SUB PUSH32 0x0 DUP2 AND SWAP2 AND DUP2 EXTCODESIZE ISZERO PUSH2 0x339 JUMPI PUSH1 0x40 MLOAD PUSH4 0x12902273 PUSH1 0xE2 SHL DUP2 MSTORE CALLER PUSH1 0x4 DUP3 ADD MSTORE PUSH1 0x1 PUSH1 0x1 PUSH1 0xA0 SHL SUB SWAP2 SWAP1 SWAP2 AND PUSH1 0x24 DUP3 ADD MSTORE PUSH1 0x44 DUP2 ADD DUP7 SWAP1 MSTORE DUP3 DUP2 PUSH1 0x64 DUP2 DUP4 DUP7 GAS CALL SWAP1 DUP2 ISZERO PUSH2 0x32E JUMPI DUP4 SWAP2 PUSH2 0x319 JUMPI JUMPDEST POP POP DUP1 EXTCODESIZE ISZERO PUSH2 0x315 JUMPI PUSH1 0x40 MLOAD PUSH4 0x12902273 PUSH1 0xE2 SHL DUP2 MSTORE CALLER PUSH1 0x4 DUP3 ADD DUP2 SWAP1 MSTORE PUSH1 0x24 DUP3 ADD MSTORE PUSH1 0x44 DUP2 ADD DUP5 SWAP1 MSTORE SWAP1 DUP3 SWAP1 DUP3 SWAP1 PUSH1 0x64 SWAP1 DUP3 SWAP1 DUP5 SWAP1 GAS CALL DUP1 ISZERO PUSH2 0x30A JUMPI PUSH2 0x2F1 JUMPI JUMPDEST POP POP PUSH1 0x40 DUP1 MLOAD SWAP5 ISZERO ISZERO DUP6 MSTORE PUSH1 0x20 DUP6 ADD SWAP2 SWAP1 SWAP2 MSTORE DUP4 ADD MSTORE PUSH1 0x60 DUP3 ADD MSTORE CALLER SWAP1 PUSH32 0x69FD83406168EF35927190021AB940690B846CC0C13E3C76F0A74A83BDADDF9E SWAP1 DUP1 PUSH1 0x80 DUP2 ADD JUMPDEST SUB SWAP1 LOG2 PUSH1 0x1 DUP2 SSTORE DUP1 RETURN JUMPDEST DUP2 PUSH2 0x2FB SWAP2 PUSH2 0xF41 JUMP JUMPDEST PUSH2 0x306 JUMPI DUP5 CODESIZE PUSH2 0x2A2 JUMP JUMPDEST DUP5 DUP1 REVERT JUMPDEST PUSH1 0x40 MLOAD RETURNDATASIZE DUP5 DUP3 RETURNDATACOPY RETURNDATASIZE SWAP1 REVERT JUMPDEST POP DUP1 REVERT JUMPDEST DUP2 PUSH2 0x323 SWAP2 PUSH2 0xF41 JUMP JUMPDEST PUSH2 0x315 JUMPI DUP2 CODESIZE PUSH2 0x25F JUMP JUMPDEST PUSH1 0x40 MLOAD RETURNDATASIZE DUP6 DUP3 RETURNDATACOPY RETURNDATASIZE SWAP1 REVERT JUMPDEST DUP3 DUP1 REVERT JUMPDEST PUSH4 0x1E9ACF17 PUSH1 0xE3 SHL DUP7 MSTORE PUSH1 0x4 DUP7 REVERT JUMPDEST CALLER DUP6 MSTORE PUSH1 0x8 PUSH1 0x20 MSTORE PUSH1 0x40 DUP6 KECCAK256 SLOAD DUP3 DUP2 LT PUSH2 0x33D JUMPI DUP3 PUSH2 0x36A SWAP2 PUSH2 0x103A JUMP JUMPDEST CALLER DUP7 MSTORE PUSH1 0x8 PUSH1 0x20 MSTORE PUSH1 0x40 DUP7 KECCAK256 SSTORE PUSH2 0x1E4 JUMP JUMPDEST PUSH4 0x309CB87 PUSH1 0xE5 SHL DUP5 MSTORE PUSH1 0x4 DUP5 REVERT JUMPDEST PUSH4 0xE2C865DF PUSH1 0xE0 SHL DUP4 MSTORE PUSH1 0x4 DUP4 REVERT JUMPDEST PUSH4 0x4E487B71 PUSH1 0xE0 SHL DUP5 MSTORE PUSH1 0x21 PUSH1 0x4 MSTORE PUSH1 0x24 DUP5 REVERT JUMPDEST POP CALLVALUE PUSH2 0x162 JUMPI PUSH1 0x20 CALLDATASIZE PUSH1 0x3 NOT ADD SLT PUSH2 0x162 JUMPI PUSH1 0x4 CALLDATALOAD PUSH1 0x1 PUSH1 0x1 PUSH1 0xA0 SHL SUB DUP2 AND SWAP1 DUP2 SWAP1 SUB PUSH2 0x315 JUMPI PUSH32 0x0 PUSH1 0x1 PUSH1 0x1 PUSH1 0xA0 SHL SUB AND CALLER SUB PUSH2 0x435 JUMPI DUP1 ISZERO PUSH2 0x426 JUMPI PUSH12 0xFFFFFFFFFFFFFFFFFFFFFFFF PUSH1 0xA0 SHL PUSH1 0x6 SLOAD AND OR PUSH1 0x6 SSTORE DUP1 RETURN JUMPDEST PUSH4 0xD92E233D PUSH1 0xE0 SHL DUP3 MSTORE PUSH1 0x4 DUP3 REVERT JUMPDEST PUSH4 0x636A157 PUSH1 0xE1 SHL DUP3 MSTORE PUSH1 0x4 DUP3 REVERT JUMPDEST POP CALLVALUE PUSH2 0x162 JUMPI PUSH2 0x453 CALLDATASIZE PUSH2 0xFC1 JUMP JUMPDEST PUSH2 0x45B PUSH2 0x106A JUMP JUMPDEST PUSH1 0xFF PUSH1 0x6 SLOAD PUSH1 0xA0 SHR AND PUSH1 0x3 DUP2 LT ISZERO PUSH2 0x39A JUMPI PUSH2 0x38B JUMPI PUSH1 0x3 SLOAD TIMESTAMP LT ISZERO PUSH2 0x38B JUMPI PUSH1 0x5 SLOAD SWAP1 DUP2 DUP2 GT ISZERO PUSH2 0x37C JUMPI PUSH2 0x491 DUP3 DUP3 PUSH2 0x103A JUMP JUMPDEST SWAP1 DUP5 PUSH32 0x0 PUSH1 0x1 PUSH1 0x1 PUSH1 0xA0 SHL SUB AND DUP1 EXTCODESIZE ISZERO PUSH2 0x315 JUMPI PUSH1 0x40 MLOAD PUSH4 0xAE61B79 PUSH1 0xE1 SHL DUP2 MSTORE CALLER PUSH1 0x4 DUP3 ADD MSTORE PUSH1 0x24 DUP2 ADD DUP5 SWAP1 MSTORE DUP3 DUP2 PUSH1 0x44 DUP2 DUP4 DUP7 GAS CALL SWAP1 DUP2 ISZERO PUSH2 0x32E JUMPI DUP4 SWAP2 PUSH2 0x5F1 JUMPI JUMPDEST POP POP PUSH1 0x6 SLOAD PUSH1 0x1 PUSH1 0x1 PUSH1 0xA0 SHL SUB AND SWAP1 DUP1 EXTCODESIZE ISZERO PUSH2 0x339 JUMPI PUSH1 0x40 MLOAD PUSH4 0x12902273 PUSH1 0xE2 SHL DUP2 MSTORE CALLER PUSH1 0x4 DUP3 ADD MSTORE PUSH1 0x1 PUSH1 0x1 PUSH1 0xA0 SHL SUB SWAP3 SWAP1 SWAP3 AND PUSH1 0x24 DUP4 ADD MSTORE PUSH1 0x44 DUP3 ADD DUP7 SWAP1 MSTORE DUP3 SWAP1 DUP3 SWAP1 PUSH1 0x64 SWAP1 DUP3 SWAP1 DUP5 SWAP1 GAS CALL DUP1 ISZERO PUSH2 0x30A JUMPI PUSH2 0x5DC JUMPI JUMPDEST POP POP PUSH2 0x2E7 PUSH32 0x69FD83406168EF35927190021AB940690B846CC0C13E3C76F0A74A83BDADDF9E SWAP4 DUP6 PUSH1 0x0 EQ PUSH2 0x5BE JUMPI CALLER DUP8 MSTORE PUSH1 0x7 PUSH1 0x20 MSTORE PUSH1 0x40 DUP8 KECCAK256 PUSH2 0x594 DUP6 DUP3 SLOAD PUSH2 0x105D JUMP JUMPDEST SWAP1 SSTORE JUMPDEST PUSH1 0x40 MLOAD SWAP4 DUP5 SWAP4 CALLER SWAP8 DUP6 SWAP1 SWAP5 SWAP4 SWAP3 PUSH1 0x60 SWAP3 PUSH1 0x80 DUP4 ADD SWAP7 ISZERO ISZERO DUP4 MSTORE PUSH1 0x20 DUP4 ADD MSTORE PUSH1 0x40 DUP3 ADD MSTORE ADD MSTORE JUMP JUMPDEST CALLER DUP8 MSTORE PUSH1 0x8 PUSH1 0x20 MSTORE PUSH1 0x40 DUP8 KECCAK256 PUSH2 0x5D5 DUP6 DUP3 SLOAD PUSH2 0x105D JUMP JUMPDEST SWAP1 SSTORE PUSH2 0x597 JUMP JUMPDEST DUP2 PUSH2 0x5E6 SWAP2 PUSH2 0xF41 JUMP JUMPDEST PUSH2 0x306 JUMPI DUP5 CODESIZE PUSH2 0x54E JUMP JUMPDEST DUP2 PUSH2 0x5FB SWAP2 PUSH2 0xF41 JUMP JUMPDEST PUSH2 0x315 JUMPI DUP2 CODESIZE PUSH2 0x4F5 JUMP JUMPDEST POP CALLVALUE PUSH2 0x162 JUMPI DUP1 PUSH1 0x3 NOT CALLDATASIZE ADD SLT PUSH2 0x162 JUMPI PUSH1 0x20 PUSH1 0x5 SLOAD PUSH1 0x40 MLOAD SWAP1 DUP2 MSTORE RETURN JUMPDEST POP CALLVALUE PUSH2 0x162 JUMPI DUP1 PUSH1 0x3 NOT CALLDATASIZE ADD SLT PUSH2 0x162 JUMPI PUSH1 0x40 MLOAD PUSH32 0x0 PUSH1 0x1 PUSH1 0x1 PUSH1 0xA0 SHL SUB AND DUP2 MSTORE PUSH1 0x20 SWAP1 RETURN JUMPDEST POP CALLVALUE PUSH2 0x162 JUMPI DUP1 PUSH1 0x3 NOT CALLDATASIZE ADD SLT PUSH2 0x162 JUMPI PUSH1 0x40 MLOAD PUSH32 0x0 PUSH1 0x1 PUSH1 0x1 PUSH1 0xA0 SHL SUB AND DUP2 MSTORE PUSH1 0x20 SWAP1 RETURN JUMPDEST POP CALLVALUE PUSH2 0x162 JUMPI DUP1 PUSH1 0x3 NOT CALLDATASIZE ADD SLT PUSH2 0x162 JUMPI PUSH2 0x6C7 PUSH2 0x106A JUMP JUMPDEST PUSH1 0x6 SLOAD PUSH1 0xFF DUP2 PUSH1 0xA0 SHR AND PUSH1 0x3 DUP2 LT ISZERO PUSH2 0x800 JUMPI PUSH1 0x2 SUB PUSH2 0x7F1 JUMPI PUSH2 0x70B SWAP1 CALLER DUP4 MSTORE PUSH1 0x7 PUSH1 0x20 MSTORE PUSH1 0x40 DUP4 KECCAK256 SLOAD CALLER DUP5 MSTORE PUSH1 0x8 PUSH1 0x20 MSTORE PUSH1 0xFF PUSH1 0x40 DUP6 KECCAK256 SLOAD SWAP3 PUSH1 0xA8 SHR AND PUSH2 0x10C0 JUMP JUMPDEST DUP1 ISZERO PUSH2 0x7E2 JUMPI CALLER DUP3 MSTORE PUSH1 0x7 PUSH1 0x20 MSTORE DUP2 PUSH1 0x40 DUP2 KECCAK256 SSTORE CALLER DUP3 MSTORE PUSH1 0x8 PUSH1 0x20 MSTORE DUP2 PUSH1 0x40 DUP2 KECCAK256 SSTORE DUP2 PUSH1 0x1 DUP1 PUSH1 0xA0 SHL SUB PUSH32 0x0 AND DUP1 EXTCODESIZE ISZERO PUSH2 0x315 JUMPI PUSH1 0x40 MLOAD PUSH4 0x12902273 PUSH1 0xE2 SHL DUP2 MSTORE CALLER PUSH1 0x4 DUP3 ADD DUP2 SWAP1 MSTORE PUSH1 0x24 DUP3 ADD MSTORE PUSH1 0x44 DUP2 ADD DUP5 SWAP1 MSTORE SWAP1 DUP3 SWAP1 DUP3 SWAP1 PUSH1 0x64 SWAP1 DUP3 SWAP1 DUP5 SWAP1 GAS CALL DUP1 ISZERO PUSH2 0x30A JUMPI PUSH2 0x7CD JUMPI JUMPDEST POP POP PUSH1 0x40 MLOAD SWAP1 DUP2 MSTORE PUSH32 0x222838DB2794D11532D940E8DEC38AE307ED0B63CD97C233322E221F998767A6 PUSH1 0x20 CALLER SWAP3 LOG2 PUSH1 0x1 DUP2 SSTORE DUP1 RETURN JUMPDEST DUP2 PUSH2 0x7D7 SWAP2 PUSH2 0xF41 JUMP JUMPDEST PUSH2 0x315 JUMPI DUP2 CODESIZE PUSH2 0x798 JUMP JUMPDEST PUSH4 0x309CB87 PUSH1 0xE5 SHL DUP3 MSTORE PUSH1 0x4 DUP3 REVERT JUMPDEST PUSH4 0x174B6393 PUSH1 0xE1 SHL DUP3 MSTORE PUSH1 0x4 DUP3 REVERT JUMPDEST PUSH4 0x4E487B71 PUSH1 0xE0 SHL DUP4 MSTORE PUSH1 0x21 PUSH1 0x4 MSTORE PUSH1 0x24 DUP4 REVERT JUMPDEST POP CALLVALUE PUSH2 0x162 JUMPI DUP1 PUSH1 0x3 NOT CALLDATASIZE ADD SLT PUSH2 0x162 JUMPI PUSH2 0x82D PUSH2 0x106A JUMP JUMPDEST PUSH1 0x6 SLOAD PUSH1 0xFF DUP2 PUSH1 0xA0 SHR AND PUSH1 0x3 DUP2 LT ISZERO PUSH2 0x800 JUMPI PUSH1 0x1 SUB PUSH2 0x7E2 JUMPI PUSH1 0x40 MLOAD PUSH4 0x2B7531E1 PUSH1 0xE2 SHL DUP2 MSTORE PUSH32 0x0 PUSH1 0x4 DUP3 ADD DUP2 SWAP1 MSTORE SWAP2 DUP4 DUP3 PUSH1 0x24 DUP2 PUSH32 0x0 PUSH1 0x1 PUSH1 0x1 PUSH1 0xA0 SHL SUB AND GAS STATICCALL DUP1 ISZERO PUSH2 0x9FA JUMPI DUP5 DUP6 SWAP4 DUP7 SWAP3 PUSH2 0x980 JUMPI JUMPDEST POP ISZERO PUSH2 0x971 JUMPI PUSH1 0x20 DUP4 DUP1 MLOAD DUP2 ADD SUB SLT PUSH2 0x306 JUMPI PUSH1 0x20 DUP4 ADD MLOAD SWAP2 PUSH1 0xFF DUP4 AND SWAP3 DUP4 DUP2 SUB PUSH2 0x96D JUMPI PUSH1 0x1 DUP5 GT PUSH2 0x95E JUMPI PUSH2 0xFFFF PUSH1 0xA0 SHL NOT SWAP1 SWAP2 AND PUSH1 0xA8 SWAP2 SWAP1 SWAP2 SHL PUSH1 0xFF PUSH1 0xA8 SHL AND OR PUSH1 0x1 PUSH1 0xA1 SHL OR PUSH1 0x6 SSTORE PUSH1 0x40 MLOAD SWAP2 DUP3 MSTORE PUSH1 0x60 PUSH1 0x20 DUP4 ADD DUP2 SWAP1 MSTORE PUSH32 0x2B17C9E611787445A3BCC13EE7CB1E211C6CD8B508850278CD1FA701D613302C SWAP4 DUP4 SWAP3 PUSH2 0x2E7 SWAP3 SWAP1 SWAP2 PUSH2 0x950 SWAP2 DUP6 ADD SWAP1 PUSH2 0xF9C JUMP JUMPDEST SWAP1 DUP4 DUP3 SUB PUSH1 0x40 DUP6 ADD MSTORE PUSH2 0xF9C JUMP JUMPDEST PUSH4 0x309CB87 PUSH1 0xE5 SHL DUP8 MSTORE PUSH1 0x4 DUP8 REVERT JUMPDEST DUP7 DUP1 REVERT JUMPDEST PUSH4 0x174B6393 PUSH1 0xE1 SHL DUP6 MSTORE PUSH1 0x4 DUP6 REVERT JUMPDEST SWAP4 POP POP POP RETURNDATASIZE DUP1 DUP6 DUP5 RETURNDATACOPY PUSH2 0x993 DUP2 DUP5 PUSH2 0xF41 JUMP JUMPDEST DUP3 ADD PUSH1 0x60 DUP4 DUP3 SUB SLT PUSH2 0x306 JUMPI DUP3 MLOAD SWAP3 DUP4 ISZERO ISZERO DUP5 SUB PUSH2 0x9F6 JUMPI PUSH1 0x20 DUP2 ADD MLOAD PUSH8 0xFFFFFFFFFFFFFFFF DUP2 GT PUSH2 0x96D JUMPI DUP3 PUSH2 0x9CB SWAP2 DUP4 ADD PUSH2 0xFE5 JUMP JUMPDEST SWAP2 PUSH1 0x40 DUP3 ADD MLOAD PUSH8 0xFFFFFFFFFFFFFFFF DUP2 GT PUSH2 0x9F2 JUMPI PUSH2 0x9EA SWAP3 ADD PUSH2 0xFE5 JUMP JUMPDEST SWAP1 SWAP3 CODESIZE PUSH2 0x8BE JUMP JUMPDEST DUP8 DUP1 REVERT JUMPDEST DUP6 DUP1 REVERT JUMPDEST PUSH1 0x40 MLOAD RETURNDATASIZE DUP7 DUP3 RETURNDATACOPY RETURNDATASIZE SWAP1 REVERT JUMPDEST POP CALLVALUE PUSH2 0x162 JUMPI PUSH1 0x20 CALLDATASIZE PUSH1 0x3 NOT ADD SLT PUSH2 0x162 JUMPI PUSH1 0x4 CALLDATALOAD PUSH8 0xFFFFFFFFFFFFFFFF DUP2 GT PUSH2 0x315 JUMPI CALLDATASIZE PUSH1 0x23 DUP3 ADD SLT ISZERO PUSH2 0x315 JUMPI DUP1 PUSH1 0x4 ADD CALLDATALOAD SWAP1 PUSH8 0xFFFFFFFFFFFFFFFF DUP3 GT PUSH2 0x339 JUMPI CALLDATASIZE PUSH1 0x24 DUP4 DUP4 ADD ADD GT PUSH2 0x339 JUMPI PUSH1 0xFF PUSH1 0x6 SLOAD PUSH1 0xA0 SHR AND PUSH1 0x3 DUP2 LT ISZERO PUSH2 0x39A JUMPI PUSH1 0x1 SUB PUSH2 0xB34 JUMPI DUP3 SWAP1 PUSH32 0x0 PUSH1 0x1 PUSH1 0x1 PUSH1 0xA0 SHL SUB AND SWAP1 DUP2 EXTCODESIZE ISZERO PUSH2 0x339 JUMPI DUP3 SWAP2 PUSH1 0x24 DUP4 PUSH1 0x64 DUP8 SWAP5 PUSH1 0x40 MLOAD SWAP9 DUP10 SWAP7 DUP8 SWAP6 DUP7 SWAP4 PUSH4 0xB8FEC5B5 PUSH1 0xE0 SHL DUP6 MSTORE PUSH32 0x0 PUSH1 0x4 DUP7 ADD MSTORE PUSH1 0x40 DUP3 DUP7 ADD MSTORE DUP3 PUSH1 0x44 DUP7 ADD MSTORE ADD DUP5 DUP5 ADD CALLDATACOPY DUP2 DUP2 ADD DUP4 ADD DUP5 SWAP1 MSTORE PUSH1 0x1F ADD PUSH1 0x1F NOT AND DUP2 ADD SUB ADD SWAP3 GAS CALL DUP1 ISZERO PUSH2 0xB27 JUMPI PUSH2 0xB19 JUMPI DUP1 RETURN JUMPDEST PUSH2 0xB22 SWAP2 PUSH2 0xF41 JUMP JUMPDEST CODESIZE DUP2 DUP1 RETURN JUMPDEST POP PUSH1 0x40 MLOAD SWAP1 RETURNDATASIZE SWAP1 DUP3 RETURNDATACOPY RETURNDATASIZE SWAP1 REVERT JUMPDEST PUSH4 0x309CB87 PUSH1 0xE5 SHL DUP4 MSTORE PUSH1 0x4 DUP4 REVERT JUMPDEST POP CALLVALUE PUSH2 0x162 JUMPI DUP1 PUSH1 0x3 NOT CALLDATASIZE ADD SLT PUSH2 0x162 JUMPI PUSH1 0x3 SLOAD TIMESTAMP LT PUSH2 0xBF1 JUMPI PUSH1 0xFF PUSH1 0x6 SLOAD PUSH1 0xA0 SHR AND PUSH1 0x3 DUP2 LT ISZERO PUSH2 0xBDD JUMPI PUSH2 0xBCE JUMPI PUSH1 0x6 DUP1 SLOAD PUSH1 0xFF PUSH1 0xA0 SHL NOT AND PUSH1 0x1 PUSH1 0xA0 SHL OR SWAP1 SSTORE PUSH32 0x0 PUSH32 0xF0B26890989C7ABE4FCBC3B91D347980CC1B29A59B4D5C2F7BFB99327BEF8485 DUP3 DUP1 LOG2 DUP1 RETURN JUMPDEST PUSH4 0x309CB87 PUSH1 0xE5 SHL DUP2 MSTORE PUSH1 0x4 SWAP1 REVERT JUMPDEST PUSH4 0x4E487B71 PUSH1 0xE0 SHL DUP3 MSTORE PUSH1 0x21 PUSH1 0x4 MSTORE PUSH1 0x24 DUP3 REVERT JUMPDEST PUSH4 0x8FD3D05 PUSH1 0xE0 SHL DUP2 MSTORE PUSH1 0x4 SWAP1 REVERT JUMPDEST POP CALLVALUE PUSH2 0x162 JUMPI DUP1 PUSH1 0x3 NOT CALLDATASIZE ADD SLT PUSH2 0x162 JUMPI PUSH1 0x40 MLOAD PUSH32 0x0 PUSH1 0x1 PUSH1 0x1 PUSH1 0xA0 SHL SUB AND DUP2 MSTORE PUSH1 0x20 SWAP1 RETURN JUMPDEST POP CALLVALUE PUSH2 0x162 JUMPI DUP1 PUSH1 0x3 NOT CALLDATASIZE ADD SLT PUSH2 0x162 JUMPI PUSH1 0x20 PUSH1 0x40 MLOAD PUSH32 0x0 DUP2 MSTORE RETURN JUMPDEST POP CALLVALUE PUSH2 0x162 JUMPI DUP1 PUSH1 0x3 NOT CALLDATASIZE ADD SLT PUSH2 0x162 JUMPI PUSH1 0x20 PUSH1 0xFF PUSH1 0x1 SLOAD AND PUSH1 0x40 MLOAD SWAP1 ISZERO ISZERO DUP2 MSTORE RETURN JUMPDEST POP CALLVALUE PUSH2 0x162 JUMPI PUSH1 0x20 CALLDATASIZE PUSH1 0x3 NOT ADD SLT PUSH2 0x162 JUMPI PUSH1 0x4 CALLDATALOAD PUSH1 0x1 PUSH1 0x1 PUSH1 0xA0 SHL SUB DUP2 AND SWAP1 DUP2 SWAP1 SUB PUSH2 0x315 JUMPI DUP2 PUSH1 0x40 SWAP2 PUSH1 0x20 SWAP4 MSTORE PUSH1 0x7 DUP4 MSTORE KECCAK256 SLOAD PUSH1 0x40 MLOAD SWAP1 DUP2 MSTORE RETURN JUMPDEST POP CALLVALUE PUSH2 0x162 JUMPI PUSH1 0x20 CALLDATASIZE PUSH1 0x3 NOT ADD SLT PUSH2 0x162 JUMPI PUSH32 0x0 PUSH1 0x1 PUSH1 0x1 PUSH1 0xA0 SHL SUB AND CALLER SUB PUSH2 0xD2B JUMPI PUSH1 0x4 CALLDATALOAD PUSH1 0x5 SSTORE DUP1 RETURN JUMPDEST PUSH4 0x636A157 PUSH1 0xE1 SHL DUP2 MSTORE PUSH1 0x4 SWAP1 REVERT JUMPDEST POP CALLVALUE PUSH2 0x162 JUMPI DUP1 PUSH1 0x3 NOT CALLDATASIZE ADD SLT PUSH2 0x162 JUMPI PUSH1 0x6 SLOAD PUSH1 0x40 MLOAD PUSH1 0x1 PUSH1 0x1 PUSH1 0xA0 SHL SUB SWAP1 SWAP2 AND DUP2 MSTORE PUSH1 0x20 SWAP1 RETURN JUMPDEST POP CALLVALUE PUSH2 0x162 JUMPI DUP1 PUSH1 0x3 NOT CALLDATASIZE ADD SLT PUSH2 0x162 JUMPI PUSH1 0x40 MLOAD SWAP1 DUP1 PUSH1 0x2 SLOAD SWAP1 DUP2 PUSH1 0x1 SHR SWAP2 PUSH1 0x1 DUP2 AND DUP1 ISZERO PUSH2 0xE6A JUMPI JUMPDEST PUSH1 0x20 DUP5 LT DUP2 EQ PUSH2 0xE56 JUMPI DUP4 DUP7 MSTORE SWAP1 DUP2 ISZERO PUSH2 0xE2F JUMPI POP PUSH1 0x1 EQ PUSH2 0xDD2 JUMPI JUMPDEST PUSH2 0xDCE DUP5 PUSH2 0xDBA DUP2 DUP7 SUB DUP3 PUSH2 0xF41 JUMP JUMPDEST PUSH1 0x40 MLOAD SWAP2 DUP3 SWAP2 PUSH1 0x20 DUP4 MSTORE PUSH1 0x20 DUP4 ADD SWAP1 PUSH2 0xF9C JUMP JUMPDEST SUB SWAP1 RETURN JUMPDEST PUSH1 0x2 DUP2 MSTORE PUSH32 0x405787FA12A823E0F2B7631CC41B3BA8828B3321CA811111FA75CD3AA3BB5ACE SWAP4 SWAP3 POP SWAP1 JUMPDEST DUP1 DUP3 LT PUSH2 0xE15 JUMPI POP SWAP1 SWAP2 POP DUP2 ADD PUSH1 0x20 ADD PUSH2 0xDBA DUP3 PUSH2 0xDAA JUMP JUMPDEST SWAP2 SWAP3 PUSH1 0x1 DUP2 PUSH1 0x20 SWAP3 SLOAD DUP4 DUP6 DUP9 ADD ADD MSTORE ADD SWAP2 ADD SWAP1 SWAP3 SWAP2 PUSH2 0xDFC JUMP JUMPDEST PUSH1 0xFF NOT AND PUSH1 0x20 DUP1 DUP8 ADD SWAP2 SWAP1 SWAP2 MSTORE SWAP3 ISZERO ISZERO PUSH1 0x5 SHL DUP6 ADD SWAP1 SWAP3 ADD SWAP3 POP PUSH2 0xDBA SWAP2 POP DUP4 SWAP1 POP PUSH2 0xDAA JUMP JUMPDEST PUSH4 0x4E487B71 PUSH1 0xE0 SHL DUP4 MSTORE PUSH1 0x22 PUSH1 0x4 MSTORE PUSH1 0x24 DUP4 REVERT JUMPDEST SWAP3 PUSH1 0x7F AND SWAP3 PUSH2 0xD8D JUMP JUMPDEST POP CALLVALUE PUSH2 0x162 JUMPI DUP1 PUSH1 0x3 NOT CALLDATASIZE ADD SLT PUSH2 0x162 JUMPI PUSH1 0x20 PUSH1 0x3 SLOAD PUSH1 0x40 MLOAD SWAP1 DUP2 MSTORE RETURN JUMPDEST POP CALLVALUE PUSH2 0x162 JUMPI DUP1 PUSH1 0x3 NOT CALLDATASIZE ADD SLT PUSH2 0x162 JUMPI PUSH1 0x20 PUSH1 0xFF PUSH1 0x6 SLOAD PUSH1 0xA8 SHR AND PUSH1 0x40 MLOAD SWAP1 DUP2 MSTORE RETURN JUMPDEST POP CALLVALUE PUSH2 0x162 JUMPI DUP1 PUSH1 0x3 NOT CALLDATASIZE ADD SLT PUSH2 0x162 JUMPI PUSH1 0x20 PUSH2 0xFFFF PUSH1 0x4 SLOAD AND PUSH1 0x40 MLOAD SWAP1 DUP2 MSTORE RETURN JUMPDEST POP CALLVALUE PUSH2 0x162 JUMPI DUP1 PUSH1 0x3 NOT CALLDATASIZE ADD SLT PUSH2 0x162 JUMPI PUSH1 0xFF PUSH1 0x6 SLOAD PUSH1 0xA0 SHR AND PUSH1 0x40 MLOAD SWAP1 PUSH1 0x3 DUP2 LT ISZERO PUSH2 0x800 JUMPI PUSH1 0x20 SWAP3 POP DUP2 MSTORE RETURN JUMPDEST SWAP1 POP CALLVALUE PUSH2 0x315 JUMPI PUSH1 0x20 CALLDATASIZE PUSH1 0x3 NOT ADD SLT PUSH2 0x315 JUMPI PUSH1 0x4 CALLDATALOAD PUSH1 0x1 PUSH1 0x1 PUSH1 0xA0 SHL SUB DUP2 AND SWAP1 DUP2 SWAP1 SUB PUSH2 0x339 JUMPI DUP3 PUSH1 0x40 SWAP2 PUSH1 0x20 SWAP5 MSTORE PUSH1 0x8 DUP5 MSTORE KECCAK256 SLOAD DUP2 MSTORE RETURN JUMPDEST SWAP1 PUSH1 0x1F DUP1 NOT SWAP2 ADD AND DUP2 ADD SWAP1 DUP2 LT PUSH8 0xFFFFFFFFFFFFFFFF DUP3 GT OR PUSH2 0xF63 JUMPI PUSH1 0x40 MSTORE JUMP JUMPDEST PUSH4 0x4E487B71 PUSH1 0xE0 SHL PUSH1 0x0 MSTORE PUSH1 0x41 PUSH1 0x4 MSTORE PUSH1 0x24 PUSH1 0x0 REVERT JUMPDEST PUSH1 0x0 JUMPDEST DUP4 DUP2 LT PUSH2 0xF8C JUMPI POP POP PUSH1 0x0 SWAP2 ADD MSTORE JUMP JUMPDEST DUP2 DUP2 ADD MLOAD DUP4 DUP3 ADD MSTORE PUSH1 0x20 ADD PUSH2 0xF7C JUMP JUMPDEST SWAP1 PUSH1 0x20 SWAP2 PUSH2 0xFB5 DUP2 MLOAD DUP1 SWAP3 DUP2 DUP6 MSTORE DUP6 DUP1 DUP7 ADD SWAP2 ADD PUSH2 0xF79 JUMP JUMPDEST PUSH1 0x1F ADD PUSH1 0x1F NOT AND ADD ADD SWAP1 JUMP JUMPDEST PUSH1 0x40 SWAP1 PUSH1 0x3 NOT ADD SLT PUSH2 0xFE0 JUMPI PUSH1 0x4 CALLDATALOAD DUP1 ISZERO ISZERO DUP2 SUB PUSH2 0xFE0 JUMPI SWAP1 PUSH1 0x24 CALLDATALOAD SWAP1 JUMP JUMPDEST PUSH1 0x0 DUP1 REVERT JUMPDEST DUP2 PUSH1 0x1F DUP3 ADD SLT ISZERO PUSH2 0xFE0 JUMPI DUP1 MLOAD PUSH8 0xFFFFFFFFFFFFFFFF DUP2 GT PUSH2 0xF63 JUMPI PUSH1 0x40 MLOAD SWAP3 PUSH2 0x1019 PUSH1 0x1F DUP4 ADD PUSH1 0x1F NOT AND PUSH1 0x20 ADD DUP6 PUSH2 0xF41 JUMP JUMPDEST DUP2 DUP5 MSTORE PUSH1 0x20 DUP3 DUP5 ADD ADD GT PUSH2 0xFE0 JUMPI PUSH2 0x1037 SWAP2 PUSH1 0x20 DUP1 DUP6 ADD SWAP2 ADD PUSH2 0xF79 JUMP JUMPDEST SWAP1 JUMP JUMPDEST SWAP2 SWAP1 DUP3 SUB SWAP2 DUP3 GT PUSH2 0x1047 JUMPI JUMP JUMPDEST PUSH4 0x4E487B71 PUSH1 0xE0 SHL PUSH1 0x0 MSTORE PUSH1 0x11 PUSH1 0x4 MSTORE PUSH1 0x24 PUSH1 0x0 REVERT JUMPDEST SWAP2 SWAP1 DUP3 ADD DUP1 SWAP3 GT PUSH2 0x1047 JUMPI JUMP JUMPDEST PUSH1 0x2 PUSH1 0x0 SLOAD EQ PUSH2 0x107B JUMPI PUSH1 0x2 PUSH1 0x0 SSTORE JUMP JUMPDEST PUSH1 0x40 MLOAD PUSH3 0x461BCD PUSH1 0xE5 SHL DUP2 MSTORE PUSH1 0x20 PUSH1 0x4 DUP3 ADD MSTORE PUSH1 0x1F PUSH1 0x24 DUP3 ADD MSTORE PUSH32 0x5265656E7472616E637947756172643A207265656E7472616E742063616C6C00 PUSH1 0x44 DUP3 ADD MSTORE PUSH1 0x64 SWAP1 REVERT JUMPDEST PUSH1 0xFF AND DUP1 PUSH2 0x10CD JUMPI POP POP SWAP1 JUMP JUMPDEST PUSH1 0x1 SWAP2 SWAP3 POP EQ PUSH2 0x1037 JUMPI POP PUSH1 0x0 SWAP1 JUMP INVALID LOG2 PUSH5 0x6970667358 0x22 SLT KECCAK256 PUSH11 0xBF19D5F70476D15C140520 0xCC 0xAC DUP11 PUSH0 0xDD DUP2 EQ 0xC9 RETURNDATACOPY SWAP2 AND 0xA5 0x27 0x4C 0xBE PUSH32 0x848D3F5964736F6C634300081A00336F32195B7D0D8B110ADFB4D94D26620EC7 BALANCE SWAP1 MSTORE8 0xA8 SUB MUL JUMP 0x2D PUSH14 0xBBD62805BA9F60A034608B57601F PUSH2 0x58E CODESIZE DUP2 SWAP1 SUB SWAP2 DUP3 ADD PUSH1 0x1F NOT AND DUP4 ADD SWAP2 PUSH1 0x1 PUSH1 0x1 PUSH1 0x40 SHL SUB DUP4 GT DUP5 DUP5 LT OR PUSH1 0x90 JUMPI DUP1 DUP5 SWAP3 PUSH1 0x20 SWAP5 PUSH1 0x40 MSTORE DUP4 CODECOPY DUP2 ADD SUB SLT PUSH1 0x8B JUMPI MLOAD PUSH1 0x1 PUSH1 0x1 PUSH1 0xA0 SHL SUB DUP2 AND SWAP1 DUP2 SWAP1 SUB PUSH1 0x8B JUMPI DUP1 ISZERO PUSH1 0x7A JUMPI PUSH1 0x80 MSTORE PUSH1 0x40 MLOAD PUSH2 0x4E7 SWAP1 DUP2 PUSH2 0xA7 DUP3 CODECOPY PUSH1 0x80 MLOAD DUP2 DUP2 DUP2 PUSH1 0x82 ADD MSTORE DUP2 DUP2 PUSH2 0x1AF ADD MSTORE PUSH2 0x3D9 ADD MSTORE RETURN JUMPDEST PUSH4 0xD92E233D PUSH1 0xE0 SHL PUSH1 0x0 MSTORE PUSH1 0x4 PUSH1 0x0 REVERT JUMPDEST PUSH1 0x0 DUP1 REVERT JUMPDEST PUSH4 0x4E487B71 PUSH1 0xE0 SHL PUSH1 0x0 MSTORE PUSH1 0x41 PUSH1 0x4 MSTORE PUSH1 0x24 PUSH1 0x0 REVERT INVALID PUSH1 0x80 DUP1 PUSH1 0x40 MSTORE PUSH1 0x4 CALLDATASIZE LT ISZERO PUSH2 0x13 JUMPI PUSH1 0x0 DUP1 REVERT JUMPDEST PUSH1 0x0 CALLDATALOAD PUSH1 0xE0 SHR SWAP1 DUP2 PUSH4 0x15CC36F2 EQ PUSH2 0x368 JUMPI POP DUP1 PUSH4 0x1AEFB107 EQ PUSH2 0x32E JUMPI DUP1 PUSH4 0x4A4089CC EQ PUSH2 0x24D JUMPI DUP1 PUSH4 0x4C109FD8 EQ PUSH2 0x150 JUMPI DUP1 PUSH4 0x6DCEA85F EQ PUSH2 0xDF JUMPI DUP1 PUSH4 0x80F55605 EQ PUSH2 0xB6 JUMPI PUSH4 0xD8DFEB45 EQ PUSH2 0x6C JUMPI PUSH1 0x0 DUP1 REVERT JUMPDEST CALLVALUE PUSH2 0xB1 JUMPI PUSH1 0x0 CALLDATASIZE PUSH1 0x3 NOT ADD SLT PUSH2 0xB1 JUMPI PUSH1 0x40 MLOAD PUSH32 0x0 PUSH1 0x1 PUSH1 0x1 PUSH1 0xA0 SHL SUB AND DUP2 MSTORE PUSH1 0x20 SWAP1 RETURN JUMPDEST PUSH1 0x0 DUP1 REVERT JUMPDEST CALLVALUE PUSH2 0xB1 JUMPI PUSH1 0x0 CALLDATASIZE PUSH1 0x3 NOT ADD SLT PUSH2 0xB1 JUMPI PUSH1 0x0 SLOAD PUSH1 0x40 MLOAD PUSH1 0x1 PUSH1 0x1 PUSH1 0xA0 SHL SUB SWAP1 SWAP2 AND DUP2 MSTORE PUSH1 0x20 SWAP1 RETURN JUMPDEST CALLVALUE PUSH2 0xB1 JUMPI PUSH1 0x20 CALLDATASIZE PUSH1 0x3 NOT ADD SLT PUSH2 0xB1 JUMPI PUSH2 0xF8 PUSH2 0x44B JUMP JUMPDEST PUSH1 0x0 SLOAD SWAP1 PUSH1 0xFF DUP3 PUSH1 0xA0 SHR AND PUSH2 0x13F JUMPI PUSH1 0x1 PUSH1 0x1 PUSH1 0xA0 SHL SUB AND DUP1 ISZERO PUSH2 0x12E JUMPI PUSH1 0x1 PUSH1 0x1 PUSH1 0xA8 SHL SUB NOT SWAP1 SWAP2 AND OR PUSH1 0x1 PUSH1 0xA0 SHL OR PUSH1 0x0 SSTORE STOP JUMPDEST PUSH4 0xD92E233D PUSH1 0xE0 SHL PUSH1 0x0 MSTORE PUSH1 0x4 PUSH1 0x0 REVERT JUMPDEST PUSH4 0x309CB87 PUSH1 0xE5 SHL PUSH1 0x0 MSTORE PUSH1 0x4 PUSH1 0x0 REVERT JUMPDEST CALLVALUE PUSH2 0xB1 JUMPI PUSH1 0x40 CALLDATASIZE PUSH1 0x3 NOT ADD SLT PUSH2 0xB1 JUMPI PUSH2 0x169 PUSH2 0x44B JUMP JUMPDEST PUSH1 0x0 SLOAD PUSH1 0x1 PUSH1 0x1 PUSH1 0xA0 SHL SUB AND CALLER SUB PUSH2 0x23C JUMPI PUSH1 0x40 MLOAD PUSH4 0xA9059CBB PUSH1 0xE0 SHL DUP2 MSTORE PUSH1 0x1 PUSH1 0x1 PUSH1 0xA0 SHL SUB SWAP1 SWAP2 AND PUSH1 0x4 DUP3 ADD MSTORE PUSH1 0x24 DUP1 CALLDATALOAD SWAP1 DUP3 ADD MSTORE PUSH1 0x20 DUP2 DUP1 PUSH1 0x44 DUP2 ADD JUMPDEST SUB DUP2 PUSH1 0x0 PUSH32 0x0 PUSH1 0x1 PUSH1 0x1 PUSH1 0xA0 SHL SUB AND GAS CALL SWAP1 DUP2 ISZERO PUSH2 0x230 JUMPI PUSH1 0x0 SWAP2 PUSH2 0x201 JUMPI JUMPDEST POP ISZERO PUSH2 0x1F0 JUMPI STOP JUMPDEST PUSH4 0x12171D83 PUSH1 0xE3 SHL PUSH1 0x0 MSTORE PUSH1 0x4 PUSH1 0x0 REVERT JUMPDEST PUSH2 0x223 SWAP2 POP PUSH1 0x20 RETURNDATASIZE PUSH1 0x20 GT PUSH2 0x229 JUMPI JUMPDEST PUSH2 0x21B DUP2 DUP4 PUSH2 0x461 JUMP JUMPDEST DUP2 ADD SWAP1 PUSH2 0x499 JUMP JUMPDEST DUP2 PUSH2 0x1E8 JUMP JUMPDEST POP RETURNDATASIZE PUSH2 0x211 JUMP JUMPDEST PUSH1 0x40 MLOAD RETURNDATASIZE PUSH1 0x0 DUP3 RETURNDATACOPY RETURNDATASIZE SWAP1 REVERT JUMPDEST PUSH4 0x9E0125A9 PUSH1 0xE0 SHL PUSH1 0x0 MSTORE PUSH1 0x4 PUSH1 0x0 REVERT JUMPDEST CALLVALUE PUSH2 0xB1 JUMPI PUSH1 0x60 CALLDATASIZE PUSH1 0x3 NOT ADD SLT PUSH2 0xB1 JUMPI PUSH2 0x266 PUSH2 0x44B JUMP JUMPDEST PUSH1 0x24 CALLDATALOAD SWAP1 PUSH1 0x1 PUSH1 0x1 PUSH1 0xA0 SHL SUB DUP3 AND DUP3 SUB PUSH2 0xB1 JUMPI PUSH1 0x0 SLOAD PUSH1 0x44 CALLDATALOAD SWAP2 SWAP1 PUSH1 0x1 PUSH1 0x1 PUSH1 0xA0 SHL SUB AND CALLER SUB PUSH2 0x23C JUMPI DUP2 ISZERO PUSH2 0x13F JUMPI PUSH1 0x1 PUSH1 0x1 PUSH1 0xA0 SHL SUB AND PUSH1 0x0 DUP2 DUP2 MSTORE PUSH1 0x1 PUSH1 0x20 MSTORE PUSH1 0x40 SWAP1 KECCAK256 SLOAD SWAP3 SWAP1 SWAP2 SWAP1 DUP2 DUP5 LT PUSH2 0x31D JUMPI DUP2 DUP5 SUB SWAP4 DUP5 GT PUSH2 0x307 JUMPI PUSH1 0x0 SWAP3 DUP4 MSTORE PUSH1 0x1 PUSH1 0x20 SWAP1 DUP2 MSTORE PUSH1 0x40 SWAP4 DUP5 SWAP1 KECCAK256 SWAP5 SWAP1 SWAP5 SSTORE SWAP2 MLOAD PUSH4 0xA9059CBB PUSH1 0xE0 SHL DUP2 MSTORE PUSH1 0x1 PUSH1 0x1 PUSH1 0xA0 SHL SUB SWAP1 SWAP3 AND PUSH1 0x4 DUP4 ADD MSTORE PUSH1 0x24 DUP3 ADD MSTORE SWAP1 DUP2 DUP1 PUSH1 0x44 DUP2 ADD PUSH2 0x1A9 JUMP JUMPDEST PUSH4 0x4E487B71 PUSH1 0xE0 SHL PUSH1 0x0 MSTORE PUSH1 0x11 PUSH1 0x4 MSTORE PUSH1 0x24 PUSH1 0x0 REVERT JUMPDEST PUSH4 0x3A23D825 PUSH1 0xE0 SHL PUSH1 0x0 MSTORE PUSH1 0x4 PUSH1 0x0 REVERT JUMPDEST CALLVALUE PUSH2 0xB1 JUMPI PUSH1 0x20 CALLDATASIZE PUSH1 0x3 NOT ADD SLT PUSH2 0xB1 JUMPI PUSH1 0x1 PUSH1 0x1 PUSH1 0xA0 SHL SUB PUSH2 0x34F PUSH2 0x44B JUMP JUMPDEST AND PUSH1 0x0 MSTORE PUSH1 0x1 PUSH1 0x20 MSTORE PUSH1 0x20 PUSH1 0x40 PUSH1 0x0 KECCAK256 SLOAD PUSH1 0x40 MLOAD SWAP1 DUP2 MSTORE RETURN JUMPDEST CALLVALUE PUSH2 0xB1 JUMPI PUSH1 0x40 CALLDATASIZE PUSH1 0x3 NOT ADD SLT PUSH2 0xB1 JUMPI PUSH2 0x381 PUSH2 0x44B JUMP JUMPDEST PUSH1 0x0 SLOAD PUSH1 0x24 CALLDATALOAD SWAP3 SWAP2 SWAP1 PUSH1 0x1 PUSH1 0x1 PUSH1 0xA0 SHL SUB AND CALLER SUB PUSH2 0x23C JUMPI DUP3 ISZERO PUSH2 0x13F JUMPI PUSH4 0x23B872DD PUSH1 0xE0 SHL DUP3 MSTORE PUSH1 0x1 PUSH1 0x1 PUSH1 0xA0 SHL SUB SWAP1 DUP2 AND PUSH1 0x4 DUP4 ADD DUP2 SWAP1 MSTORE ADDRESS PUSH1 0x24 DUP5 ADD MSTORE PUSH1 0x44 DUP4 ADD DUP5 SWAP1 MSTORE SWAP2 SWAP1 PUSH1 0x20 SWAP1 DUP3 SWAP1 PUSH1 0x64 SWAP1 DUP3 SWAP1 PUSH1 0x0 SWAP1 PUSH32 0x0 AND GAS CALL SWAP1 DUP2 ISZERO PUSH2 0x230 JUMPI PUSH1 0x0 SWAP2 PUSH2 0x42C JUMPI JUMPDEST POP ISZERO PUSH2 0x1F0 JUMPI PUSH1 0x0 MSTORE PUSH1 0x1 PUSH1 0x20 MSTORE PUSH1 0x40 PUSH1 0x0 KECCAK256 DUP1 SLOAD SWAP2 DUP3 ADD DUP1 SWAP3 GT PUSH2 0x307 JUMPI SSTORE STOP JUMPDEST PUSH2 0x445 SWAP2 POP PUSH1 0x20 RETURNDATASIZE PUSH1 0x20 GT PUSH2 0x229 JUMPI PUSH2 0x21B DUP2 DUP4 PUSH2 0x461 JUMP JUMPDEST DUP4 PUSH2 0x40A JUMP JUMPDEST PUSH1 0x4 CALLDATALOAD SWAP1 PUSH1 0x1 PUSH1 0x1 PUSH1 0xA0 SHL SUB DUP3 AND DUP3 SUB PUSH2 0xB1 JUMPI JUMP JUMPDEST SWAP1 PUSH1 0x1F DUP1 NOT SWAP2 ADD AND DUP2 ADD SWAP1 DUP2 LT PUSH8 0xFFFFFFFFFFFFFFFF DUP3 GT OR PUSH2 0x483 JUMPI PUSH1 0x40 MSTORE JUMP JUMPDEST PUSH4 0x4E487B71 PUSH1 0xE0 SHL PUSH1 0x0 MSTORE PUSH1 0x41 PUSH1 0x4 MSTORE PUSH1 0x24 PUSH1 0x0 REVERT JUMPDEST SWAP1 DUP2 PUSH1 0x20 SWAP2 SUB SLT PUSH2 0xB1 JUMPI MLOAD DUP1 ISZERO ISZERO DUP2 SUB PUSH2 0xB1 JUMPI SWAP1 JUMP INVALID LOG2 PUSH5 0x6970667358 0x22 SLT KECCAK256 PUSH17 0x58E27918CF68BE1EF10C1E83C854B3E9FB MULMOD 0xD8 0xAE 0xD1 PUSH3 0xF00831 0xBB 0x27 0x2C 0xC1 0xD 0xF8 PUSH5 0x736F6C6343 STOP ADDMOD BYTE STOP CALLER LOG2 PUSH5 0x6970667358 0x22 SLT KECCAK256 DUP16 0xA6 TSTORE OR 0xC 0xC 0x21 0x2F 0xBE PUSH25 0x45E00D838B9BF1220BC84644CC9E304D4066D1D1B30064736F PUSH13 0x634300081A0033000000000000 "},"methodIdentifiers":{"admin()":"f851a440","computeMarketId(address,string,uint256)":"b9dc6456","createMarket(address,string,uint256,uint16)":"43ca9fe9","createMarketWithOracle(address,string,uint256,uint16,address)":"7df66f76","feeRecipient()":"46904840","flatFee()":"d9eb5947","oracle()":"7dc0d1d0","setAdmin(address)":"704b6c02","setFeeRecipient(address)":"e74b981b","setFlatFee(uint256)":"23fa495a","setOracle(address)":"7adbf973"}}}}}