{"contracts/security/Slashing.sol":{"Slashing":{"abi":[{"inputs":[{"internalType":"address","name":"avs_","type":"address"}],"stateMutability":"nonpayable","type":"constructor"},{"inputs":[],"name":"InsufficientBalance","type":"error"},{"inputs":[],"name":"InvalidParameter","type":"error"},{"inputs":[],"name":"Unauthorized","type":"error"},{"inputs":[],"name":"ZeroAddress","type":"error"},{"anonymous":false,"inputs":[{"indexed":true,"internalType":"address","name":"operator","type":"address"},{"indexed":false,"internalType":"uint256","name":"amount","type":"uint256"}],"name":"Slashed","type":"event"},{"anonymous":false,"inputs":[{"indexed":true,"internalType":"address","name":"operator","type":"address"},{"indexed":false,"internalType":"uint256","name":"amount","type":"uint256"}],"name":"StakeAdded","type":"event"},{"anonymous":false,"inputs":[{"indexed":true,"internalType":"address","name":"operator","type":"address"},{"indexed":false,"internalType":"uint256","name":"amount","type":"uint256"}],"name":"StakeRemoved","type":"event"},{"inputs":[{"internalType":"address","name":"operator","type":"address"},{"internalType":"uint256","name":"amount","type":"uint256"}],"name":"addStake","outputs":[],"stateMutability":"nonpayable","type":"function"},{"inputs":[],"name":"avs","outputs":[{"internalType":"address","name":"","type":"address"}],"stateMutability":"view","type":"function"},{"inputs":[{"internalType":"address","name":"operator","type":"address"},{"internalType":"uint256","name":"amount","type":"uint256"}],"name":"removeStake","outputs":[],"stateMutability":"nonpayable","type":"function"},{"inputs":[{"internalType":"address","name":"operator","type":"address"},{"internalType":"uint256","name":"amount","type":"uint256"}],"name":"slash","outputs":[],"stateMutability":"nonpayable","type":"function"},{"inputs":[{"internalType":"address","name":"","type":"address"}],"name":"stake","outputs":[{"internalType":"uint256","name":"","type":"uint256"}],"stateMutability":"view","type":"function"},{"inputs":[],"name":"totalSlashed","outputs":[{"internalType":"uint256","name":"","type":"uint256"}],"stateMutability":"view","type":"function"}],"evm":{"bytecode":{"linkReferences":{},"object":"60a034608257601f61044338819003918201601f19168301916001600160401b03831184841017608757808492602094604052833981010312608257516001600160a01b038116808203608257156071576080526040516103a5908161009e8239608051818181607401526102560152f35b63d92e233d60e01b60005260046000fd5b600080fd5b634e487b7160e01b600052604160045260246000fdfe6080604052600436101561001257600080fd5b60003560e01c806302fb4d851461023757806326476204146101fd5780636374299e1461018557806368ce7d8a146100c6578063a201bbdd146100a85763de1164bb1461005e57600080fd5b346100a35760003660031901126100a3576040517f00000000000000000000000000000000000000000000000000000000000000006001600160a01b03168152602090f35b600080fd5b346100a35760003660031901126100a3576020600154604051908152f35b346100a35760403660031901126100a3576100df610329565b6001600160a01b0316602435811561017457801561016357816000526000602052604060002054808211610152578161013b7fa018dcbc822f59fb0d0c3e7a86c8e4259b9676cdea9e5fc26279b9c4c5d86eef9360209361033f565b8460005260008352604060002055604051908152a2005b631e9acf1760e31b60005260046000fd5b630309cb8760e51b60005260046000fd5b63d92e233d60e01b60005260046000fd5b346100a35760403660031901126100a35761019e610329565b6001600160a01b031660243581156101745780156101635760207f7c717985ac273e663b7f3050f5b15a4388ff6ed952338954f650e2093e13937f91836000526000825260406000206101f2828254610362565b9055604051908152a2005b346100a35760203660031901126100a3576001600160a01b0361021e610329565b1660005260006020526020604060002054604051908152f35b346100a35760403660031901126100a357610250610329565b602435907f00000000000000000000000000000000000000000000000000000000000000006001600160a01b03163303610319576001600160a01b031690811561017457801561016357816000526000602052604060002054908115610163577f4ed05e9673c26d2ed44f7ef6a7f2942df0ee3b5e1e17db4b99f9dcd261a339cd916020918181111561030e57506102e8818061033f565b846000526000835260406000205561030281600154610362565b600155604051908152a2005b6102e890809261033f565b6282b42960e81b60005260046000fd5b600435906001600160a01b03821682036100a357565b9190820391821161034c57565b634e487b7160e01b600052601160045260246000fd5b9190820180921161034c5756fea2646970667358221220075d2f0494d33c31903287133f36c6d0de25c73a554acdf8098242aa590b428f64736f6c634300081a0033","opcodes":"PUSH1 0xA0 CALLVALUE PUSH1 0x82 JUMPI PUSH1 0x1F PUSH2 0x443 CODESIZE DUP2 SWAP1 SUB SWAP2 DUP3 ADD PUSH1 0x1F NOT AND DUP4 ADD SWAP2 PUSH1 0x1 PUSH1 0x1 PUSH1 0x40 SHL SUB DUP4 GT DUP5 DUP5 LT OR PUSH1 0x87 JUMPI DUP1 DUP5 SWAP3 PUSH1 0x20 SWAP5 PUSH1 0x40 MSTORE DUP4 CODECOPY DUP2 ADD SUB SLT PUSH1 0x82 JUMPI MLOAD PUSH1 0x1 PUSH1 0x1 PUSH1 0xA0 SHL SUB DUP2 AND DUP1 DUP3 SUB PUSH1 0x82 JUMPI ISZERO PUSH1 0x71 JUMPI PUSH1 0x80 MSTORE PUSH1 0x40 MLOAD PUSH2 0x3A5 SWAP1 DUP2 PUSH2 0x9E DUP3 CODECOPY PUSH1 0x80 MLOAD DUP2 DUP2 DUP2 PUSH1 0x74 ADD MSTORE PUSH2 0x256 ADD MSTORE RETURN JUMPDEST PUSH4 0xD92E233D PUSH1 0xE0 SHL PUSH1 0x0 MSTORE PUSH1 0x4 PUSH1 0x0 REVERT JUMPDEST PUSH1 0x0 DUP1 REVERT JUMPDEST PUSH4 0x4E487B71 PUSH1 0xE0 SHL PUSH1 0x0 MSTORE PUSH1 0x41 PUSH1 0x4 MSTORE PUSH1 0x24 PUSH1 0x0 REVERT INVALID PUSH1 0x80 PUSH1 0x40 MSTORE PUSH1 0x4 CALLDATASIZE LT ISZERO PUSH2 0x12 JUMPI PUSH1 0x0 DUP1 REVERT JUMPDEST PUSH1 0x0 CALLDATALOAD PUSH1 0xE0 SHR DUP1 PUSH4 0x2FB4D85 EQ PUSH2 0x237 JUMPI DUP1 PUSH4 0x26476204 EQ PUSH2 0x1FD JUMPI DUP1 PUSH4 0x6374299E EQ PUSH2 0x185 JUMPI DUP1 PUSH4 0x68CE7D8A EQ PUSH2 0xC6 JUMPI DUP1 PUSH4 0xA201BBDD EQ PUSH2 0xA8 JUMPI PUSH4 0xDE1164BB EQ PUSH2 0x5E JUMPI PUSH1 0x0 DUP1 REVERT JUMPDEST CALLVALUE PUSH2 0xA3 JUMPI PUSH1 0x0 CALLDATASIZE PUSH1 0x3 NOT ADD SLT PUSH2 0xA3 JUMPI PUSH1 0x40 MLOAD PUSH32 0x0 PUSH1 0x1 PUSH1 0x1 PUSH1 0xA0 SHL SUB AND DUP2 MSTORE PUSH1 0x20 SWAP1 RETURN JUMPDEST PUSH1 0x0 DUP1 REVERT JUMPDEST CALLVALUE PUSH2 0xA3 JUMPI PUSH1 0x0 CALLDATASIZE PUSH1 0x3 NOT ADD SLT PUSH2 0xA3 JUMPI PUSH1 0x20 PUSH1 0x1 SLOAD PUSH1 0x40 MLOAD SWAP1 DUP2 MSTORE RETURN JUMPDEST CALLVALUE PUSH2 0xA3 JUMPI PUSH1 0x40 CALLDATASIZE PUSH1 0x3 NOT ADD SLT PUSH2 0xA3 JUMPI PUSH2 0xDF PUSH2 0x329 JUMP JUMPDEST PUSH1 0x1 PUSH1 0x1 PUSH1 0xA0 SHL SUB AND PUSH1 0x24 CALLDATALOAD DUP2 ISZERO PUSH2 0x174 JUMPI DUP1 ISZERO PUSH2 0x163 JUMPI DUP2 PUSH1 0x0 MSTORE PUSH1 0x0 PUSH1 0x20 MSTORE PUSH1 0x40 PUSH1 0x0 KECCAK256 SLOAD DUP1 DUP3 GT PUSH2 0x152 JUMPI DUP2 PUSH2 0x13B PUSH32 0xA018DCBC822F59FB0D0C3E7A86C8E4259B9676CDEA9E5FC26279B9C4C5D86EEF SWAP4 PUSH1 0x20 SWAP4 PUSH2 0x33F JUMP JUMPDEST DUP5 PUSH1 0x0 MSTORE PUSH1 0x0 DUP4 MSTORE PUSH1 0x40 PUSH1 0x0 KECCAK256 SSTORE PUSH1 0x40 MLOAD SWAP1 DUP2 MSTORE LOG2 STOP JUMPDEST PUSH4 0x1E9ACF17 PUSH1 0xE3 SHL PUSH1 0x0 MSTORE PUSH1 0x4 PUSH1 0x0 REVERT JUMPDEST PUSH4 0x309CB87 PUSH1 0xE5 SHL PUSH1 0x0 MSTORE PUSH1 0x4 PUSH1 0x0 REVERT JUMPDEST PUSH4 0xD92E233D PUSH1 0xE0 SHL PUSH1 0x0 MSTORE PUSH1 0x4 PUSH1 0x0 REVERT JUMPDEST CALLVALUE PUSH2 0xA3 JUMPI PUSH1 0x40 CALLDATASIZE PUSH1 0x3 NOT ADD SLT PUSH2 0xA3 JUMPI PUSH2 0x19E PUSH2 0x329 JUMP JUMPDEST PUSH1 0x1 PUSH1 0x1 PUSH1 0xA0 SHL SUB AND PUSH1 0x24 CALLDATALOAD DUP2 ISZERO PUSH2 0x174 JUMPI DUP1 ISZERO PUSH2 0x163 JUMPI PUSH1 0x20 PUSH32 0x7C717985AC273E663B7F3050F5B15A4388FF6ED952338954F650E2093E13937F SWAP2 DUP4 PUSH1 0x0 MSTORE PUSH1 0x0 DUP3 MSTORE PUSH1 0x40 PUSH1 0x0 KECCAK256 PUSH2 0x1F2 DUP3 DUP3 SLOAD PUSH2 0x362 JUMP JUMPDEST SWAP1 SSTORE PUSH1 0x40 MLOAD SWAP1 DUP2 MSTORE LOG2 STOP JUMPDEST CALLVALUE PUSH2 0xA3 JUMPI PUSH1 0x20 CALLDATASIZE PUSH1 0x3 NOT ADD SLT PUSH2 0xA3 JUMPI PUSH1 0x1 PUSH1 0x1 PUSH1 0xA0 SHL SUB PUSH2 0x21E PUSH2 0x329 JUMP JUMPDEST AND PUSH1 0x0 MSTORE PUSH1 0x0 PUSH1 0x20 MSTORE PUSH1 0x20 PUSH1 0x40 PUSH1 0x0 KECCAK256 SLOAD PUSH1 0x40 MLOAD SWAP1 DUP2 MSTORE RETURN JUMPDEST CALLVALUE PUSH2 0xA3 JUMPI PUSH1 0x40 CALLDATASIZE PUSH1 0x3 NOT ADD SLT PUSH2 0xA3 JUMPI PUSH2 0x250 PUSH2 0x329 JUMP JUMPDEST PUSH1 0x24 CALLDATALOAD SWAP1 PUSH32 0x0 PUSH1 0x1 PUSH1 0x1 PUSH1 0xA0 SHL SUB AND CALLER SUB PUSH2 0x319 JUMPI PUSH1 0x1 PUSH1 0x1 PUSH1 0xA0 SHL SUB AND SWAP1 DUP2 ISZERO PUSH2 0x174 JUMPI DUP1 ISZERO PUSH2 0x163 JUMPI DUP2 PUSH1 0x0 MSTORE PUSH1 0x0 PUSH1 0x20 MSTORE PUSH1 0x40 PUSH1 0x0 KECCAK256 SLOAD SWAP1 DUP2 ISZERO PUSH2 0x163 JUMPI PUSH32 0x4ED05E9673C26D2ED44F7EF6A7F2942DF0EE3B5E1E17DB4B99F9DCD261A339CD SWAP2 PUSH1 0x20 SWAP2 DUP2 DUP2 GT ISZERO PUSH2 0x30E JUMPI POP PUSH2 0x2E8 DUP2 DUP1 PUSH2 0x33F JUMP JUMPDEST DUP5 PUSH1 0x0 MSTORE PUSH1 0x0 DUP4 MSTORE PUSH1 0x40 PUSH1 0x0 KECCAK256 SSTORE PUSH2 0x302 DUP2 PUSH1 0x1 SLOAD PUSH2 0x362 JUMP JUMPDEST PUSH1 0x1 SSTORE PUSH1 0x40 MLOAD SWAP1 DUP2 MSTORE LOG2 STOP JUMPDEST PUSH2 0x2E8 SWAP1 DUP1 SWAP3 PUSH2 0x33F JUMP JUMPDEST PUSH3 0x82B429 PUSH1 0xE8 SHL PUSH1 0x0 MSTORE PUSH1 0x4 PUSH1 0x0 REVERT JUMPDEST PUSH1 0x4 CALLDATALOAD SWAP1 PUSH1 0x1 PUSH1 0x1 PUSH1 0xA0 SHL SUB DUP3 AND DUP3 SUB PUSH2 0xA3 JUMPI JUMP JUMPDEST SWAP2 SWAP1 DUP3 SUB SWAP2 DUP3 GT PUSH2 0x34C JUMPI JUMP JUMPDEST PUSH4 0x4E487B71 PUSH1 0xE0 SHL PUSH1 0x0 MSTORE PUSH1 0x11 PUSH1 0x4 MSTORE PUSH1 0x24 PUSH1 0x0 REVERT JUMPDEST SWAP2 SWAP1 DUP3 ADD DUP1 SWAP3 GT PUSH2 0x34C JUMPI JUMP INVALID LOG2 PUSH5 0x6970667358 0x22 SLT KECCAK256 SMOD TSTORE 0x2F DIV SWAP5 0xD3 EXTCODECOPY BALANCE SWAP1 ORIGIN DUP8 SGT EXTCODEHASH CALLDATASIZE 0xC6 0xD0 0xDE 0x25 0xC7 GASPRICE SSTORE BLOBBASEFEE 0xCD 0xF8 MULMOD DUP3 TIMESTAMP 0xAA MSIZE SIGNEXTEND TIMESTAMP DUP16 PUSH5 0x736F6C6343 STOP ADDMOD BYTE STOP CALLER "},"methodIdentifiers":{"addStake(address,uint256)":"6374299e","avs()":"de1164bb","removeStake(address,uint256)":"68ce7d8a","slash(address,uint256)":"02fb4d85","stake(address)":"26476204","totalSlashed()":"a201bbdd"}}}}}