{"contracts/adapter/GnosisAdapter.sol":{"GnosisAdapter":{"abi":[{"inputs":[{"internalType":"address","name":"veyraOracleAVS_","type":"address"},{"internalType":"address","name":"conditionalTokens_","type":"address"},{"internalType":"address","name":"admin_","type":"address"}],"stateMutability":"nonpayable","type":"constructor"},{"inputs":[],"name":"AlreadyFulfilled","type":"error"},{"inputs":[],"name":"NotFound","type":"error"},{"inputs":[],"name":"OnlyAdmin","type":"error"},{"inputs":[],"name":"ZeroAddress","type":"error"},{"anonymous":false,"inputs":[{"indexed":true,"internalType":"bytes32","name":"conditionId","type":"bytes32"},{"indexed":true,"internalType":"bytes32","name":"requestId","type":"bytes32"},{"indexed":false,"internalType":"bytes32","name":"questionId","type":"bytes32"},{"indexed":false,"internalType":"uint256","name":"outcomeSlotCount","type":"uint256"}],"name":"ConditionHandled","type":"event"},{"anonymous":false,"inputs":[{"indexed":true,"internalType":"bytes32","name":"conditionId","type":"bytes32"},{"indexed":true,"internalType":"bytes32","name":"requestId","type":"bytes32"},{"indexed":false,"internalType":"bool","name":"outcome","type":"bool"}],"name":"ConditionResolved","type":"event"},{"inputs":[],"name":"admin","outputs":[{"internalType":"address","name":"","type":"address"}],"stateMutability":"view","type":"function"},{"inputs":[{"internalType":"bytes32","name":"","type":"bytes32"}],"name":"conditionResolved","outputs":[{"internalType":"bool","name":"","type":"bool"}],"stateMutability":"view","type":"function"},{"inputs":[{"internalType":"bytes32","name":"","type":"bytes32"}],"name":"conditionToRequest","outputs":[{"internalType":"bytes32","name":"","type":"bytes32"}],"stateMutability":"view","type":"function"},{"inputs":[],"name":"conditionalTokens","outputs":[{"internalType":"contract IGnosisConditionalTokens","name":"","type":"address"}],"stateMutability":"view","type":"function"},{"inputs":[{"internalType":"bytes32","name":"requestId","type":"bytes32"}],"name":"getConditionId","outputs":[{"internalType":"bytes32","name":"conditionId","type":"bytes32"}],"stateMutability":"view","type":"function"},{"inputs":[{"internalType":"bytes32","name":"conditionId","type":"bytes32"}],"name":"getRequestId","outputs":[{"internalType":"bytes32","name":"requestId","type":"bytes32"}],"stateMutability":"view","type":"function"},{"inputs":[{"internalType":"bytes32","name":"conditionId","type":"bytes32"},{"internalType":"bytes32","name":"questionId","type":"bytes32"},{"internalType":"uint256","name":"outcomeSlotCount","type":"uint256"},{"internalType":"bytes","name":"data","type":"bytes"}],"name":"handleCondition","outputs":[{"internalType":"bytes32","name":"requestId","type":"bytes32"}],"stateMutability":"nonpayable","type":"function"},{"inputs":[{"internalType":"bytes32","name":"","type":"bytes32"}],"name":"requestToCondition","outputs":[{"internalType":"bytes32","name":"","type":"bytes32"}],"stateMutability":"view","type":"function"},{"inputs":[{"internalType":"bytes32","name":"requestId","type":"bytes32"},{"internalType":"uint256","name":"outcomeSlotCount","type":"uint256"}],"name":"resolveCondition","outputs":[{"internalType":"bytes32","name":"conditionId","type":"bytes32"}],"stateMutability":"nonpayable","type":"function"},{"inputs":[],"name":"veyraOracleAVS","outputs":[{"internalType":"contract IVeyraOracleAVS","name":"","type":"address"}],"stateMutability":"view","type":"function"}],"evm":{"bytecode":{"linkReferences":{},"object":"60c0346100f957601f610b2238819003918201601f19168301916001600160401b038311848410176100fe578084926060946040528339810103126100f95761004781610114565b61005f604061005860208501610114565b9301610114565b6001600160a01b039091169182156100e8576001600160a01b03169081156100e8576001600160a01b03169182156100e85760805260a052600080546001600160a01b0319169190911790556040516109f990816101298239608051818181610129015281816102f80152610618015260a05181818161016e0152818161025701526106820152f35b63d92e233d60e01b60005260046000fd5b600080fd5b634e487b7160e01b600052604160045260246000fd5b51906001600160a01b03821682036100f95756fe608080604052600436101561001357600080fd5b60003560e01c90816304329c031461042f5750806335c0c25e146103fe57806339ed28b4146101e95780634e4bdc7e1461019d5780635bd9e299146101585780636abe0ed4146101135780636b28ccf9146100e75780636ddf5730146100bb5780639d8b43a5146100bb5763f851a4401461008d57600080fd5b346100b65760003660031901126100b6576000546040516001600160a01b039091168152602090f35b600080fd5b346100b65760203660031901126100b65760043560005260016020526020604060002054604051908152f35b346100b65760203660031901126100b65760043560005260026020526020604060002054604051908152f35b346100b65760003660031901126100b6576040517f00000000000000000000000000000000000000000000000000000000000000006001600160a01b03168152602090f35b346100b65760003660031901126100b6576040517f00000000000000000000000000000000000000000000000000000000000000006001600160a01b03168152602090f35b346100b65760403660031901126100b6576000546001600160a01b031633036101d85760206101d06024356004356105e4565b604051908152f35b634755657960e01b60005260046000fd5b346100b65760803660031901126100b65760643560043567ffffffffffffffff82116100b657366023830112156100b65781600401359167ffffffffffffffff83116100b65736602484830101116100b65760405163a254aac760e01b8152600481018390526000816024817f00000000000000000000000000000000000000000000000000000000000000006001600160a01b03165afa9081156103bd576000916103da575b506103c9578160005260016020526040600020546103c9576024606460209285604051968794859363c243807160e01b855288600486015260408286015282604486015201848401376000838284010152601f80199101168101030181600060018060a01b037f0000000000000000000000000000000000000000000000000000000000000000165af19182156103bd57600092610386575b60208380848060005260018452816040600020558160005260028452806040600020557f8871d37b025fb5dd6cdcab646a73f39f617113c4d8337ed245825c4ef3db35e560408051602435815260443587820152a3604051908152f35b6020813d6020116103b5575b8161039f60209383610457565b810103126103b1575191506020610329565b8280fd5b3d9150610392565b6040513d6000823e3d90fd5b634a4117f960e01b60005260046000fd5b6103f791503d806000833e6103ef8183610457565b8101906104b4565b5084610290565b346100b65760203660031901126100b6576004356000526003602052602060ff604060002054166040519015158152f35b346100b65760203660031901126100b657602090600435600052600282526040600020548152f35b90601f8019910116810190811067ffffffffffffffff82111761047957604052565b634e487b7160e01b600052604160045260246000fd5b519081151582036100b657565b67ffffffffffffffff81116104795760051b60200190565b91906040838203126100b6576104c98361048f565b9260208101519067ffffffffffffffff82116100b657019080601f830112156100b65781516104f78161049c565b926105056040519485610457565b81845260208085019260051b8201019283116100b657602001905b82821061052d5750505090565b8151815260209182019101610520565b81601f820112156100b65780519067ffffffffffffffff82116104795760405192610572601f8401601f191660200185610457565b828452602083830101116100b65760005b82811061059857505060206000918301015290565b80602080928401015182828701015201610583565b8051156105ba5760200190565b634e487b7160e01b600052603260045260246000fd5b80518210156105ba5760209160051b010190565b60008181526002602052604081205493929084156109b4576040516396c59cc160e01b8152600481018490529181836024817f00000000000000000000000000000000000000000000000000000000000000006001600160a01b03165afa9283156107c4578290839461092f575b501561092057858252600360205260ff6040832054166109115760405163a254aac760e01b8152600481018790527f00000000000000000000000000000000000000000000000000000000000000006001600160a01b0316908381602481855afa9081156109065784916108eb575b506108a0576106cf8261049c565b916106dd6040519384610457565b8083526106e98161049c565b602084019190601f19013683378515610804576001610707856105ad565b5260015b8181106107ef5750505b813b156107eb57918391604051938492633124a62b60e21b845260448401908b60048601526040602486015251809152606484019190855b8181106107cf575050508383809203925af180156107c457926040836020937fd4f52ab5fba0009b912ee555cc8105b66284f4dc2f90c13f048c1b397aedd9b3958a976107b4575b879052506003845220805460ff191660011790556040519015158152a3565b6107bd91610457565b3881610795565b6040513d84823e3d90fd5b825184528896508795506020938401939092019160010161074d565b8380fd5b80866107fd600193886105d0565b520161070b565b8461080e856105ad565b526001811161081e575b50610715565b96939592979491906000198801978811978861088c576001610840828c6105d0565b526001895b610878578181101561086757808961085f6001938e6105d0565b520189610845565b505090919497929593965038610818565b634e487b7160e01b89526011600452602489fd5b634e487b7160e01b88526011600452602488fd5b5050602085949592604083857fd4f52ab5fba0009b912ee555cc8105b66284f4dc2f90c13f048c1b397aedd9b395526003845220600160ff198254161790556040519015158152a390565b6108ff91503d8086833e6103ef8183610457565b50386106c1565b6040513d86823e3d90fd5b634a4117f960e01b8252600482fd5b63c5723b5160e01b8252600482fd5b9350503d8083853e6109418185610457565b83016080848203126103b1576109568461048f565b90602085015167ffffffffffffffff81116109b0578161097791870161053d565b506109846040860161048f565b9460608101519067ffffffffffffffff82116109ac576109a592910161053d565b5038610652565b8580fd5b8480fd5b63c5723b5160e01b8152600490fdfea2646970667358221220f342fd4a666875690b2b8c41cf7016efa1ecd8825a53ffc012d178ff53254dcd64736f6c634300081a0033","opcodes":"PUSH1 0xC0 CALLVALUE PUSH2 0xF9 JUMPI PUSH1 0x1F PUSH2 0xB22 CODESIZE DUP2 SWAP1 SUB SWAP2 DUP3 ADD PUSH1 0x1F NOT AND DUP4 ADD SWAP2 PUSH1 0x1 PUSH1 0x1 PUSH1 0x40 SHL SUB DUP4 GT DUP5 DUP5 LT OR PUSH2 0xFE JUMPI DUP1 DUP5 SWAP3 PUSH1 0x60 SWAP5 PUSH1 0x40 MSTORE DUP4 CODECOPY DUP2 ADD SUB SLT PUSH2 0xF9 JUMPI PUSH2 0x47 DUP2 PUSH2 0x114 JUMP JUMPDEST PUSH2 0x5F PUSH1 0x40 PUSH2 0x58 PUSH1 0x20 DUP6 ADD PUSH2 0x114 JUMP JUMPDEST SWAP4 ADD PUSH2 0x114 JUMP JUMPDEST PUSH1 0x1 PUSH1 0x1 PUSH1 0xA0 SHL SUB SWAP1 SWAP2 AND SWAP2 DUP3 ISZERO PUSH2 0xE8 JUMPI PUSH1 0x1 PUSH1 0x1 PUSH1 0xA0 SHL SUB AND SWAP1 DUP2 ISZERO PUSH2 0xE8 JUMPI PUSH1 0x1 PUSH1 0x1 PUSH1 0xA0 SHL SUB AND SWAP2 DUP3 ISZERO PUSH2 0xE8 JUMPI PUSH1 0x80 MSTORE PUSH1 0xA0 MSTORE PUSH1 0x0 DUP1 SLOAD PUSH1 0x1 PUSH1 0x1 PUSH1 0xA0 SHL SUB NOT AND SWAP2 SWAP1 SWAP2 OR SWAP1 SSTORE PUSH1 0x40 MLOAD PUSH2 0x9F9 SWAP1 DUP2 PUSH2 0x129 DUP3 CODECOPY PUSH1 0x80 MLOAD DUP2 DUP2 DUP2 PUSH2 0x129 ADD MSTORE DUP2 DUP2 PUSH2 0x2F8 ADD MSTORE PUSH2 0x618 ADD MSTORE PUSH1 0xA0 MLOAD DUP2 DUP2 DUP2 PUSH2 0x16E ADD MSTORE DUP2 DUP2 PUSH2 0x257 ADD MSTORE PUSH2 0x682 ADD MSTORE RETURN JUMPDEST PUSH4 0xD92E233D PUSH1 0xE0 SHL PUSH1 0x0 MSTORE PUSH1 0x4 PUSH1 0x0 REVERT JUMPDEST PUSH1 0x0 DUP1 REVERT JUMPDEST PUSH4 0x4E487B71 PUSH1 0xE0 SHL PUSH1 0x0 MSTORE PUSH1 0x41 PUSH1 0x4 MSTORE PUSH1 0x24 PUSH1 0x0 REVERT JUMPDEST MLOAD SWAP1 PUSH1 0x1 PUSH1 0x1 PUSH1 0xA0 SHL SUB DUP3 AND DUP3 SUB PUSH2 0xF9 JUMPI JUMP INVALID PUSH1 0x80 DUP1 PUSH1 0x40 MSTORE PUSH1 0x4 CALLDATASIZE LT ISZERO PUSH2 0x13 JUMPI PUSH1 0x0 DUP1 REVERT JUMPDEST PUSH1 0x0 CALLDATALOAD PUSH1 0xE0 SHR SWAP1 DUP2 PUSH4 0x4329C03 EQ PUSH2 0x42F JUMPI POP DUP1 PUSH4 0x35C0C25E EQ PUSH2 0x3FE JUMPI DUP1 PUSH4 0x39ED28B4 EQ PUSH2 0x1E9 JUMPI DUP1 PUSH4 0x4E4BDC7E EQ PUSH2 0x19D JUMPI DUP1 PUSH4 0x5BD9E299 EQ PUSH2 0x158 JUMPI DUP1 PUSH4 0x6ABE0ED4 EQ PUSH2 0x113 JUMPI DUP1 PUSH4 0x6B28CCF9 EQ PUSH2 0xE7 JUMPI DUP1 PUSH4 0x6DDF5730 EQ PUSH2 0xBB JUMPI DUP1 PUSH4 0x9D8B43A5 EQ PUSH2 0xBB JUMPI PUSH4 0xF851A440 EQ PUSH2 0x8D JUMPI PUSH1 0x0 DUP1 REVERT JUMPDEST CALLVALUE PUSH2 0xB6 JUMPI PUSH1 0x0 CALLDATASIZE PUSH1 0x3 NOT ADD SLT PUSH2 0xB6 JUMPI PUSH1 0x0 SLOAD PUSH1 0x40 MLOAD PUSH1 0x1 PUSH1 0x1 PUSH1 0xA0 SHL SUB SWAP1 SWAP2 AND DUP2 MSTORE PUSH1 0x20 SWAP1 RETURN JUMPDEST PUSH1 0x0 DUP1 REVERT JUMPDEST CALLVALUE PUSH2 0xB6 JUMPI PUSH1 0x20 CALLDATASIZE PUSH1 0x3 NOT ADD SLT PUSH2 0xB6 JUMPI PUSH1 0x4 CALLDATALOAD PUSH1 0x0 MSTORE PUSH1 0x1 PUSH1 0x20 MSTORE PUSH1 0x20 PUSH1 0x40 PUSH1 0x0 KECCAK256 SLOAD PUSH1 0x40 MLOAD SWAP1 DUP2 MSTORE RETURN JUMPDEST CALLVALUE PUSH2 0xB6 JUMPI PUSH1 0x20 CALLDATASIZE PUSH1 0x3 NOT ADD SLT PUSH2 0xB6 JUMPI PUSH1 0x4 CALLDATALOAD PUSH1 0x0 MSTORE PUSH1 0x2 PUSH1 0x20 MSTORE PUSH1 0x20 PUSH1 0x40 PUSH1 0x0 KECCAK256 SLOAD PUSH1 0x40 MLOAD SWAP1 DUP2 MSTORE RETURN JUMPDEST CALLVALUE PUSH2 0xB6 JUMPI PUSH1 0x0 CALLDATASIZE PUSH1 0x3 NOT ADD SLT PUSH2 0xB6 JUMPI PUSH1 0x40 MLOAD PUSH32 0x0 PUSH1 0x1 PUSH1 0x1 PUSH1 0xA0 SHL SUB AND DUP2 MSTORE PUSH1 0x20 SWAP1 RETURN JUMPDEST CALLVALUE PUSH2 0xB6 JUMPI PUSH1 0x0 CALLDATASIZE PUSH1 0x3 NOT ADD SLT PUSH2 0xB6 JUMPI PUSH1 0x40 MLOAD PUSH32 0x0 PUSH1 0x1 PUSH1 0x1 PUSH1 0xA0 SHL SUB AND DUP2 MSTORE PUSH1 0x20 SWAP1 RETURN JUMPDEST CALLVALUE PUSH2 0xB6 JUMPI PUSH1 0x40 CALLDATASIZE PUSH1 0x3 NOT ADD SLT PUSH2 0xB6 JUMPI PUSH1 0x0 SLOAD PUSH1 0x1 PUSH1 0x1 PUSH1 0xA0 SHL SUB AND CALLER SUB PUSH2 0x1D8 JUMPI PUSH1 0x20 PUSH2 0x1D0 PUSH1 0x24 CALLDATALOAD PUSH1 0x4 CALLDATALOAD PUSH2 0x5E4 JUMP JUMPDEST PUSH1 0x40 MLOAD SWAP1 DUP2 MSTORE RETURN JUMPDEST PUSH4 0x47556579 PUSH1 0xE0 SHL PUSH1 0x0 MSTORE PUSH1 0x4 PUSH1 0x0 REVERT JUMPDEST CALLVALUE PUSH2 0xB6 JUMPI PUSH1 0x80 CALLDATASIZE PUSH1 0x3 NOT ADD SLT PUSH2 0xB6 JUMPI PUSH1 0x64 CALLDATALOAD PUSH1 0x4 CALLDATALOAD PUSH8 0xFFFFFFFFFFFFFFFF DUP3 GT PUSH2 0xB6 JUMPI CALLDATASIZE PUSH1 0x23 DUP4 ADD SLT ISZERO PUSH2 0xB6 JUMPI DUP2 PUSH1 0x4 ADD CALLDATALOAD SWAP2 PUSH8 0xFFFFFFFFFFFFFFFF DUP4 GT PUSH2 0xB6 JUMPI CALLDATASIZE PUSH1 0x24 DUP5 DUP4 ADD ADD GT PUSH2 0xB6 JUMPI PUSH1 0x40 MLOAD PUSH4 0xA254AAC7 PUSH1 0xE0 SHL DUP2 MSTORE PUSH1 0x4 DUP2 ADD DUP4 SWAP1 MSTORE PUSH1 0x0 DUP2 PUSH1 0x24 DUP2 PUSH32 0x0 PUSH1 0x1 PUSH1 0x1 PUSH1 0xA0 SHL SUB AND GAS STATICCALL SWAP1 DUP2 ISZERO PUSH2 0x3BD JUMPI PUSH1 0x0 SWAP2 PUSH2 0x3DA JUMPI JUMPDEST POP PUSH2 0x3C9 JUMPI DUP2 PUSH1 0x0 MSTORE PUSH1 0x1 PUSH1 0x20 MSTORE PUSH1 0x40 PUSH1 0x0 KECCAK256 SLOAD PUSH2 0x3C9 JUMPI PUSH1 0x24 PUSH1 0x64 PUSH1 0x20 SWAP3 DUP6 PUSH1 0x40 MLOAD SWAP7 DUP8 SWAP5 DUP6 SWAP4 PUSH4 0xC2438071 PUSH1 0xE0 SHL DUP6 MSTORE DUP9 PUSH1 0x4 DUP7 ADD MSTORE PUSH1 0x40 DUP3 DUP7 ADD MSTORE DUP3 PUSH1 0x44 DUP7 ADD MSTORE ADD DUP5 DUP5 ADD CALLDATACOPY PUSH1 0x0 DUP4 DUP3 DUP5 ADD ADD MSTORE PUSH1 0x1F DUP1 NOT SWAP2 ADD AND DUP2 ADD SUB ADD DUP2 PUSH1 0x0 PUSH1 0x1 DUP1 PUSH1 0xA0 SHL SUB PUSH32 0x0 AND GAS CALL SWAP2 DUP3 ISZERO PUSH2 0x3BD JUMPI PUSH1 0x0 SWAP3 PUSH2 0x386 JUMPI JUMPDEST PUSH1 0x20 DUP4 DUP1 DUP5 DUP1 PUSH1 0x0 MSTORE PUSH1 0x1 DUP5 MSTORE DUP2 PUSH1 0x40 PUSH1 0x0 KECCAK256 SSTORE DUP2 PUSH1 0x0 MSTORE PUSH1 0x2 DUP5 MSTORE DUP1 PUSH1 0x40 PUSH1 0x0 KECCAK256 SSTORE PUSH32 0x8871D37B025FB5DD6CDCAB646A73F39F617113C4D8337ED245825C4EF3DB35E5 PUSH1 0x40 DUP1 MLOAD PUSH1 0x24 CALLDATALOAD DUP2 MSTORE PUSH1 0x44 CALLDATALOAD DUP8 DUP3 ADD MSTORE LOG3 PUSH1 0x40 MLOAD SWAP1 DUP2 MSTORE RETURN JUMPDEST PUSH1 0x20 DUP2 RETURNDATASIZE PUSH1 0x20 GT PUSH2 0x3B5 JUMPI JUMPDEST DUP2 PUSH2 0x39F PUSH1 0x20 SWAP4 DUP4 PUSH2 0x457 JUMP JUMPDEST DUP2 ADD SUB SLT PUSH2 0x3B1 JUMPI MLOAD SWAP2 POP PUSH1 0x20 PUSH2 0x329 JUMP JUMPDEST DUP3 DUP1 REVERT JUMPDEST RETURNDATASIZE SWAP2 POP PUSH2 0x392 JUMP JUMPDEST PUSH1 0x40 MLOAD RETURNDATASIZE PUSH1 0x0 DUP3 RETURNDATACOPY RETURNDATASIZE SWAP1 REVERT JUMPDEST PUSH4 0x4A4117F9 PUSH1 0xE0 SHL PUSH1 0x0 MSTORE PUSH1 0x4 PUSH1 0x0 REVERT JUMPDEST PUSH2 0x3F7 SWAP2 POP RETURNDATASIZE DUP1 PUSH1 0x0 DUP4 RETURNDATACOPY PUSH2 0x3EF DUP2 DUP4 PUSH2 0x457 JUMP JUMPDEST DUP2 ADD SWAP1 PUSH2 0x4B4 JUMP JUMPDEST POP DUP5 PUSH2 0x290 JUMP JUMPDEST CALLVALUE PUSH2 0xB6 JUMPI PUSH1 0x20 CALLDATASIZE PUSH1 0x3 NOT ADD SLT PUSH2 0xB6 JUMPI PUSH1 0x4 CALLDATALOAD PUSH1 0x0 MSTORE PUSH1 0x3 PUSH1 0x20 MSTORE PUSH1 0x20 PUSH1 0xFF PUSH1 0x40 PUSH1 0x0 KECCAK256 SLOAD AND PUSH1 0x40 MLOAD SWAP1 ISZERO ISZERO DUP2 MSTORE RETURN JUMPDEST CALLVALUE PUSH2 0xB6 JUMPI PUSH1 0x20 CALLDATASIZE PUSH1 0x3 NOT ADD SLT PUSH2 0xB6 JUMPI PUSH1 0x20 SWAP1 PUSH1 0x4 CALLDATALOAD PUSH1 0x0 MSTORE PUSH1 0x2 DUP3 MSTORE PUSH1 0x40 PUSH1 0x0 KECCAK256 SLOAD DUP2 MSTORE RETURN JUMPDEST SWAP1 PUSH1 0x1F DUP1 NOT SWAP2 ADD AND DUP2 ADD SWAP1 DUP2 LT PUSH8 0xFFFFFFFFFFFFFFFF DUP3 GT OR PUSH2 0x479 JUMPI PUSH1 0x40 MSTORE JUMP JUMPDEST PUSH4 0x4E487B71 PUSH1 0xE0 SHL PUSH1 0x0 MSTORE PUSH1 0x41 PUSH1 0x4 MSTORE PUSH1 0x24 PUSH1 0x0 REVERT JUMPDEST MLOAD SWAP1 DUP2 ISZERO ISZERO DUP3 SUB PUSH2 0xB6 JUMPI JUMP JUMPDEST PUSH8 0xFFFFFFFFFFFFFFFF DUP2 GT PUSH2 0x479 JUMPI PUSH1 0x5 SHL PUSH1 0x20 ADD SWAP1 JUMP JUMPDEST SWAP2 SWAP1 PUSH1 0x40 DUP4 DUP3 SUB SLT PUSH2 0xB6 JUMPI PUSH2 0x4C9 DUP4 PUSH2 0x48F JUMP JUMPDEST SWAP3 PUSH1 0x20 DUP2 ADD MLOAD SWAP1 PUSH8 0xFFFFFFFFFFFFFFFF DUP3 GT PUSH2 0xB6 JUMPI ADD SWAP1 DUP1 PUSH1 0x1F DUP4 ADD SLT ISZERO PUSH2 0xB6 JUMPI DUP2 MLOAD PUSH2 0x4F7 DUP2 PUSH2 0x49C JUMP JUMPDEST SWAP3 PUSH2 0x505 PUSH1 0x40 MLOAD SWAP5 DUP6 PUSH2 0x457 JUMP JUMPDEST DUP2 DUP5 MSTORE PUSH1 0x20 DUP1 DUP6 ADD SWAP3 PUSH1 0x5 SHL DUP3 ADD ADD SWAP3 DUP4 GT PUSH2 0xB6 JUMPI PUSH1 0x20 ADD SWAP1 JUMPDEST DUP3 DUP3 LT PUSH2 0x52D JUMPI POP POP POP SWAP1 JUMP JUMPDEST DUP2 MLOAD DUP2 MSTORE PUSH1 0x20 SWAP2 DUP3 ADD SWAP2 ADD PUSH2 0x520 JUMP JUMPDEST DUP2 PUSH1 0x1F DUP3 ADD SLT ISZERO PUSH2 0xB6 JUMPI DUP1 MLOAD SWAP1 PUSH8 0xFFFFFFFFFFFFFFFF DUP3 GT PUSH2 0x479 JUMPI PUSH1 0x40 MLOAD SWAP3 PUSH2 0x572 PUSH1 0x1F DUP5 ADD PUSH1 0x1F NOT AND PUSH1 0x20 ADD DUP6 PUSH2 0x457 JUMP JUMPDEST DUP3 DUP5 MSTORE PUSH1 0x20 DUP4 DUP4 ADD ADD GT PUSH2 0xB6 JUMPI PUSH1 0x0 JUMPDEST DUP3 DUP2 LT PUSH2 0x598 JUMPI POP POP PUSH1 0x20 PUSH1 0x0 SWAP2 DUP4 ADD ADD MSTORE SWAP1 JUMP JUMPDEST DUP1 PUSH1 0x20 DUP1 SWAP3 DUP5 ADD ADD MLOAD DUP3 DUP3 DUP8 ADD ADD MSTORE ADD PUSH2 0x583 JUMP JUMPDEST DUP1 MLOAD ISZERO PUSH2 0x5BA JUMPI PUSH1 0x20 ADD SWAP1 JUMP JUMPDEST PUSH4 0x4E487B71 PUSH1 0xE0 SHL PUSH1 0x0 MSTORE PUSH1 0x32 PUSH1 0x4 MSTORE PUSH1 0x24 PUSH1 0x0 REVERT JUMPDEST DUP1 MLOAD DUP3 LT ISZERO PUSH2 0x5BA JUMPI PUSH1 0x20 SWAP2 PUSH1 0x5 SHL ADD ADD SWAP1 JUMP JUMPDEST PUSH1 0x0 DUP2 DUP2 MSTORE PUSH1 0x2 PUSH1 0x20 MSTORE PUSH1 0x40 DUP2 KECCAK256 SLOAD SWAP4 SWAP3 SWAP1 DUP5 ISZERO PUSH2 0x9B4 JUMPI PUSH1 0x40 MLOAD PUSH4 0x96C59CC1 PUSH1 0xE0 SHL DUP2 MSTORE PUSH1 0x4 DUP2 ADD DUP5 SWAP1 MSTORE SWAP2 DUP2 DUP4 PUSH1 0x24 DUP2 PUSH32 0x0 PUSH1 0x1 PUSH1 0x1 PUSH1 0xA0 SHL SUB AND GAS STATICCALL SWAP3 DUP4 ISZERO PUSH2 0x7C4 JUMPI DUP3 SWAP1 DUP4 SWAP5 PUSH2 0x92F JUMPI JUMPDEST POP ISZERO PUSH2 0x920 JUMPI DUP6 DUP3 MSTORE PUSH1 0x3 PUSH1 0x20 MSTORE PUSH1 0xFF PUSH1 0x40 DUP4 KECCAK256 SLOAD AND PUSH2 0x911 JUMPI PUSH1 0x40 MLOAD PUSH4 0xA254AAC7 PUSH1 0xE0 SHL DUP2 MSTORE PUSH1 0x4 DUP2 ADD DUP8 SWAP1 MSTORE PUSH32 0x0 PUSH1 0x1 PUSH1 0x1 PUSH1 0xA0 SHL SUB AND SWAP1 DUP4 DUP2 PUSH1 0x24 DUP2 DUP6 GAS STATICCALL SWAP1 DUP2 ISZERO PUSH2 0x906 JUMPI DUP5 SWAP2 PUSH2 0x8EB JUMPI JUMPDEST POP PUSH2 0x8A0 JUMPI PUSH2 0x6CF DUP3 PUSH2 0x49C JUMP JUMPDEST SWAP2 PUSH2 0x6DD PUSH1 0x40 MLOAD SWAP4 DUP5 PUSH2 0x457 JUMP JUMPDEST DUP1 DUP4 MSTORE PUSH2 0x6E9 DUP2 PUSH2 0x49C JUMP JUMPDEST PUSH1 0x20 DUP5 ADD SWAP2 SWAP1 PUSH1 0x1F NOT ADD CALLDATASIZE DUP4 CALLDATACOPY DUP6 ISZERO PUSH2 0x804 JUMPI PUSH1 0x1 PUSH2 0x707 DUP6 PUSH2 0x5AD JUMP JUMPDEST MSTORE PUSH1 0x1 JUMPDEST DUP2 DUP2 LT PUSH2 0x7EF JUMPI POP POP JUMPDEST DUP2 EXTCODESIZE ISZERO PUSH2 0x7EB JUMPI SWAP2 DUP4 SWAP2 PUSH1 0x40 MLOAD SWAP4 DUP5 SWAP3 PUSH4 0x3124A62B PUSH1 0xE2 SHL DUP5 MSTORE PUSH1 0x44 DUP5 ADD SWAP1 DUP12 PUSH1 0x4 DUP7 ADD MSTORE PUSH1 0x40 PUSH1 0x24 DUP7 ADD MSTORE MLOAD DUP1 SWAP2 MSTORE PUSH1 0x64 DUP5 ADD SWAP2 SWAP1 DUP6 JUMPDEST DUP2 DUP2 LT PUSH2 0x7CF JUMPI POP POP POP DUP4 DUP4 DUP1 SWAP3 SUB SWAP3 GAS CALL DUP1 ISZERO PUSH2 0x7C4 JUMPI SWAP3 PUSH1 0x40 DUP4 PUSH1 0x20 SWAP4 PUSH32 0xD4F52AB5FBA0009B912EE555CC8105B66284F4DC2F90C13F048C1B397AEDD9B3 SWAP6 DUP11 SWAP8 PUSH2 0x7B4 JUMPI JUMPDEST DUP8 SWAP1 MSTORE POP PUSH1 0x3 DUP5 MSTORE KECCAK256 DUP1 SLOAD PUSH1 0xFF NOT AND PUSH1 0x1 OR SWAP1 SSTORE PUSH1 0x40 MLOAD SWAP1 ISZERO ISZERO DUP2 MSTORE LOG3 JUMP JUMPDEST PUSH2 0x7BD SWAP2 PUSH2 0x457 JUMP JUMPDEST CODESIZE DUP2 PUSH2 0x795 JUMP JUMPDEST PUSH1 0x40 MLOAD RETURNDATASIZE DUP5 DUP3 RETURNDATACOPY RETURNDATASIZE SWAP1 REVERT JUMPDEST DUP3 MLOAD DUP5 MSTORE DUP9 SWAP7 POP DUP8 SWAP6 POP PUSH1 0x20 SWAP4 DUP5 ADD SWAP4 SWAP1 SWAP3 ADD SWAP2 PUSH1 0x1 ADD PUSH2 0x74D JUMP JUMPDEST DUP4 DUP1 REVERT JUMPDEST DUP1 DUP7 PUSH2 0x7FD PUSH1 0x1 SWAP4 DUP9 PUSH2 0x5D0 JUMP JUMPDEST MSTORE ADD PUSH2 0x70B JUMP JUMPDEST DUP5 PUSH2 0x80E DUP6 PUSH2 0x5AD JUMP JUMPDEST MSTORE PUSH1 0x1 DUP2 GT PUSH2 0x81E JUMPI JUMPDEST POP PUSH2 0x715 JUMP JUMPDEST SWAP7 SWAP4 SWAP6 SWAP3 SWAP8 SWAP5 SWAP2 SWAP1 PUSH1 0x0 NOT DUP9 ADD SWAP8 DUP9 GT SWAP8 DUP9 PUSH2 0x88C JUMPI PUSH1 0x1 PUSH2 0x840 DUP3 DUP13 PUSH2 0x5D0 JUMP JUMPDEST MSTORE PUSH1 0x1 DUP10 JUMPDEST PUSH2 0x878 JUMPI DUP2 DUP2 LT ISZERO PUSH2 0x867 JUMPI DUP1 DUP10 PUSH2 0x85F PUSH1 0x1 SWAP4 DUP15 PUSH2 0x5D0 JUMP JUMPDEST MSTORE ADD DUP10 PUSH2 0x845 JUMP JUMPDEST POP POP SWAP1 SWAP2 SWAP5 SWAP8 SWAP3 SWAP6 SWAP4 SWAP7 POP CODESIZE PUSH2 0x818 JUMP JUMPDEST PUSH4 0x4E487B71 PUSH1 0xE0 SHL DUP10 MSTORE PUSH1 0x11 PUSH1 0x4 MSTORE PUSH1 0x24 DUP10 REVERT JUMPDEST PUSH4 0x4E487B71 PUSH1 0xE0 SHL DUP9 MSTORE PUSH1 0x11 PUSH1 0x4 MSTORE PUSH1 0x24 DUP9 REVERT JUMPDEST POP POP PUSH1 0x20 DUP6 SWAP5 SWAP6 SWAP3 PUSH1 0x40 DUP4 DUP6 PUSH32 0xD4F52AB5FBA0009B912EE555CC8105B66284F4DC2F90C13F048C1B397AEDD9B3 SWAP6 MSTORE PUSH1 0x3 DUP5 MSTORE KECCAK256 PUSH1 0x1 PUSH1 0xFF NOT DUP3 SLOAD AND OR SWAP1 SSTORE PUSH1 0x40 MLOAD SWAP1 ISZERO ISZERO DUP2 MSTORE LOG3 SWAP1 JUMP JUMPDEST PUSH2 0x8FF SWAP2 POP RETURNDATASIZE DUP1 DUP7 DUP4 RETURNDATACOPY PUSH2 0x3EF DUP2 DUP4 PUSH2 0x457 JUMP JUMPDEST POP CODESIZE PUSH2 0x6C1 JUMP JUMPDEST PUSH1 0x40 MLOAD RETURNDATASIZE DUP7 DUP3 RETURNDATACOPY RETURNDATASIZE SWAP1 REVERT JUMPDEST PUSH4 0x4A4117F9 PUSH1 0xE0 SHL DUP3 MSTORE PUSH1 0x4 DUP3 REVERT JUMPDEST PUSH4 0xC5723B51 PUSH1 0xE0 SHL DUP3 MSTORE PUSH1 0x4 DUP3 REVERT JUMPDEST SWAP4 POP POP RETURNDATASIZE DUP1 DUP4 DUP6 RETURNDATACOPY PUSH2 0x941 DUP2 DUP6 PUSH2 0x457 JUMP JUMPDEST DUP4 ADD PUSH1 0x80 DUP5 DUP3 SUB SLT PUSH2 0x3B1 JUMPI PUSH2 0x956 DUP5 PUSH2 0x48F JUMP JUMPDEST SWAP1 PUSH1 0x20 DUP6 ADD MLOAD PUSH8 0xFFFFFFFFFFFFFFFF DUP2 GT PUSH2 0x9B0 JUMPI DUP2 PUSH2 0x977 SWAP2 DUP8 ADD PUSH2 0x53D JUMP JUMPDEST POP PUSH2 0x984 PUSH1 0x40 DUP7 ADD PUSH2 0x48F JUMP JUMPDEST SWAP5 PUSH1 0x60 DUP2 ADD MLOAD SWAP1 PUSH8 0xFFFFFFFFFFFFFFFF DUP3 GT PUSH2 0x9AC JUMPI PUSH2 0x9A5 SWAP3 SWAP2 ADD PUSH2 0x53D JUMP JUMPDEST POP CODESIZE PUSH2 0x652 JUMP JUMPDEST DUP6 DUP1 REVERT JUMPDEST DUP5 DUP1 REVERT JUMPDEST PUSH4 0xC5723B51 PUSH1 0xE0 SHL DUP2 MSTORE PUSH1 0x4 SWAP1 REVERT INVALID LOG2 PUSH5 0x6970667358 0x22 SLT KECCAK256 RETURN TIMESTAMP REVERT BLOBBASEFEE PUSH7 0x6875690B2B8C41 0xCF PUSH17 0x16EFA1ECD8825A53FFC012D178FF53254D 0xCD PUSH5 0x736F6C6343 STOP ADDMOD BYTE STOP CALLER "},"methodIdentifiers":{"admin()":"f851a440","conditionResolved(bytes32)":"35c0c25e","conditionToRequest(bytes32)":"6ddf5730","conditionalTokens()":"5bd9e299","getConditionId(bytes32)":"04329c03","getRequestId(bytes32)":"9d8b43a5","handleCondition(bytes32,bytes32,uint256,bytes)":"39ed28b4","requestToCondition(bytes32)":"6b28ccf9","resolveCondition(bytes32,uint256)":"4e4bdc7e","veyraOracleAVS()":"6abe0ed4"}}}}}