{"contracts/adapter/VeyraOracleAVS.sol":{"VeyraOracleAVS":{"abi":[{"inputs":[{"internalType":"address","name":"admin_","type":"address"},{"internalType":"address","name":"eigenVerify_","type":"address"},{"internalType":"address","name":"slashing_","type":"address"}],"stateMutability":"nonpayable","type":"constructor"},{"inputs":[],"name":"AlreadyFulfilled","type":"error"},{"inputs":[],"name":"InvalidParameter","type":"error"},{"inputs":[],"name":"NotFound","type":"error"},{"inputs":[],"name":"OnlyAdmin","type":"error"},{"inputs":[],"name":"Unauthorized","type":"error"},{"inputs":[],"name":"ZeroAddress","type":"error"},{"anonymous":false,"inputs":[{"indexed":true,"internalType":"address","name":"node","type":"address"},{"indexed":false,"internalType":"bool","name":"enabled","type":"bool"}],"name":"AVSNodeUpdated","type":"event"},{"anonymous":false,"inputs":[{"indexed":true,"internalType":"bytes32","name":"requestId","type":"bytes32"},{"indexed":true,"internalType":"address","name":"operator","type":"address"},{"indexed":false,"internalType":"bool","name":"outcome","type":"bool"},{"indexed":false,"internalType":"bytes","name":"attestationCid","type":"bytes"},{"indexed":false,"internalType":"bytes","name":"signature","type":"bytes"}],"name":"AttestationSubmitted","type":"event"},{"anonymous":false,"inputs":[{"indexed":true,"internalType":"address","name":"operator","type":"address"},{"indexed":false,"internalType":"uint256","name":"weight","type":"uint256"}],"name":"OperatorWeightUpdated","type":"event"},{"anonymous":false,"inputs":[{"indexed":true,"internalType":"bytes32","name":"requestId","type":"bytes32"},{"indexed":true,"internalType":"address","name":"operator","type":"address"},{"indexed":false,"internalType":"bytes","name":"proof","type":"bytes"}],"name":"ProofVerificationFailed","type":"event"},{"anonymous":false,"inputs":[{"indexed":true,"internalType":"bytes32","name":"requestId","type":"bytes32"},{"indexed":false,"internalType":"bool","name":"outcome","type":"bool"},{"indexed":false,"internalType":"uint256","name":"totalWeight","type":"uint256"}],"name":"QuorumReached","type":"event"},{"anonymous":false,"inputs":[{"indexed":false,"internalType":"uint256","name":"threshold","type":"uint256"}],"name":"QuorumThresholdUpdated","type":"event"},{"anonymous":false,"inputs":[{"indexed":true,"internalType":"bytes32","name":"requestId","type":"bytes32"},{"indexed":false,"internalType":"bool","name":"outcome","type":"bool"},{"indexed":false,"internalType":"bytes","name":"aggregateSignature","type":"bytes"},{"indexed":false,"internalType":"uint256","name":"totalWeight","type":"uint256"}],"name":"ResolutionFinalized","type":"event"},{"anonymous":false,"inputs":[{"indexed":true,"internalType":"bytes32","name":"requestId","type":"bytes32"},{"indexed":false,"internalType":"bytes","name":"attestationCid","type":"bytes"},{"indexed":false,"internalType":"bool","name":"outcome","type":"bool"},{"indexed":false,"internalType":"bytes","name":"metadata","type":"bytes"}],"name":"VerificationFulfilled","type":"event"},{"anonymous":false,"inputs":[{"indexed":true,"internalType":"bytes32","name":"requestId","type":"bytes32"},{"indexed":true,"internalType":"address","name":"requester","type":"address"},{"indexed":true,"internalType":"bytes32","name":"marketRef","type":"bytes32"},{"indexed":false,"internalType":"bytes","name":"data","type":"bytes"}],"name":"VerificationRequested","type":"event"},{"inputs":[],"name":"admin","outputs":[{"internalType":"address","name":"","type":"address"}],"stateMutability":"view","type":"function"},{"inputs":[{"internalType":"address","name":"","type":"address"}],"name":"avsNodes","outputs":[{"internalType":"bool","name":"","type":"bool"}],"stateMutability":"view","type":"function"},{"inputs":[{"internalType":"bytes","name":"data","type":"bytes"}],"name":"decodeRequestData","outputs":[{"internalType":"string","name":"source","type":"string"},{"internalType":"string","name":"logic","type":"string"}],"stateMutability":"pure","type":"function"},{"inputs":[],"name":"eigenVerify","outputs":[{"internalType":"contract IEigenVerify","name":"","type":"address"}],"stateMutability":"view","type":"function"},{"inputs":[{"internalType":"bytes32","name":"requestId","type":"bytes32"},{"internalType":"bool","name":"outcome","type":"bool"},{"internalType":"bytes","name":"aggregateSignature","type":"bytes"}],"name":"finalizeResolution","outputs":[],"stateMutability":"nonpayable","type":"function"},{"inputs":[{"internalType":"bytes32","name":"requestId","type":"bytes32"},{"internalType":"bytes","name":"attestationCid","type":"bytes"},{"internalType":"bool","name":"outcome","type":"bool"},{"internalType":"bytes","name":"metadata","type":"bytes"},{"internalType":"uint256","name":"timestamp","type":"uint256"}],"name":"fulfillVerification","outputs":[],"stateMutability":"nonpayable","type":"function"},{"inputs":[{"internalType":"bytes32","name":"requestId","type":"bytes32"}],"name":"getAttestations","outputs":[{"components":[{"internalType":"address","name":"operator","type":"address"},{"internalType":"bool","name":"outcome","type":"bool"},{"internalType":"bytes","name":"attestationCid","type":"bytes"},{"internalType":"bytes","name":"signature","type":"bytes"},{"internalType":"bytes32","name":"proofHash","type":"bytes32"},{"internalType":"uint256","name":"timestamp","type":"uint256"}],"internalType":"struct VeyraOracleAVS.Attestation[]","name":"","type":"tuple[]"}],"stateMutability":"view","type":"function"},{"inputs":[{"internalType":"bytes32","name":"requestId","type":"bytes32"}],"name":"getFulfillment","outputs":[{"internalType":"bool","name":"exists","type":"bool"},{"internalType":"bytes","name":"attestationCid","type":"bytes"},{"internalType":"bool","name":"outcome","type":"bool"},{"internalType":"bytes","name":"metadata","type":"bytes"}],"stateMutability":"view","type":"function"},{"inputs":[{"internalType":"bytes32","name":"requestId","type":"bytes32"},{"internalType":"address","name":"operator","type":"address"}],"name":"getProof","outputs":[{"internalType":"bytes","name":"proof","type":"bytes"}],"stateMutability":"view","type":"function"},{"inputs":[{"internalType":"bytes32","name":"requestId","type":"bytes32"},{"internalType":"address","name":"operator","type":"address"}],"name":"getProofHash","outputs":[{"internalType":"bytes32","name":"proofHash","type":"bytes32"}],"stateMutability":"view","type":"function"},{"inputs":[{"internalType":"bytes32","name":"requestId","type":"bytes32"}],"name":"getQuorumStatus","outputs":[{"internalType":"bool","name":"isQuorumReached","type":"bool"},{"internalType":"uint256","name":"yesWeight","type":"uint256"},{"internalType":"uint256","name":"noWeight","type":"uint256"},{"internalType":"uint256","name":"requiredWeight","type":"uint256"}],"stateMutability":"view","type":"function"},{"inputs":[{"internalType":"bytes32","name":"requestId","type":"bytes32"}],"name":"getRequest","outputs":[{"components":[{"internalType":"bytes32","name":"marketRef","type":"bytes32"},{"internalType":"address","name":"requester","type":"address"},{"internalType":"bytes","name":"data","type":"bytes"},{"internalType":"bool","name":"fulfilled","type":"bool"},{"internalType":"bytes","name":"attestationCid","type":"bytes"},{"internalType":"bool","name":"outcome","type":"bool"},{"internalType":"bytes","name":"metadata","type":"bytes"}],"internalType":"struct VeyraOracleAVS.Request","name":"","type":"tuple"}],"stateMutability":"view","type":"function"},{"inputs":[{"internalType":"address","name":"","type":"address"}],"name":"operatorWeights","outputs":[{"internalType":"uint256","name":"","type":"uint256"}],"stateMutability":"view","type":"function"},{"inputs":[],"name":"quorumThreshold","outputs":[{"internalType":"uint256","name":"","type":"uint256"}],"stateMutability":"view","type":"function"},{"inputs":[{"internalType":"bytes32","name":"marketRef","type":"bytes32"},{"internalType":"bytes","name":"data","type":"bytes"}],"name":"requestResolution","outputs":[{"internalType":"bytes32","name":"requestId","type":"bytes32"}],"stateMutability":"nonpayable","type":"function"},{"inputs":[{"internalType":"address","name":"node","type":"address"},{"internalType":"bool","name":"enabled","type":"bool"}],"name":"setAVSNode","outputs":[],"stateMutability":"nonpayable","type":"function"},{"inputs":[{"internalType":"address","name":"operator","type":"address"},{"internalType":"uint256","name":"weight","type":"uint256"}],"name":"setOperatorWeight","outputs":[],"stateMutability":"nonpayable","type":"function"},{"inputs":[{"internalType":"uint256","name":"threshold","type":"uint256"}],"name":"setQuorumThreshold","outputs":[],"stateMutability":"nonpayable","type":"function"},{"inputs":[],"name":"slashing","outputs":[{"internalType":"contract ISlashing","name":"","type":"address"}],"stateMutability":"view","type":"function"},{"inputs":[{"internalType":"bytes32","name":"requestId","type":"bytes32"},{"internalType":"bool","name":"outcome","type":"bool"},{"internalType":"bytes","name":"attestationCid","type":"bytes"},{"internalType":"bytes","name":"signature","type":"bytes"},{"internalType":"bytes","name":"proof","type":"bytes"},{"internalType":"uint256","name":"timestamp","type":"uint256"}],"name":"submitAttestation","outputs":[],"stateMutability":"nonpayable","type":"function"},{"inputs":[],"name":"totalOperatorWeight","outputs":[{"internalType":"uint256","name":"","type":"uint256"}],"stateMutability":"view","type":"function"}],"evm":{"bytecode":{"linkReferences":{},"object":"60c0346100f057601f61238538819003918201601f19168301916001600160401b038311848410176100f5578084926060946040528339810103126100f0576100478161010b565b61005f60406100586020850161010b565b930161010b565b60426006556001600160a01b039091169182156100df576001600160a01b03169081156100df576001600160a01b03169182156100df57600880546001600160a01b03191691909117905560805260a05260405161226590816101208239608051818181610dc5015261172e015260a05181818161040c01526120ca0152f35b63d92e233d60e01b60005260046000fd5b600080fd5b634e487b7160e01b600052604160045260246000fd5b51906001600160a01b03821682036100f05756fe60a0604052600436101561001257600080fd5b60003560e01c80630e6b111014610e7e578063276d652614610e225780632af002e814610df45780632e52ec8b14610daf57806337e59e3614610c295780634524c7e114610bb85780634b97f3db14610aeb5780637b7a91dd14610acd5780639378c8fa14610a7e57806396c59cc114610a295780639e4174aa14610973578063b457c25a14610939578063c09fff13146108a8578063c243807114610459578063c5e9a2791461043b578063ca31fb9f146103f6578063d12481a414610378578063f1d1b38114610339578063f7c226da14610280578063f851a440146102575763fb1e61ca1461010357600080fd5b3461025257602036600319011261025257606060c060405161012481610fea565b6000815260006020820152826040820152600083820152826080820152600060a082015201526004356000526000602052604060002060405161016681610fea565b8154815260018201546001600160a01b0316602082019081529161024e90610190600282016110e2565b6040840190815261023360ff6003840154166060860190151581526101b7600485016110e2565b608087019081526102186101de600660ff6005890154169760a08b019815158952016110e2565b9460c08901958652604051998a9960208b525160208b015260018060a01b0390511660408a01525160e060608a0152610100890190610f6e565b91511515608088015251868203601f190160a0880152610f6e565b9151151560c085015251838203601f190160e0850152610f6e565b0390f35b600080fd5b34610252576000366003190112610252576008546040516001600160a01b039091168152602090f35b3461025257604036600319011261025257610299610f1f565b6102a1610fc0565b6008549091906001600160a01b03163303610328576001600160a01b03169081156103175760207fa8cfb85fb565846d65e4062d92a89056ecb7aa24252225132315978a9ed574c191836000526001825261030c8160406000209060ff801983541691151516179055565b6040519015158152a2005b63d92e233d60e01b60005260046000fd5b634755657960e01b60005260046000fd5b34610252576020366003190112610252576001600160a01b0361035a610f1f565b166000526001602052602060ff604060002054166040519015158152f35b34610252576020366003190112610252576004356001600160401b03811161025257366023820112156102525761024e6103d16103c26103e8933690602481600401359101611041565b6020808251830101910161147c565b604092919251938493604085526040850190610f6e565b908382036020850152610f6e565b34610252576000366003190112610252576040517f00000000000000000000000000000000000000000000000000000000000000006001600160a01b03168152602090f35b34610252576000366003190112610252576020600354604051908152f35b34610252576040366003190112610252576004356024356001600160401b0381116102525761048c903690600401610f93565b909160405160208101908282523360601b6040820152426054820152838560748301376104cb6020607483878101448382015203018084520182611005565b51902091604051936104dc85610fea565b82855260208501903382526104f2368483611041565b9560408101968752606081019660008852602097604051906105148a83611005565b600082526080840191825260a084019260008452604051966105368c89611005565b600080895260c087019889528b8152808d526040902095518655516001860180546001600160a01b0319166001600160a01b039290921691909117905551805160028601916001600160401b03821161079e5761059d8261059785546110a8565b856113c4565b8c908d601f841160011461083a575091806105d5926105f096959460009261082f575b50508160011b916000199060031b1c19161790565b90555b511515600385019060ff801983541691151516179055565b51805160048401916001600160401b03821161079e576106148261059785546110a8565b8a90601f83116001146107bf57826006969593610667959361064c936000926107b45750508160011b916000199060031b1c19161790565b90555b511515600583019060ff801983541691151516179055565b0191519182516001600160401b03811161079e57869361068b8261059785546110a8565b8890601f831160011461070e57827f34602e40c4c49141c143fef967cb05afc0207ba0f21b2bc82b56b712b4250fca95936106f895936106e1936000926107035750508160011b916000199060031b1c19161790565b90555b60405191829189835233968a840191611416565b0390a4604051908152f35b015190508c806105c0565b90601f19831691846000528a6000209260005b8c8282106107855750509260019285927f34602e40c4c49141c143fef967cb05afc0207ba0f21b2bc82b56b712b4250fca98966106f898961061076c575b505050811b0190556106e4565b015160001960f88460031b161c191690558b808061075f565b8484015186558c99506001909501949384019301610721565b634e487b7160e01b600052604160045260246000fd5b015190508e806105c0565b60008481528c8120929190601f198516908e5b82821061081757505092600192859260069998966106679896106107fe575b505050811b01905561064f565b015160001960f88460031b161c191690558d80806107f1565b806001869782949787015181550196019401906107d2565b015190508f806105c0565b9190601f1984168560005283600020936000905b8282106108905750509160019391856105f09897969410610877575b505050811b0190556105d8565b015160001960f88460031b161c191690558e808061086a565b8060018697829497870151815501960194019061084e565b346102525760203660031901126102525760806004356003549060646108d0600654846113b1565b600092835260056020908152604080852060018652909152808420548480529320549190048083108015949193919061092e575b84610924575b506040519315158452602084015260408301526060820152f35b151593508561090a565b838310159450610904565b34610252576020366003190112610252576001600160a01b0361095a610f1f565b1660005260026020526020604060002054604051908152f35b346102525760c03660031901126102525761098c610fc0565b6044356001600160401b038111610252576109ab903690600401610f93565b916064356001600160401b038111610252576109cb903690600401610f93565b906084356001600160401b038111610252576109eb903690600401610f93565b92909133600052600160205260ff6040600020541615610a1957610a1796339660a43596600435611500565b005b6282b42960e81b60005260046000fd5b346102525760203660031901126102525761024e610a486004356112c1565b610a6960409593955195869515158652608060208701526080860190610f6e565b91151560408501528382036060850152610f6e565b3461025257606036600319011261025257610a97610fc0565b604435906001600160401b03821161025257610ac4610abd610a17933690600401610f93565b3691611041565b90600435611d3e565b34610252576000366003190112610252576020600654604051908152f35b346102525760a0366003190112610252576004356024356001600160401b03811161025257610b1e903690600401610f93565b9190604435928315158403610252576064356001600160401b03811161025257610b4c903690600401610f93565b929033600052600160205260ff6040600020541615610a1957610b829360608110610bae579081815b3395608435958a8a611500565b610b8c8282611d02565b610b9257005b610a179160405191610ba5602084611005565b60008352611d3e565b8190600092610b75565b3461025257602036600319011261025257600854600435906001600160a01b031633036103285760648111610c18576020817fbc589fccf641d342b7853c2c6faca39631d4d19efbe77e71e5611e31678c220e92600655604051908152a1005b630309cb8760e51b60005260046000fd5b3461025257602036600319011261025257600435600052600460205260406000208054906001600160401b03821161079e5760405191610c6f60208260051b0184611005565b80835260208301809260005260206000206000915b838310610d4157848660405191829160208301906020845251809152604083019060408160051b85010192916000905b828210610cc357505050500390f35b919360019193955060208091603f19898203018552875190848060a01b0382511681528282015115158382015260a080610d21610d0f604086015160c0604087015260c0860190610f6e565b60608601518582036060870152610f6e565b936080810151608085015201519101529601920192018594939192610cb4565b60056020600192604051610d5481610fcf565b60ff8654868060a01b038116835260a01c16151583820152610d778587016110e2565b6040820152610d88600287016110e2565b606082015260038601546080820152600486015460a0820152815201920192019190610c84565b34610252576000366003190112610252576040517f00000000000000000000000000000000000000000000000000000000000000006001600160a01b03168152602090f35b34610252576040366003190112610252576020610e1a610e12610f35565b6004356111b0565b604051908152f35b3461025257604036600319011261025257610e3b610f35565b600435600052600760205260406000209060018060a01b031660005260205261024e610e6a60406000206110e2565b604051918291602083526020830190610f6e565b3461025257604036600319011261025257610e97610f1f565b60085460243591906001600160a01b03163303610328576001600160a01b03169081156103175760207ff21e638cbccad60709e37c990768543730ce2449d9c79b38e1e972fa99b3a219918360005260028252610f1381610f0e604060002054876000526002865282604060002055600354611078565b61109b565b600355604051908152a2005b600435906001600160a01b038216820361025257565b602435906001600160a01b038216820361025257565b60005b838110610f5e5750506000910152565b8181015183820152602001610f4e565b90602091610f8781518092818552858086019101610f4b565b601f01601f1916010190565b9181601f84011215610252578235916001600160401b038311610252576020838186019501011161025257565b60243590811515820361025257565b60c081019081106001600160401b0382111761079e57604052565b60e081019081106001600160401b0382111761079e57604052565b90601f801991011681019081106001600160401b0382111761079e57604052565b6001600160401b03811161079e57601f01601f191660200190565b92919261104d82611026565b9161105b6040519384611005565b829481845281830111610252578281602093846000960137010152565b9190820391821161108557565b634e487b7160e01b600052601160045260246000fd5b9190820180921161108557565b90600182811c921680156110d8575b60208310146110c257565b634e487b7160e01b600052602260045260246000fd5b91607f16916110b7565b90604051918260008254926110f6846110a8565b8084529360018116908115611164575060011461111d575b5061111b92500383611005565b565b90506000929192526020600020906000915b81831061114857505090602061111b928201013861110e565b602091935080600191548385890101520191019091849261112f565b90506020925061111b94915060ff191682840152151560051b8201013861110e565b805182101561119a5760209160051b010190565b634e487b7160e01b600052603260045260246000fd5b6000526004602052604060002080546001600160401b03811161079e57604051916111e160208360051b0184611005565b818352602083019060005260206000206000915b838310611253575050505060005b815181101561124b576001600160a01b0361121e8284611186565b5151166001600160a01b0384161461123857600101611203565b6080925061124591611186565b51015190565b505050600090565b6005602060019260405161126681610fcf565b60ff8654868060a01b038116835260a01c161515838201526112898587016110e2565b604082015261129a600287016110e2565b606082015260038601546080820152600486015460a08201528152019201920191906111f5565b6000526000602052604060002090604051906112dc82610fea565b8254825260018301546001600160a01b031660208301908152611301600285016110e2565b604084015260ff600385015416606084019015158152611323600486016110e2565b916080850192835260c061134a600660ff60058a0154169860a089019915158a52016110e2565b9501948552516001600160a01b0316159081156113a7575b5061137557519251915160019392151591565b5091505060009060405161138a602082611005565b60008152906000906040516113a0602082611005565b6000815290565b9050511538611362565b8181029291811591840414171561108557565b601f82116113d157505050565b6000526020600020906020601f840160051c8301931061140c575b601f0160051c01905b818110611400575050565b600081556001016113f5565b90915081906113ec565b908060209392818452848401376000828201840152601f01601f1916010190565b81601f8201121561025257805161144d81611026565b9261145b6040519485611005565b81845260208284010111610252576114799160208085019101610f4b565b90565b9190916040818403126102525780516001600160401b03811161025257836114a5918301611437565b9260208201516001600160401b038111610252576114799201611437565b805482101561119a576000526005602060002091020190600090565b604051906114ee604083611005565b600382526259455360e81b6020830152565b9997989590969994919394608052608051600052600060205260406000209960018060a01b0360018c01541615611cf15760ff60038c0154166115ad576001600160a01b038716600081815260026020526040902054909a90928315610a195760005b60805160005260046020526040600020548110156115be5760805160005260046020528c6115958260406000206114c3565b50546001600160a01b0316146115ad57600101611563565b634a4117f960e01b60005260046000fd5b509091929394959697999b6002909b999b016115d9906110e2565b9960409a8b8d81516115eb8382611005565b600e8152602081016d64656661756c742d736f7572636560901b90529282516116148482611005565b600d8152602081016c64656661756c742d6c6f67696360981b90529381511515600014946000946116bc946116f39461172a98611ce2578761167191845180938192633449206960e21b8352602060048401526024830190610f6e565b0381305afa908189918a93611cbc575b50611caf575b50506116e592916116cd915b88908914611c8d57506116a46114df565b925b81519788966080602089015260a0880190610f6e565b91601f198784030190870152610f6e565b908a6060850152601f19848303016080850152610f6e565b03601f198101835282611005565b8d80519384928392637bf41d7760e11b84526004840152611718604484018b8a611416565b83810360031901602485015290610f6e565b03817f00000000000000000000000000000000000000000000000000000000000000006001600160a01b03165afa908115611c82576000908192611c2b575b5015611c1c576020815191012061177e6114df565b60208151910120149b1515809c03611c0d575061179c368483611041565b602081519101209260805160005260076020528a806000206000908c825260205220916001600160401b03821161079e576117db8261059785546110a8565b600090601f8311600114611ba95761180b929160009183611b9e5750508160011b916000199060031b1c19161790565b90555b6080516000526004602052886000209189519161182a83610fcf565b89835260208301938c855261184036898b611041565b918c850192835261185236898d611041565b9360608601948552608086015260a085015280546801000000000000000081101561079e57611886916001820181556114c3565b949094611b88578351855491516001600160a81b03199092166001600160a01b03919091161790151560a01b60ff60a01b1617845551805160018501916001600160401b03821161079e576118df8261059785546110a8565b602090601f8311600114611b215761190f929160009183611a7e5750508160011b916000199060031b1c19161790565b90555b51805160028401916001600160401b03821161079e576119368261059785546110a8565b602090601f8311600114611a8957937f4164d38fcc30943a577283f30908d604d84a89a2e856b65b332963235535580599989795936119968460049560a0956119fc9b99600092611a7e5750508160011b916000199060031b1c19161790565b90555b6080810151600385015501519101556080516000526005602052886000208a6000526020526119cd8960002091825461109b565b90556119eb88519485948b8652606060208701526060860191611416565b908382038985015260805196611416565b0390a3608051600052600560205280600020826000526020528060002054906003546064611a2c600654836113b1565b048310159081611a74575b50611a4157505050565b7f4788c192b43b1eaa29d531808a78165d3487d939b8246058f5ad10d22fc2bd0d918151938452602084015260805192a2565b9050151538611a37565b0151905038806105c0565b9083600052806000209160005b601f1985168110611b0957509360018460a0946119fc9a98947f4164d38fcc30943a577283f30908d604d84a89a2e856b65b33296323553558059e9d9c9a98600498601f19811610611af0575b505050811b019055611999565b015160001960f88460031b161c19169055388080611ae3565b91926020600181928685015181550194019201611a96565b90601f1983169184600052816000209260005b818110611b705750908460019594939210611b57575b505050811b019055611912565b015160001960f88460031b161c19169055388080611b4a565b92936020600181928786015181550195019301611b34565b634e487b7160e01b600052600060045260246000fd5b0135905038806105c0565b8382526020822091601f198416815b818110611bf55750908460019594939210611bdb575b505050811b01905561180e565b0135600019600384901b60f8161c19169055388080611bce565b91936020600181928787013581550195019201611bb8565b610c1894919250608051612085565b610c1885848885608051612085565b91503d8082843e611c3c8184611005565b8201908d83830312611c7b578251928315158403611c7e576020810151916001600160401b038311611c7b5750611c74929101611437565b9038611769565b80fd5b5080fd5b8c513d6000823e3d90fd5b508051611c9a8282611005565b60028152614e4f60f01b6020820152926116a6565b94509250816116e5611687565b909250611cdb91503d808b833e611cd38183611005565b81019061147c565b9138611681565b506116e592916116cd91611693565b63c5723b5160e01b60005260046000fd5b9060035491821561124b57600052600560205260406000209015156000526020526064611d3860406000205492600654906113b1565b04111590565b919082600052600060205260406000209160018060a01b0360018401541615611cf157600383019182549360ff85166115ad57611d7b8287611d02565b15610c1857602093604051611d908682611005565b6000815295876000526004865260406000205461203e575b60ff19166001179055845160048201906001600160401b03811161079e57611dda81611dd484546110a8565b846113c4565b85601f8211600114611fd557816006949392611e0c92600091611fca575b508160011b916000199060031b1c19161790565b90555b611e2883600583019060ff801983541691151516179055565b0182516001600160401b03811161079e57611e4781611dd484546110a8565b84601f8211600114611f3b5792611f1a9592611ea0837f89b763933efe68c9fb105be2523d43afbb04f27b42bda7793a30bb6ae16bc4ff999794611f2b97600091611f3057508160011b916000199060031b1c19161790565b90555b8760005260058352604060002090151590816000528352877f62c5313ac9057b028c77d3d71a8bc78681ab575a0cab56a1fef1e7484cd6b48d6040600020546040518091858252606088830152611efd6060830188610f6e565b9060408301520390a2604051958695606087526060870190610f6e565b928501528382036040850152610f6e565b0390a2565b905085015138611df8565b601f1982169083600052866000209160005b818110611fb3575083611f2b9693611f1a9996937f89b763933efe68c9fb105be2523d43afbb04f27b42bda7793a30bb6ae16bc4ff9b999660019410611f9a575b5050811b019055611ea3565b86015160001960f88460031b161c191690553880611f8e565b91928860018192868b015181550194019201611f4d565b905089015138611df8565b601f1982169083600052876000209160005b898b83831061202957505050918391600696959460019410612010575b5050811b019055611e0f565b8a015160001960f88460031b161c191690553880612004565b84015185556001909401939283019201611fe7565b95508660005260048552604060002060009080541561207157600187836120699383955220016110e2565b969050611da8565b634e487b7160e01b82526032600452602482fd5b91949392909260009360018060a01b03169384815260026020528060408120556120b187600354611078565b600355604051630991d88160e21b8152600481018690527f00000000000000000000000000000000000000000000000000000000000000006001600160a01b031690602081602481855afa9081156122245783916121f2575b5080612156575b5050507faffd8b9ffb2058f05fe3e1c643891491b6253aabe27bf992f581214ae071abcc9293949550612151604051928392602084526020840191611416565b0390a3565b82988181116000146121ea5750905b803b156121e657604483926040519a8b9384926302fb4d8560e01b84528b600485015260248401525af19687156121d9577faffd8b9ffb2058f05fe3e1c643891491b6253aabe27bf992f581214ae071abcc949596976121c9575b87969594612111565b816121d391611005565b386121c0565b50604051903d90823e3d90fd5b8280fd5b905090612165565b90506020813d60201161221c575b8161220d60209383611005565b810103126121e657513861210a565b3d9150612200565b6040513d85823e3d90fdfea264697066735822122004dbd797ffbdc84ffba8dd451e464a09329a8ce12d56b00585cd241615104aff64736f6c634300081a0033","opcodes":"PUSH1 0xC0 CALLVALUE PUSH2 0xF0 JUMPI PUSH1 0x1F PUSH2 0x2385 CODESIZE DUP2 SWAP1 SUB SWAP2 DUP3 ADD PUSH1 0x1F NOT AND DUP4 ADD SWAP2 PUSH1 0x1 PUSH1 0x1 PUSH1 0x40 SHL SUB DUP4 GT DUP5 DUP5 LT OR PUSH2 0xF5 JUMPI DUP1 DUP5 SWAP3 PUSH1 0x60 SWAP5 PUSH1 0x40 MSTORE DUP4 CODECOPY DUP2 ADD SUB SLT PUSH2 0xF0 JUMPI PUSH2 0x47 DUP2 PUSH2 0x10B JUMP JUMPDEST PUSH2 0x5F PUSH1 0x40 PUSH2 0x58 PUSH1 0x20 DUP6 ADD PUSH2 0x10B JUMP JUMPDEST SWAP4 ADD PUSH2 0x10B JUMP JUMPDEST PUSH1 0x42 PUSH1 0x6 SSTORE PUSH1 0x1 PUSH1 0x1 PUSH1 0xA0 SHL SUB SWAP1 SWAP2 AND SWAP2 DUP3 ISZERO PUSH2 0xDF JUMPI PUSH1 0x1 PUSH1 0x1 PUSH1 0xA0 SHL SUB AND SWAP1 DUP2 ISZERO PUSH2 0xDF JUMPI PUSH1 0x1 PUSH1 0x1 PUSH1 0xA0 SHL SUB AND SWAP2 DUP3 ISZERO PUSH2 0xDF JUMPI PUSH1 0x8 DUP1 SLOAD PUSH1 0x1 PUSH1 0x1 PUSH1 0xA0 SHL SUB NOT AND SWAP2 SWAP1 SWAP2 OR SWAP1 SSTORE PUSH1 0x80 MSTORE PUSH1 0xA0 MSTORE PUSH1 0x40 MLOAD PUSH2 0x2265 SWAP1 DUP2 PUSH2 0x120 DUP3 CODECOPY PUSH1 0x80 MLOAD DUP2 DUP2 DUP2 PUSH2 0xDC5 ADD MSTORE PUSH2 0x172E ADD MSTORE PUSH1 0xA0 MLOAD DUP2 DUP2 DUP2 PUSH2 0x40C ADD MSTORE PUSH2 0x20CA ADD MSTORE RETURN JUMPDEST PUSH4 0xD92E233D PUSH1 0xE0 SHL PUSH1 0x0 MSTORE PUSH1 0x4 PUSH1 0x0 REVERT JUMPDEST PUSH1 0x0 DUP1 REVERT JUMPDEST PUSH4 0x4E487B71 PUSH1 0xE0 SHL PUSH1 0x0 MSTORE PUSH1 0x41 PUSH1 0x4 MSTORE PUSH1 0x24 PUSH1 0x0 REVERT JUMPDEST MLOAD SWAP1 PUSH1 0x1 PUSH1 0x1 PUSH1 0xA0 SHL SUB DUP3 AND DUP3 SUB PUSH2 0xF0 JUMPI JUMP INVALID PUSH1 0xA0 PUSH1 0x40 MSTORE PUSH1 0x4 CALLDATASIZE LT ISZERO PUSH2 0x12 JUMPI PUSH1 0x0 DUP1 REVERT JUMPDEST PUSH1 0x0 CALLDATALOAD PUSH1 0xE0 SHR DUP1 PUSH4 0xE6B1110 EQ PUSH2 0xE7E JUMPI DUP1 PUSH4 0x276D6526 EQ PUSH2 0xE22 JUMPI DUP1 PUSH4 0x2AF002E8 EQ PUSH2 0xDF4 JUMPI DUP1 PUSH4 0x2E52EC8B EQ PUSH2 0xDAF JUMPI DUP1 PUSH4 0x37E59E36 EQ PUSH2 0xC29 JUMPI DUP1 PUSH4 0x4524C7E1 EQ PUSH2 0xBB8 JUMPI DUP1 PUSH4 0x4B97F3DB EQ PUSH2 0xAEB JUMPI DUP1 PUSH4 0x7B7A91DD EQ PUSH2 0xACD JUMPI DUP1 PUSH4 0x9378C8FA EQ PUSH2 0xA7E JUMPI DUP1 PUSH4 0x96C59CC1 EQ PUSH2 0xA29 JUMPI DUP1 PUSH4 0x9E4174AA EQ PUSH2 0x973 JUMPI DUP1 PUSH4 0xB457C25A EQ PUSH2 0x939 JUMPI DUP1 PUSH4 0xC09FFF13 EQ PUSH2 0x8A8 JUMPI DUP1 PUSH4 0xC2438071 EQ PUSH2 0x459 JUMPI DUP1 PUSH4 0xC5E9A279 EQ PUSH2 0x43B JUMPI DUP1 PUSH4 0xCA31FB9F EQ PUSH2 0x3F6 JUMPI DUP1 PUSH4 0xD12481A4 EQ PUSH2 0x378 JUMPI DUP1 PUSH4 0xF1D1B381 EQ PUSH2 0x339 JUMPI DUP1 PUSH4 0xF7C226DA EQ PUSH2 0x280 JUMPI DUP1 PUSH4 0xF851A440 EQ PUSH2 0x257 JUMPI PUSH4 0xFB1E61CA EQ PUSH2 0x103 JUMPI PUSH1 0x0 DUP1 REVERT JUMPDEST CALLVALUE PUSH2 0x252 JUMPI PUSH1 0x20 CALLDATASIZE PUSH1 0x3 NOT ADD SLT PUSH2 0x252 JUMPI PUSH1 0x60 PUSH1 0xC0 PUSH1 0x40 MLOAD PUSH2 0x124 DUP2 PUSH2 0xFEA JUMP JUMPDEST PUSH1 0x0 DUP2 MSTORE PUSH1 0x0 PUSH1 0x20 DUP3 ADD MSTORE DUP3 PUSH1 0x40 DUP3 ADD MSTORE PUSH1 0x0 DUP4 DUP3 ADD MSTORE DUP3 PUSH1 0x80 DUP3 ADD MSTORE PUSH1 0x0 PUSH1 0xA0 DUP3 ADD MSTORE ADD MSTORE PUSH1 0x4 CALLDATALOAD PUSH1 0x0 MSTORE PUSH1 0x0 PUSH1 0x20 MSTORE PUSH1 0x40 PUSH1 0x0 KECCAK256 PUSH1 0x40 MLOAD PUSH2 0x166 DUP2 PUSH2 0xFEA JUMP JUMPDEST DUP2 SLOAD DUP2 MSTORE PUSH1 0x1 DUP3 ADD SLOAD PUSH1 0x1 PUSH1 0x1 PUSH1 0xA0 SHL SUB AND PUSH1 0x20 DUP3 ADD SWAP1 DUP2 MSTORE SWAP2 PUSH2 0x24E SWAP1 PUSH2 0x190 PUSH1 0x2 DUP3 ADD PUSH2 0x10E2 JUMP JUMPDEST PUSH1 0x40 DUP5 ADD SWAP1 DUP2 MSTORE PUSH2 0x233 PUSH1 0xFF PUSH1 0x3 DUP5 ADD SLOAD AND PUSH1 0x60 DUP7 ADD SWAP1 ISZERO ISZERO DUP2 MSTORE PUSH2 0x1B7 PUSH1 0x4 DUP6 ADD PUSH2 0x10E2 JUMP JUMPDEST PUSH1 0x80 DUP8 ADD SWAP1 DUP2 MSTORE PUSH2 0x218 PUSH2 0x1DE PUSH1 0x6 PUSH1 0xFF PUSH1 0x5 DUP10 ADD SLOAD AND SWAP8 PUSH1 0xA0 DUP12 ADD SWAP9 ISZERO ISZERO DUP10 MSTORE ADD PUSH2 0x10E2 JUMP JUMPDEST SWAP5 PUSH1 0xC0 DUP10 ADD SWAP6 DUP7 MSTORE PUSH1 0x40 MLOAD SWAP10 DUP11 SWAP10 PUSH1 0x20 DUP12 MSTORE MLOAD PUSH1 0x20 DUP12 ADD MSTORE PUSH1 0x1 DUP1 PUSH1 0xA0 SHL SUB SWAP1 MLOAD AND PUSH1 0x40 DUP11 ADD MSTORE MLOAD PUSH1 0xE0 PUSH1 0x60 DUP11 ADD MSTORE PUSH2 0x100 DUP10 ADD SWAP1 PUSH2 0xF6E JUMP JUMPDEST SWAP2 MLOAD ISZERO ISZERO PUSH1 0x80 DUP9 ADD MSTORE MLOAD DUP7 DUP3 SUB PUSH1 0x1F NOT ADD PUSH1 0xA0 DUP9 ADD MSTORE PUSH2 0xF6E JUMP JUMPDEST SWAP2 MLOAD ISZERO ISZERO PUSH1 0xC0 DUP6 ADD MSTORE MLOAD DUP4 DUP3 SUB PUSH1 0x1F NOT ADD PUSH1 0xE0 DUP6 ADD MSTORE PUSH2 0xF6E JUMP JUMPDEST SUB SWAP1 RETURN JUMPDEST PUSH1 0x0 DUP1 REVERT JUMPDEST CALLVALUE PUSH2 0x252 JUMPI PUSH1 0x0 CALLDATASIZE PUSH1 0x3 NOT ADD SLT PUSH2 0x252 JUMPI PUSH1 0x8 SLOAD PUSH1 0x40 MLOAD PUSH1 0x1 PUSH1 0x1 PUSH1 0xA0 SHL SUB SWAP1 SWAP2 AND DUP2 MSTORE PUSH1 0x20 SWAP1 RETURN JUMPDEST CALLVALUE PUSH2 0x252 JUMPI PUSH1 0x40 CALLDATASIZE PUSH1 0x3 NOT ADD SLT PUSH2 0x252 JUMPI PUSH2 0x299 PUSH2 0xF1F JUMP JUMPDEST PUSH2 0x2A1 PUSH2 0xFC0 JUMP JUMPDEST PUSH1 0x8 SLOAD SWAP1 SWAP2 SWAP1 PUSH1 0x1 PUSH1 0x1 PUSH1 0xA0 SHL SUB AND CALLER SUB PUSH2 0x328 JUMPI PUSH1 0x1 PUSH1 0x1 PUSH1 0xA0 SHL SUB AND SWAP1 DUP2 ISZERO PUSH2 0x317 JUMPI PUSH1 0x20 PUSH32 0xA8CFB85FB565846D65E4062D92A89056ECB7AA24252225132315978A9ED574C1 SWAP2 DUP4 PUSH1 0x0 MSTORE PUSH1 0x1 DUP3 MSTORE PUSH2 0x30C DUP2 PUSH1 0x40 PUSH1 0x0 KECCAK256 SWAP1 PUSH1 0xFF DUP1 NOT DUP4 SLOAD AND SWAP2 ISZERO ISZERO AND OR SWAP1 SSTORE JUMP JUMPDEST PUSH1 0x40 MLOAD SWAP1 ISZERO ISZERO DUP2 MSTORE LOG2 STOP JUMPDEST PUSH4 0xD92E233D PUSH1 0xE0 SHL PUSH1 0x0 MSTORE PUSH1 0x4 PUSH1 0x0 REVERT JUMPDEST PUSH4 0x47556579 PUSH1 0xE0 SHL PUSH1 0x0 MSTORE PUSH1 0x4 PUSH1 0x0 REVERT JUMPDEST CALLVALUE PUSH2 0x252 JUMPI PUSH1 0x20 CALLDATASIZE PUSH1 0x3 NOT ADD SLT PUSH2 0x252 JUMPI PUSH1 0x1 PUSH1 0x1 PUSH1 0xA0 SHL SUB PUSH2 0x35A PUSH2 0xF1F JUMP JUMPDEST AND PUSH1 0x0 MSTORE PUSH1 0x1 PUSH1 0x20 MSTORE PUSH1 0x20 PUSH1 0xFF PUSH1 0x40 PUSH1 0x0 KECCAK256 SLOAD AND PUSH1 0x40 MLOAD SWAP1 ISZERO ISZERO DUP2 MSTORE RETURN JUMPDEST CALLVALUE PUSH2 0x252 JUMPI PUSH1 0x20 CALLDATASIZE PUSH1 0x3 NOT ADD SLT PUSH2 0x252 JUMPI PUSH1 0x4 CALLDATALOAD PUSH1 0x1 PUSH1 0x1 PUSH1 0x40 SHL SUB DUP2 GT PUSH2 0x252 JUMPI CALLDATASIZE PUSH1 0x23 DUP3 ADD SLT ISZERO PUSH2 0x252 JUMPI PUSH2 0x24E PUSH2 0x3D1 PUSH2 0x3C2 PUSH2 0x3E8 SWAP4 CALLDATASIZE SWAP1 PUSH1 0x24 DUP2 PUSH1 0x4 ADD CALLDATALOAD SWAP2 ADD PUSH2 0x1041 JUMP JUMPDEST PUSH1 0x20 DUP1 DUP3 MLOAD DUP4 ADD ADD SWAP2 ADD PUSH2 0x147C JUMP JUMPDEST PUSH1 0x40 SWAP3 SWAP2 SWAP3 MLOAD SWAP4 DUP5 SWAP4 PUSH1 0x40 DUP6 MSTORE PUSH1 0x40 DUP6 ADD SWAP1 PUSH2 0xF6E JUMP JUMPDEST SWAP1 DUP4 DUP3 SUB PUSH1 0x20 DUP6 ADD MSTORE PUSH2 0xF6E JUMP JUMPDEST CALLVALUE PUSH2 0x252 JUMPI PUSH1 0x0 CALLDATASIZE PUSH1 0x3 NOT ADD SLT PUSH2 0x252 JUMPI PUSH1 0x40 MLOAD PUSH32 0x0 PUSH1 0x1 PUSH1 0x1 PUSH1 0xA0 SHL SUB AND DUP2 MSTORE PUSH1 0x20 SWAP1 RETURN JUMPDEST CALLVALUE PUSH2 0x252 JUMPI PUSH1 0x0 CALLDATASIZE PUSH1 0x3 NOT ADD SLT PUSH2 0x252 JUMPI PUSH1 0x20 PUSH1 0x3 SLOAD PUSH1 0x40 MLOAD SWAP1 DUP2 MSTORE RETURN JUMPDEST CALLVALUE PUSH2 0x252 JUMPI PUSH1 0x40 CALLDATASIZE PUSH1 0x3 NOT ADD SLT PUSH2 0x252 JUMPI PUSH1 0x4 CALLDATALOAD PUSH1 0x24 CALLDATALOAD PUSH1 0x1 PUSH1 0x1 PUSH1 0x40 SHL SUB DUP2 GT PUSH2 0x252 JUMPI PUSH2 0x48C SWAP1 CALLDATASIZE SWAP1 PUSH1 0x4 ADD PUSH2 0xF93 JUMP JUMPDEST SWAP1 SWAP2 PUSH1 0x40 MLOAD PUSH1 0x20 DUP2 ADD SWAP1 DUP3 DUP3 MSTORE CALLER PUSH1 0x60 SHL PUSH1 0x40 DUP3 ADD MSTORE TIMESTAMP PUSH1 0x54 DUP3 ADD MSTORE DUP4 DUP6 PUSH1 0x74 DUP4 ADD CALLDATACOPY PUSH2 0x4CB PUSH1 0x20 PUSH1 0x74 DUP4 DUP8 DUP2 ADD PREVRANDAO DUP4 DUP3 ADD MSTORE SUB ADD DUP1 DUP5 MSTORE ADD DUP3 PUSH2 0x1005 JUMP JUMPDEST MLOAD SWAP1 KECCAK256 SWAP2 PUSH1 0x40 MLOAD SWAP4 PUSH2 0x4DC DUP6 PUSH2 0xFEA JUMP JUMPDEST DUP3 DUP6 MSTORE PUSH1 0x20 DUP6 ADD SWAP1 CALLER DUP3 MSTORE PUSH2 0x4F2 CALLDATASIZE DUP5 DUP4 PUSH2 0x1041 JUMP JUMPDEST SWAP6 PUSH1 0x40 DUP2 ADD SWAP7 DUP8 MSTORE PUSH1 0x60 DUP2 ADD SWAP7 PUSH1 0x0 DUP9 MSTORE PUSH1 0x20 SWAP8 PUSH1 0x40 MLOAD SWAP1 PUSH2 0x514 DUP11 DUP4 PUSH2 0x1005 JUMP JUMPDEST PUSH1 0x0 DUP3 MSTORE PUSH1 0x80 DUP5 ADD SWAP2 DUP3 MSTORE PUSH1 0xA0 DUP5 ADD SWAP3 PUSH1 0x0 DUP5 MSTORE PUSH1 0x40 MLOAD SWAP7 PUSH2 0x536 DUP13 DUP10 PUSH2 0x1005 JUMP JUMPDEST PUSH1 0x0 DUP1 DUP10 MSTORE PUSH1 0xC0 DUP8 ADD SWAP9 DUP10 MSTORE DUP12 DUP2 MSTORE DUP1 DUP14 MSTORE PUSH1 0x40 SWAP1 KECCAK256 SWAP6 MLOAD DUP7 SSTORE MLOAD PUSH1 0x1 DUP7 ADD DUP1 SLOAD PUSH1 0x1 PUSH1 0x1 PUSH1 0xA0 SHL SUB NOT AND PUSH1 0x1 PUSH1 0x1 PUSH1 0xA0 SHL SUB SWAP3 SWAP1 SWAP3 AND SWAP2 SWAP1 SWAP2 OR SWAP1 SSTORE MLOAD DUP1 MLOAD PUSH1 0x2 DUP7 ADD SWAP2 PUSH1 0x1 PUSH1 0x1 PUSH1 0x40 SHL SUB DUP3 GT PUSH2 0x79E JUMPI PUSH2 0x59D DUP3 PUSH2 0x597 DUP6 SLOAD PUSH2 0x10A8 JUMP JUMPDEST DUP6 PUSH2 0x13C4 JUMP JUMPDEST DUP13 SWAP1 DUP14 PUSH1 0x1F DUP5 GT PUSH1 0x1 EQ PUSH2 0x83A JUMPI POP SWAP2 DUP1 PUSH2 0x5D5 SWAP3 PUSH2 0x5F0 SWAP7 SWAP6 SWAP5 PUSH1 0x0 SWAP3 PUSH2 0x82F JUMPI JUMPDEST POP POP DUP2 PUSH1 0x1 SHL SWAP2 PUSH1 0x0 NOT SWAP1 PUSH1 0x3 SHL SHR NOT AND OR SWAP1 JUMP JUMPDEST SWAP1 SSTORE JUMPDEST MLOAD ISZERO ISZERO PUSH1 0x3 DUP6 ADD SWAP1 PUSH1 0xFF DUP1 NOT DUP4 SLOAD AND SWAP2 ISZERO ISZERO AND OR SWAP1 SSTORE JUMP JUMPDEST MLOAD DUP1 MLOAD PUSH1 0x4 DUP5 ADD SWAP2 PUSH1 0x1 PUSH1 0x1 PUSH1 0x40 SHL SUB DUP3 GT PUSH2 0x79E JUMPI PUSH2 0x614 DUP3 PUSH2 0x597 DUP6 SLOAD PUSH2 0x10A8 JUMP JUMPDEST DUP11 SWAP1 PUSH1 0x1F DUP4 GT PUSH1 0x1 EQ PUSH2 0x7BF JUMPI DUP3 PUSH1 0x6 SWAP7 SWAP6 SWAP4 PUSH2 0x667 SWAP6 SWAP4 PUSH2 0x64C SWAP4 PUSH1 0x0 SWAP3 PUSH2 0x7B4 JUMPI POP POP DUP2 PUSH1 0x1 SHL SWAP2 PUSH1 0x0 NOT SWAP1 PUSH1 0x3 SHL SHR NOT AND OR SWAP1 JUMP JUMPDEST SWAP1 SSTORE JUMPDEST MLOAD ISZERO ISZERO PUSH1 0x5 DUP4 ADD SWAP1 PUSH1 0xFF DUP1 NOT DUP4 SLOAD AND SWAP2 ISZERO ISZERO AND OR SWAP1 SSTORE JUMP JUMPDEST ADD SWAP2 MLOAD SWAP2 DUP3 MLOAD PUSH1 0x1 PUSH1 0x1 PUSH1 0x40 SHL SUB DUP2 GT PUSH2 0x79E JUMPI DUP7 SWAP4 PUSH2 0x68B DUP3 PUSH2 0x597 DUP6 SLOAD PUSH2 0x10A8 JUMP JUMPDEST DUP9 SWAP1 PUSH1 0x1F DUP4 GT PUSH1 0x1 EQ PUSH2 0x70E JUMPI DUP3 PUSH32 0x34602E40C4C49141C143FEF967CB05AFC0207BA0F21B2BC82B56B712B4250FCA SWAP6 SWAP4 PUSH2 0x6F8 SWAP6 SWAP4 PUSH2 0x6E1 SWAP4 PUSH1 0x0 SWAP3 PUSH2 0x703 JUMPI POP POP DUP2 PUSH1 0x1 SHL SWAP2 PUSH1 0x0 NOT SWAP1 PUSH1 0x3 SHL SHR NOT AND OR SWAP1 JUMP JUMPDEST SWAP1 SSTORE JUMPDEST PUSH1 0x40 MLOAD SWAP2 DUP3 SWAP2 DUP10 DUP4 MSTORE CALLER SWAP7 DUP11 DUP5 ADD SWAP2 PUSH2 0x1416 JUMP JUMPDEST SUB SWAP1 LOG4 PUSH1 0x40 MLOAD SWAP1 DUP2 MSTORE RETURN JUMPDEST ADD MLOAD SWAP1 POP DUP13 DUP1 PUSH2 0x5C0 JUMP JUMPDEST SWAP1 PUSH1 0x1F NOT DUP4 AND SWAP2 DUP5 PUSH1 0x0 MSTORE DUP11 PUSH1 0x0 KECCAK256 SWAP3 PUSH1 0x0 JUMPDEST DUP13 DUP3 DUP3 LT PUSH2 0x785 JUMPI POP POP SWAP3 PUSH1 0x1 SWAP3 DUP6 SWAP3 PUSH32 0x34602E40C4C49141C143FEF967CB05AFC0207BA0F21B2BC82B56B712B4250FCA SWAP9 SWAP7 PUSH2 0x6F8 SWAP9 SWAP7 LT PUSH2 0x76C JUMPI JUMPDEST POP POP POP DUP2 SHL ADD SWAP1 SSTORE PUSH2 0x6E4 JUMP JUMPDEST ADD MLOAD PUSH1 0x0 NOT PUSH1 0xF8 DUP5 PUSH1 0x3 SHL AND SHR NOT AND SWAP1 SSTORE DUP12 DUP1 DUP1 PUSH2 0x75F JUMP JUMPDEST DUP5 DUP5 ADD MLOAD DUP7 SSTORE DUP13 SWAP10 POP PUSH1 0x1 SWAP1 SWAP6 ADD SWAP5 SWAP4 DUP5 ADD SWAP4 ADD PUSH2 0x721 JUMP JUMPDEST PUSH4 0x4E487B71 PUSH1 0xE0 SHL PUSH1 0x0 MSTORE PUSH1 0x41 PUSH1 0x4 MSTORE PUSH1 0x24 PUSH1 0x0 REVERT JUMPDEST ADD MLOAD SWAP1 POP DUP15 DUP1 PUSH2 0x5C0 JUMP JUMPDEST PUSH1 0x0 DUP5 DUP2 MSTORE DUP13 DUP2 KECCAK256 SWAP3 SWAP2 SWAP1 PUSH1 0x1F NOT DUP6 AND SWAP1 DUP15 JUMPDEST DUP3 DUP3 LT PUSH2 0x817 JUMPI POP POP SWAP3 PUSH1 0x1 SWAP3 DUP6 SWAP3 PUSH1 0x6 SWAP10 SWAP9 SWAP7 PUSH2 0x667 SWAP9 SWAP7 LT PUSH2 0x7FE JUMPI JUMPDEST POP POP POP DUP2 SHL ADD SWAP1 SSTORE PUSH2 0x64F JUMP JUMPDEST ADD MLOAD PUSH1 0x0 NOT PUSH1 0xF8 DUP5 PUSH1 0x3 SHL AND SHR NOT AND SWAP1 SSTORE DUP14 DUP1 DUP1 PUSH2 0x7F1 JUMP JUMPDEST DUP1 PUSH1 0x1 DUP7 SWAP8 DUP3 SWAP5 SWAP8 DUP8 ADD MLOAD DUP2 SSTORE ADD SWAP7 ADD SWAP5 ADD SWAP1 PUSH2 0x7D2 JUMP JUMPDEST ADD MLOAD SWAP1 POP DUP16 DUP1 PUSH2 0x5C0 JUMP JUMPDEST SWAP2 SWAP1 PUSH1 0x1F NOT DUP5 AND DUP6 PUSH1 0x0 MSTORE DUP4 PUSH1 0x0 KECCAK256 SWAP4 PUSH1 0x0 SWAP1 JUMPDEST DUP3 DUP3 LT PUSH2 0x890 JUMPI POP POP SWAP2 PUSH1 0x1 SWAP4 SWAP2 DUP6 PUSH2 0x5F0 SWAP9 SWAP8 SWAP7 SWAP5 LT PUSH2 0x877 JUMPI JUMPDEST POP POP POP DUP2 SHL ADD SWAP1 SSTORE PUSH2 0x5D8 JUMP JUMPDEST ADD MLOAD PUSH1 0x0 NOT PUSH1 0xF8 DUP5 PUSH1 0x3 SHL AND SHR NOT AND SWAP1 SSTORE DUP15 DUP1 DUP1 PUSH2 0x86A JUMP JUMPDEST DUP1 PUSH1 0x1 DUP7 SWAP8 DUP3 SWAP5 SWAP8 DUP8 ADD MLOAD DUP2 SSTORE ADD SWAP7 ADD SWAP5 ADD SWAP1 PUSH2 0x84E JUMP JUMPDEST CALLVALUE PUSH2 0x252 JUMPI PUSH1 0x20 CALLDATASIZE PUSH1 0x3 NOT ADD SLT PUSH2 0x252 JUMPI PUSH1 0x80 PUSH1 0x4 CALLDATALOAD PUSH1 0x3 SLOAD SWAP1 PUSH1 0x64 PUSH2 0x8D0 PUSH1 0x6 SLOAD DUP5 PUSH2 0x13B1 JUMP JUMPDEST PUSH1 0x0 SWAP3 DUP4 MSTORE PUSH1 0x5 PUSH1 0x20 SWAP1 DUP2 MSTORE PUSH1 0x40 DUP1 DUP6 KECCAK256 PUSH1 0x1 DUP7 MSTORE SWAP1 SWAP2 MSTORE DUP1 DUP5 KECCAK256 SLOAD DUP5 DUP1 MSTORE SWAP4 KECCAK256 SLOAD SWAP2 SWAP1 DIV DUP1 DUP4 LT DUP1 ISZERO SWAP5 SWAP2 SWAP4 SWAP2 SWAP1 PUSH2 0x92E JUMPI JUMPDEST DUP5 PUSH2 0x924 JUMPI JUMPDEST POP PUSH1 0x40 MLOAD SWAP4 ISZERO ISZERO DUP5 MSTORE PUSH1 0x20 DUP5 ADD MSTORE PUSH1 0x40 DUP4 ADD MSTORE PUSH1 0x60 DUP3 ADD MSTORE RETURN JUMPDEST ISZERO ISZERO SWAP4 POP DUP6 PUSH2 0x90A JUMP JUMPDEST DUP4 DUP4 LT ISZERO SWAP5 POP PUSH2 0x904 JUMP JUMPDEST CALLVALUE PUSH2 0x252 JUMPI PUSH1 0x20 CALLDATASIZE PUSH1 0x3 NOT ADD SLT PUSH2 0x252 JUMPI PUSH1 0x1 PUSH1 0x1 PUSH1 0xA0 SHL SUB PUSH2 0x95A PUSH2 0xF1F JUMP JUMPDEST AND PUSH1 0x0 MSTORE PUSH1 0x2 PUSH1 0x20 MSTORE PUSH1 0x20 PUSH1 0x40 PUSH1 0x0 KECCAK256 SLOAD PUSH1 0x40 MLOAD SWAP1 DUP2 MSTORE RETURN JUMPDEST CALLVALUE PUSH2 0x252 JUMPI PUSH1 0xC0 CALLDATASIZE PUSH1 0x3 NOT ADD SLT PUSH2 0x252 JUMPI PUSH2 0x98C PUSH2 0xFC0 JUMP JUMPDEST PUSH1 0x44 CALLDATALOAD PUSH1 0x1 PUSH1 0x1 PUSH1 0x40 SHL SUB DUP2 GT PUSH2 0x252 JUMPI PUSH2 0x9AB SWAP1 CALLDATASIZE SWAP1 PUSH1 0x4 ADD PUSH2 0xF93 JUMP JUMPDEST SWAP2 PUSH1 0x64 CALLDATALOAD PUSH1 0x1 PUSH1 0x1 PUSH1 0x40 SHL SUB DUP2 GT PUSH2 0x252 JUMPI PUSH2 0x9CB SWAP1 CALLDATASIZE SWAP1 PUSH1 0x4 ADD PUSH2 0xF93 JUMP JUMPDEST SWAP1 PUSH1 0x84 CALLDATALOAD PUSH1 0x1 PUSH1 0x1 PUSH1 0x40 SHL SUB DUP2 GT PUSH2 0x252 JUMPI PUSH2 0x9EB SWAP1 CALLDATASIZE SWAP1 PUSH1 0x4 ADD PUSH2 0xF93 JUMP JUMPDEST SWAP3 SWAP1 SWAP2 CALLER PUSH1 0x0 MSTORE PUSH1 0x1 PUSH1 0x20 MSTORE PUSH1 0xFF PUSH1 0x40 PUSH1 0x0 KECCAK256 SLOAD AND ISZERO PUSH2 0xA19 JUMPI PUSH2 0xA17 SWAP7 CALLER SWAP7 PUSH1 0xA4 CALLDATALOAD SWAP7 PUSH1 0x4 CALLDATALOAD PUSH2 0x1500 JUMP JUMPDEST STOP JUMPDEST PUSH3 0x82B429 PUSH1 0xE8 SHL PUSH1 0x0 MSTORE PUSH1 0x4 PUSH1 0x0 REVERT JUMPDEST CALLVALUE PUSH2 0x252 JUMPI PUSH1 0x20 CALLDATASIZE PUSH1 0x3 NOT ADD SLT PUSH2 0x252 JUMPI PUSH2 0x24E PUSH2 0xA48 PUSH1 0x4 CALLDATALOAD PUSH2 0x12C1 JUMP JUMPDEST PUSH2 0xA69 PUSH1 0x40 SWAP6 SWAP4 SWAP6 MLOAD SWAP6 DUP7 SWAP6 ISZERO ISZERO DUP7 MSTORE PUSH1 0x80 PUSH1 0x20 DUP8 ADD MSTORE PUSH1 0x80 DUP7 ADD SWAP1 PUSH2 0xF6E JUMP JUMPDEST SWAP2 ISZERO ISZERO PUSH1 0x40 DUP6 ADD MSTORE DUP4 DUP3 SUB PUSH1 0x60 DUP6 ADD MSTORE PUSH2 0xF6E JUMP JUMPDEST CALLVALUE PUSH2 0x252 JUMPI PUSH1 0x60 CALLDATASIZE PUSH1 0x3 NOT ADD SLT PUSH2 0x252 JUMPI PUSH2 0xA97 PUSH2 0xFC0 JUMP JUMPDEST PUSH1 0x44 CALLDATALOAD SWAP1 PUSH1 0x1 PUSH1 0x1 PUSH1 0x40 SHL SUB DUP3 GT PUSH2 0x252 JUMPI PUSH2 0xAC4 PUSH2 0xABD PUSH2 0xA17 SWAP4 CALLDATASIZE SWAP1 PUSH1 0x4 ADD PUSH2 0xF93 JUMP JUMPDEST CALLDATASIZE SWAP2 PUSH2 0x1041 JUMP JUMPDEST SWAP1 PUSH1 0x4 CALLDATALOAD PUSH2 0x1D3E JUMP JUMPDEST CALLVALUE PUSH2 0x252 JUMPI PUSH1 0x0 CALLDATASIZE PUSH1 0x3 NOT ADD SLT PUSH2 0x252 JUMPI PUSH1 0x20 PUSH1 0x6 SLOAD PUSH1 0x40 MLOAD SWAP1 DUP2 MSTORE RETURN JUMPDEST CALLVALUE PUSH2 0x252 JUMPI PUSH1 0xA0 CALLDATASIZE PUSH1 0x3 NOT ADD SLT PUSH2 0x252 JUMPI PUSH1 0x4 CALLDATALOAD PUSH1 0x24 CALLDATALOAD PUSH1 0x1 PUSH1 0x1 PUSH1 0x40 SHL SUB DUP2 GT PUSH2 0x252 JUMPI PUSH2 0xB1E SWAP1 CALLDATASIZE SWAP1 PUSH1 0x4 ADD PUSH2 0xF93 JUMP JUMPDEST SWAP2 SWAP1 PUSH1 0x44 CALLDATALOAD SWAP3 DUP4 ISZERO ISZERO DUP5 SUB PUSH2 0x252 JUMPI PUSH1 0x64 CALLDATALOAD PUSH1 0x1 PUSH1 0x1 PUSH1 0x40 SHL SUB DUP2 GT PUSH2 0x252 JUMPI PUSH2 0xB4C SWAP1 CALLDATASIZE SWAP1 PUSH1 0x4 ADD PUSH2 0xF93 JUMP JUMPDEST SWAP3 SWAP1 CALLER PUSH1 0x0 MSTORE PUSH1 0x1 PUSH1 0x20 MSTORE PUSH1 0xFF PUSH1 0x40 PUSH1 0x0 KECCAK256 SLOAD AND ISZERO PUSH2 0xA19 JUMPI PUSH2 0xB82 SWAP4 PUSH1 0x60 DUP2 LT PUSH2 0xBAE JUMPI SWAP1 DUP2 DUP2 JUMPDEST CALLER SWAP6 PUSH1 0x84 CALLDATALOAD SWAP6 DUP11 DUP11 PUSH2 0x1500 JUMP JUMPDEST PUSH2 0xB8C DUP3 DUP3 PUSH2 0x1D02 JUMP JUMPDEST PUSH2 0xB92 JUMPI STOP JUMPDEST PUSH2 0xA17 SWAP2 PUSH1 0x40 MLOAD SWAP2 PUSH2 0xBA5 PUSH1 0x20 DUP5 PUSH2 0x1005 JUMP JUMPDEST PUSH1 0x0 DUP4 MSTORE PUSH2 0x1D3E JUMP JUMPDEST DUP2 SWAP1 PUSH1 0x0 SWAP3 PUSH2 0xB75 JUMP JUMPDEST CALLVALUE PUSH2 0x252 JUMPI PUSH1 0x20 CALLDATASIZE PUSH1 0x3 NOT ADD SLT PUSH2 0x252 JUMPI PUSH1 0x8 SLOAD PUSH1 0x4 CALLDATALOAD SWAP1 PUSH1 0x1 PUSH1 0x1 PUSH1 0xA0 SHL SUB AND CALLER SUB PUSH2 0x328 JUMPI PUSH1 0x64 DUP2 GT PUSH2 0xC18 JUMPI PUSH1 0x20 DUP2 PUSH32 0xBC589FCCF641D342B7853C2C6FACA39631D4D19EFBE77E71E5611E31678C220E SWAP3 PUSH1 0x6 SSTORE PUSH1 0x40 MLOAD SWAP1 DUP2 MSTORE LOG1 STOP JUMPDEST PUSH4 0x309CB87 PUSH1 0xE5 SHL PUSH1 0x0 MSTORE PUSH1 0x4 PUSH1 0x0 REVERT JUMPDEST CALLVALUE PUSH2 0x252 JUMPI PUSH1 0x20 CALLDATASIZE PUSH1 0x3 NOT ADD SLT PUSH2 0x252 JUMPI PUSH1 0x4 CALLDATALOAD PUSH1 0x0 MSTORE PUSH1 0x4 PUSH1 0x20 MSTORE PUSH1 0x40 PUSH1 0x0 KECCAK256 DUP1 SLOAD SWAP1 PUSH1 0x1 PUSH1 0x1 PUSH1 0x40 SHL SUB DUP3 GT PUSH2 0x79E JUMPI PUSH1 0x40 MLOAD SWAP2 PUSH2 0xC6F PUSH1 0x20 DUP3 PUSH1 0x5 SHL ADD DUP5 PUSH2 0x1005 JUMP JUMPDEST DUP1 DUP4 MSTORE PUSH1 0x20 DUP4 ADD DUP1 SWAP3 PUSH1 0x0 MSTORE PUSH1 0x20 PUSH1 0x0 KECCAK256 PUSH1 0x0 SWAP2 JUMPDEST DUP4 DUP4 LT PUSH2 0xD41 JUMPI DUP5 DUP7 PUSH1 0x40 MLOAD SWAP2 DUP3 SWAP2 PUSH1 0x20 DUP4 ADD SWAP1 PUSH1 0x20 DUP5 MSTORE MLOAD DUP1 SWAP2 MSTORE PUSH1 0x40 DUP4 ADD SWAP1 PUSH1 0x40 DUP2 PUSH1 0x5 SHL DUP6 ADD ADD SWAP3 SWAP2 PUSH1 0x0 SWAP1 JUMPDEST DUP3 DUP3 LT PUSH2 0xCC3 JUMPI POP POP POP POP SUB SWAP1 RETURN JUMPDEST SWAP2 SWAP4 PUSH1 0x1 SWAP2 SWAP4 SWAP6 POP PUSH1 0x20 DUP1 SWAP2 PUSH1 0x3F NOT DUP10 DUP3 SUB ADD DUP6 MSTORE DUP8 MLOAD SWAP1 DUP5 DUP1 PUSH1 0xA0 SHL SUB DUP3 MLOAD AND DUP2 MSTORE DUP3 DUP3 ADD MLOAD ISZERO ISZERO DUP4 DUP3 ADD MSTORE PUSH1 0xA0 DUP1 PUSH2 0xD21 PUSH2 0xD0F PUSH1 0x40 DUP7 ADD MLOAD PUSH1 0xC0 PUSH1 0x40 DUP8 ADD MSTORE PUSH1 0xC0 DUP7 ADD SWAP1 PUSH2 0xF6E JUMP JUMPDEST PUSH1 0x60 DUP7 ADD MLOAD DUP6 DUP3 SUB PUSH1 0x60 DUP8 ADD MSTORE PUSH2 0xF6E JUMP JUMPDEST SWAP4 PUSH1 0x80 DUP2 ADD MLOAD PUSH1 0x80 DUP6 ADD MSTORE ADD MLOAD SWAP2 ADD MSTORE SWAP7 ADD SWAP3 ADD SWAP3 ADD DUP6 SWAP5 SWAP4 SWAP2 SWAP3 PUSH2 0xCB4 JUMP JUMPDEST PUSH1 0x5 PUSH1 0x20 PUSH1 0x1 SWAP3 PUSH1 0x40 MLOAD PUSH2 0xD54 DUP2 PUSH2 0xFCF JUMP JUMPDEST PUSH1 0xFF DUP7 SLOAD DUP7 DUP1 PUSH1 0xA0 SHL SUB DUP2 AND DUP4 MSTORE PUSH1 0xA0 SHR AND ISZERO ISZERO DUP4 DUP3 ADD MSTORE PUSH2 0xD77 DUP6 DUP8 ADD PUSH2 0x10E2 JUMP JUMPDEST PUSH1 0x40 DUP3 ADD MSTORE PUSH2 0xD88 PUSH1 0x2 DUP8 ADD PUSH2 0x10E2 JUMP JUMPDEST PUSH1 0x60 DUP3 ADD MSTORE PUSH1 0x3 DUP7 ADD SLOAD PUSH1 0x80 DUP3 ADD MSTORE PUSH1 0x4 DUP7 ADD SLOAD PUSH1 0xA0 DUP3 ADD MSTORE DUP2 MSTORE ADD SWAP3 ADD SWAP3 ADD SWAP2 SWAP1 PUSH2 0xC84 JUMP JUMPDEST CALLVALUE PUSH2 0x252 JUMPI PUSH1 0x0 CALLDATASIZE PUSH1 0x3 NOT ADD SLT PUSH2 0x252 JUMPI PUSH1 0x40 MLOAD PUSH32 0x0 PUSH1 0x1 PUSH1 0x1 PUSH1 0xA0 SHL SUB AND DUP2 MSTORE PUSH1 0x20 SWAP1 RETURN JUMPDEST CALLVALUE PUSH2 0x252 JUMPI PUSH1 0x40 CALLDATASIZE PUSH1 0x3 NOT ADD SLT PUSH2 0x252 JUMPI PUSH1 0x20 PUSH2 0xE1A PUSH2 0xE12 PUSH2 0xF35 JUMP JUMPDEST PUSH1 0x4 CALLDATALOAD PUSH2 0x11B0 JUMP JUMPDEST PUSH1 0x40 MLOAD SWAP1 DUP2 MSTORE RETURN JUMPDEST CALLVALUE PUSH2 0x252 JUMPI PUSH1 0x40 CALLDATASIZE PUSH1 0x3 NOT ADD SLT PUSH2 0x252 JUMPI PUSH2 0xE3B PUSH2 0xF35 JUMP JUMPDEST PUSH1 0x4 CALLDATALOAD PUSH1 0x0 MSTORE PUSH1 0x7 PUSH1 0x20 MSTORE PUSH1 0x40 PUSH1 0x0 KECCAK256 SWAP1 PUSH1 0x1 DUP1 PUSH1 0xA0 SHL SUB AND PUSH1 0x0 MSTORE PUSH1 0x20 MSTORE PUSH2 0x24E PUSH2 0xE6A PUSH1 0x40 PUSH1 0x0 KECCAK256 PUSH2 0x10E2 JUMP JUMPDEST PUSH1 0x40 MLOAD SWAP2 DUP3 SWAP2 PUSH1 0x20 DUP4 MSTORE PUSH1 0x20 DUP4 ADD SWAP1 PUSH2 0xF6E JUMP JUMPDEST CALLVALUE PUSH2 0x252 JUMPI PUSH1 0x40 CALLDATASIZE PUSH1 0x3 NOT ADD SLT PUSH2 0x252 JUMPI PUSH2 0xE97 PUSH2 0xF1F JUMP JUMPDEST PUSH1 0x8 SLOAD PUSH1 0x24 CALLDATALOAD SWAP2 SWAP1 PUSH1 0x1 PUSH1 0x1 PUSH1 0xA0 SHL SUB AND CALLER SUB PUSH2 0x328 JUMPI PUSH1 0x1 PUSH1 0x1 PUSH1 0xA0 SHL SUB AND SWAP1 DUP2 ISZERO PUSH2 0x317 JUMPI PUSH1 0x20 PUSH32 0xF21E638CBCCAD60709E37C990768543730CE2449D9C79B38E1E972FA99B3A219 SWAP2 DUP4 PUSH1 0x0 MSTORE PUSH1 0x2 DUP3 MSTORE PUSH2 0xF13 DUP2 PUSH2 0xF0E PUSH1 0x40 PUSH1 0x0 KECCAK256 SLOAD DUP8 PUSH1 0x0 MSTORE PUSH1 0x2 DUP7 MSTORE DUP3 PUSH1 0x40 PUSH1 0x0 KECCAK256 SSTORE PUSH1 0x3 SLOAD PUSH2 0x1078 JUMP JUMPDEST PUSH2 0x109B JUMP JUMPDEST PUSH1 0x3 SSTORE PUSH1 0x40 MLOAD SWAP1 DUP2 MSTORE LOG2 STOP JUMPDEST PUSH1 0x4 CALLDATALOAD SWAP1 PUSH1 0x1 PUSH1 0x1 PUSH1 0xA0 SHL SUB DUP3 AND DUP3 SUB PUSH2 0x252 JUMPI JUMP JUMPDEST PUSH1 0x24 CALLDATALOAD SWAP1 PUSH1 0x1 PUSH1 0x1 PUSH1 0xA0 SHL SUB DUP3 AND DUP3 SUB PUSH2 0x252 JUMPI JUMP JUMPDEST PUSH1 0x0 JUMPDEST DUP4 DUP2 LT PUSH2 0xF5E JUMPI POP POP PUSH1 0x0 SWAP2 ADD MSTORE JUMP JUMPDEST DUP2 DUP2 ADD MLOAD DUP4 DUP3 ADD MSTORE PUSH1 0x20 ADD PUSH2 0xF4E JUMP JUMPDEST SWAP1 PUSH1 0x20 SWAP2 PUSH2 0xF87 DUP2 MLOAD DUP1 SWAP3 DUP2 DUP6 MSTORE DUP6 DUP1 DUP7 ADD SWAP2 ADD PUSH2 0xF4B JUMP JUMPDEST PUSH1 0x1F ADD PUSH1 0x1F NOT AND ADD ADD SWAP1 JUMP JUMPDEST SWAP2 DUP2 PUSH1 0x1F DUP5 ADD SLT ISZERO PUSH2 0x252 JUMPI DUP3 CALLDATALOAD SWAP2 PUSH1 0x1 PUSH1 0x1 PUSH1 0x40 SHL SUB DUP4 GT PUSH2 0x252 JUMPI PUSH1 0x20 DUP4 DUP2 DUP7 ADD SWAP6 ADD ADD GT PUSH2 0x252 JUMPI JUMP JUMPDEST PUSH1 0x24 CALLDATALOAD SWAP1 DUP2 ISZERO ISZERO DUP3 SUB PUSH2 0x252 JUMPI JUMP JUMPDEST PUSH1 0xC0 DUP2 ADD SWAP1 DUP2 LT PUSH1 0x1 PUSH1 0x1 PUSH1 0x40 SHL SUB DUP3 GT OR PUSH2 0x79E JUMPI PUSH1 0x40 MSTORE JUMP JUMPDEST PUSH1 0xE0 DUP2 ADD SWAP1 DUP2 LT PUSH1 0x1 PUSH1 0x1 PUSH1 0x40 SHL SUB DUP3 GT OR PUSH2 0x79E JUMPI PUSH1 0x40 MSTORE JUMP JUMPDEST SWAP1 PUSH1 0x1F DUP1 NOT SWAP2 ADD AND DUP2 ADD SWAP1 DUP2 LT PUSH1 0x1 PUSH1 0x1 PUSH1 0x40 SHL SUB DUP3 GT OR PUSH2 0x79E JUMPI PUSH1 0x40 MSTORE JUMP JUMPDEST PUSH1 0x1 PUSH1 0x1 PUSH1 0x40 SHL SUB DUP2 GT PUSH2 0x79E JUMPI PUSH1 0x1F ADD PUSH1 0x1F NOT AND PUSH1 0x20 ADD SWAP1 JUMP JUMPDEST SWAP3 SWAP2 SWAP3 PUSH2 0x104D DUP3 PUSH2 0x1026 JUMP JUMPDEST SWAP2 PUSH2 0x105B PUSH1 0x40 MLOAD SWAP4 DUP5 PUSH2 0x1005 JUMP JUMPDEST DUP3 SWAP5 DUP2 DUP5 MSTORE DUP2 DUP4 ADD GT PUSH2 0x252 JUMPI DUP3 DUP2 PUSH1 0x20 SWAP4 DUP5 PUSH1 0x0 SWAP7 ADD CALLDATACOPY ADD ADD MSTORE JUMP JUMPDEST SWAP2 SWAP1 DUP3 SUB SWAP2 DUP3 GT PUSH2 0x1085 JUMPI JUMP JUMPDEST PUSH4 0x4E487B71 PUSH1 0xE0 SHL PUSH1 0x0 MSTORE PUSH1 0x11 PUSH1 0x4 MSTORE PUSH1 0x24 PUSH1 0x0 REVERT JUMPDEST SWAP2 SWAP1 DUP3 ADD DUP1 SWAP3 GT PUSH2 0x1085 JUMPI JUMP JUMPDEST SWAP1 PUSH1 0x1 DUP3 DUP2 SHR SWAP3 AND DUP1 ISZERO PUSH2 0x10D8 JUMPI JUMPDEST PUSH1 0x20 DUP4 LT EQ PUSH2 0x10C2 JUMPI JUMP JUMPDEST PUSH4 0x4E487B71 PUSH1 0xE0 SHL PUSH1 0x0 MSTORE PUSH1 0x22 PUSH1 0x4 MSTORE PUSH1 0x24 PUSH1 0x0 REVERT JUMPDEST SWAP2 PUSH1 0x7F AND SWAP2 PUSH2 0x10B7 JUMP JUMPDEST SWAP1 PUSH1 0x40 MLOAD SWAP2 DUP3 PUSH1 0x0 DUP3 SLOAD SWAP3 PUSH2 0x10F6 DUP5 PUSH2 0x10A8 JUMP JUMPDEST DUP1 DUP5 MSTORE SWAP4 PUSH1 0x1 DUP2 AND SWAP1 DUP2 ISZERO PUSH2 0x1164 JUMPI POP PUSH1 0x1 EQ PUSH2 0x111D JUMPI JUMPDEST POP PUSH2 0x111B SWAP3 POP SUB DUP4 PUSH2 0x1005 JUMP JUMPDEST JUMP JUMPDEST SWAP1 POP PUSH1 0x0 SWAP3 SWAP2 SWAP3 MSTORE PUSH1 0x20 PUSH1 0x0 KECCAK256 SWAP1 PUSH1 0x0 SWAP2 JUMPDEST DUP2 DUP4 LT PUSH2 0x1148 JUMPI POP POP SWAP1 PUSH1 0x20 PUSH2 0x111B SWAP3 DUP3 ADD ADD CODESIZE PUSH2 0x110E JUMP JUMPDEST PUSH1 0x20 SWAP2 SWAP4 POP DUP1 PUSH1 0x1 SWAP2 SLOAD DUP4 DUP6 DUP10 ADD ADD MSTORE ADD SWAP2 ADD SWAP1 SWAP2 DUP5 SWAP3 PUSH2 0x112F JUMP JUMPDEST SWAP1 POP PUSH1 0x20 SWAP3 POP PUSH2 0x111B SWAP5 SWAP2 POP PUSH1 0xFF NOT AND DUP3 DUP5 ADD MSTORE ISZERO ISZERO PUSH1 0x5 SHL DUP3 ADD ADD CODESIZE PUSH2 0x110E JUMP JUMPDEST DUP1 MLOAD DUP3 LT ISZERO PUSH2 0x119A JUMPI PUSH1 0x20 SWAP2 PUSH1 0x5 SHL ADD ADD SWAP1 JUMP JUMPDEST PUSH4 0x4E487B71 PUSH1 0xE0 SHL PUSH1 0x0 MSTORE PUSH1 0x32 PUSH1 0x4 MSTORE PUSH1 0x24 PUSH1 0x0 REVERT JUMPDEST PUSH1 0x0 MSTORE PUSH1 0x4 PUSH1 0x20 MSTORE PUSH1 0x40 PUSH1 0x0 KECCAK256 DUP1 SLOAD PUSH1 0x1 PUSH1 0x1 PUSH1 0x40 SHL SUB DUP2 GT PUSH2 0x79E JUMPI PUSH1 0x40 MLOAD SWAP2 PUSH2 0x11E1 PUSH1 0x20 DUP4 PUSH1 0x5 SHL ADD DUP5 PUSH2 0x1005 JUMP JUMPDEST DUP2 DUP4 MSTORE PUSH1 0x20 DUP4 ADD SWAP1 PUSH1 0x0 MSTORE PUSH1 0x20 PUSH1 0x0 KECCAK256 PUSH1 0x0 SWAP2 JUMPDEST DUP4 DUP4 LT PUSH2 0x1253 JUMPI POP POP POP POP PUSH1 0x0 JUMPDEST DUP2 MLOAD DUP2 LT ISZERO PUSH2 0x124B JUMPI PUSH1 0x1 PUSH1 0x1 PUSH1 0xA0 SHL SUB PUSH2 0x121E DUP3 DUP5 PUSH2 0x1186 JUMP JUMPDEST MLOAD MLOAD AND PUSH1 0x1 PUSH1 0x1 PUSH1 0xA0 SHL SUB DUP5 AND EQ PUSH2 0x1238 JUMPI PUSH1 0x1 ADD PUSH2 0x1203 JUMP JUMPDEST PUSH1 0x80 SWAP3 POP PUSH2 0x1245 SWAP2 PUSH2 0x1186 JUMP JUMPDEST MLOAD ADD MLOAD SWAP1 JUMP JUMPDEST POP POP POP PUSH1 0x0 SWAP1 JUMP JUMPDEST PUSH1 0x5 PUSH1 0x20 PUSH1 0x1 SWAP3 PUSH1 0x40 MLOAD PUSH2 0x1266 DUP2 PUSH2 0xFCF JUMP JUMPDEST PUSH1 0xFF DUP7 SLOAD DUP7 DUP1 PUSH1 0xA0 SHL SUB DUP2 AND DUP4 MSTORE PUSH1 0xA0 SHR AND ISZERO ISZERO DUP4 DUP3 ADD MSTORE PUSH2 0x1289 DUP6 DUP8 ADD PUSH2 0x10E2 JUMP JUMPDEST PUSH1 0x40 DUP3 ADD MSTORE PUSH2 0x129A PUSH1 0x2 DUP8 ADD PUSH2 0x10E2 JUMP JUMPDEST PUSH1 0x60 DUP3 ADD MSTORE PUSH1 0x3 DUP7 ADD SLOAD PUSH1 0x80 DUP3 ADD MSTORE PUSH1 0x4 DUP7 ADD SLOAD PUSH1 0xA0 DUP3 ADD MSTORE DUP2 MSTORE ADD SWAP3 ADD SWAP3 ADD SWAP2 SWAP1 PUSH2 0x11F5 JUMP JUMPDEST PUSH1 0x0 MSTORE PUSH1 0x0 PUSH1 0x20 MSTORE PUSH1 0x40 PUSH1 0x0 KECCAK256 SWAP1 PUSH1 0x40 MLOAD SWAP1 PUSH2 0x12DC DUP3 PUSH2 0xFEA JUMP JUMPDEST DUP3 SLOAD DUP3 MSTORE PUSH1 0x1 DUP4 ADD SLOAD PUSH1 0x1 PUSH1 0x1 PUSH1 0xA0 SHL SUB AND PUSH1 0x20 DUP4 ADD SWAP1 DUP2 MSTORE PUSH2 0x1301 PUSH1 0x2 DUP6 ADD PUSH2 0x10E2 JUMP JUMPDEST PUSH1 0x40 DUP5 ADD MSTORE PUSH1 0xFF PUSH1 0x3 DUP6 ADD SLOAD AND PUSH1 0x60 DUP5 ADD SWAP1 ISZERO ISZERO DUP2 MSTORE PUSH2 0x1323 PUSH1 0x4 DUP7 ADD PUSH2 0x10E2 JUMP JUMPDEST SWAP2 PUSH1 0x80 DUP6 ADD SWAP3 DUP4 MSTORE PUSH1 0xC0 PUSH2 0x134A PUSH1 0x6 PUSH1 0xFF PUSH1 0x5 DUP11 ADD SLOAD AND SWAP9 PUSH1 0xA0 DUP10 ADD SWAP10 ISZERO ISZERO DUP11 MSTORE ADD PUSH2 0x10E2 JUMP JUMPDEST SWAP6 ADD SWAP5 DUP6 MSTORE MLOAD PUSH1 0x1 PUSH1 0x1 PUSH1 0xA0 SHL SUB AND ISZERO SWAP1 DUP2 ISZERO PUSH2 0x13A7 JUMPI JUMPDEST POP PUSH2 0x1375 JUMPI MLOAD SWAP3 MLOAD SWAP2 MLOAD PUSH1 0x1 SWAP4 SWAP3 ISZERO ISZERO SWAP2 JUMP JUMPDEST POP SWAP2 POP POP PUSH1 0x0 SWAP1 PUSH1 0x40 MLOAD PUSH2 0x138A PUSH1 0x20 DUP3 PUSH2 0x1005 JUMP JUMPDEST PUSH1 0x0 DUP2 MSTORE SWAP1 PUSH1 0x0 SWAP1 PUSH1 0x40 MLOAD PUSH2 0x13A0 PUSH1 0x20 DUP3 PUSH2 0x1005 JUMP JUMPDEST PUSH1 0x0 DUP2 MSTORE SWAP1 JUMP JUMPDEST SWAP1 POP MLOAD ISZERO CODESIZE PUSH2 0x1362 JUMP JUMPDEST DUP2 DUP2 MUL SWAP3 SWAP2 DUP2 ISZERO SWAP2 DUP5 DIV EQ OR ISZERO PUSH2 0x1085 JUMPI JUMP JUMPDEST PUSH1 0x1F DUP3 GT PUSH2 0x13D1 JUMPI POP POP POP JUMP JUMPDEST PUSH1 0x0 MSTORE PUSH1 0x20 PUSH1 0x0 KECCAK256 SWAP1 PUSH1 0x20 PUSH1 0x1F DUP5 ADD PUSH1 0x5 SHR DUP4 ADD SWAP4 LT PUSH2 0x140C JUMPI JUMPDEST PUSH1 0x1F ADD PUSH1 0x5 SHR ADD SWAP1 JUMPDEST DUP2 DUP2 LT PUSH2 0x1400 JUMPI POP POP JUMP JUMPDEST PUSH1 0x0 DUP2 SSTORE PUSH1 0x1 ADD PUSH2 0x13F5 JUMP JUMPDEST SWAP1 SWAP2 POP DUP2 SWAP1 PUSH2 0x13EC JUMP JUMPDEST SWAP1 DUP1 PUSH1 0x20 SWAP4 SWAP3 DUP2 DUP5 MSTORE DUP5 DUP5 ADD CALLDATACOPY PUSH1 0x0 DUP3 DUP3 ADD DUP5 ADD MSTORE PUSH1 0x1F ADD PUSH1 0x1F NOT AND ADD ADD SWAP1 JUMP JUMPDEST DUP2 PUSH1 0x1F DUP3 ADD SLT ISZERO PUSH2 0x252 JUMPI DUP1 MLOAD PUSH2 0x144D DUP2 PUSH2 0x1026 JUMP JUMPDEST SWAP3 PUSH2 0x145B PUSH1 0x40 MLOAD SWAP5 DUP6 PUSH2 0x1005 JUMP JUMPDEST DUP2 DUP5 MSTORE PUSH1 0x20 DUP3 DUP5 ADD ADD GT PUSH2 0x252 JUMPI PUSH2 0x1479 SWAP2 PUSH1 0x20 DUP1 DUP6 ADD SWAP2 ADD PUSH2 0xF4B JUMP JUMPDEST SWAP1 JUMP JUMPDEST SWAP2 SWAP1 SWAP2 PUSH1 0x40 DUP2 DUP5 SUB SLT PUSH2 0x252 JUMPI DUP1 MLOAD PUSH1 0x1 PUSH1 0x1 PUSH1 0x40 SHL SUB DUP2 GT PUSH2 0x252 JUMPI DUP4 PUSH2 0x14A5 SWAP2 DUP4 ADD PUSH2 0x1437 JUMP JUMPDEST SWAP3 PUSH1 0x20 DUP3 ADD MLOAD PUSH1 0x1 PUSH1 0x1 PUSH1 0x40 SHL SUB DUP2 GT PUSH2 0x252 JUMPI PUSH2 0x1479 SWAP3 ADD PUSH2 0x1437 JUMP JUMPDEST DUP1 SLOAD DUP3 LT ISZERO PUSH2 0x119A JUMPI PUSH1 0x0 MSTORE PUSH1 0x5 PUSH1 0x20 PUSH1 0x0 KECCAK256 SWAP2 MUL ADD SWAP1 PUSH1 0x0 SWAP1 JUMP JUMPDEST PUSH1 0x40 MLOAD SWAP1 PUSH2 0x14EE PUSH1 0x40 DUP4 PUSH2 0x1005 JUMP JUMPDEST PUSH1 0x3 DUP3 MSTORE PUSH3 0x594553 PUSH1 0xE8 SHL PUSH1 0x20 DUP4 ADD MSTORE JUMP JUMPDEST SWAP10 SWAP8 SWAP9 SWAP6 SWAP1 SWAP7 SWAP10 SWAP5 SWAP2 SWAP4 SWAP5 PUSH1 0x80 MSTORE PUSH1 0x80 MLOAD PUSH1 0x0 MSTORE PUSH1 0x0 PUSH1 0x20 MSTORE PUSH1 0x40 PUSH1 0x0 KECCAK256 SWAP10 PUSH1 0x1 DUP1 PUSH1 0xA0 SHL SUB PUSH1 0x1 DUP13 ADD SLOAD AND ISZERO PUSH2 0x1CF1 JUMPI PUSH1 0xFF PUSH1 0x3 DUP13 ADD SLOAD AND PUSH2 0x15AD JUMPI PUSH1 0x1 PUSH1 0x1 PUSH1 0xA0 SHL SUB DUP8 AND PUSH1 0x0 DUP2 DUP2 MSTORE PUSH1 0x2 PUSH1 0x20 MSTORE PUSH1 0x40 SWAP1 KECCAK256 SLOAD SWAP1 SWAP11 SWAP1 SWAP3 DUP4 ISZERO PUSH2 0xA19 JUMPI PUSH1 0x0 JUMPDEST PUSH1 0x80 MLOAD PUSH1 0x0 MSTORE PUSH1 0x4 PUSH1 0x20 MSTORE PUSH1 0x40 PUSH1 0x0 KECCAK256 SLOAD DUP2 LT ISZERO PUSH2 0x15BE JUMPI PUSH1 0x80 MLOAD PUSH1 0x0 MSTORE PUSH1 0x4 PUSH1 0x20 MSTORE DUP13 PUSH2 0x1595 DUP3 PUSH1 0x40 PUSH1 0x0 KECCAK256 PUSH2 0x14C3 JUMP JUMPDEST POP SLOAD PUSH1 0x1 PUSH1 0x1 PUSH1 0xA0 SHL SUB AND EQ PUSH2 0x15AD JUMPI PUSH1 0x1 ADD PUSH2 0x1563 JUMP JUMPDEST PUSH4 0x4A4117F9 PUSH1 0xE0 SHL PUSH1 0x0 MSTORE PUSH1 0x4 PUSH1 0x0 REVERT JUMPDEST POP SWAP1 SWAP2 SWAP3 SWAP4 SWAP5 SWAP6 SWAP7 SWAP8 SWAP10 SWAP12 PUSH1 0x2 SWAP1 SWAP12 SWAP10 SWAP12 ADD PUSH2 0x15D9 SWAP1 PUSH2 0x10E2 JUMP JUMPDEST SWAP10 PUSH1 0x40 SWAP11 DUP12 DUP14 DUP2 MLOAD PUSH2 0x15EB DUP4 DUP3 PUSH2 0x1005 JUMP JUMPDEST PUSH1 0xE DUP2 MSTORE PUSH1 0x20 DUP2 ADD PUSH14 0x64656661756C742D736F75726365 PUSH1 0x90 SHL SWAP1 MSTORE SWAP3 DUP3 MLOAD PUSH2 0x1614 DUP5 DUP3 PUSH2 0x1005 JUMP JUMPDEST PUSH1 0xD DUP2 MSTORE PUSH1 0x20 DUP2 ADD PUSH13 0x64656661756C742D6C6F676963 PUSH1 0x98 SHL SWAP1 MSTORE SWAP4 DUP2 MLOAD ISZERO ISZERO PUSH1 0x0 EQ SWAP5 PUSH1 0x0 SWAP5 PUSH2 0x16BC SWAP5 PUSH2 0x16F3 SWAP5 PUSH2 0x172A SWAP9 PUSH2 0x1CE2 JUMPI DUP8 PUSH2 0x1671 SWAP2 DUP5 MLOAD DUP1 SWAP4 DUP2 SWAP3 PUSH4 0x34492069 PUSH1 0xE2 SHL DUP4 MSTORE PUSH1 0x20 PUSH1 0x4 DUP5 ADD MSTORE PUSH1 0x24 DUP4 ADD SWAP1 PUSH2 0xF6E JUMP JUMPDEST SUB DUP2 ADDRESS GAS STATICCALL SWAP1 DUP2 DUP10 SWAP2 DUP11 SWAP4 PUSH2 0x1CBC JUMPI JUMPDEST POP PUSH2 0x1CAF JUMPI JUMPDEST POP POP PUSH2 0x16E5 SWAP3 SWAP2 PUSH2 0x16CD SWAP2 JUMPDEST DUP9 SWAP1 DUP10 EQ PUSH2 0x1C8D JUMPI POP PUSH2 0x16A4 PUSH2 0x14DF JUMP JUMPDEST SWAP3 JUMPDEST DUP2 MLOAD SWAP8 DUP9 SWAP7 PUSH1 0x80 PUSH1 0x20 DUP10 ADD MSTORE PUSH1 0xA0 DUP9 ADD SWAP1 PUSH2 0xF6E JUMP JUMPDEST SWAP2 PUSH1 0x1F NOT DUP8 DUP5 SUB ADD SWAP1 DUP8 ADD MSTORE PUSH2 0xF6E JUMP JUMPDEST SWAP1 DUP11 PUSH1 0x60 DUP6 ADD MSTORE PUSH1 0x1F NOT DUP5 DUP4 SUB ADD PUSH1 0x80 DUP6 ADD MSTORE PUSH2 0xF6E JUMP JUMPDEST SUB PUSH1 0x1F NOT DUP2 ADD DUP4 MSTORE DUP3 PUSH2 0x1005 JUMP JUMPDEST DUP14 DUP1 MLOAD SWAP4 DUP5 SWAP3 DUP4 SWAP3 PUSH4 0x7BF41D77 PUSH1 0xE1 SHL DUP5 MSTORE PUSH1 0x4 DUP5 ADD MSTORE PUSH2 0x1718 PUSH1 0x44 DUP5 ADD DUP12 DUP11 PUSH2 0x1416 JUMP JUMPDEST DUP4 DUP2 SUB PUSH1 0x3 NOT ADD PUSH1 0x24 DUP6 ADD MSTORE SWAP1 PUSH2 0xF6E JUMP JUMPDEST SUB DUP2 PUSH32 0x0 PUSH1 0x1 PUSH1 0x1 PUSH1 0xA0 SHL SUB AND GAS STATICCALL SWAP1 DUP2 ISZERO PUSH2 0x1C82 JUMPI PUSH1 0x0 SWAP1 DUP2 SWAP3 PUSH2 0x1C2B JUMPI JUMPDEST POP ISZERO PUSH2 0x1C1C JUMPI PUSH1 0x20 DUP2 MLOAD SWAP2 ADD KECCAK256 PUSH2 0x177E PUSH2 0x14DF JUMP JUMPDEST PUSH1 0x20 DUP2 MLOAD SWAP2 ADD KECCAK256 EQ SWAP12 ISZERO ISZERO DUP1 SWAP13 SUB PUSH2 0x1C0D JUMPI POP PUSH2 0x179C CALLDATASIZE DUP5 DUP4 PUSH2 0x1041 JUMP JUMPDEST PUSH1 0x20 DUP2 MLOAD SWAP2 ADD KECCAK256 SWAP3 PUSH1 0x80 MLOAD PUSH1 0x0 MSTORE PUSH1 0x7 PUSH1 0x20 MSTORE DUP11 DUP1 PUSH1 0x0 KECCAK256 PUSH1 0x0 SWAP1 DUP13 DUP3 MSTORE PUSH1 0x20 MSTORE KECCAK256 SWAP2 PUSH1 0x1 PUSH1 0x1 PUSH1 0x40 SHL SUB DUP3 GT PUSH2 0x79E JUMPI PUSH2 0x17DB DUP3 PUSH2 0x597 DUP6 SLOAD PUSH2 0x10A8 JUMP JUMPDEST PUSH1 0x0 SWAP1 PUSH1 0x1F DUP4 GT PUSH1 0x1 EQ PUSH2 0x1BA9 JUMPI PUSH2 0x180B SWAP3 SWAP2 PUSH1 0x0 SWAP2 DUP4 PUSH2 0x1B9E JUMPI POP POP DUP2 PUSH1 0x1 SHL SWAP2 PUSH1 0x0 NOT SWAP1 PUSH1 0x3 SHL SHR NOT AND OR SWAP1 JUMP JUMPDEST SWAP1 SSTORE JUMPDEST PUSH1 0x80 MLOAD PUSH1 0x0 MSTORE PUSH1 0x4 PUSH1 0x20 MSTORE DUP9 PUSH1 0x0 KECCAK256 SWAP2 DUP10 MLOAD SWAP2 PUSH2 0x182A DUP4 PUSH2 0xFCF JUMP JUMPDEST DUP10 DUP4 MSTORE PUSH1 0x20 DUP4 ADD SWAP4 DUP13 DUP6 MSTORE PUSH2 0x1840 CALLDATASIZE DUP10 DUP12 PUSH2 0x1041 JUMP JUMPDEST SWAP2 DUP13 DUP6 ADD SWAP3 DUP4 MSTORE PUSH2 0x1852 CALLDATASIZE DUP10 DUP14 PUSH2 0x1041 JUMP JUMPDEST SWAP4 PUSH1 0x60 DUP7 ADD SWAP5 DUP6 MSTORE PUSH1 0x80 DUP7 ADD MSTORE PUSH1 0xA0 DUP6 ADD MSTORE DUP1 SLOAD PUSH9 0x10000000000000000 DUP2 LT ISZERO PUSH2 0x79E JUMPI PUSH2 0x1886 SWAP2 PUSH1 0x1 DUP3 ADD DUP2 SSTORE PUSH2 0x14C3 JUMP JUMPDEST SWAP5 SWAP1 SWAP5 PUSH2 0x1B88 JUMPI DUP4 MLOAD DUP6 SLOAD SWAP2 MLOAD PUSH1 0x1 PUSH1 0x1 PUSH1 0xA8 SHL SUB NOT SWAP1 SWAP3 AND PUSH1 0x1 PUSH1 0x1 PUSH1 0xA0 SHL SUB SWAP2 SWAP1 SWAP2 AND OR SWAP1 ISZERO ISZERO PUSH1 0xA0 SHL PUSH1 0xFF PUSH1 0xA0 SHL AND OR DUP5 SSTORE MLOAD DUP1 MLOAD PUSH1 0x1 DUP6 ADD SWAP2 PUSH1 0x1 PUSH1 0x1 PUSH1 0x40 SHL SUB DUP3 GT PUSH2 0x79E JUMPI PUSH2 0x18DF DUP3 PUSH2 0x597 DUP6 SLOAD PUSH2 0x10A8 JUMP JUMPDEST PUSH1 0x20 SWAP1 PUSH1 0x1F DUP4 GT PUSH1 0x1 EQ PUSH2 0x1B21 JUMPI PUSH2 0x190F SWAP3 SWAP2 PUSH1 0x0 SWAP2 DUP4 PUSH2 0x1A7E JUMPI POP POP DUP2 PUSH1 0x1 SHL SWAP2 PUSH1 0x0 NOT SWAP1 PUSH1 0x3 SHL SHR NOT AND OR SWAP1 JUMP JUMPDEST SWAP1 SSTORE JUMPDEST MLOAD DUP1 MLOAD PUSH1 0x2 DUP5 ADD SWAP2 PUSH1 0x1 PUSH1 0x1 PUSH1 0x40 SHL SUB DUP3 GT PUSH2 0x79E JUMPI PUSH2 0x1936 DUP3 PUSH2 0x597 DUP6 SLOAD PUSH2 0x10A8 JUMP JUMPDEST PUSH1 0x20 SWAP1 PUSH1 0x1F DUP4 GT PUSH1 0x1 EQ PUSH2 0x1A89 JUMPI SWAP4 PUSH32 0x4164D38FCC30943A577283F30908D604D84A89A2E856B65B3329632355355805 SWAP10 SWAP9 SWAP8 SWAP6 SWAP4 PUSH2 0x1996 DUP5 PUSH1 0x4 SWAP6 PUSH1 0xA0 SWAP6 PUSH2 0x19FC SWAP12 SWAP10 PUSH1 0x0 SWAP3 PUSH2 0x1A7E JUMPI POP POP DUP2 PUSH1 0x1 SHL SWAP2 PUSH1 0x0 NOT SWAP1 PUSH1 0x3 SHL SHR NOT AND OR SWAP1 JUMP JUMPDEST SWAP1 SSTORE JUMPDEST PUSH1 0x80 DUP2 ADD MLOAD PUSH1 0x3 DUP6 ADD SSTORE ADD MLOAD SWAP2 ADD SSTORE PUSH1 0x80 MLOAD PUSH1 0x0 MSTORE PUSH1 0x5 PUSH1 0x20 MSTORE DUP9 PUSH1 0x0 KECCAK256 DUP11 PUSH1 0x0 MSTORE PUSH1 0x20 MSTORE PUSH2 0x19CD DUP10 PUSH1 0x0 KECCAK256 SWAP2 DUP3 SLOAD PUSH2 0x109B JUMP JUMPDEST SWAP1 SSTORE PUSH2 0x19EB DUP9 MLOAD SWAP5 DUP6 SWAP5 DUP12 DUP7 MSTORE PUSH1 0x60 PUSH1 0x20 DUP8 ADD MSTORE PUSH1 0x60 DUP7 ADD SWAP2 PUSH2 0x1416 JUMP JUMPDEST SWAP1 DUP4 DUP3 SUB DUP10 DUP6 ADD MSTORE PUSH1 0x80 MLOAD SWAP7 PUSH2 0x1416 JUMP JUMPDEST SUB SWAP1 LOG3 PUSH1 0x80 MLOAD PUSH1 0x0 MSTORE PUSH1 0x5 PUSH1 0x20 MSTORE DUP1 PUSH1 0x0 KECCAK256 DUP3 PUSH1 0x0 MSTORE PUSH1 0x20 MSTORE DUP1 PUSH1 0x0 KECCAK256 SLOAD SWAP1 PUSH1 0x3 SLOAD PUSH1 0x64 PUSH2 0x1A2C PUSH1 0x6 SLOAD DUP4 PUSH2 0x13B1 JUMP JUMPDEST DIV DUP4 LT ISZERO SWAP1 DUP2 PUSH2 0x1A74 JUMPI JUMPDEST POP PUSH2 0x1A41 JUMPI POP POP POP JUMP JUMPDEST PUSH32 0x4788C192B43B1EAA29D531808A78165D3487D939B8246058F5AD10D22FC2BD0D SWAP2 DUP2 MLOAD SWAP4 DUP5 MSTORE PUSH1 0x20 DUP5 ADD MSTORE PUSH1 0x80 MLOAD SWAP3 LOG2 JUMP JUMPDEST SWAP1 POP ISZERO ISZERO CODESIZE PUSH2 0x1A37 JUMP JUMPDEST ADD MLOAD SWAP1 POP CODESIZE DUP1 PUSH2 0x5C0 JUMP JUMPDEST SWAP1 DUP4 PUSH1 0x0 MSTORE DUP1 PUSH1 0x0 KECCAK256 SWAP2 PUSH1 0x0 JUMPDEST PUSH1 0x1F NOT DUP6 AND DUP2 LT PUSH2 0x1B09 JUMPI POP SWAP4 PUSH1 0x1 DUP5 PUSH1 0xA0 SWAP5 PUSH2 0x19FC SWAP11 SWAP9 SWAP5 PUSH32 0x4164D38FCC30943A577283F30908D604D84A89A2E856B65B3329632355355805 SWAP15 SWAP14 SWAP13 SWAP11 SWAP9 PUSH1 0x4 SWAP9 PUSH1 0x1F NOT DUP2 AND LT PUSH2 0x1AF0 JUMPI JUMPDEST POP POP POP DUP2 SHL ADD SWAP1 SSTORE PUSH2 0x1999 JUMP JUMPDEST ADD MLOAD PUSH1 0x0 NOT PUSH1 0xF8 DUP5 PUSH1 0x3 SHL AND SHR NOT AND SWAP1 SSTORE CODESIZE DUP1 DUP1 PUSH2 0x1AE3 JUMP JUMPDEST SWAP2 SWAP3 PUSH1 0x20 PUSH1 0x1 DUP2 SWAP3 DUP7 DUP6 ADD MLOAD DUP2 SSTORE ADD SWAP5 ADD SWAP3 ADD PUSH2 0x1A96 JUMP JUMPDEST SWAP1 PUSH1 0x1F NOT DUP4 AND SWAP2 DUP5 PUSH1 0x0 MSTORE DUP2 PUSH1 0x0 KECCAK256 SWAP3 PUSH1 0x0 JUMPDEST DUP2 DUP2 LT PUSH2 0x1B70 JUMPI POP SWAP1 DUP5 PUSH1 0x1 SWAP6 SWAP5 SWAP4 SWAP3 LT PUSH2 0x1B57 JUMPI JUMPDEST POP POP POP DUP2 SHL ADD SWAP1 SSTORE PUSH2 0x1912 JUMP JUMPDEST ADD MLOAD PUSH1 0x0 NOT PUSH1 0xF8 DUP5 PUSH1 0x3 SHL AND SHR NOT AND SWAP1 SSTORE CODESIZE DUP1 DUP1 PUSH2 0x1B4A JUMP JUMPDEST SWAP3 SWAP4 PUSH1 0x20 PUSH1 0x1 DUP2 SWAP3 DUP8 DUP7 ADD MLOAD DUP2 SSTORE ADD SWAP6 ADD SWAP4 ADD PUSH2 0x1B34 JUMP JUMPDEST PUSH4 0x4E487B71 PUSH1 0xE0 SHL PUSH1 0x0 MSTORE PUSH1 0x0 PUSH1 0x4 MSTORE PUSH1 0x24 PUSH1 0x0 REVERT JUMPDEST ADD CALLDATALOAD SWAP1 POP CODESIZE DUP1 PUSH2 0x5C0 JUMP JUMPDEST DUP4 DUP3 MSTORE PUSH1 0x20 DUP3 KECCAK256 SWAP2 PUSH1 0x1F NOT DUP5 AND DUP2 JUMPDEST DUP2 DUP2 LT PUSH2 0x1BF5 JUMPI POP SWAP1 DUP5 PUSH1 0x1 SWAP6 SWAP5 SWAP4 SWAP3 LT PUSH2 0x1BDB JUMPI JUMPDEST POP POP POP DUP2 SHL ADD SWAP1 SSTORE PUSH2 0x180E JUMP JUMPDEST ADD CALLDATALOAD PUSH1 0x0 NOT PUSH1 0x3 DUP5 SWAP1 SHL PUSH1 0xF8 AND SHR NOT AND SWAP1 SSTORE CODESIZE DUP1 DUP1 PUSH2 0x1BCE JUMP JUMPDEST SWAP2 SWAP4 PUSH1 0x20 PUSH1 0x1 DUP2 SWAP3 DUP8 DUP8 ADD CALLDATALOAD DUP2 SSTORE ADD SWAP6 ADD SWAP3 ADD PUSH2 0x1BB8 JUMP JUMPDEST PUSH2 0xC18 SWAP5 SWAP2 SWAP3 POP PUSH1 0x80 MLOAD PUSH2 0x2085 JUMP JUMPDEST PUSH2 0xC18 DUP6 DUP5 DUP9 DUP6 PUSH1 0x80 MLOAD PUSH2 0x2085 JUMP JUMPDEST SWAP2 POP RETURNDATASIZE DUP1 DUP3 DUP5 RETURNDATACOPY PUSH2 0x1C3C DUP2 DUP5 PUSH2 0x1005 JUMP JUMPDEST DUP3 ADD SWAP1 DUP14 DUP4 DUP4 SUB SLT PUSH2 0x1C7B JUMPI DUP3 MLOAD SWAP3 DUP4 ISZERO ISZERO DUP5 SUB PUSH2 0x1C7E JUMPI PUSH1 0x20 DUP2 ADD MLOAD SWAP2 PUSH1 0x1 PUSH1 0x1 PUSH1 0x40 SHL SUB DUP4 GT PUSH2 0x1C7B JUMPI POP PUSH2 0x1C74 SWAP3 SWAP2 ADD PUSH2 0x1437 JUMP JUMPDEST SWAP1 CODESIZE PUSH2 0x1769 JUMP JUMPDEST DUP1 REVERT JUMPDEST POP DUP1 REVERT JUMPDEST DUP13 MLOAD RETURNDATASIZE PUSH1 0x0 DUP3 RETURNDATACOPY RETURNDATASIZE SWAP1 REVERT JUMPDEST POP DUP1 MLOAD PUSH2 0x1C9A DUP3 DUP3 PUSH2 0x1005 JUMP JUMPDEST PUSH1 0x2 DUP2 MSTORE PUSH2 0x4E4F PUSH1 0xF0 SHL PUSH1 0x20 DUP3 ADD MSTORE SWAP3 PUSH2 0x16A6 JUMP JUMPDEST SWAP5 POP SWAP3 POP DUP2 PUSH2 0x16E5 PUSH2 0x1687 JUMP JUMPDEST SWAP1 SWAP3 POP PUSH2 0x1CDB SWAP2 POP RETURNDATASIZE DUP1 DUP12 DUP4 RETURNDATACOPY PUSH2 0x1CD3 DUP2 DUP4 PUSH2 0x1005 JUMP JUMPDEST DUP2 ADD SWAP1 PUSH2 0x147C JUMP JUMPDEST SWAP2 CODESIZE PUSH2 0x1681 JUMP JUMPDEST POP PUSH2 0x16E5 SWAP3 SWAP2 PUSH2 0x16CD SWAP2 PUSH2 0x1693 JUMP JUMPDEST PUSH4 0xC5723B51 PUSH1 0xE0 SHL PUSH1 0x0 MSTORE PUSH1 0x4 PUSH1 0x0 REVERT JUMPDEST SWAP1 PUSH1 0x3 SLOAD SWAP2 DUP3 ISZERO PUSH2 0x124B JUMPI PUSH1 0x0 MSTORE PUSH1 0x5 PUSH1 0x20 MSTORE PUSH1 0x40 PUSH1 0x0 KECCAK256 SWAP1 ISZERO ISZERO PUSH1 0x0 MSTORE PUSH1 0x20 MSTORE PUSH1 0x64 PUSH2 0x1D38 PUSH1 0x40 PUSH1 0x0 KECCAK256 SLOAD SWAP3 PUSH1 0x6 SLOAD SWAP1 PUSH2 0x13B1 JUMP JUMPDEST DIV GT ISZERO SWAP1 JUMP JUMPDEST SWAP2 SWAP1 DUP3 PUSH1 0x0 MSTORE PUSH1 0x0 PUSH1 0x20 MSTORE PUSH1 0x40 PUSH1 0x0 KECCAK256 SWAP2 PUSH1 0x1 DUP1 PUSH1 0xA0 SHL SUB PUSH1 0x1 DUP5 ADD SLOAD AND ISZERO PUSH2 0x1CF1 JUMPI PUSH1 0x3 DUP4 ADD SWAP2 DUP3 SLOAD SWAP4 PUSH1 0xFF DUP6 AND PUSH2 0x15AD JUMPI PUSH2 0x1D7B DUP3 DUP8 PUSH2 0x1D02 JUMP JUMPDEST ISZERO PUSH2 0xC18 JUMPI PUSH1 0x20 SWAP4 PUSH1 0x40 MLOAD PUSH2 0x1D90 DUP7 DUP3 PUSH2 0x1005 JUMP JUMPDEST PUSH1 0x0 DUP2 MSTORE SWAP6 DUP8 PUSH1 0x0 MSTORE PUSH1 0x4 DUP7 MSTORE PUSH1 0x40 PUSH1 0x0 KECCAK256 SLOAD PUSH2 0x203E JUMPI JUMPDEST PUSH1 0xFF NOT AND PUSH1 0x1 OR SWAP1 SSTORE DUP5 MLOAD PUSH1 0x4 DUP3 ADD SWAP1 PUSH1 0x1 PUSH1 0x1 PUSH1 0x40 SHL SUB DUP2 GT PUSH2 0x79E JUMPI PUSH2 0x1DDA DUP2 PUSH2 0x1DD4 DUP5 SLOAD PUSH2 0x10A8 JUMP JUMPDEST DUP5 PUSH2 0x13C4 JUMP JUMPDEST DUP6 PUSH1 0x1F DUP3 GT PUSH1 0x1 EQ PUSH2 0x1FD5 JUMPI DUP2 PUSH1 0x6 SWAP5 SWAP4 SWAP3 PUSH2 0x1E0C SWAP3 PUSH1 0x0 SWAP2 PUSH2 0x1FCA JUMPI JUMPDEST POP DUP2 PUSH1 0x1 SHL SWAP2 PUSH1 0x0 NOT SWAP1 PUSH1 0x3 SHL SHR NOT AND OR SWAP1 JUMP JUMPDEST SWAP1 SSTORE JUMPDEST PUSH2 0x1E28 DUP4 PUSH1 0x5 DUP4 ADD SWAP1 PUSH1 0xFF DUP1 NOT DUP4 SLOAD AND SWAP2 ISZERO ISZERO AND OR SWAP1 SSTORE JUMP JUMPDEST ADD DUP3 MLOAD PUSH1 0x1 PUSH1 0x1 PUSH1 0x40 SHL SUB DUP2 GT PUSH2 0x79E JUMPI PUSH2 0x1E47 DUP2 PUSH2 0x1DD4 DUP5 SLOAD PUSH2 0x10A8 JUMP JUMPDEST DUP5 PUSH1 0x1F DUP3 GT PUSH1 0x1 EQ PUSH2 0x1F3B JUMPI SWAP3 PUSH2 0x1F1A SWAP6 SWAP3 PUSH2 0x1EA0 DUP4 PUSH32 0x89B763933EFE68C9FB105BE2523D43AFBB04F27B42BDA7793A30BB6AE16BC4FF SWAP10 SWAP8 SWAP5 PUSH2 0x1F2B SWAP8 PUSH1 0x0 SWAP2 PUSH2 0x1F30 JUMPI POP DUP2 PUSH1 0x1 SHL SWAP2 PUSH1 0x0 NOT SWAP1 PUSH1 0x3 SHL SHR NOT AND OR SWAP1 JUMP JUMPDEST SWAP1 SSTORE JUMPDEST DUP8 PUSH1 0x0 MSTORE PUSH1 0x5 DUP4 MSTORE PUSH1 0x40 PUSH1 0x0 KECCAK256 SWAP1 ISZERO ISZERO SWAP1 DUP2 PUSH1 0x0 MSTORE DUP4 MSTORE DUP8 PUSH32 0x62C5313AC9057B028C77D3D71A8BC78681AB575A0CAB56A1FEF1E7484CD6B48D PUSH1 0x40 PUSH1 0x0 KECCAK256 SLOAD PUSH1 0x40 MLOAD DUP1 SWAP2 DUP6 DUP3 MSTORE PUSH1 0x60 DUP9 DUP4 ADD MSTORE PUSH2 0x1EFD PUSH1 0x60 DUP4 ADD DUP9 PUSH2 0xF6E JUMP JUMPDEST SWAP1 PUSH1 0x40 DUP4 ADD MSTORE SUB SWAP1 LOG2 PUSH1 0x40 MLOAD SWAP6 DUP7 SWAP6 PUSH1 0x60 DUP8 MSTORE PUSH1 0x60 DUP8 ADD SWAP1 PUSH2 0xF6E JUMP JUMPDEST SWAP3 DUP6 ADD MSTORE DUP4 DUP3 SUB PUSH1 0x40 DUP6 ADD MSTORE PUSH2 0xF6E JUMP JUMPDEST SUB SWAP1 LOG2 JUMP JUMPDEST SWAP1 POP DUP6 ADD MLOAD CODESIZE PUSH2 0x1DF8 JUMP JUMPDEST PUSH1 0x1F NOT DUP3 AND SWAP1 DUP4 PUSH1 0x0 MSTORE DUP7 PUSH1 0x0 KECCAK256 SWAP2 PUSH1 0x0 JUMPDEST DUP2 DUP2 LT PUSH2 0x1FB3 JUMPI POP DUP4 PUSH2 0x1F2B SWAP7 SWAP4 PUSH2 0x1F1A SWAP10 SWAP7 SWAP4 PUSH32 0x89B763933EFE68C9FB105BE2523D43AFBB04F27B42BDA7793A30BB6AE16BC4FF SWAP12 SWAP10 SWAP7 PUSH1 0x1 SWAP5 LT PUSH2 0x1F9A JUMPI JUMPDEST POP POP DUP2 SHL ADD SWAP1 SSTORE PUSH2 0x1EA3 JUMP JUMPDEST DUP7 ADD MLOAD PUSH1 0x0 NOT PUSH1 0xF8 DUP5 PUSH1 0x3 SHL AND SHR NOT AND SWAP1 SSTORE CODESIZE DUP1 PUSH2 0x1F8E JUMP JUMPDEST SWAP2 SWAP3 DUP9 PUSH1 0x1 DUP2 SWAP3 DUP7 DUP12 ADD MLOAD DUP2 SSTORE ADD SWAP5 ADD SWAP3 ADD PUSH2 0x1F4D JUMP JUMPDEST SWAP1 POP DUP10 ADD MLOAD CODESIZE PUSH2 0x1DF8 JUMP JUMPDEST PUSH1 0x1F NOT DUP3 AND SWAP1 DUP4 PUSH1 0x0 MSTORE DUP8 PUSH1 0x0 KECCAK256 SWAP2 PUSH1 0x0 JUMPDEST DUP10 DUP12 DUP4 DUP4 LT PUSH2 0x2029 JUMPI POP POP POP SWAP2 DUP4 SWAP2 PUSH1 0x6 SWAP7 SWAP6 SWAP5 PUSH1 0x1 SWAP5 LT PUSH2 0x2010 JUMPI JUMPDEST POP POP DUP2 SHL ADD SWAP1 SSTORE PUSH2 0x1E0F JUMP JUMPDEST DUP11 ADD MLOAD PUSH1 0x0 NOT PUSH1 0xF8 DUP5 PUSH1 0x3 SHL AND SHR NOT AND SWAP1 SSTORE CODESIZE DUP1 PUSH2 0x2004 JUMP JUMPDEST DUP5 ADD MLOAD DUP6 SSTORE PUSH1 0x1 SWAP1 SWAP5 ADD SWAP4 SWAP3 DUP4 ADD SWAP3 ADD PUSH2 0x1FE7 JUMP JUMPDEST SWAP6 POP DUP7 PUSH1 0x0 MSTORE PUSH1 0x4 DUP6 MSTORE PUSH1 0x40 PUSH1 0x0 KECCAK256 PUSH1 0x0 SWAP1 DUP1 SLOAD ISZERO PUSH2 0x2071 JUMPI PUSH1 0x1 DUP8 DUP4 PUSH2 0x2069 SWAP4 DUP4 SWAP6 MSTORE KECCAK256 ADD PUSH2 0x10E2 JUMP JUMPDEST SWAP7 SWAP1 POP PUSH2 0x1DA8 JUMP JUMPDEST PUSH4 0x4E487B71 PUSH1 0xE0 SHL DUP3 MSTORE PUSH1 0x32 PUSH1 0x4 MSTORE PUSH1 0x24 DUP3 REVERT JUMPDEST SWAP2 SWAP5 SWAP4 SWAP3 SWAP1 SWAP3 PUSH1 0x0 SWAP4 PUSH1 0x1 DUP1 PUSH1 0xA0 SHL SUB AND SWAP4 DUP5 DUP2 MSTORE PUSH1 0x2 PUSH1 0x20 MSTORE DUP1 PUSH1 0x40 DUP2 KECCAK256 SSTORE PUSH2 0x20B1 DUP8 PUSH1 0x3 SLOAD PUSH2 0x1078 JUMP JUMPDEST PUSH1 0x3 SSTORE PUSH1 0x40 MLOAD PUSH4 0x991D881 PUSH1 0xE2 SHL DUP2 MSTORE PUSH1 0x4 DUP2 ADD DUP7 SWAP1 MSTORE PUSH32 0x0 PUSH1 0x1 PUSH1 0x1 PUSH1 0xA0 SHL SUB AND SWAP1 PUSH1 0x20 DUP2 PUSH1 0x24 DUP2 DUP6 GAS STATICCALL SWAP1 DUP2 ISZERO PUSH2 0x2224 JUMPI DUP4 SWAP2 PUSH2 0x21F2 JUMPI JUMPDEST POP DUP1 PUSH2 0x2156 JUMPI JUMPDEST POP POP POP PUSH32 0xAFFD8B9FFB2058F05FE3E1C643891491B6253AABE27BF992F581214AE071ABCC SWAP3 SWAP4 SWAP5 SWAP6 POP PUSH2 0x2151 PUSH1 0x40 MLOAD SWAP3 DUP4 SWAP3 PUSH1 0x20 DUP5 MSTORE PUSH1 0x20 DUP5 ADD SWAP2 PUSH2 0x1416 JUMP JUMPDEST SUB SWAP1 LOG3 JUMP JUMPDEST DUP3 SWAP9 DUP2 DUP2 GT PUSH1 0x0 EQ PUSH2 0x21EA JUMPI POP SWAP1 JUMPDEST DUP1 EXTCODESIZE ISZERO PUSH2 0x21E6 JUMPI PUSH1 0x44 DUP4 SWAP3 PUSH1 0x40 MLOAD SWAP11 DUP12 SWAP4 DUP5 SWAP3 PUSH4 0x2FB4D85 PUSH1 0xE0 SHL DUP5 MSTORE DUP12 PUSH1 0x4 DUP6 ADD MSTORE PUSH1 0x24 DUP5 ADD MSTORE GAS CALL SWAP7 DUP8 ISZERO PUSH2 0x21D9 JUMPI PUSH32 0xAFFD8B9FFB2058F05FE3E1C643891491B6253AABE27BF992F581214AE071ABCC SWAP5 SWAP6 SWAP7 SWAP8 PUSH2 0x21C9 JUMPI JUMPDEST DUP8 SWAP7 SWAP6 SWAP5 PUSH2 0x2111 JUMP JUMPDEST DUP2 PUSH2 0x21D3 SWAP2 PUSH2 0x1005 JUMP JUMPDEST CODESIZE PUSH2 0x21C0 JUMP JUMPDEST POP PUSH1 0x40 MLOAD SWAP1 RETURNDATASIZE SWAP1 DUP3 RETURNDATACOPY RETURNDATASIZE SWAP1 REVERT JUMPDEST DUP3 DUP1 REVERT JUMPDEST SWAP1 POP SWAP1 PUSH2 0x2165 JUMP JUMPDEST SWAP1 POP PUSH1 0x20 DUP2 RETURNDATASIZE PUSH1 0x20 GT PUSH2 0x221C JUMPI JUMPDEST DUP2 PUSH2 0x220D PUSH1 0x20 SWAP4 DUP4 PUSH2 0x1005 JUMP JUMPDEST DUP2 ADD SUB SLT PUSH2 0x21E6 JUMPI MLOAD CODESIZE PUSH2 0x210A JUMP JUMPDEST RETURNDATASIZE SWAP2 POP PUSH2 0x2200 JUMP JUMPDEST PUSH1 0x40 MLOAD RETURNDATASIZE DUP6 DUP3 RETURNDATACOPY RETURNDATASIZE SWAP1 REVERT INVALID LOG2 PUSH5 0x6970667358 0x22 SLT KECCAK256 DIV 0xDB 0xD7 SWAP8 SELFDESTRUCT 0xBD 0xC8 0x4F 0xFB 0xA8 0xDD GASLIMIT 0x1E CHAINID BLOBBASEFEE MULMOD ORIGIN SWAP11 DUP13 0xE1 0x2D JUMP 0xB0 SDIV DUP6 0xCD 0x24 AND ISZERO LT BLOBBASEFEE SELFDESTRUCT PUSH5 0x736F6C6343 STOP ADDMOD BYTE STOP CALLER "},"methodIdentifiers":{"admin()":"f851a440","avsNodes(address)":"f1d1b381","decodeRequestData(bytes)":"d12481a4","eigenVerify()":"2e52ec8b","finalizeResolution(bytes32,bool,bytes)":"9378c8fa","fulfillVerification(bytes32,bytes,bool,bytes,uint256)":"4b97f3db","getAttestations(bytes32)":"37e59e36","getFulfillment(bytes32)":"96c59cc1","getProof(bytes32,address)":"276d6526","getProofHash(bytes32,address)":"2af002e8","getQuorumStatus(bytes32)":"c09fff13","getRequest(bytes32)":"fb1e61ca","operatorWeights(address)":"b457c25a","quorumThreshold()":"7b7a91dd","requestResolution(bytes32,bytes)":"c2438071","setAVSNode(address,bool)":"f7c226da","setOperatorWeight(address,uint256)":"0e6b1110","setQuorumThreshold(uint256)":"4524c7e1","slashing()":"ca31fb9f","submitAttestation(bytes32,bool,bytes,bytes,bytes,uint256)":"9e4174aa","totalOperatorWeight()":"c5e9a279"}}}}}