{"contracts/adapter/UMAAdapter.sol":{"UMAAdapter":{"abi":[{"inputs":[{"internalType":"address","name":"vpoAdapter_","type":"address"},{"internalType":"address","name":"umaOracle_","type":"address"},{"internalType":"address","name":"admin_","type":"address"}],"stateMutability":"nonpayable","type":"constructor"},{"inputs":[],"name":"AlreadyFulfilled","type":"error"},{"inputs":[],"name":"NotFound","type":"error"},{"inputs":[],"name":"OnlyAdmin","type":"error"},{"inputs":[],"name":"ZeroAddress","type":"error"},{"anonymous":false,"inputs":[{"indexed":true,"internalType":"bytes32","name":"assertionId","type":"bytes32"},{"indexed":true,"internalType":"bytes32","name":"requestId","type":"bytes32"},{"indexed":false,"internalType":"bytes","name":"claim","type":"bytes"}],"name":"AssertionHandled","type":"event"},{"anonymous":false,"inputs":[{"indexed":true,"internalType":"bytes32","name":"assertionId","type":"bytes32"},{"indexed":true,"internalType":"bytes32","name":"requestId","type":"bytes32"},{"indexed":false,"internalType":"bool","name":"outcome","type":"bool"}],"name":"OutcomeSubmitted","type":"event"},{"anonymous":false,"inputs":[{"indexed":true,"internalType":"bytes32","name":"newAssertionId","type":"bytes32"},{"indexed":true,"internalType":"bytes32","name":"originalAssertionId","type":"bytes32"},{"indexed":false,"internalType":"bool","name":"outcome","type":"bool"}],"name":"UMAAssertionCreated","type":"event"},{"inputs":[],"name":"admin","outputs":[{"internalType":"address","name":"","type":"address"}],"stateMutability":"view","type":"function"},{"inputs":[{"internalType":"bytes32","name":"","type":"bytes32"}],"name":"assertionSubmitted","outputs":[{"internalType":"bool","name":"","type":"bool"}],"stateMutability":"view","type":"function"},{"inputs":[{"internalType":"bytes32","name":"","type":"bytes32"}],"name":"assertionToRequest","outputs":[{"internalType":"bytes32","name":"","type":"bytes32"}],"stateMutability":"view","type":"function"},{"inputs":[{"internalType":"bytes32","name":"requestId","type":"bytes32"}],"name":"getAssertionId","outputs":[{"internalType":"bytes32","name":"assertionId","type":"bytes32"}],"stateMutability":"view","type":"function"},{"inputs":[{"internalType":"bytes32","name":"assertionId","type":"bytes32"}],"name":"getRequestId","outputs":[{"internalType":"bytes32","name":"requestId","type":"bytes32"}],"stateMutability":"view","type":"function"},{"inputs":[{"internalType":"bytes32","name":"assertionId","type":"bytes32"},{"internalType":"bytes","name":"claim","type":"bytes"},{"internalType":"bytes","name":"data","type":"bytes"}],"name":"handleAssertion","outputs":[{"internalType":"bytes32","name":"requestId","type":"bytes32"}],"stateMutability":"nonpayable","type":"function"},{"inputs":[{"internalType":"bytes32","name":"","type":"bytes32"}],"name":"requestToAssertion","outputs":[{"internalType":"bytes32","name":"","type":"bytes32"}],"stateMutability":"view","type":"function"},{"inputs":[{"internalType":"bytes32","name":"requestId","type":"bytes32"},{"internalType":"bytes","name":"claim","type":"bytes"},{"internalType":"uint64","name":"liveness","type":"uint64"},{"internalType":"address","name":"currency","type":"address"},{"internalType":"uint256","name":"bond","type":"uint256"},{"internalType":"bytes32","name":"identifier","type":"bytes32"}],"name":"submitOutcomeToUMA","outputs":[{"internalType":"bytes32","name":"assertionId","type":"bytes32"}],"stateMutability":"nonpayable","type":"function"},{"inputs":[],"name":"umaOracle","outputs":[{"internalType":"contract IUMAOptimisticOracle","name":"","type":"address"}],"stateMutability":"view","type":"function"},{"inputs":[],"name":"vpoAdapter","outputs":[{"internalType":"contract IVPOAdapter","name":"","type":"address"}],"stateMutability":"view","type":"function"}],"evm":{"bytecode":{"linkReferences":{},"object":"60c060405234801561001057600080fd5b50604051610f38380380610f3883398101604081905261002f916100ee565b6001600160a01b0383166100565760405163d92e233d60e01b815260040160405180910390fd5b6001600160a01b03821661007d5760405163d92e233d60e01b815260040160405180910390fd5b6001600160a01b0381166100a45760405163d92e233d60e01b815260040160405180910390fd5b6001600160a01b0392831660805290821660a052600080546001600160a01b03191691909216179055610131565b80516001600160a01b03811681146100e957600080fd5b919050565b60008060006060848603121561010357600080fd5b61010c846100d2565b925061011a602085016100d2565b9150610128604085016100d2565b90509250925092565b60805160a051610db961017f6000396000818161013a015281816104cf015281816106b70152818161075901526107f201526000818160fb0152818161028501526105ac0152610db96000f3fe608060405234801561001057600080fd5b506004361061009e5760003560e01c80639c50ff19116100665780639c50ff191461016f5780639d8b43a5146101a2578063b78a4a3c146101c2578063f851a440146101d5578063f9c559cd146101e857600080fd5b80633456aaee146100a35780634769ff62146100d6578063591b2daf146100f65780635ff474c2146101355780638e2f4e171461015c575b600080fd5b6100c36100b1366004610882565b60009081526002602052604090205490565b6040519081526020015b60405180910390f35b6100c36100e4366004610882565b60026020526000908152604090205481565b61011d7f000000000000000000000000000000000000000000000000000000000000000081565b6040516001600160a01b0390911681526020016100cd565b61011d7f000000000000000000000000000000000000000000000000000000000000000081565b6100c361016a366004610912565b610208565b61019261017d366004610882565b60036020526000908152604090205460ff1681565b60405190151581526020016100cd565b6100c36101b0366004610882565b60009081526001602052604090205490565b6100c36101d0366004610998565b6104ac565b60005461011d906001600160a01b031681565b6100c36101f6366004610882565b60016020526000908152604090205481565b600080546001600160a01b0316331461023457604051634755657960e01b815260040160405180910390fd5b50600087815260026020526040902054806102625760405163c5723b5160e01b815260040160405180910390fd5b6040516396c59cc160e01b81526004810189905260009081906001600160a01b037f000000000000000000000000000000000000000000000000000000000000000016906396c59cc190602401600060405180830381865afa1580156102cc573d6000803e3d6000fd5b505050506040513d6000823e601f3d908101601f191682016040526102f49190810190610af1565b509250509150816103185760405163c5723b5160e01b815260040160405180910390fd5b60008381526003602052604090205460ff161561034857604051634a4117f960e01b815260040160405180910390fd5b600061035384610694565b905080156103cb57600061036685610736565b60008681526003602052604090819020805460ff19166001179055519091508c9086907f861f889fafa35245ea81c5686f0384184157732d97e07a1cb3be800584989c7f906103ba90851515815260200190565b60405180910390a3505050506104a1565b60008a8a846040516020016103e293929190610ba4565b60405160208183030381529060405290506000610402828b8b8b8b6107d8565b60008781526003602052604090819020805460ff19166001179055519091508d9087907f861f889fafa35245ea81c5686f0384184157732d97e07a1cb3be800584989c7f9061045690881515815260200190565b60405180910390a385817f1cea36dc9209638445baf21c42e838817870eac7ca4ebb0e0d0816ab9bdef9eb86604051610493911515815260200190565b60405180910390a350505050505b979650505050505050565b60405163220c0a2160e21b81526004810186905260009081906001600160a01b037f00000000000000000000000000000000000000000000000000000000000000001690638830288490602401600060405180830381865afa158015610516573d6000803e3d6000fd5b505050506040513d6000823e601f3d908101601f1916820160405261053e9190810190610bd5565b5098505050505050505050801561056857604051634a4117f960e01b815260040160405180910390fd5b6000878152600160205260409020541561059557604051634a4117f960e01b815260040160405180910390fd5b6040516329384caf60e21b81526001600160a01b037f0000000000000000000000000000000000000000000000000000000000000000169063a4e132bc906105e5908a9088908890600401610ca8565b6020604051808303816000875af1158015610604573d6000803e3d6000fd5b505050506040513d601f19601f820116820180604052508101906106289190610ccb565b600088815260016020908152604080832084905583835260029091529081902089905551909250829088907f96e176bdf2e627b012aa5d1dde1ecf7a96bed0717e098901f57c05eed70541be90610682908a908a90610ce4565b60405180910390a35095945050505050565b60405163220c0a2160e21b81526004810182905260009081906001600160a01b037f00000000000000000000000000000000000000000000000000000000000000001690638830288490602401600060405180830381865afa1580156106fe573d6000803e3d6000fd5b505050506040513d6000823e601f3d908101601f191682016040526107269190810190610bd5565b509b9a5050505050505050505050565b60405163220c0a2160e21b81526004810182905260009081906001600160a01b037f00000000000000000000000000000000000000000000000000000000000000001690638830288490602401600060405180830381865afa1580156107a0573d6000803e3d6000fd5b505050506040513d6000823e601f3d908101601f191682016040526107c89190810190610bd5565b9c9b505050505050505050505050565b604051631720baf960e31b81526000906001600160a01b037f0000000000000000000000000000000000000000000000000000000000000000169063b905d7c8906108359089903090869081908c908c908c908c90600401610cf8565b6020604051808303816000875af1158015610854573d6000803e3d6000fd5b505050506040513d601f19601f820116820180604052508101906108789190610ccb565b9695505050505050565b60006020828403121561089457600080fd5b5035919050565b60008083601f8401126108ad57600080fd5b50813567ffffffffffffffff8111156108c557600080fd5b6020830191508360208285010111156108dd57600080fd5b9250929050565b67ffffffffffffffff811681146108fa57600080fd5b50565b6001600160a01b03811681146108fa57600080fd5b600080600080600080600060c0888a03121561092d57600080fd5b87359650602088013567ffffffffffffffff81111561094b57600080fd5b6109578a828b0161089b565b909750955050604088013561096b816108e4565b9350606088013561097b816108fd565b969995985093969295946080840135945060a09093013592915050565b6000806000806000606086880312156109b057600080fd5b85359450602086013567ffffffffffffffff8111156109ce57600080fd5b6109da8882890161089b565b909550935050604086013567ffffffffffffffff8111156109fa57600080fd5b610a068882890161089b565b969995985093965092949392505050565b80518015158114610a2757600080fd5b919050565b634e487b7160e01b600052604160045260246000fd5b60005b83811015610a5d578181015183820152602001610a45565b50506000910152565b600082601f830112610a7757600080fd5b815167ffffffffffffffff811115610a9157610a91610a2c565b604051601f8201601f19908116603f0116810167ffffffffffffffff81118282101715610ac057610ac0610a2c565b604052818152838201602001851015610ad857600080fd5b610ae9826020830160208701610a42565b949350505050565b60008060008060808587031215610b0757600080fd5b610b1085610a17565b9350602085015167ffffffffffffffff811115610b2c57600080fd5b610b3887828801610a66565b935050610b4760408601610a17565b9150606085015167ffffffffffffffff811115610b6357600080fd5b610b6f87828801610a66565b91505092959194509250565b81835281816020850137506000828201602090810191909152601f909101601f19169091010190565b604081526000610bb8604083018587610b7b565b90508215156020830152949350505050565b8051610a27816108fd565b6000806000806000806000806000806101408b8d031215610bf557600080fd5b8a51610c00816108fd565b60208c0151909a5067ffffffffffffffff811115610c1d57600080fd5b610c298d828e01610a66565b99505060408b0151610c3a816108fd565b60608c0151909850610c4b816108fd565b60808c0151909750610c5c816108e4565b9550610c6a60a08c01610bca565b60c08c015160e08d015191965094509250610c886101008c01610a17565b9150610c976101208c01610a17565b90509295989b9194979a5092959850565b838152604060208201526000610cc2604083018486610b7b565b95945050505050565b600060208284031215610cdd57600080fd5b5051919050565b602081526000610ae9602083018486610b7b565b61010081526000895180610100840152610d1a81610120850160208e01610a42565b6001600160a01b038a8116602085015289811660408501528816606084015267ffffffffffffffff87166080840152601f01601f19168201610120019050610d6d60a08301866001600160a01b03169052565b60c082019390935260e00152969550505050505056fea2646970667358221220ca8e92796f8d4110200ac77425a20a7c040ce307cdf1a0e6852b2d61d46718cb64736f6c634300081a0033","opcodes":"PUSH1 0xC0 PUSH1 0x40 MSTORE CALLVALUE DUP1 ISZERO PUSH2 0x10 JUMPI PUSH1 0x0 DUP1 REVERT JUMPDEST POP PUSH1 0x40 MLOAD PUSH2 0xF38 CODESIZE SUB DUP1 PUSH2 0xF38 DUP4 CODECOPY DUP2 ADD PUSH1 0x40 DUP2 SWAP1 MSTORE PUSH2 0x2F SWAP2 PUSH2 0xEE JUMP JUMPDEST PUSH1 0x1 PUSH1 0x1 PUSH1 0xA0 SHL SUB DUP4 AND PUSH2 0x56 JUMPI PUSH1 0x40 MLOAD PUSH4 0xD92E233D PUSH1 0xE0 SHL DUP2 MSTORE PUSH1 0x4 ADD PUSH1 0x40 MLOAD DUP1 SWAP2 SUB SWAP1 REVERT JUMPDEST PUSH1 0x1 PUSH1 0x1 PUSH1 0xA0 SHL SUB DUP3 AND PUSH2 0x7D JUMPI PUSH1 0x40 MLOAD PUSH4 0xD92E233D PUSH1 0xE0 SHL DUP2 MSTORE PUSH1 0x4 ADD PUSH1 0x40 MLOAD DUP1 SWAP2 SUB SWAP1 REVERT JUMPDEST PUSH1 0x1 PUSH1 0x1 PUSH1 0xA0 SHL SUB DUP2 AND PUSH2 0xA4 JUMPI PUSH1 0x40 MLOAD PUSH4 0xD92E233D PUSH1 0xE0 SHL DUP2 MSTORE PUSH1 0x4 ADD PUSH1 0x40 MLOAD DUP1 SWAP2 SUB SWAP1 REVERT JUMPDEST PUSH1 0x1 PUSH1 0x1 PUSH1 0xA0 SHL SUB SWAP3 DUP4 AND PUSH1 0x80 MSTORE SWAP1 DUP3 AND PUSH1 0xA0 MSTORE PUSH1 0x0 DUP1 SLOAD PUSH1 0x1 PUSH1 0x1 PUSH1 0xA0 SHL SUB NOT AND SWAP2 SWAP1 SWAP3 AND OR SWAP1 SSTORE PUSH2 0x131 JUMP JUMPDEST DUP1 MLOAD PUSH1 0x1 PUSH1 0x1 PUSH1 0xA0 SHL SUB DUP2 AND DUP2 EQ PUSH2 0xE9 JUMPI PUSH1 0x0 DUP1 REVERT JUMPDEST SWAP2 SWAP1 POP JUMP JUMPDEST PUSH1 0x0 DUP1 PUSH1 0x0 PUSH1 0x60 DUP5 DUP7 SUB SLT ISZERO PUSH2 0x103 JUMPI PUSH1 0x0 DUP1 REVERT JUMPDEST PUSH2 0x10C DUP5 PUSH2 0xD2 JUMP JUMPDEST SWAP3 POP PUSH2 0x11A PUSH1 0x20 DUP6 ADD PUSH2 0xD2 JUMP JUMPDEST SWAP2 POP PUSH2 0x128 PUSH1 0x40 DUP6 ADD PUSH2 0xD2 JUMP JUMPDEST SWAP1 POP SWAP3 POP SWAP3 POP SWAP3 JUMP JUMPDEST PUSH1 0x80 MLOAD PUSH1 0xA0 MLOAD PUSH2 0xDB9 PUSH2 0x17F PUSH1 0x0 CODECOPY PUSH1 0x0 DUP2 DUP2 PUSH2 0x13A ADD MSTORE DUP2 DUP2 PUSH2 0x4CF ADD MSTORE DUP2 DUP2 PUSH2 0x6B7 ADD MSTORE DUP2 DUP2 PUSH2 0x759 ADD MSTORE PUSH2 0x7F2 ADD MSTORE PUSH1 0x0 DUP2 DUP2 PUSH1 0xFB ADD MSTORE DUP2 DUP2 PUSH2 0x285 ADD MSTORE PUSH2 0x5AC ADD MSTORE PUSH2 0xDB9 PUSH1 0x0 RETURN INVALID PUSH1 0x80 PUSH1 0x40 MSTORE CALLVALUE DUP1 ISZERO PUSH2 0x10 JUMPI PUSH1 0x0 DUP1 REVERT JUMPDEST POP PUSH1 0x4 CALLDATASIZE LT PUSH2 0x9E JUMPI PUSH1 0x0 CALLDATALOAD PUSH1 0xE0 SHR DUP1 PUSH4 0x9C50FF19 GT PUSH2 0x66 JUMPI DUP1 PUSH4 0x9C50FF19 EQ PUSH2 0x16F JUMPI DUP1 PUSH4 0x9D8B43A5 EQ PUSH2 0x1A2 JUMPI DUP1 PUSH4 0xB78A4A3C EQ PUSH2 0x1C2 JUMPI DUP1 PUSH4 0xF851A440 EQ PUSH2 0x1D5 JUMPI DUP1 PUSH4 0xF9C559CD EQ PUSH2 0x1E8 JUMPI PUSH1 0x0 DUP1 REVERT JUMPDEST DUP1 PUSH4 0x3456AAEE EQ PUSH2 0xA3 JUMPI DUP1 PUSH4 0x4769FF62 EQ PUSH2 0xD6 JUMPI DUP1 PUSH4 0x591B2DAF EQ PUSH2 0xF6 JUMPI DUP1 PUSH4 0x5FF474C2 EQ PUSH2 0x135 JUMPI DUP1 PUSH4 0x8E2F4E17 EQ PUSH2 0x15C JUMPI JUMPDEST PUSH1 0x0 DUP1 REVERT JUMPDEST PUSH2 0xC3 PUSH2 0xB1 CALLDATASIZE PUSH1 0x4 PUSH2 0x882 JUMP JUMPDEST PUSH1 0x0 SWAP1 DUP2 MSTORE PUSH1 0x2 PUSH1 0x20 MSTORE PUSH1 0x40 SWAP1 KECCAK256 SLOAD SWAP1 JUMP JUMPDEST PUSH1 0x40 MLOAD SWAP1 DUP2 MSTORE PUSH1 0x20 ADD JUMPDEST PUSH1 0x40 MLOAD DUP1 SWAP2 SUB SWAP1 RETURN JUMPDEST PUSH2 0xC3 PUSH2 0xE4 CALLDATASIZE PUSH1 0x4 PUSH2 0x882 JUMP JUMPDEST PUSH1 0x2 PUSH1 0x20 MSTORE PUSH1 0x0 SWAP1 DUP2 MSTORE PUSH1 0x40 SWAP1 KECCAK256 SLOAD DUP2 JUMP JUMPDEST PUSH2 0x11D PUSH32 0x0 DUP2 JUMP JUMPDEST PUSH1 0x40 MLOAD PUSH1 0x1 PUSH1 0x1 PUSH1 0xA0 SHL SUB SWAP1 SWAP2 AND DUP2 MSTORE PUSH1 0x20 ADD PUSH2 0xCD JUMP JUMPDEST PUSH2 0x11D PUSH32 0x0 DUP2 JUMP JUMPDEST PUSH2 0xC3 PUSH2 0x16A CALLDATASIZE PUSH1 0x4 PUSH2 0x912 JUMP JUMPDEST PUSH2 0x208 JUMP JUMPDEST PUSH2 0x192 PUSH2 0x17D CALLDATASIZE PUSH1 0x4 PUSH2 0x882 JUMP JUMPDEST PUSH1 0x3 PUSH1 0x20 MSTORE PUSH1 0x0 SWAP1 DUP2 MSTORE PUSH1 0x40 SWAP1 KECCAK256 SLOAD PUSH1 0xFF AND DUP2 JUMP JUMPDEST PUSH1 0x40 MLOAD SWAP1 ISZERO ISZERO DUP2 MSTORE PUSH1 0x20 ADD PUSH2 0xCD JUMP JUMPDEST PUSH2 0xC3 PUSH2 0x1B0 CALLDATASIZE PUSH1 0x4 PUSH2 0x882 JUMP JUMPDEST PUSH1 0x0 SWAP1 DUP2 MSTORE PUSH1 0x1 PUSH1 0x20 MSTORE PUSH1 0x40 SWAP1 KECCAK256 SLOAD SWAP1 JUMP JUMPDEST PUSH2 0xC3 PUSH2 0x1D0 CALLDATASIZE PUSH1 0x4 PUSH2 0x998 JUMP JUMPDEST PUSH2 0x4AC JUMP JUMPDEST PUSH1 0x0 SLOAD PUSH2 0x11D SWAP1 PUSH1 0x1 PUSH1 0x1 PUSH1 0xA0 SHL SUB AND DUP2 JUMP JUMPDEST PUSH2 0xC3 PUSH2 0x1F6 CALLDATASIZE PUSH1 0x4 PUSH2 0x882 JUMP JUMPDEST PUSH1 0x1 PUSH1 0x20 MSTORE PUSH1 0x0 SWAP1 DUP2 MSTORE PUSH1 0x40 SWAP1 KECCAK256 SLOAD DUP2 JUMP JUMPDEST PUSH1 0x0 DUP1 SLOAD PUSH1 0x1 PUSH1 0x1 PUSH1 0xA0 SHL SUB AND CALLER EQ PUSH2 0x234 JUMPI PUSH1 0x40 MLOAD PUSH4 0x47556579 PUSH1 0xE0 SHL DUP2 MSTORE PUSH1 0x4 ADD PUSH1 0x40 MLOAD DUP1 SWAP2 SUB SWAP1 REVERT JUMPDEST POP PUSH1 0x0 DUP8 DUP2 MSTORE PUSH1 0x2 PUSH1 0x20 MSTORE PUSH1 0x40 SWAP1 KECCAK256 SLOAD DUP1 PUSH2 0x262 JUMPI PUSH1 0x40 MLOAD PUSH4 0xC5723B51 PUSH1 0xE0 SHL DUP2 MSTORE PUSH1 0x4 ADD PUSH1 0x40 MLOAD DUP1 SWAP2 SUB SWAP1 REVERT JUMPDEST PUSH1 0x40 MLOAD PUSH4 0x96C59CC1 PUSH1 0xE0 SHL DUP2 MSTORE PUSH1 0x4 DUP2 ADD DUP10 SWAP1 MSTORE PUSH1 0x0 SWAP1 DUP2 SWAP1 PUSH1 0x1 PUSH1 0x1 PUSH1 0xA0 SHL SUB PUSH32 0x0 AND SWAP1 PUSH4 0x96C59CC1 SWAP1 PUSH1 0x24 ADD PUSH1 0x0 PUSH1 0x40 MLOAD DUP1 DUP4 SUB DUP2 DUP7 GAS STATICCALL ISZERO DUP1 ISZERO PUSH2 0x2CC JUMPI RETURNDATASIZE PUSH1 0x0 DUP1 RETURNDATACOPY RETURNDATASIZE PUSH1 0x0 REVERT JUMPDEST POP POP POP POP PUSH1 0x40 MLOAD RETURNDATASIZE PUSH1 0x0 DUP3 RETURNDATACOPY PUSH1 0x1F RETURNDATASIZE SWAP1 DUP2 ADD PUSH1 0x1F NOT AND DUP3 ADD PUSH1 0x40 MSTORE PUSH2 0x2F4 SWAP2 SWAP1 DUP2 ADD SWAP1 PUSH2 0xAF1 JUMP JUMPDEST POP SWAP3 POP POP SWAP2 POP DUP2 PUSH2 0x318 JUMPI PUSH1 0x40 MLOAD PUSH4 0xC5723B51 PUSH1 0xE0 SHL DUP2 MSTORE PUSH1 0x4 ADD PUSH1 0x40 MLOAD DUP1 SWAP2 SUB SWAP1 REVERT JUMPDEST PUSH1 0x0 DUP4 DUP2 MSTORE PUSH1 0x3 PUSH1 0x20 MSTORE PUSH1 0x40 SWAP1 KECCAK256 SLOAD PUSH1 0xFF AND ISZERO PUSH2 0x348 JUMPI PUSH1 0x40 MLOAD PUSH4 0x4A4117F9 PUSH1 0xE0 SHL DUP2 MSTORE PUSH1 0x4 ADD PUSH1 0x40 MLOAD DUP1 SWAP2 SUB SWAP1 REVERT JUMPDEST PUSH1 0x0 PUSH2 0x353 DUP5 PUSH2 0x694 JUMP JUMPDEST SWAP1 POP DUP1 ISZERO PUSH2 0x3CB JUMPI PUSH1 0x0 PUSH2 0x366 DUP6 PUSH2 0x736 JUMP JUMPDEST PUSH1 0x0 DUP7 DUP2 MSTORE PUSH1 0x3 PUSH1 0x20 MSTORE PUSH1 0x40 SWAP1 DUP2 SWAP1 KECCAK256 DUP1 SLOAD PUSH1 0xFF NOT AND PUSH1 0x1 OR SWAP1 SSTORE MLOAD SWAP1 SWAP2 POP DUP13 SWAP1 DUP7 SWAP1 PUSH32 0x861F889FAFA35245EA81C5686F0384184157732D97E07A1CB3BE800584989C7F SWAP1 PUSH2 0x3BA SWAP1 DUP6 ISZERO ISZERO DUP2 MSTORE PUSH1 0x20 ADD SWAP1 JUMP JUMPDEST PUSH1 0x40 MLOAD DUP1 SWAP2 SUB SWAP1 LOG3 POP POP POP POP PUSH2 0x4A1 JUMP JUMPDEST PUSH1 0x0 DUP11 DUP11 DUP5 PUSH1 0x40 MLOAD PUSH1 0x20 ADD PUSH2 0x3E2 SWAP4 SWAP3 SWAP2 SWAP1 PUSH2 0xBA4 JUMP JUMPDEST PUSH1 0x40 MLOAD PUSH1 0x20 DUP2 DUP4 SUB SUB DUP2 MSTORE SWAP1 PUSH1 0x40 MSTORE SWAP1 POP PUSH1 0x0 PUSH2 0x402 DUP3 DUP12 DUP12 DUP12 DUP12 PUSH2 0x7D8 JUMP JUMPDEST PUSH1 0x0 DUP8 DUP2 MSTORE PUSH1 0x3 PUSH1 0x20 MSTORE PUSH1 0x40 SWAP1 DUP2 SWAP1 KECCAK256 DUP1 SLOAD PUSH1 0xFF NOT AND PUSH1 0x1 OR SWAP1 SSTORE MLOAD SWAP1 SWAP2 POP DUP14 SWAP1 DUP8 SWAP1 PUSH32 0x861F889FAFA35245EA81C5686F0384184157732D97E07A1CB3BE800584989C7F SWAP1 PUSH2 0x456 SWAP1 DUP9 ISZERO ISZERO DUP2 MSTORE PUSH1 0x20 ADD SWAP1 JUMP JUMPDEST PUSH1 0x40 MLOAD DUP1 SWAP2 SUB SWAP1 LOG3 DUP6 DUP2 PUSH32 0x1CEA36DC9209638445BAF21C42E838817870EAC7CA4EBB0E0D0816AB9BDEF9EB DUP7 PUSH1 0x40 MLOAD PUSH2 0x493 SWAP2 ISZERO ISZERO DUP2 MSTORE PUSH1 0x20 ADD SWAP1 JUMP JUMPDEST PUSH1 0x40 MLOAD DUP1 SWAP2 SUB SWAP1 LOG3 POP POP POP POP POP JUMPDEST SWAP8 SWAP7 POP POP POP POP POP POP POP JUMP JUMPDEST PUSH1 0x40 MLOAD PUSH4 0x220C0A21 PUSH1 0xE2 SHL DUP2 MSTORE PUSH1 0x4 DUP2 ADD DUP7 SWAP1 MSTORE PUSH1 0x0 SWAP1 DUP2 SWAP1 PUSH1 0x1 PUSH1 0x1 PUSH1 0xA0 SHL SUB PUSH32 0x0 AND SWAP1 PUSH4 0x88302884 SWAP1 PUSH1 0x24 ADD PUSH1 0x0 PUSH1 0x40 MLOAD DUP1 DUP4 SUB DUP2 DUP7 GAS STATICCALL ISZERO DUP1 ISZERO PUSH2 0x516 JUMPI RETURNDATASIZE PUSH1 0x0 DUP1 RETURNDATACOPY RETURNDATASIZE PUSH1 0x0 REVERT JUMPDEST POP POP POP POP PUSH1 0x40 MLOAD RETURNDATASIZE PUSH1 0x0 DUP3 RETURNDATACOPY PUSH1 0x1F RETURNDATASIZE SWAP1 DUP2 ADD PUSH1 0x1F NOT AND DUP3 ADD PUSH1 0x40 MSTORE PUSH2 0x53E SWAP2 SWAP1 DUP2 ADD SWAP1 PUSH2 0xBD5 JUMP JUMPDEST POP SWAP9 POP POP POP POP POP POP POP POP POP DUP1 ISZERO PUSH2 0x568 JUMPI PUSH1 0x40 MLOAD PUSH4 0x4A4117F9 PUSH1 0xE0 SHL DUP2 MSTORE PUSH1 0x4 ADD PUSH1 0x40 MLOAD DUP1 SWAP2 SUB SWAP1 REVERT JUMPDEST PUSH1 0x0 DUP8 DUP2 MSTORE PUSH1 0x1 PUSH1 0x20 MSTORE PUSH1 0x40 SWAP1 KECCAK256 SLOAD ISZERO PUSH2 0x595 JUMPI PUSH1 0x40 MLOAD PUSH4 0x4A4117F9 PUSH1 0xE0 SHL DUP2 MSTORE PUSH1 0x4 ADD PUSH1 0x40 MLOAD DUP1 SWAP2 SUB SWAP1 REVERT JUMPDEST PUSH1 0x40 MLOAD PUSH4 0x29384CAF PUSH1 0xE2 SHL DUP2 MSTORE PUSH1 0x1 PUSH1 0x1 PUSH1 0xA0 SHL SUB PUSH32 0x0 AND SWAP1 PUSH4 0xA4E132BC SWAP1 PUSH2 0x5E5 SWAP1 DUP11 SWAP1 DUP9 SWAP1 DUP9 SWAP1 PUSH1 0x4 ADD PUSH2 0xCA8 JUMP JUMPDEST PUSH1 0x20 PUSH1 0x40 MLOAD DUP1 DUP4 SUB DUP2 PUSH1 0x0 DUP8 GAS CALL ISZERO DUP1 ISZERO PUSH2 0x604 JUMPI RETURNDATASIZE PUSH1 0x0 DUP1 RETURNDATACOPY RETURNDATASIZE PUSH1 0x0 REVERT JUMPDEST POP POP POP POP PUSH1 0x40 MLOAD RETURNDATASIZE PUSH1 0x1F NOT PUSH1 0x1F DUP3 ADD AND DUP3 ADD DUP1 PUSH1 0x40 MSTORE POP DUP2 ADD SWAP1 PUSH2 0x628 SWAP2 SWAP1 PUSH2 0xCCB JUMP JUMPDEST PUSH1 0x0 DUP9 DUP2 MSTORE PUSH1 0x1 PUSH1 0x20 SWAP1 DUP2 MSTORE PUSH1 0x40 DUP1 DUP4 KECCAK256 DUP5 SWAP1 SSTORE DUP4 DUP4 MSTORE PUSH1 0x2 SWAP1 SWAP2 MSTORE SWAP1 DUP2 SWAP1 KECCAK256 DUP10 SWAP1 SSTORE MLOAD SWAP1 SWAP3 POP DUP3 SWAP1 DUP9 SWAP1 PUSH32 0x96E176BDF2E627B012AA5D1DDE1ECF7A96BED0717E098901F57C05EED70541BE SWAP1 PUSH2 0x682 SWAP1 DUP11 SWAP1 DUP11 SWAP1 PUSH2 0xCE4 JUMP JUMPDEST PUSH1 0x40 MLOAD DUP1 SWAP2 SUB SWAP1 LOG3 POP SWAP6 SWAP5 POP POP POP POP POP JUMP JUMPDEST PUSH1 0x40 MLOAD PUSH4 0x220C0A21 PUSH1 0xE2 SHL DUP2 MSTORE PUSH1 0x4 DUP2 ADD DUP3 SWAP1 MSTORE PUSH1 0x0 SWAP1 DUP2 SWAP1 PUSH1 0x1 PUSH1 0x1 PUSH1 0xA0 SHL SUB PUSH32 0x0 AND SWAP1 PUSH4 0x88302884 SWAP1 PUSH1 0x24 ADD PUSH1 0x0 PUSH1 0x40 MLOAD DUP1 DUP4 SUB DUP2 DUP7 GAS STATICCALL ISZERO DUP1 ISZERO PUSH2 0x6FE JUMPI RETURNDATASIZE PUSH1 0x0 DUP1 RETURNDATACOPY RETURNDATASIZE PUSH1 0x0 REVERT JUMPDEST POP POP POP POP PUSH1 0x40 MLOAD RETURNDATASIZE PUSH1 0x0 DUP3 RETURNDATACOPY PUSH1 0x1F RETURNDATASIZE SWAP1 DUP2 ADD PUSH1 0x1F NOT AND DUP3 ADD PUSH1 0x40 MSTORE PUSH2 0x726 SWAP2 SWAP1 DUP2 ADD SWAP1 PUSH2 0xBD5 JUMP JUMPDEST POP SWAP12 SWAP11 POP POP POP POP POP POP POP POP POP POP POP JUMP JUMPDEST PUSH1 0x40 MLOAD PUSH4 0x220C0A21 PUSH1 0xE2 SHL DUP2 MSTORE PUSH1 0x4 DUP2 ADD DUP3 SWAP1 MSTORE PUSH1 0x0 SWAP1 DUP2 SWAP1 PUSH1 0x1 PUSH1 0x1 PUSH1 0xA0 SHL SUB PUSH32 0x0 AND SWAP1 PUSH4 0x88302884 SWAP1 PUSH1 0x24 ADD PUSH1 0x0 PUSH1 0x40 MLOAD DUP1 DUP4 SUB DUP2 DUP7 GAS STATICCALL ISZERO DUP1 ISZERO PUSH2 0x7A0 JUMPI RETURNDATASIZE PUSH1 0x0 DUP1 RETURNDATACOPY RETURNDATASIZE PUSH1 0x0 REVERT JUMPDEST POP POP POP POP PUSH1 0x40 MLOAD RETURNDATASIZE PUSH1 0x0 DUP3 RETURNDATACOPY PUSH1 0x1F RETURNDATASIZE SWAP1 DUP2 ADD PUSH1 0x1F NOT AND DUP3 ADD PUSH1 0x40 MSTORE PUSH2 0x7C8 SWAP2 SWAP1 DUP2 ADD SWAP1 PUSH2 0xBD5 JUMP JUMPDEST SWAP13 SWAP12 POP POP POP POP POP POP POP POP POP POP POP POP JUMP JUMPDEST PUSH1 0x40 MLOAD PUSH4 0x1720BAF9 PUSH1 0xE3 SHL DUP2 MSTORE PUSH1 0x0 SWAP1 PUSH1 0x1 PUSH1 0x1 PUSH1 0xA0 SHL SUB PUSH32 0x0 AND SWAP1 PUSH4 0xB905D7C8 SWAP1 PUSH2 0x835 SWAP1 DUP10 SWAP1 ADDRESS SWAP1 DUP7 SWAP1 DUP2 SWAP1 DUP13 SWAP1 DUP13 SWAP1 DUP13 SWAP1 DUP13 SWAP1 PUSH1 0x4 ADD PUSH2 0xCF8 JUMP JUMPDEST PUSH1 0x20 PUSH1 0x40 MLOAD DUP1 DUP4 SUB DUP2 PUSH1 0x0 DUP8 GAS CALL ISZERO DUP1 ISZERO PUSH2 0x854 JUMPI RETURNDATASIZE PUSH1 0x0 DUP1 RETURNDATACOPY RETURNDATASIZE PUSH1 0x0 REVERT JUMPDEST POP POP POP POP PUSH1 0x40 MLOAD RETURNDATASIZE PUSH1 0x1F NOT PUSH1 0x1F DUP3 ADD AND DUP3 ADD DUP1 PUSH1 0x40 MSTORE POP DUP2 ADD SWAP1 PUSH2 0x878 SWAP2 SWAP1 PUSH2 0xCCB JUMP JUMPDEST SWAP7 SWAP6 POP POP POP POP POP POP JUMP JUMPDEST PUSH1 0x0 PUSH1 0x20 DUP3 DUP5 SUB SLT ISZERO PUSH2 0x894 JUMPI PUSH1 0x0 DUP1 REVERT JUMPDEST POP CALLDATALOAD SWAP2 SWAP1 POP JUMP JUMPDEST PUSH1 0x0 DUP1 DUP4 PUSH1 0x1F DUP5 ADD SLT PUSH2 0x8AD JUMPI PUSH1 0x0 DUP1 REVERT JUMPDEST POP DUP2 CALLDATALOAD PUSH8 0xFFFFFFFFFFFFFFFF DUP2 GT ISZERO PUSH2 0x8C5 JUMPI PUSH1 0x0 DUP1 REVERT JUMPDEST PUSH1 0x20 DUP4 ADD SWAP2 POP DUP4 PUSH1 0x20 DUP3 DUP6 ADD ADD GT ISZERO PUSH2 0x8DD JUMPI PUSH1 0x0 DUP1 REVERT JUMPDEST SWAP3 POP SWAP3 SWAP1 POP JUMP JUMPDEST PUSH8 0xFFFFFFFFFFFFFFFF DUP2 AND DUP2 EQ PUSH2 0x8FA JUMPI PUSH1 0x0 DUP1 REVERT JUMPDEST POP JUMP JUMPDEST PUSH1 0x1 PUSH1 0x1 PUSH1 0xA0 SHL SUB DUP2 AND DUP2 EQ PUSH2 0x8FA JUMPI PUSH1 0x0 DUP1 REVERT JUMPDEST PUSH1 0x0 DUP1 PUSH1 0x0 DUP1 PUSH1 0x0 DUP1 PUSH1 0x0 PUSH1 0xC0 DUP9 DUP11 SUB SLT ISZERO PUSH2 0x92D JUMPI PUSH1 0x0 DUP1 REVERT JUMPDEST DUP8 CALLDATALOAD SWAP7 POP PUSH1 0x20 DUP9 ADD CALLDATALOAD PUSH8 0xFFFFFFFFFFFFFFFF DUP2 GT ISZERO PUSH2 0x94B JUMPI PUSH1 0x0 DUP1 REVERT JUMPDEST PUSH2 0x957 DUP11 DUP3 DUP12 ADD PUSH2 0x89B JUMP JUMPDEST SWAP1 SWAP8 POP SWAP6 POP POP PUSH1 0x40 DUP9 ADD CALLDATALOAD PUSH2 0x96B DUP2 PUSH2 0x8E4 JUMP JUMPDEST SWAP4 POP PUSH1 0x60 DUP9 ADD CALLDATALOAD PUSH2 0x97B DUP2 PUSH2 0x8FD JUMP JUMPDEST SWAP7 SWAP10 SWAP6 SWAP9 POP SWAP4 SWAP7 SWAP3 SWAP6 SWAP5 PUSH1 0x80 DUP5 ADD CALLDATALOAD SWAP5 POP PUSH1 0xA0 SWAP1 SWAP4 ADD CALLDATALOAD SWAP3 SWAP2 POP POP JUMP JUMPDEST PUSH1 0x0 DUP1 PUSH1 0x0 DUP1 PUSH1 0x0 PUSH1 0x60 DUP7 DUP9 SUB SLT ISZERO PUSH2 0x9B0 JUMPI PUSH1 0x0 DUP1 REVERT JUMPDEST DUP6 CALLDATALOAD SWAP5 POP PUSH1 0x20 DUP7 ADD CALLDATALOAD PUSH8 0xFFFFFFFFFFFFFFFF DUP2 GT ISZERO PUSH2 0x9CE JUMPI PUSH1 0x0 DUP1 REVERT JUMPDEST PUSH2 0x9DA DUP9 DUP3 DUP10 ADD PUSH2 0x89B JUMP JUMPDEST SWAP1 SWAP6 POP SWAP4 POP POP PUSH1 0x40 DUP7 ADD CALLDATALOAD PUSH8 0xFFFFFFFFFFFFFFFF DUP2 GT ISZERO PUSH2 0x9FA JUMPI PUSH1 0x0 DUP1 REVERT JUMPDEST PUSH2 0xA06 DUP9 DUP3 DUP10 ADD PUSH2 0x89B JUMP JUMPDEST SWAP7 SWAP10 SWAP6 SWAP9 POP SWAP4 SWAP7 POP SWAP3 SWAP5 SWAP4 SWAP3 POP POP POP JUMP JUMPDEST DUP1 MLOAD DUP1 ISZERO ISZERO DUP2 EQ PUSH2 0xA27 JUMPI PUSH1 0x0 DUP1 REVERT JUMPDEST SWAP2 SWAP1 POP JUMP JUMPDEST PUSH4 0x4E487B71 PUSH1 0xE0 SHL PUSH1 0x0 MSTORE PUSH1 0x41 PUSH1 0x4 MSTORE PUSH1 0x24 PUSH1 0x0 REVERT JUMPDEST PUSH1 0x0 JUMPDEST DUP4 DUP2 LT ISZERO PUSH2 0xA5D JUMPI DUP2 DUP2 ADD MLOAD DUP4 DUP3 ADD MSTORE PUSH1 0x20 ADD PUSH2 0xA45 JUMP JUMPDEST POP POP PUSH1 0x0 SWAP2 ADD MSTORE JUMP JUMPDEST PUSH1 0x0 DUP3 PUSH1 0x1F DUP4 ADD SLT PUSH2 0xA77 JUMPI PUSH1 0x0 DUP1 REVERT JUMPDEST DUP2 MLOAD PUSH8 0xFFFFFFFFFFFFFFFF DUP2 GT ISZERO PUSH2 0xA91 JUMPI PUSH2 0xA91 PUSH2 0xA2C JUMP JUMPDEST PUSH1 0x40 MLOAD PUSH1 0x1F DUP3 ADD PUSH1 0x1F NOT SWAP1 DUP2 AND PUSH1 0x3F ADD AND DUP2 ADD PUSH8 0xFFFFFFFFFFFFFFFF DUP2 GT DUP3 DUP3 LT OR ISZERO PUSH2 0xAC0 JUMPI PUSH2 0xAC0 PUSH2 0xA2C JUMP JUMPDEST PUSH1 0x40 MSTORE DUP2 DUP2 MSTORE DUP4 DUP3 ADD PUSH1 0x20 ADD DUP6 LT ISZERO PUSH2 0xAD8 JUMPI PUSH1 0x0 DUP1 REVERT JUMPDEST PUSH2 0xAE9 DUP3 PUSH1 0x20 DUP4 ADD PUSH1 0x20 DUP8 ADD PUSH2 0xA42 JUMP JUMPDEST SWAP5 SWAP4 POP POP POP POP JUMP JUMPDEST PUSH1 0x0 DUP1 PUSH1 0x0 DUP1 PUSH1 0x80 DUP6 DUP8 SUB SLT ISZERO PUSH2 0xB07 JUMPI PUSH1 0x0 DUP1 REVERT JUMPDEST PUSH2 0xB10 DUP6 PUSH2 0xA17 JUMP JUMPDEST SWAP4 POP PUSH1 0x20 DUP6 ADD MLOAD PUSH8 0xFFFFFFFFFFFFFFFF DUP2 GT ISZERO PUSH2 0xB2C JUMPI PUSH1 0x0 DUP1 REVERT JUMPDEST PUSH2 0xB38 DUP8 DUP3 DUP9 ADD PUSH2 0xA66 JUMP JUMPDEST SWAP4 POP POP PUSH2 0xB47 PUSH1 0x40 DUP7 ADD PUSH2 0xA17 JUMP JUMPDEST SWAP2 POP PUSH1 0x60 DUP6 ADD MLOAD PUSH8 0xFFFFFFFFFFFFFFFF DUP2 GT ISZERO PUSH2 0xB63 JUMPI PUSH1 0x0 DUP1 REVERT JUMPDEST PUSH2 0xB6F DUP8 DUP3 DUP9 ADD PUSH2 0xA66 JUMP JUMPDEST SWAP2 POP POP SWAP3 SWAP6 SWAP2 SWAP5 POP SWAP3 POP JUMP JUMPDEST DUP2 DUP4 MSTORE DUP2 DUP2 PUSH1 0x20 DUP6 ADD CALLDATACOPY POP PUSH1 0x0 DUP3 DUP3 ADD PUSH1 0x20 SWAP1 DUP2 ADD SWAP2 SWAP1 SWAP2 MSTORE PUSH1 0x1F SWAP1 SWAP2 ADD PUSH1 0x1F NOT AND SWAP1 SWAP2 ADD ADD SWAP1 JUMP JUMPDEST PUSH1 0x40 DUP2 MSTORE PUSH1 0x0 PUSH2 0xBB8 PUSH1 0x40 DUP4 ADD DUP6 DUP8 PUSH2 0xB7B JUMP JUMPDEST SWAP1 POP DUP3 ISZERO ISZERO PUSH1 0x20 DUP4 ADD MSTORE SWAP5 SWAP4 POP POP POP POP JUMP JUMPDEST DUP1 MLOAD PUSH2 0xA27 DUP2 PUSH2 0x8FD JUMP JUMPDEST PUSH1 0x0 DUP1 PUSH1 0x0 DUP1 PUSH1 0x0 DUP1 PUSH1 0x0 DUP1 PUSH1 0x0 DUP1 PUSH2 0x140 DUP12 DUP14 SUB SLT ISZERO PUSH2 0xBF5 JUMPI PUSH1 0x0 DUP1 REVERT JUMPDEST DUP11 MLOAD PUSH2 0xC00 DUP2 PUSH2 0x8FD JUMP JUMPDEST PUSH1 0x20 DUP13 ADD MLOAD SWAP1 SWAP11 POP PUSH8 0xFFFFFFFFFFFFFFFF DUP2 GT ISZERO PUSH2 0xC1D JUMPI PUSH1 0x0 DUP1 REVERT JUMPDEST PUSH2 0xC29 DUP14 DUP3 DUP15 ADD PUSH2 0xA66 JUMP JUMPDEST SWAP10 POP POP PUSH1 0x40 DUP12 ADD MLOAD PUSH2 0xC3A DUP2 PUSH2 0x8FD JUMP JUMPDEST PUSH1 0x60 DUP13 ADD MLOAD SWAP1 SWAP9 POP PUSH2 0xC4B DUP2 PUSH2 0x8FD JUMP JUMPDEST PUSH1 0x80 DUP13 ADD MLOAD SWAP1 SWAP8 POP PUSH2 0xC5C DUP2 PUSH2 0x8E4 JUMP JUMPDEST SWAP6 POP PUSH2 0xC6A PUSH1 0xA0 DUP13 ADD PUSH2 0xBCA JUMP JUMPDEST PUSH1 0xC0 DUP13 ADD MLOAD PUSH1 0xE0 DUP14 ADD MLOAD SWAP2 SWAP7 POP SWAP5 POP SWAP3 POP PUSH2 0xC88 PUSH2 0x100 DUP13 ADD PUSH2 0xA17 JUMP JUMPDEST SWAP2 POP PUSH2 0xC97 PUSH2 0x120 DUP13 ADD PUSH2 0xA17 JUMP JUMPDEST SWAP1 POP SWAP3 SWAP6 SWAP9 SWAP12 SWAP2 SWAP5 SWAP8 SWAP11 POP SWAP3 SWAP6 SWAP9 POP JUMP JUMPDEST DUP4 DUP2 MSTORE PUSH1 0x40 PUSH1 0x20 DUP3 ADD MSTORE PUSH1 0x0 PUSH2 0xCC2 PUSH1 0x40 DUP4 ADD DUP5 DUP7 PUSH2 0xB7B JUMP JUMPDEST SWAP6 SWAP5 POP POP POP POP POP JUMP JUMPDEST PUSH1 0x0 PUSH1 0x20 DUP3 DUP5 SUB SLT ISZERO PUSH2 0xCDD JUMPI PUSH1 0x0 DUP1 REVERT JUMPDEST POP MLOAD SWAP2 SWAP1 POP JUMP JUMPDEST PUSH1 0x20 DUP2 MSTORE PUSH1 0x0 PUSH2 0xAE9 PUSH1 0x20 DUP4 ADD DUP5 DUP7 PUSH2 0xB7B JUMP JUMPDEST PUSH2 0x100 DUP2 MSTORE PUSH1 0x0 DUP10 MLOAD DUP1 PUSH2 0x100 DUP5 ADD MSTORE PUSH2 0xD1A DUP2 PUSH2 0x120 DUP6 ADD PUSH1 0x20 DUP15 ADD PUSH2 0xA42 JUMP JUMPDEST PUSH1 0x1 PUSH1 0x1 PUSH1 0xA0 SHL SUB DUP11 DUP2 AND PUSH1 0x20 DUP6 ADD MSTORE DUP10 DUP2 AND PUSH1 0x40 DUP6 ADD MSTORE DUP9 AND PUSH1 0x60 DUP5 ADD MSTORE PUSH8 0xFFFFFFFFFFFFFFFF DUP8 AND PUSH1 0x80 DUP5 ADD MSTORE PUSH1 0x1F ADD PUSH1 0x1F NOT AND DUP3 ADD PUSH2 0x120 ADD SWAP1 POP PUSH2 0xD6D PUSH1 0xA0 DUP4 ADD DUP7 PUSH1 0x1 PUSH1 0x1 PUSH1 0xA0 SHL SUB AND SWAP1 MSTORE JUMP JUMPDEST PUSH1 0xC0 DUP3 ADD SWAP4 SWAP1 SWAP4 MSTORE PUSH1 0xE0 ADD MSTORE SWAP7 SWAP6 POP POP POP POP POP POP JUMP INVALID LOG2 PUSH5 0x6970667358 0x22 SLT KECCAK256 0xCA DUP15 SWAP3 PUSH26 0x6F8D4110200AC77425A20A7C040CE307CDF1A0E6852B2D61D467 XOR 0xCB PUSH5 0x736F6C6343 STOP ADDMOD BYTE STOP CALLER "},"methodIdentifiers":{"admin()":"f851a440","assertionSubmitted(bytes32)":"9c50ff19","assertionToRequest(bytes32)":"f9c559cd","getAssertionId(bytes32)":"3456aaee","getRequestId(bytes32)":"9d8b43a5","handleAssertion(bytes32,bytes,bytes)":"b78a4a3c","requestToAssertion(bytes32)":"4769ff62","submitOutcomeToUMA(bytes32,bytes,uint64,address,uint256,bytes32)":"8e2f4e17","umaOracle()":"5ff474c2","vpoAdapter()":"591b2daf"}}}}}