{"contracts/market/MarketFactory.sol":{"MarketFactory":{"abi":[{"inputs":[{"internalType":"address","name":"admin_","type":"address"},{"internalType":"address","name":"oracle_","type":"address"},{"internalType":"address","name":"feeRecipient_","type":"address"},{"internalType":"uint256","name":"flatFee_","type":"uint256"}],"stateMutability":"nonpayable","type":"constructor"},{"inputs":[],"name":"InvalidFee","type":"error"},{"inputs":[],"name":"InvalidParameter","type":"error"},{"inputs":[],"name":"InvalidTime","type":"error"},{"inputs":[],"name":"OnlyAdmin","type":"error"},{"inputs":[],"name":"ZeroAddress","type":"error"},{"anonymous":false,"inputs":[{"indexed":false,"internalType":"address","name":"admin","type":"address"}],"name":"AdminUpdated","type":"event"},{"anonymous":false,"inputs":[{"indexed":false,"internalType":"address","name":"recipient","type":"address"}],"name":"FeeRecipientUpdated","type":"event"},{"anonymous":false,"inputs":[{"indexed":false,"internalType":"uint256","name":"amount","type":"uint256"}],"name":"FlatFeeUpdated","type":"event"},{"anonymous":false,"inputs":[{"indexed":true,"internalType":"bytes32","name":"marketId","type":"bytes32"},{"indexed":false,"internalType":"address","name":"market","type":"address"},{"indexed":false,"internalType":"address","name":"vault","type":"address"},{"indexed":false,"internalType":"string","name":"question","type":"string"},{"indexed":false,"internalType":"uint256","name":"endTime","type":"uint256"},{"indexed":false,"internalType":"uint16","name":"feeBps","type":"uint16"},{"indexed":false,"internalType":"uint256","name":"flatFee","type":"uint256"},{"indexed":false,"internalType":"address","name":"feeRecipient","type":"address"}],"name":"MarketDeployed","type":"event"},{"anonymous":false,"inputs":[{"indexed":false,"internalType":"address","name":"oracle","type":"address"}],"name":"OracleUpdated","type":"event"},{"inputs":[],"name":"admin","outputs":[{"internalType":"address","name":"","type":"address"}],"stateMutability":"view","type":"function"},{"inputs":[{"internalType":"address","name":"creator","type":"address"},{"internalType":"string","name":"question","type":"string"},{"internalType":"uint256","name":"endTime","type":"uint256"}],"name":"computeMarketId","outputs":[{"internalType":"bytes32","name":"","type":"bytes32"}],"stateMutability":"pure","type":"function"},{"inputs":[{"internalType":"address","name":"collateral","type":"address"},{"internalType":"string","name":"question","type":"string"},{"internalType":"uint256","name":"endTime","type":"uint256"},{"internalType":"uint16","name":"feeBps","type":"uint16"}],"name":"createMarket","outputs":[{"internalType":"address","name":"market","type":"address"},{"internalType":"address","name":"vault","type":"address"}],"stateMutability":"nonpayable","type":"function"},{"inputs":[{"internalType":"address","name":"collateral_","type":"address"},{"internalType":"string","name":"question_","type":"string"},{"internalType":"uint256","name":"endTime_","type":"uint256"},{"internalType":"uint16","name":"feeBps_","type":"uint16"},{"internalType":"address","name":"oracle_","type":"address"}],"name":"createMarketWithOracle","outputs":[{"internalType":"address","name":"market","type":"address"},{"internalType":"address","name":"vault","type":"address"}],"stateMutability":"nonpayable","type":"function"},{"inputs":[],"name":"feeRecipient","outputs":[{"internalType":"address","name":"","type":"address"}],"stateMutability":"view","type":"function"},{"inputs":[],"name":"flatFee","outputs":[{"internalType":"uint256","name":"","type":"uint256"}],"stateMutability":"view","type":"function"},{"inputs":[],"name":"oracle","outputs":[{"internalType":"address","name":"","type":"address"}],"stateMutability":"view","type":"function"},{"inputs":[{"internalType":"address","name":"admin_","type":"address"}],"name":"setAdmin","outputs":[],"stateMutability":"nonpayable","type":"function"},{"inputs":[{"internalType":"address","name":"recipient","type":"address"}],"name":"setFeeRecipient","outputs":[],"stateMutability":"nonpayable","type":"function"},{"inputs":[{"internalType":"uint256","name":"amount","type":"uint256"}],"name":"setFlatFee","outputs":[],"stateMutability":"nonpayable","type":"function"},{"inputs":[{"internalType":"address","name":"oracle_","type":"address"}],"name":"setOracle","outputs":[],"stateMutability":"nonpayable","type":"function"}],"evm":{"bytecode":{"linkReferences":{},"object":"608060405234801561001057600080fd5b50604051612ca8380380612ca883398101604081905261002f916100dd565b6001600160a01b038416158061004c57506001600160a01b038316155b8061005e57506001600160a01b038216155b1561007c5760405163d92e233d60e01b815260040160405180910390fd5b600080546001600160a01b03199081166001600160a01b0396871617909155600180548216948616949094179093556002805490931691909316179055600355610128565b80516001600160a01b03811681146100d857600080fd5b919050565b600080600080608085870312156100f357600080fd5b6100fc856100c1565b935061010a602086016100c1565b9250610118604086016100c1565b6060959095015193969295505050565b612b71806101376000396000f3fe608060405234801561001057600080fd5b50600436106100a95760003560e01c80637dc0d1d0116100715780637dc0d1d01461014c5780637df66f761461015f578063b9dc645614610172578063d9eb594714610193578063e74b981b1461019c578063f851a440146101af57600080fd5b806323fa495a146100ae57806343ca9fe9146100c357806346904840146100fb578063704b6c02146101265780637adbf97314610139575b600080fd5b6100c16100bc3660046106d2565b6101c2565b005b6100d66100d13660046107be565b610229565b604080516001600160a01b039384168152929091166020830152015b60405180910390f35b60025461010e906001600160a01b031681565b6040516001600160a01b0390911681526020016100f2565b6100c1610134366004610826565b61025b565b6100c1610147366004610826565b6102fb565b60015461010e906001600160a01b031681565b6100d661016d366004610848565b61039b565b6101856101803660046108c1565b6105e2565b6040519081526020016100f2565b61018560035481565b6100c16101aa366004610826565b610618565b60005461010e906001600160a01b031681565b6000546001600160a01b031633146101ed57604051634755657960e01b815260040160405180910390fd5b60038190556040518181527f2dfc898b3677e9a8db0ccd358b29e83d409f092f876498f4cf135d707165f85f906020015b60405180910390a150565b60008061024e86868686600160009054906101000a90046001600160a01b031661039b565b9150915094509492505050565b6000546001600160a01b0316331461028657604051634755657960e01b815260040160405180910390fd5b6001600160a01b0381166102ad5760405163d92e233d60e01b815260040160405180910390fd5b600080546001600160a01b0319166001600160a01b0383169081179091556040519081527f54e4612788f90384e6843298d7854436f3a585b2c3831ab66abf1de63bfa6c2d9060200161021e565b6000546001600160a01b0316331461032657604051634755657960e01b815260040160405180910390fd5b6001600160a01b03811661034d5760405163d92e233d60e01b815260040160405180910390fd5b600180546001600160a01b0319166001600160a01b0383169081179091556040519081527f3df77beb5db05fcdd70a30fc8adf3f83f9501b68579455adbd100b81809403949060200161021e565b6000806001600160a01b0387166103c55760405163d92e233d60e01b815260040160405180910390fd5b85516000036103e757604051630309cb8760e51b815260040160405180910390fd5b428511610407576040516337bf561360e11b815260040160405180910390fd5b6127108461ffff16111561042e576040516358d620b360e01b815260040160405180910390fd5b60006001600160a01b038416156104455783610452565b6001546001600160a01b03165b90506001600160a01b03811661047b5760405163d92e233d60e01b815260040160405180910390fd5b60006104883389896105e2565b905088604051610497906106b8565b6001600160a01b039091168152602001604051809103906000f0801580156104c3573d6000803e3d6000fd5b50925088823085848c8c8c600354600260009054906101000a90046001600160a01b03166040516104f3906106c5565b6105069a9998979695949392919061095f565b604051809103906000f080158015610522573d6000803e3d6000fd5b50604051636dcea85f60e01b81526001600160a01b03808316600483015291955090841690636dcea85f90602401600060405180830381600087803b15801561056a57600080fd5b505af115801561057e573d6000803e3d6000fd5b50506003546002546040518594507f15d034aa4180a2237eb2516715047323453e9af21d2e5d59705c80f163d046fc93506105ce92899289928f928f928f926001600160a01b03909116906109db565b60405180910390a250509550959350505050565b60008383836040516020016105f993929190610a3a565b6040516020818303038152906040528051906020012090509392505050565b6000546001600160a01b0316331461064357604051634755657960e01b815260040160405180910390fd5b6001600160a01b03811661066a5760405163d92e233d60e01b815260040160405180910390fd5b600280546001600160a01b0319166001600160a01b0383169081179091556040519081527f7a7b5a0a132f9e0581eb8527f66eae9ee89c2a3e79d4ac7e41a1f1f4d48a7fc29060200161021e565b61075280610a6f83390190565b61197b806111c183390190565b6000602082840312156106e457600080fd5b5035919050565b80356001600160a01b038116811461070257600080fd5b919050565b634e487b7160e01b600052604160045260246000fd5b600082601f83011261072e57600080fd5b813567ffffffffffffffff81111561074857610748610707565b604051601f8201601f19908116603f0116810167ffffffffffffffff8111828210171561077757610777610707565b60405281815283820160200185101561078f57600080fd5b816020850160208301376000918101602001919091529392505050565b803561ffff8116811461070257600080fd5b600080600080608085870312156107d457600080fd5b6107dd856106eb565b9350602085013567ffffffffffffffff8111156107f957600080fd5b6108058782880161071d565b9350506040850135915061081b606086016107ac565b905092959194509250565b60006020828403121561083857600080fd5b610841826106eb565b9392505050565b600080600080600060a0868803121561086057600080fd5b610869866106eb565b9450602086013567ffffffffffffffff81111561088557600080fd5b6108918882890161071d565b945050604086013592506108a7606087016107ac565b91506108b5608087016106eb565b90509295509295909350565b6000806000606084860312156108d657600080fd5b6108df846106eb565b9250602084013567ffffffffffffffff8111156108fb57600080fd5b6109078682870161071d565b93969395505050506040919091013590565b6000815180845260005b8181101561093f57602081850181015186830182015201610923565b506000602082860101526020601f19601f83011685010191505092915050565b6001600160a01b038b811682528a811660208301528981166040830152881660608201526080810187905261014060a082018190526000906109a390830188610919565b60c08301969096525061ffff9390931660e08401526101008301919091526001600160a01b0316610120909101529695505050505050565b6001600160a01b0388811682528716602082015260e060408201819052600090610a0790830188610919565b60608301969096525061ffff93909316608084015260a08301919091526001600160a01b031660c0909101529392505050565b6001600160a01b0384168152606060208201819052600090610a5e90830185610919565b905082604083015294935050505056fe60a0604052348015600f57600080fd5b50604051610752380380610752833981016040819052602c916062565b6001600160a01b03811660525760405163d92e233d60e01b815260040160405180910390fd5b6001600160a01b03166080526090565b600060208284031215607357600080fd5b81516001600160a01b0381168114608957600080fd5b9392505050565b6080516106926100c060003960008181610133015281816101d00152818161035c015261044601526106926000f3fe608060405234801561001057600080fd5b506004361061007d5760003560e01c80634c109fd81161005b5780634c109fd8146100dd5780636dcea85f146100f057806380f5560514610103578063d8dfeb451461012e57600080fd5b806315cc36f2146100825780631aefb107146100975780634a4089cc146100ca575b600080fd5b61009561009036600461056f565b610155565b005b6100b76100a5366004610599565b60016020526000908152604090205481565b6040519081526020015b60405180910390f35b6100956100d83660046105bb565b610291565b6100956100eb36600461056f565b6103f2565b6100956100fe366004610599565b6104da565b600054610116906001600160a01b031681565b6040516001600160a01b0390911681526020016100c1565b6101167f000000000000000000000000000000000000000000000000000000000000000081565b6000546001600160a01b0316331461018057604051639e0125a960e01b815260040160405180910390fd5b806000036101a157604051630309cb8760e51b815260040160405180910390fd5b6040516323b872dd60e01b81526001600160a01b038381166004830152306024830152604482018390526000917f0000000000000000000000000000000000000000000000000000000000000000909116906323b872dd906064016020604051808303816000875af115801561021b573d6000803e3d6000fd5b505050506040513d601f19601f8201168201806040525081019061023f91906105f8565b90508061025f576040516312171d8360e31b815260040160405180910390fd5b6001600160a01b03831660009081526001602052604081208054849290610287908490610630565b9091555050505050565b6000546001600160a01b031633146102bc57604051639e0125a960e01b815260040160405180910390fd5b806000036102dd57604051630309cb8760e51b815260040160405180910390fd5b6001600160a01b0383166000908152600160205260409020548181101561031757604051633a23d82560e01b815260040160405180910390fd5b6103218282610649565b6001600160a01b0385811660009081526001602052604080822093909355915163a9059cbb60e01b81528582166004820152602481018590527f00000000000000000000000000000000000000000000000000000000000000009091169063a9059cbb906044016020604051808303816000875af11580156103a7573d6000803e3d6000fd5b505050506040513d601f19601f820116820180604052508101906103cb91906105f8565b9050806103eb576040516312171d8360e31b815260040160405180910390fd5b5050505050565b6000546001600160a01b0316331461041d57604051639e0125a960e01b815260040160405180910390fd5b60405163a9059cbb60e01b81526001600160a01b038381166004830152602482018390526000917f00000000000000000000000000000000000000000000000000000000000000009091169063a9059cbb906044016020604051808303816000875af1158015610491573d6000803e3d6000fd5b505050506040513d601f19601f820116820180604052508101906104b591906105f8565b9050806104d5576040516312171d8360e31b815260040160405180910390fd5b505050565b600054600160a01b900460ff161561050557604051630309cb8760e51b815260040160405180910390fd5b6001600160a01b03811661052c5760405163d92e233d60e01b815260040160405180910390fd5b600080546001600160a81b0319166001600160a01b0390921691909117600160a01b179055565b80356001600160a01b038116811461056a57600080fd5b919050565b6000806040838503121561058257600080fd5b61058b83610553565b946020939093013593505050565b6000602082840312156105ab57600080fd5b6105b482610553565b9392505050565b6000806000606084860312156105d057600080fd5b6105d984610553565b92506105e760208501610553565b929592945050506040919091013590565b60006020828403121561060a57600080fd5b815180151581146105b457600080fd5b634e487b7160e01b600052601160045260246000fd5b808201808211156106435761064361061a565b92915050565b818103818111156106435761064361061a56fea26469706673582212209d231e5f31f3c0676c7eccc60b7bccc978d85b6f513205a646b38d86863855ba64736f6c634300081a003361012060405234801561001157600080fd5b5060405161197b38038061197b8339810160408190526100309161024f565b60016000819055805460ff191690556001600160a01b038a16158061005c57506001600160a01b038916155b8061006e57506001600160a01b038816155b8061008057506001600160a01b038716155b1561009e5760405163d92e233d60e01b815260040160405180910390fd5b84516000036100c057604051630309cb8760e51b815260040160405180910390fd5b4284116100e0576040516337bf561360e11b815260040160405180910390fd5b6127108361ffff161115610107576040516358d620b360e01b815260040160405180910390fd5b6001600160a01b03811661012e5760405163d92e233d60e01b815260040160405180910390fd5b6001600160a01b03808b1660805289811660a05288811660c052871660e052610100869052600261015f8682610417565b5060038490556004805461ffff851661ffff199091161790556005829055600680546001600160a81b0319166001600160a01b038316179055610100516040517f6f32195b7d0d8b110adfb4d94d26620ec7319053a80302562d6dbbd62805ba9f906101d090889088908e906104d5565b60405180910390a250505050505050505050610520565b80516001600160a01b03811681146101fe57600080fd5b919050565b634e487b7160e01b600052604160045260246000fd5b60005b8381101561023457818101518382015260200161021c565b50506000910152565b805161ffff811681146101fe57600080fd5b6000806000806000806000806000806101408b8d03121561026f57600080fd5b6102788b6101e7565b995061028660208c016101e7565b985061029460408c016101e7565b97506102a260608c016101e7565b60808c015160a08d015191985096506001600160401b038111156102c557600080fd5b8b016000601f82018e136102d857600080fd5b81516001600160401b038111156102f1576102f1610203565b604051601f8201601f19908116603f011681016001600160401b038111828210171561031f5761031f610203565b80604052508181528f602083860101111561033957600080fd5b61034a826020830160208701610219565b60c08f0151909850965061036592505060e08d01905061023d565b6101008c0151909350915061037d6101208c016101e7565b90509295989b9194979a5092959850565b600181811c908216806103a257607f821691505b6020821081036103c257634e487b7160e01b600052602260045260246000fd5b50919050565b601f82111561041257806000526020600020601f840160051c810160208510156103ef5750805b601f840160051c820191505b8181101561040f57600081556001016103fb565b50505b505050565b81516001600160401b0381111561043057610430610203565b6104448161043e845461038e565b846103c8565b6020601f82116001811461047857600083156104605750848201515b600019600385901b1c1916600184901b17845561040f565b600084815260208120601f198516915b828110156104a85787850151825560209485019460019092019101610488565b50848210156104c65786840151600019600387901b60f8161c191681555b50505050600190811b01905550565b60608152600084518060608401526104f4816080850160208901610219565b6020830194909452506001600160a01b039190911660408201526080601f909201601f19160101919050565b60805160a05160c05160e051610100516113bc6105bf6000396000818161028601528181610506015281816105d00152818161068701526107b701526000818161038f015281816108ed01528181610a5701528181610ad301528181610ddf0152610e600152600081816102ff0152818161044a0152610bff0152600081816102ad015281816105a301526106bc0152600061032601526113bc6000f3fe608060405234801561001057600080fd5b506004361061014d5760003560e01c80637dc0d1d0116100c3578063d8dfeb451161007c578063d8dfeb4514610321578063d9eb594714610348578063e24c469b14610351578063f160d36914610364578063f571c5f314610377578063fbfa77cf1461038a57600080fd5b80637dc0d1d0146102a857806397a98955146102cf57806397bfff77146102d7578063bd3fb12f146102ea578063be040fb0146102f2578063c45a0155146102fa57600080fd5b80633fad9ae0116101155780633fad9ae0146101f6578063469048401461020b5780634805a34a1461023657806348dba54e1461024b5780635c975abb1461026b5780636ed71ede1461028157600080fd5b80630bedd40914610152578063200d2ed21461018557806324a9d853146101a657806327793f87146101c75780633197cbb6146101ed575b600080fd5b610172610160366004610fa4565b60086020526000908152604090205481565b6040519081526020015b60405180910390f35b60065461019990600160a01b900460ff1681565b60405161017c9190610fe3565b6004546101b49061ffff1681565b60405161ffff909116815260200161017c565b6006546101db90600160a81b900460ff1681565b60405160ff909116815260200161017c565b61017260035481565b6101fe6103b1565b60405161017c919061105b565b60065461021e906001600160a01b031681565b6040516001600160a01b03909116815260200161017c565b61024961024436600461106e565b61043f565b005b610172610259366004610fa4565b60076020526000908152604090205481565b60015460ff16604051901515815260200161017c565b6101727f000000000000000000000000000000000000000000000000000000000000000081565b61021e7f000000000000000000000000000000000000000000000000000000000000000081565b61024961048d565b6102496102e5366004611087565b61054e565b610249610632565b610249610820565b61021e7f000000000000000000000000000000000000000000000000000000000000000081565b61021e7f000000000000000000000000000000000000000000000000000000000000000081565b61017260055481565b61024961035f36600461110c565b61099f565b610249610372366004610fa4565b610bf4565b61024961038536600461110c565b610c86565b61021e7f000000000000000000000000000000000000000000000000000000000000000081565b600280546103be90611138565b80601f01602080910402602001604051908101604052809291908181526020018280546103ea90611138565b80156104375780601f1061040c57610100808354040283529160200191610437565b820191906000526020600020905b81548152906001019060200180831161041a57829003601f168201915b505050505081565b336001600160a01b037f0000000000000000000000000000000000000000000000000000000000000000161461048857604051630636a15760e11b815260040160405180910390fd5b600555565b6003544210156104b0576040516308fd3d0560e01b815260040160405180910390fd5b6000600654600160a01b900460ff1660028111156104d0576104d0610fcd565b146104ee57604051630309cb8760e51b815260040160405180910390fd5b6006805460ff60a01b1916600160a01b1790556040517f0000000000000000000000000000000000000000000000000000000000000000907ff0b26890989c7abe4fcbc3b91d347980cc1b29a59b4d5c2f7bfb99327bef848590600090a2565b6001600654600160a01b900460ff16600281111561056e5761056e610fcd565b1461058c57604051630309cb8760e51b815260040160405180910390fd5b60405163b8fec5b560e01b81526001600160a01b037f0000000000000000000000000000000000000000000000000000000000000000169063b8fec5b5906105fc907f00000000000000000000000000000000000000000000000000000000000000009086908690600401611172565b600060405180830381600087803b15801561061657600080fd5b505af115801561062a573d6000803e3d6000fd5b505050505050565b61063a610f16565b6001600654600160a01b900460ff16600281111561065a5761065a610fcd565b1461067857604051630309cb8760e51b815260040160405180910390fd5b604051632b7531e160e21b81527f00000000000000000000000000000000000000000000000000000000000000006004820152600090819081906001600160a01b037f0000000000000000000000000000000000000000000000000000000000000000169063add4c78490602401600060405180830381865afa158015610703573d6000803e3d6000fd5b505050506040513d6000823e601f3d908101601f1916820160405261072b9190810190611249565b9250925092508261074f5760405163174b639360e11b815260040160405180910390fd5b60008280602001905181019061076591906112c5565b905060018160ff16111561078c57604051630309cb8760e51b815260040160405180910390fd5b6006805461ffff60a01b1916600160a81b60ff84160260ff60a01b191617600160a11b1790556040517f0000000000000000000000000000000000000000000000000000000000000000907f2b17c9e611787445a3bcc13ee7cb1e211c6cd8b508850278cd1fa701d613302c90610808908490879087906112e8565b60405180910390a25050505061081e6001600055565b565b610828610f16565b6002600654600160a01b900460ff16600281111561084857610848610fcd565b146108665760405163174b639360e11b815260040160405180910390fd5b600654336000908152600760209081526040808320546008909252822054919261089c92600160a81b90910460ff169190610f73565b9050806000036108bf57604051630309cb8760e51b815260040160405180910390fd5b33600081815260076020908152604080832083905560089091528082209190915551631290227360e21b81527f00000000000000000000000000000000000000000000000000000000000000006001600160a01b031691634a4089cc9161092d919081908690600401611320565b600060405180830381600087803b15801561094757600080fd5b505af115801561095b573d6000803e3d6000fd5b50506040518381523392507f222838db2794d11532d940e8dec38ae307ed0b63cd97c233322e221f998767a6915060200160405180910390a25061081e6001600055565b6109a7610f16565b6000600654600160a01b900460ff1660028111156109c7576109c7610fcd565b146109e55760405163e2c865df60e01b815260040160405180910390fd5b6003544210610a075760405163e2c865df60e01b815260040160405180910390fd5b6005548111610a2957604051630309cb8760e51b815260040160405180910390fd5b6005546000610a38828461135a565b604051630ae61b7960e11b8152336004820152602481018590529091507f00000000000000000000000000000000000000000000000000000000000000006001600160a01b0316906315cc36f290604401600060405180830381600087803b158015610aa357600080fd5b505af1158015610ab7573d6000803e3d6000fd5b5050600654604051631290227360e21b81526001600160a01b037f000000000000000000000000000000000000000000000000000000000000000081169450634a4089cc9350610b109233929116908790600401611320565b600060405180830381600087803b158015610b2a57600080fd5b505af1158015610b3e573d6000803e3d6000fd5b505050508315610b72573360009081526007602052604081208054839290610b67908490611373565b90915550610b979050565b3360009081526008602052604081208054839290610b91908490611373565b90915550505b604080518515158152602081018590529081018290526060810183905233907f69fd83406168ef35927190021ab940690b846cc0c13e3c76f0a74a83bdaddf9e906080015b60405180910390a25050610bf06001600055565b5050565b336001600160a01b037f00000000000000000000000000000000000000000000000000000000000000001614610c3d57604051630636a15760e11b815260040160405180910390fd5b6001600160a01b038116610c645760405163d92e233d60e01b815260040160405180910390fd5b600680546001600160a01b0319166001600160a01b0392909216919091179055565b610c8e610f16565b6000600654600160a01b900460ff166002811115610cae57610cae610fcd565b14610ccc5760405163e2c865df60e01b815260040160405180910390fd5b6003544210610cee5760405163e2c865df60e01b815260040160405180910390fd5b6005548111610d1057604051630309cb8760e51b815260040160405180910390fd5b6005546000610d1f828461135a565b90508315610d78573360009081526007602052604090205483811015610d5857604051631e9acf1760e31b815260040160405180910390fd5b610d62848261135a565b3360009081526007602052604090205550610dc5565b3360009081526008602052604090205483811015610da957604051631e9acf1760e31b815260040160405180910390fd5b610db3848261135a565b33600090815260086020526040902055505b600654604051631290227360e21b81526001600160a01b037f0000000000000000000000000000000000000000000000000000000000000000811692634a4089cc92610e1992339216908790600401611320565b600060405180830381600087803b158015610e3357600080fd5b505af1158015610e47573d6000803e3d6000fd5b5050604051631290227360e21b81526001600160a01b037f0000000000000000000000000000000000000000000000000000000000000000169250634a4089cc9150610e9b90339081908690600401611320565b600060405180830381600087803b158015610eb557600080fd5b505af1158015610ec9573d6000803e3d6000fd5b505060408051871515815260208101859052908101869052606081018590523392507f69fd83406168ef35927190021ab940690b846cc0c13e3c76f0a74a83bdaddf9e9150608001610bdc565b600260005403610f6c5760405162461bcd60e51b815260206004820152601f60248201527f5265656e7472616e637947756172643a207265656e7472616e742063616c6c00604482015260640160405180910390fd5b6002600055565b60008360ff16600003610f87575080610f9d565b8360ff16600103610f99575081610f9d565b5060005b9392505050565b600060208284031215610fb657600080fd5b81356001600160a01b0381168114610f9d57600080fd5b634e487b7160e01b600052602160045260246000fd5b602081016003831061100557634e487b7160e01b600052602160045260246000fd5b91905290565b60005b8381101561102657818101518382015260200161100e565b50506000910152565b6000815180845261104781602086016020860161100b565b601f01601f19169290920160200192915050565b602081526000610f9d602083018461102f565b60006020828403121561108057600080fd5b5035919050565b6000806020838503121561109a57600080fd5b823567ffffffffffffffff8111156110b157600080fd5b8301601f810185136110c257600080fd5b803567ffffffffffffffff8111156110d957600080fd5b8560208284010111156110eb57600080fd5b6020919091019590945092505050565b801515811461110957600080fd5b50565b6000806040838503121561111f57600080fd5b823561112a816110fb565b946020939093013593505050565b600181811c9082168061114c57607f821691505b60208210810361116c57634e487b7160e01b600052602260045260246000fd5b50919050565b83815260406020820152816040820152818360608301376000818301606090810191909152601f909201601f1916010192915050565b634e487b7160e01b600052604160045260246000fd5b600082601f8301126111cf57600080fd5b815167ffffffffffffffff8111156111e9576111e96111a8565b604051601f8201601f19908116603f0116810167ffffffffffffffff81118282101715611218576112186111a8565b60405281815283820160200185101561123057600080fd5b61124182602083016020870161100b565b949350505050565b60008060006060848603121561125e57600080fd5b8351611269816110fb565b602085015190935067ffffffffffffffff81111561128657600080fd5b611292868287016111be565b925050604084015167ffffffffffffffff8111156112af57600080fd5b6112bb868287016111be565b9150509250925092565b6000602082840312156112d757600080fd5b815160ff81168114610f9d57600080fd5b60ff84168152606060208201526000611304606083018561102f565b8281036040840152611316818561102f565b9695505050505050565b6001600160a01b039384168152919092166020820152604081019190915260600190565b634e487b7160e01b600052601160045260246000fd5b8181038181111561136d5761136d611344565b92915050565b8082018082111561136d5761136d61134456fea2646970667358221220e1a7073783d638e5eb7fb09c8775c4c0430cfc6a2e83f24a9b15e73beb2648e264736f6c634300081a0033a26469706673582212206495a441287f443797eff8209e1547df5016068a00b1ee3f6f3b2b33032373a764736f6c634300081a0033","opcodes":"PUSH1 0x80 PUSH1 0x40 MSTORE CALLVALUE DUP1 ISZERO PUSH2 0x10 JUMPI PUSH1 0x0 DUP1 REVERT JUMPDEST POP PUSH1 0x40 MLOAD PUSH2 0x2CA8 CODESIZE SUB DUP1 PUSH2 0x2CA8 DUP4 CODECOPY DUP2 ADD PUSH1 0x40 DUP2 SWAP1 MSTORE PUSH2 0x2F SWAP2 PUSH2 0xDD JUMP JUMPDEST PUSH1 0x1 PUSH1 0x1 PUSH1 0xA0 SHL SUB DUP5 AND ISZERO DUP1 PUSH2 0x4C JUMPI POP PUSH1 0x1 PUSH1 0x1 PUSH1 0xA0 SHL SUB DUP4 AND ISZERO JUMPDEST DUP1 PUSH2 0x5E JUMPI POP PUSH1 0x1 PUSH1 0x1 PUSH1 0xA0 SHL SUB DUP3 AND ISZERO JUMPDEST ISZERO PUSH2 0x7C JUMPI PUSH1 0x40 MLOAD PUSH4 0xD92E233D PUSH1 0xE0 SHL DUP2 MSTORE PUSH1 0x4 ADD PUSH1 0x40 MLOAD DUP1 SWAP2 SUB SWAP1 REVERT JUMPDEST PUSH1 0x0 DUP1 SLOAD PUSH1 0x1 PUSH1 0x1 PUSH1 0xA0 SHL SUB NOT SWAP1 DUP2 AND PUSH1 0x1 PUSH1 0x1 PUSH1 0xA0 SHL SUB SWAP7 DUP8 AND OR SWAP1 SWAP2 SSTORE PUSH1 0x1 DUP1 SLOAD DUP3 AND SWAP5 DUP7 AND SWAP5 SWAP1 SWAP5 OR SWAP1 SWAP4 SSTORE PUSH1 0x2 DUP1 SLOAD SWAP1 SWAP4 AND SWAP2 SWAP1 SWAP4 AND OR SWAP1 SSTORE PUSH1 0x3 SSTORE PUSH2 0x128 JUMP JUMPDEST DUP1 MLOAD PUSH1 0x1 PUSH1 0x1 PUSH1 0xA0 SHL SUB DUP2 AND DUP2 EQ PUSH2 0xD8 JUMPI PUSH1 0x0 DUP1 REVERT JUMPDEST SWAP2 SWAP1 POP JUMP JUMPDEST PUSH1 0x0 DUP1 PUSH1 0x0 DUP1 PUSH1 0x80 DUP6 DUP8 SUB SLT ISZERO PUSH2 0xF3 JUMPI PUSH1 0x0 DUP1 REVERT JUMPDEST PUSH2 0xFC DUP6 PUSH2 0xC1 JUMP JUMPDEST SWAP4 POP PUSH2 0x10A PUSH1 0x20 DUP7 ADD PUSH2 0xC1 JUMP JUMPDEST SWAP3 POP PUSH2 0x118 PUSH1 0x40 DUP7 ADD PUSH2 0xC1 JUMP JUMPDEST PUSH1 0x60 SWAP6 SWAP1 SWAP6 ADD MLOAD SWAP4 SWAP7 SWAP3 SWAP6 POP POP POP JUMP JUMPDEST PUSH2 0x2B71 DUP1 PUSH2 0x137 PUSH1 0x0 CODECOPY PUSH1 0x0 RETURN INVALID PUSH1 0x80 PUSH1 0x40 MSTORE CALLVALUE DUP1 ISZERO PUSH2 0x10 JUMPI PUSH1 0x0 DUP1 REVERT JUMPDEST POP PUSH1 0x4 CALLDATASIZE LT PUSH2 0xA9 JUMPI PUSH1 0x0 CALLDATALOAD PUSH1 0xE0 SHR DUP1 PUSH4 0x7DC0D1D0 GT PUSH2 0x71 JUMPI DUP1 PUSH4 0x7DC0D1D0 EQ PUSH2 0x14C JUMPI DUP1 PUSH4 0x7DF66F76 EQ PUSH2 0x15F JUMPI DUP1 PUSH4 0xB9DC6456 EQ PUSH2 0x172 JUMPI DUP1 PUSH4 0xD9EB5947 EQ PUSH2 0x193 JUMPI DUP1 PUSH4 0xE74B981B EQ PUSH2 0x19C JUMPI DUP1 PUSH4 0xF851A440 EQ PUSH2 0x1AF JUMPI PUSH1 0x0 DUP1 REVERT JUMPDEST DUP1 PUSH4 0x23FA495A EQ PUSH2 0xAE JUMPI DUP1 PUSH4 0x43CA9FE9 EQ PUSH2 0xC3 JUMPI DUP1 PUSH4 0x46904840 EQ PUSH2 0xFB JUMPI DUP1 PUSH4 0x704B6C02 EQ PUSH2 0x126 JUMPI DUP1 PUSH4 0x7ADBF973 EQ PUSH2 0x139 JUMPI JUMPDEST PUSH1 0x0 DUP1 REVERT JUMPDEST PUSH2 0xC1 PUSH2 0xBC CALLDATASIZE PUSH1 0x4 PUSH2 0x6D2 JUMP JUMPDEST PUSH2 0x1C2 JUMP JUMPDEST STOP JUMPDEST PUSH2 0xD6 PUSH2 0xD1 CALLDATASIZE PUSH1 0x4 PUSH2 0x7BE JUMP JUMPDEST PUSH2 0x229 JUMP JUMPDEST PUSH1 0x40 DUP1 MLOAD PUSH1 0x1 PUSH1 0x1 PUSH1 0xA0 SHL SUB SWAP4 DUP5 AND DUP2 MSTORE SWAP3 SWAP1 SWAP2 AND PUSH1 0x20 DUP4 ADD MSTORE ADD JUMPDEST PUSH1 0x40 MLOAD DUP1 SWAP2 SUB SWAP1 RETURN JUMPDEST PUSH1 0x2 SLOAD PUSH2 0x10E SWAP1 PUSH1 0x1 PUSH1 0x1 PUSH1 0xA0 SHL SUB AND DUP2 JUMP JUMPDEST PUSH1 0x40 MLOAD PUSH1 0x1 PUSH1 0x1 PUSH1 0xA0 SHL SUB SWAP1 SWAP2 AND DUP2 MSTORE PUSH1 0x20 ADD PUSH2 0xF2 JUMP JUMPDEST PUSH2 0xC1 PUSH2 0x134 CALLDATASIZE PUSH1 0x4 PUSH2 0x826 JUMP JUMPDEST PUSH2 0x25B JUMP JUMPDEST PUSH2 0xC1 PUSH2 0x147 CALLDATASIZE PUSH1 0x4 PUSH2 0x826 JUMP JUMPDEST PUSH2 0x2FB JUMP JUMPDEST PUSH1 0x1 SLOAD PUSH2 0x10E SWAP1 PUSH1 0x1 PUSH1 0x1 PUSH1 0xA0 SHL SUB AND DUP2 JUMP JUMPDEST PUSH2 0xD6 PUSH2 0x16D CALLDATASIZE PUSH1 0x4 PUSH2 0x848 JUMP JUMPDEST PUSH2 0x39B JUMP JUMPDEST PUSH2 0x185 PUSH2 0x180 CALLDATASIZE PUSH1 0x4 PUSH2 0x8C1 JUMP JUMPDEST PUSH2 0x5E2 JUMP JUMPDEST PUSH1 0x40 MLOAD SWAP1 DUP2 MSTORE PUSH1 0x20 ADD PUSH2 0xF2 JUMP JUMPDEST PUSH2 0x185 PUSH1 0x3 SLOAD DUP2 JUMP JUMPDEST PUSH2 0xC1 PUSH2 0x1AA CALLDATASIZE PUSH1 0x4 PUSH2 0x826 JUMP JUMPDEST PUSH2 0x618 JUMP JUMPDEST PUSH1 0x0 SLOAD PUSH2 0x10E SWAP1 PUSH1 0x1 PUSH1 0x1 PUSH1 0xA0 SHL SUB AND DUP2 JUMP JUMPDEST PUSH1 0x0 SLOAD PUSH1 0x1 PUSH1 0x1 PUSH1 0xA0 SHL SUB AND CALLER EQ PUSH2 0x1ED JUMPI PUSH1 0x40 MLOAD PUSH4 0x47556579 PUSH1 0xE0 SHL DUP2 MSTORE PUSH1 0x4 ADD PUSH1 0x40 MLOAD DUP1 SWAP2 SUB SWAP1 REVERT JUMPDEST PUSH1 0x3 DUP2 SWAP1 SSTORE PUSH1 0x40 MLOAD DUP2 DUP2 MSTORE PUSH32 0x2DFC898B3677E9A8DB0CCD358B29E83D409F092F876498F4CF135D707165F85F SWAP1 PUSH1 0x20 ADD JUMPDEST PUSH1 0x40 MLOAD DUP1 SWAP2 SUB SWAP1 LOG1 POP JUMP JUMPDEST PUSH1 0x0 DUP1 PUSH2 0x24E DUP7 DUP7 DUP7 DUP7 PUSH1 0x1 PUSH1 0x0 SWAP1 SLOAD SWAP1 PUSH2 0x100 EXP SWAP1 DIV PUSH1 0x1 PUSH1 0x1 PUSH1 0xA0 SHL SUB AND PUSH2 0x39B JUMP JUMPDEST SWAP2 POP SWAP2 POP SWAP5 POP SWAP5 SWAP3 POP POP POP JUMP JUMPDEST PUSH1 0x0 SLOAD PUSH1 0x1 PUSH1 0x1 PUSH1 0xA0 SHL SUB AND CALLER EQ PUSH2 0x286 JUMPI PUSH1 0x40 MLOAD PUSH4 0x47556579 PUSH1 0xE0 SHL DUP2 MSTORE PUSH1 0x4 ADD PUSH1 0x40 MLOAD DUP1 SWAP2 SUB SWAP1 REVERT JUMPDEST PUSH1 0x1 PUSH1 0x1 PUSH1 0xA0 SHL SUB DUP2 AND PUSH2 0x2AD JUMPI PUSH1 0x40 MLOAD PUSH4 0xD92E233D PUSH1 0xE0 SHL DUP2 MSTORE PUSH1 0x4 ADD PUSH1 0x40 MLOAD DUP1 SWAP2 SUB SWAP1 REVERT JUMPDEST PUSH1 0x0 DUP1 SLOAD PUSH1 0x1 PUSH1 0x1 PUSH1 0xA0 SHL SUB NOT AND PUSH1 0x1 PUSH1 0x1 PUSH1 0xA0 SHL SUB DUP4 AND SWAP1 DUP2 OR SWAP1 SWAP2 SSTORE PUSH1 0x40 MLOAD SWAP1 DUP2 MSTORE PUSH32 0x54E4612788F90384E6843298D7854436F3A585B2C3831AB66ABF1DE63BFA6C2D SWAP1 PUSH1 0x20 ADD PUSH2 0x21E JUMP JUMPDEST PUSH1 0x0 SLOAD PUSH1 0x1 PUSH1 0x1 PUSH1 0xA0 SHL SUB AND CALLER EQ PUSH2 0x326 JUMPI PUSH1 0x40 MLOAD PUSH4 0x47556579 PUSH1 0xE0 SHL DUP2 MSTORE PUSH1 0x4 ADD PUSH1 0x40 MLOAD DUP1 SWAP2 SUB SWAP1 REVERT JUMPDEST PUSH1 0x1 PUSH1 0x1 PUSH1 0xA0 SHL SUB DUP2 AND PUSH2 0x34D JUMPI PUSH1 0x40 MLOAD PUSH4 0xD92E233D PUSH1 0xE0 SHL DUP2 MSTORE PUSH1 0x4 ADD PUSH1 0x40 MLOAD DUP1 SWAP2 SUB SWAP1 REVERT JUMPDEST PUSH1 0x1 DUP1 SLOAD PUSH1 0x1 PUSH1 0x1 PUSH1 0xA0 SHL SUB NOT AND PUSH1 0x1 PUSH1 0x1 PUSH1 0xA0 SHL SUB DUP4 AND SWAP1 DUP2 OR SWAP1 SWAP2 SSTORE PUSH1 0x40 MLOAD SWAP1 DUP2 MSTORE PUSH32 0x3DF77BEB5DB05FCDD70A30FC8ADF3F83F9501B68579455ADBD100B8180940394 SWAP1 PUSH1 0x20 ADD PUSH2 0x21E JUMP JUMPDEST PUSH1 0x0 DUP1 PUSH1 0x1 PUSH1 0x1 PUSH1 0xA0 SHL SUB DUP8 AND PUSH2 0x3C5 JUMPI PUSH1 0x40 MLOAD PUSH4 0xD92E233D PUSH1 0xE0 SHL DUP2 MSTORE PUSH1 0x4 ADD PUSH1 0x40 MLOAD DUP1 SWAP2 SUB SWAP1 REVERT JUMPDEST DUP6 MLOAD PUSH1 0x0 SUB PUSH2 0x3E7 JUMPI PUSH1 0x40 MLOAD PUSH4 0x309CB87 PUSH1 0xE5 SHL DUP2 MSTORE PUSH1 0x4 ADD PUSH1 0x40 MLOAD DUP1 SWAP2 SUB SWAP1 REVERT JUMPDEST TIMESTAMP DUP6 GT PUSH2 0x407 JUMPI PUSH1 0x40 MLOAD PUSH4 0x37BF5613 PUSH1 0xE1 SHL DUP2 MSTORE PUSH1 0x4 ADD PUSH1 0x40 MLOAD DUP1 SWAP2 SUB SWAP1 REVERT JUMPDEST PUSH2 0x2710 DUP5 PUSH2 0xFFFF AND GT ISZERO PUSH2 0x42E JUMPI PUSH1 0x40 MLOAD PUSH4 0x58D620B3 PUSH1 0xE0 SHL DUP2 MSTORE PUSH1 0x4 ADD PUSH1 0x40 MLOAD DUP1 SWAP2 SUB SWAP1 REVERT JUMPDEST PUSH1 0x0 PUSH1 0x1 PUSH1 0x1 PUSH1 0xA0 SHL SUB DUP5 AND ISZERO PUSH2 0x445 JUMPI DUP4 PUSH2 0x452 JUMP JUMPDEST PUSH1 0x1 SLOAD PUSH1 0x1 PUSH1 0x1 PUSH1 0xA0 SHL SUB AND JUMPDEST SWAP1 POP PUSH1 0x1 PUSH1 0x1 PUSH1 0xA0 SHL SUB DUP2 AND PUSH2 0x47B JUMPI PUSH1 0x40 MLOAD PUSH4 0xD92E233D PUSH1 0xE0 SHL DUP2 MSTORE PUSH1 0x4 ADD PUSH1 0x40 MLOAD DUP1 SWAP2 SUB SWAP1 REVERT JUMPDEST PUSH1 0x0 PUSH2 0x488 CALLER DUP10 DUP10 PUSH2 0x5E2 JUMP JUMPDEST SWAP1 POP DUP9 PUSH1 0x40 MLOAD PUSH2 0x497 SWAP1 PUSH2 0x6B8 JUMP JUMPDEST PUSH1 0x1 PUSH1 0x1 PUSH1 0xA0 SHL SUB SWAP1 SWAP2 AND DUP2 MSTORE PUSH1 0x20 ADD PUSH1 0x40 MLOAD DUP1 SWAP2 SUB SWAP1 PUSH1 0x0 CREATE DUP1 ISZERO DUP1 ISZERO PUSH2 0x4C3 JUMPI RETURNDATASIZE PUSH1 0x0 DUP1 RETURNDATACOPY RETURNDATASIZE PUSH1 0x0 REVERT JUMPDEST POP SWAP3 POP DUP9 DUP3 ADDRESS DUP6 DUP5 DUP13 DUP13 DUP13 PUSH1 0x3 SLOAD PUSH1 0x2 PUSH1 0x0 SWAP1 SLOAD SWAP1 PUSH2 0x100 EXP SWAP1 DIV PUSH1 0x1 PUSH1 0x1 PUSH1 0xA0 SHL SUB AND PUSH1 0x40 MLOAD PUSH2 0x4F3 SWAP1 PUSH2 0x6C5 JUMP JUMPDEST PUSH2 0x506 SWAP11 SWAP10 SWAP9 SWAP8 SWAP7 SWAP6 SWAP5 SWAP4 SWAP3 SWAP2 SWAP1 PUSH2 0x95F JUMP JUMPDEST PUSH1 0x40 MLOAD DUP1 SWAP2 SUB SWAP1 PUSH1 0x0 CREATE DUP1 ISZERO DUP1 ISZERO PUSH2 0x522 JUMPI RETURNDATASIZE PUSH1 0x0 DUP1 RETURNDATACOPY RETURNDATASIZE PUSH1 0x0 REVERT JUMPDEST POP PUSH1 0x40 MLOAD PUSH4 0x6DCEA85F PUSH1 0xE0 SHL DUP2 MSTORE PUSH1 0x1 PUSH1 0x1 PUSH1 0xA0 SHL SUB DUP1 DUP4 AND PUSH1 0x4 DUP4 ADD MSTORE SWAP2 SWAP6 POP SWAP1 DUP5 AND SWAP1 PUSH4 0x6DCEA85F SWAP1 PUSH1 0x24 ADD PUSH1 0x0 PUSH1 0x40 MLOAD DUP1 DUP4 SUB DUP2 PUSH1 0x0 DUP8 DUP1 EXTCODESIZE ISZERO DUP1 ISZERO PUSH2 0x56A JUMPI PUSH1 0x0 DUP1 REVERT JUMPDEST POP GAS CALL ISZERO DUP1 ISZERO PUSH2 0x57E JUMPI RETURNDATASIZE PUSH1 0x0 DUP1 RETURNDATACOPY RETURNDATASIZE PUSH1 0x0 REVERT JUMPDEST POP POP PUSH1 0x3 SLOAD PUSH1 0x2 SLOAD PUSH1 0x40 MLOAD DUP6 SWAP5 POP PUSH32 0x15D034AA4180A2237EB2516715047323453E9AF21D2E5D59705C80F163D046FC SWAP4 POP PUSH2 0x5CE SWAP3 DUP10 SWAP3 DUP10 SWAP3 DUP16 SWAP3 DUP16 SWAP3 DUP16 SWAP3 PUSH1 0x1 PUSH1 0x1 PUSH1 0xA0 SHL SUB SWAP1 SWAP2 AND SWAP1 PUSH2 0x9DB JUMP JUMPDEST PUSH1 0x40 MLOAD DUP1 SWAP2 SUB SWAP1 LOG2 POP POP SWAP6 POP SWAP6 SWAP4 POP POP POP POP JUMP JUMPDEST PUSH1 0x0 DUP4 DUP4 DUP4 PUSH1 0x40 MLOAD PUSH1 0x20 ADD PUSH2 0x5F9 SWAP4 SWAP3 SWAP2 SWAP1 PUSH2 0xA3A JUMP JUMPDEST PUSH1 0x40 MLOAD PUSH1 0x20 DUP2 DUP4 SUB SUB DUP2 MSTORE SWAP1 PUSH1 0x40 MSTORE DUP1 MLOAD SWAP1 PUSH1 0x20 ADD KECCAK256 SWAP1 POP SWAP4 SWAP3 POP POP POP JUMP JUMPDEST PUSH1 0x0 SLOAD PUSH1 0x1 PUSH1 0x1 PUSH1 0xA0 SHL SUB AND CALLER EQ PUSH2 0x643 JUMPI PUSH1 0x40 MLOAD PUSH4 0x47556579 PUSH1 0xE0 SHL DUP2 MSTORE PUSH1 0x4 ADD PUSH1 0x40 MLOAD DUP1 SWAP2 SUB SWAP1 REVERT JUMPDEST PUSH1 0x1 PUSH1 0x1 PUSH1 0xA0 SHL SUB DUP2 AND PUSH2 0x66A JUMPI PUSH1 0x40 MLOAD PUSH4 0xD92E233D PUSH1 0xE0 SHL DUP2 MSTORE PUSH1 0x4 ADD PUSH1 0x40 MLOAD DUP1 SWAP2 SUB SWAP1 REVERT JUMPDEST PUSH1 0x2 DUP1 SLOAD PUSH1 0x1 PUSH1 0x1 PUSH1 0xA0 SHL SUB NOT AND PUSH1 0x1 PUSH1 0x1 PUSH1 0xA0 SHL SUB DUP4 AND SWAP1 DUP2 OR SWAP1 SWAP2 SSTORE PUSH1 0x40 MLOAD SWAP1 DUP2 MSTORE PUSH32 0x7A7B5A0A132F9E0581EB8527F66EAE9EE89C2A3E79D4AC7E41A1F1F4D48A7FC2 SWAP1 PUSH1 0x20 ADD PUSH2 0x21E JUMP JUMPDEST PUSH2 0x752 DUP1 PUSH2 0xA6F DUP4 CODECOPY ADD SWAP1 JUMP JUMPDEST PUSH2 0x197B DUP1 PUSH2 0x11C1 DUP4 CODECOPY ADD SWAP1 JUMP JUMPDEST PUSH1 0x0 PUSH1 0x20 DUP3 DUP5 SUB SLT ISZERO PUSH2 0x6E4 JUMPI PUSH1 0x0 DUP1 REVERT JUMPDEST POP CALLDATALOAD SWAP2 SWAP1 POP JUMP JUMPDEST DUP1 CALLDATALOAD PUSH1 0x1 PUSH1 0x1 PUSH1 0xA0 SHL SUB DUP2 AND DUP2 EQ PUSH2 0x702 JUMPI PUSH1 0x0 DUP1 REVERT JUMPDEST SWAP2 SWAP1 POP JUMP JUMPDEST PUSH4 0x4E487B71 PUSH1 0xE0 SHL PUSH1 0x0 MSTORE PUSH1 0x41 PUSH1 0x4 MSTORE PUSH1 0x24 PUSH1 0x0 REVERT JUMPDEST PUSH1 0x0 DUP3 PUSH1 0x1F DUP4 ADD SLT PUSH2 0x72E JUMPI PUSH1 0x0 DUP1 REVERT JUMPDEST DUP2 CALLDATALOAD PUSH8 0xFFFFFFFFFFFFFFFF DUP2 GT ISZERO PUSH2 0x748 JUMPI PUSH2 0x748 PUSH2 0x707 JUMP JUMPDEST PUSH1 0x40 MLOAD PUSH1 0x1F DUP3 ADD PUSH1 0x1F NOT SWAP1 DUP2 AND PUSH1 0x3F ADD AND DUP2 ADD PUSH8 0xFFFFFFFFFFFFFFFF DUP2 GT DUP3 DUP3 LT OR ISZERO PUSH2 0x777 JUMPI PUSH2 0x777 PUSH2 0x707 JUMP JUMPDEST PUSH1 0x40 MSTORE DUP2 DUP2 MSTORE DUP4 DUP3 ADD PUSH1 0x20 ADD DUP6 LT ISZERO PUSH2 0x78F JUMPI PUSH1 0x0 DUP1 REVERT JUMPDEST DUP2 PUSH1 0x20 DUP6 ADD PUSH1 0x20 DUP4 ADD CALLDATACOPY PUSH1 0x0 SWAP2 DUP2 ADD PUSH1 0x20 ADD SWAP2 SWAP1 SWAP2 MSTORE SWAP4 SWAP3 POP POP POP JUMP JUMPDEST DUP1 CALLDATALOAD PUSH2 0xFFFF DUP2 AND DUP2 EQ PUSH2 0x702 JUMPI PUSH1 0x0 DUP1 REVERT JUMPDEST PUSH1 0x0 DUP1 PUSH1 0x0 DUP1 PUSH1 0x80 DUP6 DUP8 SUB SLT ISZERO PUSH2 0x7D4 JUMPI PUSH1 0x0 DUP1 REVERT JUMPDEST PUSH2 0x7DD DUP6 PUSH2 0x6EB JUMP JUMPDEST SWAP4 POP PUSH1 0x20 DUP6 ADD CALLDATALOAD PUSH8 0xFFFFFFFFFFFFFFFF DUP2 GT ISZERO PUSH2 0x7F9 JUMPI PUSH1 0x0 DUP1 REVERT JUMPDEST PUSH2 0x805 DUP8 DUP3 DUP9 ADD PUSH2 0x71D JUMP JUMPDEST SWAP4 POP POP PUSH1 0x40 DUP6 ADD CALLDATALOAD SWAP2 POP PUSH2 0x81B PUSH1 0x60 DUP7 ADD PUSH2 0x7AC JUMP JUMPDEST SWAP1 POP SWAP3 SWAP6 SWAP2 SWAP5 POP SWAP3 POP JUMP JUMPDEST PUSH1 0x0 PUSH1 0x20 DUP3 DUP5 SUB SLT ISZERO PUSH2 0x838 JUMPI PUSH1 0x0 DUP1 REVERT JUMPDEST PUSH2 0x841 DUP3 PUSH2 0x6EB JUMP JUMPDEST SWAP4 SWAP3 POP POP POP JUMP JUMPDEST PUSH1 0x0 DUP1 PUSH1 0x0 DUP1 PUSH1 0x0 PUSH1 0xA0 DUP7 DUP9 SUB SLT ISZERO PUSH2 0x860 JUMPI PUSH1 0x0 DUP1 REVERT JUMPDEST PUSH2 0x869 DUP7 PUSH2 0x6EB JUMP JUMPDEST SWAP5 POP PUSH1 0x20 DUP7 ADD CALLDATALOAD PUSH8 0xFFFFFFFFFFFFFFFF DUP2 GT ISZERO PUSH2 0x885 JUMPI PUSH1 0x0 DUP1 REVERT JUMPDEST PUSH2 0x891 DUP9 DUP3 DUP10 ADD PUSH2 0x71D JUMP JUMPDEST SWAP5 POP POP PUSH1 0x40 DUP7 ADD CALLDATALOAD SWAP3 POP PUSH2 0x8A7 PUSH1 0x60 DUP8 ADD PUSH2 0x7AC JUMP JUMPDEST SWAP2 POP PUSH2 0x8B5 PUSH1 0x80 DUP8 ADD PUSH2 0x6EB JUMP JUMPDEST SWAP1 POP SWAP3 SWAP6 POP SWAP3 SWAP6 SWAP1 SWAP4 POP JUMP JUMPDEST PUSH1 0x0 DUP1 PUSH1 0x0 PUSH1 0x60 DUP5 DUP7 SUB SLT ISZERO PUSH2 0x8D6 JUMPI PUSH1 0x0 DUP1 REVERT JUMPDEST PUSH2 0x8DF DUP5 PUSH2 0x6EB JUMP JUMPDEST SWAP3 POP PUSH1 0x20 DUP5 ADD CALLDATALOAD PUSH8 0xFFFFFFFFFFFFFFFF DUP2 GT ISZERO PUSH2 0x8FB JUMPI PUSH1 0x0 DUP1 REVERT JUMPDEST PUSH2 0x907 DUP7 DUP3 DUP8 ADD PUSH2 0x71D JUMP JUMPDEST SWAP4 SWAP7 SWAP4 SWAP6 POP POP POP POP PUSH1 0x40 SWAP2 SWAP1 SWAP2 ADD CALLDATALOAD SWAP1 JUMP JUMPDEST PUSH1 0x0 DUP2 MLOAD DUP1 DUP5 MSTORE PUSH1 0x0 JUMPDEST DUP2 DUP2 LT ISZERO PUSH2 0x93F JUMPI PUSH1 0x20 DUP2 DUP6 ADD DUP2 ADD MLOAD DUP7 DUP4 ADD DUP3 ADD MSTORE ADD PUSH2 0x923 JUMP JUMPDEST POP PUSH1 0x0 PUSH1 0x20 DUP3 DUP7 ADD ADD MSTORE PUSH1 0x20 PUSH1 0x1F NOT PUSH1 0x1F DUP4 ADD AND DUP6 ADD ADD SWAP2 POP POP SWAP3 SWAP2 POP POP JUMP JUMPDEST PUSH1 0x1 PUSH1 0x1 PUSH1 0xA0 SHL SUB DUP12 DUP2 AND DUP3 MSTORE DUP11 DUP2 AND PUSH1 0x20 DUP4 ADD MSTORE DUP10 DUP2 AND PUSH1 0x40 DUP4 ADD MSTORE DUP9 AND PUSH1 0x60 DUP3 ADD MSTORE PUSH1 0x80 DUP2 ADD DUP8 SWAP1 MSTORE PUSH2 0x140 PUSH1 0xA0 DUP3 ADD DUP2 SWAP1 MSTORE PUSH1 0x0 SWAP1 PUSH2 0x9A3 SWAP1 DUP4 ADD DUP9 PUSH2 0x919 JUMP JUMPDEST PUSH1 0xC0 DUP4 ADD SWAP7 SWAP1 SWAP7 MSTORE POP PUSH2 0xFFFF SWAP4 SWAP1 SWAP4 AND PUSH1 0xE0 DUP5 ADD MSTORE PUSH2 0x100 DUP4 ADD SWAP2 SWAP1 SWAP2 MSTORE PUSH1 0x1 PUSH1 0x1 PUSH1 0xA0 SHL SUB AND PUSH2 0x120 SWAP1 SWAP2 ADD MSTORE SWAP7 SWAP6 POP POP POP POP POP POP JUMP JUMPDEST PUSH1 0x1 PUSH1 0x1 PUSH1 0xA0 SHL SUB DUP9 DUP2 AND DUP3 MSTORE DUP8 AND PUSH1 0x20 DUP3 ADD MSTORE PUSH1 0xE0 PUSH1 0x40 DUP3 ADD DUP2 SWAP1 MSTORE PUSH1 0x0 SWAP1 PUSH2 0xA07 SWAP1 DUP4 ADD DUP9 PUSH2 0x919 JUMP JUMPDEST PUSH1 0x60 DUP4 ADD SWAP7 SWAP1 SWAP7 MSTORE POP PUSH2 0xFFFF SWAP4 SWAP1 SWAP4 AND PUSH1 0x80 DUP5 ADD MSTORE PUSH1 0xA0 DUP4 ADD SWAP2 SWAP1 SWAP2 MSTORE PUSH1 0x1 PUSH1 0x1 PUSH1 0xA0 SHL SUB AND PUSH1 0xC0 SWAP1 SWAP2 ADD MSTORE SWAP4 SWAP3 POP POP POP JUMP JUMPDEST PUSH1 0x1 PUSH1 0x1 PUSH1 0xA0 SHL SUB DUP5 AND DUP2 MSTORE PUSH1 0x60 PUSH1 0x20 DUP3 ADD DUP2 SWAP1 MSTORE PUSH1 0x0 SWAP1 PUSH2 0xA5E SWAP1 DUP4 ADD DUP6 PUSH2 0x919 JUMP JUMPDEST SWAP1 POP DUP3 PUSH1 0x40 DUP4 ADD MSTORE SWAP5 SWAP4 POP POP POP POP JUMP INVALID PUSH1 0xA0 PUSH1 0x40 MSTORE CALLVALUE DUP1 ISZERO PUSH1 0xF JUMPI PUSH1 0x0 DUP1 REVERT JUMPDEST POP PUSH1 0x40 MLOAD PUSH2 0x752 CODESIZE SUB DUP1 PUSH2 0x752 DUP4 CODECOPY DUP2 ADD PUSH1 0x40 DUP2 SWAP1 MSTORE PUSH1 0x2C SWAP2 PUSH1 0x62 JUMP JUMPDEST PUSH1 0x1 PUSH1 0x1 PUSH1 0xA0 SHL SUB DUP2 AND PUSH1 0x52 JUMPI PUSH1 0x40 MLOAD PUSH4 0xD92E233D PUSH1 0xE0 SHL DUP2 MSTORE PUSH1 0x4 ADD PUSH1 0x40 MLOAD DUP1 SWAP2 SUB SWAP1 REVERT JUMPDEST PUSH1 0x1 PUSH1 0x1 PUSH1 0xA0 SHL SUB AND PUSH1 0x80 MSTORE PUSH1 0x90 JUMP JUMPDEST PUSH1 0x0 PUSH1 0x20 DUP3 DUP5 SUB SLT ISZERO PUSH1 0x73 JUMPI PUSH1 0x0 DUP1 REVERT JUMPDEST DUP2 MLOAD PUSH1 0x1 PUSH1 0x1 PUSH1 0xA0 SHL SUB DUP2 AND DUP2 EQ PUSH1 0x89 JUMPI PUSH1 0x0 DUP1 REVERT JUMPDEST SWAP4 SWAP3 POP POP POP JUMP JUMPDEST PUSH1 0x80 MLOAD PUSH2 0x692 PUSH2 0xC0 PUSH1 0x0 CODECOPY PUSH1 0x0 DUP2 DUP2 PUSH2 0x133 ADD MSTORE DUP2 DUP2 PUSH2 0x1D0 ADD MSTORE DUP2 DUP2 PUSH2 0x35C ADD MSTORE PUSH2 0x446 ADD MSTORE PUSH2 0x692 PUSH1 0x0 RETURN INVALID PUSH1 0x80 PUSH1 0x40 MSTORE CALLVALUE DUP1 ISZERO PUSH2 0x10 JUMPI PUSH1 0x0 DUP1 REVERT JUMPDEST POP PUSH1 0x4 CALLDATASIZE LT PUSH2 0x7D JUMPI PUSH1 0x0 CALLDATALOAD PUSH1 0xE0 SHR DUP1 PUSH4 0x4C109FD8 GT PUSH2 0x5B JUMPI DUP1 PUSH4 0x4C109FD8 EQ PUSH2 0xDD JUMPI DUP1 PUSH4 0x6DCEA85F EQ PUSH2 0xF0 JUMPI DUP1 PUSH4 0x80F55605 EQ PUSH2 0x103 JUMPI DUP1 PUSH4 0xD8DFEB45 EQ PUSH2 0x12E JUMPI PUSH1 0x0 DUP1 REVERT JUMPDEST DUP1 PUSH4 0x15CC36F2 EQ PUSH2 0x82 JUMPI DUP1 PUSH4 0x1AEFB107 EQ PUSH2 0x97 JUMPI DUP1 PUSH4 0x4A4089CC EQ PUSH2 0xCA JUMPI JUMPDEST PUSH1 0x0 DUP1 REVERT JUMPDEST PUSH2 0x95 PUSH2 0x90 CALLDATASIZE PUSH1 0x4 PUSH2 0x56F JUMP JUMPDEST PUSH2 0x155 JUMP JUMPDEST STOP JUMPDEST PUSH2 0xB7 PUSH2 0xA5 CALLDATASIZE PUSH1 0x4 PUSH2 0x599 JUMP JUMPDEST PUSH1 0x1 PUSH1 0x20 MSTORE PUSH1 0x0 SWAP1 DUP2 MSTORE PUSH1 0x40 SWAP1 KECCAK256 SLOAD DUP2 JUMP JUMPDEST PUSH1 0x40 MLOAD SWAP1 DUP2 MSTORE PUSH1 0x20 ADD JUMPDEST PUSH1 0x40 MLOAD DUP1 SWAP2 SUB SWAP1 RETURN JUMPDEST PUSH2 0x95 PUSH2 0xD8 CALLDATASIZE PUSH1 0x4 PUSH2 0x5BB JUMP JUMPDEST PUSH2 0x291 JUMP JUMPDEST PUSH2 0x95 PUSH2 0xEB CALLDATASIZE PUSH1 0x4 PUSH2 0x56F JUMP JUMPDEST PUSH2 0x3F2 JUMP JUMPDEST PUSH2 0x95 PUSH2 0xFE CALLDATASIZE PUSH1 0x4 PUSH2 0x599 JUMP JUMPDEST PUSH2 0x4DA JUMP JUMPDEST PUSH1 0x0 SLOAD PUSH2 0x116 SWAP1 PUSH1 0x1 PUSH1 0x1 PUSH1 0xA0 SHL SUB AND DUP2 JUMP JUMPDEST PUSH1 0x40 MLOAD PUSH1 0x1 PUSH1 0x1 PUSH1 0xA0 SHL SUB SWAP1 SWAP2 AND DUP2 MSTORE PUSH1 0x20 ADD PUSH2 0xC1 JUMP JUMPDEST PUSH2 0x116 PUSH32 0x0 DUP2 JUMP JUMPDEST PUSH1 0x0 SLOAD PUSH1 0x1 PUSH1 0x1 PUSH1 0xA0 SHL SUB AND CALLER EQ PUSH2 0x180 JUMPI PUSH1 0x40 MLOAD PUSH4 0x9E0125A9 PUSH1 0xE0 SHL DUP2 MSTORE PUSH1 0x4 ADD PUSH1 0x40 MLOAD DUP1 SWAP2 SUB SWAP1 REVERT JUMPDEST DUP1 PUSH1 0x0 SUB PUSH2 0x1A1 JUMPI PUSH1 0x40 MLOAD PUSH4 0x309CB87 PUSH1 0xE5 SHL DUP2 MSTORE PUSH1 0x4 ADD PUSH1 0x40 MLOAD DUP1 SWAP2 SUB SWAP1 REVERT JUMPDEST PUSH1 0x40 MLOAD PUSH4 0x23B872DD PUSH1 0xE0 SHL DUP2 MSTORE PUSH1 0x1 PUSH1 0x1 PUSH1 0xA0 SHL SUB DUP4 DUP2 AND PUSH1 0x4 DUP4 ADD MSTORE ADDRESS PUSH1 0x24 DUP4 ADD MSTORE PUSH1 0x44 DUP3 ADD DUP4 SWAP1 MSTORE PUSH1 0x0 SWAP2 PUSH32 0x0 SWAP1 SWAP2 AND SWAP1 PUSH4 0x23B872DD SWAP1 PUSH1 0x64 ADD PUSH1 0x20 PUSH1 0x40 MLOAD DUP1 DUP4 SUB DUP2 PUSH1 0x0 DUP8 GAS CALL ISZERO DUP1 ISZERO PUSH2 0x21B JUMPI RETURNDATASIZE PUSH1 0x0 DUP1 RETURNDATACOPY RETURNDATASIZE PUSH1 0x0 REVERT JUMPDEST POP POP POP POP PUSH1 0x40 MLOAD RETURNDATASIZE PUSH1 0x1F NOT PUSH1 0x1F DUP3 ADD AND DUP3 ADD DUP1 PUSH1 0x40 MSTORE POP DUP2 ADD SWAP1 PUSH2 0x23F SWAP2 SWAP1 PUSH2 0x5F8 JUMP JUMPDEST SWAP1 POP DUP1 PUSH2 0x25F JUMPI PUSH1 0x40 MLOAD PUSH4 0x12171D83 PUSH1 0xE3 SHL DUP2 MSTORE PUSH1 0x4 ADD PUSH1 0x40 MLOAD DUP1 SWAP2 SUB SWAP1 REVERT JUMPDEST PUSH1 0x1 PUSH1 0x1 PUSH1 0xA0 SHL SUB DUP4 AND PUSH1 0x0 SWAP1 DUP2 MSTORE PUSH1 0x1 PUSH1 0x20 MSTORE PUSH1 0x40 DUP2 KECCAK256 DUP1 SLOAD DUP5 SWAP3 SWAP1 PUSH2 0x287 SWAP1 DUP5 SWAP1 PUSH2 0x630 JUMP JUMPDEST SWAP1 SWAP2 SSTORE POP POP POP POP POP JUMP JUMPDEST PUSH1 0x0 SLOAD PUSH1 0x1 PUSH1 0x1 PUSH1 0xA0 SHL SUB AND CALLER EQ PUSH2 0x2BC JUMPI PUSH1 0x40 MLOAD PUSH4 0x9E0125A9 PUSH1 0xE0 SHL DUP2 MSTORE PUSH1 0x4 ADD PUSH1 0x40 MLOAD DUP1 SWAP2 SUB SWAP1 REVERT JUMPDEST DUP1 PUSH1 0x0 SUB PUSH2 0x2DD JUMPI PUSH1 0x40 MLOAD PUSH4 0x309CB87 PUSH1 0xE5 SHL DUP2 MSTORE PUSH1 0x4 ADD PUSH1 0x40 MLOAD DUP1 SWAP2 SUB SWAP1 REVERT JUMPDEST PUSH1 0x1 PUSH1 0x1 PUSH1 0xA0 SHL SUB DUP4 AND PUSH1 0x0 SWAP1 DUP2 MSTORE PUSH1 0x1 PUSH1 0x20 MSTORE PUSH1 0x40 SWAP1 KECCAK256 SLOAD DUP2 DUP2 LT ISZERO PUSH2 0x317 JUMPI PUSH1 0x40 MLOAD PUSH4 0x3A23D825 PUSH1 0xE0 SHL DUP2 MSTORE PUSH1 0x4 ADD PUSH1 0x40 MLOAD DUP1 SWAP2 SUB SWAP1 REVERT JUMPDEST PUSH2 0x321 DUP3 DUP3 PUSH2 0x649 JUMP JUMPDEST PUSH1 0x1 PUSH1 0x1 PUSH1 0xA0 SHL SUB DUP6 DUP2 AND PUSH1 0x0 SWAP1 DUP2 MSTORE PUSH1 0x1 PUSH1 0x20 MSTORE PUSH1 0x40 DUP1 DUP3 KECCAK256 SWAP4 SWAP1 SWAP4 SSTORE SWAP2 MLOAD PUSH4 0xA9059CBB PUSH1 0xE0 SHL DUP2 MSTORE DUP6 DUP3 AND PUSH1 0x4 DUP3 ADD MSTORE PUSH1 0x24 DUP2 ADD DUP6 SWAP1 MSTORE PUSH32 0x0 SWAP1 SWAP2 AND SWAP1 PUSH4 0xA9059CBB SWAP1 PUSH1 0x44 ADD PUSH1 0x20 PUSH1 0x40 MLOAD DUP1 DUP4 SUB DUP2 PUSH1 0x0 DUP8 GAS CALL ISZERO DUP1 ISZERO PUSH2 0x3A7 JUMPI RETURNDATASIZE PUSH1 0x0 DUP1 RETURNDATACOPY RETURNDATASIZE PUSH1 0x0 REVERT JUMPDEST POP POP POP POP PUSH1 0x40 MLOAD RETURNDATASIZE PUSH1 0x1F NOT PUSH1 0x1F DUP3 ADD AND DUP3 ADD DUP1 PUSH1 0x40 MSTORE POP DUP2 ADD SWAP1 PUSH2 0x3CB SWAP2 SWAP1 PUSH2 0x5F8 JUMP JUMPDEST SWAP1 POP DUP1 PUSH2 0x3EB JUMPI PUSH1 0x40 MLOAD PUSH4 0x12171D83 PUSH1 0xE3 SHL DUP2 MSTORE PUSH1 0x4 ADD PUSH1 0x40 MLOAD DUP1 SWAP2 SUB SWAP1 REVERT JUMPDEST POP POP POP POP POP JUMP JUMPDEST PUSH1 0x0 SLOAD PUSH1 0x1 PUSH1 0x1 PUSH1 0xA0 SHL SUB AND CALLER EQ PUSH2 0x41D JUMPI PUSH1 0x40 MLOAD PUSH4 0x9E0125A9 PUSH1 0xE0 SHL DUP2 MSTORE PUSH1 0x4 ADD PUSH1 0x40 MLOAD DUP1 SWAP2 SUB SWAP1 REVERT JUMPDEST PUSH1 0x40 MLOAD PUSH4 0xA9059CBB PUSH1 0xE0 SHL DUP2 MSTORE PUSH1 0x1 PUSH1 0x1 PUSH1 0xA0 SHL SUB DUP4 DUP2 AND PUSH1 0x4 DUP4 ADD MSTORE PUSH1 0x24 DUP3 ADD DUP4 SWAP1 MSTORE PUSH1 0x0 SWAP2 PUSH32 0x0 SWAP1 SWAP2 AND SWAP1 PUSH4 0xA9059CBB SWAP1 PUSH1 0x44 ADD PUSH1 0x20 PUSH1 0x40 MLOAD DUP1 DUP4 SUB DUP2 PUSH1 0x0 DUP8 GAS CALL ISZERO DUP1 ISZERO PUSH2 0x491 JUMPI RETURNDATASIZE PUSH1 0x0 DUP1 RETURNDATACOPY RETURNDATASIZE PUSH1 0x0 REVERT JUMPDEST POP POP POP POP PUSH1 0x40 MLOAD RETURNDATASIZE PUSH1 0x1F NOT PUSH1 0x1F DUP3 ADD AND DUP3 ADD DUP1 PUSH1 0x40 MSTORE POP DUP2 ADD SWAP1 PUSH2 0x4B5 SWAP2 SWAP1 PUSH2 0x5F8 JUMP JUMPDEST SWAP1 POP DUP1 PUSH2 0x4D5 JUMPI PUSH1 0x40 MLOAD PUSH4 0x12171D83 PUSH1 0xE3 SHL DUP2 MSTORE PUSH1 0x4 ADD PUSH1 0x40 MLOAD DUP1 SWAP2 SUB SWAP1 REVERT JUMPDEST POP POP POP JUMP JUMPDEST PUSH1 0x0 SLOAD PUSH1 0x1 PUSH1 0xA0 SHL SWAP1 DIV PUSH1 0xFF AND ISZERO PUSH2 0x505 JUMPI PUSH1 0x40 MLOAD PUSH4 0x309CB87 PUSH1 0xE5 SHL DUP2 MSTORE PUSH1 0x4 ADD PUSH1 0x40 MLOAD DUP1 SWAP2 SUB SWAP1 REVERT JUMPDEST PUSH1 0x1 PUSH1 0x1 PUSH1 0xA0 SHL SUB DUP2 AND PUSH2 0x52C JUMPI PUSH1 0x40 MLOAD PUSH4 0xD92E233D PUSH1 0xE0 SHL DUP2 MSTORE PUSH1 0x4 ADD PUSH1 0x40 MLOAD DUP1 SWAP2 SUB SWAP1 REVERT JUMPDEST PUSH1 0x0 DUP1 SLOAD PUSH1 0x1 PUSH1 0x1 PUSH1 0xA8 SHL SUB NOT AND PUSH1 0x1 PUSH1 0x1 PUSH1 0xA0 SHL SUB SWAP1 SWAP3 AND SWAP2 SWAP1 SWAP2 OR PUSH1 0x1 PUSH1 0xA0 SHL OR SWAP1 SSTORE JUMP JUMPDEST DUP1 CALLDATALOAD PUSH1 0x1 PUSH1 0x1 PUSH1 0xA0 SHL SUB DUP2 AND DUP2 EQ PUSH2 0x56A JUMPI PUSH1 0x0 DUP1 REVERT JUMPDEST SWAP2 SWAP1 POP JUMP JUMPDEST PUSH1 0x0 DUP1 PUSH1 0x40 DUP4 DUP6 SUB SLT ISZERO PUSH2 0x582 JUMPI PUSH1 0x0 DUP1 REVERT JUMPDEST PUSH2 0x58B DUP4 PUSH2 0x553 JUMP JUMPDEST SWAP5 PUSH1 0x20 SWAP4 SWAP1 SWAP4 ADD CALLDATALOAD SWAP4 POP POP POP JUMP JUMPDEST PUSH1 0x0 PUSH1 0x20 DUP3 DUP5 SUB SLT ISZERO PUSH2 0x5AB JUMPI PUSH1 0x0 DUP1 REVERT JUMPDEST PUSH2 0x5B4 DUP3 PUSH2 0x553 JUMP JUMPDEST SWAP4 SWAP3 POP POP POP JUMP JUMPDEST PUSH1 0x0 DUP1 PUSH1 0x0 PUSH1 0x60 DUP5 DUP7 SUB SLT ISZERO PUSH2 0x5D0 JUMPI PUSH1 0x0 DUP1 REVERT JUMPDEST PUSH2 0x5D9 DUP5 PUSH2 0x553 JUMP JUMPDEST SWAP3 POP PUSH2 0x5E7 PUSH1 0x20 DUP6 ADD PUSH2 0x553 JUMP JUMPDEST SWAP3 SWAP6 SWAP3 SWAP5 POP POP POP PUSH1 0x40 SWAP2 SWAP1 SWAP2 ADD CALLDATALOAD SWAP1 JUMP JUMPDEST PUSH1 0x0 PUSH1 0x20 DUP3 DUP5 SUB SLT ISZERO PUSH2 0x60A JUMPI PUSH1 0x0 DUP1 REVERT JUMPDEST DUP2 MLOAD DUP1 ISZERO ISZERO DUP2 EQ PUSH2 0x5B4 JUMPI PUSH1 0x0 DUP1 REVERT JUMPDEST PUSH4 0x4E487B71 PUSH1 0xE0 SHL PUSH1 0x0 MSTORE PUSH1 0x11 PUSH1 0x4 MSTORE PUSH1 0x24 PUSH1 0x0 REVERT JUMPDEST DUP1 DUP3 ADD DUP1 DUP3 GT ISZERO PUSH2 0x643 JUMPI PUSH2 0x643 PUSH2 0x61A JUMP JUMPDEST SWAP3 SWAP2 POP POP JUMP JUMPDEST DUP2 DUP2 SUB DUP2 DUP2 GT ISZERO PUSH2 0x643 JUMPI PUSH2 0x643 PUSH2 0x61A JUMP INVALID LOG2 PUSH5 0x6970667358 0x22 SLT KECCAK256 SWAP14 0x23 0x1E PUSH0 BALANCE RETURN 0xC0 PUSH8 0x6C7ECCC60B7BCCC9 PUSH25 0xD85B6F513205A646B38D86863855BA64736F6C634300081A00 CALLER PUSH2 0x120 PUSH1 0x40 MSTORE CALLVALUE DUP1 ISZERO PUSH2 0x11 JUMPI PUSH1 0x0 DUP1 REVERT JUMPDEST POP PUSH1 0x40 MLOAD PUSH2 0x197B CODESIZE SUB DUP1 PUSH2 0x197B DUP4 CODECOPY DUP2 ADD PUSH1 0x40 DUP2 SWAP1 MSTORE PUSH2 0x30 SWAP2 PUSH2 0x24F JUMP JUMPDEST PUSH1 0x1 PUSH1 0x0 DUP2 SWAP1 SSTORE DUP1 SLOAD PUSH1 0xFF NOT AND SWAP1 SSTORE PUSH1 0x1 PUSH1 0x1 PUSH1 0xA0 SHL SUB DUP11 AND ISZERO DUP1 PUSH2 0x5C JUMPI POP PUSH1 0x1 PUSH1 0x1 PUSH1 0xA0 SHL SUB DUP10 AND ISZERO JUMPDEST DUP1 PUSH2 0x6E JUMPI POP PUSH1 0x1 PUSH1 0x1 PUSH1 0xA0 SHL SUB DUP9 AND ISZERO JUMPDEST DUP1 PUSH2 0x80 JUMPI POP PUSH1 0x1 PUSH1 0x1 PUSH1 0xA0 SHL SUB DUP8 AND ISZERO JUMPDEST ISZERO PUSH2 0x9E JUMPI PUSH1 0x40 MLOAD PUSH4 0xD92E233D PUSH1 0xE0 SHL DUP2 MSTORE PUSH1 0x4 ADD PUSH1 0x40 MLOAD DUP1 SWAP2 SUB SWAP1 REVERT JUMPDEST DUP5 MLOAD PUSH1 0x0 SUB PUSH2 0xC0 JUMPI PUSH1 0x40 MLOAD PUSH4 0x309CB87 PUSH1 0xE5 SHL DUP2 MSTORE PUSH1 0x4 ADD PUSH1 0x40 MLOAD DUP1 SWAP2 SUB SWAP1 REVERT JUMPDEST TIMESTAMP DUP5 GT PUSH2 0xE0 JUMPI PUSH1 0x40 MLOAD PUSH4 0x37BF5613 PUSH1 0xE1 SHL DUP2 MSTORE PUSH1 0x4 ADD PUSH1 0x40 MLOAD DUP1 SWAP2 SUB SWAP1 REVERT JUMPDEST PUSH2 0x2710 DUP4 PUSH2 0xFFFF AND GT ISZERO PUSH2 0x107 JUMPI PUSH1 0x40 MLOAD PUSH4 0x58D620B3 PUSH1 0xE0 SHL DUP2 MSTORE PUSH1 0x4 ADD PUSH1 0x40 MLOAD DUP1 SWAP2 SUB SWAP1 REVERT JUMPDEST PUSH1 0x1 PUSH1 0x1 PUSH1 0xA0 SHL SUB DUP2 AND PUSH2 0x12E JUMPI PUSH1 0x40 MLOAD PUSH4 0xD92E233D PUSH1 0xE0 SHL DUP2 MSTORE PUSH1 0x4 ADD PUSH1 0x40 MLOAD DUP1 SWAP2 SUB SWAP1 REVERT JUMPDEST PUSH1 0x1 PUSH1 0x1 PUSH1 0xA0 SHL SUB DUP1 DUP12 AND PUSH1 0x80 MSTORE DUP10 DUP2 AND PUSH1 0xA0 MSTORE DUP9 DUP2 AND PUSH1 0xC0 MSTORE DUP8 AND PUSH1 0xE0 MSTORE PUSH2 0x100 DUP7 SWAP1 MSTORE PUSH1 0x2 PUSH2 0x15F DUP7 DUP3 PUSH2 0x417 JUMP JUMPDEST POP PUSH1 0x3 DUP5 SWAP1 SSTORE PUSH1 0x4 DUP1 SLOAD PUSH2 0xFFFF DUP6 AND PUSH2 0xFFFF NOT SWAP1 SWAP2 AND OR SWAP1 SSTORE PUSH1 0x5 DUP3 SWAP1 SSTORE PUSH1 0x6 DUP1 SLOAD PUSH1 0x1 PUSH1 0x1 PUSH1 0xA8 SHL SUB NOT AND PUSH1 0x1 PUSH1 0x1 PUSH1 0xA0 SHL SUB DUP4 AND OR SWAP1 SSTORE PUSH2 0x100 MLOAD PUSH1 0x40 MLOAD PUSH32 0x6F32195B7D0D8B110ADFB4D94D26620EC7319053A80302562D6DBBD62805BA9F SWAP1 PUSH2 0x1D0 SWAP1 DUP9 SWAP1 DUP9 SWAP1 DUP15 SWAP1 PUSH2 0x4D5 JUMP JUMPDEST PUSH1 0x40 MLOAD DUP1 SWAP2 SUB SWAP1 LOG2 POP POP POP POP POP POP POP POP POP POP PUSH2 0x520 JUMP JUMPDEST DUP1 MLOAD PUSH1 0x1 PUSH1 0x1 PUSH1 0xA0 SHL SUB DUP2 AND DUP2 EQ PUSH2 0x1FE JUMPI PUSH1 0x0 DUP1 REVERT JUMPDEST SWAP2 SWAP1 POP JUMP JUMPDEST PUSH4 0x4E487B71 PUSH1 0xE0 SHL PUSH1 0x0 MSTORE PUSH1 0x41 PUSH1 0x4 MSTORE PUSH1 0x24 PUSH1 0x0 REVERT JUMPDEST PUSH1 0x0 JUMPDEST DUP4 DUP2 LT ISZERO PUSH2 0x234 JUMPI DUP2 DUP2 ADD MLOAD DUP4 DUP3 ADD MSTORE PUSH1 0x20 ADD PUSH2 0x21C JUMP JUMPDEST POP POP PUSH1 0x0 SWAP2 ADD MSTORE JUMP JUMPDEST DUP1 MLOAD PUSH2 0xFFFF DUP2 AND DUP2 EQ PUSH2 0x1FE JUMPI PUSH1 0x0 DUP1 REVERT JUMPDEST PUSH1 0x0 DUP1 PUSH1 0x0 DUP1 PUSH1 0x0 DUP1 PUSH1 0x0 DUP1 PUSH1 0x0 DUP1 PUSH2 0x140 DUP12 DUP14 SUB SLT ISZERO PUSH2 0x26F JUMPI PUSH1 0x0 DUP1 REVERT JUMPDEST PUSH2 0x278 DUP12 PUSH2 0x1E7 JUMP JUMPDEST SWAP10 POP PUSH2 0x286 PUSH1 0x20 DUP13 ADD PUSH2 0x1E7 JUMP JUMPDEST SWAP9 POP PUSH2 0x294 PUSH1 0x40 DUP13 ADD PUSH2 0x1E7 JUMP JUMPDEST SWAP8 POP PUSH2 0x2A2 PUSH1 0x60 DUP13 ADD PUSH2 0x1E7 JUMP JUMPDEST PUSH1 0x80 DUP13 ADD MLOAD PUSH1 0xA0 DUP14 ADD MLOAD SWAP2 SWAP9 POP SWAP7 POP PUSH1 0x1 PUSH1 0x1 PUSH1 0x40 SHL SUB DUP2 GT ISZERO PUSH2 0x2C5 JUMPI PUSH1 0x0 DUP1 REVERT JUMPDEST DUP12 ADD PUSH1 0x0 PUSH1 0x1F DUP3 ADD DUP15 SGT PUSH2 0x2D8 JUMPI PUSH1 0x0 DUP1 REVERT JUMPDEST DUP2 MLOAD PUSH1 0x1 PUSH1 0x1 PUSH1 0x40 SHL SUB DUP2 GT ISZERO PUSH2 0x2F1 JUMPI PUSH2 0x2F1 PUSH2 0x203 JUMP JUMPDEST PUSH1 0x40 MLOAD PUSH1 0x1F DUP3 ADD PUSH1 0x1F NOT SWAP1 DUP2 AND PUSH1 0x3F ADD AND DUP2 ADD PUSH1 0x1 PUSH1 0x1 PUSH1 0x40 SHL SUB DUP2 GT DUP3 DUP3 LT OR ISZERO PUSH2 0x31F JUMPI PUSH2 0x31F PUSH2 0x203 JUMP JUMPDEST DUP1 PUSH1 0x40 MSTORE POP DUP2 DUP2 MSTORE DUP16 PUSH1 0x20 DUP4 DUP7 ADD ADD GT ISZERO PUSH2 0x339 JUMPI PUSH1 0x0 DUP1 REVERT JUMPDEST PUSH2 0x34A DUP3 PUSH1 0x20 DUP4 ADD PUSH1 0x20 DUP8 ADD PUSH2 0x219 JUMP JUMPDEST PUSH1 0xC0 DUP16 ADD MLOAD SWAP1 SWAP9 POP SWAP7 POP PUSH2 0x365 SWAP3 POP POP PUSH1 0xE0 DUP14 ADD SWAP1 POP PUSH2 0x23D JUMP JUMPDEST PUSH2 0x100 DUP13 ADD MLOAD SWAP1 SWAP4 POP SWAP2 POP PUSH2 0x37D PUSH2 0x120 DUP13 ADD PUSH2 0x1E7 JUMP JUMPDEST SWAP1 POP SWAP3 SWAP6 SWAP9 SWAP12 SWAP2 SWAP5 SWAP8 SWAP11 POP SWAP3 SWAP6 SWAP9 POP JUMP JUMPDEST PUSH1 0x1 DUP2 DUP2 SHR SWAP1 DUP3 AND DUP1 PUSH2 0x3A2 JUMPI PUSH1 0x7F DUP3 AND SWAP2 POP JUMPDEST PUSH1 0x20 DUP3 LT DUP2 SUB PUSH2 0x3C2 JUMPI PUSH4 0x4E487B71 PUSH1 0xE0 SHL PUSH1 0x0 MSTORE PUSH1 0x22 PUSH1 0x4 MSTORE PUSH1 0x24 PUSH1 0x0 REVERT JUMPDEST POP SWAP2 SWAP1 POP JUMP JUMPDEST PUSH1 0x1F DUP3 GT ISZERO PUSH2 0x412 JUMPI DUP1 PUSH1 0x0 MSTORE PUSH1 0x20 PUSH1 0x0 KECCAK256 PUSH1 0x1F DUP5 ADD PUSH1 0x5 SHR DUP2 ADD PUSH1 0x20 DUP6 LT ISZERO PUSH2 0x3EF JUMPI POP DUP1 JUMPDEST PUSH1 0x1F DUP5 ADD PUSH1 0x5 SHR DUP3 ADD SWAP2 POP JUMPDEST DUP2 DUP2 LT ISZERO PUSH2 0x40F JUMPI PUSH1 0x0 DUP2 SSTORE PUSH1 0x1 ADD PUSH2 0x3FB JUMP JUMPDEST POP POP JUMPDEST POP POP POP JUMP JUMPDEST DUP2 MLOAD PUSH1 0x1 PUSH1 0x1 PUSH1 0x40 SHL SUB DUP2 GT ISZERO PUSH2 0x430 JUMPI PUSH2 0x430 PUSH2 0x203 JUMP JUMPDEST PUSH2 0x444 DUP2 PUSH2 0x43E DUP5 SLOAD PUSH2 0x38E JUMP JUMPDEST DUP5 PUSH2 0x3C8 JUMP JUMPDEST PUSH1 0x20 PUSH1 0x1F DUP3 GT PUSH1 0x1 DUP2 EQ PUSH2 0x478 JUMPI PUSH1 0x0 DUP4 ISZERO PUSH2 0x460 JUMPI POP DUP5 DUP3 ADD MLOAD JUMPDEST PUSH1 0x0 NOT PUSH1 0x3 DUP6 SWAP1 SHL SHR NOT AND PUSH1 0x1 DUP5 SWAP1 SHL OR DUP5 SSTORE PUSH2 0x40F JUMP JUMPDEST PUSH1 0x0 DUP5 DUP2 MSTORE PUSH1 0x20 DUP2 KECCAK256 PUSH1 0x1F NOT DUP6 AND SWAP2 JUMPDEST DUP3 DUP2 LT ISZERO PUSH2 0x4A8 JUMPI DUP8 DUP6 ADD MLOAD DUP3 SSTORE PUSH1 0x20 SWAP5 DUP6 ADD SWAP5 PUSH1 0x1 SWAP1 SWAP3 ADD SWAP2 ADD PUSH2 0x488 JUMP JUMPDEST POP DUP5 DUP3 LT ISZERO PUSH2 0x4C6 JUMPI DUP7 DUP5 ADD MLOAD PUSH1 0x0 NOT PUSH1 0x3 DUP8 SWAP1 SHL PUSH1 0xF8 AND SHR NOT AND DUP2 SSTORE JUMPDEST POP POP POP POP PUSH1 0x1 SWAP1 DUP2 SHL ADD SWAP1 SSTORE POP JUMP JUMPDEST PUSH1 0x60 DUP2 MSTORE PUSH1 0x0 DUP5 MLOAD DUP1 PUSH1 0x60 DUP5 ADD MSTORE PUSH2 0x4F4 DUP2 PUSH1 0x80 DUP6 ADD PUSH1 0x20 DUP10 ADD PUSH2 0x219 JUMP JUMPDEST PUSH1 0x20 DUP4 ADD SWAP5 SWAP1 SWAP5 MSTORE POP PUSH1 0x1 PUSH1 0x1 PUSH1 0xA0 SHL SUB SWAP2 SWAP1 SWAP2 AND PUSH1 0x40 DUP3 ADD MSTORE PUSH1 0x80 PUSH1 0x1F SWAP1 SWAP3 ADD PUSH1 0x1F NOT AND ADD ADD SWAP2 SWAP1 POP JUMP JUMPDEST PUSH1 0x80 MLOAD PUSH1 0xA0 MLOAD PUSH1 0xC0 MLOAD PUSH1 0xE0 MLOAD PUSH2 0x100 MLOAD PUSH2 0x13BC PUSH2 0x5BF PUSH1 0x0 CODECOPY PUSH1 0x0 DUP2 DUP2 PUSH2 0x286 ADD MSTORE DUP2 DUP2 PUSH2 0x506 ADD MSTORE DUP2 DUP2 PUSH2 0x5D0 ADD MSTORE DUP2 DUP2 PUSH2 0x687 ADD MSTORE PUSH2 0x7B7 ADD MSTORE PUSH1 0x0 DUP2 DUP2 PUSH2 0x38F ADD MSTORE DUP2 DUP2 PUSH2 0x8ED ADD MSTORE DUP2 DUP2 PUSH2 0xA57 ADD MSTORE DUP2 DUP2 PUSH2 0xAD3 ADD MSTORE DUP2 DUP2 PUSH2 0xDDF ADD MSTORE PUSH2 0xE60 ADD MSTORE PUSH1 0x0 DUP2 DUP2 PUSH2 0x2FF ADD MSTORE DUP2 DUP2 PUSH2 0x44A ADD MSTORE PUSH2 0xBFF ADD MSTORE PUSH1 0x0 DUP2 DUP2 PUSH2 0x2AD ADD MSTORE DUP2 DUP2 PUSH2 0x5A3 ADD MSTORE PUSH2 0x6BC ADD MSTORE PUSH1 0x0 PUSH2 0x326 ADD MSTORE PUSH2 0x13BC PUSH1 0x0 RETURN INVALID PUSH1 0x80 PUSH1 0x40 MSTORE CALLVALUE DUP1 ISZERO PUSH2 0x10 JUMPI PUSH1 0x0 DUP1 REVERT JUMPDEST POP PUSH1 0x4 CALLDATASIZE LT PUSH2 0x14D JUMPI PUSH1 0x0 CALLDATALOAD PUSH1 0xE0 SHR DUP1 PUSH4 0x7DC0D1D0 GT PUSH2 0xC3 JUMPI DUP1 PUSH4 0xD8DFEB45 GT PUSH2 0x7C JUMPI DUP1 PUSH4 0xD8DFEB45 EQ PUSH2 0x321 JUMPI DUP1 PUSH4 0xD9EB5947 EQ PUSH2 0x348 JUMPI DUP1 PUSH4 0xE24C469B EQ PUSH2 0x351 JUMPI DUP1 PUSH4 0xF160D369 EQ PUSH2 0x364 JUMPI DUP1 PUSH4 0xF571C5F3 EQ PUSH2 0x377 JUMPI DUP1 PUSH4 0xFBFA77CF EQ PUSH2 0x38A JUMPI PUSH1 0x0 DUP1 REVERT JUMPDEST DUP1 PUSH4 0x7DC0D1D0 EQ PUSH2 0x2A8 JUMPI DUP1 PUSH4 0x97A98955 EQ PUSH2 0x2CF JUMPI DUP1 PUSH4 0x97BFFF77 EQ PUSH2 0x2D7 JUMPI DUP1 PUSH4 0xBD3FB12F EQ PUSH2 0x2EA JUMPI DUP1 PUSH4 0xBE040FB0 EQ PUSH2 0x2F2 JUMPI DUP1 PUSH4 0xC45A0155 EQ PUSH2 0x2FA JUMPI PUSH1 0x0 DUP1 REVERT JUMPDEST DUP1 PUSH4 0x3FAD9AE0 GT PUSH2 0x115 JUMPI DUP1 PUSH4 0x3FAD9AE0 EQ PUSH2 0x1F6 JUMPI DUP1 PUSH4 0x46904840 EQ PUSH2 0x20B JUMPI DUP1 PUSH4 0x4805A34A EQ PUSH2 0x236 JUMPI DUP1 PUSH4 0x48DBA54E EQ PUSH2 0x24B JUMPI DUP1 PUSH4 0x5C975ABB EQ PUSH2 0x26B JUMPI DUP1 PUSH4 0x6ED71EDE EQ PUSH2 0x281 JUMPI PUSH1 0x0 DUP1 REVERT JUMPDEST DUP1 PUSH4 0xBEDD409 EQ PUSH2 0x152 JUMPI DUP1 PUSH4 0x200D2ED2 EQ PUSH2 0x185 JUMPI DUP1 PUSH4 0x24A9D853 EQ PUSH2 0x1A6 JUMPI DUP1 PUSH4 0x27793F87 EQ PUSH2 0x1C7 JUMPI DUP1 PUSH4 0x3197CBB6 EQ PUSH2 0x1ED JUMPI JUMPDEST PUSH1 0x0 DUP1 REVERT JUMPDEST PUSH2 0x172 PUSH2 0x160 CALLDATASIZE PUSH1 0x4 PUSH2 0xFA4 JUMP JUMPDEST PUSH1 0x8 PUSH1 0x20 MSTORE PUSH1 0x0 SWAP1 DUP2 MSTORE PUSH1 0x40 SWAP1 KECCAK256 SLOAD DUP2 JUMP JUMPDEST PUSH1 0x40 MLOAD SWAP1 DUP2 MSTORE PUSH1 0x20 ADD JUMPDEST PUSH1 0x40 MLOAD DUP1 SWAP2 SUB SWAP1 RETURN JUMPDEST PUSH1 0x6 SLOAD PUSH2 0x199 SWAP1 PUSH1 0x1 PUSH1 0xA0 SHL SWAP1 DIV PUSH1 0xFF AND DUP2 JUMP JUMPDEST PUSH1 0x40 MLOAD PUSH2 0x17C SWAP2 SWAP1 PUSH2 0xFE3 JUMP JUMPDEST PUSH1 0x4 SLOAD PUSH2 0x1B4 SWAP1 PUSH2 0xFFFF AND DUP2 JUMP JUMPDEST PUSH1 0x40 MLOAD PUSH2 0xFFFF SWAP1 SWAP2 AND DUP2 MSTORE PUSH1 0x20 ADD PUSH2 0x17C JUMP JUMPDEST PUSH1 0x6 SLOAD PUSH2 0x1DB SWAP1 PUSH1 0x1 PUSH1 0xA8 SHL SWAP1 DIV PUSH1 0xFF AND DUP2 JUMP JUMPDEST PUSH1 0x40 MLOAD PUSH1 0xFF SWAP1 SWAP2 AND DUP2 MSTORE PUSH1 0x20 ADD PUSH2 0x17C JUMP JUMPDEST PUSH2 0x172 PUSH1 0x3 SLOAD DUP2 JUMP JUMPDEST PUSH2 0x1FE PUSH2 0x3B1 JUMP JUMPDEST PUSH1 0x40 MLOAD PUSH2 0x17C SWAP2 SWAP1 PUSH2 0x105B JUMP JUMPDEST PUSH1 0x6 SLOAD PUSH2 0x21E SWAP1 PUSH1 0x1 PUSH1 0x1 PUSH1 0xA0 SHL SUB AND DUP2 JUMP JUMPDEST PUSH1 0x40 MLOAD PUSH1 0x1 PUSH1 0x1 PUSH1 0xA0 SHL SUB SWAP1 SWAP2 AND DUP2 MSTORE PUSH1 0x20 ADD PUSH2 0x17C JUMP JUMPDEST PUSH2 0x249 PUSH2 0x244 CALLDATASIZE PUSH1 0x4 PUSH2 0x106E JUMP JUMPDEST PUSH2 0x43F JUMP JUMPDEST STOP JUMPDEST PUSH2 0x172 PUSH2 0x259 CALLDATASIZE PUSH1 0x4 PUSH2 0xFA4 JUMP JUMPDEST PUSH1 0x7 PUSH1 0x20 MSTORE PUSH1 0x0 SWAP1 DUP2 MSTORE PUSH1 0x40 SWAP1 KECCAK256 SLOAD DUP2 JUMP JUMPDEST PUSH1 0x1 SLOAD PUSH1 0xFF AND PUSH1 0x40 MLOAD SWAP1 ISZERO ISZERO DUP2 MSTORE PUSH1 0x20 ADD PUSH2 0x17C JUMP JUMPDEST PUSH2 0x172 PUSH32 0x0 DUP2 JUMP JUMPDEST PUSH2 0x21E PUSH32 0x0 DUP2 JUMP JUMPDEST PUSH2 0x249 PUSH2 0x48D JUMP JUMPDEST PUSH2 0x249 PUSH2 0x2E5 CALLDATASIZE PUSH1 0x4 PUSH2 0x1087 JUMP JUMPDEST PUSH2 0x54E JUMP JUMPDEST PUSH2 0x249 PUSH2 0x632 JUMP JUMPDEST PUSH2 0x249 PUSH2 0x820 JUMP JUMPDEST PUSH2 0x21E PUSH32 0x0 DUP2 JUMP JUMPDEST PUSH2 0x21E PUSH32 0x0 DUP2 JUMP JUMPDEST PUSH2 0x172 PUSH1 0x5 SLOAD DUP2 JUMP JUMPDEST PUSH2 0x249 PUSH2 0x35F CALLDATASIZE PUSH1 0x4 PUSH2 0x110C JUMP JUMPDEST PUSH2 0x99F JUMP JUMPDEST PUSH2 0x249 PUSH2 0x372 CALLDATASIZE PUSH1 0x4 PUSH2 0xFA4 JUMP JUMPDEST PUSH2 0xBF4 JUMP JUMPDEST PUSH2 0x249 PUSH2 0x385 CALLDATASIZE PUSH1 0x4 PUSH2 0x110C JUMP JUMPDEST PUSH2 0xC86 JUMP JUMPDEST PUSH2 0x21E PUSH32 0x0 DUP2 JUMP JUMPDEST PUSH1 0x2 DUP1 SLOAD PUSH2 0x3BE SWAP1 PUSH2 0x1138 JUMP JUMPDEST DUP1 PUSH1 0x1F ADD PUSH1 0x20 DUP1 SWAP2 DIV MUL PUSH1 0x20 ADD PUSH1 0x40 MLOAD SWAP1 DUP2 ADD PUSH1 0x40 MSTORE DUP1 SWAP3 SWAP2 SWAP1 DUP2 DUP2 MSTORE PUSH1 0x20 ADD DUP3 DUP1 SLOAD PUSH2 0x3EA SWAP1 PUSH2 0x1138 JUMP JUMPDEST DUP1 ISZERO PUSH2 0x437 JUMPI DUP1 PUSH1 0x1F LT PUSH2 0x40C JUMPI PUSH2 0x100 DUP1 DUP4 SLOAD DIV MUL DUP4 MSTORE SWAP2 PUSH1 0x20 ADD SWAP2 PUSH2 0x437 JUMP JUMPDEST DUP3 ADD SWAP2 SWAP1 PUSH1 0x0 MSTORE PUSH1 0x20 PUSH1 0x0 KECCAK256 SWAP1 JUMPDEST DUP2 SLOAD DUP2 MSTORE SWAP1 PUSH1 0x1 ADD SWAP1 PUSH1 0x20 ADD DUP1 DUP4 GT PUSH2 0x41A JUMPI DUP3 SWAP1 SUB PUSH1 0x1F AND DUP3 ADD SWAP2 JUMPDEST POP POP POP POP POP DUP2 JUMP JUMPDEST CALLER PUSH1 0x1 PUSH1 0x1 PUSH1 0xA0 SHL SUB PUSH32 0x0 AND EQ PUSH2 0x488 JUMPI PUSH1 0x40 MLOAD PUSH4 0x636A157 PUSH1 0xE1 SHL DUP2 MSTORE PUSH1 0x4 ADD PUSH1 0x40 MLOAD DUP1 SWAP2 SUB SWAP1 REVERT JUMPDEST PUSH1 0x5 SSTORE JUMP JUMPDEST PUSH1 0x3 SLOAD TIMESTAMP LT ISZERO PUSH2 0x4B0 JUMPI PUSH1 0x40 MLOAD PUSH4 0x8FD3D05 PUSH1 0xE0 SHL DUP2 MSTORE PUSH1 0x4 ADD PUSH1 0x40 MLOAD DUP1 SWAP2 SUB SWAP1 REVERT JUMPDEST PUSH1 0x0 PUSH1 0x6 SLOAD PUSH1 0x1 PUSH1 0xA0 SHL SWAP1 DIV PUSH1 0xFF AND PUSH1 0x2 DUP2 GT ISZERO PUSH2 0x4D0 JUMPI PUSH2 0x4D0 PUSH2 0xFCD JUMP JUMPDEST EQ PUSH2 0x4EE JUMPI PUSH1 0x40 MLOAD PUSH4 0x309CB87 PUSH1 0xE5 SHL DUP2 MSTORE PUSH1 0x4 ADD PUSH1 0x40 MLOAD DUP1 SWAP2 SUB SWAP1 REVERT JUMPDEST PUSH1 0x6 DUP1 SLOAD PUSH1 0xFF PUSH1 0xA0 SHL NOT AND PUSH1 0x1 PUSH1 0xA0 SHL OR SWAP1 SSTORE PUSH1 0x40 MLOAD PUSH32 0x0 SWAP1 PUSH32 0xF0B26890989C7ABE4FCBC3B91D347980CC1B29A59B4D5C2F7BFB99327BEF8485 SWAP1 PUSH1 0x0 SWAP1 LOG2 JUMP JUMPDEST PUSH1 0x1 PUSH1 0x6 SLOAD PUSH1 0x1 PUSH1 0xA0 SHL SWAP1 DIV PUSH1 0xFF AND PUSH1 0x2 DUP2 GT ISZERO PUSH2 0x56E JUMPI PUSH2 0x56E PUSH2 0xFCD JUMP JUMPDEST EQ PUSH2 0x58C JUMPI PUSH1 0x40 MLOAD PUSH4 0x309CB87 PUSH1 0xE5 SHL DUP2 MSTORE PUSH1 0x4 ADD PUSH1 0x40 MLOAD DUP1 SWAP2 SUB SWAP1 REVERT JUMPDEST PUSH1 0x40 MLOAD PUSH4 0xB8FEC5B5 PUSH1 0xE0 SHL DUP2 MSTORE PUSH1 0x1 PUSH1 0x1 PUSH1 0xA0 SHL SUB PUSH32 0x0 AND SWAP1 PUSH4 0xB8FEC5B5 SWAP1 PUSH2 0x5FC SWAP1 PUSH32 0x0 SWAP1 DUP7 SWAP1 DUP7 SWAP1 PUSH1 0x4 ADD PUSH2 0x1172 JUMP JUMPDEST PUSH1 0x0 PUSH1 0x40 MLOAD DUP1 DUP4 SUB DUP2 PUSH1 0x0 DUP8 DUP1 EXTCODESIZE ISZERO DUP1 ISZERO PUSH2 0x616 JUMPI PUSH1 0x0 DUP1 REVERT JUMPDEST POP GAS CALL ISZERO DUP1 ISZERO PUSH2 0x62A JUMPI RETURNDATASIZE PUSH1 0x0 DUP1 RETURNDATACOPY RETURNDATASIZE PUSH1 0x0 REVERT JUMPDEST POP POP POP POP POP POP JUMP JUMPDEST PUSH2 0x63A PUSH2 0xF16 JUMP JUMPDEST PUSH1 0x1 PUSH1 0x6 SLOAD PUSH1 0x1 PUSH1 0xA0 SHL SWAP1 DIV PUSH1 0xFF AND PUSH1 0x2 DUP2 GT ISZERO PUSH2 0x65A JUMPI PUSH2 0x65A PUSH2 0xFCD JUMP JUMPDEST EQ PUSH2 0x678 JUMPI PUSH1 0x40 MLOAD PUSH4 0x309CB87 PUSH1 0xE5 SHL DUP2 MSTORE PUSH1 0x4 ADD PUSH1 0x40 MLOAD DUP1 SWAP2 SUB SWAP1 REVERT JUMPDEST PUSH1 0x40 MLOAD PUSH4 0x2B7531E1 PUSH1 0xE2 SHL DUP2 MSTORE PUSH32 0x0 PUSH1 0x4 DUP3 ADD MSTORE PUSH1 0x0 SWAP1 DUP2 SWAP1 DUP2 SWAP1 PUSH1 0x1 PUSH1 0x1 PUSH1 0xA0 SHL SUB PUSH32 0x0 AND SWAP1 PUSH4 0xADD4C784 SWAP1 PUSH1 0x24 ADD PUSH1 0x0 PUSH1 0x40 MLOAD DUP1 DUP4 SUB DUP2 DUP7 GAS STATICCALL ISZERO DUP1 ISZERO PUSH2 0x703 JUMPI RETURNDATASIZE PUSH1 0x0 DUP1 RETURNDATACOPY RETURNDATASIZE PUSH1 0x0 REVERT JUMPDEST POP POP POP POP PUSH1 0x40 MLOAD RETURNDATASIZE PUSH1 0x0 DUP3 RETURNDATACOPY PUSH1 0x1F RETURNDATASIZE SWAP1 DUP2 ADD PUSH1 0x1F NOT AND DUP3 ADD PUSH1 0x40 MSTORE PUSH2 0x72B SWAP2 SWAP1 DUP2 ADD SWAP1 PUSH2 0x1249 JUMP JUMPDEST SWAP3 POP SWAP3 POP SWAP3 POP DUP3 PUSH2 0x74F JUMPI PUSH1 0x40 MLOAD PUSH4 0x174B6393 PUSH1 0xE1 SHL DUP2 MSTORE PUSH1 0x4 ADD PUSH1 0x40 MLOAD DUP1 SWAP2 SUB SWAP1 REVERT JUMPDEST PUSH1 0x0 DUP3 DUP1 PUSH1 0x20 ADD SWAP1 MLOAD DUP2 ADD SWAP1 PUSH2 0x765 SWAP2 SWAP1 PUSH2 0x12C5 JUMP JUMPDEST SWAP1 POP PUSH1 0x1 DUP2 PUSH1 0xFF AND GT ISZERO PUSH2 0x78C JUMPI PUSH1 0x40 MLOAD PUSH4 0x309CB87 PUSH1 0xE5 SHL DUP2 MSTORE PUSH1 0x4 ADD PUSH1 0x40 MLOAD DUP1 SWAP2 SUB SWAP1 REVERT JUMPDEST PUSH1 0x6 DUP1 SLOAD PUSH2 0xFFFF PUSH1 0xA0 SHL NOT AND PUSH1 0x1 PUSH1 0xA8 SHL PUSH1 0xFF DUP5 AND MUL PUSH1 0xFF PUSH1 0xA0 SHL NOT AND OR PUSH1 0x1 PUSH1 0xA1 SHL OR SWAP1 SSTORE PUSH1 0x40 MLOAD PUSH32 0x0 SWAP1 PUSH32 0x2B17C9E611787445A3BCC13EE7CB1E211C6CD8B508850278CD1FA701D613302C SWAP1 PUSH2 0x808 SWAP1 DUP5 SWAP1 DUP8 SWAP1 DUP8 SWAP1 PUSH2 0x12E8 JUMP JUMPDEST PUSH1 0x40 MLOAD DUP1 SWAP2 SUB SWAP1 LOG2 POP POP POP POP PUSH2 0x81E PUSH1 0x1 PUSH1 0x0 SSTORE JUMP JUMPDEST JUMP JUMPDEST PUSH2 0x828 PUSH2 0xF16 JUMP JUMPDEST PUSH1 0x2 PUSH1 0x6 SLOAD PUSH1 0x1 PUSH1 0xA0 SHL SWAP1 DIV PUSH1 0xFF AND PUSH1 0x2 DUP2 GT ISZERO PUSH2 0x848 JUMPI PUSH2 0x848 PUSH2 0xFCD JUMP JUMPDEST EQ PUSH2 0x866 JUMPI PUSH1 0x40 MLOAD PUSH4 0x174B6393 PUSH1 0xE1 SHL DUP2 MSTORE PUSH1 0x4 ADD PUSH1 0x40 MLOAD DUP1 SWAP2 SUB SWAP1 REVERT JUMPDEST PUSH1 0x6 SLOAD CALLER PUSH1 0x0 SWAP1 DUP2 MSTORE PUSH1 0x7 PUSH1 0x20 SWAP1 DUP2 MSTORE PUSH1 0x40 DUP1 DUP4 KECCAK256 SLOAD PUSH1 0x8 SWAP1 SWAP3 MSTORE DUP3 KECCAK256 SLOAD SWAP2 SWAP3 PUSH2 0x89C SWAP3 PUSH1 0x1 PUSH1 0xA8 SHL SWAP1 SWAP2 DIV PUSH1 0xFF AND SWAP2 SWAP1 PUSH2 0xF73 JUMP JUMPDEST SWAP1 POP DUP1 PUSH1 0x0 SUB PUSH2 0x8BF JUMPI PUSH1 0x40 MLOAD PUSH4 0x309CB87 PUSH1 0xE5 SHL DUP2 MSTORE PUSH1 0x4 ADD PUSH1 0x40 MLOAD DUP1 SWAP2 SUB SWAP1 REVERT JUMPDEST CALLER PUSH1 0x0 DUP2 DUP2 MSTORE PUSH1 0x7 PUSH1 0x20 SWAP1 DUP2 MSTORE PUSH1 0x40 DUP1 DUP4 KECCAK256 DUP4 SWAP1 SSTORE PUSH1 0x8 SWAP1 SWAP2 MSTORE DUP1 DUP3 KECCAK256 SWAP2 SWAP1 SWAP2 SSTORE MLOAD PUSH4 0x12902273 PUSH1 0xE2 SHL DUP2 MSTORE PUSH32 0x0 PUSH1 0x1 PUSH1 0x1 PUSH1 0xA0 SHL SUB AND SWAP2 PUSH4 0x4A4089CC SWAP2 PUSH2 0x92D SWAP2 SWAP1 DUP2 SWAP1 DUP7 SWAP1 PUSH1 0x4 ADD PUSH2 0x1320 JUMP JUMPDEST PUSH1 0x0 PUSH1 0x40 MLOAD DUP1 DUP4 SUB DUP2 PUSH1 0x0 DUP8 DUP1 EXTCODESIZE ISZERO DUP1 ISZERO PUSH2 0x947 JUMPI PUSH1 0x0 DUP1 REVERT JUMPDEST POP GAS CALL ISZERO DUP1 ISZERO PUSH2 0x95B JUMPI RETURNDATASIZE PUSH1 0x0 DUP1 RETURNDATACOPY RETURNDATASIZE PUSH1 0x0 REVERT JUMPDEST POP POP PUSH1 0x40 MLOAD DUP4 DUP2 MSTORE CALLER SWAP3 POP PUSH32 0x222838DB2794D11532D940E8DEC38AE307ED0B63CD97C233322E221F998767A6 SWAP2 POP PUSH1 0x20 ADD PUSH1 0x40 MLOAD DUP1 SWAP2 SUB SWAP1 LOG2 POP PUSH2 0x81E PUSH1 0x1 PUSH1 0x0 SSTORE JUMP JUMPDEST PUSH2 0x9A7 PUSH2 0xF16 JUMP JUMPDEST PUSH1 0x0 PUSH1 0x6 SLOAD PUSH1 0x1 PUSH1 0xA0 SHL SWAP1 DIV PUSH1 0xFF AND PUSH1 0x2 DUP2 GT ISZERO PUSH2 0x9C7 JUMPI PUSH2 0x9C7 PUSH2 0xFCD JUMP JUMPDEST EQ PUSH2 0x9E5 JUMPI PUSH1 0x40 MLOAD PUSH4 0xE2C865DF PUSH1 0xE0 SHL DUP2 MSTORE PUSH1 0x4 ADD PUSH1 0x40 MLOAD DUP1 SWAP2 SUB SWAP1 REVERT JUMPDEST PUSH1 0x3 SLOAD TIMESTAMP LT PUSH2 0xA07 JUMPI PUSH1 0x40 MLOAD PUSH4 0xE2C865DF PUSH1 0xE0 SHL DUP2 MSTORE PUSH1 0x4 ADD PUSH1 0x40 MLOAD DUP1 SWAP2 SUB SWAP1 REVERT JUMPDEST PUSH1 0x5 SLOAD DUP2 GT PUSH2 0xA29 JUMPI PUSH1 0x40 MLOAD PUSH4 0x309CB87 PUSH1 0xE5 SHL DUP2 MSTORE PUSH1 0x4 ADD PUSH1 0x40 MLOAD DUP1 SWAP2 SUB SWAP1 REVERT JUMPDEST PUSH1 0x5 SLOAD PUSH1 0x0 PUSH2 0xA38 DUP3 DUP5 PUSH2 0x135A JUMP JUMPDEST PUSH1 0x40 MLOAD PUSH4 0xAE61B79 PUSH1 0xE1 SHL DUP2 MSTORE CALLER PUSH1 0x4 DUP3 ADD MSTORE PUSH1 0x24 DUP2 ADD DUP6 SWAP1 MSTORE SWAP1 SWAP2 POP PUSH32 0x0 PUSH1 0x1 PUSH1 0x1 PUSH1 0xA0 SHL SUB AND SWAP1 PUSH4 0x15CC36F2 SWAP1 PUSH1 0x44 ADD PUSH1 0x0 PUSH1 0x40 MLOAD DUP1 DUP4 SUB DUP2 PUSH1 0x0 DUP8 DUP1 EXTCODESIZE ISZERO DUP1 ISZERO PUSH2 0xAA3 JUMPI PUSH1 0x0 DUP1 REVERT JUMPDEST POP GAS CALL ISZERO DUP1 ISZERO PUSH2 0xAB7 JUMPI RETURNDATASIZE PUSH1 0x0 DUP1 RETURNDATACOPY RETURNDATASIZE PUSH1 0x0 REVERT JUMPDEST POP POP PUSH1 0x6 SLOAD PUSH1 0x40 MLOAD PUSH4 0x12902273 PUSH1 0xE2 SHL DUP2 MSTORE PUSH1 0x1 PUSH1 0x1 PUSH1 0xA0 SHL SUB PUSH32 0x0 DUP2 AND SWAP5 POP PUSH4 0x4A4089CC SWAP4 POP PUSH2 0xB10 SWAP3 CALLER SWAP3 SWAP2 AND SWAP1 DUP8 SWAP1 PUSH1 0x4 ADD PUSH2 0x1320 JUMP JUMPDEST PUSH1 0x0 PUSH1 0x40 MLOAD DUP1 DUP4 SUB DUP2 PUSH1 0x0 DUP8 DUP1 EXTCODESIZE ISZERO DUP1 ISZERO PUSH2 0xB2A JUMPI PUSH1 0x0 DUP1 REVERT JUMPDEST POP GAS CALL ISZERO DUP1 ISZERO PUSH2 0xB3E JUMPI RETURNDATASIZE PUSH1 0x0 DUP1 RETURNDATACOPY RETURNDATASIZE PUSH1 0x0 REVERT JUMPDEST POP POP POP POP DUP4 ISZERO PUSH2 0xB72 JUMPI CALLER PUSH1 0x0 SWAP1 DUP2 MSTORE PUSH1 0x7 PUSH1 0x20 MSTORE PUSH1 0x40 DUP2 KECCAK256 DUP1 SLOAD DUP4 SWAP3 SWAP1 PUSH2 0xB67 SWAP1 DUP5 SWAP1 PUSH2 0x1373 JUMP JUMPDEST SWAP1 SWAP2 SSTORE POP PUSH2 0xB97 SWAP1 POP JUMP JUMPDEST CALLER PUSH1 0x0 SWAP1 DUP2 MSTORE PUSH1 0x8 PUSH1 0x20 MSTORE PUSH1 0x40 DUP2 KECCAK256 DUP1 SLOAD DUP4 SWAP3 SWAP1 PUSH2 0xB91 SWAP1 DUP5 SWAP1 PUSH2 0x1373 JUMP JUMPDEST SWAP1 SWAP2 SSTORE POP POP JUMPDEST PUSH1 0x40 DUP1 MLOAD DUP6 ISZERO ISZERO DUP2 MSTORE PUSH1 0x20 DUP2 ADD DUP6 SWAP1 MSTORE SWAP1 DUP2 ADD DUP3 SWAP1 MSTORE PUSH1 0x60 DUP2 ADD DUP4 SWAP1 MSTORE CALLER SWAP1 PUSH32 0x69FD83406168EF35927190021AB940690B846CC0C13E3C76F0A74A83BDADDF9E SWAP1 PUSH1 0x80 ADD JUMPDEST PUSH1 0x40 MLOAD DUP1 SWAP2 SUB SWAP1 LOG2 POP POP PUSH2 0xBF0 PUSH1 0x1 PUSH1 0x0 SSTORE JUMP JUMPDEST POP POP JUMP JUMPDEST CALLER PUSH1 0x1 PUSH1 0x1 PUSH1 0xA0 SHL SUB PUSH32 0x0 AND EQ PUSH2 0xC3D JUMPI PUSH1 0x40 MLOAD PUSH4 0x636A157 PUSH1 0xE1 SHL DUP2 MSTORE PUSH1 0x4 ADD PUSH1 0x40 MLOAD DUP1 SWAP2 SUB SWAP1 REVERT JUMPDEST PUSH1 0x1 PUSH1 0x1 PUSH1 0xA0 SHL SUB DUP2 AND PUSH2 0xC64 JUMPI PUSH1 0x40 MLOAD PUSH4 0xD92E233D PUSH1 0xE0 SHL DUP2 MSTORE PUSH1 0x4 ADD PUSH1 0x40 MLOAD DUP1 SWAP2 SUB SWAP1 REVERT JUMPDEST PUSH1 0x6 DUP1 SLOAD PUSH1 0x1 PUSH1 0x1 PUSH1 0xA0 SHL SUB NOT AND PUSH1 0x1 PUSH1 0x1 PUSH1 0xA0 SHL SUB SWAP3 SWAP1 SWAP3 AND SWAP2 SWAP1 SWAP2 OR SWAP1 SSTORE JUMP JUMPDEST PUSH2 0xC8E PUSH2 0xF16 JUMP JUMPDEST PUSH1 0x0 PUSH1 0x6 SLOAD PUSH1 0x1 PUSH1 0xA0 SHL SWAP1 DIV PUSH1 0xFF AND PUSH1 0x2 DUP2 GT ISZERO PUSH2 0xCAE JUMPI PUSH2 0xCAE PUSH2 0xFCD JUMP JUMPDEST EQ PUSH2 0xCCC JUMPI PUSH1 0x40 MLOAD PUSH4 0xE2C865DF PUSH1 0xE0 SHL DUP2 MSTORE PUSH1 0x4 ADD PUSH1 0x40 MLOAD DUP1 SWAP2 SUB SWAP1 REVERT JUMPDEST PUSH1 0x3 SLOAD TIMESTAMP LT PUSH2 0xCEE JUMPI PUSH1 0x40 MLOAD PUSH4 0xE2C865DF PUSH1 0xE0 SHL DUP2 MSTORE PUSH1 0x4 ADD PUSH1 0x40 MLOAD DUP1 SWAP2 SUB SWAP1 REVERT JUMPDEST PUSH1 0x5 SLOAD DUP2 GT PUSH2 0xD10 JUMPI PUSH1 0x40 MLOAD PUSH4 0x309CB87 PUSH1 0xE5 SHL DUP2 MSTORE PUSH1 0x4 ADD PUSH1 0x40 MLOAD DUP1 SWAP2 SUB SWAP1 REVERT JUMPDEST PUSH1 0x5 SLOAD PUSH1 0x0 PUSH2 0xD1F DUP3 DUP5 PUSH2 0x135A JUMP JUMPDEST SWAP1 POP DUP4 ISZERO PUSH2 0xD78 JUMPI CALLER PUSH1 0x0 SWAP1 DUP2 MSTORE PUSH1 0x7 PUSH1 0x20 MSTORE PUSH1 0x40 SWAP1 KECCAK256 SLOAD DUP4 DUP2 LT ISZERO PUSH2 0xD58 JUMPI PUSH1 0x40 MLOAD PUSH4 0x1E9ACF17 PUSH1 0xE3 SHL DUP2 MSTORE PUSH1 0x4 ADD PUSH1 0x40 MLOAD DUP1 SWAP2 SUB SWAP1 REVERT JUMPDEST PUSH2 0xD62 DUP5 DUP3 PUSH2 0x135A JUMP JUMPDEST CALLER PUSH1 0x0 SWAP1 DUP2 MSTORE PUSH1 0x7 PUSH1 0x20 MSTORE PUSH1 0x40 SWAP1 KECCAK256 SSTORE POP PUSH2 0xDC5 JUMP JUMPDEST CALLER PUSH1 0x0 SWAP1 DUP2 MSTORE PUSH1 0x8 PUSH1 0x20 MSTORE PUSH1 0x40 SWAP1 KECCAK256 SLOAD DUP4 DUP2 LT ISZERO PUSH2 0xDA9 JUMPI PUSH1 0x40 MLOAD PUSH4 0x1E9ACF17 PUSH1 0xE3 SHL DUP2 MSTORE PUSH1 0x4 ADD PUSH1 0x40 MLOAD DUP1 SWAP2 SUB SWAP1 REVERT JUMPDEST PUSH2 0xDB3 DUP5 DUP3 PUSH2 0x135A JUMP JUMPDEST CALLER PUSH1 0x0 SWAP1 DUP2 MSTORE PUSH1 0x8 PUSH1 0x20 MSTORE PUSH1 0x40 SWAP1 KECCAK256 SSTORE POP JUMPDEST PUSH1 0x6 SLOAD PUSH1 0x40 MLOAD PUSH4 0x12902273 PUSH1 0xE2 SHL DUP2 MSTORE PUSH1 0x1 PUSH1 0x1 PUSH1 0xA0 SHL SUB PUSH32 0x0 DUP2 AND SWAP3 PUSH4 0x4A4089CC SWAP3 PUSH2 0xE19 SWAP3 CALLER SWAP3 AND SWAP1 DUP8 SWAP1 PUSH1 0x4 ADD PUSH2 0x1320 JUMP JUMPDEST PUSH1 0x0 PUSH1 0x40 MLOAD DUP1 DUP4 SUB DUP2 PUSH1 0x0 DUP8 DUP1 EXTCODESIZE ISZERO DUP1 ISZERO PUSH2 0xE33 JUMPI PUSH1 0x0 DUP1 REVERT JUMPDEST POP GAS CALL ISZERO DUP1 ISZERO PUSH2 0xE47 JUMPI RETURNDATASIZE PUSH1 0x0 DUP1 RETURNDATACOPY RETURNDATASIZE PUSH1 0x0 REVERT JUMPDEST POP POP PUSH1 0x40 MLOAD PUSH4 0x12902273 PUSH1 0xE2 SHL DUP2 MSTORE PUSH1 0x1 PUSH1 0x1 PUSH1 0xA0 SHL SUB PUSH32 0x0 AND SWAP3 POP PUSH4 0x4A4089CC SWAP2 POP PUSH2 0xE9B SWAP1 CALLER SWAP1 DUP2 SWAP1 DUP7 SWAP1 PUSH1 0x4 ADD PUSH2 0x1320 JUMP JUMPDEST PUSH1 0x0 PUSH1 0x40 MLOAD DUP1 DUP4 SUB DUP2 PUSH1 0x0 DUP8 DUP1 EXTCODESIZE ISZERO DUP1 ISZERO PUSH2 0xEB5 JUMPI PUSH1 0x0 DUP1 REVERT JUMPDEST POP GAS CALL ISZERO DUP1 ISZERO PUSH2 0xEC9 JUMPI RETURNDATASIZE PUSH1 0x0 DUP1 RETURNDATACOPY RETURNDATASIZE PUSH1 0x0 REVERT JUMPDEST POP POP PUSH1 0x40 DUP1 MLOAD DUP8 ISZERO ISZERO DUP2 MSTORE PUSH1 0x20 DUP2 ADD DUP6 SWAP1 MSTORE SWAP1 DUP2 ADD DUP7 SWAP1 MSTORE PUSH1 0x60 DUP2 ADD DUP6 SWAP1 MSTORE CALLER SWAP3 POP PUSH32 0x69FD83406168EF35927190021AB940690B846CC0C13E3C76F0A74A83BDADDF9E SWAP2 POP PUSH1 0x80 ADD PUSH2 0xBDC JUMP JUMPDEST PUSH1 0x2 PUSH1 0x0 SLOAD SUB PUSH2 0xF6C JUMPI PUSH1 0x40 MLOAD PUSH3 0x461BCD PUSH1 0xE5 SHL DUP2 MSTORE PUSH1 0x20 PUSH1 0x4 DUP3 ADD MSTORE PUSH1 0x1F PUSH1 0x24 DUP3 ADD MSTORE PUSH32 0x5265656E7472616E637947756172643A207265656E7472616E742063616C6C00 PUSH1 0x44 DUP3 ADD MSTORE PUSH1 0x64 ADD PUSH1 0x40 MLOAD DUP1 SWAP2 SUB SWAP1 REVERT JUMPDEST PUSH1 0x2 PUSH1 0x0 SSTORE JUMP JUMPDEST PUSH1 0x0 DUP4 PUSH1 0xFF AND PUSH1 0x0 SUB PUSH2 0xF87 JUMPI POP DUP1 PUSH2 0xF9D JUMP JUMPDEST DUP4 PUSH1 0xFF AND PUSH1 0x1 SUB PUSH2 0xF99 JUMPI POP DUP2 PUSH2 0xF9D JUMP JUMPDEST POP PUSH1 0x0 JUMPDEST SWAP4 SWAP3 POP POP POP JUMP JUMPDEST PUSH1 0x0 PUSH1 0x20 DUP3 DUP5 SUB SLT ISZERO PUSH2 0xFB6 JUMPI PUSH1 0x0 DUP1 REVERT JUMPDEST DUP2 CALLDATALOAD PUSH1 0x1 PUSH1 0x1 PUSH1 0xA0 SHL SUB DUP2 AND DUP2 EQ PUSH2 0xF9D JUMPI PUSH1 0x0 DUP1 REVERT JUMPDEST PUSH4 0x4E487B71 PUSH1 0xE0 SHL PUSH1 0x0 MSTORE PUSH1 0x21 PUSH1 0x4 MSTORE PUSH1 0x24 PUSH1 0x0 REVERT JUMPDEST PUSH1 0x20 DUP2 ADD PUSH1 0x3 DUP4 LT PUSH2 0x1005 JUMPI PUSH4 0x4E487B71 PUSH1 0xE0 SHL PUSH1 0x0 MSTORE PUSH1 0x21 PUSH1 0x4 MSTORE PUSH1 0x24 PUSH1 0x0 REVERT JUMPDEST SWAP2 SWAP1 MSTORE SWAP1 JUMP JUMPDEST PUSH1 0x0 JUMPDEST DUP4 DUP2 LT ISZERO PUSH2 0x1026 JUMPI DUP2 DUP2 ADD MLOAD DUP4 DUP3 ADD MSTORE PUSH1 0x20 ADD PUSH2 0x100E JUMP JUMPDEST POP POP PUSH1 0x0 SWAP2 ADD MSTORE JUMP JUMPDEST PUSH1 0x0 DUP2 MLOAD DUP1 DUP5 MSTORE PUSH2 0x1047 DUP2 PUSH1 0x20 DUP7 ADD PUSH1 0x20 DUP7 ADD PUSH2 0x100B JUMP JUMPDEST PUSH1 0x1F ADD PUSH1 0x1F NOT AND SWAP3 SWAP1 SWAP3 ADD PUSH1 0x20 ADD SWAP3 SWAP2 POP POP JUMP JUMPDEST PUSH1 0x20 DUP2 MSTORE PUSH1 0x0 PUSH2 0xF9D PUSH1 0x20 DUP4 ADD DUP5 PUSH2 0x102F JUMP JUMPDEST PUSH1 0x0 PUSH1 0x20 DUP3 DUP5 SUB SLT ISZERO PUSH2 0x1080 JUMPI PUSH1 0x0 DUP1 REVERT JUMPDEST POP CALLDATALOAD SWAP2 SWAP1 POP JUMP JUMPDEST PUSH1 0x0 DUP1 PUSH1 0x20 DUP4 DUP6 SUB SLT ISZERO PUSH2 0x109A JUMPI PUSH1 0x0 DUP1 REVERT JUMPDEST DUP3 CALLDATALOAD PUSH8 0xFFFFFFFFFFFFFFFF DUP2 GT ISZERO PUSH2 0x10B1 JUMPI PUSH1 0x0 DUP1 REVERT JUMPDEST DUP4 ADD PUSH1 0x1F DUP2 ADD DUP6 SGT PUSH2 0x10C2 JUMPI PUSH1 0x0 DUP1 REVERT JUMPDEST DUP1 CALLDATALOAD PUSH8 0xFFFFFFFFFFFFFFFF DUP2 GT ISZERO PUSH2 0x10D9 JUMPI PUSH1 0x0 DUP1 REVERT JUMPDEST DUP6 PUSH1 0x20 DUP3 DUP5 ADD ADD GT ISZERO PUSH2 0x10EB JUMPI PUSH1 0x0 DUP1 REVERT JUMPDEST PUSH1 0x20 SWAP2 SWAP1 SWAP2 ADD SWAP6 SWAP1 SWAP5 POP SWAP3 POP POP POP JUMP JUMPDEST DUP1 ISZERO ISZERO DUP2 EQ PUSH2 0x1109 JUMPI PUSH1 0x0 DUP1 REVERT JUMPDEST POP JUMP JUMPDEST PUSH1 0x0 DUP1 PUSH1 0x40 DUP4 DUP6 SUB SLT ISZERO PUSH2 0x111F JUMPI PUSH1 0x0 DUP1 REVERT JUMPDEST DUP3 CALLDATALOAD PUSH2 0x112A DUP2 PUSH2 0x10FB JUMP JUMPDEST SWAP5 PUSH1 0x20 SWAP4 SWAP1 SWAP4 ADD CALLDATALOAD SWAP4 POP POP POP JUMP JUMPDEST PUSH1 0x1 DUP2 DUP2 SHR SWAP1 DUP3 AND DUP1 PUSH2 0x114C JUMPI PUSH1 0x7F DUP3 AND SWAP2 POP JUMPDEST PUSH1 0x20 DUP3 LT DUP2 SUB PUSH2 0x116C JUMPI PUSH4 0x4E487B71 PUSH1 0xE0 SHL PUSH1 0x0 MSTORE PUSH1 0x22 PUSH1 0x4 MSTORE PUSH1 0x24 PUSH1 0x0 REVERT JUMPDEST POP SWAP2 SWAP1 POP JUMP JUMPDEST DUP4 DUP2 MSTORE PUSH1 0x40 PUSH1 0x20 DUP3 ADD MSTORE DUP2 PUSH1 0x40 DUP3 ADD MSTORE DUP2 DUP4 PUSH1 0x60 DUP4 ADD CALLDATACOPY PUSH1 0x0 DUP2 DUP4 ADD PUSH1 0x60 SWAP1 DUP2 ADD SWAP2 SWAP1 SWAP2 MSTORE PUSH1 0x1F SWAP1 SWAP3 ADD PUSH1 0x1F NOT AND ADD ADD SWAP3 SWAP2 POP POP JUMP JUMPDEST PUSH4 0x4E487B71 PUSH1 0xE0 SHL PUSH1 0x0 MSTORE PUSH1 0x41 PUSH1 0x4 MSTORE PUSH1 0x24 PUSH1 0x0 REVERT JUMPDEST PUSH1 0x0 DUP3 PUSH1 0x1F DUP4 ADD SLT PUSH2 0x11CF JUMPI PUSH1 0x0 DUP1 REVERT JUMPDEST DUP2 MLOAD PUSH8 0xFFFFFFFFFFFFFFFF DUP2 GT ISZERO PUSH2 0x11E9 JUMPI PUSH2 0x11E9 PUSH2 0x11A8 JUMP JUMPDEST PUSH1 0x40 MLOAD PUSH1 0x1F DUP3 ADD PUSH1 0x1F NOT SWAP1 DUP2 AND PUSH1 0x3F ADD AND DUP2 ADD PUSH8 0xFFFFFFFFFFFFFFFF DUP2 GT DUP3 DUP3 LT OR ISZERO PUSH2 0x1218 JUMPI PUSH2 0x1218 PUSH2 0x11A8 JUMP JUMPDEST PUSH1 0x40 MSTORE DUP2 DUP2 MSTORE DUP4 DUP3 ADD PUSH1 0x20 ADD DUP6 LT ISZERO PUSH2 0x1230 JUMPI PUSH1 0x0 DUP1 REVERT JUMPDEST PUSH2 0x1241 DUP3 PUSH1 0x20 DUP4 ADD PUSH1 0x20 DUP8 ADD PUSH2 0x100B JUMP JUMPDEST SWAP5 SWAP4 POP POP POP POP JUMP JUMPDEST PUSH1 0x0 DUP1 PUSH1 0x0 PUSH1 0x60 DUP5 DUP7 SUB SLT ISZERO PUSH2 0x125E JUMPI PUSH1 0x0 DUP1 REVERT JUMPDEST DUP4 MLOAD PUSH2 0x1269 DUP2 PUSH2 0x10FB JUMP JUMPDEST PUSH1 0x20 DUP6 ADD MLOAD SWAP1 SWAP4 POP PUSH8 0xFFFFFFFFFFFFFFFF DUP2 GT ISZERO PUSH2 0x1286 JUMPI PUSH1 0x0 DUP1 REVERT JUMPDEST PUSH2 0x1292 DUP7 DUP3 DUP8 ADD PUSH2 0x11BE JUMP JUMPDEST SWAP3 POP POP PUSH1 0x40 DUP5 ADD MLOAD PUSH8 0xFFFFFFFFFFFFFFFF DUP2 GT ISZERO PUSH2 0x12AF JUMPI PUSH1 0x0 DUP1 REVERT JUMPDEST PUSH2 0x12BB DUP7 DUP3 DUP8 ADD PUSH2 0x11BE JUMP JUMPDEST SWAP2 POP POP SWAP3 POP SWAP3 POP SWAP3 JUMP JUMPDEST PUSH1 0x0 PUSH1 0x20 DUP3 DUP5 SUB SLT ISZERO PUSH2 0x12D7 JUMPI PUSH1 0x0 DUP1 REVERT JUMPDEST DUP2 MLOAD PUSH1 0xFF DUP2 AND DUP2 EQ PUSH2 0xF9D JUMPI PUSH1 0x0 DUP1 REVERT JUMPDEST PUSH1 0xFF DUP5 AND DUP2 MSTORE PUSH1 0x60 PUSH1 0x20 DUP3 ADD MSTORE PUSH1 0x0 PUSH2 0x1304 PUSH1 0x60 DUP4 ADD DUP6 PUSH2 0x102F JUMP JUMPDEST DUP3 DUP2 SUB PUSH1 0x40 DUP5 ADD MSTORE PUSH2 0x1316 DUP2 DUP6 PUSH2 0x102F JUMP JUMPDEST SWAP7 SWAP6 POP POP POP POP POP POP JUMP JUMPDEST PUSH1 0x1 PUSH1 0x1 PUSH1 0xA0 SHL SUB SWAP4 DUP5 AND DUP2 MSTORE SWAP2 SWAP1 SWAP3 AND PUSH1 0x20 DUP3 ADD MSTORE PUSH1 0x40 DUP2 ADD SWAP2 SWAP1 SWAP2 MSTORE PUSH1 0x60 ADD SWAP1 JUMP JUMPDEST PUSH4 0x4E487B71 PUSH1 0xE0 SHL PUSH1 0x0 MSTORE PUSH1 0x11 PUSH1 0x4 MSTORE PUSH1 0x24 PUSH1 0x0 REVERT JUMPDEST DUP2 DUP2 SUB DUP2 DUP2 GT ISZERO PUSH2 0x136D JUMPI PUSH2 0x136D PUSH2 0x1344 JUMP JUMPDEST SWAP3 SWAP2 POP POP JUMP JUMPDEST DUP1 DUP3 ADD DUP1 DUP3 GT ISZERO PUSH2 0x136D JUMPI PUSH2 0x136D PUSH2 0x1344 JUMP INVALID LOG2 PUSH5 0x6970667358 0x22 SLT KECCAK256 0xE1 0xA7 SMOD CALLDATACOPY DUP4 0xD6 CODESIZE 0xE5 0xEB PUSH32 0xB09C8775C4C0430CFC6A2E83F24A9B15E73BEB2648E264736F6C634300081A00 CALLER LOG2 PUSH5 0x6970667358 0x22 SLT KECCAK256 PUSH5 0x95A441287F PREVRANDAO CALLDATACOPY SWAP8 0xEF 0xF8 KECCAK256 SWAP15 ISZERO SELFBALANCE 0xDF POP AND MOD DUP11 STOP 0xB1 0xEE EXTCODEHASH PUSH16 0x3B2B33032373A764736F6C634300081A STOP CALLER "},"methodIdentifiers":{"admin()":"f851a440","computeMarketId(address,string,uint256)":"b9dc6456","createMarket(address,string,uint256,uint16)":"43ca9fe9","createMarketWithOracle(address,string,uint256,uint16,address)":"7df66f76","feeRecipient()":"46904840","flatFee()":"d9eb5947","oracle()":"7dc0d1d0","setAdmin(address)":"704b6c02","setFeeRecipient(address)":"e74b981b","setFlatFee(uint256)":"23fa495a","setOracle(address)":"7adbf973"}}}}}