{"contracts/test/MockUMAOptimisticOracle.sol":{"MockUMAOptimisticOracle":{"abi":[{"anonymous":false,"inputs":[{"indexed":true,"internalType":"bytes32","name":"assertionId","type":"bytes32"},{"indexed":false,"internalType":"bytes","name":"claim","type":"bytes"},{"indexed":true,"internalType":"address","name":"asserter","type":"address"},{"indexed":false,"internalType":"address","name":"callbackRecipient","type":"address"},{"indexed":false,"internalType":"address","name":"escalationManager","type":"address"},{"indexed":false,"internalType":"uint64","name":"liveness","type":"uint64"},{"indexed":false,"internalType":"address","name":"currency","type":"address"},{"indexed":false,"internalType":"uint256","name":"bond","type":"uint256"},{"indexed":false,"internalType":"bytes32","name":"identifier","type":"bytes32"}],"name":"AssertionMade","type":"event"},{"anonymous":false,"inputs":[{"indexed":true,"internalType":"bytes32","name":"assertionId","type":"bytes32"},{"indexed":false,"internalType":"bool","name":"resolution","type":"bool"}],"name":"AssertionSettled","type":"event"},{"inputs":[{"internalType":"bytes","name":"claim","type":"bytes"},{"internalType":"address","name":"asserter","type":"address"},{"internalType":"address","name":"callbackRecipient","type":"address"},{"internalType":"address","name":"escalationManager","type":"address"},{"internalType":"uint64","name":"liveness","type":"uint64"},{"internalType":"address","name":"currency","type":"address"},{"internalType":"uint256","name":"bond","type":"uint256"},{"internalType":"bytes32","name":"identifier","type":"bytes32"}],"name":"assertTruth","outputs":[{"internalType":"bytes32","name":"assertionId","type":"bytes32"}],"stateMutability":"nonpayable","type":"function"},{"inputs":[{"internalType":"bytes32","name":"","type":"bytes32"}],"name":"assertions","outputs":[{"internalType":"address","name":"asserter","type":"address"},{"internalType":"bytes","name":"claim","type":"bytes"},{"internalType":"address","name":"callbackRecipient","type":"address"},{"internalType":"address","name":"escalationManager","type":"address"},{"internalType":"uint64","name":"liveness","type":"uint64"},{"internalType":"address","name":"currency","type":"address"},{"internalType":"uint256","name":"bond","type":"uint256"},{"internalType":"bytes32","name":"identifier","type":"bytes32"},{"internalType":"bool","name":"settled","type":"bool"},{"internalType":"bool","name":"settlementResolution","type":"bool"}],"stateMutability":"view","type":"function"},{"inputs":[{"internalType":"bytes32","name":"assertionId","type":"bytes32"}],"name":"getAssertion","outputs":[{"internalType":"address","name":"asserter","type":"address"},{"internalType":"bytes","name":"claim","type":"bytes"},{"internalType":"address","name":"callbackRecipient","type":"address"},{"internalType":"address","name":"escalationManager","type":"address"},{"internalType":"uint64","name":"liveness","type":"uint64"},{"internalType":"address","name":"currency","type":"address"},{"internalType":"uint256","name":"bond","type":"uint256"},{"internalType":"bytes32","name":"identifier","type":"bytes32"},{"internalType":"bool","name":"settled","type":"bool"},{"internalType":"bool","name":"settlementResolution","type":"bool"}],"stateMutability":"view","type":"function"},{"inputs":[{"internalType":"bytes32","name":"assertionId","type":"bytes32"},{"internalType":"bool","name":"resolution","type":"bool"}],"name":"settleAssertion","outputs":[],"stateMutability":"nonpayable","type":"function"}],"evm":{"bytecode":{"linkReferences":{},"object":"6080604052348015600f57600080fd5b50610b7d8061001f6000396000f3fe608060405234801561001057600080fd5b506004361061004c5760003560e01c80638830288414610051578063aae82fd914610083578063b905d7c814610098578063d60715b5146100b9575b600080fd5b61006461005f3660046106dd565b6100cc565b60405161007a9a99989796959493929190610746565b60405180910390f35b6100966100913660046107c7565b6102fe565b005b6100ab6100a6366004610845565b610402565b60405190815260200161007a565b6100646100c73660046106dd565b6105da565b6000818152602081815260408083208151610140810190925280546001600160a01b03168252600181018054606094869485948594859485948594859485948594929391929184019161011e90610962565b80601f016020809104026020016040519081016040528092919081815260200182805461014a90610962565b80156101975780601f1061016c57610100808354040283529160200191610197565b820191906000526020600020905b81548152906001019060200180831161017a57829003601f168201915b505050505081526020016002820160009054906101000a90046001600160a01b03166001600160a01b03166001600160a01b031681526020016003820160009054906101000a90046001600160a01b03166001600160a01b03166001600160a01b031681526020016003820160149054906101000a90046001600160401b03166001600160401b03166001600160401b031681526020016004820160009054906101000a90046001600160a01b03166001600160a01b03166001600160a01b0316815260200160058201548152602001600682015481526020016007820160009054906101000a900460ff161515151581526020016007820160019054906101000a900460ff1615151515815250509050806000015181602001518260400151836060015184608001518560a001518660c001518760e001518861010001518961012001519a509a509a509a509a509a509a509a509a509a50509193959799509193959799565b600082815260208190526040902080546001600160a01b031661035e5760405162461bcd60e51b8152602060048201526013602482015272105cdcd95c9d1a5bdb881b9bdd08199bdd5b99606a1b60448201526064015b60405180910390fd5b600781015460ff16156103a55760405162461bcd60e51b815260206004820152600f60248201526e105b1c9958591e481cd95d1d1b1959608a1b6044820152606401610355565b6007810180548315156101000261ffff1990911617600117905560405183907f507b6ce512d3d6ce6508af8152d3474bd60deabc208a47aa5fd2820238a5db9e906103f590851515815260200190565b60405180910390a2505050565b60008888424460405160200161041b949392919061099c565b60408051808303601f190181528282528051602091820120610140840183526001600160a01b038c811685528285018e81528c8216868601528b821660608701526001600160401b038b16608087015289821660a087015260c0860189905260e086018890526000610100870181905261012087018190528381529384905293909220845181546001600160a01b031916931692909217825591519193509060018201906104c99082610a2f565b506040828101516002830180546001600160a01b03199081166001600160a01b0393841617909155606085015160038501805460808801519285166001600160e01b031990911617600160a01b6001600160401b039093169290920291909117905560a085015160048501805490921690831617905560c0840151600584015560e0840151600684015561010080850151600790940180546101209096015161ffff1990961694151561ff001916949094179415150293909317909155519089169082907fa6cdd1c5904ded4e53151faf7e6e3d968e9f4f2fde0b598f6c04406bfe35b577906105c6908d908c908c908c908c908c908c90610aed565b60405180910390a398975050505050505050565b600060208190529081526040902080546001820180546001600160a01b03909216929161060690610962565b80601f016020809104026020016040519081016040528092919081815260200182805461063290610962565b801561067f5780601f106106545761010080835404028352916020019161067f565b820191906000526020600020905b81548152906001019060200180831161066257829003601f168201915b505050506002830154600384015460048501546005860154600687015460079097015495966001600160a01b03948516968585169650600160a01b9094046001600160401b0316949092169290919060ff808216916101009004168a565b6000602082840312156106ef57600080fd5b5035919050565b60005b838110156107115781810151838201526020016106f9565b50506000910152565b600081518084526107328160208601602086016106f6565b601f01601f19169290920160200192915050565b6001600160a01b038b1681526101406020820181905260009061076b9083018c61071a565b6001600160a01b039a8b166040840152988a166060830152506001600160401b039690961660808701529390961660a085015260c084019190915260e08301529215156101008201529115156101209092019190915292915050565b600080604083850312156107da57600080fd5b82359150602083013580151581146107f157600080fd5b809150509250929050565b634e487b7160e01b600052604160045260246000fd5b80356001600160a01b038116811461082957600080fd5b919050565b80356001600160401b038116811461082957600080fd5b600080600080600080600080610100898b03121561086257600080fd5b88356001600160401b0381111561087857600080fd5b8901601f81018b1361088957600080fd5b80356001600160401b038111156108a2576108a26107fc565b604051601f8201601f19908116603f011681016001600160401b03811182821017156108d0576108d06107fc565b6040528181528282016020018d10156108e857600080fd5b81602084016020830137600060208383010152809a5050505061090d60208a01610812565b965061091b60408a01610812565b955061092960608a01610812565b945061093760808a0161082e565b935061094560a08a01610812565b979a969950949793969295929450505060c08201359160e0013590565b600181811c9082168061097657607f821691505b60208210810361099657634e487b7160e01b600052602260045260246000fd5b50919050565b600085516109ae818460208a016106f6565b60609590951b6bffffffffffffffffffffffff1916919094019081526014810192909252603482015260540192915050565b601f821115610a2a57806000526020600020601f840160051c81016020851015610a075750805b601f840160051c820191505b81811015610a275760008155600101610a13565b50505b505050565b81516001600160401b03811115610a4857610a486107fc565b610a5c81610a568454610962565b846109e0565b6020601f821160018114610a905760008315610a785750848201515b600019600385901b1c1916600184901b178455610a27565b600084815260208120601f198516915b82811015610ac05787850151825560209485019460019092019101610aa0565b5084821015610ade5786840151600019600387901b60f8161c191681555b50505050600190811b01905550565b60e081526000610b0060e083018a61071a565b6001600160a01b0398891660208401529688166040830152506001600160401b0394909416606085015291909416608083015260a082019390935260c0019190915291905056fea2646970667358221220174e26c5b3b15d545916c0bdbb4527ba4cbabf88faa706fd52fada16a942ecbd64736f6c634300081a0033","opcodes":"PUSH1 0x80 PUSH1 0x40 MSTORE CALLVALUE DUP1 ISZERO PUSH1 0xF JUMPI PUSH1 0x0 DUP1 REVERT JUMPDEST POP PUSH2 0xB7D DUP1 PUSH2 0x1F PUSH1 0x0 CODECOPY PUSH1 0x0 RETURN INVALID PUSH1 0x80 PUSH1 0x40 MSTORE CALLVALUE DUP1 ISZERO PUSH2 0x10 JUMPI PUSH1 0x0 DUP1 REVERT JUMPDEST POP PUSH1 0x4 CALLDATASIZE LT PUSH2 0x4C JUMPI PUSH1 0x0 CALLDATALOAD PUSH1 0xE0 SHR DUP1 PUSH4 0x88302884 EQ PUSH2 0x51 JUMPI DUP1 PUSH4 0xAAE82FD9 EQ PUSH2 0x83 JUMPI DUP1 PUSH4 0xB905D7C8 EQ PUSH2 0x98 JUMPI DUP1 PUSH4 0xD60715B5 EQ PUSH2 0xB9 JUMPI JUMPDEST PUSH1 0x0 DUP1 REVERT JUMPDEST PUSH2 0x64 PUSH2 0x5F CALLDATASIZE PUSH1 0x4 PUSH2 0x6DD JUMP JUMPDEST PUSH2 0xCC JUMP JUMPDEST PUSH1 0x40 MLOAD PUSH2 0x7A SWAP11 SWAP10 SWAP9 SWAP8 SWAP7 SWAP6 SWAP5 SWAP4 SWAP3 SWAP2 SWAP1 PUSH2 0x746 JUMP JUMPDEST PUSH1 0x40 MLOAD DUP1 SWAP2 SUB SWAP1 RETURN JUMPDEST PUSH2 0x96 PUSH2 0x91 CALLDATASIZE PUSH1 0x4 PUSH2 0x7C7 JUMP JUMPDEST PUSH2 0x2FE JUMP JUMPDEST STOP JUMPDEST PUSH2 0xAB PUSH2 0xA6 CALLDATASIZE PUSH1 0x4 PUSH2 0x845 JUMP JUMPDEST PUSH2 0x402 JUMP JUMPDEST PUSH1 0x40 MLOAD SWAP1 DUP2 MSTORE PUSH1 0x20 ADD PUSH2 0x7A JUMP JUMPDEST PUSH2 0x64 PUSH2 0xC7 CALLDATASIZE PUSH1 0x4 PUSH2 0x6DD JUMP JUMPDEST PUSH2 0x5DA JUMP JUMPDEST PUSH1 0x0 DUP2 DUP2 MSTORE PUSH1 0x20 DUP2 DUP2 MSTORE PUSH1 0x40 DUP1 DUP4 KECCAK256 DUP2 MLOAD PUSH2 0x140 DUP2 ADD SWAP1 SWAP3 MSTORE DUP1 SLOAD PUSH1 0x1 PUSH1 0x1 PUSH1 0xA0 SHL SUB AND DUP3 MSTORE PUSH1 0x1 DUP2 ADD DUP1 SLOAD PUSH1 0x60 SWAP5 DUP7 SWAP5 DUP6 SWAP5 DUP6 SWAP5 DUP6 SWAP5 DUP6 SWAP5 DUP6 SWAP5 DUP6 SWAP5 DUP6 SWAP5 DUP6 SWAP5 SWAP3 SWAP4 SWAP2 SWAP3 SWAP2 DUP5 ADD SWAP2 PUSH2 0x11E SWAP1 PUSH2 0x962 JUMP JUMPDEST DUP1 PUSH1 0x1F ADD PUSH1 0x20 DUP1 SWAP2 DIV MUL PUSH1 0x20 ADD PUSH1 0x40 MLOAD SWAP1 DUP2 ADD PUSH1 0x40 MSTORE DUP1 SWAP3 SWAP2 SWAP1 DUP2 DUP2 MSTORE PUSH1 0x20 ADD DUP3 DUP1 SLOAD PUSH2 0x14A SWAP1 PUSH2 0x962 JUMP JUMPDEST DUP1 ISZERO PUSH2 0x197 JUMPI DUP1 PUSH1 0x1F LT PUSH2 0x16C JUMPI PUSH2 0x100 DUP1 DUP4 SLOAD DIV MUL DUP4 MSTORE SWAP2 PUSH1 0x20 ADD SWAP2 PUSH2 0x197 JUMP JUMPDEST DUP3 ADD SWAP2 SWAP1 PUSH1 0x0 MSTORE PUSH1 0x20 PUSH1 0x0 KECCAK256 SWAP1 JUMPDEST DUP2 SLOAD DUP2 MSTORE SWAP1 PUSH1 0x1 ADD SWAP1 PUSH1 0x20 ADD DUP1 DUP4 GT PUSH2 0x17A JUMPI DUP3 SWAP1 SUB PUSH1 0x1F AND DUP3 ADD SWAP2 JUMPDEST POP POP POP POP POP DUP2 MSTORE PUSH1 0x20 ADD PUSH1 0x2 DUP3 ADD PUSH1 0x0 SWAP1 SLOAD SWAP1 PUSH2 0x100 EXP SWAP1 DIV PUSH1 0x1 PUSH1 0x1 PUSH1 0xA0 SHL SUB AND PUSH1 0x1 PUSH1 0x1 PUSH1 0xA0 SHL SUB AND PUSH1 0x1 PUSH1 0x1 PUSH1 0xA0 SHL SUB AND DUP2 MSTORE PUSH1 0x20 ADD PUSH1 0x3 DUP3 ADD PUSH1 0x0 SWAP1 SLOAD SWAP1 PUSH2 0x100 EXP SWAP1 DIV PUSH1 0x1 PUSH1 0x1 PUSH1 0xA0 SHL SUB AND PUSH1 0x1 PUSH1 0x1 PUSH1 0xA0 SHL SUB AND PUSH1 0x1 PUSH1 0x1 PUSH1 0xA0 SHL SUB AND DUP2 MSTORE PUSH1 0x20 ADD PUSH1 0x3 DUP3 ADD PUSH1 0x14 SWAP1 SLOAD SWAP1 PUSH2 0x100 EXP SWAP1 DIV PUSH1 0x1 PUSH1 0x1 PUSH1 0x40 SHL SUB AND PUSH1 0x1 PUSH1 0x1 PUSH1 0x40 SHL SUB AND PUSH1 0x1 PUSH1 0x1 PUSH1 0x40 SHL SUB AND DUP2 MSTORE PUSH1 0x20 ADD PUSH1 0x4 DUP3 ADD PUSH1 0x0 SWAP1 SLOAD SWAP1 PUSH2 0x100 EXP SWAP1 DIV PUSH1 0x1 PUSH1 0x1 PUSH1 0xA0 SHL SUB AND PUSH1 0x1 PUSH1 0x1 PUSH1 0xA0 SHL SUB AND PUSH1 0x1 PUSH1 0x1 PUSH1 0xA0 SHL SUB AND DUP2 MSTORE PUSH1 0x20 ADD PUSH1 0x5 DUP3 ADD SLOAD DUP2 MSTORE PUSH1 0x20 ADD PUSH1 0x6 DUP3 ADD SLOAD DUP2 MSTORE PUSH1 0x20 ADD PUSH1 0x7 DUP3 ADD PUSH1 0x0 SWAP1 SLOAD SWAP1 PUSH2 0x100 EXP SWAP1 DIV PUSH1 0xFF AND ISZERO ISZERO ISZERO ISZERO DUP2 MSTORE PUSH1 0x20 ADD PUSH1 0x7 DUP3 ADD PUSH1 0x1 SWAP1 SLOAD SWAP1 PUSH2 0x100 EXP SWAP1 DIV PUSH1 0xFF AND ISZERO ISZERO ISZERO ISZERO DUP2 MSTORE POP POP SWAP1 POP DUP1 PUSH1 0x0 ADD MLOAD DUP2 PUSH1 0x20 ADD MLOAD DUP3 PUSH1 0x40 ADD MLOAD DUP4 PUSH1 0x60 ADD MLOAD DUP5 PUSH1 0x80 ADD MLOAD DUP6 PUSH1 0xA0 ADD MLOAD DUP7 PUSH1 0xC0 ADD MLOAD DUP8 PUSH1 0xE0 ADD MLOAD DUP9 PUSH2 0x100 ADD MLOAD DUP10 PUSH2 0x120 ADD MLOAD SWAP11 POP SWAP11 POP SWAP11 POP SWAP11 POP SWAP11 POP SWAP11 POP SWAP11 POP SWAP11 POP SWAP11 POP SWAP11 POP POP SWAP2 SWAP4 SWAP6 SWAP8 SWAP10 POP SWAP2 SWAP4 SWAP6 SWAP8 SWAP10 JUMP JUMPDEST PUSH1 0x0 DUP3 DUP2 MSTORE PUSH1 0x20 DUP2 SWAP1 MSTORE PUSH1 0x40 SWAP1 KECCAK256 DUP1 SLOAD PUSH1 0x1 PUSH1 0x1 PUSH1 0xA0 SHL SUB AND PUSH2 0x35E JUMPI PUSH1 0x40 MLOAD PUSH3 0x461BCD PUSH1 0xE5 SHL DUP2 MSTORE PUSH1 0x20 PUSH1 0x4 DUP3 ADD MSTORE PUSH1 0x13 PUSH1 0x24 DUP3 ADD MSTORE PUSH19 0x105CDCD95C9D1A5BDB881B9BDD08199BDD5B99 PUSH1 0x6A SHL PUSH1 0x44 DUP3 ADD MSTORE PUSH1 0x64 ADD JUMPDEST PUSH1 0x40 MLOAD DUP1 SWAP2 SUB SWAP1 REVERT JUMPDEST PUSH1 0x7 DUP2 ADD SLOAD PUSH1 0xFF AND ISZERO PUSH2 0x3A5 JUMPI PUSH1 0x40 MLOAD PUSH3 0x461BCD PUSH1 0xE5 SHL DUP2 MSTORE PUSH1 0x20 PUSH1 0x4 DUP3 ADD MSTORE PUSH1 0xF PUSH1 0x24 DUP3 ADD MSTORE PUSH15 0x105B1C9958591E481CD95D1D1B1959 PUSH1 0x8A SHL PUSH1 0x44 DUP3 ADD MSTORE PUSH1 0x64 ADD PUSH2 0x355 JUMP JUMPDEST PUSH1 0x7 DUP2 ADD DUP1 SLOAD DUP4 ISZERO ISZERO PUSH2 0x100 MUL PUSH2 0xFFFF NOT SWAP1 SWAP2 AND OR PUSH1 0x1 OR SWAP1 SSTORE PUSH1 0x40 MLOAD DUP4 SWAP1 PUSH32 0x507B6CE512D3D6CE6508AF8152D3474BD60DEABC208A47AA5FD2820238A5DB9E SWAP1 PUSH2 0x3F5 SWAP1 DUP6 ISZERO ISZERO DUP2 MSTORE PUSH1 0x20 ADD SWAP1 JUMP JUMPDEST PUSH1 0x40 MLOAD DUP1 SWAP2 SUB SWAP1 LOG2 POP POP POP JUMP JUMPDEST PUSH1 0x0 DUP9 DUP9 TIMESTAMP PREVRANDAO PUSH1 0x40 MLOAD PUSH1 0x20 ADD PUSH2 0x41B SWAP5 SWAP4 SWAP3 SWAP2 SWAP1 PUSH2 0x99C JUMP JUMPDEST PUSH1 0x40 DUP1 MLOAD DUP1 DUP4 SUB PUSH1 0x1F NOT ADD DUP2 MSTORE DUP3 DUP3 MSTORE DUP1 MLOAD PUSH1 0x20 SWAP2 DUP3 ADD KECCAK256 PUSH2 0x140 DUP5 ADD DUP4 MSTORE PUSH1 0x1 PUSH1 0x1 PUSH1 0xA0 SHL SUB DUP13 DUP2 AND DUP6 MSTORE DUP3 DUP6 ADD DUP15 DUP2 MSTORE DUP13 DUP3 AND DUP7 DUP7 ADD MSTORE DUP12 DUP3 AND PUSH1 0x60 DUP8 ADD MSTORE PUSH1 0x1 PUSH1 0x1 PUSH1 0x40 SHL SUB DUP12 AND PUSH1 0x80 DUP8 ADD MSTORE DUP10 DUP3 AND PUSH1 0xA0 DUP8 ADD MSTORE PUSH1 0xC0 DUP7 ADD DUP10 SWAP1 MSTORE PUSH1 0xE0 DUP7 ADD DUP9 SWAP1 MSTORE PUSH1 0x0 PUSH2 0x100 DUP8 ADD DUP2 SWAP1 MSTORE PUSH2 0x120 DUP8 ADD DUP2 SWAP1 MSTORE DUP4 DUP2 MSTORE SWAP4 DUP5 SWAP1 MSTORE SWAP4 SWAP1 SWAP3 KECCAK256 DUP5 MLOAD DUP2 SLOAD PUSH1 0x1 PUSH1 0x1 PUSH1 0xA0 SHL SUB NOT AND SWAP4 AND SWAP3 SWAP1 SWAP3 OR DUP3 SSTORE SWAP2 MLOAD SWAP2 SWAP4 POP SWAP1 PUSH1 0x1 DUP3 ADD SWAP1 PUSH2 0x4C9 SWAP1 DUP3 PUSH2 0xA2F JUMP JUMPDEST POP PUSH1 0x40 DUP3 DUP2 ADD MLOAD PUSH1 0x2 DUP4 ADD DUP1 SLOAD PUSH1 0x1 PUSH1 0x1 PUSH1 0xA0 SHL SUB NOT SWAP1 DUP2 AND PUSH1 0x1 PUSH1 0x1 PUSH1 0xA0 SHL SUB SWAP4 DUP5 AND OR SWAP1 SWAP2 SSTORE PUSH1 0x60 DUP6 ADD MLOAD PUSH1 0x3 DUP6 ADD DUP1 SLOAD PUSH1 0x80 DUP9 ADD MLOAD SWAP3 DUP6 AND PUSH1 0x1 PUSH1 0x1 PUSH1 0xE0 SHL SUB NOT SWAP1 SWAP2 AND OR PUSH1 0x1 PUSH1 0xA0 SHL PUSH1 0x1 PUSH1 0x1 PUSH1 0x40 SHL SUB SWAP1 SWAP4 AND SWAP3 SWAP1 SWAP3 MUL SWAP2 SWAP1 SWAP2 OR SWAP1 SSTORE PUSH1 0xA0 DUP6 ADD MLOAD PUSH1 0x4 DUP6 ADD DUP1 SLOAD SWAP1 SWAP3 AND SWAP1 DUP4 AND OR SWAP1 SSTORE PUSH1 0xC0 DUP5 ADD MLOAD PUSH1 0x5 DUP5 ADD SSTORE PUSH1 0xE0 DUP5 ADD MLOAD PUSH1 0x6 DUP5 ADD SSTORE PUSH2 0x100 DUP1 DUP6 ADD MLOAD PUSH1 0x7 SWAP1 SWAP5 ADD DUP1 SLOAD PUSH2 0x120 SWAP1 SWAP7 ADD MLOAD PUSH2 0xFFFF NOT SWAP1 SWAP7 AND SWAP5 ISZERO ISZERO PUSH2 0xFF00 NOT AND SWAP5 SWAP1 SWAP5 OR SWAP5 ISZERO ISZERO MUL SWAP4 SWAP1 SWAP4 OR SWAP1 SWAP2 SSTORE MLOAD SWAP1 DUP10 AND SWAP1 DUP3 SWAP1 PUSH32 0xA6CDD1C5904DED4E53151FAF7E6E3D968E9F4F2FDE0B598F6C04406BFE35B577 SWAP1 PUSH2 0x5C6 SWAP1 DUP14 SWAP1 DUP13 SWAP1 DUP13 SWAP1 DUP13 SWAP1 DUP13 SWAP1 DUP13 SWAP1 DUP13 SWAP1 PUSH2 0xAED JUMP JUMPDEST PUSH1 0x40 MLOAD DUP1 SWAP2 SUB SWAP1 LOG3 SWAP9 SWAP8 POP POP POP POP POP POP POP POP JUMP JUMPDEST PUSH1 0x0 PUSH1 0x20 DUP2 SWAP1 MSTORE SWAP1 DUP2 MSTORE PUSH1 0x40 SWAP1 KECCAK256 DUP1 SLOAD PUSH1 0x1 DUP3 ADD DUP1 SLOAD PUSH1 0x1 PUSH1 0x1 PUSH1 0xA0 SHL SUB SWAP1 SWAP3 AND SWAP3 SWAP2 PUSH2 0x606 SWAP1 PUSH2 0x962 JUMP JUMPDEST DUP1 PUSH1 0x1F ADD PUSH1 0x20 DUP1 SWAP2 DIV MUL PUSH1 0x20 ADD PUSH1 0x40 MLOAD SWAP1 DUP2 ADD PUSH1 0x40 MSTORE DUP1 SWAP3 SWAP2 SWAP1 DUP2 DUP2 MSTORE PUSH1 0x20 ADD DUP3 DUP1 SLOAD PUSH2 0x632 SWAP1 PUSH2 0x962 JUMP JUMPDEST DUP1 ISZERO PUSH2 0x67F JUMPI DUP1 PUSH1 0x1F LT PUSH2 0x654 JUMPI PUSH2 0x100 DUP1 DUP4 SLOAD DIV MUL DUP4 MSTORE SWAP2 PUSH1 0x20 ADD SWAP2 PUSH2 0x67F JUMP JUMPDEST DUP3 ADD SWAP2 SWAP1 PUSH1 0x0 MSTORE PUSH1 0x20 PUSH1 0x0 KECCAK256 SWAP1 JUMPDEST DUP2 SLOAD DUP2 MSTORE SWAP1 PUSH1 0x1 ADD SWAP1 PUSH1 0x20 ADD DUP1 DUP4 GT PUSH2 0x662 JUMPI DUP3 SWAP1 SUB PUSH1 0x1F AND DUP3 ADD SWAP2 JUMPDEST POP POP POP POP PUSH1 0x2 DUP4 ADD SLOAD PUSH1 0x3 DUP5 ADD SLOAD PUSH1 0x4 DUP6 ADD SLOAD PUSH1 0x5 DUP7 ADD SLOAD PUSH1 0x6 DUP8 ADD SLOAD PUSH1 0x7 SWAP1 SWAP8 ADD SLOAD SWAP6 SWAP7 PUSH1 0x1 PUSH1 0x1 PUSH1 0xA0 SHL SUB SWAP5 DUP6 AND SWAP7 DUP6 DUP6 AND SWAP7 POP PUSH1 0x1 PUSH1 0xA0 SHL SWAP1 SWAP5 DIV PUSH1 0x1 PUSH1 0x1 PUSH1 0x40 SHL SUB AND SWAP5 SWAP1 SWAP3 AND SWAP3 SWAP1 SWAP2 SWAP1 PUSH1 0xFF DUP1 DUP3 AND SWAP2 PUSH2 0x100 SWAP1 DIV AND DUP11 JUMP JUMPDEST PUSH1 0x0 PUSH1 0x20 DUP3 DUP5 SUB SLT ISZERO PUSH2 0x6EF JUMPI PUSH1 0x0 DUP1 REVERT JUMPDEST POP CALLDATALOAD SWAP2 SWAP1 POP JUMP JUMPDEST PUSH1 0x0 JUMPDEST DUP4 DUP2 LT ISZERO PUSH2 0x711 JUMPI DUP2 DUP2 ADD MLOAD DUP4 DUP3 ADD MSTORE PUSH1 0x20 ADD PUSH2 0x6F9 JUMP JUMPDEST POP POP PUSH1 0x0 SWAP2 ADD MSTORE JUMP JUMPDEST PUSH1 0x0 DUP2 MLOAD DUP1 DUP5 MSTORE PUSH2 0x732 DUP2 PUSH1 0x20 DUP7 ADD PUSH1 0x20 DUP7 ADD PUSH2 0x6F6 JUMP JUMPDEST PUSH1 0x1F ADD PUSH1 0x1F NOT AND SWAP3 SWAP1 SWAP3 ADD PUSH1 0x20 ADD SWAP3 SWAP2 POP POP JUMP JUMPDEST PUSH1 0x1 PUSH1 0x1 PUSH1 0xA0 SHL SUB DUP12 AND DUP2 MSTORE PUSH2 0x140 PUSH1 0x20 DUP3 ADD DUP2 SWAP1 MSTORE PUSH1 0x0 SWAP1 PUSH2 0x76B SWAP1 DUP4 ADD DUP13 PUSH2 0x71A JUMP JUMPDEST PUSH1 0x1 PUSH1 0x1 PUSH1 0xA0 SHL SUB SWAP11 DUP12 AND PUSH1 0x40 DUP5 ADD MSTORE SWAP9 DUP11 AND PUSH1 0x60 DUP4 ADD MSTORE POP PUSH1 0x1 PUSH1 0x1 PUSH1 0x40 SHL SUB SWAP7 SWAP1 SWAP7 AND PUSH1 0x80 DUP8 ADD MSTORE SWAP4 SWAP1 SWAP7 AND PUSH1 0xA0 DUP6 ADD MSTORE PUSH1 0xC0 DUP5 ADD SWAP2 SWAP1 SWAP2 MSTORE PUSH1 0xE0 DUP4 ADD MSTORE SWAP3 ISZERO ISZERO PUSH2 0x100 DUP3 ADD MSTORE SWAP2 ISZERO ISZERO PUSH2 0x120 SWAP1 SWAP3 ADD SWAP2 SWAP1 SWAP2 MSTORE SWAP3 SWAP2 POP POP JUMP JUMPDEST PUSH1 0x0 DUP1 PUSH1 0x40 DUP4 DUP6 SUB SLT ISZERO PUSH2 0x7DA JUMPI PUSH1 0x0 DUP1 REVERT JUMPDEST DUP3 CALLDATALOAD SWAP2 POP PUSH1 0x20 DUP4 ADD CALLDATALOAD DUP1 ISZERO ISZERO DUP2 EQ PUSH2 0x7F1 JUMPI PUSH1 0x0 DUP1 REVERT JUMPDEST DUP1 SWAP2 POP POP SWAP3 POP SWAP3 SWAP1 POP JUMP JUMPDEST PUSH4 0x4E487B71 PUSH1 0xE0 SHL PUSH1 0x0 MSTORE PUSH1 0x41 PUSH1 0x4 MSTORE PUSH1 0x24 PUSH1 0x0 REVERT JUMPDEST DUP1 CALLDATALOAD PUSH1 0x1 PUSH1 0x1 PUSH1 0xA0 SHL SUB DUP2 AND DUP2 EQ PUSH2 0x829 JUMPI PUSH1 0x0 DUP1 REVERT JUMPDEST SWAP2 SWAP1 POP JUMP JUMPDEST DUP1 CALLDATALOAD PUSH1 0x1 PUSH1 0x1 PUSH1 0x40 SHL SUB DUP2 AND DUP2 EQ PUSH2 0x829 JUMPI PUSH1 0x0 DUP1 REVERT JUMPDEST PUSH1 0x0 DUP1 PUSH1 0x0 DUP1 PUSH1 0x0 DUP1 PUSH1 0x0 DUP1 PUSH2 0x100 DUP10 DUP12 SUB SLT ISZERO PUSH2 0x862 JUMPI PUSH1 0x0 DUP1 REVERT JUMPDEST DUP9 CALLDATALOAD PUSH1 0x1 PUSH1 0x1 PUSH1 0x40 SHL SUB DUP2 GT ISZERO PUSH2 0x878 JUMPI PUSH1 0x0 DUP1 REVERT JUMPDEST DUP10 ADD PUSH1 0x1F DUP2 ADD DUP12 SGT PUSH2 0x889 JUMPI PUSH1 0x0 DUP1 REVERT JUMPDEST DUP1 CALLDATALOAD PUSH1 0x1 PUSH1 0x1 PUSH1 0x40 SHL SUB DUP2 GT ISZERO PUSH2 0x8A2 JUMPI PUSH2 0x8A2 PUSH2 0x7FC JUMP JUMPDEST PUSH1 0x40 MLOAD PUSH1 0x1F DUP3 ADD PUSH1 0x1F NOT SWAP1 DUP2 AND PUSH1 0x3F ADD AND DUP2 ADD PUSH1 0x1 PUSH1 0x1 PUSH1 0x40 SHL SUB DUP2 GT DUP3 DUP3 LT OR ISZERO PUSH2 0x8D0 JUMPI PUSH2 0x8D0 PUSH2 0x7FC JUMP JUMPDEST PUSH1 0x40 MSTORE DUP2 DUP2 MSTORE DUP3 DUP3 ADD PUSH1 0x20 ADD DUP14 LT ISZERO PUSH2 0x8E8 JUMPI PUSH1 0x0 DUP1 REVERT JUMPDEST DUP2 PUSH1 0x20 DUP5 ADD PUSH1 0x20 DUP4 ADD CALLDATACOPY PUSH1 0x0 PUSH1 0x20 DUP4 DUP4 ADD ADD MSTORE DUP1 SWAP11 POP POP POP POP PUSH2 0x90D PUSH1 0x20 DUP11 ADD PUSH2 0x812 JUMP JUMPDEST SWAP7 POP PUSH2 0x91B PUSH1 0x40 DUP11 ADD PUSH2 0x812 JUMP JUMPDEST SWAP6 POP PUSH2 0x929 PUSH1 0x60 DUP11 ADD PUSH2 0x812 JUMP JUMPDEST SWAP5 POP PUSH2 0x937 PUSH1 0x80 DUP11 ADD PUSH2 0x82E JUMP JUMPDEST SWAP4 POP PUSH2 0x945 PUSH1 0xA0 DUP11 ADD PUSH2 0x812 JUMP JUMPDEST SWAP8 SWAP11 SWAP7 SWAP10 POP SWAP5 SWAP8 SWAP4 SWAP7 SWAP3 SWAP6 SWAP3 SWAP5 POP POP POP PUSH1 0xC0 DUP3 ADD CALLDATALOAD SWAP2 PUSH1 0xE0 ADD CALLDATALOAD SWAP1 JUMP JUMPDEST PUSH1 0x1 DUP2 DUP2 SHR SWAP1 DUP3 AND DUP1 PUSH2 0x976 JUMPI PUSH1 0x7F DUP3 AND SWAP2 POP JUMPDEST PUSH1 0x20 DUP3 LT DUP2 SUB PUSH2 0x996 JUMPI PUSH4 0x4E487B71 PUSH1 0xE0 SHL PUSH1 0x0 MSTORE PUSH1 0x22 PUSH1 0x4 MSTORE PUSH1 0x24 PUSH1 0x0 REVERT JUMPDEST POP SWAP2 SWAP1 POP JUMP JUMPDEST PUSH1 0x0 DUP6 MLOAD PUSH2 0x9AE DUP2 DUP5 PUSH1 0x20 DUP11 ADD PUSH2 0x6F6 JUMP JUMPDEST PUSH1 0x60 SWAP6 SWAP1 SWAP6 SHL PUSH12 0xFFFFFFFFFFFFFFFFFFFFFFFF NOT AND SWAP2 SWAP1 SWAP5 ADD SWAP1 DUP2 MSTORE PUSH1 0x14 DUP2 ADD SWAP3 SWAP1 SWAP3 MSTORE PUSH1 0x34 DUP3 ADD MSTORE PUSH1 0x54 ADD SWAP3 SWAP2 POP POP JUMP JUMPDEST PUSH1 0x1F DUP3 GT ISZERO PUSH2 0xA2A JUMPI DUP1 PUSH1 0x0 MSTORE PUSH1 0x20 PUSH1 0x0 KECCAK256 PUSH1 0x1F DUP5 ADD PUSH1 0x5 SHR DUP2 ADD PUSH1 0x20 DUP6 LT ISZERO PUSH2 0xA07 JUMPI POP DUP1 JUMPDEST PUSH1 0x1F DUP5 ADD PUSH1 0x5 SHR DUP3 ADD SWAP2 POP JUMPDEST DUP2 DUP2 LT ISZERO PUSH2 0xA27 JUMPI PUSH1 0x0 DUP2 SSTORE PUSH1 0x1 ADD PUSH2 0xA13 JUMP JUMPDEST POP POP JUMPDEST POP POP POP JUMP JUMPDEST DUP2 MLOAD PUSH1 0x1 PUSH1 0x1 PUSH1 0x40 SHL SUB DUP2 GT ISZERO PUSH2 0xA48 JUMPI PUSH2 0xA48 PUSH2 0x7FC JUMP JUMPDEST PUSH2 0xA5C DUP2 PUSH2 0xA56 DUP5 SLOAD PUSH2 0x962 JUMP JUMPDEST DUP5 PUSH2 0x9E0 JUMP JUMPDEST PUSH1 0x20 PUSH1 0x1F DUP3 GT PUSH1 0x1 DUP2 EQ PUSH2 0xA90 JUMPI PUSH1 0x0 DUP4 ISZERO PUSH2 0xA78 JUMPI POP DUP5 DUP3 ADD MLOAD JUMPDEST PUSH1 0x0 NOT PUSH1 0x3 DUP6 SWAP1 SHL SHR NOT AND PUSH1 0x1 DUP5 SWAP1 SHL OR DUP5 SSTORE PUSH2 0xA27 JUMP JUMPDEST PUSH1 0x0 DUP5 DUP2 MSTORE PUSH1 0x20 DUP2 KECCAK256 PUSH1 0x1F NOT DUP6 AND SWAP2 JUMPDEST DUP3 DUP2 LT ISZERO PUSH2 0xAC0 JUMPI DUP8 DUP6 ADD MLOAD DUP3 SSTORE PUSH1 0x20 SWAP5 DUP6 ADD SWAP5 PUSH1 0x1 SWAP1 SWAP3 ADD SWAP2 ADD PUSH2 0xAA0 JUMP JUMPDEST POP DUP5 DUP3 LT ISZERO PUSH2 0xADE JUMPI DUP7 DUP5 ADD MLOAD PUSH1 0x0 NOT PUSH1 0x3 DUP8 SWAP1 SHL PUSH1 0xF8 AND SHR NOT AND DUP2 SSTORE JUMPDEST POP POP POP POP PUSH1 0x1 SWAP1 DUP2 SHL ADD SWAP1 SSTORE POP JUMP JUMPDEST PUSH1 0xE0 DUP2 MSTORE PUSH1 0x0 PUSH2 0xB00 PUSH1 0xE0 DUP4 ADD DUP11 PUSH2 0x71A JUMP JUMPDEST PUSH1 0x1 PUSH1 0x1 PUSH1 0xA0 SHL SUB SWAP9 DUP10 AND PUSH1 0x20 DUP5 ADD MSTORE SWAP7 DUP9 AND PUSH1 0x40 DUP4 ADD MSTORE POP PUSH1 0x1 PUSH1 0x1 PUSH1 0x40 SHL SUB SWAP5 SWAP1 SWAP5 AND PUSH1 0x60 DUP6 ADD MSTORE SWAP2 SWAP1 SWAP5 AND PUSH1 0x80 DUP4 ADD MSTORE PUSH1 0xA0 DUP3 ADD SWAP4 SWAP1 SWAP4 MSTORE PUSH1 0xC0 ADD SWAP2 SWAP1 SWAP2 MSTORE SWAP2 SWAP1 POP JUMP INVALID LOG2 PUSH5 0x6970667358 0x22 SLT KECCAK256 OR 0x4E 0x26 0xC5 0xB3 0xB1 TSTORE SLOAD MSIZE AND 0xC0 0xBD 0xBB GASLIMIT 0x27 0xBA 0x4C 0xBA 0xBF DUP9 STATICCALL 0xA7 MOD REVERT MSTORE STATICCALL 0xDA AND 0xA9 TIMESTAMP 0xEC 0xBD PUSH5 0x736F6C6343 STOP ADDMOD BYTE STOP CALLER "},"methodIdentifiers":{"assertTruth(bytes,address,address,address,uint64,address,uint256,bytes32)":"b905d7c8","assertions(bytes32)":"d60715b5","getAssertion(bytes32)":"88302884","settleAssertion(bytes32,bool)":"aae82fd9"}}}}}