{"contracts/adapter/GnosisAdapter.sol":{"GnosisAdapter":{"abi":[{"inputs":[{"internalType":"address","name":"vpoAdapter_","type":"address"},{"internalType":"address","name":"conditionalTokens_","type":"address"},{"internalType":"address","name":"admin_","type":"address"}],"stateMutability":"nonpayable","type":"constructor"},{"inputs":[],"name":"AlreadyFulfilled","type":"error"},{"inputs":[],"name":"NotFound","type":"error"},{"inputs":[],"name":"OnlyAdmin","type":"error"},{"inputs":[],"name":"ZeroAddress","type":"error"},{"anonymous":false,"inputs":[{"indexed":true,"internalType":"bytes32","name":"conditionId","type":"bytes32"},{"indexed":true,"internalType":"bytes32","name":"requestId","type":"bytes32"},{"indexed":false,"internalType":"bytes32","name":"questionId","type":"bytes32"},{"indexed":false,"internalType":"uint256","name":"outcomeSlotCount","type":"uint256"}],"name":"ConditionHandled","type":"event"},{"anonymous":false,"inputs":[{"indexed":true,"internalType":"bytes32","name":"conditionId","type":"bytes32"},{"indexed":true,"internalType":"bytes32","name":"requestId","type":"bytes32"},{"indexed":false,"internalType":"bool","name":"outcome","type":"bool"}],"name":"ConditionResolved","type":"event"},{"inputs":[],"name":"admin","outputs":[{"internalType":"address","name":"","type":"address"}],"stateMutability":"view","type":"function"},{"inputs":[{"internalType":"bytes32","name":"","type":"bytes32"}],"name":"conditionResolved","outputs":[{"internalType":"bool","name":"","type":"bool"}],"stateMutability":"view","type":"function"},{"inputs":[{"internalType":"bytes32","name":"","type":"bytes32"}],"name":"conditionToRequest","outputs":[{"internalType":"bytes32","name":"","type":"bytes32"}],"stateMutability":"view","type":"function"},{"inputs":[],"name":"conditionalTokens","outputs":[{"internalType":"contract IGnosisConditionalTokens","name":"","type":"address"}],"stateMutability":"view","type":"function"},{"inputs":[{"internalType":"bytes32","name":"requestId","type":"bytes32"}],"name":"getConditionId","outputs":[{"internalType":"bytes32","name":"conditionId","type":"bytes32"}],"stateMutability":"view","type":"function"},{"inputs":[{"internalType":"bytes32","name":"conditionId","type":"bytes32"}],"name":"getRequestId","outputs":[{"internalType":"bytes32","name":"requestId","type":"bytes32"}],"stateMutability":"view","type":"function"},{"inputs":[{"internalType":"bytes32","name":"conditionId","type":"bytes32"},{"internalType":"bytes32","name":"questionId","type":"bytes32"},{"internalType":"uint256","name":"outcomeSlotCount","type":"uint256"},{"internalType":"bytes","name":"data","type":"bytes"}],"name":"handleCondition","outputs":[{"internalType":"bytes32","name":"requestId","type":"bytes32"}],"stateMutability":"nonpayable","type":"function"},{"inputs":[{"internalType":"bytes32","name":"","type":"bytes32"}],"name":"requestToCondition","outputs":[{"internalType":"bytes32","name":"","type":"bytes32"}],"stateMutability":"view","type":"function"},{"inputs":[{"internalType":"bytes32","name":"requestId","type":"bytes32"},{"internalType":"uint256","name":"outcomeSlotCount","type":"uint256"}],"name":"resolveCondition","outputs":[{"internalType":"bytes32","name":"conditionId","type":"bytes32"}],"stateMutability":"nonpayable","type":"function"},{"inputs":[],"name":"vpoAdapter","outputs":[{"internalType":"contract IVPOAdapter","name":"","type":"address"}],"stateMutability":"view","type":"function"}],"evm":{"bytecode":{"linkReferences":{},"object":"60c060405234801561001057600080fd5b50604051610db2380380610db283398101604081905261002f916100ee565b6001600160a01b0383166100565760405163d92e233d60e01b815260040160405180910390fd5b6001600160a01b03821661007d5760405163d92e233d60e01b815260040160405180910390fd5b6001600160a01b0381166100a45760405163d92e233d60e01b815260040160405180910390fd5b6001600160a01b0392831660805290821660a052600080546001600160a01b03191691909216179055610131565b80516001600160a01b03811681146100e957600080fd5b919050565b60008060006060848603121561010357600080fd5b61010c846100d2565b925061011a602085016100d2565b9150610128604085016100d2565b90509250925092565b60805160a051610c39610179600039600081816101730152818161022b0152818161053e015261076b0152600081816101340152818161030001526104620152610c396000f3fe608060405234801561001057600080fd5b506004361061009e5760003560e01c80635bd9e299116100665780635bd9e2991461016e5780636b28ccf9146101955780636ddf5730146101b55780639d8b43a5146101d5578063f851a440146101f557600080fd5b806304329c03146100a357806335c0c25e146100d657806339ed28b4146101095780634e4bdc7e1461011c578063591b2daf1461012f575b600080fd5b6100c36100b1366004610838565b60009081526002602052604090205490565b6040519081526020015b60405180910390f35b6100f96100e4366004610838565b60036020526000908152604090205460ff1681565b60405190151581526020016100cd565b6100c3610117366004610851565b610208565b6100c361012a3660046108e0565b6103e5565b6101567f000000000000000000000000000000000000000000000000000000000000000081565b6040516001600160a01b0390911681526020016100cd565b6101567f000000000000000000000000000000000000000000000000000000000000000081565b6100c36101a3366004610838565b60026020526000908152604090205481565b6100c36101c3366004610838565b60016020526000908152604090205481565b6100c36101e3366004610838565b60009081526001602052604090205490565b600054610156906001600160a01b031681565b60405163a254aac760e01b81526004810186905260009081906001600160a01b037f0000000000000000000000000000000000000000000000000000000000000000169063a254aac790602401600060405180830381865afa158015610272573d6000803e3d6000fd5b505050506040513d6000823e601f3d908101601f1916820160405261029a919081019061095e565b50905080156102bc57604051634a4117f960e01b815260040160405180910390fd5b600087815260016020526040902054156102e957604051634a4117f960e01b815260040160405180910390fd5b6040516329384caf60e21b81526001600160a01b037f0000000000000000000000000000000000000000000000000000000000000000169063a4e132bc90610339908a9088908890600401610a1e565b6020604051808303816000875af1158015610358573d6000803e3d6000fd5b505050506040513d601f19601f8201168201806040525081019061037c9190610a54565b600088815260016020908152604080832084905583835260028252918290208a90558151898152908101889052919350839189917f8871d37b025fb5dd6cdcab646a73f39f617113c4d8337ed245825c4ef3db35e5910160405180910390a35095945050505050565b600080546001600160a01b0316331461041157604051634755657960e01b815260040160405180910390fd5b506000828152600260205260409020548061043f5760405163c5723b5160e01b815260040160405180910390fd5b6040516396c59cc160e01b81526004810184905260009081906001600160a01b037f000000000000000000000000000000000000000000000000000000000000000016906396c59cc190602401600060405180830381865afa1580156104a9573d6000803e3d6000fd5b505050506040513d6000823e601f3d908101601f191682016040526104d19190810190610af3565b509250509150816104f55760405163c5723b5160e01b815260040160405180910390fd5b60008381526003602052604090205460ff161561052557604051634a4117f960e01b815260040160405180910390fd5b60405163a254aac760e01b8152600481018490526000907f00000000000000000000000000000000000000000000000000000000000000006001600160a01b03169063a254aac790602401600060405180830381865afa15801561058d573d6000803e3d6000fd5b505050506040513d6000823e601f3d908101601f191682016040526105b5919081019061095e565b509050801561061f5760008481526003602052604090819020805460ff1916600117905551869085907fd4f52ab5fba0009b912ee555cc8105b66284f4dc2f90c13f048c1b397aedd9b39061060f90861515815260200190565b60405180910390a3505050610832565b60008567ffffffffffffffff81111561063a5761063a610917565b604051908082528060200260200182016040528015610663578160200160208202803683370190505b50905082156106c45760018160008151811061068157610681610b7d565b602090810291909101015260015b868110156106be5760008282815181106106ab576106ab610b7d565b602090810291909101015260010161068f565b50610754565b6000816000815181106106d9576106d9610b7d565b6020026020010181815250506001861115610754576001816106fb8289610b93565b8151811061070b5761070b610b7d565b602090810291909101015260015b610724600188610b93565b81101561075257600082828151811061073f5761073f610b7d565b6020908102919091010152600101610719565b505b604051633124a62b60e21b81526001600160a01b037f0000000000000000000000000000000000000000000000000000000000000000169063c49298ac906107a29088908590600401610bb4565b600060405180830381600087803b1580156107bc57600080fd5b505af11580156107d0573d6000803e3d6000fd5b50505060008681526003602052604090819020805460ff191660011790555188915086907fd4f52ab5fba0009b912ee555cc8105b66284f4dc2f90c13f048c1b397aedd9b39061082590871515815260200190565b60405180910390a3505050505b92915050565b60006020828403121561084a57600080fd5b5035919050565b60008060008060006080868803121561086957600080fd5b853594506020860135935060408601359250606086013567ffffffffffffffff81111561089557600080fd5b8601601f810188136108a657600080fd5b803567ffffffffffffffff8111156108bd57600080fd5b8860208284010111156108cf57600080fd5b959894975092955050506020019190565b600080604083850312156108f357600080fd5b50508035926020909101359150565b8051801515811461091257600080fd5b919050565b634e487b7160e01b600052604160045260246000fd5b604051601f8201601f1916810167ffffffffffffffff8111828210171561095657610956610917565b604052919050565b6000806040838503121561097157600080fd5b61097a83610902565b9150602083015167ffffffffffffffff81111561099657600080fd5b8301601f810185136109a757600080fd5b805167ffffffffffffffff8111156109c1576109c1610917565b8060051b6109d16020820161092d565b918252602081840181019290810190888411156109ed57600080fd5b6020850194505b83851015610a0f5784518252602094850194909101906109f4565b80955050505050509250929050565b83815260406020820152816040820152818360608301376000818301606090810191909152601f909201601f1916010192915050565b600060208284031215610a6657600080fd5b5051919050565b600082601f830112610a7e57600080fd5b815167ffffffffffffffff811115610a9857610a98610917565b610aab601f8201601f191660200161092d565b818152846020838601011115610ac057600080fd5b60005b82811015610adf57602081860181015183830182015201610ac3565b506000918101602001919091529392505050565b60008060008060808587031215610b0957600080fd5b610b1285610902565b9350602085015167ffffffffffffffff811115610b2e57600080fd5b610b3a87828801610a6d565b935050610b4960408601610902565b9150606085015167ffffffffffffffff811115610b6557600080fd5b610b7187828801610a6d565b91505092959194509250565b634e487b7160e01b600052603260045260246000fd5b8181038181111561083257634e487b7160e01b600052601160045260246000fd5b6000604082018483526040602084015280845180835260608501915060208601925060005b81811015610bf7578351835260209384019390920191600101610bd9565b5090969550505050505056fea2646970667358221220bc12f2a7a50b49f534df79a8abf95b09227a11970fec97adfcf67f6671eb1f7464736f6c634300081a0033","opcodes":"PUSH1 0xC0 PUSH1 0x40 MSTORE CALLVALUE DUP1 ISZERO PUSH2 0x10 JUMPI PUSH1 0x0 DUP1 REVERT JUMPDEST POP PUSH1 0x40 MLOAD PUSH2 0xDB2 CODESIZE SUB DUP1 PUSH2 0xDB2 DUP4 CODECOPY DUP2 ADD PUSH1 0x40 DUP2 SWAP1 MSTORE PUSH2 0x2F SWAP2 PUSH2 0xEE JUMP JUMPDEST PUSH1 0x1 PUSH1 0x1 PUSH1 0xA0 SHL SUB DUP4 AND PUSH2 0x56 JUMPI PUSH1 0x40 MLOAD PUSH4 0xD92E233D PUSH1 0xE0 SHL DUP2 MSTORE PUSH1 0x4 ADD PUSH1 0x40 MLOAD DUP1 SWAP2 SUB SWAP1 REVERT JUMPDEST PUSH1 0x1 PUSH1 0x1 PUSH1 0xA0 SHL SUB DUP3 AND PUSH2 0x7D JUMPI PUSH1 0x40 MLOAD PUSH4 0xD92E233D PUSH1 0xE0 SHL DUP2 MSTORE PUSH1 0x4 ADD PUSH1 0x40 MLOAD DUP1 SWAP2 SUB SWAP1 REVERT JUMPDEST PUSH1 0x1 PUSH1 0x1 PUSH1 0xA0 SHL SUB DUP2 AND PUSH2 0xA4 JUMPI PUSH1 0x40 MLOAD PUSH4 0xD92E233D PUSH1 0xE0 SHL DUP2 MSTORE PUSH1 0x4 ADD PUSH1 0x40 MLOAD DUP1 SWAP2 SUB SWAP1 REVERT JUMPDEST PUSH1 0x1 PUSH1 0x1 PUSH1 0xA0 SHL SUB SWAP3 DUP4 AND PUSH1 0x80 MSTORE SWAP1 DUP3 AND PUSH1 0xA0 MSTORE PUSH1 0x0 DUP1 SLOAD PUSH1 0x1 PUSH1 0x1 PUSH1 0xA0 SHL SUB NOT AND SWAP2 SWAP1 SWAP3 AND OR SWAP1 SSTORE PUSH2 0x131 JUMP JUMPDEST DUP1 MLOAD PUSH1 0x1 PUSH1 0x1 PUSH1 0xA0 SHL SUB DUP2 AND DUP2 EQ PUSH2 0xE9 JUMPI PUSH1 0x0 DUP1 REVERT JUMPDEST SWAP2 SWAP1 POP JUMP JUMPDEST PUSH1 0x0 DUP1 PUSH1 0x0 PUSH1 0x60 DUP5 DUP7 SUB SLT ISZERO PUSH2 0x103 JUMPI PUSH1 0x0 DUP1 REVERT JUMPDEST PUSH2 0x10C DUP5 PUSH2 0xD2 JUMP JUMPDEST SWAP3 POP PUSH2 0x11A PUSH1 0x20 DUP6 ADD PUSH2 0xD2 JUMP JUMPDEST SWAP2 POP PUSH2 0x128 PUSH1 0x40 DUP6 ADD PUSH2 0xD2 JUMP JUMPDEST SWAP1 POP SWAP3 POP SWAP3 POP SWAP3 JUMP JUMPDEST PUSH1 0x80 MLOAD PUSH1 0xA0 MLOAD PUSH2 0xC39 PUSH2 0x179 PUSH1 0x0 CODECOPY PUSH1 0x0 DUP2 DUP2 PUSH2 0x173 ADD MSTORE DUP2 DUP2 PUSH2 0x22B ADD MSTORE DUP2 DUP2 PUSH2 0x53E ADD MSTORE PUSH2 0x76B ADD MSTORE PUSH1 0x0 DUP2 DUP2 PUSH2 0x134 ADD MSTORE DUP2 DUP2 PUSH2 0x300 ADD MSTORE PUSH2 0x462 ADD MSTORE PUSH2 0xC39 PUSH1 0x0 RETURN INVALID PUSH1 0x80 PUSH1 0x40 MSTORE CALLVALUE DUP1 ISZERO PUSH2 0x10 JUMPI PUSH1 0x0 DUP1 REVERT JUMPDEST POP PUSH1 0x4 CALLDATASIZE LT PUSH2 0x9E JUMPI PUSH1 0x0 CALLDATALOAD PUSH1 0xE0 SHR DUP1 PUSH4 0x5BD9E299 GT PUSH2 0x66 JUMPI DUP1 PUSH4 0x5BD9E299 EQ PUSH2 0x16E JUMPI DUP1 PUSH4 0x6B28CCF9 EQ PUSH2 0x195 JUMPI DUP1 PUSH4 0x6DDF5730 EQ PUSH2 0x1B5 JUMPI DUP1 PUSH4 0x9D8B43A5 EQ PUSH2 0x1D5 JUMPI DUP1 PUSH4 0xF851A440 EQ PUSH2 0x1F5 JUMPI PUSH1 0x0 DUP1 REVERT JUMPDEST DUP1 PUSH4 0x4329C03 EQ PUSH2 0xA3 JUMPI DUP1 PUSH4 0x35C0C25E EQ PUSH2 0xD6 JUMPI DUP1 PUSH4 0x39ED28B4 EQ PUSH2 0x109 JUMPI DUP1 PUSH4 0x4E4BDC7E EQ PUSH2 0x11C JUMPI DUP1 PUSH4 0x591B2DAF EQ PUSH2 0x12F JUMPI JUMPDEST PUSH1 0x0 DUP1 REVERT JUMPDEST PUSH2 0xC3 PUSH2 0xB1 CALLDATASIZE PUSH1 0x4 PUSH2 0x838 JUMP JUMPDEST PUSH1 0x0 SWAP1 DUP2 MSTORE PUSH1 0x2 PUSH1 0x20 MSTORE PUSH1 0x40 SWAP1 KECCAK256 SLOAD SWAP1 JUMP JUMPDEST PUSH1 0x40 MLOAD SWAP1 DUP2 MSTORE PUSH1 0x20 ADD JUMPDEST PUSH1 0x40 MLOAD DUP1 SWAP2 SUB SWAP1 RETURN JUMPDEST PUSH2 0xF9 PUSH2 0xE4 CALLDATASIZE PUSH1 0x4 PUSH2 0x838 JUMP JUMPDEST PUSH1 0x3 PUSH1 0x20 MSTORE PUSH1 0x0 SWAP1 DUP2 MSTORE PUSH1 0x40 SWAP1 KECCAK256 SLOAD PUSH1 0xFF AND DUP2 JUMP JUMPDEST PUSH1 0x40 MLOAD SWAP1 ISZERO ISZERO DUP2 MSTORE PUSH1 0x20 ADD PUSH2 0xCD JUMP JUMPDEST PUSH2 0xC3 PUSH2 0x117 CALLDATASIZE PUSH1 0x4 PUSH2 0x851 JUMP JUMPDEST PUSH2 0x208 JUMP JUMPDEST PUSH2 0xC3 PUSH2 0x12A CALLDATASIZE PUSH1 0x4 PUSH2 0x8E0 JUMP JUMPDEST PUSH2 0x3E5 JUMP JUMPDEST PUSH2 0x156 PUSH32 0x0 DUP2 JUMP JUMPDEST PUSH1 0x40 MLOAD PUSH1 0x1 PUSH1 0x1 PUSH1 0xA0 SHL SUB SWAP1 SWAP2 AND DUP2 MSTORE PUSH1 0x20 ADD PUSH2 0xCD JUMP JUMPDEST PUSH2 0x156 PUSH32 0x0 DUP2 JUMP JUMPDEST PUSH2 0xC3 PUSH2 0x1A3 CALLDATASIZE PUSH1 0x4 PUSH2 0x838 JUMP JUMPDEST PUSH1 0x2 PUSH1 0x20 MSTORE PUSH1 0x0 SWAP1 DUP2 MSTORE PUSH1 0x40 SWAP1 KECCAK256 SLOAD DUP2 JUMP JUMPDEST PUSH2 0xC3 PUSH2 0x1C3 CALLDATASIZE PUSH1 0x4 PUSH2 0x838 JUMP JUMPDEST PUSH1 0x1 PUSH1 0x20 MSTORE PUSH1 0x0 SWAP1 DUP2 MSTORE PUSH1 0x40 SWAP1 KECCAK256 SLOAD DUP2 JUMP JUMPDEST PUSH2 0xC3 PUSH2 0x1E3 CALLDATASIZE PUSH1 0x4 PUSH2 0x838 JUMP JUMPDEST PUSH1 0x0 SWAP1 DUP2 MSTORE PUSH1 0x1 PUSH1 0x20 MSTORE PUSH1 0x40 SWAP1 KECCAK256 SLOAD SWAP1 JUMP JUMPDEST PUSH1 0x0 SLOAD PUSH2 0x156 SWAP1 PUSH1 0x1 PUSH1 0x1 PUSH1 0xA0 SHL SUB AND DUP2 JUMP JUMPDEST PUSH1 0x40 MLOAD PUSH4 0xA254AAC7 PUSH1 0xE0 SHL DUP2 MSTORE PUSH1 0x4 DUP2 ADD DUP7 SWAP1 MSTORE PUSH1 0x0 SWAP1 DUP2 SWAP1 PUSH1 0x1 PUSH1 0x1 PUSH1 0xA0 SHL SUB PUSH32 0x0 AND SWAP1 PUSH4 0xA254AAC7 SWAP1 PUSH1 0x24 ADD PUSH1 0x0 PUSH1 0x40 MLOAD DUP1 DUP4 SUB DUP2 DUP7 GAS STATICCALL ISZERO DUP1 ISZERO PUSH2 0x272 JUMPI RETURNDATASIZE PUSH1 0x0 DUP1 RETURNDATACOPY RETURNDATASIZE PUSH1 0x0 REVERT JUMPDEST POP POP POP POP PUSH1 0x40 MLOAD RETURNDATASIZE PUSH1 0x0 DUP3 RETURNDATACOPY PUSH1 0x1F RETURNDATASIZE SWAP1 DUP2 ADD PUSH1 0x1F NOT AND DUP3 ADD PUSH1 0x40 MSTORE PUSH2 0x29A SWAP2 SWAP1 DUP2 ADD SWAP1 PUSH2 0x95E JUMP JUMPDEST POP SWAP1 POP DUP1 ISZERO PUSH2 0x2BC JUMPI PUSH1 0x40 MLOAD PUSH4 0x4A4117F9 PUSH1 0xE0 SHL DUP2 MSTORE PUSH1 0x4 ADD PUSH1 0x40 MLOAD DUP1 SWAP2 SUB SWAP1 REVERT JUMPDEST PUSH1 0x0 DUP8 DUP2 MSTORE PUSH1 0x1 PUSH1 0x20 MSTORE PUSH1 0x40 SWAP1 KECCAK256 SLOAD ISZERO PUSH2 0x2E9 JUMPI PUSH1 0x40 MLOAD PUSH4 0x4A4117F9 PUSH1 0xE0 SHL DUP2 MSTORE PUSH1 0x4 ADD PUSH1 0x40 MLOAD DUP1 SWAP2 SUB SWAP1 REVERT JUMPDEST PUSH1 0x40 MLOAD PUSH4 0x29384CAF PUSH1 0xE2 SHL DUP2 MSTORE PUSH1 0x1 PUSH1 0x1 PUSH1 0xA0 SHL SUB PUSH32 0x0 AND SWAP1 PUSH4 0xA4E132BC SWAP1 PUSH2 0x339 SWAP1 DUP11 SWAP1 DUP9 SWAP1 DUP9 SWAP1 PUSH1 0x4 ADD PUSH2 0xA1E JUMP JUMPDEST PUSH1 0x20 PUSH1 0x40 MLOAD DUP1 DUP4 SUB DUP2 PUSH1 0x0 DUP8 GAS CALL ISZERO DUP1 ISZERO PUSH2 0x358 JUMPI RETURNDATASIZE PUSH1 0x0 DUP1 RETURNDATACOPY RETURNDATASIZE PUSH1 0x0 REVERT JUMPDEST POP POP POP POP PUSH1 0x40 MLOAD RETURNDATASIZE PUSH1 0x1F NOT PUSH1 0x1F DUP3 ADD AND DUP3 ADD DUP1 PUSH1 0x40 MSTORE POP DUP2 ADD SWAP1 PUSH2 0x37C SWAP2 SWAP1 PUSH2 0xA54 JUMP JUMPDEST PUSH1 0x0 DUP9 DUP2 MSTORE PUSH1 0x1 PUSH1 0x20 SWAP1 DUP2 MSTORE PUSH1 0x40 DUP1 DUP4 KECCAK256 DUP5 SWAP1 SSTORE DUP4 DUP4 MSTORE PUSH1 0x2 DUP3 MSTORE SWAP2 DUP3 SWAP1 KECCAK256 DUP11 SWAP1 SSTORE DUP2 MLOAD DUP10 DUP2 MSTORE SWAP1 DUP2 ADD DUP9 SWAP1 MSTORE SWAP2 SWAP4 POP DUP4 SWAP2 DUP10 SWAP2 PUSH32 0x8871D37B025FB5DD6CDCAB646A73F39F617113C4D8337ED245825C4EF3DB35E5 SWAP2 ADD PUSH1 0x40 MLOAD DUP1 SWAP2 SUB SWAP1 LOG3 POP SWAP6 SWAP5 POP POP POP POP POP JUMP JUMPDEST PUSH1 0x0 DUP1 SLOAD PUSH1 0x1 PUSH1 0x1 PUSH1 0xA0 SHL SUB AND CALLER EQ PUSH2 0x411 JUMPI PUSH1 0x40 MLOAD PUSH4 0x47556579 PUSH1 0xE0 SHL DUP2 MSTORE PUSH1 0x4 ADD PUSH1 0x40 MLOAD DUP1 SWAP2 SUB SWAP1 REVERT JUMPDEST POP PUSH1 0x0 DUP3 DUP2 MSTORE PUSH1 0x2 PUSH1 0x20 MSTORE PUSH1 0x40 SWAP1 KECCAK256 SLOAD DUP1 PUSH2 0x43F JUMPI PUSH1 0x40 MLOAD PUSH4 0xC5723B51 PUSH1 0xE0 SHL DUP2 MSTORE PUSH1 0x4 ADD PUSH1 0x40 MLOAD DUP1 SWAP2 SUB SWAP1 REVERT JUMPDEST PUSH1 0x40 MLOAD PUSH4 0x96C59CC1 PUSH1 0xE0 SHL DUP2 MSTORE PUSH1 0x4 DUP2 ADD DUP5 SWAP1 MSTORE PUSH1 0x0 SWAP1 DUP2 SWAP1 PUSH1 0x1 PUSH1 0x1 PUSH1 0xA0 SHL SUB PUSH32 0x0 AND SWAP1 PUSH4 0x96C59CC1 SWAP1 PUSH1 0x24 ADD PUSH1 0x0 PUSH1 0x40 MLOAD DUP1 DUP4 SUB DUP2 DUP7 GAS STATICCALL ISZERO DUP1 ISZERO PUSH2 0x4A9 JUMPI RETURNDATASIZE PUSH1 0x0 DUP1 RETURNDATACOPY RETURNDATASIZE PUSH1 0x0 REVERT JUMPDEST POP POP POP POP PUSH1 0x40 MLOAD RETURNDATASIZE PUSH1 0x0 DUP3 RETURNDATACOPY PUSH1 0x1F RETURNDATASIZE SWAP1 DUP2 ADD PUSH1 0x1F NOT AND DUP3 ADD PUSH1 0x40 MSTORE PUSH2 0x4D1 SWAP2 SWAP1 DUP2 ADD SWAP1 PUSH2 0xAF3 JUMP JUMPDEST POP SWAP3 POP POP SWAP2 POP DUP2 PUSH2 0x4F5 JUMPI PUSH1 0x40 MLOAD PUSH4 0xC5723B51 PUSH1 0xE0 SHL DUP2 MSTORE PUSH1 0x4 ADD PUSH1 0x40 MLOAD DUP1 SWAP2 SUB SWAP1 REVERT JUMPDEST PUSH1 0x0 DUP4 DUP2 MSTORE PUSH1 0x3 PUSH1 0x20 MSTORE PUSH1 0x40 SWAP1 KECCAK256 SLOAD PUSH1 0xFF AND ISZERO PUSH2 0x525 JUMPI PUSH1 0x40 MLOAD PUSH4 0x4A4117F9 PUSH1 0xE0 SHL DUP2 MSTORE PUSH1 0x4 ADD PUSH1 0x40 MLOAD DUP1 SWAP2 SUB SWAP1 REVERT JUMPDEST PUSH1 0x40 MLOAD PUSH4 0xA254AAC7 PUSH1 0xE0 SHL DUP2 MSTORE PUSH1 0x4 DUP2 ADD DUP5 SWAP1 MSTORE PUSH1 0x0 SWAP1 PUSH32 0x0 PUSH1 0x1 PUSH1 0x1 PUSH1 0xA0 SHL SUB AND SWAP1 PUSH4 0xA254AAC7 SWAP1 PUSH1 0x24 ADD PUSH1 0x0 PUSH1 0x40 MLOAD DUP1 DUP4 SUB DUP2 DUP7 GAS STATICCALL ISZERO DUP1 ISZERO PUSH2 0x58D JUMPI RETURNDATASIZE PUSH1 0x0 DUP1 RETURNDATACOPY RETURNDATASIZE PUSH1 0x0 REVERT JUMPDEST POP POP POP POP PUSH1 0x40 MLOAD RETURNDATASIZE PUSH1 0x0 DUP3 RETURNDATACOPY PUSH1 0x1F RETURNDATASIZE SWAP1 DUP2 ADD PUSH1 0x1F NOT AND DUP3 ADD PUSH1 0x40 MSTORE PUSH2 0x5B5 SWAP2 SWAP1 DUP2 ADD SWAP1 PUSH2 0x95E JUMP JUMPDEST POP SWAP1 POP DUP1 ISZERO PUSH2 0x61F JUMPI PUSH1 0x0 DUP5 DUP2 MSTORE PUSH1 0x3 PUSH1 0x20 MSTORE PUSH1 0x40 SWAP1 DUP2 SWAP1 KECCAK256 DUP1 SLOAD PUSH1 0xFF NOT AND PUSH1 0x1 OR SWAP1 SSTORE MLOAD DUP7 SWAP1 DUP6 SWAP1 PUSH32 0xD4F52AB5FBA0009B912EE555CC8105B66284F4DC2F90C13F048C1B397AEDD9B3 SWAP1 PUSH2 0x60F SWAP1 DUP7 ISZERO ISZERO DUP2 MSTORE PUSH1 0x20 ADD SWAP1 JUMP JUMPDEST PUSH1 0x40 MLOAD DUP1 SWAP2 SUB SWAP1 LOG3 POP POP POP PUSH2 0x832 JUMP JUMPDEST PUSH1 0x0 DUP6 PUSH8 0xFFFFFFFFFFFFFFFF DUP2 GT ISZERO PUSH2 0x63A JUMPI PUSH2 0x63A PUSH2 0x917 JUMP JUMPDEST PUSH1 0x40 MLOAD SWAP1 DUP1 DUP3 MSTORE DUP1 PUSH1 0x20 MUL PUSH1 0x20 ADD DUP3 ADD PUSH1 0x40 MSTORE DUP1 ISZERO PUSH2 0x663 JUMPI DUP2 PUSH1 0x20 ADD PUSH1 0x20 DUP3 MUL DUP1 CALLDATASIZE DUP4 CALLDATACOPY ADD SWAP1 POP JUMPDEST POP SWAP1 POP DUP3 ISZERO PUSH2 0x6C4 JUMPI PUSH1 0x1 DUP2 PUSH1 0x0 DUP2 MLOAD DUP2 LT PUSH2 0x681 JUMPI PUSH2 0x681 PUSH2 0xB7D JUMP JUMPDEST PUSH1 0x20 SWAP1 DUP2 MUL SWAP2 SWAP1 SWAP2 ADD ADD MSTORE PUSH1 0x1 JUMPDEST DUP7 DUP2 LT ISZERO PUSH2 0x6BE JUMPI PUSH1 0x0 DUP3 DUP3 DUP2 MLOAD DUP2 LT PUSH2 0x6AB JUMPI PUSH2 0x6AB PUSH2 0xB7D JUMP JUMPDEST PUSH1 0x20 SWAP1 DUP2 MUL SWAP2 SWAP1 SWAP2 ADD ADD MSTORE PUSH1 0x1 ADD PUSH2 0x68F JUMP JUMPDEST POP PUSH2 0x754 JUMP JUMPDEST PUSH1 0x0 DUP2 PUSH1 0x0 DUP2 MLOAD DUP2 LT PUSH2 0x6D9 JUMPI PUSH2 0x6D9 PUSH2 0xB7D JUMP JUMPDEST PUSH1 0x20 MUL PUSH1 0x20 ADD ADD DUP2 DUP2 MSTORE POP POP PUSH1 0x1 DUP7 GT ISZERO PUSH2 0x754 JUMPI PUSH1 0x1 DUP2 PUSH2 0x6FB DUP3 DUP10 PUSH2 0xB93 JUMP JUMPDEST DUP2 MLOAD DUP2 LT PUSH2 0x70B JUMPI PUSH2 0x70B PUSH2 0xB7D JUMP JUMPDEST PUSH1 0x20 SWAP1 DUP2 MUL SWAP2 SWAP1 SWAP2 ADD ADD MSTORE PUSH1 0x1 JUMPDEST PUSH2 0x724 PUSH1 0x1 DUP9 PUSH2 0xB93 JUMP JUMPDEST DUP2 LT ISZERO PUSH2 0x752 JUMPI PUSH1 0x0 DUP3 DUP3 DUP2 MLOAD DUP2 LT PUSH2 0x73F JUMPI PUSH2 0x73F PUSH2 0xB7D JUMP JUMPDEST PUSH1 0x20 SWAP1 DUP2 MUL SWAP2 SWAP1 SWAP2 ADD ADD MSTORE PUSH1 0x1 ADD PUSH2 0x719 JUMP JUMPDEST POP JUMPDEST PUSH1 0x40 MLOAD PUSH4 0x3124A62B PUSH1 0xE2 SHL DUP2 MSTORE PUSH1 0x1 PUSH1 0x1 PUSH1 0xA0 SHL SUB PUSH32 0x0 AND SWAP1 PUSH4 0xC49298AC SWAP1 PUSH2 0x7A2 SWAP1 DUP9 SWAP1 DUP6 SWAP1 PUSH1 0x4 ADD PUSH2 0xBB4 JUMP JUMPDEST PUSH1 0x0 PUSH1 0x40 MLOAD DUP1 DUP4 SUB DUP2 PUSH1 0x0 DUP8 DUP1 EXTCODESIZE ISZERO DUP1 ISZERO PUSH2 0x7BC JUMPI PUSH1 0x0 DUP1 REVERT JUMPDEST POP GAS CALL ISZERO DUP1 ISZERO PUSH2 0x7D0 JUMPI RETURNDATASIZE PUSH1 0x0 DUP1 RETURNDATACOPY RETURNDATASIZE PUSH1 0x0 REVERT JUMPDEST POP POP POP PUSH1 0x0 DUP7 DUP2 MSTORE PUSH1 0x3 PUSH1 0x20 MSTORE PUSH1 0x40 SWAP1 DUP2 SWAP1 KECCAK256 DUP1 SLOAD PUSH1 0xFF NOT AND PUSH1 0x1 OR SWAP1 SSTORE MLOAD DUP9 SWAP2 POP DUP7 SWAP1 PUSH32 0xD4F52AB5FBA0009B912EE555CC8105B66284F4DC2F90C13F048C1B397AEDD9B3 SWAP1 PUSH2 0x825 SWAP1 DUP8 ISZERO ISZERO DUP2 MSTORE PUSH1 0x20 ADD SWAP1 JUMP JUMPDEST PUSH1 0x40 MLOAD DUP1 SWAP2 SUB SWAP1 LOG3 POP POP POP POP JUMPDEST SWAP3 SWAP2 POP POP JUMP JUMPDEST PUSH1 0x0 PUSH1 0x20 DUP3 DUP5 SUB SLT ISZERO PUSH2 0x84A JUMPI PUSH1 0x0 DUP1 REVERT JUMPDEST POP CALLDATALOAD SWAP2 SWAP1 POP JUMP JUMPDEST PUSH1 0x0 DUP1 PUSH1 0x0 DUP1 PUSH1 0x0 PUSH1 0x80 DUP7 DUP9 SUB SLT ISZERO PUSH2 0x869 JUMPI PUSH1 0x0 DUP1 REVERT JUMPDEST DUP6 CALLDATALOAD SWAP5 POP PUSH1 0x20 DUP7 ADD CALLDATALOAD SWAP4 POP PUSH1 0x40 DUP7 ADD CALLDATALOAD SWAP3 POP PUSH1 0x60 DUP7 ADD CALLDATALOAD PUSH8 0xFFFFFFFFFFFFFFFF DUP2 GT ISZERO PUSH2 0x895 JUMPI PUSH1 0x0 DUP1 REVERT JUMPDEST DUP7 ADD PUSH1 0x1F DUP2 ADD DUP9 SGT PUSH2 0x8A6 JUMPI PUSH1 0x0 DUP1 REVERT JUMPDEST DUP1 CALLDATALOAD PUSH8 0xFFFFFFFFFFFFFFFF DUP2 GT ISZERO PUSH2 0x8BD JUMPI PUSH1 0x0 DUP1 REVERT JUMPDEST DUP9 PUSH1 0x20 DUP3 DUP5 ADD ADD GT ISZERO PUSH2 0x8CF JUMPI PUSH1 0x0 DUP1 REVERT JUMPDEST SWAP6 SWAP9 SWAP5 SWAP8 POP SWAP3 SWAP6 POP POP POP PUSH1 0x20 ADD SWAP2 SWAP1 JUMP JUMPDEST PUSH1 0x0 DUP1 PUSH1 0x40 DUP4 DUP6 SUB SLT ISZERO PUSH2 0x8F3 JUMPI PUSH1 0x0 DUP1 REVERT JUMPDEST POP POP DUP1 CALLDATALOAD SWAP3 PUSH1 0x20 SWAP1 SWAP2 ADD CALLDATALOAD SWAP2 POP JUMP JUMPDEST DUP1 MLOAD DUP1 ISZERO ISZERO DUP2 EQ PUSH2 0x912 JUMPI PUSH1 0x0 DUP1 REVERT JUMPDEST SWAP2 SWAP1 POP JUMP JUMPDEST PUSH4 0x4E487B71 PUSH1 0xE0 SHL PUSH1 0x0 MSTORE PUSH1 0x41 PUSH1 0x4 MSTORE PUSH1 0x24 PUSH1 0x0 REVERT JUMPDEST PUSH1 0x40 MLOAD PUSH1 0x1F DUP3 ADD PUSH1 0x1F NOT AND DUP2 ADD PUSH8 0xFFFFFFFFFFFFFFFF DUP2 GT DUP3 DUP3 LT OR ISZERO PUSH2 0x956 JUMPI PUSH2 0x956 PUSH2 0x917 JUMP JUMPDEST PUSH1 0x40 MSTORE SWAP2 SWAP1 POP JUMP JUMPDEST PUSH1 0x0 DUP1 PUSH1 0x40 DUP4 DUP6 SUB SLT ISZERO PUSH2 0x971 JUMPI PUSH1 0x0 DUP1 REVERT JUMPDEST PUSH2 0x97A DUP4 PUSH2 0x902 JUMP JUMPDEST SWAP2 POP PUSH1 0x20 DUP4 ADD MLOAD PUSH8 0xFFFFFFFFFFFFFFFF DUP2 GT ISZERO PUSH2 0x996 JUMPI PUSH1 0x0 DUP1 REVERT JUMPDEST DUP4 ADD PUSH1 0x1F DUP2 ADD DUP6 SGT PUSH2 0x9A7 JUMPI PUSH1 0x0 DUP1 REVERT JUMPDEST DUP1 MLOAD PUSH8 0xFFFFFFFFFFFFFFFF DUP2 GT ISZERO PUSH2 0x9C1 JUMPI PUSH2 0x9C1 PUSH2 0x917 JUMP JUMPDEST DUP1 PUSH1 0x5 SHL PUSH2 0x9D1 PUSH1 0x20 DUP3 ADD PUSH2 0x92D JUMP JUMPDEST SWAP2 DUP3 MSTORE PUSH1 0x20 DUP2 DUP5 ADD DUP2 ADD SWAP3 SWAP1 DUP2 ADD SWAP1 DUP9 DUP5 GT ISZERO PUSH2 0x9ED JUMPI PUSH1 0x0 DUP1 REVERT JUMPDEST PUSH1 0x20 DUP6 ADD SWAP5 POP JUMPDEST DUP4 DUP6 LT ISZERO PUSH2 0xA0F JUMPI DUP5 MLOAD DUP3 MSTORE PUSH1 0x20 SWAP5 DUP6 ADD SWAP5 SWAP1 SWAP2 ADD SWAP1 PUSH2 0x9F4 JUMP JUMPDEST DUP1 SWAP6 POP POP POP POP POP POP SWAP3 POP SWAP3 SWAP1 POP JUMP JUMPDEST DUP4 DUP2 MSTORE PUSH1 0x40 PUSH1 0x20 DUP3 ADD MSTORE DUP2 PUSH1 0x40 DUP3 ADD MSTORE DUP2 DUP4 PUSH1 0x60 DUP4 ADD CALLDATACOPY PUSH1 0x0 DUP2 DUP4 ADD PUSH1 0x60 SWAP1 DUP2 ADD SWAP2 SWAP1 SWAP2 MSTORE PUSH1 0x1F SWAP1 SWAP3 ADD PUSH1 0x1F NOT AND ADD ADD SWAP3 SWAP2 POP POP JUMP JUMPDEST PUSH1 0x0 PUSH1 0x20 DUP3 DUP5 SUB SLT ISZERO PUSH2 0xA66 JUMPI PUSH1 0x0 DUP1 REVERT JUMPDEST POP MLOAD SWAP2 SWAP1 POP JUMP JUMPDEST PUSH1 0x0 DUP3 PUSH1 0x1F DUP4 ADD SLT PUSH2 0xA7E JUMPI PUSH1 0x0 DUP1 REVERT JUMPDEST DUP2 MLOAD PUSH8 0xFFFFFFFFFFFFFFFF DUP2 GT ISZERO PUSH2 0xA98 JUMPI PUSH2 0xA98 PUSH2 0x917 JUMP JUMPDEST PUSH2 0xAAB PUSH1 0x1F DUP3 ADD PUSH1 0x1F NOT AND PUSH1 0x20 ADD PUSH2 0x92D JUMP JUMPDEST DUP2 DUP2 MSTORE DUP5 PUSH1 0x20 DUP4 DUP7 ADD ADD GT ISZERO PUSH2 0xAC0 JUMPI PUSH1 0x0 DUP1 REVERT JUMPDEST PUSH1 0x0 JUMPDEST DUP3 DUP2 LT ISZERO PUSH2 0xADF JUMPI PUSH1 0x20 DUP2 DUP7 ADD DUP2 ADD MLOAD DUP4 DUP4 ADD DUP3 ADD MSTORE ADD PUSH2 0xAC3 JUMP JUMPDEST POP PUSH1 0x0 SWAP2 DUP2 ADD PUSH1 0x20 ADD SWAP2 SWAP1 SWAP2 MSTORE SWAP4 SWAP3 POP POP POP JUMP JUMPDEST PUSH1 0x0 DUP1 PUSH1 0x0 DUP1 PUSH1 0x80 DUP6 DUP8 SUB SLT ISZERO PUSH2 0xB09 JUMPI PUSH1 0x0 DUP1 REVERT JUMPDEST PUSH2 0xB12 DUP6 PUSH2 0x902 JUMP JUMPDEST SWAP4 POP PUSH1 0x20 DUP6 ADD MLOAD PUSH8 0xFFFFFFFFFFFFFFFF DUP2 GT ISZERO PUSH2 0xB2E JUMPI PUSH1 0x0 DUP1 REVERT JUMPDEST PUSH2 0xB3A DUP8 DUP3 DUP9 ADD PUSH2 0xA6D JUMP JUMPDEST SWAP4 POP POP PUSH2 0xB49 PUSH1 0x40 DUP7 ADD PUSH2 0x902 JUMP JUMPDEST SWAP2 POP PUSH1 0x60 DUP6 ADD MLOAD PUSH8 0xFFFFFFFFFFFFFFFF DUP2 GT ISZERO PUSH2 0xB65 JUMPI PUSH1 0x0 DUP1 REVERT JUMPDEST PUSH2 0xB71 DUP8 DUP3 DUP9 ADD PUSH2 0xA6D JUMP JUMPDEST SWAP2 POP POP SWAP3 SWAP6 SWAP2 SWAP5 POP SWAP3 POP JUMP JUMPDEST PUSH4 0x4E487B71 PUSH1 0xE0 SHL PUSH1 0x0 MSTORE PUSH1 0x32 PUSH1 0x4 MSTORE PUSH1 0x24 PUSH1 0x0 REVERT JUMPDEST DUP2 DUP2 SUB DUP2 DUP2 GT ISZERO PUSH2 0x832 JUMPI PUSH4 0x4E487B71 PUSH1 0xE0 SHL PUSH1 0x0 MSTORE PUSH1 0x11 PUSH1 0x4 MSTORE PUSH1 0x24 PUSH1 0x0 REVERT JUMPDEST PUSH1 0x0 PUSH1 0x40 DUP3 ADD DUP5 DUP4 MSTORE PUSH1 0x40 PUSH1 0x20 DUP5 ADD MSTORE DUP1 DUP5 MLOAD DUP1 DUP4 MSTORE PUSH1 0x60 DUP6 ADD SWAP2 POP PUSH1 0x20 DUP7 ADD SWAP3 POP PUSH1 0x0 JUMPDEST DUP2 DUP2 LT ISZERO PUSH2 0xBF7 JUMPI DUP4 MLOAD DUP4 MSTORE PUSH1 0x20 SWAP4 DUP5 ADD SWAP4 SWAP1 SWAP3 ADD SWAP2 PUSH1 0x1 ADD PUSH2 0xBD9 JUMP JUMPDEST POP SWAP1 SWAP7 SWAP6 POP POP POP POP POP POP JUMP INVALID LOG2 PUSH5 0x6970667358 0x22 SLT KECCAK256 0xBC SLT CALLCODE 0xA7 0xA5 SIGNEXTEND BLOBHASH CREATE2 CALLVALUE 0xDF PUSH26 0xA8ABF95B09227A11970FEC97ADFCF67F6671EB1F7464736F6C63 NUMBER STOP ADDMOD BYTE STOP CALLER "},"methodIdentifiers":{"admin()":"f851a440","conditionResolved(bytes32)":"35c0c25e","conditionToRequest(bytes32)":"6ddf5730","conditionalTokens()":"5bd9e299","getConditionId(bytes32)":"04329c03","getRequestId(bytes32)":"9d8b43a5","handleCondition(bytes32,bytes32,uint256,bytes)":"39ed28b4","requestToCondition(bytes32)":"6b28ccf9","resolveCondition(bytes32,uint256)":"4e4bdc7e","vpoAdapter()":"591b2daf"}}}}}