{"contracts/verification/EigenVerify.sol":{"EigenVerify":{"abi":[{"inputs":[{"internalType":"address","name":"admin_","type":"address"}],"stateMutability":"nonpayable","type":"constructor"},{"inputs":[],"name":"InvalidParameter","type":"error"},{"inputs":[],"name":"InvalidSignature","type":"error"},{"inputs":[],"name":"OnlyAdmin","type":"error"},{"inputs":[],"name":"ZeroAddress","type":"error"},{"anonymous":false,"inputs":[{"indexed":true,"internalType":"address","name":"verifier","type":"address"},{"indexed":false,"internalType":"bool","name":"enabled","type":"bool"}],"name":"VerifierUpdated","type":"event"},{"inputs":[],"name":"admin","outputs":[{"internalType":"address","name":"","type":"address"}],"stateMutability":"view","type":"function"},{"inputs":[{"internalType":"address","name":"","type":"address"}],"name":"authorizedVerifiers","outputs":[{"internalType":"bool","name":"","type":"bool"}],"stateMutability":"view","type":"function"},{"inputs":[{"internalType":"address","name":"verifier","type":"address"},{"internalType":"bool","name":"enabled","type":"bool"}],"name":"setAuthorizedVerifier","outputs":[],"stateMutability":"nonpayable","type":"function"},{"inputs":[{"internalType":"bytes","name":"proof","type":"bytes"},{"internalType":"bytes","name":"dataSpec","type":"bytes"}],"name":"verify","outputs":[{"internalType":"bool","name":"valid","type":"bool"},{"internalType":"string","name":"result","type":"string"}],"stateMutability":"view","type":"function"}],"evm":{"bytecode":{"linkReferences":{},"object":"608034608657601f61099c38819003918201601f19168301916001600160401b03831184841017608b57808492602094604052833981010312608657516001600160a01b038116908190036086578015607557600180546001600160a01b0319169190911790556040516108fa90816100a28239f35b63d92e233d60e01b60005260046000fd5b600080fd5b634e487b7160e01b600052604160045260246000fdfe6080604052600436101561001257600080fd5b60003560e01c80635423ac8e146100575780639a89171614610052578063f7e83aee1461004d5763f851a4401461004857600080fd5b61024d565b6101b3565b610123565b346101085760403660031901126101085761007061010d565b60243590811515809203610108576001546001600160a01b031633036100f7576001600160a01b03169081156100e657816000526000602052604060002060ff1981541660ff83161790556080527fba5f7031ad83095931ee4b5138591db2dc3cfc56178367622fa4b05c2efad23160206080a2005b63d92e233d60e01b60005260046000fd5b634755657960e01b60005260046000fd5b600080fd5b600435906001600160a01b038216820361010857565b34610108576020366003190112610108576001600160a01b0361014461010d565b166000526000602052602060ff604060002054166040519015158152f35b9181601f840112156101085782359167ffffffffffffffff8311610108576020838186019501011161010857565b60005b8381106101a35750506000910152565b8181015183820152602001610193565b346101085760403660031901126101085760043567ffffffffffffffff8111610108576101e4903690600401610162565b6024359067ffffffffffffffff82116101085760609261020b610213933690600401610162565b929091610457565b9190604051928391151582526040602083015261023f8151809281604086015260208686019101610190565b601f01601f19168101030190f35b34610108576000366003190112610108576001546040516001600160a01b039091168152602090f35b634e487b7160e01b600052604160045260246000fd5b6080810190811067ffffffffffffffff8211176102a857604052565b610276565b90601f8019910116810190811067ffffffffffffffff8211176102a857604052565b6040519060a0820182811067ffffffffffffffff8211176102a85760405260006080838281528260208201528260408201526060808201520152565b906020116101085790602090565b906040116101085760200190602090565b906060116101085760400190602090565b9060a1116101085760600190604190565b906060116101085790606090565b359060208110610368575090565b6000199060200360031b1b1690565b67ffffffffffffffff81116102a857601f01601f191660200190565b604051906103a26020836102ad565b60008252565b9291926103b482610377565b916103c260405193846102ad565b829481845281830111610108578281602093846000960137010152565b60209291906103f5849282815194859201610190565b019081520190565b6040516080919061040e83826102ad565b6060815291601f1901366020840137565b634e487b7160e01b600052603260045260246000fd5b90821015610441570190565b61041f565b908151811015610441570160200190565b929091926060831061067e5761046b6102cf565b9061047f610479858361030b565b9061035a565b825261048e6104798583610319565b602083019081526104a2610479868461032a565b604084019081529560a18610610659576105086104f86104d36104c5898761033b565b9190606089019236916103a8565b81526104e96104e28a8861034c565b36916103a8565b602081519101209051906106c3565b6001600160a01b03166080860152565b608084019461054b610547610540610526895160018060a01b031690565b6001600160a01b0316600090815260208190526040902090565b5460ff1690565b1590565b61066b57610558916107fa565b90815161057761058560408501516040519283916020830195866103df565b03601f1981018352826102ad565b519020845103610659576020820151602081519101209051036106485760600194855160208151910120905103610638576105be6103fd565b9360005b60608110610605575050506060015190516105ec926105479290916001600160a01b0316916108a2565b6105f65751600191565b50600090610602610393565b90565b806106246106166001938587610435565b356001600160f81b03191690565b60001a6106318289610446565b53016105c2565b5050505050600090610602610393565b505050505050600090610602610393565b50505050505050600090610602610393565b5050505050505050600090610602610393565b630309cb8760e51b60005260046000fd5b60ff601b9116019060ff82116106a157565b634e487b7160e01b600052601160045260246000fd5b6040513d6000823e3d90fd5b604182510361079e5760405161070b81610577602082019485603c917f19457468657265756d205369676e6564204d6573736167653a0a3332000000008252601c8201520190565b5190209060009160418251036107d05760208201519260606040840151930151901a90601b82106107c0575b60ff8216601b81141590816107b4575b5061079e5761077b600093602095604051948594859094939260ff6060936080840197845216602083015260408201520152565b838052039060015afa156107af57600051906001600160a01b0382161561079e57565b638baa579f60e01b60005260046000fd5b6106b7565b601c9150141538610747565b906107ca9061068f565b90610737565b638baa579f60e01b8352600483fd5b9080601f8301121561010857816020610602933591016103a8565b9190916040519061080a8261028c565b606082526020820160608152604083019060008252606084019260608452849681019160808284031261010857813567ffffffffffffffff811161010857836108549184016107df565b90602083013567ffffffffffffffff811161010857846108759185016107df565b91606084013567ffffffffffffffff8111610108576040956108989186016107df565b9752520135905252565b906108b391602081519101206106c3565b6001600160a01b039081169116149056fea26469706673582212207f95527d671bc28599a46fbdabefa26499f401fba22c87c22117e2a7a1eebb5464736f6c634300081a0033","opcodes":"PUSH1 0x80 CALLVALUE PUSH1 0x86 JUMPI PUSH1 0x1F PUSH2 0x99C CODESIZE DUP2 SWAP1 SUB SWAP2 DUP3 ADD PUSH1 0x1F NOT AND DUP4 ADD SWAP2 PUSH1 0x1 PUSH1 0x1 PUSH1 0x40 SHL SUB DUP4 GT DUP5 DUP5 LT OR PUSH1 0x8B JUMPI DUP1 DUP5 SWAP3 PUSH1 0x20 SWAP5 PUSH1 0x40 MSTORE DUP4 CODECOPY DUP2 ADD SUB SLT PUSH1 0x86 JUMPI MLOAD PUSH1 0x1 PUSH1 0x1 PUSH1 0xA0 SHL SUB DUP2 AND SWAP1 DUP2 SWAP1 SUB PUSH1 0x86 JUMPI DUP1 ISZERO PUSH1 0x75 JUMPI PUSH1 0x1 DUP1 SLOAD PUSH1 0x1 PUSH1 0x1 PUSH1 0xA0 SHL SUB NOT AND SWAP2 SWAP1 SWAP2 OR SWAP1 SSTORE PUSH1 0x40 MLOAD PUSH2 0x8FA SWAP1 DUP2 PUSH2 0xA2 DUP3 CODECOPY RETURN JUMPDEST PUSH4 0xD92E233D PUSH1 0xE0 SHL PUSH1 0x0 MSTORE PUSH1 0x4 PUSH1 0x0 REVERT JUMPDEST PUSH1 0x0 DUP1 REVERT JUMPDEST PUSH4 0x4E487B71 PUSH1 0xE0 SHL PUSH1 0x0 MSTORE PUSH1 0x41 PUSH1 0x4 MSTORE PUSH1 0x24 PUSH1 0x0 REVERT INVALID PUSH1 0x80 PUSH1 0x40 MSTORE PUSH1 0x4 CALLDATASIZE LT ISZERO PUSH2 0x12 JUMPI PUSH1 0x0 DUP1 REVERT JUMPDEST PUSH1 0x0 CALLDATALOAD PUSH1 0xE0 SHR DUP1 PUSH4 0x5423AC8E EQ PUSH2 0x57 JUMPI DUP1 PUSH4 0x9A891716 EQ PUSH2 0x52 JUMPI DUP1 PUSH4 0xF7E83AEE EQ PUSH2 0x4D JUMPI PUSH4 0xF851A440 EQ PUSH2 0x48 JUMPI PUSH1 0x0 DUP1 REVERT JUMPDEST PUSH2 0x24D JUMP JUMPDEST PUSH2 0x1B3 JUMP JUMPDEST PUSH2 0x123 JUMP JUMPDEST CALLVALUE PUSH2 0x108 JUMPI PUSH1 0x40 CALLDATASIZE PUSH1 0x3 NOT ADD SLT PUSH2 0x108 JUMPI PUSH2 0x70 PUSH2 0x10D JUMP JUMPDEST PUSH1 0x24 CALLDATALOAD SWAP1 DUP2 ISZERO ISZERO DUP1 SWAP3 SUB PUSH2 0x108 JUMPI PUSH1 0x1 SLOAD PUSH1 0x1 PUSH1 0x1 PUSH1 0xA0 SHL SUB AND CALLER SUB PUSH2 0xF7 JUMPI PUSH1 0x1 PUSH1 0x1 PUSH1 0xA0 SHL SUB AND SWAP1 DUP2 ISZERO PUSH2 0xE6 JUMPI DUP2 PUSH1 0x0 MSTORE PUSH1 0x0 PUSH1 0x20 MSTORE PUSH1 0x40 PUSH1 0x0 KECCAK256 PUSH1 0xFF NOT DUP2 SLOAD AND PUSH1 0xFF DUP4 AND OR SWAP1 SSTORE PUSH1 0x80 MSTORE PUSH32 0xBA5F7031AD83095931EE4B5138591DB2DC3CFC56178367622FA4B05C2EFAD231 PUSH1 0x20 PUSH1 0x80 LOG2 STOP JUMPDEST PUSH4 0xD92E233D PUSH1 0xE0 SHL PUSH1 0x0 MSTORE PUSH1 0x4 PUSH1 0x0 REVERT JUMPDEST PUSH4 0x47556579 PUSH1 0xE0 SHL PUSH1 0x0 MSTORE PUSH1 0x4 PUSH1 0x0 REVERT JUMPDEST PUSH1 0x0 DUP1 REVERT JUMPDEST PUSH1 0x4 CALLDATALOAD SWAP1 PUSH1 0x1 PUSH1 0x1 PUSH1 0xA0 SHL SUB DUP3 AND DUP3 SUB PUSH2 0x108 JUMPI JUMP JUMPDEST CALLVALUE PUSH2 0x108 JUMPI PUSH1 0x20 CALLDATASIZE PUSH1 0x3 NOT ADD SLT PUSH2 0x108 JUMPI PUSH1 0x1 PUSH1 0x1 PUSH1 0xA0 SHL SUB PUSH2 0x144 PUSH2 0x10D JUMP JUMPDEST AND PUSH1 0x0 MSTORE PUSH1 0x0 PUSH1 0x20 MSTORE PUSH1 0x20 PUSH1 0xFF PUSH1 0x40 PUSH1 0x0 KECCAK256 SLOAD AND PUSH1 0x40 MLOAD SWAP1 ISZERO ISZERO DUP2 MSTORE RETURN JUMPDEST SWAP2 DUP2 PUSH1 0x1F DUP5 ADD SLT ISZERO PUSH2 0x108 JUMPI DUP3 CALLDATALOAD SWAP2 PUSH8 0xFFFFFFFFFFFFFFFF DUP4 GT PUSH2 0x108 JUMPI PUSH1 0x20 DUP4 DUP2 DUP7 ADD SWAP6 ADD ADD GT PUSH2 0x108 JUMPI JUMP JUMPDEST PUSH1 0x0 JUMPDEST DUP4 DUP2 LT PUSH2 0x1A3 JUMPI POP POP PUSH1 0x0 SWAP2 ADD MSTORE JUMP JUMPDEST DUP2 DUP2 ADD MLOAD DUP4 DUP3 ADD MSTORE PUSH1 0x20 ADD PUSH2 0x193 JUMP JUMPDEST CALLVALUE PUSH2 0x108 JUMPI PUSH1 0x40 CALLDATASIZE PUSH1 0x3 NOT ADD SLT PUSH2 0x108 JUMPI PUSH1 0x4 CALLDATALOAD PUSH8 0xFFFFFFFFFFFFFFFF DUP2 GT PUSH2 0x108 JUMPI PUSH2 0x1E4 SWAP1 CALLDATASIZE SWAP1 PUSH1 0x4 ADD PUSH2 0x162 JUMP JUMPDEST PUSH1 0x24 CALLDATALOAD SWAP1 PUSH8 0xFFFFFFFFFFFFFFFF DUP3 GT PUSH2 0x108 JUMPI PUSH1 0x60 SWAP3 PUSH2 0x20B PUSH2 0x213 SWAP4 CALLDATASIZE SWAP1 PUSH1 0x4 ADD PUSH2 0x162 JUMP JUMPDEST SWAP3 SWAP1 SWAP2 PUSH2 0x457 JUMP JUMPDEST SWAP2 SWAP1 PUSH1 0x40 MLOAD SWAP3 DUP4 SWAP2 ISZERO ISZERO DUP3 MSTORE PUSH1 0x40 PUSH1 0x20 DUP4 ADD MSTORE PUSH2 0x23F DUP2 MLOAD DUP1 SWAP3 DUP2 PUSH1 0x40 DUP7 ADD MSTORE PUSH1 0x20 DUP7 DUP7 ADD SWAP2 ADD PUSH2 0x190 JUMP JUMPDEST PUSH1 0x1F ADD PUSH1 0x1F NOT AND DUP2 ADD SUB ADD SWAP1 RETURN JUMPDEST CALLVALUE PUSH2 0x108 JUMPI PUSH1 0x0 CALLDATASIZE PUSH1 0x3 NOT ADD SLT PUSH2 0x108 JUMPI PUSH1 0x1 SLOAD PUSH1 0x40 MLOAD PUSH1 0x1 PUSH1 0x1 PUSH1 0xA0 SHL SUB SWAP1 SWAP2 AND DUP2 MSTORE PUSH1 0x20 SWAP1 RETURN JUMPDEST PUSH4 0x4E487B71 PUSH1 0xE0 SHL PUSH1 0x0 MSTORE PUSH1 0x41 PUSH1 0x4 MSTORE PUSH1 0x24 PUSH1 0x0 REVERT JUMPDEST PUSH1 0x80 DUP2 ADD SWAP1 DUP2 LT PUSH8 0xFFFFFFFFFFFFFFFF DUP3 GT OR PUSH2 0x2A8 JUMPI PUSH1 0x40 MSTORE JUMP JUMPDEST PUSH2 0x276 JUMP JUMPDEST SWAP1 PUSH1 0x1F DUP1 NOT SWAP2 ADD AND DUP2 ADD SWAP1 DUP2 LT PUSH8 0xFFFFFFFFFFFFFFFF DUP3 GT OR PUSH2 0x2A8 JUMPI PUSH1 0x40 MSTORE JUMP JUMPDEST PUSH1 0x40 MLOAD SWAP1 PUSH1 0xA0 DUP3 ADD DUP3 DUP2 LT PUSH8 0xFFFFFFFFFFFFFFFF DUP3 GT OR PUSH2 0x2A8 JUMPI PUSH1 0x40 MSTORE PUSH1 0x0 PUSH1 0x80 DUP4 DUP3 DUP2 MSTORE DUP3 PUSH1 0x20 DUP3 ADD MSTORE DUP3 PUSH1 0x40 DUP3 ADD MSTORE PUSH1 0x60 DUP1 DUP3 ADD MSTORE ADD MSTORE JUMP JUMPDEST SWAP1 PUSH1 0x20 GT PUSH2 0x108 JUMPI SWAP1 PUSH1 0x20 SWAP1 JUMP JUMPDEST SWAP1 PUSH1 0x40 GT PUSH2 0x108 JUMPI PUSH1 0x20 ADD SWAP1 PUSH1 0x20 SWAP1 JUMP JUMPDEST SWAP1 PUSH1 0x60 GT PUSH2 0x108 JUMPI PUSH1 0x40 ADD SWAP1 PUSH1 0x20 SWAP1 JUMP JUMPDEST SWAP1 PUSH1 0xA1 GT PUSH2 0x108 JUMPI PUSH1 0x60 ADD SWAP1 PUSH1 0x41 SWAP1 JUMP JUMPDEST SWAP1 PUSH1 0x60 GT PUSH2 0x108 JUMPI SWAP1 PUSH1 0x60 SWAP1 JUMP JUMPDEST CALLDATALOAD SWAP1 PUSH1 0x20 DUP2 LT PUSH2 0x368 JUMPI POP SWAP1 JUMP JUMPDEST PUSH1 0x0 NOT SWAP1 PUSH1 0x20 SUB PUSH1 0x3 SHL SHL AND SWAP1 JUMP JUMPDEST PUSH8 0xFFFFFFFFFFFFFFFF DUP2 GT PUSH2 0x2A8 JUMPI PUSH1 0x1F ADD PUSH1 0x1F NOT AND PUSH1 0x20 ADD SWAP1 JUMP JUMPDEST PUSH1 0x40 MLOAD SWAP1 PUSH2 0x3A2 PUSH1 0x20 DUP4 PUSH2 0x2AD JUMP JUMPDEST PUSH1 0x0 DUP3 MSTORE JUMP JUMPDEST SWAP3 SWAP2 SWAP3 PUSH2 0x3B4 DUP3 PUSH2 0x377 JUMP JUMPDEST SWAP2 PUSH2 0x3C2 PUSH1 0x40 MLOAD SWAP4 DUP5 PUSH2 0x2AD JUMP JUMPDEST DUP3 SWAP5 DUP2 DUP5 MSTORE DUP2 DUP4 ADD GT PUSH2 0x108 JUMPI DUP3 DUP2 PUSH1 0x20 SWAP4 DUP5 PUSH1 0x0 SWAP7 ADD CALLDATACOPY ADD ADD MSTORE JUMP JUMPDEST PUSH1 0x20 SWAP3 SWAP2 SWAP1 PUSH2 0x3F5 DUP5 SWAP3 DUP3 DUP2 MLOAD SWAP5 DUP6 SWAP3 ADD PUSH2 0x190 JUMP JUMPDEST ADD SWAP1 DUP2 MSTORE ADD SWAP1 JUMP JUMPDEST PUSH1 0x40 MLOAD PUSH1 0x80 SWAP2 SWAP1 PUSH2 0x40E DUP4 DUP3 PUSH2 0x2AD JUMP JUMPDEST PUSH1 0x60 DUP2 MSTORE SWAP2 PUSH1 0x1F NOT ADD CALLDATASIZE PUSH1 0x20 DUP5 ADD CALLDATACOPY JUMP JUMPDEST PUSH4 0x4E487B71 PUSH1 0xE0 SHL PUSH1 0x0 MSTORE PUSH1 0x32 PUSH1 0x4 MSTORE PUSH1 0x24 PUSH1 0x0 REVERT JUMPDEST SWAP1 DUP3 LT ISZERO PUSH2 0x441 JUMPI ADD SWAP1 JUMP JUMPDEST PUSH2 0x41F JUMP JUMPDEST SWAP1 DUP2 MLOAD DUP2 LT ISZERO PUSH2 0x441 JUMPI ADD PUSH1 0x20 ADD SWAP1 JUMP JUMPDEST SWAP3 SWAP1 SWAP2 SWAP3 PUSH1 0x60 DUP4 LT PUSH2 0x67E JUMPI PUSH2 0x46B PUSH2 0x2CF JUMP JUMPDEST SWAP1 PUSH2 0x47F PUSH2 0x479 DUP6 DUP4 PUSH2 0x30B JUMP JUMPDEST SWAP1 PUSH2 0x35A JUMP JUMPDEST DUP3 MSTORE PUSH2 0x48E PUSH2 0x479 DUP6 DUP4 PUSH2 0x319 JUMP JUMPDEST PUSH1 0x20 DUP4 ADD SWAP1 DUP2 MSTORE PUSH2 0x4A2 PUSH2 0x479 DUP7 DUP5 PUSH2 0x32A JUMP JUMPDEST PUSH1 0x40 DUP5 ADD SWAP1 DUP2 MSTORE SWAP6 PUSH1 0xA1 DUP7 LT PUSH2 0x659 JUMPI PUSH2 0x508 PUSH2 0x4F8 PUSH2 0x4D3 PUSH2 0x4C5 DUP10 DUP8 PUSH2 0x33B JUMP JUMPDEST SWAP2 SWAP1 PUSH1 0x60 DUP10 ADD SWAP3 CALLDATASIZE SWAP2 PUSH2 0x3A8 JUMP JUMPDEST DUP2 MSTORE PUSH2 0x4E9 PUSH2 0x4E2 DUP11 DUP9 PUSH2 0x34C JUMP JUMPDEST CALLDATASIZE SWAP2 PUSH2 0x3A8 JUMP JUMPDEST PUSH1 0x20 DUP2 MLOAD SWAP2 ADD KECCAK256 SWAP1 MLOAD SWAP1 PUSH2 0x6C3 JUMP JUMPDEST PUSH1 0x1 PUSH1 0x1 PUSH1 0xA0 SHL SUB AND PUSH1 0x80 DUP7 ADD MSTORE JUMP JUMPDEST PUSH1 0x80 DUP5 ADD SWAP5 PUSH2 0x54B PUSH2 0x547 PUSH2 0x540 PUSH2 0x526 DUP10 MLOAD PUSH1 0x1 DUP1 PUSH1 0xA0 SHL SUB AND SWAP1 JUMP JUMPDEST PUSH1 0x1 PUSH1 0x1 PUSH1 0xA0 SHL SUB AND PUSH1 0x0 SWAP1 DUP2 MSTORE PUSH1 0x20 DUP2 SWAP1 MSTORE PUSH1 0x40 SWAP1 KECCAK256 SWAP1 JUMP JUMPDEST SLOAD PUSH1 0xFF AND SWAP1 JUMP JUMPDEST ISZERO SWAP1 JUMP JUMPDEST PUSH2 0x66B JUMPI PUSH2 0x558 SWAP2 PUSH2 0x7FA JUMP JUMPDEST SWAP1 DUP2 MLOAD PUSH2 0x577 PUSH2 0x585 PUSH1 0x40 DUP6 ADD MLOAD PUSH1 0x40 MLOAD SWAP3 DUP4 SWAP2 PUSH1 0x20 DUP4 ADD SWAP6 DUP7 PUSH2 0x3DF JUMP JUMPDEST SUB PUSH1 0x1F NOT DUP2 ADD DUP4 MSTORE DUP3 PUSH2 0x2AD JUMP JUMPDEST MLOAD SWAP1 KECCAK256 DUP5 MLOAD SUB PUSH2 0x659 JUMPI PUSH1 0x20 DUP3 ADD MLOAD PUSH1 0x20 DUP2 MLOAD SWAP2 ADD KECCAK256 SWAP1 MLOAD SUB PUSH2 0x648 JUMPI PUSH1 0x60 ADD SWAP5 DUP6 MLOAD PUSH1 0x20 DUP2 MLOAD SWAP2 ADD KECCAK256 SWAP1 MLOAD SUB PUSH2 0x638 JUMPI PUSH2 0x5BE PUSH2 0x3FD JUMP JUMPDEST SWAP4 PUSH1 0x0 JUMPDEST PUSH1 0x60 DUP2 LT PUSH2 0x605 JUMPI POP POP POP PUSH1 0x60 ADD MLOAD SWAP1 MLOAD PUSH2 0x5EC SWAP3 PUSH2 0x547 SWAP3 SWAP1 SWAP2 PUSH1 0x1 PUSH1 0x1 PUSH1 0xA0 SHL SUB AND SWAP2 PUSH2 0x8A2 JUMP JUMPDEST PUSH2 0x5F6 JUMPI MLOAD PUSH1 0x1 SWAP2 JUMP JUMPDEST POP PUSH1 0x0 SWAP1 PUSH2 0x602 PUSH2 0x393 JUMP JUMPDEST SWAP1 JUMP JUMPDEST DUP1 PUSH2 0x624 PUSH2 0x616 PUSH1 0x1 SWAP4 DUP6 DUP8 PUSH2 0x435 JUMP JUMPDEST CALLDATALOAD PUSH1 0x1 PUSH1 0x1 PUSH1 0xF8 SHL SUB NOT AND SWAP1 JUMP JUMPDEST PUSH1 0x0 BYTE PUSH2 0x631 DUP3 DUP10 PUSH2 0x446 JUMP JUMPDEST MSTORE8 ADD PUSH2 0x5C2 JUMP JUMPDEST POP POP POP POP POP PUSH1 0x0 SWAP1 PUSH2 0x602 PUSH2 0x393 JUMP JUMPDEST POP POP POP POP POP POP PUSH1 0x0 SWAP1 PUSH2 0x602 PUSH2 0x393 JUMP JUMPDEST POP POP POP POP POP POP POP PUSH1 0x0 SWAP1 PUSH2 0x602 PUSH2 0x393 JUMP JUMPDEST POP POP POP POP POP POP POP POP PUSH1 0x0 SWAP1 PUSH2 0x602 PUSH2 0x393 JUMP JUMPDEST PUSH4 0x309CB87 PUSH1 0xE5 SHL PUSH1 0x0 MSTORE PUSH1 0x4 PUSH1 0x0 REVERT JUMPDEST PUSH1 0xFF PUSH1 0x1B SWAP2 AND ADD SWAP1 PUSH1 0xFF DUP3 GT PUSH2 0x6A1 JUMPI JUMP JUMPDEST PUSH4 0x4E487B71 PUSH1 0xE0 SHL PUSH1 0x0 MSTORE PUSH1 0x11 PUSH1 0x4 MSTORE PUSH1 0x24 PUSH1 0x0 REVERT JUMPDEST PUSH1 0x40 MLOAD RETURNDATASIZE PUSH1 0x0 DUP3 RETURNDATACOPY RETURNDATASIZE SWAP1 REVERT JUMPDEST PUSH1 0x41 DUP3 MLOAD SUB PUSH2 0x79E JUMPI PUSH1 0x40 MLOAD PUSH2 0x70B DUP2 PUSH2 0x577 PUSH1 0x20 DUP3 ADD SWAP5 DUP6 PUSH1 0x3C SWAP2 PUSH32 0x19457468657265756D205369676E6564204D6573736167653A0A333200000000 DUP3 MSTORE PUSH1 0x1C DUP3 ADD MSTORE ADD SWAP1 JUMP JUMPDEST MLOAD SWAP1 KECCAK256 SWAP1 PUSH1 0x0 SWAP2 PUSH1 0x41 DUP3 MLOAD SUB PUSH2 0x7D0 JUMPI PUSH1 0x20 DUP3 ADD MLOAD SWAP3 PUSH1 0x60 PUSH1 0x40 DUP5 ADD MLOAD SWAP4 ADD MLOAD SWAP1 BYTE SWAP1 PUSH1 0x1B DUP3 LT PUSH2 0x7C0 JUMPI JUMPDEST PUSH1 0xFF DUP3 AND PUSH1 0x1B DUP2 EQ ISZERO SWAP1 DUP2 PUSH2 0x7B4 JUMPI JUMPDEST POP PUSH2 0x79E JUMPI PUSH2 0x77B PUSH1 0x0 SWAP4 PUSH1 0x20 SWAP6 PUSH1 0x40 MLOAD SWAP5 DUP6 SWAP5 DUP6 SWAP1 SWAP5 SWAP4 SWAP3 PUSH1 0xFF PUSH1 0x60 SWAP4 PUSH1 0x80 DUP5 ADD SWAP8 DUP5 MSTORE AND PUSH1 0x20 DUP4 ADD MSTORE PUSH1 0x40 DUP3 ADD MSTORE ADD MSTORE JUMP JUMPDEST DUP4 DUP1 MSTORE SUB SWAP1 PUSH1 0x1 GAS STATICCALL ISZERO PUSH2 0x7AF JUMPI PUSH1 0x0 MLOAD SWAP1 PUSH1 0x1 PUSH1 0x1 PUSH1 0xA0 SHL SUB DUP3 AND ISZERO PUSH2 0x79E JUMPI JUMP JUMPDEST PUSH4 0x8BAA579F PUSH1 0xE0 SHL PUSH1 0x0 MSTORE PUSH1 0x4 PUSH1 0x0 REVERT JUMPDEST PUSH2 0x6B7 JUMP JUMPDEST PUSH1 0x1C SWAP2 POP EQ ISZERO CODESIZE PUSH2 0x747 JUMP JUMPDEST SWAP1 PUSH2 0x7CA SWAP1 PUSH2 0x68F JUMP JUMPDEST SWAP1 PUSH2 0x737 JUMP JUMPDEST PUSH4 0x8BAA579F PUSH1 0xE0 SHL DUP4 MSTORE PUSH1 0x4 DUP4 REVERT JUMPDEST SWAP1 DUP1 PUSH1 0x1F DUP4 ADD SLT ISZERO PUSH2 0x108 JUMPI DUP2 PUSH1 0x20 PUSH2 0x602 SWAP4 CALLDATALOAD SWAP2 ADD PUSH2 0x3A8 JUMP JUMPDEST SWAP2 SWAP1 SWAP2 PUSH1 0x40 MLOAD SWAP1 PUSH2 0x80A DUP3 PUSH2 0x28C JUMP JUMPDEST PUSH1 0x60 DUP3 MSTORE PUSH1 0x20 DUP3 ADD PUSH1 0x60 DUP2 MSTORE PUSH1 0x40 DUP4 ADD SWAP1 PUSH1 0x0 DUP3 MSTORE PUSH1 0x60 DUP5 ADD SWAP3 PUSH1 0x60 DUP5 MSTORE DUP5 SWAP7 DUP2 ADD SWAP2 PUSH1 0x80 DUP3 DUP5 SUB SLT PUSH2 0x108 JUMPI DUP2 CALLDATALOAD PUSH8 0xFFFFFFFFFFFFFFFF DUP2 GT PUSH2 0x108 JUMPI DUP4 PUSH2 0x854 SWAP2 DUP5 ADD PUSH2 0x7DF JUMP JUMPDEST SWAP1 PUSH1 0x20 DUP4 ADD CALLDATALOAD PUSH8 0xFFFFFFFFFFFFFFFF DUP2 GT PUSH2 0x108 JUMPI DUP5 PUSH2 0x875 SWAP2 DUP6 ADD PUSH2 0x7DF JUMP JUMPDEST SWAP2 PUSH1 0x60 DUP5 ADD CALLDATALOAD PUSH8 0xFFFFFFFFFFFFFFFF DUP2 GT PUSH2 0x108 JUMPI PUSH1 0x40 SWAP6 PUSH2 0x898 SWAP2 DUP7 ADD PUSH2 0x7DF JUMP JUMPDEST SWAP8 MSTORE MSTORE ADD CALLDATALOAD SWAP1 MSTORE MSTORE JUMP JUMPDEST SWAP1 PUSH2 0x8B3 SWAP2 PUSH1 0x20 DUP2 MLOAD SWAP2 ADD KECCAK256 PUSH2 0x6C3 JUMP JUMPDEST PUSH1 0x1 PUSH1 0x1 PUSH1 0xA0 SHL SUB SWAP1 DUP2 AND SWAP2 AND EQ SWAP1 JUMP INVALID LOG2 PUSH5 0x6970667358 0x22 SLT KECCAK256 PUSH32 0x95527D671BC28599A46FBDABEFA26499F401FBA22C87C22117E2A7A1EEBB5464 PUSH20 0x6F6C634300081A00330000000000000000000000 "},"methodIdentifiers":{"admin()":"f851a440","authorizedVerifiers(address)":"9a891716","setAuthorizedVerifier(address,bool)":"5423ac8e","verify(bytes,bytes)":"f7e83aee"}}}}}