{"contracts/adapter/VPOAdapter.sol":{"VPOAdapter":{"abi":[{"inputs":[{"internalType":"address","name":"admin_","type":"address"},{"internalType":"address","name":"eigenVerify_","type":"address"},{"internalType":"address","name":"slashing_","type":"address"}],"stateMutability":"nonpayable","type":"constructor"},{"inputs":[],"name":"AlreadyFulfilled","type":"error"},{"inputs":[],"name":"InvalidParameter","type":"error"},{"inputs":[],"name":"NotFound","type":"error"},{"inputs":[],"name":"OnlyAdmin","type":"error"},{"inputs":[],"name":"Unauthorized","type":"error"},{"inputs":[],"name":"ZeroAddress","type":"error"},{"anonymous":false,"inputs":[{"indexed":true,"internalType":"address","name":"node","type":"address"},{"indexed":false,"internalType":"bool","name":"enabled","type":"bool"}],"name":"AVSNodeUpdated","type":"event"},{"anonymous":false,"inputs":[{"indexed":true,"internalType":"bytes32","name":"requestId","type":"bytes32"},{"indexed":true,"internalType":"address","name":"operator","type":"address"},{"indexed":false,"internalType":"bool","name":"outcome","type":"bool"},{"indexed":false,"internalType":"bytes","name":"attestationCid","type":"bytes"},{"indexed":false,"internalType":"bytes","name":"signature","type":"bytes"}],"name":"AttestationSubmitted","type":"event"},{"anonymous":false,"inputs":[{"indexed":true,"internalType":"address","name":"operator","type":"address"},{"indexed":false,"internalType":"uint256","name":"weight","type":"uint256"}],"name":"OperatorWeightUpdated","type":"event"},{"anonymous":false,"inputs":[{"indexed":true,"internalType":"bytes32","name":"requestId","type":"bytes32"},{"indexed":true,"internalType":"address","name":"operator","type":"address"},{"indexed":false,"internalType":"bytes","name":"proof","type":"bytes"}],"name":"ProofVerificationFailed","type":"event"},{"anonymous":false,"inputs":[{"indexed":true,"internalType":"bytes32","name":"requestId","type":"bytes32"},{"indexed":false,"internalType":"bool","name":"outcome","type":"bool"},{"indexed":false,"internalType":"uint256","name":"totalWeight","type":"uint256"}],"name":"QuorumReached","type":"event"},{"anonymous":false,"inputs":[{"indexed":false,"internalType":"uint256","name":"threshold","type":"uint256"}],"name":"QuorumThresholdUpdated","type":"event"},{"anonymous":false,"inputs":[{"indexed":true,"internalType":"bytes32","name":"requestId","type":"bytes32"},{"indexed":false,"internalType":"bool","name":"outcome","type":"bool"},{"indexed":false,"internalType":"bytes","name":"aggregateSignature","type":"bytes"},{"indexed":false,"internalType":"uint256","name":"totalWeight","type":"uint256"}],"name":"ResolutionFinalized","type":"event"},{"anonymous":false,"inputs":[{"indexed":true,"internalType":"bytes32","name":"requestId","type":"bytes32"},{"indexed":false,"internalType":"bytes","name":"attestationCid","type":"bytes"},{"indexed":false,"internalType":"bool","name":"outcome","type":"bool"},{"indexed":false,"internalType":"bytes","name":"metadata","type":"bytes"}],"name":"VerificationFulfilled","type":"event"},{"anonymous":false,"inputs":[{"indexed":true,"internalType":"bytes32","name":"requestId","type":"bytes32"},{"indexed":true,"internalType":"address","name":"requester","type":"address"},{"indexed":true,"internalType":"bytes32","name":"marketRef","type":"bytes32"},{"indexed":false,"internalType":"bytes","name":"data","type":"bytes"}],"name":"VerificationRequested","type":"event"},{"inputs":[],"name":"admin","outputs":[{"internalType":"address","name":"","type":"address"}],"stateMutability":"view","type":"function"},{"inputs":[{"internalType":"address","name":"","type":"address"}],"name":"avsNodes","outputs":[{"internalType":"bool","name":"","type":"bool"}],"stateMutability":"view","type":"function"},{"inputs":[],"name":"eigenVerify","outputs":[{"internalType":"contract IEigenVerify","name":"","type":"address"}],"stateMutability":"view","type":"function"},{"inputs":[{"internalType":"bytes32","name":"requestId","type":"bytes32"},{"internalType":"bool","name":"outcome","type":"bool"},{"internalType":"bytes","name":"aggregateSignature","type":"bytes"}],"name":"finalizeResolution","outputs":[],"stateMutability":"nonpayable","type":"function"},{"inputs":[{"internalType":"bytes32","name":"requestId","type":"bytes32"},{"internalType":"bytes","name":"attestationCid","type":"bytes"},{"internalType":"bool","name":"outcome","type":"bool"},{"internalType":"bytes","name":"metadata","type":"bytes"}],"name":"fulfillVerification","outputs":[],"stateMutability":"nonpayable","type":"function"},{"inputs":[{"internalType":"bytes32","name":"requestId","type":"bytes32"}],"name":"getAttestations","outputs":[{"components":[{"internalType":"address","name":"operator","type":"address"},{"internalType":"bool","name":"outcome","type":"bool"},{"internalType":"bytes","name":"attestationCid","type":"bytes"},{"internalType":"bytes","name":"signature","type":"bytes"},{"internalType":"bytes32","name":"proofHash","type":"bytes32"},{"internalType":"uint256","name":"timestamp","type":"uint256"}],"internalType":"struct VPOAdapter.Attestation[]","name":"","type":"tuple[]"}],"stateMutability":"view","type":"function"},{"inputs":[{"internalType":"bytes32","name":"requestId","type":"bytes32"}],"name":"getFulfillment","outputs":[{"internalType":"bool","name":"exists","type":"bool"},{"internalType":"bytes","name":"attestationCid","type":"bytes"},{"internalType":"bool","name":"outcome","type":"bool"},{"internalType":"bytes","name":"metadata","type":"bytes"}],"stateMutability":"view","type":"function"},{"inputs":[{"internalType":"bytes32","name":"requestId","type":"bytes32"},{"internalType":"address","name":"operator","type":"address"}],"name":"getProof","outputs":[{"internalType":"bytes","name":"proof","type":"bytes"}],"stateMutability":"view","type":"function"},{"inputs":[{"internalType":"bytes32","name":"requestId","type":"bytes32"},{"internalType":"address","name":"operator","type":"address"}],"name":"getProofHash","outputs":[{"internalType":"bytes32","name":"proofHash","type":"bytes32"}],"stateMutability":"view","type":"function"},{"inputs":[{"internalType":"bytes32","name":"requestId","type":"bytes32"}],"name":"getQuorumStatus","outputs":[{"internalType":"bool","name":"isQuorumReached","type":"bool"},{"internalType":"uint256","name":"yesWeight","type":"uint256"},{"internalType":"uint256","name":"noWeight","type":"uint256"},{"internalType":"uint256","name":"requiredWeight","type":"uint256"}],"stateMutability":"view","type":"function"},{"inputs":[{"internalType":"bytes32","name":"requestId","type":"bytes32"}],"name":"getRequest","outputs":[{"components":[{"internalType":"bytes32","name":"marketRef","type":"bytes32"},{"internalType":"address","name":"requester","type":"address"},{"internalType":"bytes","name":"data","type":"bytes"},{"internalType":"bool","name":"fulfilled","type":"bool"},{"internalType":"bytes","name":"attestationCid","type":"bytes"},{"internalType":"bool","name":"outcome","type":"bool"},{"internalType":"bytes","name":"metadata","type":"bytes"}],"internalType":"struct VPOAdapter.Request","name":"","type":"tuple"}],"stateMutability":"view","type":"function"},{"inputs":[{"internalType":"address","name":"","type":"address"}],"name":"operatorWeights","outputs":[{"internalType":"uint256","name":"","type":"uint256"}],"stateMutability":"view","type":"function"},{"inputs":[],"name":"quorumThreshold","outputs":[{"internalType":"uint256","name":"","type":"uint256"}],"stateMutability":"view","type":"function"},{"inputs":[{"internalType":"bytes32","name":"marketRef","type":"bytes32"},{"internalType":"bytes","name":"data","type":"bytes"}],"name":"requestVerification","outputs":[{"internalType":"bytes32","name":"requestId","type":"bytes32"}],"stateMutability":"nonpayable","type":"function"},{"inputs":[{"internalType":"address","name":"node","type":"address"},{"internalType":"bool","name":"enabled","type":"bool"}],"name":"setAVSNode","outputs":[],"stateMutability":"nonpayable","type":"function"},{"inputs":[{"internalType":"address","name":"operator","type":"address"},{"internalType":"uint256","name":"weight","type":"uint256"}],"name":"setOperatorWeight","outputs":[],"stateMutability":"nonpayable","type":"function"},{"inputs":[{"internalType":"uint256","name":"threshold","type":"uint256"}],"name":"setQuorumThreshold","outputs":[],"stateMutability":"nonpayable","type":"function"},{"inputs":[],"name":"slashing","outputs":[{"internalType":"contract ISlashing","name":"","type":"address"}],"stateMutability":"view","type":"function"},{"inputs":[{"internalType":"bytes32","name":"requestId","type":"bytes32"},{"internalType":"bool","name":"outcome","type":"bool"},{"internalType":"bytes","name":"attestationCid","type":"bytes"},{"internalType":"bytes","name":"signature","type":"bytes"},{"internalType":"bytes","name":"proof","type":"bytes"}],"name":"submitAttestation","outputs":[],"stateMutability":"nonpayable","type":"function"},{"inputs":[],"name":"totalOperatorWeight","outputs":[{"internalType":"uint256","name":"","type":"uint256"}],"stateMutability":"view","type":"function"}],"evm":{"bytecode":{"linkReferences":{},"object":"60c0346100f057601f61253038819003918201601f19168301916001600160401b038311848410176100f5578084926060946040528339810103126100f0576100478161010b565b61005f60406100586020850161010b565b930161010b565b60426006556001600160a01b039091169182156100df576001600160a01b03169081156100df576001600160a01b03169182156100df57600880546001600160a01b03191691909117905560805260a05260405161241090816101208239608051818181610c7001526117ef015260a05181818161038401526122790152f35b63d92e233d60e01b60005260046000fd5b600080fd5b634e487b7160e01b600052604160045260246000fd5b51906001600160a01b03821682036100f05756fe610200604052600436101561001357600080fd5b60003560e01c80630e6b111014610df0578063276d652614610d94578063285b80a214610ccd5780632af002e814610c9f5780632e52ec8b14610c5a57806337e59e3614610ad45780634524c7e114610a635780634949136f146109af5780637b7a91dd146109915780639378c8fa1461094057806396c59cc1146108eb578063a4e132bc1461049c578063b457c25a14610462578063c09fff13146103d1578063c5e9a279146103b3578063ca31fb9f1461036e578063f1d1b3811461032f578063f7c226da14610276578063f851a4401461024d5763fb1e61ca146100f957600080fd5b3461024857602036600319011261024857606060c060405161011a81610fc6565b6000815260006020820152826040820152600083820152826080820152600060a082015201526004356000526000602052604060002060405161015c81610fc6565b8154815260018201546001600160a01b031660208201908152916102449061018660028201611002565b6040840190815261022960ff6003840154166060860190151581526101ad60048501611002565b6080870190815261020e6101d4600660ff6005890154169760a08b01981515895201611002565b9460c08901958652604051998a9960208b525160208b015260018060a01b0390511660408a01525160e060608a0152610100890190610ee0565b91511515608088015251868203601f190160a0880152610ee0565b9151151560c085015251838203601f190160e0850152610ee0565b0390f35b600080fd5b34610248576000366003190112610248576008546040516001600160a01b039091168152602090f35b346102485760403660031901126102485761028f610e91565b610297610f32565b6008549091906001600160a01b0316330361031e576001600160a01b031690811561030d5760207fa8cfb85fb565846d65e4062d92a89056ecb7aa24252225132315978a9ed574c19183600052600182526103028160406000209060ff801983541691151516179055565b6040519015158152a2005b63d92e233d60e01b60005260046000fd5b634755657960e01b60005260046000fd5b34610248576020366003190112610248576001600160a01b03610350610e91565b166000526001602052602060ff604060002054166040519015158152f35b34610248576000366003190112610248576040517f00000000000000000000000000000000000000000000000000000000000000006001600160a01b03168152602090f35b34610248576000366003190112610248576020600354604051908152f35b346102485760203660031901126102485760806004356003549060646103f96006548461139f565b6000928352600560209081526040808520600186529091528084205484805293205491900480831080159491939190610457575b8461044d575b506040519315158452602084015260408301526060820152f35b1515935085610433565b83831015945061042d565b34610248576020366003190112610248576001600160a01b03610483610e91565b1660005260026020526020604060002054604051908152f35b34610248576040366003190112610248576004356024356001600160401b038111610248576104cf903690600401610f05565b909160405160208101908282523360601b60408201524260548201528385607483013761050e6020607483878101448382015203018084520182610fe1565b519020916040519361051f85610fc6565b82855260208501903382526105353684836111fc565b9560408101968752606081019660008852602097604051906105578a83610fe1565b600082526080840191825260a084019260008452604051966105798c89610fe1565b600080895260c087019889528b8152808d526040902095518655516001860180546001600160a01b0319166001600160a01b039290921691909117905551805160028601916001600160401b0382116107e1576105e0826105da8554610f71565b8561132c565b8c908d601f841160011461087d5750918061061892610633969594600092610872575b50508160011b916000199060031b1c19161790565b90555b511515600385019060ff801983541691151516179055565b51805160048401916001600160401b0382116107e157610657826105da8554610f71565b8a90601f8311600114610802578260069695936106aa959361068f936000926107f75750508160011b916000199060031b1c19161790565b90555b511515600583019060ff801983541691151516179055565b0191519182516001600160401b0381116107e15786936106ce826105da8554610f71565b8890601f831160011461075157827f34602e40c4c49141c143fef967cb05afc0207ba0f21b2bc82b56b712b4250fca959361073b9593610724936000926107465750508160011b916000199060031b1c19161790565b90555b60405191829189835233968a84019161137e565b0390a4604051908152f35b015190508c80610603565b90601f19831691846000528a6000209260005b8c8282106107c85750509260019285927f34602e40c4c49141c143fef967cb05afc0207ba0f21b2bc82b56b712b4250fca989661073b9896106107af575b505050811b019055610727565b015160001960f88460031b161c191690558b80806107a2565b8484015186558c99506001909501949384019301610764565b634e487b7160e01b600052604160045260246000fd5b015190508e80610603565b60008481528c8120929190601f198516908e5b82821061085a57505092600192859260069998966106aa989610610841575b505050811b019055610692565b015160001960f88460031b161c191690558d8080610834565b80600186978294978701518155019601940190610815565b015190508f80610603565b9190601f1984168560005283600020936000905b8282106108d357505091600193918561063398979694106108ba575b505050811b01905561061b565b015160001960f88460031b161c191690558e80806108ad565b80600186978294978701518155019601940190610891565b346102485760203660031901126102485761024461090a600435611233565b61092b60409593955195869515158652608060208701526080860190610ee0565b91151560408501528382036060850152610ee0565b3461024857606036600319011261024857610959610f32565b604435906001600160401b0382116102485761098661097f61098f933690600401610f05565b36916111fc565b90600435611edc565b005b34610248576000366003190112610248576020600654604051908152f35b346102485760a0366003190112610248576109c8610f32565b6044356001600160401b038111610248576109e7903690600401610f05565b6064929192356001600160401b03811161024857610a09903690600401610f05565b6084929192356001600160401b03811161024857610a2b903690600401610f05565b93909233600052600160205260ff6040600020541615610a535761098f9633966004356113ef565b6282b42960e81b60005260046000fd5b3461024857602036600319011261024857600854600435906001600160a01b0316330361031e5760648111610ac3576020817fbc589fccf641d342b7853c2c6faca39631d4d19efbe77e71e5611e31678c220e92600655604051908152a1005b630309cb8760e51b60005260046000fd5b3461024857602036600319011261024857600435600052600460205260406000208054906001600160401b0382116107e15760405191610b1a60208260051b0184610fe1565b80835260208301809260005260206000206000915b838310610bec57848660405191829160208301906020845251809152604083019060408160051b85010192916000905b828210610b6e57505050500390f35b919360019193955060208091603f19898203018552875190848060a01b0382511681528282015115158382015260a080610bcc610bba604086015160c0604087015260c0860190610ee0565b60608601518582036060870152610ee0565b936080810151608085015201519101529601920192018594939192610b5f565b60056020600192604051610bff81610fab565b60ff8654868060a01b038116835260a01c16151583820152610c22858701611002565b6040820152610c3360028701611002565b606082015260038601546080820152600486015460a0820152815201920192019190610b2f565b34610248576000366003190112610248576040517f00000000000000000000000000000000000000000000000000000000000000006001600160a01b03168152602090f35b34610248576040366003190112610248576020610cc5610cbd610ea7565b6004356110eb565b604051908152f35b34610248576080366003190112610248576004356024356001600160401b03811161024857610d00903690600401610f05565b60443592918315158403610248576064356001600160401b03811161024857610d2d903690600401610f05565b929033600052600160205260ff6040600020541615610a5357610d5f9360608110610d8b578181935b339589896113ef565b610d698282611ea0565b610d6f57005b61098f9160405191610d82602084610fe1565b60008352611edc565b81600093610d56565b3461024857604036600319011261024857610dad610ea7565b600435600052600760205260406000209060018060a01b0316600052602052610244610ddc6040600020611002565b604051918291602083526020830190610ee0565b3461024857604036600319011261024857610e09610e91565b60085460243591906001600160a01b0316330361031e576001600160a01b031690811561030d5760207ff21e638cbccad60709e37c990768543730ce2449d9c79b38e1e972fa99b3a219918360005260028252610e8581610e80604060002054876000526002865282604060002055600354610f41565b610f64565b600355604051908152a2005b600435906001600160a01b038216820361024857565b602435906001600160a01b038216820361024857565b60005b838110610ed05750506000910152565b8181015183820152602001610ec0565b90602091610ef981518092818552858086019101610ebd565b601f01601f1916010190565b9181601f84011215610248578235916001600160401b038311610248576020838186019501011161024857565b60243590811515820361024857565b91908203918211610f4e57565b634e487b7160e01b600052601160045260246000fd5b91908201809211610f4e57565b90600182811c92168015610fa1575b6020831014610f8b57565b634e487b7160e01b600052602260045260246000fd5b91607f1691610f80565b60c081019081106001600160401b038211176107e157604052565b60e081019081106001600160401b038211176107e157604052565b90601f801991011681019081106001600160401b038211176107e157604052565b906040519182600082549261101684610f71565b8084529360018116908115611084575060011461103d575b5061103b92500383610fe1565b565b90506000929192526020600020906000915b81831061106857505090602061103b928201013861102e565b602091935080600191548385890101520191019091849261104f565b90506020925061103b94915060ff191682840152151560051b8201013861102e565b6001600160401b0381116107e157601f01601f191660200190565b80518210156110d55760209160051b010190565b634e487b7160e01b600052603260045260246000fd5b6000526004602052604060002080546001600160401b0381116107e1576040519161111c60208360051b0184610fe1565b818352602083019060005260206000206000915b83831061118e575050505060005b8151811015611186576001600160a01b0361115982846110c1565b5151166001600160a01b038416146111735760010161113e565b60809250611180916110c1565b51015190565b505050600090565b600560206001926040516111a181610fab565b60ff8654868060a01b038116835260a01c161515838201526111c4858701611002565b60408201526111d560028701611002565b606082015260038601546080820152600486015460a0820152815201920192019190611130565b929192611208826110a6565b916112166040519384610fe1565b829481845281830111610248578281602093846000960137010152565b60005260006020526040600020906040519061124e82610fc6565b8254825260018301546001600160a01b03166020830190815261127360028501611002565b604084015260ff60038501541660608401901515815261129560048601611002565b916080850192835260c06112bc600660ff60058a0154169860a089019915158a5201611002565b9501948552516001600160a01b0316156113165751156112e457519251915160019392151591565b509150506000906040516112f9602082610fe1565b600081529060009060405161130f602082610fe1565b6000815290565b50509150506000906040516112f9602082610fe1565b601f821161133957505050565b6000526020600020906020601f840160051c83019310611374575b601f0160051c01905b818110611368575050565b6000815560010161135d565b9091508190611354565b908060209392818452848401376000828201840152601f01601f1916010190565b81810292918115918404141715610f4e57565b80548210156110d5576000526005602060002091020190600090565b604051906113dd604083610fe1565b600382526259455360e81b6020830152565b98969892919260e05260a05260e051600052600060205260406000209760018060a01b0360018a01541615611e8f5760ff60038a01541661149a576001600160a01b038816600090815260026020526040902054908115610a535760005b60e05160005260046020526040600020548110156114ab5760e051600052600460205261147e8160406000206113b2565b50546001600160a01b038b811691161461149a5760010161144d565b634a4117f960e01b60005260046000fd5b5090919395979294969860026114c19101611002565b604061018081905280516101e08190529199916114de9190610fe1565b600b6101e051526a746573742d736f7572636560a81b60206101e051015260006101205260a051600014611e66576115146113ce565b610120525b6101805180516101c081905261152f9190610fe1565b60206101c05152601f1961018051013660206101c051013760006101a0525b6101e051516101a0511080611e59575b156115aa5760ff60f81b6115786101a0516101e051612223565b511660001a61158d6101a0516101c051612223565b536101a05160001914610f4e5760016101a051016101a05261154e565b61018051516000602082015242610180518201526101805181526115cf606082610fe1565b6101805151610140526115e86101805161014051610fe1565b60206101405152601f19610180510136602061014051013760005b60208110611e1d57505088516101805151906000602083015261018051820152610180518152611634606082610fe1565b61018051516101605261164d6101805161016051610fe1565b60206101605152601f19610180510136602061016051013760005b60208110611de1575050610120515161010052600161010051016101005111610f4e576116ad61169d600161010051016110a6565b610180515160c05260c051610fe1565b6001610100510160c0515260c051506116cb600161010051016110a6565b601f190136602060c051013760005b61012051518110156117135760019060ff60f81b6116fb8261012051612223565b511660001a61170c8260c051612223565b53016116da565b509091929394959697600060206117af6117eb93610180515192839161178a826101c0515161174a81838801846101c05101610ebd565b850161014051519061176482848301856101405101610ebd565b010161016051519061177c8282876101605101610ebd565b019182815194859201610ebd565b0160c05151906117a08282602060c05101610ebd565b0103601f198101835282610fe1565b610180515180938192637bf41d7760e11b83526101805160048401526117d960448401898961137e565b83810360031901602485015290610ee0565b03817f00000000000000000000000000000000000000000000000000000000000000006001600160a01b03165afa908115611dd3576000908192611d39575b5015611d2b576020815191012061183f6113ce565b602081519101201460a051151560805260805103611d1e576118623683836111fc565b602081519101209160e05160005260076020526101805160002060009060018060a01b0387168252602052610180519020916001600160401b0382116107e1576118b0826105da8554610f71565b600090601f8311600114611cba576118e0929160009183611caf5750508160011b916000199060031b1c19161790565b90555b60e0516000526004602052610180516000209061018051519061190582610fab565b6001600160a01b0385168252608051602083019081529261192736888a6111fc565b9061018051840191825261193c368c8c6111fc565b926060850193845260808501524260a08501528054680100000000000000008110156107e157611971916001820181556113b2565b949094611c99578351855491516001600160a81b03199092166001600160a01b03919091161790151560a01b60ff60a01b1617845551805160018501916001600160401b0382116107e1576119ca826105da8554610f71565b602090601f8311600114611c32576119fa929160009183611b915750508160011b916000199060031b1c19161790565b90555b51805160028401916001600160401b0382116107e157611a21826105da8554610f71565b602090601f8311600114611b9c57937f4164d38fcc30943a577283f30908d604d84a89a2e856b65b33296323553558059998979593611a818460049560a095611b009b99600092611b915750508160011b916000199060031b1c19161790565b90555b60808101516003850155015191015560e051600052600560205261018051600020608051600052602052611ac061018051600020918254610f64565b9055611ae36101805151948594608051865260606020870152606086019161137e565b908382036101805185015260018060a01b03169660e0519661137e565b0390a360e05160005260056020526101805160002060805160005260205261018051600020546003546064611b376006548361139f565b048210159081611b87575b50611b4a5750565b610180515190608051825260208201527f4788c192b43b1eaa29d531808a78165d3487d939b8246058f5ad10d22fc2bd0d60e051916101805190a2565b9050151538611b42565b015190503880610603565b90601f1983169184600052816000209260005b818110611c1a57508460a094611b009a98947f4164d38fcc30943a577283f30908d604d84a89a2e856b65b33296323553558059e9d9c9a989460049860019510611c01575b505050811b019055611a84565b015160001960f88460031b161c19169055388080611bf4565b92936020600181928786015181550195019301611baf565b90601f1983169184600052816000209260005b818110611c815750908460019594939210611c68575b505050811b0190556119fd565b015160001960f88460031b161c19169055388080611c5b565b92936020600181928786015181550195019301611c45565b634e487b7160e01b600052600060045260246000fd5b013590503880610603565b8382526020822091601f198416815b818110611d065750908460019594939210611cec575b505050811b0190556118e3565b0135600019600384901b60f8161c19169055388080611cdf565b91936020600181928787013581550195019201611cc9565b610ac3928460e051612234565b50610ac3928460e051612234565b9091503d8083833e611d4b8183610fe1565b8101916101805182840312611dc8578151918215158303611dcb576020810151906001600160401b038211611dcf570183601f82011215611dcb57805191611d92836110a6565b94611da261018051519687610fe1565b83865260208484010111611dc8575090611dc29160208086019101610ebd565b3861182a565b80fd5b5080fd5b8280fd5b61018051513d6000823e3d90fd5b6020810190818111610f4e576001916001600160f81b031990611e049085612223565b511660001a611e168261016051612223565b5301611668565b6020810190818111610f4e576001916001600160f81b031990611e409085612223565b511660001a611e528261014051612223565b5301611603565b5060206101a0511061155e565b61018051805190611e779082610fe1565b60028152614e4f60f01b602082015261012052611519565b63c5723b5160e01b60005260046000fd5b9060035491821561118657600052600560205260406000209015156000526020526064611ed6604060002054926006549061139f565b04111590565b919082600052600060205260406000209160018060a01b0360018401541615611e8f57600383019182549360ff851661149a57611f198287611ea0565b15610ac357602093604051611f2e8682610fe1565b600081529587600052600486526040600020546121dc575b60ff19166001179055845160048201906001600160401b0381116107e157611f7881611f728454610f71565b8461132c565b85601f821160011461217357816006949392611faa92600091612168575b508160011b916000199060031b1c19161790565b90555b611fc683600583019060ff801983541691151516179055565b0182516001600160401b0381116107e157611fe581611f728454610f71565b84601f82116001146120d957926120b8959261203e837f89b763933efe68c9fb105be2523d43afbb04f27b42bda7793a30bb6ae16bc4ff9997946120c9976000916120ce57508160011b916000199060031b1c19161790565b90555b8760005260058352604060002090151590816000528352877f62c5313ac9057b028c77d3d71a8bc78681ab575a0cab56a1fef1e7484cd6b48d604060002054604051809185825260608883015261209b6060830188610ee0565b9060408301520390a2604051958695606087526060870190610ee0565b928501528382036040850152610ee0565b0390a2565b905085015138611f96565b601f1982169083600052866000209160005b8181106121515750836120c996936120b89996937f89b763933efe68c9fb105be2523d43afbb04f27b42bda7793a30bb6ae16bc4ff9b999660019410612138575b5050811b019055612041565b86015160001960f88460031b161c19169055388061212c565b91928860018192868b0151815501940192016120eb565b905089015138611f96565b601f1982169083600052876000209160005b898b8383106121c7575050509183916006969594600194106121ae575b5050811b019055611fad565b8a015160001960f88460031b161c1916905538806121a2565b84015185556001909401939283019201612185565b95508660005260048552604060002060009080541561220f5760018783612207938395522001611002565b969050611f46565b634e487b7160e01b82526032600452602482fd5b9081518110156110d5570160200190565b91949392909260009360018060a01b031693848152600260205280604081205561226087600354610f41565b600355604051630991d88160e21b8152600481018690527f00000000000000000000000000000000000000000000000000000000000000006001600160a01b031690602081602481855afa9081156123cf57839161239d575b5080612305575b5050507faffd8b9ffb2058f05fe3e1c643891491b6253aabe27bf992f581214ae071abcc929394955061230060405192839260208452602084019161137e565b0390a3565b82988181116000146123955750905b803b15611dcf57604483926040519a8b9384926302fb4d8560e01b84528b600485015260248401525af1968715612388577faffd8b9ffb2058f05fe3e1c643891491b6253aabe27bf992f581214ae071abcc94959697612378575b879695946122c0565b8161238291610fe1565b3861236f565b50604051903d90823e3d90fd5b905090612314565b90506020813d6020116123c7575b816123b860209383610fe1565b81010312611dcf5751386122b9565b3d91506123ab565b6040513d85823e3d90fdfea2646970667358221220ac2fe6b5dee0c2245c95de31055ab3391895968eec3675fb62c939768f7f52f564736f6c634300081a0033","opcodes":"PUSH1 0xC0 CALLVALUE PUSH2 0xF0 JUMPI PUSH1 0x1F PUSH2 0x2530 CODESIZE DUP2 SWAP1 SUB SWAP2 DUP3 ADD PUSH1 0x1F NOT AND DUP4 ADD SWAP2 PUSH1 0x1 PUSH1 0x1 PUSH1 0x40 SHL SUB DUP4 GT DUP5 DUP5 LT OR PUSH2 0xF5 JUMPI DUP1 DUP5 SWAP3 PUSH1 0x60 SWAP5 PUSH1 0x40 MSTORE DUP4 CODECOPY DUP2 ADD SUB SLT PUSH2 0xF0 JUMPI PUSH2 0x47 DUP2 PUSH2 0x10B JUMP JUMPDEST PUSH2 0x5F PUSH1 0x40 PUSH2 0x58 PUSH1 0x20 DUP6 ADD PUSH2 0x10B JUMP JUMPDEST SWAP4 ADD PUSH2 0x10B JUMP JUMPDEST PUSH1 0x42 PUSH1 0x6 SSTORE PUSH1 0x1 PUSH1 0x1 PUSH1 0xA0 SHL SUB SWAP1 SWAP2 AND SWAP2 DUP3 ISZERO PUSH2 0xDF JUMPI PUSH1 0x1 PUSH1 0x1 PUSH1 0xA0 SHL SUB AND SWAP1 DUP2 ISZERO PUSH2 0xDF JUMPI PUSH1 0x1 PUSH1 0x1 PUSH1 0xA0 SHL SUB AND SWAP2 DUP3 ISZERO PUSH2 0xDF JUMPI PUSH1 0x8 DUP1 SLOAD PUSH1 0x1 PUSH1 0x1 PUSH1 0xA0 SHL SUB NOT AND SWAP2 SWAP1 SWAP2 OR SWAP1 SSTORE PUSH1 0x80 MSTORE PUSH1 0xA0 MSTORE PUSH1 0x40 MLOAD PUSH2 0x2410 SWAP1 DUP2 PUSH2 0x120 DUP3 CODECOPY PUSH1 0x80 MLOAD DUP2 DUP2 DUP2 PUSH2 0xC70 ADD MSTORE PUSH2 0x17EF ADD MSTORE PUSH1 0xA0 MLOAD DUP2 DUP2 DUP2 PUSH2 0x384 ADD MSTORE PUSH2 0x2279 ADD MSTORE RETURN JUMPDEST PUSH4 0xD92E233D PUSH1 0xE0 SHL PUSH1 0x0 MSTORE PUSH1 0x4 PUSH1 0x0 REVERT JUMPDEST PUSH1 0x0 DUP1 REVERT JUMPDEST PUSH4 0x4E487B71 PUSH1 0xE0 SHL PUSH1 0x0 MSTORE PUSH1 0x41 PUSH1 0x4 MSTORE PUSH1 0x24 PUSH1 0x0 REVERT JUMPDEST MLOAD SWAP1 PUSH1 0x1 PUSH1 0x1 PUSH1 0xA0 SHL SUB DUP3 AND DUP3 SUB PUSH2 0xF0 JUMPI JUMP INVALID PUSH2 0x200 PUSH1 0x40 MSTORE PUSH1 0x4 CALLDATASIZE LT ISZERO PUSH2 0x13 JUMPI PUSH1 0x0 DUP1 REVERT JUMPDEST PUSH1 0x0 CALLDATALOAD PUSH1 0xE0 SHR DUP1 PUSH4 0xE6B1110 EQ PUSH2 0xDF0 JUMPI DUP1 PUSH4 0x276D6526 EQ PUSH2 0xD94 JUMPI DUP1 PUSH4 0x285B80A2 EQ PUSH2 0xCCD JUMPI DUP1 PUSH4 0x2AF002E8 EQ PUSH2 0xC9F JUMPI DUP1 PUSH4 0x2E52EC8B EQ PUSH2 0xC5A JUMPI DUP1 PUSH4 0x37E59E36 EQ PUSH2 0xAD4 JUMPI DUP1 PUSH4 0x4524C7E1 EQ PUSH2 0xA63 JUMPI DUP1 PUSH4 0x4949136F EQ PUSH2 0x9AF JUMPI DUP1 PUSH4 0x7B7A91DD EQ PUSH2 0x991 JUMPI DUP1 PUSH4 0x9378C8FA EQ PUSH2 0x940 JUMPI DUP1 PUSH4 0x96C59CC1 EQ PUSH2 0x8EB JUMPI DUP1 PUSH4 0xA4E132BC EQ PUSH2 0x49C JUMPI DUP1 PUSH4 0xB457C25A EQ PUSH2 0x462 JUMPI DUP1 PUSH4 0xC09FFF13 EQ PUSH2 0x3D1 JUMPI DUP1 PUSH4 0xC5E9A279 EQ PUSH2 0x3B3 JUMPI DUP1 PUSH4 0xCA31FB9F EQ PUSH2 0x36E JUMPI DUP1 PUSH4 0xF1D1B381 EQ PUSH2 0x32F JUMPI DUP1 PUSH4 0xF7C226DA EQ PUSH2 0x276 JUMPI DUP1 PUSH4 0xF851A440 EQ PUSH2 0x24D JUMPI PUSH4 0xFB1E61CA EQ PUSH2 0xF9 JUMPI PUSH1 0x0 DUP1 REVERT JUMPDEST CALLVALUE PUSH2 0x248 JUMPI PUSH1 0x20 CALLDATASIZE PUSH1 0x3 NOT ADD SLT PUSH2 0x248 JUMPI PUSH1 0x60 PUSH1 0xC0 PUSH1 0x40 MLOAD PUSH2 0x11A DUP2 PUSH2 0xFC6 JUMP JUMPDEST PUSH1 0x0 DUP2 MSTORE PUSH1 0x0 PUSH1 0x20 DUP3 ADD MSTORE DUP3 PUSH1 0x40 DUP3 ADD MSTORE PUSH1 0x0 DUP4 DUP3 ADD MSTORE DUP3 PUSH1 0x80 DUP3 ADD MSTORE PUSH1 0x0 PUSH1 0xA0 DUP3 ADD MSTORE ADD MSTORE PUSH1 0x4 CALLDATALOAD PUSH1 0x0 MSTORE PUSH1 0x0 PUSH1 0x20 MSTORE PUSH1 0x40 PUSH1 0x0 KECCAK256 PUSH1 0x40 MLOAD PUSH2 0x15C DUP2 PUSH2 0xFC6 JUMP JUMPDEST DUP2 SLOAD DUP2 MSTORE PUSH1 0x1 DUP3 ADD SLOAD PUSH1 0x1 PUSH1 0x1 PUSH1 0xA0 SHL SUB AND PUSH1 0x20 DUP3 ADD SWAP1 DUP2 MSTORE SWAP2 PUSH2 0x244 SWAP1 PUSH2 0x186 PUSH1 0x2 DUP3 ADD PUSH2 0x1002 JUMP JUMPDEST PUSH1 0x40 DUP5 ADD SWAP1 DUP2 MSTORE PUSH2 0x229 PUSH1 0xFF PUSH1 0x3 DUP5 ADD SLOAD AND PUSH1 0x60 DUP7 ADD SWAP1 ISZERO ISZERO DUP2 MSTORE PUSH2 0x1AD PUSH1 0x4 DUP6 ADD PUSH2 0x1002 JUMP JUMPDEST PUSH1 0x80 DUP8 ADD SWAP1 DUP2 MSTORE PUSH2 0x20E PUSH2 0x1D4 PUSH1 0x6 PUSH1 0xFF PUSH1 0x5 DUP10 ADD SLOAD AND SWAP8 PUSH1 0xA0 DUP12 ADD SWAP9 ISZERO ISZERO DUP10 MSTORE ADD PUSH2 0x1002 JUMP JUMPDEST SWAP5 PUSH1 0xC0 DUP10 ADD SWAP6 DUP7 MSTORE PUSH1 0x40 MLOAD SWAP10 DUP11 SWAP10 PUSH1 0x20 DUP12 MSTORE MLOAD PUSH1 0x20 DUP12 ADD MSTORE PUSH1 0x1 DUP1 PUSH1 0xA0 SHL SUB SWAP1 MLOAD AND PUSH1 0x40 DUP11 ADD MSTORE MLOAD PUSH1 0xE0 PUSH1 0x60 DUP11 ADD MSTORE PUSH2 0x100 DUP10 ADD SWAP1 PUSH2 0xEE0 JUMP JUMPDEST SWAP2 MLOAD ISZERO ISZERO PUSH1 0x80 DUP9 ADD MSTORE MLOAD DUP7 DUP3 SUB PUSH1 0x1F NOT ADD PUSH1 0xA0 DUP9 ADD MSTORE PUSH2 0xEE0 JUMP JUMPDEST SWAP2 MLOAD ISZERO ISZERO PUSH1 0xC0 DUP6 ADD MSTORE MLOAD DUP4 DUP3 SUB PUSH1 0x1F NOT ADD PUSH1 0xE0 DUP6 ADD MSTORE PUSH2 0xEE0 JUMP JUMPDEST SUB SWAP1 RETURN JUMPDEST PUSH1 0x0 DUP1 REVERT JUMPDEST CALLVALUE PUSH2 0x248 JUMPI PUSH1 0x0 CALLDATASIZE PUSH1 0x3 NOT ADD SLT PUSH2 0x248 JUMPI PUSH1 0x8 SLOAD PUSH1 0x40 MLOAD PUSH1 0x1 PUSH1 0x1 PUSH1 0xA0 SHL SUB SWAP1 SWAP2 AND DUP2 MSTORE PUSH1 0x20 SWAP1 RETURN JUMPDEST CALLVALUE PUSH2 0x248 JUMPI PUSH1 0x40 CALLDATASIZE PUSH1 0x3 NOT ADD SLT PUSH2 0x248 JUMPI PUSH2 0x28F PUSH2 0xE91 JUMP JUMPDEST PUSH2 0x297 PUSH2 0xF32 JUMP JUMPDEST PUSH1 0x8 SLOAD SWAP1 SWAP2 SWAP1 PUSH1 0x1 PUSH1 0x1 PUSH1 0xA0 SHL SUB AND CALLER SUB PUSH2 0x31E JUMPI PUSH1 0x1 PUSH1 0x1 PUSH1 0xA0 SHL SUB AND SWAP1 DUP2 ISZERO PUSH2 0x30D JUMPI PUSH1 0x20 PUSH32 0xA8CFB85FB565846D65E4062D92A89056ECB7AA24252225132315978A9ED574C1 SWAP2 DUP4 PUSH1 0x0 MSTORE PUSH1 0x1 DUP3 MSTORE PUSH2 0x302 DUP2 PUSH1 0x40 PUSH1 0x0 KECCAK256 SWAP1 PUSH1 0xFF DUP1 NOT DUP4 SLOAD AND SWAP2 ISZERO ISZERO AND OR SWAP1 SSTORE JUMP JUMPDEST PUSH1 0x40 MLOAD SWAP1 ISZERO ISZERO DUP2 MSTORE LOG2 STOP JUMPDEST PUSH4 0xD92E233D PUSH1 0xE0 SHL PUSH1 0x0 MSTORE PUSH1 0x4 PUSH1 0x0 REVERT JUMPDEST PUSH4 0x47556579 PUSH1 0xE0 SHL PUSH1 0x0 MSTORE PUSH1 0x4 PUSH1 0x0 REVERT JUMPDEST CALLVALUE PUSH2 0x248 JUMPI PUSH1 0x20 CALLDATASIZE PUSH1 0x3 NOT ADD SLT PUSH2 0x248 JUMPI PUSH1 0x1 PUSH1 0x1 PUSH1 0xA0 SHL SUB PUSH2 0x350 PUSH2 0xE91 JUMP JUMPDEST AND PUSH1 0x0 MSTORE PUSH1 0x1 PUSH1 0x20 MSTORE PUSH1 0x20 PUSH1 0xFF PUSH1 0x40 PUSH1 0x0 KECCAK256 SLOAD AND PUSH1 0x40 MLOAD SWAP1 ISZERO ISZERO DUP2 MSTORE RETURN JUMPDEST CALLVALUE PUSH2 0x248 JUMPI PUSH1 0x0 CALLDATASIZE PUSH1 0x3 NOT ADD SLT PUSH2 0x248 JUMPI PUSH1 0x40 MLOAD PUSH32 0x0 PUSH1 0x1 PUSH1 0x1 PUSH1 0xA0 SHL SUB AND DUP2 MSTORE PUSH1 0x20 SWAP1 RETURN JUMPDEST CALLVALUE PUSH2 0x248 JUMPI PUSH1 0x0 CALLDATASIZE PUSH1 0x3 NOT ADD SLT PUSH2 0x248 JUMPI PUSH1 0x20 PUSH1 0x3 SLOAD PUSH1 0x40 MLOAD SWAP1 DUP2 MSTORE RETURN JUMPDEST CALLVALUE PUSH2 0x248 JUMPI PUSH1 0x20 CALLDATASIZE PUSH1 0x3 NOT ADD SLT PUSH2 0x248 JUMPI PUSH1 0x80 PUSH1 0x4 CALLDATALOAD PUSH1 0x3 SLOAD SWAP1 PUSH1 0x64 PUSH2 0x3F9 PUSH1 0x6 SLOAD DUP5 PUSH2 0x139F JUMP JUMPDEST PUSH1 0x0 SWAP3 DUP4 MSTORE PUSH1 0x5 PUSH1 0x20 SWAP1 DUP2 MSTORE PUSH1 0x40 DUP1 DUP6 KECCAK256 PUSH1 0x1 DUP7 MSTORE SWAP1 SWAP2 MSTORE DUP1 DUP5 KECCAK256 SLOAD DUP5 DUP1 MSTORE SWAP4 KECCAK256 SLOAD SWAP2 SWAP1 DIV DUP1 DUP4 LT DUP1 ISZERO SWAP5 SWAP2 SWAP4 SWAP2 SWAP1 PUSH2 0x457 JUMPI JUMPDEST DUP5 PUSH2 0x44D JUMPI JUMPDEST POP PUSH1 0x40 MLOAD SWAP4 ISZERO ISZERO DUP5 MSTORE PUSH1 0x20 DUP5 ADD MSTORE PUSH1 0x40 DUP4 ADD MSTORE PUSH1 0x60 DUP3 ADD MSTORE RETURN JUMPDEST ISZERO ISZERO SWAP4 POP DUP6 PUSH2 0x433 JUMP JUMPDEST DUP4 DUP4 LT ISZERO SWAP5 POP PUSH2 0x42D JUMP JUMPDEST CALLVALUE PUSH2 0x248 JUMPI PUSH1 0x20 CALLDATASIZE PUSH1 0x3 NOT ADD SLT PUSH2 0x248 JUMPI PUSH1 0x1 PUSH1 0x1 PUSH1 0xA0 SHL SUB PUSH2 0x483 PUSH2 0xE91 JUMP JUMPDEST AND PUSH1 0x0 MSTORE PUSH1 0x2 PUSH1 0x20 MSTORE PUSH1 0x20 PUSH1 0x40 PUSH1 0x0 KECCAK256 SLOAD PUSH1 0x40 MLOAD SWAP1 DUP2 MSTORE RETURN JUMPDEST CALLVALUE PUSH2 0x248 JUMPI PUSH1 0x40 CALLDATASIZE PUSH1 0x3 NOT ADD SLT PUSH2 0x248 JUMPI PUSH1 0x4 CALLDATALOAD PUSH1 0x24 CALLDATALOAD PUSH1 0x1 PUSH1 0x1 PUSH1 0x40 SHL SUB DUP2 GT PUSH2 0x248 JUMPI PUSH2 0x4CF SWAP1 CALLDATASIZE SWAP1 PUSH1 0x4 ADD PUSH2 0xF05 JUMP JUMPDEST SWAP1 SWAP2 PUSH1 0x40 MLOAD PUSH1 0x20 DUP2 ADD SWAP1 DUP3 DUP3 MSTORE CALLER PUSH1 0x60 SHL PUSH1 0x40 DUP3 ADD MSTORE TIMESTAMP PUSH1 0x54 DUP3 ADD MSTORE DUP4 DUP6 PUSH1 0x74 DUP4 ADD CALLDATACOPY PUSH2 0x50E PUSH1 0x20 PUSH1 0x74 DUP4 DUP8 DUP2 ADD PREVRANDAO DUP4 DUP3 ADD MSTORE SUB ADD DUP1 DUP5 MSTORE ADD DUP3 PUSH2 0xFE1 JUMP JUMPDEST MLOAD SWAP1 KECCAK256 SWAP2 PUSH1 0x40 MLOAD SWAP4 PUSH2 0x51F DUP6 PUSH2 0xFC6 JUMP JUMPDEST DUP3 DUP6 MSTORE PUSH1 0x20 DUP6 ADD SWAP1 CALLER DUP3 MSTORE PUSH2 0x535 CALLDATASIZE DUP5 DUP4 PUSH2 0x11FC JUMP JUMPDEST SWAP6 PUSH1 0x40 DUP2 ADD SWAP7 DUP8 MSTORE PUSH1 0x60 DUP2 ADD SWAP7 PUSH1 0x0 DUP9 MSTORE PUSH1 0x20 SWAP8 PUSH1 0x40 MLOAD SWAP1 PUSH2 0x557 DUP11 DUP4 PUSH2 0xFE1 JUMP JUMPDEST PUSH1 0x0 DUP3 MSTORE PUSH1 0x80 DUP5 ADD SWAP2 DUP3 MSTORE PUSH1 0xA0 DUP5 ADD SWAP3 PUSH1 0x0 DUP5 MSTORE PUSH1 0x40 MLOAD SWAP7 PUSH2 0x579 DUP13 DUP10 PUSH2 0xFE1 JUMP JUMPDEST PUSH1 0x0 DUP1 DUP10 MSTORE PUSH1 0xC0 DUP8 ADD SWAP9 DUP10 MSTORE DUP12 DUP2 MSTORE DUP1 DUP14 MSTORE PUSH1 0x40 SWAP1 KECCAK256 SWAP6 MLOAD DUP7 SSTORE MLOAD PUSH1 0x1 DUP7 ADD DUP1 SLOAD PUSH1 0x1 PUSH1 0x1 PUSH1 0xA0 SHL SUB NOT AND PUSH1 0x1 PUSH1 0x1 PUSH1 0xA0 SHL SUB SWAP3 SWAP1 SWAP3 AND SWAP2 SWAP1 SWAP2 OR SWAP1 SSTORE MLOAD DUP1 MLOAD PUSH1 0x2 DUP7 ADD SWAP2 PUSH1 0x1 PUSH1 0x1 PUSH1 0x40 SHL SUB DUP3 GT PUSH2 0x7E1 JUMPI PUSH2 0x5E0 DUP3 PUSH2 0x5DA DUP6 SLOAD PUSH2 0xF71 JUMP JUMPDEST DUP6 PUSH2 0x132C JUMP JUMPDEST DUP13 SWAP1 DUP14 PUSH1 0x1F DUP5 GT PUSH1 0x1 EQ PUSH2 0x87D JUMPI POP SWAP2 DUP1 PUSH2 0x618 SWAP3 PUSH2 0x633 SWAP7 SWAP6 SWAP5 PUSH1 0x0 SWAP3 PUSH2 0x872 JUMPI JUMPDEST POP POP DUP2 PUSH1 0x1 SHL SWAP2 PUSH1 0x0 NOT SWAP1 PUSH1 0x3 SHL SHR NOT AND OR SWAP1 JUMP JUMPDEST SWAP1 SSTORE JUMPDEST MLOAD ISZERO ISZERO PUSH1 0x3 DUP6 ADD SWAP1 PUSH1 0xFF DUP1 NOT DUP4 SLOAD AND SWAP2 ISZERO ISZERO AND OR SWAP1 SSTORE JUMP JUMPDEST MLOAD DUP1 MLOAD PUSH1 0x4 DUP5 ADD SWAP2 PUSH1 0x1 PUSH1 0x1 PUSH1 0x40 SHL SUB DUP3 GT PUSH2 0x7E1 JUMPI PUSH2 0x657 DUP3 PUSH2 0x5DA DUP6 SLOAD PUSH2 0xF71 JUMP JUMPDEST DUP11 SWAP1 PUSH1 0x1F DUP4 GT PUSH1 0x1 EQ PUSH2 0x802 JUMPI DUP3 PUSH1 0x6 SWAP7 SWAP6 SWAP4 PUSH2 0x6AA SWAP6 SWAP4 PUSH2 0x68F SWAP4 PUSH1 0x0 SWAP3 PUSH2 0x7F7 JUMPI POP POP DUP2 PUSH1 0x1 SHL SWAP2 PUSH1 0x0 NOT SWAP1 PUSH1 0x3 SHL SHR NOT AND OR SWAP1 JUMP JUMPDEST SWAP1 SSTORE JUMPDEST MLOAD ISZERO ISZERO PUSH1 0x5 DUP4 ADD SWAP1 PUSH1 0xFF DUP1 NOT DUP4 SLOAD AND SWAP2 ISZERO ISZERO AND OR SWAP1 SSTORE JUMP JUMPDEST ADD SWAP2 MLOAD SWAP2 DUP3 MLOAD PUSH1 0x1 PUSH1 0x1 PUSH1 0x40 SHL SUB DUP2 GT PUSH2 0x7E1 JUMPI DUP7 SWAP4 PUSH2 0x6CE DUP3 PUSH2 0x5DA DUP6 SLOAD PUSH2 0xF71 JUMP JUMPDEST DUP9 SWAP1 PUSH1 0x1F DUP4 GT PUSH1 0x1 EQ PUSH2 0x751 JUMPI DUP3 PUSH32 0x34602E40C4C49141C143FEF967CB05AFC0207BA0F21B2BC82B56B712B4250FCA SWAP6 SWAP4 PUSH2 0x73B SWAP6 SWAP4 PUSH2 0x724 SWAP4 PUSH1 0x0 SWAP3 PUSH2 0x746 JUMPI POP POP DUP2 PUSH1 0x1 SHL SWAP2 PUSH1 0x0 NOT SWAP1 PUSH1 0x3 SHL SHR NOT AND OR SWAP1 JUMP JUMPDEST SWAP1 SSTORE JUMPDEST PUSH1 0x40 MLOAD SWAP2 DUP3 SWAP2 DUP10 DUP4 MSTORE CALLER SWAP7 DUP11 DUP5 ADD SWAP2 PUSH2 0x137E JUMP JUMPDEST SUB SWAP1 LOG4 PUSH1 0x40 MLOAD SWAP1 DUP2 MSTORE RETURN JUMPDEST ADD MLOAD SWAP1 POP DUP13 DUP1 PUSH2 0x603 JUMP JUMPDEST SWAP1 PUSH1 0x1F NOT DUP4 AND SWAP2 DUP5 PUSH1 0x0 MSTORE DUP11 PUSH1 0x0 KECCAK256 SWAP3 PUSH1 0x0 JUMPDEST DUP13 DUP3 DUP3 LT PUSH2 0x7C8 JUMPI POP POP SWAP3 PUSH1 0x1 SWAP3 DUP6 SWAP3 PUSH32 0x34602E40C4C49141C143FEF967CB05AFC0207BA0F21B2BC82B56B712B4250FCA SWAP9 SWAP7 PUSH2 0x73B SWAP9 SWAP7 LT PUSH2 0x7AF JUMPI JUMPDEST POP POP POP DUP2 SHL ADD SWAP1 SSTORE PUSH2 0x727 JUMP JUMPDEST ADD MLOAD PUSH1 0x0 NOT PUSH1 0xF8 DUP5 PUSH1 0x3 SHL AND SHR NOT AND SWAP1 SSTORE DUP12 DUP1 DUP1 PUSH2 0x7A2 JUMP JUMPDEST DUP5 DUP5 ADD MLOAD DUP7 SSTORE DUP13 SWAP10 POP PUSH1 0x1 SWAP1 SWAP6 ADD SWAP5 SWAP4 DUP5 ADD SWAP4 ADD PUSH2 0x764 JUMP JUMPDEST PUSH4 0x4E487B71 PUSH1 0xE0 SHL PUSH1 0x0 MSTORE PUSH1 0x41 PUSH1 0x4 MSTORE PUSH1 0x24 PUSH1 0x0 REVERT JUMPDEST ADD MLOAD SWAP1 POP DUP15 DUP1 PUSH2 0x603 JUMP JUMPDEST PUSH1 0x0 DUP5 DUP2 MSTORE DUP13 DUP2 KECCAK256 SWAP3 SWAP2 SWAP1 PUSH1 0x1F NOT DUP6 AND SWAP1 DUP15 JUMPDEST DUP3 DUP3 LT PUSH2 0x85A JUMPI POP POP SWAP3 PUSH1 0x1 SWAP3 DUP6 SWAP3 PUSH1 0x6 SWAP10 SWAP9 SWAP7 PUSH2 0x6AA SWAP9 SWAP7 LT PUSH2 0x841 JUMPI JUMPDEST POP POP POP DUP2 SHL ADD SWAP1 SSTORE PUSH2 0x692 JUMP JUMPDEST ADD MLOAD PUSH1 0x0 NOT PUSH1 0xF8 DUP5 PUSH1 0x3 SHL AND SHR NOT AND SWAP1 SSTORE DUP14 DUP1 DUP1 PUSH2 0x834 JUMP JUMPDEST DUP1 PUSH1 0x1 DUP7 SWAP8 DUP3 SWAP5 SWAP8 DUP8 ADD MLOAD DUP2 SSTORE ADD SWAP7 ADD SWAP5 ADD SWAP1 PUSH2 0x815 JUMP JUMPDEST ADD MLOAD SWAP1 POP DUP16 DUP1 PUSH2 0x603 JUMP JUMPDEST SWAP2 SWAP1 PUSH1 0x1F NOT DUP5 AND DUP6 PUSH1 0x0 MSTORE DUP4 PUSH1 0x0 KECCAK256 SWAP4 PUSH1 0x0 SWAP1 JUMPDEST DUP3 DUP3 LT PUSH2 0x8D3 JUMPI POP POP SWAP2 PUSH1 0x1 SWAP4 SWAP2 DUP6 PUSH2 0x633 SWAP9 SWAP8 SWAP7 SWAP5 LT PUSH2 0x8BA JUMPI JUMPDEST POP POP POP DUP2 SHL ADD SWAP1 SSTORE PUSH2 0x61B JUMP JUMPDEST ADD MLOAD PUSH1 0x0 NOT PUSH1 0xF8 DUP5 PUSH1 0x3 SHL AND SHR NOT AND SWAP1 SSTORE DUP15 DUP1 DUP1 PUSH2 0x8AD JUMP JUMPDEST DUP1 PUSH1 0x1 DUP7 SWAP8 DUP3 SWAP5 SWAP8 DUP8 ADD MLOAD DUP2 SSTORE ADD SWAP7 ADD SWAP5 ADD SWAP1 PUSH2 0x891 JUMP JUMPDEST CALLVALUE PUSH2 0x248 JUMPI PUSH1 0x20 CALLDATASIZE PUSH1 0x3 NOT ADD SLT PUSH2 0x248 JUMPI PUSH2 0x244 PUSH2 0x90A PUSH1 0x4 CALLDATALOAD PUSH2 0x1233 JUMP JUMPDEST PUSH2 0x92B PUSH1 0x40 SWAP6 SWAP4 SWAP6 MLOAD SWAP6 DUP7 SWAP6 ISZERO ISZERO DUP7 MSTORE PUSH1 0x80 PUSH1 0x20 DUP8 ADD MSTORE PUSH1 0x80 DUP7 ADD SWAP1 PUSH2 0xEE0 JUMP JUMPDEST SWAP2 ISZERO ISZERO PUSH1 0x40 DUP6 ADD MSTORE DUP4 DUP3 SUB PUSH1 0x60 DUP6 ADD MSTORE PUSH2 0xEE0 JUMP JUMPDEST CALLVALUE PUSH2 0x248 JUMPI PUSH1 0x60 CALLDATASIZE PUSH1 0x3 NOT ADD SLT PUSH2 0x248 JUMPI PUSH2 0x959 PUSH2 0xF32 JUMP JUMPDEST PUSH1 0x44 CALLDATALOAD SWAP1 PUSH1 0x1 PUSH1 0x1 PUSH1 0x40 SHL SUB DUP3 GT PUSH2 0x248 JUMPI PUSH2 0x986 PUSH2 0x97F PUSH2 0x98F SWAP4 CALLDATASIZE SWAP1 PUSH1 0x4 ADD PUSH2 0xF05 JUMP JUMPDEST CALLDATASIZE SWAP2 PUSH2 0x11FC JUMP JUMPDEST SWAP1 PUSH1 0x4 CALLDATALOAD PUSH2 0x1EDC JUMP JUMPDEST STOP JUMPDEST CALLVALUE PUSH2 0x248 JUMPI PUSH1 0x0 CALLDATASIZE PUSH1 0x3 NOT ADD SLT PUSH2 0x248 JUMPI PUSH1 0x20 PUSH1 0x6 SLOAD PUSH1 0x40 MLOAD SWAP1 DUP2 MSTORE RETURN JUMPDEST CALLVALUE PUSH2 0x248 JUMPI PUSH1 0xA0 CALLDATASIZE PUSH1 0x3 NOT ADD SLT PUSH2 0x248 JUMPI PUSH2 0x9C8 PUSH2 0xF32 JUMP JUMPDEST PUSH1 0x44 CALLDATALOAD PUSH1 0x1 PUSH1 0x1 PUSH1 0x40 SHL SUB DUP2 GT PUSH2 0x248 JUMPI PUSH2 0x9E7 SWAP1 CALLDATASIZE SWAP1 PUSH1 0x4 ADD PUSH2 0xF05 JUMP JUMPDEST PUSH1 0x64 SWAP3 SWAP2 SWAP3 CALLDATALOAD PUSH1 0x1 PUSH1 0x1 PUSH1 0x40 SHL SUB DUP2 GT PUSH2 0x248 JUMPI PUSH2 0xA09 SWAP1 CALLDATASIZE SWAP1 PUSH1 0x4 ADD PUSH2 0xF05 JUMP JUMPDEST PUSH1 0x84 SWAP3 SWAP2 SWAP3 CALLDATALOAD PUSH1 0x1 PUSH1 0x1 PUSH1 0x40 SHL SUB DUP2 GT PUSH2 0x248 JUMPI PUSH2 0xA2B SWAP1 CALLDATASIZE SWAP1 PUSH1 0x4 ADD PUSH2 0xF05 JUMP JUMPDEST SWAP4 SWAP1 SWAP3 CALLER PUSH1 0x0 MSTORE PUSH1 0x1 PUSH1 0x20 MSTORE PUSH1 0xFF PUSH1 0x40 PUSH1 0x0 KECCAK256 SLOAD AND ISZERO PUSH2 0xA53 JUMPI PUSH2 0x98F SWAP7 CALLER SWAP7 PUSH1 0x4 CALLDATALOAD PUSH2 0x13EF JUMP JUMPDEST PUSH3 0x82B429 PUSH1 0xE8 SHL PUSH1 0x0 MSTORE PUSH1 0x4 PUSH1 0x0 REVERT JUMPDEST CALLVALUE PUSH2 0x248 JUMPI PUSH1 0x20 CALLDATASIZE PUSH1 0x3 NOT ADD SLT PUSH2 0x248 JUMPI PUSH1 0x8 SLOAD PUSH1 0x4 CALLDATALOAD SWAP1 PUSH1 0x1 PUSH1 0x1 PUSH1 0xA0 SHL SUB AND CALLER SUB PUSH2 0x31E JUMPI PUSH1 0x64 DUP2 GT PUSH2 0xAC3 JUMPI PUSH1 0x20 DUP2 PUSH32 0xBC589FCCF641D342B7853C2C6FACA39631D4D19EFBE77E71E5611E31678C220E SWAP3 PUSH1 0x6 SSTORE PUSH1 0x40 MLOAD SWAP1 DUP2 MSTORE LOG1 STOP JUMPDEST PUSH4 0x309CB87 PUSH1 0xE5 SHL PUSH1 0x0 MSTORE PUSH1 0x4 PUSH1 0x0 REVERT JUMPDEST CALLVALUE PUSH2 0x248 JUMPI PUSH1 0x20 CALLDATASIZE PUSH1 0x3 NOT ADD SLT PUSH2 0x248 JUMPI PUSH1 0x4 CALLDATALOAD PUSH1 0x0 MSTORE PUSH1 0x4 PUSH1 0x20 MSTORE PUSH1 0x40 PUSH1 0x0 KECCAK256 DUP1 SLOAD SWAP1 PUSH1 0x1 PUSH1 0x1 PUSH1 0x40 SHL SUB DUP3 GT PUSH2 0x7E1 JUMPI PUSH1 0x40 MLOAD SWAP2 PUSH2 0xB1A PUSH1 0x20 DUP3 PUSH1 0x5 SHL ADD DUP5 PUSH2 0xFE1 JUMP JUMPDEST DUP1 DUP4 MSTORE PUSH1 0x20 DUP4 ADD DUP1 SWAP3 PUSH1 0x0 MSTORE PUSH1 0x20 PUSH1 0x0 KECCAK256 PUSH1 0x0 SWAP2 JUMPDEST DUP4 DUP4 LT PUSH2 0xBEC JUMPI DUP5 DUP7 PUSH1 0x40 MLOAD SWAP2 DUP3 SWAP2 PUSH1 0x20 DUP4 ADD SWAP1 PUSH1 0x20 DUP5 MSTORE MLOAD DUP1 SWAP2 MSTORE PUSH1 0x40 DUP4 ADD SWAP1 PUSH1 0x40 DUP2 PUSH1 0x5 SHL DUP6 ADD ADD SWAP3 SWAP2 PUSH1 0x0 SWAP1 JUMPDEST DUP3 DUP3 LT PUSH2 0xB6E JUMPI POP POP POP POP SUB SWAP1 RETURN JUMPDEST SWAP2 SWAP4 PUSH1 0x1 SWAP2 SWAP4 SWAP6 POP PUSH1 0x20 DUP1 SWAP2 PUSH1 0x3F NOT DUP10 DUP3 SUB ADD DUP6 MSTORE DUP8 MLOAD SWAP1 DUP5 DUP1 PUSH1 0xA0 SHL SUB DUP3 MLOAD AND DUP2 MSTORE DUP3 DUP3 ADD MLOAD ISZERO ISZERO DUP4 DUP3 ADD MSTORE PUSH1 0xA0 DUP1 PUSH2 0xBCC PUSH2 0xBBA PUSH1 0x40 DUP7 ADD MLOAD PUSH1 0xC0 PUSH1 0x40 DUP8 ADD MSTORE PUSH1 0xC0 DUP7 ADD SWAP1 PUSH2 0xEE0 JUMP JUMPDEST PUSH1 0x60 DUP7 ADD MLOAD DUP6 DUP3 SUB PUSH1 0x60 DUP8 ADD MSTORE PUSH2 0xEE0 JUMP JUMPDEST SWAP4 PUSH1 0x80 DUP2 ADD MLOAD PUSH1 0x80 DUP6 ADD MSTORE ADD MLOAD SWAP2 ADD MSTORE SWAP7 ADD SWAP3 ADD SWAP3 ADD DUP6 SWAP5 SWAP4 SWAP2 SWAP3 PUSH2 0xB5F JUMP JUMPDEST PUSH1 0x5 PUSH1 0x20 PUSH1 0x1 SWAP3 PUSH1 0x40 MLOAD PUSH2 0xBFF DUP2 PUSH2 0xFAB JUMP JUMPDEST PUSH1 0xFF DUP7 SLOAD DUP7 DUP1 PUSH1 0xA0 SHL SUB DUP2 AND DUP4 MSTORE PUSH1 0xA0 SHR AND ISZERO ISZERO DUP4 DUP3 ADD MSTORE PUSH2 0xC22 DUP6 DUP8 ADD PUSH2 0x1002 JUMP JUMPDEST PUSH1 0x40 DUP3 ADD MSTORE PUSH2 0xC33 PUSH1 0x2 DUP8 ADD PUSH2 0x1002 JUMP JUMPDEST PUSH1 0x60 DUP3 ADD MSTORE PUSH1 0x3 DUP7 ADD SLOAD PUSH1 0x80 DUP3 ADD MSTORE PUSH1 0x4 DUP7 ADD SLOAD PUSH1 0xA0 DUP3 ADD MSTORE DUP2 MSTORE ADD SWAP3 ADD SWAP3 ADD SWAP2 SWAP1 PUSH2 0xB2F JUMP JUMPDEST CALLVALUE PUSH2 0x248 JUMPI PUSH1 0x0 CALLDATASIZE PUSH1 0x3 NOT ADD SLT PUSH2 0x248 JUMPI PUSH1 0x40 MLOAD PUSH32 0x0 PUSH1 0x1 PUSH1 0x1 PUSH1 0xA0 SHL SUB AND DUP2 MSTORE PUSH1 0x20 SWAP1 RETURN JUMPDEST CALLVALUE PUSH2 0x248 JUMPI PUSH1 0x40 CALLDATASIZE PUSH1 0x3 NOT ADD SLT PUSH2 0x248 JUMPI PUSH1 0x20 PUSH2 0xCC5 PUSH2 0xCBD PUSH2 0xEA7 JUMP JUMPDEST PUSH1 0x4 CALLDATALOAD PUSH2 0x10EB JUMP JUMPDEST PUSH1 0x40 MLOAD SWAP1 DUP2 MSTORE RETURN JUMPDEST CALLVALUE PUSH2 0x248 JUMPI PUSH1 0x80 CALLDATASIZE PUSH1 0x3 NOT ADD SLT PUSH2 0x248 JUMPI PUSH1 0x4 CALLDATALOAD PUSH1 0x24 CALLDATALOAD PUSH1 0x1 PUSH1 0x1 PUSH1 0x40 SHL SUB DUP2 GT PUSH2 0x248 JUMPI PUSH2 0xD00 SWAP1 CALLDATASIZE SWAP1 PUSH1 0x4 ADD PUSH2 0xF05 JUMP JUMPDEST PUSH1 0x44 CALLDATALOAD SWAP3 SWAP2 DUP4 ISZERO ISZERO DUP5 SUB PUSH2 0x248 JUMPI PUSH1 0x64 CALLDATALOAD PUSH1 0x1 PUSH1 0x1 PUSH1 0x40 SHL SUB DUP2 GT PUSH2 0x248 JUMPI PUSH2 0xD2D SWAP1 CALLDATASIZE SWAP1 PUSH1 0x4 ADD PUSH2 0xF05 JUMP JUMPDEST SWAP3 SWAP1 CALLER PUSH1 0x0 MSTORE PUSH1 0x1 PUSH1 0x20 MSTORE PUSH1 0xFF PUSH1 0x40 PUSH1 0x0 KECCAK256 SLOAD AND ISZERO PUSH2 0xA53 JUMPI PUSH2 0xD5F SWAP4 PUSH1 0x60 DUP2 LT PUSH2 0xD8B JUMPI DUP2 DUP2 SWAP4 JUMPDEST CALLER SWAP6 DUP10 DUP10 PUSH2 0x13EF JUMP JUMPDEST PUSH2 0xD69 DUP3 DUP3 PUSH2 0x1EA0 JUMP JUMPDEST PUSH2 0xD6F JUMPI STOP JUMPDEST PUSH2 0x98F SWAP2 PUSH1 0x40 MLOAD SWAP2 PUSH2 0xD82 PUSH1 0x20 DUP5 PUSH2 0xFE1 JUMP JUMPDEST PUSH1 0x0 DUP4 MSTORE PUSH2 0x1EDC JUMP JUMPDEST DUP2 PUSH1 0x0 SWAP4 PUSH2 0xD56 JUMP JUMPDEST CALLVALUE PUSH2 0x248 JUMPI PUSH1 0x40 CALLDATASIZE PUSH1 0x3 NOT ADD SLT PUSH2 0x248 JUMPI PUSH2 0xDAD PUSH2 0xEA7 JUMP JUMPDEST PUSH1 0x4 CALLDATALOAD PUSH1 0x0 MSTORE PUSH1 0x7 PUSH1 0x20 MSTORE PUSH1 0x40 PUSH1 0x0 KECCAK256 SWAP1 PUSH1 0x1 DUP1 PUSH1 0xA0 SHL SUB AND PUSH1 0x0 MSTORE PUSH1 0x20 MSTORE PUSH2 0x244 PUSH2 0xDDC PUSH1 0x40 PUSH1 0x0 KECCAK256 PUSH2 0x1002 JUMP JUMPDEST PUSH1 0x40 MLOAD SWAP2 DUP3 SWAP2 PUSH1 0x20 DUP4 MSTORE PUSH1 0x20 DUP4 ADD SWAP1 PUSH2 0xEE0 JUMP JUMPDEST CALLVALUE PUSH2 0x248 JUMPI PUSH1 0x40 CALLDATASIZE PUSH1 0x3 NOT ADD SLT PUSH2 0x248 JUMPI PUSH2 0xE09 PUSH2 0xE91 JUMP JUMPDEST PUSH1 0x8 SLOAD PUSH1 0x24 CALLDATALOAD SWAP2 SWAP1 PUSH1 0x1 PUSH1 0x1 PUSH1 0xA0 SHL SUB AND CALLER SUB PUSH2 0x31E JUMPI PUSH1 0x1 PUSH1 0x1 PUSH1 0xA0 SHL SUB AND SWAP1 DUP2 ISZERO PUSH2 0x30D JUMPI PUSH1 0x20 PUSH32 0xF21E638CBCCAD60709E37C990768543730CE2449D9C79B38E1E972FA99B3A219 SWAP2 DUP4 PUSH1 0x0 MSTORE PUSH1 0x2 DUP3 MSTORE PUSH2 0xE85 DUP2 PUSH2 0xE80 PUSH1 0x40 PUSH1 0x0 KECCAK256 SLOAD DUP8 PUSH1 0x0 MSTORE PUSH1 0x2 DUP7 MSTORE DUP3 PUSH1 0x40 PUSH1 0x0 KECCAK256 SSTORE PUSH1 0x3 SLOAD PUSH2 0xF41 JUMP JUMPDEST PUSH2 0xF64 JUMP JUMPDEST PUSH1 0x3 SSTORE PUSH1 0x40 MLOAD SWAP1 DUP2 MSTORE LOG2 STOP JUMPDEST PUSH1 0x4 CALLDATALOAD SWAP1 PUSH1 0x1 PUSH1 0x1 PUSH1 0xA0 SHL SUB DUP3 AND DUP3 SUB PUSH2 0x248 JUMPI JUMP JUMPDEST PUSH1 0x24 CALLDATALOAD SWAP1 PUSH1 0x1 PUSH1 0x1 PUSH1 0xA0 SHL SUB DUP3 AND DUP3 SUB PUSH2 0x248 JUMPI JUMP JUMPDEST PUSH1 0x0 JUMPDEST DUP4 DUP2 LT PUSH2 0xED0 JUMPI POP POP PUSH1 0x0 SWAP2 ADD MSTORE JUMP JUMPDEST DUP2 DUP2 ADD MLOAD DUP4 DUP3 ADD MSTORE PUSH1 0x20 ADD PUSH2 0xEC0 JUMP JUMPDEST SWAP1 PUSH1 0x20 SWAP2 PUSH2 0xEF9 DUP2 MLOAD DUP1 SWAP3 DUP2 DUP6 MSTORE DUP6 DUP1 DUP7 ADD SWAP2 ADD PUSH2 0xEBD JUMP JUMPDEST PUSH1 0x1F ADD PUSH1 0x1F NOT AND ADD ADD SWAP1 JUMP JUMPDEST SWAP2 DUP2 PUSH1 0x1F DUP5 ADD SLT ISZERO PUSH2 0x248 JUMPI DUP3 CALLDATALOAD SWAP2 PUSH1 0x1 PUSH1 0x1 PUSH1 0x40 SHL SUB DUP4 GT PUSH2 0x248 JUMPI PUSH1 0x20 DUP4 DUP2 DUP7 ADD SWAP6 ADD ADD GT PUSH2 0x248 JUMPI JUMP JUMPDEST PUSH1 0x24 CALLDATALOAD SWAP1 DUP2 ISZERO ISZERO DUP3 SUB PUSH2 0x248 JUMPI JUMP JUMPDEST SWAP2 SWAP1 DUP3 SUB SWAP2 DUP3 GT PUSH2 0xF4E JUMPI JUMP JUMPDEST PUSH4 0x4E487B71 PUSH1 0xE0 SHL PUSH1 0x0 MSTORE PUSH1 0x11 PUSH1 0x4 MSTORE PUSH1 0x24 PUSH1 0x0 REVERT JUMPDEST SWAP2 SWAP1 DUP3 ADD DUP1 SWAP3 GT PUSH2 0xF4E JUMPI JUMP JUMPDEST SWAP1 PUSH1 0x1 DUP3 DUP2 SHR SWAP3 AND DUP1 ISZERO PUSH2 0xFA1 JUMPI JUMPDEST PUSH1 0x20 DUP4 LT EQ PUSH2 0xF8B JUMPI JUMP JUMPDEST PUSH4 0x4E487B71 PUSH1 0xE0 SHL PUSH1 0x0 MSTORE PUSH1 0x22 PUSH1 0x4 MSTORE PUSH1 0x24 PUSH1 0x0 REVERT JUMPDEST SWAP2 PUSH1 0x7F AND SWAP2 PUSH2 0xF80 JUMP JUMPDEST PUSH1 0xC0 DUP2 ADD SWAP1 DUP2 LT PUSH1 0x1 PUSH1 0x1 PUSH1 0x40 SHL SUB DUP3 GT OR PUSH2 0x7E1 JUMPI PUSH1 0x40 MSTORE JUMP JUMPDEST PUSH1 0xE0 DUP2 ADD SWAP1 DUP2 LT PUSH1 0x1 PUSH1 0x1 PUSH1 0x40 SHL SUB DUP3 GT OR PUSH2 0x7E1 JUMPI PUSH1 0x40 MSTORE JUMP JUMPDEST SWAP1 PUSH1 0x1F DUP1 NOT SWAP2 ADD AND DUP2 ADD SWAP1 DUP2 LT PUSH1 0x1 PUSH1 0x1 PUSH1 0x40 SHL SUB DUP3 GT OR PUSH2 0x7E1 JUMPI PUSH1 0x40 MSTORE JUMP JUMPDEST SWAP1 PUSH1 0x40 MLOAD SWAP2 DUP3 PUSH1 0x0 DUP3 SLOAD SWAP3 PUSH2 0x1016 DUP5 PUSH2 0xF71 JUMP JUMPDEST DUP1 DUP5 MSTORE SWAP4 PUSH1 0x1 DUP2 AND SWAP1 DUP2 ISZERO PUSH2 0x1084 JUMPI POP PUSH1 0x1 EQ PUSH2 0x103D JUMPI JUMPDEST POP PUSH2 0x103B SWAP3 POP SUB DUP4 PUSH2 0xFE1 JUMP JUMPDEST JUMP JUMPDEST SWAP1 POP PUSH1 0x0 SWAP3 SWAP2 SWAP3 MSTORE PUSH1 0x20 PUSH1 0x0 KECCAK256 SWAP1 PUSH1 0x0 SWAP2 JUMPDEST DUP2 DUP4 LT PUSH2 0x1068 JUMPI POP POP SWAP1 PUSH1 0x20 PUSH2 0x103B SWAP3 DUP3 ADD ADD CODESIZE PUSH2 0x102E JUMP JUMPDEST PUSH1 0x20 SWAP2 SWAP4 POP DUP1 PUSH1 0x1 SWAP2 SLOAD DUP4 DUP6 DUP10 ADD ADD MSTORE ADD SWAP2 ADD SWAP1 SWAP2 DUP5 SWAP3 PUSH2 0x104F JUMP JUMPDEST SWAP1 POP PUSH1 0x20 SWAP3 POP PUSH2 0x103B SWAP5 SWAP2 POP PUSH1 0xFF NOT AND DUP3 DUP5 ADD MSTORE ISZERO ISZERO PUSH1 0x5 SHL DUP3 ADD ADD CODESIZE PUSH2 0x102E JUMP JUMPDEST PUSH1 0x1 PUSH1 0x1 PUSH1 0x40 SHL SUB DUP2 GT PUSH2 0x7E1 JUMPI PUSH1 0x1F ADD PUSH1 0x1F NOT AND PUSH1 0x20 ADD SWAP1 JUMP JUMPDEST DUP1 MLOAD DUP3 LT ISZERO PUSH2 0x10D5 JUMPI PUSH1 0x20 SWAP2 PUSH1 0x5 SHL ADD ADD SWAP1 JUMP JUMPDEST PUSH4 0x4E487B71 PUSH1 0xE0 SHL PUSH1 0x0 MSTORE PUSH1 0x32 PUSH1 0x4 MSTORE PUSH1 0x24 PUSH1 0x0 REVERT JUMPDEST PUSH1 0x0 MSTORE PUSH1 0x4 PUSH1 0x20 MSTORE PUSH1 0x40 PUSH1 0x0 KECCAK256 DUP1 SLOAD PUSH1 0x1 PUSH1 0x1 PUSH1 0x40 SHL SUB DUP2 GT PUSH2 0x7E1 JUMPI PUSH1 0x40 MLOAD SWAP2 PUSH2 0x111C PUSH1 0x20 DUP4 PUSH1 0x5 SHL ADD DUP5 PUSH2 0xFE1 JUMP JUMPDEST DUP2 DUP4 MSTORE PUSH1 0x20 DUP4 ADD SWAP1 PUSH1 0x0 MSTORE PUSH1 0x20 PUSH1 0x0 KECCAK256 PUSH1 0x0 SWAP2 JUMPDEST DUP4 DUP4 LT PUSH2 0x118E JUMPI POP POP POP POP PUSH1 0x0 JUMPDEST DUP2 MLOAD DUP2 LT ISZERO PUSH2 0x1186 JUMPI PUSH1 0x1 PUSH1 0x1 PUSH1 0xA0 SHL SUB PUSH2 0x1159 DUP3 DUP5 PUSH2 0x10C1 JUMP JUMPDEST MLOAD MLOAD AND PUSH1 0x1 PUSH1 0x1 PUSH1 0xA0 SHL SUB DUP5 AND EQ PUSH2 0x1173 JUMPI PUSH1 0x1 ADD PUSH2 0x113E JUMP JUMPDEST PUSH1 0x80 SWAP3 POP PUSH2 0x1180 SWAP2 PUSH2 0x10C1 JUMP JUMPDEST MLOAD ADD MLOAD SWAP1 JUMP JUMPDEST POP POP POP PUSH1 0x0 SWAP1 JUMP JUMPDEST PUSH1 0x5 PUSH1 0x20 PUSH1 0x1 SWAP3 PUSH1 0x40 MLOAD PUSH2 0x11A1 DUP2 PUSH2 0xFAB JUMP JUMPDEST PUSH1 0xFF DUP7 SLOAD DUP7 DUP1 PUSH1 0xA0 SHL SUB DUP2 AND DUP4 MSTORE PUSH1 0xA0 SHR AND ISZERO ISZERO DUP4 DUP3 ADD MSTORE PUSH2 0x11C4 DUP6 DUP8 ADD PUSH2 0x1002 JUMP JUMPDEST PUSH1 0x40 DUP3 ADD MSTORE PUSH2 0x11D5 PUSH1 0x2 DUP8 ADD PUSH2 0x1002 JUMP JUMPDEST PUSH1 0x60 DUP3 ADD MSTORE PUSH1 0x3 DUP7 ADD SLOAD PUSH1 0x80 DUP3 ADD MSTORE PUSH1 0x4 DUP7 ADD SLOAD PUSH1 0xA0 DUP3 ADD MSTORE DUP2 MSTORE ADD SWAP3 ADD SWAP3 ADD SWAP2 SWAP1 PUSH2 0x1130 JUMP JUMPDEST SWAP3 SWAP2 SWAP3 PUSH2 0x1208 DUP3 PUSH2 0x10A6 JUMP JUMPDEST SWAP2 PUSH2 0x1216 PUSH1 0x40 MLOAD SWAP4 DUP5 PUSH2 0xFE1 JUMP JUMPDEST DUP3 SWAP5 DUP2 DUP5 MSTORE DUP2 DUP4 ADD GT PUSH2 0x248 JUMPI DUP3 DUP2 PUSH1 0x20 SWAP4 DUP5 PUSH1 0x0 SWAP7 ADD CALLDATACOPY ADD ADD MSTORE JUMP JUMPDEST PUSH1 0x0 MSTORE PUSH1 0x0 PUSH1 0x20 MSTORE PUSH1 0x40 PUSH1 0x0 KECCAK256 SWAP1 PUSH1 0x40 MLOAD SWAP1 PUSH2 0x124E DUP3 PUSH2 0xFC6 JUMP JUMPDEST DUP3 SLOAD DUP3 MSTORE PUSH1 0x1 DUP4 ADD SLOAD PUSH1 0x1 PUSH1 0x1 PUSH1 0xA0 SHL SUB AND PUSH1 0x20 DUP4 ADD SWAP1 DUP2 MSTORE PUSH2 0x1273 PUSH1 0x2 DUP6 ADD PUSH2 0x1002 JUMP JUMPDEST PUSH1 0x40 DUP5 ADD MSTORE PUSH1 0xFF PUSH1 0x3 DUP6 ADD SLOAD AND PUSH1 0x60 DUP5 ADD SWAP1 ISZERO ISZERO DUP2 MSTORE PUSH2 0x1295 PUSH1 0x4 DUP7 ADD PUSH2 0x1002 JUMP JUMPDEST SWAP2 PUSH1 0x80 DUP6 ADD SWAP3 DUP4 MSTORE PUSH1 0xC0 PUSH2 0x12BC PUSH1 0x6 PUSH1 0xFF PUSH1 0x5 DUP11 ADD SLOAD AND SWAP9 PUSH1 0xA0 DUP10 ADD SWAP10 ISZERO ISZERO DUP11 MSTORE ADD PUSH2 0x1002 JUMP JUMPDEST SWAP6 ADD SWAP5 DUP6 MSTORE MLOAD PUSH1 0x1 PUSH1 0x1 PUSH1 0xA0 SHL SUB AND ISZERO PUSH2 0x1316 JUMPI MLOAD ISZERO PUSH2 0x12E4 JUMPI MLOAD SWAP3 MLOAD SWAP2 MLOAD PUSH1 0x1 SWAP4 SWAP3 ISZERO ISZERO SWAP2 JUMP JUMPDEST POP SWAP2 POP POP PUSH1 0x0 SWAP1 PUSH1 0x40 MLOAD PUSH2 0x12F9 PUSH1 0x20 DUP3 PUSH2 0xFE1 JUMP JUMPDEST PUSH1 0x0 DUP2 MSTORE SWAP1 PUSH1 0x0 SWAP1 PUSH1 0x40 MLOAD PUSH2 0x130F PUSH1 0x20 DUP3 PUSH2 0xFE1 JUMP JUMPDEST PUSH1 0x0 DUP2 MSTORE SWAP1 JUMP JUMPDEST POP POP SWAP2 POP POP PUSH1 0x0 SWAP1 PUSH1 0x40 MLOAD PUSH2 0x12F9 PUSH1 0x20 DUP3 PUSH2 0xFE1 JUMP JUMPDEST PUSH1 0x1F DUP3 GT PUSH2 0x1339 JUMPI POP POP POP JUMP JUMPDEST PUSH1 0x0 MSTORE PUSH1 0x20 PUSH1 0x0 KECCAK256 SWAP1 PUSH1 0x20 PUSH1 0x1F DUP5 ADD PUSH1 0x5 SHR DUP4 ADD SWAP4 LT PUSH2 0x1374 JUMPI JUMPDEST PUSH1 0x1F ADD PUSH1 0x5 SHR ADD SWAP1 JUMPDEST DUP2 DUP2 LT PUSH2 0x1368 JUMPI POP POP JUMP JUMPDEST PUSH1 0x0 DUP2 SSTORE PUSH1 0x1 ADD PUSH2 0x135D JUMP JUMPDEST SWAP1 SWAP2 POP DUP2 SWAP1 PUSH2 0x1354 JUMP JUMPDEST SWAP1 DUP1 PUSH1 0x20 SWAP4 SWAP3 DUP2 DUP5 MSTORE DUP5 DUP5 ADD CALLDATACOPY PUSH1 0x0 DUP3 DUP3 ADD DUP5 ADD MSTORE PUSH1 0x1F ADD PUSH1 0x1F NOT AND ADD ADD SWAP1 JUMP JUMPDEST DUP2 DUP2 MUL SWAP3 SWAP2 DUP2 ISZERO SWAP2 DUP5 DIV EQ OR ISZERO PUSH2 0xF4E JUMPI JUMP JUMPDEST DUP1 SLOAD DUP3 LT ISZERO PUSH2 0x10D5 JUMPI PUSH1 0x0 MSTORE PUSH1 0x5 PUSH1 0x20 PUSH1 0x0 KECCAK256 SWAP2 MUL ADD SWAP1 PUSH1 0x0 SWAP1 JUMP JUMPDEST PUSH1 0x40 MLOAD SWAP1 PUSH2 0x13DD PUSH1 0x40 DUP4 PUSH2 0xFE1 JUMP JUMPDEST PUSH1 0x3 DUP3 MSTORE PUSH3 0x594553 PUSH1 0xE8 SHL PUSH1 0x20 DUP4 ADD MSTORE JUMP JUMPDEST SWAP9 SWAP7 SWAP9 SWAP3 SWAP2 SWAP3 PUSH1 0xE0 MSTORE PUSH1 0xA0 MSTORE PUSH1 0xE0 MLOAD PUSH1 0x0 MSTORE PUSH1 0x0 PUSH1 0x20 MSTORE PUSH1 0x40 PUSH1 0x0 KECCAK256 SWAP8 PUSH1 0x1 DUP1 PUSH1 0xA0 SHL SUB PUSH1 0x1 DUP11 ADD SLOAD AND ISZERO PUSH2 0x1E8F JUMPI PUSH1 0xFF PUSH1 0x3 DUP11 ADD SLOAD AND PUSH2 0x149A JUMPI PUSH1 0x1 PUSH1 0x1 PUSH1 0xA0 SHL SUB DUP9 AND PUSH1 0x0 SWAP1 DUP2 MSTORE PUSH1 0x2 PUSH1 0x20 MSTORE PUSH1 0x40 SWAP1 KECCAK256 SLOAD SWAP1 DUP2 ISZERO PUSH2 0xA53 JUMPI PUSH1 0x0 JUMPDEST PUSH1 0xE0 MLOAD PUSH1 0x0 MSTORE PUSH1 0x4 PUSH1 0x20 MSTORE PUSH1 0x40 PUSH1 0x0 KECCAK256 SLOAD DUP2 LT ISZERO PUSH2 0x14AB JUMPI PUSH1 0xE0 MLOAD PUSH1 0x0 MSTORE PUSH1 0x4 PUSH1 0x20 MSTORE PUSH2 0x147E DUP2 PUSH1 0x40 PUSH1 0x0 KECCAK256 PUSH2 0x13B2 JUMP JUMPDEST POP SLOAD PUSH1 0x1 PUSH1 0x1 PUSH1 0xA0 SHL SUB DUP12 DUP2 AND SWAP2 AND EQ PUSH2 0x149A JUMPI PUSH1 0x1 ADD PUSH2 0x144D JUMP JUMPDEST PUSH4 0x4A4117F9 PUSH1 0xE0 SHL PUSH1 0x0 MSTORE PUSH1 0x4 PUSH1 0x0 REVERT JUMPDEST POP SWAP1 SWAP2 SWAP4 SWAP6 SWAP8 SWAP3 SWAP5 SWAP7 SWAP9 PUSH1 0x2 PUSH2 0x14C1 SWAP2 ADD PUSH2 0x1002 JUMP JUMPDEST PUSH1 0x40 PUSH2 0x180 DUP2 SWAP1 MSTORE DUP1 MLOAD PUSH2 0x1E0 DUP2 SWAP1 MSTORE SWAP2 SWAP10 SWAP2 PUSH2 0x14DE SWAP2 SWAP1 PUSH2 0xFE1 JUMP JUMPDEST PUSH1 0xB PUSH2 0x1E0 MLOAD MSTORE PUSH11 0x746573742D736F75726365 PUSH1 0xA8 SHL PUSH1 0x20 PUSH2 0x1E0 MLOAD ADD MSTORE PUSH1 0x0 PUSH2 0x120 MSTORE PUSH1 0xA0 MLOAD PUSH1 0x0 EQ PUSH2 0x1E66 JUMPI PUSH2 0x1514 PUSH2 0x13CE JUMP JUMPDEST PUSH2 0x120 MSTORE JUMPDEST PUSH2 0x180 MLOAD DUP1 MLOAD PUSH2 0x1C0 DUP2 SWAP1 MSTORE PUSH2 0x152F SWAP2 SWAP1 PUSH2 0xFE1 JUMP JUMPDEST PUSH1 0x20 PUSH2 0x1C0 MLOAD MSTORE PUSH1 0x1F NOT PUSH2 0x180 MLOAD ADD CALLDATASIZE PUSH1 0x20 PUSH2 0x1C0 MLOAD ADD CALLDATACOPY PUSH1 0x0 PUSH2 0x1A0 MSTORE JUMPDEST PUSH2 0x1E0 MLOAD MLOAD PUSH2 0x1A0 MLOAD LT DUP1 PUSH2 0x1E59 JUMPI JUMPDEST ISZERO PUSH2 0x15AA JUMPI PUSH1 0xFF PUSH1 0xF8 SHL PUSH2 0x1578 PUSH2 0x1A0 MLOAD PUSH2 0x1E0 MLOAD PUSH2 0x2223 JUMP JUMPDEST MLOAD AND PUSH1 0x0 BYTE PUSH2 0x158D PUSH2 0x1A0 MLOAD PUSH2 0x1C0 MLOAD PUSH2 0x2223 JUMP JUMPDEST MSTORE8 PUSH2 0x1A0 MLOAD PUSH1 0x0 NOT EQ PUSH2 0xF4E JUMPI PUSH1 0x1 PUSH2 0x1A0 MLOAD ADD PUSH2 0x1A0 MSTORE PUSH2 0x154E JUMP JUMPDEST PUSH2 0x180 MLOAD MLOAD PUSH1 0x0 PUSH1 0x20 DUP3 ADD MSTORE TIMESTAMP PUSH2 0x180 MLOAD DUP3 ADD MSTORE PUSH2 0x180 MLOAD DUP2 MSTORE PUSH2 0x15CF PUSH1 0x60 DUP3 PUSH2 0xFE1 JUMP JUMPDEST PUSH2 0x180 MLOAD MLOAD PUSH2 0x140 MSTORE PUSH2 0x15E8 PUSH2 0x180 MLOAD PUSH2 0x140 MLOAD PUSH2 0xFE1 JUMP JUMPDEST PUSH1 0x20 PUSH2 0x140 MLOAD MSTORE PUSH1 0x1F NOT PUSH2 0x180 MLOAD ADD CALLDATASIZE PUSH1 0x20 PUSH2 0x140 MLOAD ADD CALLDATACOPY PUSH1 0x0 JUMPDEST PUSH1 0x20 DUP2 LT PUSH2 0x1E1D JUMPI POP POP DUP9 MLOAD PUSH2 0x180 MLOAD MLOAD SWAP1 PUSH1 0x0 PUSH1 0x20 DUP4 ADD MSTORE PUSH2 0x180 MLOAD DUP3 ADD MSTORE PUSH2 0x180 MLOAD DUP2 MSTORE PUSH2 0x1634 PUSH1 0x60 DUP3 PUSH2 0xFE1 JUMP JUMPDEST PUSH2 0x180 MLOAD MLOAD PUSH2 0x160 MSTORE PUSH2 0x164D PUSH2 0x180 MLOAD PUSH2 0x160 MLOAD PUSH2 0xFE1 JUMP JUMPDEST PUSH1 0x20 PUSH2 0x160 MLOAD MSTORE PUSH1 0x1F NOT PUSH2 0x180 MLOAD ADD CALLDATASIZE PUSH1 0x20 PUSH2 0x160 MLOAD ADD CALLDATACOPY PUSH1 0x0 JUMPDEST PUSH1 0x20 DUP2 LT PUSH2 0x1DE1 JUMPI POP POP PUSH2 0x120 MLOAD MLOAD PUSH2 0x100 MSTORE PUSH1 0x1 PUSH2 0x100 MLOAD ADD PUSH2 0x100 MLOAD GT PUSH2 0xF4E JUMPI PUSH2 0x16AD PUSH2 0x169D PUSH1 0x1 PUSH2 0x100 MLOAD ADD PUSH2 0x10A6 JUMP JUMPDEST PUSH2 0x180 MLOAD MLOAD PUSH1 0xC0 MSTORE PUSH1 0xC0 MLOAD PUSH2 0xFE1 JUMP JUMPDEST PUSH1 0x1 PUSH2 0x100 MLOAD ADD PUSH1 0xC0 MLOAD MSTORE PUSH1 0xC0 MLOAD POP PUSH2 0x16CB PUSH1 0x1 PUSH2 0x100 MLOAD ADD PUSH2 0x10A6 JUMP JUMPDEST PUSH1 0x1F NOT ADD CALLDATASIZE PUSH1 0x20 PUSH1 0xC0 MLOAD ADD CALLDATACOPY PUSH1 0x0 JUMPDEST PUSH2 0x120 MLOAD MLOAD DUP2 LT ISZERO PUSH2 0x1713 JUMPI PUSH1 0x1 SWAP1 PUSH1 0xFF PUSH1 0xF8 SHL PUSH2 0x16FB DUP3 PUSH2 0x120 MLOAD PUSH2 0x2223 JUMP JUMPDEST MLOAD AND PUSH1 0x0 BYTE PUSH2 0x170C DUP3 PUSH1 0xC0 MLOAD PUSH2 0x2223 JUMP JUMPDEST MSTORE8 ADD PUSH2 0x16DA JUMP JUMPDEST POP SWAP1 SWAP2 SWAP3 SWAP4 SWAP5 SWAP6 SWAP7 SWAP8 PUSH1 0x0 PUSH1 0x20 PUSH2 0x17AF PUSH2 0x17EB SWAP4 PUSH2 0x180 MLOAD MLOAD SWAP3 DUP4 SWAP2 PUSH2 0x178A DUP3 PUSH2 0x1C0 MLOAD MLOAD PUSH2 0x174A DUP2 DUP4 DUP9 ADD DUP5 PUSH2 0x1C0 MLOAD ADD PUSH2 0xEBD JUMP JUMPDEST DUP6 ADD PUSH2 0x140 MLOAD MLOAD SWAP1 PUSH2 0x1764 DUP3 DUP5 DUP4 ADD DUP6 PUSH2 0x140 MLOAD ADD PUSH2 0xEBD JUMP JUMPDEST ADD ADD PUSH2 0x160 MLOAD MLOAD SWAP1 PUSH2 0x177C DUP3 DUP3 DUP8 PUSH2 0x160 MLOAD ADD PUSH2 0xEBD JUMP JUMPDEST ADD SWAP2 DUP3 DUP2 MLOAD SWAP5 DUP6 SWAP3 ADD PUSH2 0xEBD JUMP JUMPDEST ADD PUSH1 0xC0 MLOAD MLOAD SWAP1 PUSH2 0x17A0 DUP3 DUP3 PUSH1 0x20 PUSH1 0xC0 MLOAD ADD PUSH2 0xEBD JUMP JUMPDEST ADD SUB PUSH1 0x1F NOT DUP2 ADD DUP4 MSTORE DUP3 PUSH2 0xFE1 JUMP JUMPDEST PUSH2 0x180 MLOAD MLOAD DUP1 SWAP4 DUP2 SWAP3 PUSH4 0x7BF41D77 PUSH1 0xE1 SHL DUP4 MSTORE PUSH2 0x180 MLOAD PUSH1 0x4 DUP5 ADD MSTORE PUSH2 0x17D9 PUSH1 0x44 DUP5 ADD DUP10 DUP10 PUSH2 0x137E JUMP JUMPDEST DUP4 DUP2 SUB PUSH1 0x3 NOT ADD PUSH1 0x24 DUP6 ADD MSTORE SWAP1 PUSH2 0xEE0 JUMP JUMPDEST SUB DUP2 PUSH32 0x0 PUSH1 0x1 PUSH1 0x1 PUSH1 0xA0 SHL SUB AND GAS STATICCALL SWAP1 DUP2 ISZERO PUSH2 0x1DD3 JUMPI PUSH1 0x0 SWAP1 DUP2 SWAP3 PUSH2 0x1D39 JUMPI JUMPDEST POP ISZERO PUSH2 0x1D2B JUMPI PUSH1 0x20 DUP2 MLOAD SWAP2 ADD KECCAK256 PUSH2 0x183F PUSH2 0x13CE JUMP JUMPDEST PUSH1 0x20 DUP2 MLOAD SWAP2 ADD KECCAK256 EQ PUSH1 0xA0 MLOAD ISZERO ISZERO PUSH1 0x80 MSTORE PUSH1 0x80 MLOAD SUB PUSH2 0x1D1E JUMPI PUSH2 0x1862 CALLDATASIZE DUP4 DUP4 PUSH2 0x11FC JUMP JUMPDEST PUSH1 0x20 DUP2 MLOAD SWAP2 ADD KECCAK256 SWAP2 PUSH1 0xE0 MLOAD PUSH1 0x0 MSTORE PUSH1 0x7 PUSH1 0x20 MSTORE PUSH2 0x180 MLOAD PUSH1 0x0 KECCAK256 PUSH1 0x0 SWAP1 PUSH1 0x1 DUP1 PUSH1 0xA0 SHL SUB DUP8 AND DUP3 MSTORE PUSH1 0x20 MSTORE PUSH2 0x180 MLOAD SWAP1 KECCAK256 SWAP2 PUSH1 0x1 PUSH1 0x1 PUSH1 0x40 SHL SUB DUP3 GT PUSH2 0x7E1 JUMPI PUSH2 0x18B0 DUP3 PUSH2 0x5DA DUP6 SLOAD PUSH2 0xF71 JUMP JUMPDEST PUSH1 0x0 SWAP1 PUSH1 0x1F DUP4 GT PUSH1 0x1 EQ PUSH2 0x1CBA JUMPI PUSH2 0x18E0 SWAP3 SWAP2 PUSH1 0x0 SWAP2 DUP4 PUSH2 0x1CAF JUMPI POP POP DUP2 PUSH1 0x1 SHL SWAP2 PUSH1 0x0 NOT SWAP1 PUSH1 0x3 SHL SHR NOT AND OR SWAP1 JUMP JUMPDEST SWAP1 SSTORE JUMPDEST PUSH1 0xE0 MLOAD PUSH1 0x0 MSTORE PUSH1 0x4 PUSH1 0x20 MSTORE PUSH2 0x180 MLOAD PUSH1 0x0 KECCAK256 SWAP1 PUSH2 0x180 MLOAD MLOAD SWAP1 PUSH2 0x1905 DUP3 PUSH2 0xFAB JUMP JUMPDEST PUSH1 0x1 PUSH1 0x1 PUSH1 0xA0 SHL SUB DUP6 AND DUP3 MSTORE PUSH1 0x80 MLOAD PUSH1 0x20 DUP4 ADD SWAP1 DUP2 MSTORE SWAP3 PUSH2 0x1927 CALLDATASIZE DUP9 DUP11 PUSH2 0x11FC JUMP JUMPDEST SWAP1 PUSH2 0x180 MLOAD DUP5 ADD SWAP2 DUP3 MSTORE PUSH2 0x193C CALLDATASIZE DUP13 DUP13 PUSH2 0x11FC JUMP JUMPDEST SWAP3 PUSH1 0x60 DUP6 ADD SWAP4 DUP5 MSTORE PUSH1 0x80 DUP6 ADD MSTORE TIMESTAMP PUSH1 0xA0 DUP6 ADD MSTORE DUP1 SLOAD PUSH9 0x10000000000000000 DUP2 LT ISZERO PUSH2 0x7E1 JUMPI PUSH2 0x1971 SWAP2 PUSH1 0x1 DUP3 ADD DUP2 SSTORE PUSH2 0x13B2 JUMP JUMPDEST SWAP5 SWAP1 SWAP5 PUSH2 0x1C99 JUMPI DUP4 MLOAD DUP6 SLOAD SWAP2 MLOAD PUSH1 0x1 PUSH1 0x1 PUSH1 0xA8 SHL SUB NOT SWAP1 SWAP3 AND PUSH1 0x1 PUSH1 0x1 PUSH1 0xA0 SHL SUB SWAP2 SWAP1 SWAP2 AND OR SWAP1 ISZERO ISZERO PUSH1 0xA0 SHL PUSH1 0xFF PUSH1 0xA0 SHL AND OR DUP5 SSTORE MLOAD DUP1 MLOAD PUSH1 0x1 DUP6 ADD SWAP2 PUSH1 0x1 PUSH1 0x1 PUSH1 0x40 SHL SUB DUP3 GT PUSH2 0x7E1 JUMPI PUSH2 0x19CA DUP3 PUSH2 0x5DA DUP6 SLOAD PUSH2 0xF71 JUMP JUMPDEST PUSH1 0x20 SWAP1 PUSH1 0x1F DUP4 GT PUSH1 0x1 EQ PUSH2 0x1C32 JUMPI PUSH2 0x19FA SWAP3 SWAP2 PUSH1 0x0 SWAP2 DUP4 PUSH2 0x1B91 JUMPI POP POP DUP2 PUSH1 0x1 SHL SWAP2 PUSH1 0x0 NOT SWAP1 PUSH1 0x3 SHL SHR NOT AND OR SWAP1 JUMP JUMPDEST SWAP1 SSTORE JUMPDEST MLOAD DUP1 MLOAD PUSH1 0x2 DUP5 ADD SWAP2 PUSH1 0x1 PUSH1 0x1 PUSH1 0x40 SHL SUB DUP3 GT PUSH2 0x7E1 JUMPI PUSH2 0x1A21 DUP3 PUSH2 0x5DA DUP6 SLOAD PUSH2 0xF71 JUMP JUMPDEST PUSH1 0x20 SWAP1 PUSH1 0x1F DUP4 GT PUSH1 0x1 EQ PUSH2 0x1B9C JUMPI SWAP4 PUSH32 0x4164D38FCC30943A577283F30908D604D84A89A2E856B65B3329632355355805 SWAP10 SWAP9 SWAP8 SWAP6 SWAP4 PUSH2 0x1A81 DUP5 PUSH1 0x4 SWAP6 PUSH1 0xA0 SWAP6 PUSH2 0x1B00 SWAP12 SWAP10 PUSH1 0x0 SWAP3 PUSH2 0x1B91 JUMPI POP POP DUP2 PUSH1 0x1 SHL SWAP2 PUSH1 0x0 NOT SWAP1 PUSH1 0x3 SHL SHR NOT AND OR SWAP1 JUMP JUMPDEST SWAP1 SSTORE JUMPDEST PUSH1 0x80 DUP2 ADD MLOAD PUSH1 0x3 DUP6 ADD SSTORE ADD MLOAD SWAP2 ADD SSTORE PUSH1 0xE0 MLOAD PUSH1 0x0 MSTORE PUSH1 0x5 PUSH1 0x20 MSTORE PUSH2 0x180 MLOAD PUSH1 0x0 KECCAK256 PUSH1 0x80 MLOAD PUSH1 0x0 MSTORE PUSH1 0x20 MSTORE PUSH2 0x1AC0 PUSH2 0x180 MLOAD PUSH1 0x0 KECCAK256 SWAP2 DUP3 SLOAD PUSH2 0xF64 JUMP JUMPDEST SWAP1 SSTORE PUSH2 0x1AE3 PUSH2 0x180 MLOAD MLOAD SWAP5 DUP6 SWAP5 PUSH1 0x80 MLOAD DUP7 MSTORE PUSH1 0x60 PUSH1 0x20 DUP8 ADD MSTORE PUSH1 0x60 DUP7 ADD SWAP2 PUSH2 0x137E JUMP JUMPDEST SWAP1 DUP4 DUP3 SUB PUSH2 0x180 MLOAD DUP6 ADD MSTORE PUSH1 0x1 DUP1 PUSH1 0xA0 SHL SUB AND SWAP7 PUSH1 0xE0 MLOAD SWAP7 PUSH2 0x137E JUMP JUMPDEST SUB SWAP1 LOG3 PUSH1 0xE0 MLOAD PUSH1 0x0 MSTORE PUSH1 0x5 PUSH1 0x20 MSTORE PUSH2 0x180 MLOAD PUSH1 0x0 KECCAK256 PUSH1 0x80 MLOAD PUSH1 0x0 MSTORE PUSH1 0x20 MSTORE PUSH2 0x180 MLOAD PUSH1 0x0 KECCAK256 SLOAD PUSH1 0x3 SLOAD PUSH1 0x64 PUSH2 0x1B37 PUSH1 0x6 SLOAD DUP4 PUSH2 0x139F JUMP JUMPDEST DIV DUP3 LT ISZERO SWAP1 DUP2 PUSH2 0x1B87 JUMPI JUMPDEST POP PUSH2 0x1B4A JUMPI POP JUMP JUMPDEST PUSH2 0x180 MLOAD MLOAD SWAP1 PUSH1 0x80 MLOAD DUP3 MSTORE PUSH1 0x20 DUP3 ADD MSTORE PUSH32 0x4788C192B43B1EAA29D531808A78165D3487D939B8246058F5AD10D22FC2BD0D PUSH1 0xE0 MLOAD SWAP2 PUSH2 0x180 MLOAD SWAP1 LOG2 JUMP JUMPDEST SWAP1 POP ISZERO ISZERO CODESIZE PUSH2 0x1B42 JUMP JUMPDEST ADD MLOAD SWAP1 POP CODESIZE DUP1 PUSH2 0x603 JUMP JUMPDEST SWAP1 PUSH1 0x1F NOT DUP4 AND SWAP2 DUP5 PUSH1 0x0 MSTORE DUP2 PUSH1 0x0 KECCAK256 SWAP3 PUSH1 0x0 JUMPDEST DUP2 DUP2 LT PUSH2 0x1C1A JUMPI POP DUP5 PUSH1 0xA0 SWAP5 PUSH2 0x1B00 SWAP11 SWAP9 SWAP5 PUSH32 0x4164D38FCC30943A577283F30908D604D84A89A2E856B65B3329632355355805 SWAP15 SWAP14 SWAP13 SWAP11 SWAP9 SWAP5 PUSH1 0x4 SWAP9 PUSH1 0x1 SWAP6 LT PUSH2 0x1C01 JUMPI JUMPDEST POP POP POP DUP2 SHL ADD SWAP1 SSTORE PUSH2 0x1A84 JUMP JUMPDEST ADD MLOAD PUSH1 0x0 NOT PUSH1 0xF8 DUP5 PUSH1 0x3 SHL AND SHR NOT AND SWAP1 SSTORE CODESIZE DUP1 DUP1 PUSH2 0x1BF4 JUMP JUMPDEST SWAP3 SWAP4 PUSH1 0x20 PUSH1 0x1 DUP2 SWAP3 DUP8 DUP7 ADD MLOAD DUP2 SSTORE ADD SWAP6 ADD SWAP4 ADD PUSH2 0x1BAF JUMP JUMPDEST SWAP1 PUSH1 0x1F NOT DUP4 AND SWAP2 DUP5 PUSH1 0x0 MSTORE DUP2 PUSH1 0x0 KECCAK256 SWAP3 PUSH1 0x0 JUMPDEST DUP2 DUP2 LT PUSH2 0x1C81 JUMPI POP SWAP1 DUP5 PUSH1 0x1 SWAP6 SWAP5 SWAP4 SWAP3 LT PUSH2 0x1C68 JUMPI JUMPDEST POP POP POP DUP2 SHL ADD SWAP1 SSTORE PUSH2 0x19FD JUMP JUMPDEST ADD MLOAD PUSH1 0x0 NOT PUSH1 0xF8 DUP5 PUSH1 0x3 SHL AND SHR NOT AND SWAP1 SSTORE CODESIZE DUP1 DUP1 PUSH2 0x1C5B JUMP JUMPDEST SWAP3 SWAP4 PUSH1 0x20 PUSH1 0x1 DUP2 SWAP3 DUP8 DUP7 ADD MLOAD DUP2 SSTORE ADD SWAP6 ADD SWAP4 ADD PUSH2 0x1C45 JUMP JUMPDEST PUSH4 0x4E487B71 PUSH1 0xE0 SHL PUSH1 0x0 MSTORE PUSH1 0x0 PUSH1 0x4 MSTORE PUSH1 0x24 PUSH1 0x0 REVERT JUMPDEST ADD CALLDATALOAD SWAP1 POP CODESIZE DUP1 PUSH2 0x603 JUMP JUMPDEST DUP4 DUP3 MSTORE PUSH1 0x20 DUP3 KECCAK256 SWAP2 PUSH1 0x1F NOT DUP5 AND DUP2 JUMPDEST DUP2 DUP2 LT PUSH2 0x1D06 JUMPI POP SWAP1 DUP5 PUSH1 0x1 SWAP6 SWAP5 SWAP4 SWAP3 LT PUSH2 0x1CEC JUMPI JUMPDEST POP POP POP DUP2 SHL ADD SWAP1 SSTORE PUSH2 0x18E3 JUMP JUMPDEST ADD CALLDATALOAD PUSH1 0x0 NOT PUSH1 0x3 DUP5 SWAP1 SHL PUSH1 0xF8 AND SHR NOT AND SWAP1 SSTORE CODESIZE DUP1 DUP1 PUSH2 0x1CDF JUMP JUMPDEST SWAP2 SWAP4 PUSH1 0x20 PUSH1 0x1 DUP2 SWAP3 DUP8 DUP8 ADD CALLDATALOAD DUP2 SSTORE ADD SWAP6 ADD SWAP3 ADD PUSH2 0x1CC9 JUMP JUMPDEST PUSH2 0xAC3 SWAP3 DUP5 PUSH1 0xE0 MLOAD PUSH2 0x2234 JUMP JUMPDEST POP PUSH2 0xAC3 SWAP3 DUP5 PUSH1 0xE0 MLOAD PUSH2 0x2234 JUMP JUMPDEST SWAP1 SWAP2 POP RETURNDATASIZE DUP1 DUP4 DUP4 RETURNDATACOPY PUSH2 0x1D4B DUP2 DUP4 PUSH2 0xFE1 JUMP JUMPDEST DUP2 ADD SWAP2 PUSH2 0x180 MLOAD DUP3 DUP5 SUB SLT PUSH2 0x1DC8 JUMPI DUP2 MLOAD SWAP2 DUP3 ISZERO ISZERO DUP4 SUB PUSH2 0x1DCB JUMPI PUSH1 0x20 DUP2 ADD MLOAD SWAP1 PUSH1 0x1 PUSH1 0x1 PUSH1 0x40 SHL SUB DUP3 GT PUSH2 0x1DCF JUMPI ADD DUP4 PUSH1 0x1F DUP3 ADD SLT ISZERO PUSH2 0x1DCB JUMPI DUP1 MLOAD SWAP2 PUSH2 0x1D92 DUP4 PUSH2 0x10A6 JUMP JUMPDEST SWAP5 PUSH2 0x1DA2 PUSH2 0x180 MLOAD MLOAD SWAP7 DUP8 PUSH2 0xFE1 JUMP JUMPDEST DUP4 DUP7 MSTORE PUSH1 0x20 DUP5 DUP5 ADD ADD GT PUSH2 0x1DC8 JUMPI POP SWAP1 PUSH2 0x1DC2 SWAP2 PUSH1 0x20 DUP1 DUP7 ADD SWAP2 ADD PUSH2 0xEBD JUMP JUMPDEST CODESIZE PUSH2 0x182A JUMP JUMPDEST DUP1 REVERT JUMPDEST POP DUP1 REVERT JUMPDEST DUP3 DUP1 REVERT JUMPDEST PUSH2 0x180 MLOAD MLOAD RETURNDATASIZE PUSH1 0x0 DUP3 RETURNDATACOPY RETURNDATASIZE SWAP1 REVERT JUMPDEST PUSH1 0x20 DUP2 ADD SWAP1 DUP2 DUP2 GT PUSH2 0xF4E JUMPI PUSH1 0x1 SWAP2 PUSH1 0x1 PUSH1 0x1 PUSH1 0xF8 SHL SUB NOT SWAP1 PUSH2 0x1E04 SWAP1 DUP6 PUSH2 0x2223 JUMP JUMPDEST MLOAD AND PUSH1 0x0 BYTE PUSH2 0x1E16 DUP3 PUSH2 0x160 MLOAD PUSH2 0x2223 JUMP JUMPDEST MSTORE8 ADD PUSH2 0x1668 JUMP JUMPDEST PUSH1 0x20 DUP2 ADD SWAP1 DUP2 DUP2 GT PUSH2 0xF4E JUMPI PUSH1 0x1 SWAP2 PUSH1 0x1 PUSH1 0x1 PUSH1 0xF8 SHL SUB NOT SWAP1 PUSH2 0x1E40 SWAP1 DUP6 PUSH2 0x2223 JUMP JUMPDEST MLOAD AND PUSH1 0x0 BYTE PUSH2 0x1E52 DUP3 PUSH2 0x140 MLOAD PUSH2 0x2223 JUMP JUMPDEST MSTORE8 ADD PUSH2 0x1603 JUMP JUMPDEST POP PUSH1 0x20 PUSH2 0x1A0 MLOAD LT PUSH2 0x155E JUMP JUMPDEST PUSH2 0x180 MLOAD DUP1 MLOAD SWAP1 PUSH2 0x1E77 SWAP1 DUP3 PUSH2 0xFE1 JUMP JUMPDEST PUSH1 0x2 DUP2 MSTORE PUSH2 0x4E4F PUSH1 0xF0 SHL PUSH1 0x20 DUP3 ADD MSTORE PUSH2 0x120 MSTORE PUSH2 0x1519 JUMP JUMPDEST PUSH4 0xC5723B51 PUSH1 0xE0 SHL PUSH1 0x0 MSTORE PUSH1 0x4 PUSH1 0x0 REVERT JUMPDEST SWAP1 PUSH1 0x3 SLOAD SWAP2 DUP3 ISZERO PUSH2 0x1186 JUMPI PUSH1 0x0 MSTORE PUSH1 0x5 PUSH1 0x20 MSTORE PUSH1 0x40 PUSH1 0x0 KECCAK256 SWAP1 ISZERO ISZERO PUSH1 0x0 MSTORE PUSH1 0x20 MSTORE PUSH1 0x64 PUSH2 0x1ED6 PUSH1 0x40 PUSH1 0x0 KECCAK256 SLOAD SWAP3 PUSH1 0x6 SLOAD SWAP1 PUSH2 0x139F JUMP JUMPDEST DIV GT ISZERO SWAP1 JUMP JUMPDEST SWAP2 SWAP1 DUP3 PUSH1 0x0 MSTORE PUSH1 0x0 PUSH1 0x20 MSTORE PUSH1 0x40 PUSH1 0x0 KECCAK256 SWAP2 PUSH1 0x1 DUP1 PUSH1 0xA0 SHL SUB PUSH1 0x1 DUP5 ADD SLOAD AND ISZERO PUSH2 0x1E8F JUMPI PUSH1 0x3 DUP4 ADD SWAP2 DUP3 SLOAD SWAP4 PUSH1 0xFF DUP6 AND PUSH2 0x149A JUMPI PUSH2 0x1F19 DUP3 DUP8 PUSH2 0x1EA0 JUMP JUMPDEST ISZERO PUSH2 0xAC3 JUMPI PUSH1 0x20 SWAP4 PUSH1 0x40 MLOAD PUSH2 0x1F2E DUP7 DUP3 PUSH2 0xFE1 JUMP JUMPDEST PUSH1 0x0 DUP2 MSTORE SWAP6 DUP8 PUSH1 0x0 MSTORE PUSH1 0x4 DUP7 MSTORE PUSH1 0x40 PUSH1 0x0 KECCAK256 SLOAD PUSH2 0x21DC JUMPI JUMPDEST PUSH1 0xFF NOT AND PUSH1 0x1 OR SWAP1 SSTORE DUP5 MLOAD PUSH1 0x4 DUP3 ADD SWAP1 PUSH1 0x1 PUSH1 0x1 PUSH1 0x40 SHL SUB DUP2 GT PUSH2 0x7E1 JUMPI PUSH2 0x1F78 DUP2 PUSH2 0x1F72 DUP5 SLOAD PUSH2 0xF71 JUMP JUMPDEST DUP5 PUSH2 0x132C JUMP JUMPDEST DUP6 PUSH1 0x1F DUP3 GT PUSH1 0x1 EQ PUSH2 0x2173 JUMPI DUP2 PUSH1 0x6 SWAP5 SWAP4 SWAP3 PUSH2 0x1FAA SWAP3 PUSH1 0x0 SWAP2 PUSH2 0x2168 JUMPI JUMPDEST POP DUP2 PUSH1 0x1 SHL SWAP2 PUSH1 0x0 NOT SWAP1 PUSH1 0x3 SHL SHR NOT AND OR SWAP1 JUMP JUMPDEST SWAP1 SSTORE JUMPDEST PUSH2 0x1FC6 DUP4 PUSH1 0x5 DUP4 ADD SWAP1 PUSH1 0xFF DUP1 NOT DUP4 SLOAD AND SWAP2 ISZERO ISZERO AND OR SWAP1 SSTORE JUMP JUMPDEST ADD DUP3 MLOAD PUSH1 0x1 PUSH1 0x1 PUSH1 0x40 SHL SUB DUP2 GT PUSH2 0x7E1 JUMPI PUSH2 0x1FE5 DUP2 PUSH2 0x1F72 DUP5 SLOAD PUSH2 0xF71 JUMP JUMPDEST DUP5 PUSH1 0x1F DUP3 GT PUSH1 0x1 EQ PUSH2 0x20D9 JUMPI SWAP3 PUSH2 0x20B8 SWAP6 SWAP3 PUSH2 0x203E DUP4 PUSH32 0x89B763933EFE68C9FB105BE2523D43AFBB04F27B42BDA7793A30BB6AE16BC4FF SWAP10 SWAP8 SWAP5 PUSH2 0x20C9 SWAP8 PUSH1 0x0 SWAP2 PUSH2 0x20CE JUMPI POP DUP2 PUSH1 0x1 SHL SWAP2 PUSH1 0x0 NOT SWAP1 PUSH1 0x3 SHL SHR NOT AND OR SWAP1 JUMP JUMPDEST SWAP1 SSTORE JUMPDEST DUP8 PUSH1 0x0 MSTORE PUSH1 0x5 DUP4 MSTORE PUSH1 0x40 PUSH1 0x0 KECCAK256 SWAP1 ISZERO ISZERO SWAP1 DUP2 PUSH1 0x0 MSTORE DUP4 MSTORE DUP8 PUSH32 0x62C5313AC9057B028C77D3D71A8BC78681AB575A0CAB56A1FEF1E7484CD6B48D PUSH1 0x40 PUSH1 0x0 KECCAK256 SLOAD PUSH1 0x40 MLOAD DUP1 SWAP2 DUP6 DUP3 MSTORE PUSH1 0x60 DUP9 DUP4 ADD MSTORE PUSH2 0x209B PUSH1 0x60 DUP4 ADD DUP9 PUSH2 0xEE0 JUMP JUMPDEST SWAP1 PUSH1 0x40 DUP4 ADD MSTORE SUB SWAP1 LOG2 PUSH1 0x40 MLOAD SWAP6 DUP7 SWAP6 PUSH1 0x60 DUP8 MSTORE PUSH1 0x60 DUP8 ADD SWAP1 PUSH2 0xEE0 JUMP JUMPDEST SWAP3 DUP6 ADD MSTORE DUP4 DUP3 SUB PUSH1 0x40 DUP6 ADD MSTORE PUSH2 0xEE0 JUMP JUMPDEST SUB SWAP1 LOG2 JUMP JUMPDEST SWAP1 POP DUP6 ADD MLOAD CODESIZE PUSH2 0x1F96 JUMP JUMPDEST PUSH1 0x1F NOT DUP3 AND SWAP1 DUP4 PUSH1 0x0 MSTORE DUP7 PUSH1 0x0 KECCAK256 SWAP2 PUSH1 0x0 JUMPDEST DUP2 DUP2 LT PUSH2 0x2151 JUMPI POP DUP4 PUSH2 0x20C9 SWAP7 SWAP4 PUSH2 0x20B8 SWAP10 SWAP7 SWAP4 PUSH32 0x89B763933EFE68C9FB105BE2523D43AFBB04F27B42BDA7793A30BB6AE16BC4FF SWAP12 SWAP10 SWAP7 PUSH1 0x1 SWAP5 LT PUSH2 0x2138 JUMPI JUMPDEST POP POP DUP2 SHL ADD SWAP1 SSTORE PUSH2 0x2041 JUMP JUMPDEST DUP7 ADD MLOAD PUSH1 0x0 NOT PUSH1 0xF8 DUP5 PUSH1 0x3 SHL AND SHR NOT AND SWAP1 SSTORE CODESIZE DUP1 PUSH2 0x212C JUMP JUMPDEST SWAP2 SWAP3 DUP9 PUSH1 0x1 DUP2 SWAP3 DUP7 DUP12 ADD MLOAD DUP2 SSTORE ADD SWAP5 ADD SWAP3 ADD PUSH2 0x20EB JUMP JUMPDEST SWAP1 POP DUP10 ADD MLOAD CODESIZE PUSH2 0x1F96 JUMP JUMPDEST PUSH1 0x1F NOT DUP3 AND SWAP1 DUP4 PUSH1 0x0 MSTORE DUP8 PUSH1 0x0 KECCAK256 SWAP2 PUSH1 0x0 JUMPDEST DUP10 DUP12 DUP4 DUP4 LT PUSH2 0x21C7 JUMPI POP POP POP SWAP2 DUP4 SWAP2 PUSH1 0x6 SWAP7 SWAP6 SWAP5 PUSH1 0x1 SWAP5 LT PUSH2 0x21AE JUMPI JUMPDEST POP POP DUP2 SHL ADD SWAP1 SSTORE PUSH2 0x1FAD JUMP JUMPDEST DUP11 ADD MLOAD PUSH1 0x0 NOT PUSH1 0xF8 DUP5 PUSH1 0x3 SHL AND SHR NOT AND SWAP1 SSTORE CODESIZE DUP1 PUSH2 0x21A2 JUMP JUMPDEST DUP5 ADD MLOAD DUP6 SSTORE PUSH1 0x1 SWAP1 SWAP5 ADD SWAP4 SWAP3 DUP4 ADD SWAP3 ADD PUSH2 0x2185 JUMP JUMPDEST SWAP6 POP DUP7 PUSH1 0x0 MSTORE PUSH1 0x4 DUP6 MSTORE PUSH1 0x40 PUSH1 0x0 KECCAK256 PUSH1 0x0 SWAP1 DUP1 SLOAD ISZERO PUSH2 0x220F JUMPI PUSH1 0x1 DUP8 DUP4 PUSH2 0x2207 SWAP4 DUP4 SWAP6 MSTORE KECCAK256 ADD PUSH2 0x1002 JUMP JUMPDEST SWAP7 SWAP1 POP PUSH2 0x1F46 JUMP JUMPDEST PUSH4 0x4E487B71 PUSH1 0xE0 SHL DUP3 MSTORE PUSH1 0x32 PUSH1 0x4 MSTORE PUSH1 0x24 DUP3 REVERT JUMPDEST SWAP1 DUP2 MLOAD DUP2 LT ISZERO PUSH2 0x10D5 JUMPI ADD PUSH1 0x20 ADD SWAP1 JUMP JUMPDEST SWAP2 SWAP5 SWAP4 SWAP3 SWAP1 SWAP3 PUSH1 0x0 SWAP4 PUSH1 0x1 DUP1 PUSH1 0xA0 SHL SUB AND SWAP4 DUP5 DUP2 MSTORE PUSH1 0x2 PUSH1 0x20 MSTORE DUP1 PUSH1 0x40 DUP2 KECCAK256 SSTORE PUSH2 0x2260 DUP8 PUSH1 0x3 SLOAD PUSH2 0xF41 JUMP JUMPDEST PUSH1 0x3 SSTORE PUSH1 0x40 MLOAD PUSH4 0x991D881 PUSH1 0xE2 SHL DUP2 MSTORE PUSH1 0x4 DUP2 ADD DUP7 SWAP1 MSTORE PUSH32 0x0 PUSH1 0x1 PUSH1 0x1 PUSH1 0xA0 SHL SUB AND SWAP1 PUSH1 0x20 DUP2 PUSH1 0x24 DUP2 DUP6 GAS STATICCALL SWAP1 DUP2 ISZERO PUSH2 0x23CF JUMPI DUP4 SWAP2 PUSH2 0x239D JUMPI JUMPDEST POP DUP1 PUSH2 0x2305 JUMPI JUMPDEST POP POP POP PUSH32 0xAFFD8B9FFB2058F05FE3E1C643891491B6253AABE27BF992F581214AE071ABCC SWAP3 SWAP4 SWAP5 SWAP6 POP PUSH2 0x2300 PUSH1 0x40 MLOAD SWAP3 DUP4 SWAP3 PUSH1 0x20 DUP5 MSTORE PUSH1 0x20 DUP5 ADD SWAP2 PUSH2 0x137E JUMP JUMPDEST SUB SWAP1 LOG3 JUMP JUMPDEST DUP3 SWAP9 DUP2 DUP2 GT PUSH1 0x0 EQ PUSH2 0x2395 JUMPI POP SWAP1 JUMPDEST DUP1 EXTCODESIZE ISZERO PUSH2 0x1DCF JUMPI PUSH1 0x44 DUP4 SWAP3 PUSH1 0x40 MLOAD SWAP11 DUP12 SWAP4 DUP5 SWAP3 PUSH4 0x2FB4D85 PUSH1 0xE0 SHL DUP5 MSTORE DUP12 PUSH1 0x4 DUP6 ADD MSTORE PUSH1 0x24 DUP5 ADD MSTORE GAS CALL SWAP7 DUP8 ISZERO PUSH2 0x2388 JUMPI PUSH32 0xAFFD8B9FFB2058F05FE3E1C643891491B6253AABE27BF992F581214AE071ABCC SWAP5 SWAP6 SWAP7 SWAP8 PUSH2 0x2378 JUMPI JUMPDEST DUP8 SWAP7 SWAP6 SWAP5 PUSH2 0x22C0 JUMP JUMPDEST DUP2 PUSH2 0x2382 SWAP2 PUSH2 0xFE1 JUMP JUMPDEST CODESIZE PUSH2 0x236F JUMP JUMPDEST POP PUSH1 0x40 MLOAD SWAP1 RETURNDATASIZE SWAP1 DUP3 RETURNDATACOPY RETURNDATASIZE SWAP1 REVERT JUMPDEST SWAP1 POP SWAP1 PUSH2 0x2314 JUMP JUMPDEST SWAP1 POP PUSH1 0x20 DUP2 RETURNDATASIZE PUSH1 0x20 GT PUSH2 0x23C7 JUMPI JUMPDEST DUP2 PUSH2 0x23B8 PUSH1 0x20 SWAP4 DUP4 PUSH2 0xFE1 JUMP JUMPDEST DUP2 ADD SUB SLT PUSH2 0x1DCF JUMPI MLOAD CODESIZE PUSH2 0x22B9 JUMP JUMPDEST RETURNDATASIZE SWAP2 POP PUSH2 0x23AB JUMP JUMPDEST PUSH1 0x40 MLOAD RETURNDATASIZE DUP6 DUP3 RETURNDATACOPY RETURNDATASIZE SWAP1 REVERT INVALID LOG2 PUSH5 0x6970667358 0x22 SLT KECCAK256 0xAC 0x2F 0xE6 0xB5 0xDE 0xE0 0xC2 0x24 TLOAD SWAP6 0xDE BALANCE SDIV GAS 0xB3 CODECOPY XOR SWAP6 SWAP7 DUP15 0xEC CALLDATASIZE PUSH22 0xFB62C939768F7F52F564736F6C634300081A00330000 "},"methodIdentifiers":{"admin()":"f851a440","avsNodes(address)":"f1d1b381","eigenVerify()":"2e52ec8b","finalizeResolution(bytes32,bool,bytes)":"9378c8fa","fulfillVerification(bytes32,bytes,bool,bytes)":"285b80a2","getAttestations(bytes32)":"37e59e36","getFulfillment(bytes32)":"96c59cc1","getProof(bytes32,address)":"276d6526","getProofHash(bytes32,address)":"2af002e8","getQuorumStatus(bytes32)":"c09fff13","getRequest(bytes32)":"fb1e61ca","operatorWeights(address)":"b457c25a","quorumThreshold()":"7b7a91dd","requestVerification(bytes32,bytes)":"a4e132bc","setAVSNode(address,bool)":"f7c226da","setOperatorWeight(address,uint256)":"0e6b1110","setQuorumThreshold(uint256)":"4524c7e1","slashing()":"ca31fb9f","submitAttestation(bytes32,bool,bytes,bytes,bytes)":"4949136f","totalOperatorWeight()":"c5e9a279"}}}}}