{"contracts/adapter/VeyraOracleAVS.sol":{"VeyraOracleAVS":{"abi":[{"inputs":[{"internalType":"address","name":"admin_","type":"address"},{"internalType":"address","name":"eigenVerify_","type":"address"},{"internalType":"address","name":"slashing_","type":"address"}],"stateMutability":"nonpayable","type":"constructor"},{"inputs":[],"name":"AlreadyFulfilled","type":"error"},{"inputs":[],"name":"InvalidParameter","type":"error"},{"inputs":[],"name":"NotFound","type":"error"},{"inputs":[],"name":"OnlyAdmin","type":"error"},{"inputs":[],"name":"Unauthorized","type":"error"},{"inputs":[],"name":"ZeroAddress","type":"error"},{"anonymous":false,"inputs":[{"indexed":true,"internalType":"address","name":"node","type":"address"},{"indexed":false,"internalType":"bool","name":"enabled","type":"bool"}],"name":"AVSNodeUpdated","type":"event"},{"anonymous":false,"inputs":[{"indexed":true,"internalType":"bytes32","name":"requestId","type":"bytes32"},{"indexed":true,"internalType":"address","name":"operator","type":"address"},{"indexed":false,"internalType":"bool","name":"outcome","type":"bool"},{"indexed":false,"internalType":"bytes","name":"attestationCid","type":"bytes"},{"indexed":false,"internalType":"bytes","name":"signature","type":"bytes"}],"name":"AttestationSubmitted","type":"event"},{"anonymous":false,"inputs":[{"indexed":true,"internalType":"address","name":"operator","type":"address"},{"indexed":false,"internalType":"uint256","name":"weight","type":"uint256"}],"name":"OperatorWeightUpdated","type":"event"},{"anonymous":false,"inputs":[{"indexed":true,"internalType":"bytes32","name":"requestId","type":"bytes32"},{"indexed":true,"internalType":"address","name":"operator","type":"address"},{"indexed":false,"internalType":"bytes","name":"proof","type":"bytes"}],"name":"ProofVerificationFailed","type":"event"},{"anonymous":false,"inputs":[{"indexed":true,"internalType":"bytes32","name":"requestId","type":"bytes32"},{"indexed":false,"internalType":"bool","name":"outcome","type":"bool"},{"indexed":false,"internalType":"uint256","name":"totalWeight","type":"uint256"}],"name":"QuorumReached","type":"event"},{"anonymous":false,"inputs":[{"indexed":false,"internalType":"uint256","name":"threshold","type":"uint256"}],"name":"QuorumThresholdUpdated","type":"event"},{"anonymous":false,"inputs":[{"indexed":true,"internalType":"bytes32","name":"requestId","type":"bytes32"},{"indexed":false,"internalType":"bool","name":"outcome","type":"bool"},{"indexed":false,"internalType":"bytes","name":"aggregateSignature","type":"bytes"},{"indexed":false,"internalType":"uint256","name":"totalWeight","type":"uint256"}],"name":"ResolutionFinalized","type":"event"},{"anonymous":false,"inputs":[{"indexed":true,"internalType":"bytes32","name":"requestId","type":"bytes32"},{"indexed":false,"internalType":"bytes","name":"attestationCid","type":"bytes"},{"indexed":false,"internalType":"bool","name":"outcome","type":"bool"},{"indexed":false,"internalType":"bytes","name":"metadata","type":"bytes"}],"name":"VerificationFulfilled","type":"event"},{"anonymous":false,"inputs":[{"indexed":true,"internalType":"bytes32","name":"requestId","type":"bytes32"},{"indexed":true,"internalType":"address","name":"requester","type":"address"},{"indexed":true,"internalType":"bytes32","name":"marketRef","type":"bytes32"},{"indexed":false,"internalType":"bytes","name":"data","type":"bytes"}],"name":"VerificationRequested","type":"event"},{"inputs":[],"name":"admin","outputs":[{"internalType":"address","name":"","type":"address"}],"stateMutability":"view","type":"function"},{"inputs":[{"internalType":"address","name":"","type":"address"}],"name":"avsNodes","outputs":[{"internalType":"bool","name":"","type":"bool"}],"stateMutability":"view","type":"function"},{"inputs":[{"internalType":"bytes","name":"data","type":"bytes"}],"name":"decodeRequestData","outputs":[{"internalType":"string","name":"source","type":"string"},{"internalType":"string","name":"logic","type":"string"}],"stateMutability":"pure","type":"function"},{"inputs":[],"name":"eigenVerify","outputs":[{"internalType":"contract IEigenVerify","name":"","type":"address"}],"stateMutability":"view","type":"function"},{"inputs":[{"internalType":"bytes32","name":"requestId","type":"bytes32"},{"internalType":"bool","name":"outcome","type":"bool"},{"internalType":"bytes","name":"aggregateSignature","type":"bytes"}],"name":"finalizeResolution","outputs":[],"stateMutability":"nonpayable","type":"function"},{"inputs":[{"internalType":"bytes32","name":"requestId","type":"bytes32"},{"internalType":"bytes","name":"attestationCid","type":"bytes"},{"internalType":"bool","name":"outcome","type":"bool"},{"internalType":"bytes","name":"metadata","type":"bytes"}],"name":"fulfillVerification","outputs":[],"stateMutability":"nonpayable","type":"function"},{"inputs":[{"internalType":"bytes32","name":"requestId","type":"bytes32"}],"name":"getAttestations","outputs":[{"components":[{"internalType":"address","name":"operator","type":"address"},{"internalType":"bool","name":"outcome","type":"bool"},{"internalType":"bytes","name":"attestationCid","type":"bytes"},{"internalType":"bytes","name":"signature","type":"bytes"},{"internalType":"bytes32","name":"proofHash","type":"bytes32"},{"internalType":"uint256","name":"timestamp","type":"uint256"}],"internalType":"struct VeyraOracleAVS.Attestation[]","name":"","type":"tuple[]"}],"stateMutability":"view","type":"function"},{"inputs":[{"internalType":"bytes32","name":"requestId","type":"bytes32"}],"name":"getFulfillment","outputs":[{"internalType":"bool","name":"exists","type":"bool"},{"internalType":"bytes","name":"attestationCid","type":"bytes"},{"internalType":"bool","name":"outcome","type":"bool"},{"internalType":"bytes","name":"metadata","type":"bytes"}],"stateMutability":"view","type":"function"},{"inputs":[{"internalType":"bytes32","name":"requestId","type":"bytes32"},{"internalType":"address","name":"operator","type":"address"}],"name":"getProof","outputs":[{"internalType":"bytes","name":"proof","type":"bytes"}],"stateMutability":"view","type":"function"},{"inputs":[{"internalType":"bytes32","name":"requestId","type":"bytes32"},{"internalType":"address","name":"operator","type":"address"}],"name":"getProofHash","outputs":[{"internalType":"bytes32","name":"proofHash","type":"bytes32"}],"stateMutability":"view","type":"function"},{"inputs":[{"internalType":"bytes32","name":"requestId","type":"bytes32"}],"name":"getQuorumStatus","outputs":[{"internalType":"bool","name":"isQuorumReached","type":"bool"},{"internalType":"uint256","name":"yesWeight","type":"uint256"},{"internalType":"uint256","name":"noWeight","type":"uint256"},{"internalType":"uint256","name":"requiredWeight","type":"uint256"}],"stateMutability":"view","type":"function"},{"inputs":[{"internalType":"bytes32","name":"requestId","type":"bytes32"}],"name":"getRequest","outputs":[{"components":[{"internalType":"bytes32","name":"marketRef","type":"bytes32"},{"internalType":"address","name":"requester","type":"address"},{"internalType":"bytes","name":"data","type":"bytes"},{"internalType":"bool","name":"fulfilled","type":"bool"},{"internalType":"bytes","name":"attestationCid","type":"bytes"},{"internalType":"bool","name":"outcome","type":"bool"},{"internalType":"bytes","name":"metadata","type":"bytes"}],"internalType":"struct VeyraOracleAVS.Request","name":"","type":"tuple"}],"stateMutability":"view","type":"function"},{"inputs":[{"internalType":"address","name":"","type":"address"}],"name":"operatorWeights","outputs":[{"internalType":"uint256","name":"","type":"uint256"}],"stateMutability":"view","type":"function"},{"inputs":[],"name":"quorumThreshold","outputs":[{"internalType":"uint256","name":"","type":"uint256"}],"stateMutability":"view","type":"function"},{"inputs":[{"internalType":"bytes32","name":"marketRef","type":"bytes32"},{"internalType":"bytes","name":"data","type":"bytes"}],"name":"requestResolution","outputs":[{"internalType":"bytes32","name":"requestId","type":"bytes32"}],"stateMutability":"nonpayable","type":"function"},{"inputs":[{"internalType":"address","name":"node","type":"address"},{"internalType":"bool","name":"enabled","type":"bool"}],"name":"setAVSNode","outputs":[],"stateMutability":"nonpayable","type":"function"},{"inputs":[{"internalType":"address","name":"operator","type":"address"},{"internalType":"uint256","name":"weight","type":"uint256"}],"name":"setOperatorWeight","outputs":[],"stateMutability":"nonpayable","type":"function"},{"inputs":[{"internalType":"uint256","name":"threshold","type":"uint256"}],"name":"setQuorumThreshold","outputs":[],"stateMutability":"nonpayable","type":"function"},{"inputs":[],"name":"slashing","outputs":[{"internalType":"contract ISlashing","name":"","type":"address"}],"stateMutability":"view","type":"function"},{"inputs":[{"internalType":"bytes32","name":"requestId","type":"bytes32"},{"internalType":"bool","name":"outcome","type":"bool"},{"internalType":"bytes","name":"attestationCid","type":"bytes"},{"internalType":"bytes","name":"signature","type":"bytes"},{"internalType":"bytes","name":"proof","type":"bytes"},{"internalType":"uint256","name":"timestamp","type":"uint256"}],"name":"submitAttestation","outputs":[],"stateMutability":"nonpayable","type":"function"},{"inputs":[],"name":"totalOperatorWeight","outputs":[{"internalType":"uint256","name":"","type":"uint256"}],"stateMutability":"view","type":"function"}],"evm":{"bytecode":{"linkReferences":{},"object":"60c0346100f057601f6126a738819003918201601f19168301916001600160401b038311848410176100f5578084926060946040528339810103126100f0576100478161010b565b61005f60406100586020850161010b565b930161010b565b60426006556001600160a01b039091169182156100df576001600160a01b03169081156100df576001600160a01b03169182156100df57600880546001600160a01b03191691909117905560805260a05260405161258790816101208239608051818181610cf90152611920015260a05181818161040d01526123ec0152f35b63d92e233d60e01b60005260046000fd5b600080fd5b634e487b7160e01b600052604160045260246000fd5b51906001600160a01b03821682036100f05756fe6101e0604052600436101561001357600080fd5b60003560e01c80630e6b111014610e7d578063276d652614610e21578063285b80a214610d565780632af002e814610d285780632e52ec8b14610ce357806337e59e3614610b5d5780634524c7e114610aec5780637b7a91dd14610ace5780639378c8fa14610a7f57806396c59cc114610a2a5780639e4174aa14610974578063b457c25a1461093a578063c09fff13146108a9578063c24380711461045a578063c5e9a2791461043c578063ca31fb9f146103f7578063d12481a414610379578063f1d1b3811461033a578063f7c226da14610281578063f851a440146102585763fb1e61ca1461010457600080fd5b3461025357602036600319011261025357606060c060405161012581610fe9565b6000815260006020820152826040820152600083820152826080820152600060a082015201526004356000526000602052604060002060405161016781610fe9565b8154815260018201546001600160a01b0316602082019081529161024f90610191600282016110e1565b6040840190815261023460ff6003840154166060860190151581526101b8600485016110e1565b608087019081526102196101df600660ff6005890154169760a08b019815158952016110e1565b9460c08901958652604051998a9960208b525160208b015260018060a01b0390511660408a01525160e060608a0152610100890190610f6d565b91511515608088015251868203601f190160a0880152610f6d565b9151151560c085015251838203601f190160e0850152610f6d565b0390f35b600080fd5b34610253576000366003190112610253576008546040516001600160a01b039091168152602090f35b346102535760403660031901126102535761029a610f1e565b6102a2610fbf565b6008549091906001600160a01b03163303610329576001600160a01b03169081156103185760207fa8cfb85fb565846d65e4062d92a89056ecb7aa24252225132315978a9ed574c191836000526001825261030d8160406000209060ff801983541691151516179055565b6040519015158152a2005b63d92e233d60e01b60005260046000fd5b634755657960e01b60005260046000fd5b34610253576020366003190112610253576001600160a01b0361035b610f1e565b166000526001602052602060ff604060002054166040519015158152f35b34610253576020366003190112610253576004356001600160401b03811161025357366023820112156102535761024f6103d26103c36103e9933690602481600401359101611040565b6020808251830101910161147b565b604092919251938493604085526040850190610f6d565b908382036020850152610f6d565b34610253576000366003190112610253576040517f00000000000000000000000000000000000000000000000000000000000000006001600160a01b03168152602090f35b34610253576000366003190112610253576020600354604051908152f35b34610253576040366003190112610253576004356024356001600160401b0381116102535761048d903690600401610f92565b909160405160208101908282523360601b6040820152426054820152838560748301376104cc6020607483878101448382015203018084520182611004565b51902091604051936104dd85610fe9565b82855260208501903382526104f3368483611040565b9560408101968752606081019660008852602097604051906105158a83611004565b600082526080840191825260a084019260008452604051966105378c89611004565b600080895260c087019889528b8152808d526040902095518655516001860180546001600160a01b0319166001600160a01b039290921691909117905551805160028601916001600160401b03821161079f5761059e8261059885546110a7565b856113c3565b8c908d601f841160011461083b575091806105d6926105f1969594600092610830575b50508160011b916000199060031b1c19161790565b90555b511515600385019060ff801983541691151516179055565b51805160048401916001600160401b03821161079f576106158261059885546110a7565b8a90601f83116001146107c057826006969593610668959361064d936000926107b55750508160011b916000199060031b1c19161790565b90555b511515600583019060ff801983541691151516179055565b0191519182516001600160401b03811161079f57869361068c8261059885546110a7565b8890601f831160011461070f57827f34602e40c4c49141c143fef967cb05afc0207ba0f21b2bc82b56b712b4250fca95936106f995936106e2936000926107045750508160011b916000199060031b1c19161790565b90555b60405191829189835233968a840191611415565b0390a4604051908152f35b015190508c806105c1565b90601f19831691846000528a6000209260005b8c8282106107865750509260019285927f34602e40c4c49141c143fef967cb05afc0207ba0f21b2bc82b56b712b4250fca98966106f998961061076d575b505050811b0190556106e5565b015160001960f88460031b161c191690558b8080610760565b8484015186558c99506001909501949384019301610722565b634e487b7160e01b600052604160045260246000fd5b015190508e806105c1565b60008481528c8120929190601f198516908e5b82821061081857505092600192859260069998966106689896106107ff575b505050811b019055610650565b015160001960f88460031b161c191690558d80806107f2565b806001869782949787015181550196019401906107d3565b015190508f806105c1565b9190601f1984168560005283600020936000905b8282106108915750509160019391856105f19897969410610878575b505050811b0190556105d9565b015160001960f88460031b161c191690558e808061086b565b8060018697829497870151815501960194019061084f565b346102535760203660031901126102535760806004356003549060646108d1600654846113b0565b600092835260056020908152604080852060018652909152808420548480529320549190048083108015949193919061092f575b84610925575b506040519315158452602084015260408301526060820152f35b151593508561090b565b838310159450610905565b34610253576020366003190112610253576001600160a01b0361095b610f1e565b1660005260026020526020604060002054604051908152f35b346102535760c03660031901126102535761098d610fbf565b6044356001600160401b038111610253576109ac903690600401610f92565b916064356001600160401b038111610253576109cc903690600401610f92565b906084356001600160401b038111610253576109ec903690600401610f92565b92909133600052600160205260ff6040600020541615610a1a57610a1896339660a435966004356114ff565b005b6282b42960e81b60005260046000fd5b346102535760203660031901126102535761024f610a496004356112c0565b610a6a60409593955195869515158652608060208701526080860190610f6d565b91151560408501528382036060850152610f6d565b3461025357606036600319011261025357610a98610fbf565b604435906001600160401b03821161025357610ac5610abe610a18933690600401610f92565b3691611040565b9060043561204f565b34610253576000366003190112610253576020600654604051908152f35b3461025357602036600319011261025357600854600435906001600160a01b031633036103295760648111610b4c576020817fbc589fccf641d342b7853c2c6faca39631d4d19efbe77e71e5611e31678c220e92600655604051908152a1005b630309cb8760e51b60005260046000fd5b3461025357602036600319011261025357600435600052600460205260406000208054906001600160401b03821161079f5760405191610ba360208260051b0184611004565b80835260208301809260005260206000206000915b838310610c7557848660405191829160208301906020845251809152604083019060408160051b85010192916000905b828210610bf757505050500390f35b919360019193955060208091603f19898203018552875190848060a01b0382511681528282015115158382015260a080610c55610c43604086015160c0604087015260c0860190610f6d565b60608601518582036060870152610f6d565b936080810151608085015201519101529601920192018594939192610be8565b60056020600192604051610c8881610fce565b60ff8654868060a01b038116835260a01c16151583820152610cab8587016110e1565b6040820152610cbc600287016110e1565b606082015260038601546080820152600486015460a0820152815201920192019190610bb8565b34610253576000366003190112610253576040517f00000000000000000000000000000000000000000000000000000000000000006001600160a01b03168152602090f35b34610253576040366003190112610253576020610d4e610d46610f34565b6004356111af565b604051908152f35b34610253576080366003190112610253576004356024356001600160401b03811161025357610d89903690600401610f92565b9190604435928315158403610253576064356001600160401b03811161025357610db7903690600401610f92565b929033600052600160205260ff6040600020541615610a1a57610deb9360608110610e17579081815b339542958a8a6114ff565b610df58282612013565b610dfb57005b610a189160405191610e0e602084611004565b6000835261204f565b8190600092610de0565b3461025357604036600319011261025357610e3a610f34565b600435600052600760205260406000209060018060a01b031660005260205261024f610e6960406000206110e1565b604051918291602083526020830190610f6d565b3461025357604036600319011261025357610e96610f1e565b60085460243591906001600160a01b03163303610329576001600160a01b03169081156103185760207ff21e638cbccad60709e37c990768543730ce2449d9c79b38e1e972fa99b3a219918360005260028252610f1281610f0d604060002054876000526002865282604060002055600354611077565b61109a565b600355604051908152a2005b600435906001600160a01b038216820361025357565b602435906001600160a01b038216820361025357565b60005b838110610f5d5750506000910152565b8181015183820152602001610f4d565b90602091610f8681518092818552858086019101610f4a565b601f01601f1916010190565b9181601f84011215610253578235916001600160401b038311610253576020838186019501011161025357565b60243590811515820361025357565b60c081019081106001600160401b0382111761079f57604052565b60e081019081106001600160401b0382111761079f57604052565b90601f801991011681019081106001600160401b0382111761079f57604052565b6001600160401b03811161079f57601f01601f191660200190565b92919261104c82611025565b9161105a6040519384611004565b829481845281830111610253578281602093846000960137010152565b9190820391821161108457565b634e487b7160e01b600052601160045260246000fd5b9190820180921161108457565b90600182811c921680156110d7575b60208310146110c157565b634e487b7160e01b600052602260045260246000fd5b91607f16916110b6565b90604051918260008254926110f5846110a7565b8084529360018116908115611163575060011461111c575b5061111a92500383611004565b565b90506000929192526020600020906000915b81831061114757505090602061111a928201013861110d565b602091935080600191548385890101520191019091849261112e565b90506020925061111a94915060ff191682840152151560051b8201013861110d565b80518210156111995760209160051b010190565b634e487b7160e01b600052603260045260246000fd5b6000526004602052604060002080546001600160401b03811161079f57604051916111e060208360051b0184611004565b818352602083019060005260206000206000915b838310611252575050505060005b815181101561124a576001600160a01b0361121d8284611185565b5151166001600160a01b0384161461123757600101611202565b6080925061124491611185565b51015190565b505050600090565b6005602060019260405161126581610fce565b60ff8654868060a01b038116835260a01c161515838201526112888587016110e1565b6040820152611299600287016110e1565b606082015260038601546080820152600486015460a08201528152019201920191906111f4565b6000526000602052604060002090604051906112db82610fe9565b8254825260018301546001600160a01b031660208301908152611300600285016110e1565b604084015260ff600385015416606084019015158152611322600486016110e1565b916080850192835260c0611349600660ff60058a0154169860a089019915158a52016110e1565b9501948552516001600160a01b0316159081156113a6575b5061137457519251915160019392151591565b50915050600090604051611389602082611004565b600081529060009060405161139f602082611004565b6000815290565b9050511538611361565b8181029291811591840414171561108457565b601f82116113d057505050565b6000526020600020906020601f840160051c8301931061140b575b601f0160051c01905b8181106113ff575050565b600081556001016113f4565b90915081906113eb565b908060209392818452848401376000828201840152601f01601f1916010190565b81601f8201121561025357805161144c81611025565b9261145a6040519485611004565b81845260208284010111610253576114789160208085019101610f4a565b90565b9190916040818403126102535780516001600160401b03811161025357836114a4918301611436565b9260208201516001600160401b038111610253576114789201611436565b8054821015611199576000526005602060002091020190600090565b604051906114ed604083611004565b600382526259455360e81b6020830152565b99979193949596996101205260c05261012051600052600060205260406000209860018060a01b0360018b015416156120025760ff60038b0154166115b0576001600160a01b038916600090815260026020526040902054918215610a1a5760005b6101205160005260046020526040600020548110156115c1576101205160005260046020526115948160406000206114c2565b50546001600160a01b038c81169116146115b057600101611561565b634a4117f960e01b60005260046000fd5b509091929496989395979960026115d891016110e1565b60406101608190528051919a91906115f09082611004565b600e81526d64656661756c742d736f7572636560901b60208201526101a052610160518051906116209082611004565b600d81526c64656661756c742d6c6f67696360981b6020820152998051611f86575b50600060e05260c05115611f5e576116586114de565b60e0525b6101605180516101c08190526116729190611004565b60206101c05152601f1961016051013660206101c05101376000610180525b6101a05151610180511080611f51575b156116ed5760ff60f81b6116bb610180516101a051612396565b511660001a6116d0610180516101c051612396565b536101805160001914611084576001610180510161018052611691565b6101605151600060208201528261016051820152610160518152611712606082611004565b61016051516101405261172b6101605161014051611004565b60206101405152601f19610160510136602061014051013760005b60208110611f1557505089516101605151906000602083015261016051820152610160518152611777606082611004565b61016051519061178a6101605183611004565b60208252601f19610160510136602084013760005b60208110611edc57505060e0515161010052600161010051016101005111611084576117e36117d360016101005101611025565b610160515160a05260a051611004565b6001610100510160a0515260a0515061180160016101005101611025565b601f190136602060a051013760005b60e051518110156118475760019060ff60f81b61182f8260e051612396565b511660001a6118408260a051612396565b5301611810565b5060206118e06000928261191c95969798999a9b9c9d9e6118bb61016051519586946118ad826101c0515161188481838b01846101c05101610f4a565b880161014051519061189e82848301856101405101610f4a565b01019182815194859201610f4a565b019182815194859201610f4a565b0160a05151906118d18282602060a05101610f4a565b0103601f198101835282611004565b610160515180938192637bf41d7760e11b835261016051600484015261190a604484018a89611415565b83810360031901602485015290610f6d565b03817f00000000000000000000000000000000000000000000000000000000000000006001600160a01b03165afa908115611ece576000908192611e74575b5015611e6457602081519101206119706114de565b602081519101201460c051151560805260805103611e5457611993368483611040565b60208151910120926101205160005260076020526101605160002060009060018060a01b0388168252602052610160519020916001600160401b03821161079f576119e28261059885546110a7565b600090601f8311600114611df057611a12929160009183611de55750508160011b916000199060031b1c19161790565b90555b6101205160005260046020526101605160002091610160515191611a3883610fce565b6001600160a01b03861683526080516020840190815293611a5a36898b611040565b91610160518501928352611a6f368d8d611040565b9360608601948552608086015260a085015280546801000000000000000081101561079f57611aa3916001820181556114c2565b949094611dcf578351855491516001600160a81b03199092166001600160a01b03919091161790151560a01b60ff60a01b1617845551805160018501916001600160401b03821161079f57611afc8261059885546110a7565b602090601f8311600114611d6857611b2c929160009183611cc75750508160011b916000199060031b1c19161790565b90555b51805160028401916001600160401b03821161079f57611b538261059885546110a7565b602090601f8311600114611cd257937f4164d38fcc30943a577283f30908d604d84a89a2e856b65b33296323553558059998979593611bb38460049560a095611c349b99600092611cc75750508160011b916000199060031b1c19161790565b90555b60808101516003850155015191015561012051600052600560205261016051600020608051600052602052611bf36101605160002091825461109a565b9055611c1661016051519485946080518652606060208701526060860191611415565b908382036101605185015260018060a01b0316966101205196611415565b0390a36101205160005260056020526101605160002060805160005260205261016051600020546003546064611c6c600654836113b0565b048210159081611cbd575b50611c7f5750565b610160515190608051825260208201527f4788c192b43b1eaa29d531808a78165d3487d939b8246058f5ad10d22fc2bd0d61012051916101605190a2565b9050151538611c77565b0151905038806105c1565b90601f1983169184600052816000209260005b818110611d5057508460a094611c349a98947f4164d38fcc30943a577283f30908d604d84a89a2e856b65b33296323553558059e9d9c9a989460049860019510611d37575b505050811b019055611bb6565b015160001960f88460031b161c19169055388080611d2a565b92936020600181928786015181550195019301611ce5565b90601f1983169184600052816000209260005b818110611db75750908460019594939210611d9e575b505050811b019055611b2f565b015160001960f88460031b161c19169055388080611d91565b92936020600181928786015181550195019301611d7b565b634e487b7160e01b600052600060045260246000fd5b0135905038806105c1565b8382526020822091601f198416815b818110611e3c5750908460019594939210611e22575b505050811b019055611a15565b0135600019600384901b60f8161c19169055388080611e15565b91936020600181928787013581550195019201611dff565b9050610b4c9284610120516123a7565b610b4c84838789610120516123a7565b91503d8082843e611e858184611004565b8201906101605183830312611ec7578251928315158403611eca576020810151916001600160401b038311611ec75750611ec0929101611436565b903861195b565b80fd5b5080fd5b61016051513d6000823e3d90fd5b6020810190818111611084576001916001600160f81b031990611eff9085612396565b511660001a611f0e8286612396565b530161179f565b6020810190818111611084576001916001600160f81b031990611f389085612396565b511660001a611f4a8261014051612396565b5301611746565b50602061018051106116a1565b61016051805190611f6f9082611004565b60028152614e4f60f01b602082015260e05261165c565b6000611fb091610160515180938192633449206960e21b8352602060048401526024830190610f6d565b0381305afa9081600091600093611fdb575b50611fce575b50611642565b6101a05299503880611fc8565b909250611ffb91503d806000833e611ff38183611004565b81019061147b565b9138611fc2565b63c5723b5160e01b60005260046000fd5b9060035491821561124a5760005260056020526040600020901515600052602052606461204960406000205492600654906113b0565b04111590565b919082600052600060205260406000209160018060a01b036001840154161561200257600383019182549360ff85166115b05761208c8287612013565b15610b4c576020936040516120a18682611004565b6000815295876000526004865260406000205461234f575b60ff19166001179055845160048201906001600160401b03811161079f576120eb816120e584546110a7565b846113c3565b85601f82116001146122e65781600694939261211d926000916122db575b508160011b916000199060031b1c19161790565b90555b61213983600583019060ff801983541691151516179055565b0182516001600160401b03811161079f57612158816120e584546110a7565b84601f821160011461224c579261222b95926121b1837f89b763933efe68c9fb105be2523d43afbb04f27b42bda7793a30bb6ae16bc4ff99979461223c9760009161224157508160011b916000199060031b1c19161790565b90555b8760005260058352604060002090151590816000528352877f62c5313ac9057b028c77d3d71a8bc78681ab575a0cab56a1fef1e7484cd6b48d604060002054604051809185825260608883015261220e6060830188610f6d565b9060408301520390a2604051958695606087526060870190610f6d565b928501528382036040850152610f6d565b0390a2565b905085015138612109565b601f1982169083600052866000209160005b8181106122c457508361223c969361222b9996937f89b763933efe68c9fb105be2523d43afbb04f27b42bda7793a30bb6ae16bc4ff9b9996600194106122ab575b5050811b0190556121b4565b86015160001960f88460031b161c19169055388061229f565b91928860018192868b01518155019401920161225e565b905089015138612109565b601f1982169083600052876000209160005b898b83831061233a57505050918391600696959460019410612321575b5050811b019055612120565b8a015160001960f88460031b161c191690553880612315565b840151855560019094019392830192016122f8565b955086600052600485526040600020600090805415612382576001878361237a9383955220016110e1565b9690506120b9565b634e487b7160e01b82526032600452602482fd5b908151811015611199570160200190565b91949392909260009360018060a01b03169384815260026020528060408120556123d387600354611077565b600355604051630991d88160e21b8152600481018690527f00000000000000000000000000000000000000000000000000000000000000006001600160a01b031690602081602481855afa908115612546578391612514575b5080612478575b5050507faffd8b9ffb2058f05fe3e1c643891491b6253aabe27bf992f581214ae071abcc9293949550612473604051928392602084526020840191611415565b0390a3565b829881811160001461250c5750905b803b1561250857604483926040519a8b9384926302fb4d8560e01b84528b600485015260248401525af19687156124fb577faffd8b9ffb2058f05fe3e1c643891491b6253aabe27bf992f581214ae071abcc949596976124eb575b87969594612433565b816124f591611004565b386124e2565b50604051903d90823e3d90fd5b8280fd5b905090612487565b90506020813d60201161253e575b8161252f60209383611004565b8101031261250857513861242c565b3d9150612522565b6040513d85823e3d90fdfea2646970667358221220b2bef58d35df4c3cd5dccd16b186b9edcdd6212608e962038e4381fbc37dc44064736f6c634300081a0033","opcodes":"PUSH1 0xC0 CALLVALUE PUSH2 0xF0 JUMPI PUSH1 0x1F PUSH2 0x26A7 CODESIZE DUP2 SWAP1 SUB SWAP2 DUP3 ADD PUSH1 0x1F NOT AND DUP4 ADD SWAP2 PUSH1 0x1 PUSH1 0x1 PUSH1 0x40 SHL SUB DUP4 GT DUP5 DUP5 LT OR PUSH2 0xF5 JUMPI DUP1 DUP5 SWAP3 PUSH1 0x60 SWAP5 PUSH1 0x40 MSTORE DUP4 CODECOPY DUP2 ADD SUB SLT PUSH2 0xF0 JUMPI PUSH2 0x47 DUP2 PUSH2 0x10B JUMP JUMPDEST PUSH2 0x5F PUSH1 0x40 PUSH2 0x58 PUSH1 0x20 DUP6 ADD PUSH2 0x10B JUMP JUMPDEST SWAP4 ADD PUSH2 0x10B JUMP JUMPDEST PUSH1 0x42 PUSH1 0x6 SSTORE PUSH1 0x1 PUSH1 0x1 PUSH1 0xA0 SHL SUB SWAP1 SWAP2 AND SWAP2 DUP3 ISZERO PUSH2 0xDF JUMPI PUSH1 0x1 PUSH1 0x1 PUSH1 0xA0 SHL SUB AND SWAP1 DUP2 ISZERO PUSH2 0xDF JUMPI PUSH1 0x1 PUSH1 0x1 PUSH1 0xA0 SHL SUB AND SWAP2 DUP3 ISZERO PUSH2 0xDF JUMPI PUSH1 0x8 DUP1 SLOAD PUSH1 0x1 PUSH1 0x1 PUSH1 0xA0 SHL SUB NOT AND SWAP2 SWAP1 SWAP2 OR SWAP1 SSTORE PUSH1 0x80 MSTORE PUSH1 0xA0 MSTORE PUSH1 0x40 MLOAD PUSH2 0x2587 SWAP1 DUP2 PUSH2 0x120 DUP3 CODECOPY PUSH1 0x80 MLOAD DUP2 DUP2 DUP2 PUSH2 0xCF9 ADD MSTORE PUSH2 0x1920 ADD MSTORE PUSH1 0xA0 MLOAD DUP2 DUP2 DUP2 PUSH2 0x40D ADD MSTORE PUSH2 0x23EC ADD MSTORE RETURN JUMPDEST PUSH4 0xD92E233D PUSH1 0xE0 SHL PUSH1 0x0 MSTORE PUSH1 0x4 PUSH1 0x0 REVERT JUMPDEST PUSH1 0x0 DUP1 REVERT JUMPDEST PUSH4 0x4E487B71 PUSH1 0xE0 SHL PUSH1 0x0 MSTORE PUSH1 0x41 PUSH1 0x4 MSTORE PUSH1 0x24 PUSH1 0x0 REVERT JUMPDEST MLOAD SWAP1 PUSH1 0x1 PUSH1 0x1 PUSH1 0xA0 SHL SUB DUP3 AND DUP3 SUB PUSH2 0xF0 JUMPI JUMP INVALID PUSH2 0x1E0 PUSH1 0x40 MSTORE PUSH1 0x4 CALLDATASIZE LT ISZERO PUSH2 0x13 JUMPI PUSH1 0x0 DUP1 REVERT JUMPDEST PUSH1 0x0 CALLDATALOAD PUSH1 0xE0 SHR DUP1 PUSH4 0xE6B1110 EQ PUSH2 0xE7D JUMPI DUP1 PUSH4 0x276D6526 EQ PUSH2 0xE21 JUMPI DUP1 PUSH4 0x285B80A2 EQ PUSH2 0xD56 JUMPI DUP1 PUSH4 0x2AF002E8 EQ PUSH2 0xD28 JUMPI DUP1 PUSH4 0x2E52EC8B EQ PUSH2 0xCE3 JUMPI DUP1 PUSH4 0x37E59E36 EQ PUSH2 0xB5D JUMPI DUP1 PUSH4 0x4524C7E1 EQ PUSH2 0xAEC JUMPI DUP1 PUSH4 0x7B7A91DD EQ PUSH2 0xACE JUMPI DUP1 PUSH4 0x9378C8FA EQ PUSH2 0xA7F JUMPI DUP1 PUSH4 0x96C59CC1 EQ PUSH2 0xA2A JUMPI DUP1 PUSH4 0x9E4174AA EQ PUSH2 0x974 JUMPI DUP1 PUSH4 0xB457C25A EQ PUSH2 0x93A JUMPI DUP1 PUSH4 0xC09FFF13 EQ PUSH2 0x8A9 JUMPI DUP1 PUSH4 0xC2438071 EQ PUSH2 0x45A JUMPI DUP1 PUSH4 0xC5E9A279 EQ PUSH2 0x43C JUMPI DUP1 PUSH4 0xCA31FB9F EQ PUSH2 0x3F7 JUMPI DUP1 PUSH4 0xD12481A4 EQ PUSH2 0x379 JUMPI DUP1 PUSH4 0xF1D1B381 EQ PUSH2 0x33A JUMPI DUP1 PUSH4 0xF7C226DA EQ PUSH2 0x281 JUMPI DUP1 PUSH4 0xF851A440 EQ PUSH2 0x258 JUMPI PUSH4 0xFB1E61CA EQ PUSH2 0x104 JUMPI PUSH1 0x0 DUP1 REVERT JUMPDEST CALLVALUE PUSH2 0x253 JUMPI PUSH1 0x20 CALLDATASIZE PUSH1 0x3 NOT ADD SLT PUSH2 0x253 JUMPI PUSH1 0x60 PUSH1 0xC0 PUSH1 0x40 MLOAD PUSH2 0x125 DUP2 PUSH2 0xFE9 JUMP JUMPDEST PUSH1 0x0 DUP2 MSTORE PUSH1 0x0 PUSH1 0x20 DUP3 ADD MSTORE DUP3 PUSH1 0x40 DUP3 ADD MSTORE PUSH1 0x0 DUP4 DUP3 ADD MSTORE DUP3 PUSH1 0x80 DUP3 ADD MSTORE PUSH1 0x0 PUSH1 0xA0 DUP3 ADD MSTORE ADD MSTORE PUSH1 0x4 CALLDATALOAD PUSH1 0x0 MSTORE PUSH1 0x0 PUSH1 0x20 MSTORE PUSH1 0x40 PUSH1 0x0 KECCAK256 PUSH1 0x40 MLOAD PUSH2 0x167 DUP2 PUSH2 0xFE9 JUMP JUMPDEST DUP2 SLOAD DUP2 MSTORE PUSH1 0x1 DUP3 ADD SLOAD PUSH1 0x1 PUSH1 0x1 PUSH1 0xA0 SHL SUB AND PUSH1 0x20 DUP3 ADD SWAP1 DUP2 MSTORE SWAP2 PUSH2 0x24F SWAP1 PUSH2 0x191 PUSH1 0x2 DUP3 ADD PUSH2 0x10E1 JUMP JUMPDEST PUSH1 0x40 DUP5 ADD SWAP1 DUP2 MSTORE PUSH2 0x234 PUSH1 0xFF PUSH1 0x3 DUP5 ADD SLOAD AND PUSH1 0x60 DUP7 ADD SWAP1 ISZERO ISZERO DUP2 MSTORE PUSH2 0x1B8 PUSH1 0x4 DUP6 ADD PUSH2 0x10E1 JUMP JUMPDEST PUSH1 0x80 DUP8 ADD SWAP1 DUP2 MSTORE PUSH2 0x219 PUSH2 0x1DF PUSH1 0x6 PUSH1 0xFF PUSH1 0x5 DUP10 ADD SLOAD AND SWAP8 PUSH1 0xA0 DUP12 ADD SWAP9 ISZERO ISZERO DUP10 MSTORE ADD PUSH2 0x10E1 JUMP JUMPDEST SWAP5 PUSH1 0xC0 DUP10 ADD SWAP6 DUP7 MSTORE PUSH1 0x40 MLOAD SWAP10 DUP11 SWAP10 PUSH1 0x20 DUP12 MSTORE MLOAD PUSH1 0x20 DUP12 ADD MSTORE PUSH1 0x1 DUP1 PUSH1 0xA0 SHL SUB SWAP1 MLOAD AND PUSH1 0x40 DUP11 ADD MSTORE MLOAD PUSH1 0xE0 PUSH1 0x60 DUP11 ADD MSTORE PUSH2 0x100 DUP10 ADD SWAP1 PUSH2 0xF6D JUMP JUMPDEST SWAP2 MLOAD ISZERO ISZERO PUSH1 0x80 DUP9 ADD MSTORE MLOAD DUP7 DUP3 SUB PUSH1 0x1F NOT ADD PUSH1 0xA0 DUP9 ADD MSTORE PUSH2 0xF6D JUMP JUMPDEST SWAP2 MLOAD ISZERO ISZERO PUSH1 0xC0 DUP6 ADD MSTORE MLOAD DUP4 DUP3 SUB PUSH1 0x1F NOT ADD PUSH1 0xE0 DUP6 ADD MSTORE PUSH2 0xF6D JUMP JUMPDEST SUB SWAP1 RETURN JUMPDEST PUSH1 0x0 DUP1 REVERT JUMPDEST CALLVALUE PUSH2 0x253 JUMPI PUSH1 0x0 CALLDATASIZE PUSH1 0x3 NOT ADD SLT PUSH2 0x253 JUMPI PUSH1 0x8 SLOAD PUSH1 0x40 MLOAD PUSH1 0x1 PUSH1 0x1 PUSH1 0xA0 SHL SUB SWAP1 SWAP2 AND DUP2 MSTORE PUSH1 0x20 SWAP1 RETURN JUMPDEST CALLVALUE PUSH2 0x253 JUMPI PUSH1 0x40 CALLDATASIZE PUSH1 0x3 NOT ADD SLT PUSH2 0x253 JUMPI PUSH2 0x29A PUSH2 0xF1E JUMP JUMPDEST PUSH2 0x2A2 PUSH2 0xFBF JUMP JUMPDEST PUSH1 0x8 SLOAD SWAP1 SWAP2 SWAP1 PUSH1 0x1 PUSH1 0x1 PUSH1 0xA0 SHL SUB AND CALLER SUB PUSH2 0x329 JUMPI PUSH1 0x1 PUSH1 0x1 PUSH1 0xA0 SHL SUB AND SWAP1 DUP2 ISZERO PUSH2 0x318 JUMPI PUSH1 0x20 PUSH32 0xA8CFB85FB565846D65E4062D92A89056ECB7AA24252225132315978A9ED574C1 SWAP2 DUP4 PUSH1 0x0 MSTORE PUSH1 0x1 DUP3 MSTORE PUSH2 0x30D DUP2 PUSH1 0x40 PUSH1 0x0 KECCAK256 SWAP1 PUSH1 0xFF DUP1 NOT DUP4 SLOAD AND SWAP2 ISZERO ISZERO AND OR SWAP1 SSTORE JUMP JUMPDEST PUSH1 0x40 MLOAD SWAP1 ISZERO ISZERO DUP2 MSTORE LOG2 STOP JUMPDEST PUSH4 0xD92E233D PUSH1 0xE0 SHL PUSH1 0x0 MSTORE PUSH1 0x4 PUSH1 0x0 REVERT JUMPDEST PUSH4 0x47556579 PUSH1 0xE0 SHL PUSH1 0x0 MSTORE PUSH1 0x4 PUSH1 0x0 REVERT JUMPDEST CALLVALUE PUSH2 0x253 JUMPI PUSH1 0x20 CALLDATASIZE PUSH1 0x3 NOT ADD SLT PUSH2 0x253 JUMPI PUSH1 0x1 PUSH1 0x1 PUSH1 0xA0 SHL SUB PUSH2 0x35B PUSH2 0xF1E JUMP JUMPDEST AND PUSH1 0x0 MSTORE PUSH1 0x1 PUSH1 0x20 MSTORE PUSH1 0x20 PUSH1 0xFF PUSH1 0x40 PUSH1 0x0 KECCAK256 SLOAD AND PUSH1 0x40 MLOAD SWAP1 ISZERO ISZERO DUP2 MSTORE RETURN JUMPDEST CALLVALUE PUSH2 0x253 JUMPI PUSH1 0x20 CALLDATASIZE PUSH1 0x3 NOT ADD SLT PUSH2 0x253 JUMPI PUSH1 0x4 CALLDATALOAD PUSH1 0x1 PUSH1 0x1 PUSH1 0x40 SHL SUB DUP2 GT PUSH2 0x253 JUMPI CALLDATASIZE PUSH1 0x23 DUP3 ADD SLT ISZERO PUSH2 0x253 JUMPI PUSH2 0x24F PUSH2 0x3D2 PUSH2 0x3C3 PUSH2 0x3E9 SWAP4 CALLDATASIZE SWAP1 PUSH1 0x24 DUP2 PUSH1 0x4 ADD CALLDATALOAD SWAP2 ADD PUSH2 0x1040 JUMP JUMPDEST PUSH1 0x20 DUP1 DUP3 MLOAD DUP4 ADD ADD SWAP2 ADD PUSH2 0x147B JUMP JUMPDEST PUSH1 0x40 SWAP3 SWAP2 SWAP3 MLOAD SWAP4 DUP5 SWAP4 PUSH1 0x40 DUP6 MSTORE PUSH1 0x40 DUP6 ADD SWAP1 PUSH2 0xF6D JUMP JUMPDEST SWAP1 DUP4 DUP3 SUB PUSH1 0x20 DUP6 ADD MSTORE PUSH2 0xF6D JUMP JUMPDEST CALLVALUE PUSH2 0x253 JUMPI PUSH1 0x0 CALLDATASIZE PUSH1 0x3 NOT ADD SLT PUSH2 0x253 JUMPI PUSH1 0x40 MLOAD PUSH32 0x0 PUSH1 0x1 PUSH1 0x1 PUSH1 0xA0 SHL SUB AND DUP2 MSTORE PUSH1 0x20 SWAP1 RETURN JUMPDEST CALLVALUE PUSH2 0x253 JUMPI PUSH1 0x0 CALLDATASIZE PUSH1 0x3 NOT ADD SLT PUSH2 0x253 JUMPI PUSH1 0x20 PUSH1 0x3 SLOAD PUSH1 0x40 MLOAD SWAP1 DUP2 MSTORE RETURN JUMPDEST CALLVALUE PUSH2 0x253 JUMPI PUSH1 0x40 CALLDATASIZE PUSH1 0x3 NOT ADD SLT PUSH2 0x253 JUMPI PUSH1 0x4 CALLDATALOAD PUSH1 0x24 CALLDATALOAD PUSH1 0x1 PUSH1 0x1 PUSH1 0x40 SHL SUB DUP2 GT PUSH2 0x253 JUMPI PUSH2 0x48D SWAP1 CALLDATASIZE SWAP1 PUSH1 0x4 ADD PUSH2 0xF92 JUMP JUMPDEST SWAP1 SWAP2 PUSH1 0x40 MLOAD PUSH1 0x20 DUP2 ADD SWAP1 DUP3 DUP3 MSTORE CALLER PUSH1 0x60 SHL PUSH1 0x40 DUP3 ADD MSTORE TIMESTAMP PUSH1 0x54 DUP3 ADD MSTORE DUP4 DUP6 PUSH1 0x74 DUP4 ADD CALLDATACOPY PUSH2 0x4CC PUSH1 0x20 PUSH1 0x74 DUP4 DUP8 DUP2 ADD PREVRANDAO DUP4 DUP3 ADD MSTORE SUB ADD DUP1 DUP5 MSTORE ADD DUP3 PUSH2 0x1004 JUMP JUMPDEST MLOAD SWAP1 KECCAK256 SWAP2 PUSH1 0x40 MLOAD SWAP4 PUSH2 0x4DD DUP6 PUSH2 0xFE9 JUMP JUMPDEST DUP3 DUP6 MSTORE PUSH1 0x20 DUP6 ADD SWAP1 CALLER DUP3 MSTORE PUSH2 0x4F3 CALLDATASIZE DUP5 DUP4 PUSH2 0x1040 JUMP JUMPDEST SWAP6 PUSH1 0x40 DUP2 ADD SWAP7 DUP8 MSTORE PUSH1 0x60 DUP2 ADD SWAP7 PUSH1 0x0 DUP9 MSTORE PUSH1 0x20 SWAP8 PUSH1 0x40 MLOAD SWAP1 PUSH2 0x515 DUP11 DUP4 PUSH2 0x1004 JUMP JUMPDEST PUSH1 0x0 DUP3 MSTORE PUSH1 0x80 DUP5 ADD SWAP2 DUP3 MSTORE PUSH1 0xA0 DUP5 ADD SWAP3 PUSH1 0x0 DUP5 MSTORE PUSH1 0x40 MLOAD SWAP7 PUSH2 0x537 DUP13 DUP10 PUSH2 0x1004 JUMP JUMPDEST PUSH1 0x0 DUP1 DUP10 MSTORE PUSH1 0xC0 DUP8 ADD SWAP9 DUP10 MSTORE DUP12 DUP2 MSTORE DUP1 DUP14 MSTORE PUSH1 0x40 SWAP1 KECCAK256 SWAP6 MLOAD DUP7 SSTORE MLOAD PUSH1 0x1 DUP7 ADD DUP1 SLOAD PUSH1 0x1 PUSH1 0x1 PUSH1 0xA0 SHL SUB NOT AND PUSH1 0x1 PUSH1 0x1 PUSH1 0xA0 SHL SUB SWAP3 SWAP1 SWAP3 AND SWAP2 SWAP1 SWAP2 OR SWAP1 SSTORE MLOAD DUP1 MLOAD PUSH1 0x2 DUP7 ADD SWAP2 PUSH1 0x1 PUSH1 0x1 PUSH1 0x40 SHL SUB DUP3 GT PUSH2 0x79F JUMPI PUSH2 0x59E DUP3 PUSH2 0x598 DUP6 SLOAD PUSH2 0x10A7 JUMP JUMPDEST DUP6 PUSH2 0x13C3 JUMP JUMPDEST DUP13 SWAP1 DUP14 PUSH1 0x1F DUP5 GT PUSH1 0x1 EQ PUSH2 0x83B JUMPI POP SWAP2 DUP1 PUSH2 0x5D6 SWAP3 PUSH2 0x5F1 SWAP7 SWAP6 SWAP5 PUSH1 0x0 SWAP3 PUSH2 0x830 JUMPI JUMPDEST POP POP DUP2 PUSH1 0x1 SHL SWAP2 PUSH1 0x0 NOT SWAP1 PUSH1 0x3 SHL SHR NOT AND OR SWAP1 JUMP JUMPDEST SWAP1 SSTORE JUMPDEST MLOAD ISZERO ISZERO PUSH1 0x3 DUP6 ADD SWAP1 PUSH1 0xFF DUP1 NOT DUP4 SLOAD AND SWAP2 ISZERO ISZERO AND OR SWAP1 SSTORE JUMP JUMPDEST MLOAD DUP1 MLOAD PUSH1 0x4 DUP5 ADD SWAP2 PUSH1 0x1 PUSH1 0x1 PUSH1 0x40 SHL SUB DUP3 GT PUSH2 0x79F JUMPI PUSH2 0x615 DUP3 PUSH2 0x598 DUP6 SLOAD PUSH2 0x10A7 JUMP JUMPDEST DUP11 SWAP1 PUSH1 0x1F DUP4 GT PUSH1 0x1 EQ PUSH2 0x7C0 JUMPI DUP3 PUSH1 0x6 SWAP7 SWAP6 SWAP4 PUSH2 0x668 SWAP6 SWAP4 PUSH2 0x64D SWAP4 PUSH1 0x0 SWAP3 PUSH2 0x7B5 JUMPI POP POP DUP2 PUSH1 0x1 SHL SWAP2 PUSH1 0x0 NOT SWAP1 PUSH1 0x3 SHL SHR NOT AND OR SWAP1 JUMP JUMPDEST SWAP1 SSTORE JUMPDEST MLOAD ISZERO ISZERO PUSH1 0x5 DUP4 ADD SWAP1 PUSH1 0xFF DUP1 NOT DUP4 SLOAD AND SWAP2 ISZERO ISZERO AND OR SWAP1 SSTORE JUMP JUMPDEST ADD SWAP2 MLOAD SWAP2 DUP3 MLOAD PUSH1 0x1 PUSH1 0x1 PUSH1 0x40 SHL SUB DUP2 GT PUSH2 0x79F JUMPI DUP7 SWAP4 PUSH2 0x68C DUP3 PUSH2 0x598 DUP6 SLOAD PUSH2 0x10A7 JUMP JUMPDEST DUP9 SWAP1 PUSH1 0x1F DUP4 GT PUSH1 0x1 EQ PUSH2 0x70F JUMPI DUP3 PUSH32 0x34602E40C4C49141C143FEF967CB05AFC0207BA0F21B2BC82B56B712B4250FCA SWAP6 SWAP4 PUSH2 0x6F9 SWAP6 SWAP4 PUSH2 0x6E2 SWAP4 PUSH1 0x0 SWAP3 PUSH2 0x704 JUMPI POP POP DUP2 PUSH1 0x1 SHL SWAP2 PUSH1 0x0 NOT SWAP1 PUSH1 0x3 SHL SHR NOT AND OR SWAP1 JUMP JUMPDEST SWAP1 SSTORE JUMPDEST PUSH1 0x40 MLOAD SWAP2 DUP3 SWAP2 DUP10 DUP4 MSTORE CALLER SWAP7 DUP11 DUP5 ADD SWAP2 PUSH2 0x1415 JUMP JUMPDEST SUB SWAP1 LOG4 PUSH1 0x40 MLOAD SWAP1 DUP2 MSTORE RETURN JUMPDEST ADD MLOAD SWAP1 POP DUP13 DUP1 PUSH2 0x5C1 JUMP JUMPDEST SWAP1 PUSH1 0x1F NOT DUP4 AND SWAP2 DUP5 PUSH1 0x0 MSTORE DUP11 PUSH1 0x0 KECCAK256 SWAP3 PUSH1 0x0 JUMPDEST DUP13 DUP3 DUP3 LT PUSH2 0x786 JUMPI POP POP SWAP3 PUSH1 0x1 SWAP3 DUP6 SWAP3 PUSH32 0x34602E40C4C49141C143FEF967CB05AFC0207BA0F21B2BC82B56B712B4250FCA SWAP9 SWAP7 PUSH2 0x6F9 SWAP9 SWAP7 LT PUSH2 0x76D JUMPI JUMPDEST POP POP POP DUP2 SHL ADD SWAP1 SSTORE PUSH2 0x6E5 JUMP JUMPDEST ADD MLOAD PUSH1 0x0 NOT PUSH1 0xF8 DUP5 PUSH1 0x3 SHL AND SHR NOT AND SWAP1 SSTORE DUP12 DUP1 DUP1 PUSH2 0x760 JUMP JUMPDEST DUP5 DUP5 ADD MLOAD DUP7 SSTORE DUP13 SWAP10 POP PUSH1 0x1 SWAP1 SWAP6 ADD SWAP5 SWAP4 DUP5 ADD SWAP4 ADD PUSH2 0x722 JUMP JUMPDEST PUSH4 0x4E487B71 PUSH1 0xE0 SHL PUSH1 0x0 MSTORE PUSH1 0x41 PUSH1 0x4 MSTORE PUSH1 0x24 PUSH1 0x0 REVERT JUMPDEST ADD MLOAD SWAP1 POP DUP15 DUP1 PUSH2 0x5C1 JUMP JUMPDEST PUSH1 0x0 DUP5 DUP2 MSTORE DUP13 DUP2 KECCAK256 SWAP3 SWAP2 SWAP1 PUSH1 0x1F NOT DUP6 AND SWAP1 DUP15 JUMPDEST DUP3 DUP3 LT PUSH2 0x818 JUMPI POP POP SWAP3 PUSH1 0x1 SWAP3 DUP6 SWAP3 PUSH1 0x6 SWAP10 SWAP9 SWAP7 PUSH2 0x668 SWAP9 SWAP7 LT PUSH2 0x7FF JUMPI JUMPDEST POP POP POP DUP2 SHL ADD SWAP1 SSTORE PUSH2 0x650 JUMP JUMPDEST ADD MLOAD PUSH1 0x0 NOT PUSH1 0xF8 DUP5 PUSH1 0x3 SHL AND SHR NOT AND SWAP1 SSTORE DUP14 DUP1 DUP1 PUSH2 0x7F2 JUMP JUMPDEST DUP1 PUSH1 0x1 DUP7 SWAP8 DUP3 SWAP5 SWAP8 DUP8 ADD MLOAD DUP2 SSTORE ADD SWAP7 ADD SWAP5 ADD SWAP1 PUSH2 0x7D3 JUMP JUMPDEST ADD MLOAD SWAP1 POP DUP16 DUP1 PUSH2 0x5C1 JUMP JUMPDEST SWAP2 SWAP1 PUSH1 0x1F NOT DUP5 AND DUP6 PUSH1 0x0 MSTORE DUP4 PUSH1 0x0 KECCAK256 SWAP4 PUSH1 0x0 SWAP1 JUMPDEST DUP3 DUP3 LT PUSH2 0x891 JUMPI POP POP SWAP2 PUSH1 0x1 SWAP4 SWAP2 DUP6 PUSH2 0x5F1 SWAP9 SWAP8 SWAP7 SWAP5 LT PUSH2 0x878 JUMPI JUMPDEST POP POP POP DUP2 SHL ADD SWAP1 SSTORE PUSH2 0x5D9 JUMP JUMPDEST ADD MLOAD PUSH1 0x0 NOT PUSH1 0xF8 DUP5 PUSH1 0x3 SHL AND SHR NOT AND SWAP1 SSTORE DUP15 DUP1 DUP1 PUSH2 0x86B JUMP JUMPDEST DUP1 PUSH1 0x1 DUP7 SWAP8 DUP3 SWAP5 SWAP8 DUP8 ADD MLOAD DUP2 SSTORE ADD SWAP7 ADD SWAP5 ADD SWAP1 PUSH2 0x84F JUMP JUMPDEST CALLVALUE PUSH2 0x253 JUMPI PUSH1 0x20 CALLDATASIZE PUSH1 0x3 NOT ADD SLT PUSH2 0x253 JUMPI PUSH1 0x80 PUSH1 0x4 CALLDATALOAD PUSH1 0x3 SLOAD SWAP1 PUSH1 0x64 PUSH2 0x8D1 PUSH1 0x6 SLOAD DUP5 PUSH2 0x13B0 JUMP JUMPDEST PUSH1 0x0 SWAP3 DUP4 MSTORE PUSH1 0x5 PUSH1 0x20 SWAP1 DUP2 MSTORE PUSH1 0x40 DUP1 DUP6 KECCAK256 PUSH1 0x1 DUP7 MSTORE SWAP1 SWAP2 MSTORE DUP1 DUP5 KECCAK256 SLOAD DUP5 DUP1 MSTORE SWAP4 KECCAK256 SLOAD SWAP2 SWAP1 DIV DUP1 DUP4 LT DUP1 ISZERO SWAP5 SWAP2 SWAP4 SWAP2 SWAP1 PUSH2 0x92F JUMPI JUMPDEST DUP5 PUSH2 0x925 JUMPI JUMPDEST POP PUSH1 0x40 MLOAD SWAP4 ISZERO ISZERO DUP5 MSTORE PUSH1 0x20 DUP5 ADD MSTORE PUSH1 0x40 DUP4 ADD MSTORE PUSH1 0x60 DUP3 ADD MSTORE RETURN JUMPDEST ISZERO ISZERO SWAP4 POP DUP6 PUSH2 0x90B JUMP JUMPDEST DUP4 DUP4 LT ISZERO SWAP5 POP PUSH2 0x905 JUMP JUMPDEST CALLVALUE PUSH2 0x253 JUMPI PUSH1 0x20 CALLDATASIZE PUSH1 0x3 NOT ADD SLT PUSH2 0x253 JUMPI PUSH1 0x1 PUSH1 0x1 PUSH1 0xA0 SHL SUB PUSH2 0x95B PUSH2 0xF1E JUMP JUMPDEST AND PUSH1 0x0 MSTORE PUSH1 0x2 PUSH1 0x20 MSTORE PUSH1 0x20 PUSH1 0x40 PUSH1 0x0 KECCAK256 SLOAD PUSH1 0x40 MLOAD SWAP1 DUP2 MSTORE RETURN JUMPDEST CALLVALUE PUSH2 0x253 JUMPI PUSH1 0xC0 CALLDATASIZE PUSH1 0x3 NOT ADD SLT PUSH2 0x253 JUMPI PUSH2 0x98D PUSH2 0xFBF JUMP JUMPDEST PUSH1 0x44 CALLDATALOAD PUSH1 0x1 PUSH1 0x1 PUSH1 0x40 SHL SUB DUP2 GT PUSH2 0x253 JUMPI PUSH2 0x9AC SWAP1 CALLDATASIZE SWAP1 PUSH1 0x4 ADD PUSH2 0xF92 JUMP JUMPDEST SWAP2 PUSH1 0x64 CALLDATALOAD PUSH1 0x1 PUSH1 0x1 PUSH1 0x40 SHL SUB DUP2 GT PUSH2 0x253 JUMPI PUSH2 0x9CC SWAP1 CALLDATASIZE SWAP1 PUSH1 0x4 ADD PUSH2 0xF92 JUMP JUMPDEST SWAP1 PUSH1 0x84 CALLDATALOAD PUSH1 0x1 PUSH1 0x1 PUSH1 0x40 SHL SUB DUP2 GT PUSH2 0x253 JUMPI PUSH2 0x9EC SWAP1 CALLDATASIZE SWAP1 PUSH1 0x4 ADD PUSH2 0xF92 JUMP JUMPDEST SWAP3 SWAP1 SWAP2 CALLER PUSH1 0x0 MSTORE PUSH1 0x1 PUSH1 0x20 MSTORE PUSH1 0xFF PUSH1 0x40 PUSH1 0x0 KECCAK256 SLOAD AND ISZERO PUSH2 0xA1A JUMPI PUSH2 0xA18 SWAP7 CALLER SWAP7 PUSH1 0xA4 CALLDATALOAD SWAP7 PUSH1 0x4 CALLDATALOAD PUSH2 0x14FF JUMP JUMPDEST STOP JUMPDEST PUSH3 0x82B429 PUSH1 0xE8 SHL PUSH1 0x0 MSTORE PUSH1 0x4 PUSH1 0x0 REVERT JUMPDEST CALLVALUE PUSH2 0x253 JUMPI PUSH1 0x20 CALLDATASIZE PUSH1 0x3 NOT ADD SLT PUSH2 0x253 JUMPI PUSH2 0x24F PUSH2 0xA49 PUSH1 0x4 CALLDATALOAD PUSH2 0x12C0 JUMP JUMPDEST PUSH2 0xA6A PUSH1 0x40 SWAP6 SWAP4 SWAP6 MLOAD SWAP6 DUP7 SWAP6 ISZERO ISZERO DUP7 MSTORE PUSH1 0x80 PUSH1 0x20 DUP8 ADD MSTORE PUSH1 0x80 DUP7 ADD SWAP1 PUSH2 0xF6D JUMP JUMPDEST SWAP2 ISZERO ISZERO PUSH1 0x40 DUP6 ADD MSTORE DUP4 DUP3 SUB PUSH1 0x60 DUP6 ADD MSTORE PUSH2 0xF6D JUMP JUMPDEST CALLVALUE PUSH2 0x253 JUMPI PUSH1 0x60 CALLDATASIZE PUSH1 0x3 NOT ADD SLT PUSH2 0x253 JUMPI PUSH2 0xA98 PUSH2 0xFBF JUMP JUMPDEST PUSH1 0x44 CALLDATALOAD SWAP1 PUSH1 0x1 PUSH1 0x1 PUSH1 0x40 SHL SUB DUP3 GT PUSH2 0x253 JUMPI PUSH2 0xAC5 PUSH2 0xABE PUSH2 0xA18 SWAP4 CALLDATASIZE SWAP1 PUSH1 0x4 ADD PUSH2 0xF92 JUMP JUMPDEST CALLDATASIZE SWAP2 PUSH2 0x1040 JUMP JUMPDEST SWAP1 PUSH1 0x4 CALLDATALOAD PUSH2 0x204F JUMP JUMPDEST CALLVALUE PUSH2 0x253 JUMPI PUSH1 0x0 CALLDATASIZE PUSH1 0x3 NOT ADD SLT PUSH2 0x253 JUMPI PUSH1 0x20 PUSH1 0x6 SLOAD PUSH1 0x40 MLOAD SWAP1 DUP2 MSTORE RETURN JUMPDEST CALLVALUE PUSH2 0x253 JUMPI PUSH1 0x20 CALLDATASIZE PUSH1 0x3 NOT ADD SLT PUSH2 0x253 JUMPI PUSH1 0x8 SLOAD PUSH1 0x4 CALLDATALOAD SWAP1 PUSH1 0x1 PUSH1 0x1 PUSH1 0xA0 SHL SUB AND CALLER SUB PUSH2 0x329 JUMPI PUSH1 0x64 DUP2 GT PUSH2 0xB4C JUMPI PUSH1 0x20 DUP2 PUSH32 0xBC589FCCF641D342B7853C2C6FACA39631D4D19EFBE77E71E5611E31678C220E SWAP3 PUSH1 0x6 SSTORE PUSH1 0x40 MLOAD SWAP1 DUP2 MSTORE LOG1 STOP JUMPDEST PUSH4 0x309CB87 PUSH1 0xE5 SHL PUSH1 0x0 MSTORE PUSH1 0x4 PUSH1 0x0 REVERT JUMPDEST CALLVALUE PUSH2 0x253 JUMPI PUSH1 0x20 CALLDATASIZE PUSH1 0x3 NOT ADD SLT PUSH2 0x253 JUMPI PUSH1 0x4 CALLDATALOAD PUSH1 0x0 MSTORE PUSH1 0x4 PUSH1 0x20 MSTORE PUSH1 0x40 PUSH1 0x0 KECCAK256 DUP1 SLOAD SWAP1 PUSH1 0x1 PUSH1 0x1 PUSH1 0x40 SHL SUB DUP3 GT PUSH2 0x79F JUMPI PUSH1 0x40 MLOAD SWAP2 PUSH2 0xBA3 PUSH1 0x20 DUP3 PUSH1 0x5 SHL ADD DUP5 PUSH2 0x1004 JUMP JUMPDEST DUP1 DUP4 MSTORE PUSH1 0x20 DUP4 ADD DUP1 SWAP3 PUSH1 0x0 MSTORE PUSH1 0x20 PUSH1 0x0 KECCAK256 PUSH1 0x0 SWAP2 JUMPDEST DUP4 DUP4 LT PUSH2 0xC75 JUMPI DUP5 DUP7 PUSH1 0x40 MLOAD SWAP2 DUP3 SWAP2 PUSH1 0x20 DUP4 ADD SWAP1 PUSH1 0x20 DUP5 MSTORE MLOAD DUP1 SWAP2 MSTORE PUSH1 0x40 DUP4 ADD SWAP1 PUSH1 0x40 DUP2 PUSH1 0x5 SHL DUP6 ADD ADD SWAP3 SWAP2 PUSH1 0x0 SWAP1 JUMPDEST DUP3 DUP3 LT PUSH2 0xBF7 JUMPI POP POP POP POP SUB SWAP1 RETURN JUMPDEST SWAP2 SWAP4 PUSH1 0x1 SWAP2 SWAP4 SWAP6 POP PUSH1 0x20 DUP1 SWAP2 PUSH1 0x3F NOT DUP10 DUP3 SUB ADD DUP6 MSTORE DUP8 MLOAD SWAP1 DUP5 DUP1 PUSH1 0xA0 SHL SUB DUP3 MLOAD AND DUP2 MSTORE DUP3 DUP3 ADD MLOAD ISZERO ISZERO DUP4 DUP3 ADD MSTORE PUSH1 0xA0 DUP1 PUSH2 0xC55 PUSH2 0xC43 PUSH1 0x40 DUP7 ADD MLOAD PUSH1 0xC0 PUSH1 0x40 DUP8 ADD MSTORE PUSH1 0xC0 DUP7 ADD SWAP1 PUSH2 0xF6D JUMP JUMPDEST PUSH1 0x60 DUP7 ADD MLOAD DUP6 DUP3 SUB PUSH1 0x60 DUP8 ADD MSTORE PUSH2 0xF6D JUMP JUMPDEST SWAP4 PUSH1 0x80 DUP2 ADD MLOAD PUSH1 0x80 DUP6 ADD MSTORE ADD MLOAD SWAP2 ADD MSTORE SWAP7 ADD SWAP3 ADD SWAP3 ADD DUP6 SWAP5 SWAP4 SWAP2 SWAP3 PUSH2 0xBE8 JUMP JUMPDEST PUSH1 0x5 PUSH1 0x20 PUSH1 0x1 SWAP3 PUSH1 0x40 MLOAD PUSH2 0xC88 DUP2 PUSH2 0xFCE JUMP JUMPDEST PUSH1 0xFF DUP7 SLOAD DUP7 DUP1 PUSH1 0xA0 SHL SUB DUP2 AND DUP4 MSTORE PUSH1 0xA0 SHR AND ISZERO ISZERO DUP4 DUP3 ADD MSTORE PUSH2 0xCAB DUP6 DUP8 ADD PUSH2 0x10E1 JUMP JUMPDEST PUSH1 0x40 DUP3 ADD MSTORE PUSH2 0xCBC PUSH1 0x2 DUP8 ADD PUSH2 0x10E1 JUMP JUMPDEST PUSH1 0x60 DUP3 ADD MSTORE PUSH1 0x3 DUP7 ADD SLOAD PUSH1 0x80 DUP3 ADD MSTORE PUSH1 0x4 DUP7 ADD SLOAD PUSH1 0xA0 DUP3 ADD MSTORE DUP2 MSTORE ADD SWAP3 ADD SWAP3 ADD SWAP2 SWAP1 PUSH2 0xBB8 JUMP JUMPDEST CALLVALUE PUSH2 0x253 JUMPI PUSH1 0x0 CALLDATASIZE PUSH1 0x3 NOT ADD SLT PUSH2 0x253 JUMPI PUSH1 0x40 MLOAD PUSH32 0x0 PUSH1 0x1 PUSH1 0x1 PUSH1 0xA0 SHL SUB AND DUP2 MSTORE PUSH1 0x20 SWAP1 RETURN JUMPDEST CALLVALUE PUSH2 0x253 JUMPI PUSH1 0x40 CALLDATASIZE PUSH1 0x3 NOT ADD SLT PUSH2 0x253 JUMPI PUSH1 0x20 PUSH2 0xD4E PUSH2 0xD46 PUSH2 0xF34 JUMP JUMPDEST PUSH1 0x4 CALLDATALOAD PUSH2 0x11AF JUMP JUMPDEST PUSH1 0x40 MLOAD SWAP1 DUP2 MSTORE RETURN JUMPDEST CALLVALUE PUSH2 0x253 JUMPI PUSH1 0x80 CALLDATASIZE PUSH1 0x3 NOT ADD SLT PUSH2 0x253 JUMPI PUSH1 0x4 CALLDATALOAD PUSH1 0x24 CALLDATALOAD PUSH1 0x1 PUSH1 0x1 PUSH1 0x40 SHL SUB DUP2 GT PUSH2 0x253 JUMPI PUSH2 0xD89 SWAP1 CALLDATASIZE SWAP1 PUSH1 0x4 ADD PUSH2 0xF92 JUMP JUMPDEST SWAP2 SWAP1 PUSH1 0x44 CALLDATALOAD SWAP3 DUP4 ISZERO ISZERO DUP5 SUB PUSH2 0x253 JUMPI PUSH1 0x64 CALLDATALOAD PUSH1 0x1 PUSH1 0x1 PUSH1 0x40 SHL SUB DUP2 GT PUSH2 0x253 JUMPI PUSH2 0xDB7 SWAP1 CALLDATASIZE SWAP1 PUSH1 0x4 ADD PUSH2 0xF92 JUMP JUMPDEST SWAP3 SWAP1 CALLER PUSH1 0x0 MSTORE PUSH1 0x1 PUSH1 0x20 MSTORE PUSH1 0xFF PUSH1 0x40 PUSH1 0x0 KECCAK256 SLOAD AND ISZERO PUSH2 0xA1A JUMPI PUSH2 0xDEB SWAP4 PUSH1 0x60 DUP2 LT PUSH2 0xE17 JUMPI SWAP1 DUP2 DUP2 JUMPDEST CALLER SWAP6 TIMESTAMP SWAP6 DUP11 DUP11 PUSH2 0x14FF JUMP JUMPDEST PUSH2 0xDF5 DUP3 DUP3 PUSH2 0x2013 JUMP JUMPDEST PUSH2 0xDFB JUMPI STOP JUMPDEST PUSH2 0xA18 SWAP2 PUSH1 0x40 MLOAD SWAP2 PUSH2 0xE0E PUSH1 0x20 DUP5 PUSH2 0x1004 JUMP JUMPDEST PUSH1 0x0 DUP4 MSTORE PUSH2 0x204F JUMP JUMPDEST DUP2 SWAP1 PUSH1 0x0 SWAP3 PUSH2 0xDE0 JUMP JUMPDEST CALLVALUE PUSH2 0x253 JUMPI PUSH1 0x40 CALLDATASIZE PUSH1 0x3 NOT ADD SLT PUSH2 0x253 JUMPI PUSH2 0xE3A PUSH2 0xF34 JUMP JUMPDEST PUSH1 0x4 CALLDATALOAD PUSH1 0x0 MSTORE PUSH1 0x7 PUSH1 0x20 MSTORE PUSH1 0x40 PUSH1 0x0 KECCAK256 SWAP1 PUSH1 0x1 DUP1 PUSH1 0xA0 SHL SUB AND PUSH1 0x0 MSTORE PUSH1 0x20 MSTORE PUSH2 0x24F PUSH2 0xE69 PUSH1 0x40 PUSH1 0x0 KECCAK256 PUSH2 0x10E1 JUMP JUMPDEST PUSH1 0x40 MLOAD SWAP2 DUP3 SWAP2 PUSH1 0x20 DUP4 MSTORE PUSH1 0x20 DUP4 ADD SWAP1 PUSH2 0xF6D JUMP JUMPDEST CALLVALUE PUSH2 0x253 JUMPI PUSH1 0x40 CALLDATASIZE PUSH1 0x3 NOT ADD SLT PUSH2 0x253 JUMPI PUSH2 0xE96 PUSH2 0xF1E JUMP JUMPDEST PUSH1 0x8 SLOAD PUSH1 0x24 CALLDATALOAD SWAP2 SWAP1 PUSH1 0x1 PUSH1 0x1 PUSH1 0xA0 SHL SUB AND CALLER SUB PUSH2 0x329 JUMPI PUSH1 0x1 PUSH1 0x1 PUSH1 0xA0 SHL SUB AND SWAP1 DUP2 ISZERO PUSH2 0x318 JUMPI PUSH1 0x20 PUSH32 0xF21E638CBCCAD60709E37C990768543730CE2449D9C79B38E1E972FA99B3A219 SWAP2 DUP4 PUSH1 0x0 MSTORE PUSH1 0x2 DUP3 MSTORE PUSH2 0xF12 DUP2 PUSH2 0xF0D PUSH1 0x40 PUSH1 0x0 KECCAK256 SLOAD DUP8 PUSH1 0x0 MSTORE PUSH1 0x2 DUP7 MSTORE DUP3 PUSH1 0x40 PUSH1 0x0 KECCAK256 SSTORE PUSH1 0x3 SLOAD PUSH2 0x1077 JUMP JUMPDEST PUSH2 0x109A JUMP JUMPDEST PUSH1 0x3 SSTORE PUSH1 0x40 MLOAD SWAP1 DUP2 MSTORE LOG2 STOP JUMPDEST PUSH1 0x4 CALLDATALOAD SWAP1 PUSH1 0x1 PUSH1 0x1 PUSH1 0xA0 SHL SUB DUP3 AND DUP3 SUB PUSH2 0x253 JUMPI JUMP JUMPDEST PUSH1 0x24 CALLDATALOAD SWAP1 PUSH1 0x1 PUSH1 0x1 PUSH1 0xA0 SHL SUB DUP3 AND DUP3 SUB PUSH2 0x253 JUMPI JUMP JUMPDEST PUSH1 0x0 JUMPDEST DUP4 DUP2 LT PUSH2 0xF5D JUMPI POP POP PUSH1 0x0 SWAP2 ADD MSTORE JUMP JUMPDEST DUP2 DUP2 ADD MLOAD DUP4 DUP3 ADD MSTORE PUSH1 0x20 ADD PUSH2 0xF4D JUMP JUMPDEST SWAP1 PUSH1 0x20 SWAP2 PUSH2 0xF86 DUP2 MLOAD DUP1 SWAP3 DUP2 DUP6 MSTORE DUP6 DUP1 DUP7 ADD SWAP2 ADD PUSH2 0xF4A JUMP JUMPDEST PUSH1 0x1F ADD PUSH1 0x1F NOT AND ADD ADD SWAP1 JUMP JUMPDEST SWAP2 DUP2 PUSH1 0x1F DUP5 ADD SLT ISZERO PUSH2 0x253 JUMPI DUP3 CALLDATALOAD SWAP2 PUSH1 0x1 PUSH1 0x1 PUSH1 0x40 SHL SUB DUP4 GT PUSH2 0x253 JUMPI PUSH1 0x20 DUP4 DUP2 DUP7 ADD SWAP6 ADD ADD GT PUSH2 0x253 JUMPI JUMP JUMPDEST PUSH1 0x24 CALLDATALOAD SWAP1 DUP2 ISZERO ISZERO DUP3 SUB PUSH2 0x253 JUMPI JUMP JUMPDEST PUSH1 0xC0 DUP2 ADD SWAP1 DUP2 LT PUSH1 0x1 PUSH1 0x1 PUSH1 0x40 SHL SUB DUP3 GT OR PUSH2 0x79F JUMPI PUSH1 0x40 MSTORE JUMP JUMPDEST PUSH1 0xE0 DUP2 ADD SWAP1 DUP2 LT PUSH1 0x1 PUSH1 0x1 PUSH1 0x40 SHL SUB DUP3 GT OR PUSH2 0x79F JUMPI PUSH1 0x40 MSTORE JUMP JUMPDEST SWAP1 PUSH1 0x1F DUP1 NOT SWAP2 ADD AND DUP2 ADD SWAP1 DUP2 LT PUSH1 0x1 PUSH1 0x1 PUSH1 0x40 SHL SUB DUP3 GT OR PUSH2 0x79F JUMPI PUSH1 0x40 MSTORE JUMP JUMPDEST PUSH1 0x1 PUSH1 0x1 PUSH1 0x40 SHL SUB DUP2 GT PUSH2 0x79F JUMPI PUSH1 0x1F ADD PUSH1 0x1F NOT AND PUSH1 0x20 ADD SWAP1 JUMP JUMPDEST SWAP3 SWAP2 SWAP3 PUSH2 0x104C DUP3 PUSH2 0x1025 JUMP JUMPDEST SWAP2 PUSH2 0x105A PUSH1 0x40 MLOAD SWAP4 DUP5 PUSH2 0x1004 JUMP JUMPDEST DUP3 SWAP5 DUP2 DUP5 MSTORE DUP2 DUP4 ADD GT PUSH2 0x253 JUMPI DUP3 DUP2 PUSH1 0x20 SWAP4 DUP5 PUSH1 0x0 SWAP7 ADD CALLDATACOPY ADD ADD MSTORE JUMP JUMPDEST SWAP2 SWAP1 DUP3 SUB SWAP2 DUP3 GT PUSH2 0x1084 JUMPI JUMP JUMPDEST PUSH4 0x4E487B71 PUSH1 0xE0 SHL PUSH1 0x0 MSTORE PUSH1 0x11 PUSH1 0x4 MSTORE PUSH1 0x24 PUSH1 0x0 REVERT JUMPDEST SWAP2 SWAP1 DUP3 ADD DUP1 SWAP3 GT PUSH2 0x1084 JUMPI JUMP JUMPDEST SWAP1 PUSH1 0x1 DUP3 DUP2 SHR SWAP3 AND DUP1 ISZERO PUSH2 0x10D7 JUMPI JUMPDEST PUSH1 0x20 DUP4 LT EQ PUSH2 0x10C1 JUMPI JUMP JUMPDEST PUSH4 0x4E487B71 PUSH1 0xE0 SHL PUSH1 0x0 MSTORE PUSH1 0x22 PUSH1 0x4 MSTORE PUSH1 0x24 PUSH1 0x0 REVERT JUMPDEST SWAP2 PUSH1 0x7F AND SWAP2 PUSH2 0x10B6 JUMP JUMPDEST SWAP1 PUSH1 0x40 MLOAD SWAP2 DUP3 PUSH1 0x0 DUP3 SLOAD SWAP3 PUSH2 0x10F5 DUP5 PUSH2 0x10A7 JUMP JUMPDEST DUP1 DUP5 MSTORE SWAP4 PUSH1 0x1 DUP2 AND SWAP1 DUP2 ISZERO PUSH2 0x1163 JUMPI POP PUSH1 0x1 EQ PUSH2 0x111C JUMPI JUMPDEST POP PUSH2 0x111A SWAP3 POP SUB DUP4 PUSH2 0x1004 JUMP JUMPDEST JUMP JUMPDEST SWAP1 POP PUSH1 0x0 SWAP3 SWAP2 SWAP3 MSTORE PUSH1 0x20 PUSH1 0x0 KECCAK256 SWAP1 PUSH1 0x0 SWAP2 JUMPDEST DUP2 DUP4 LT PUSH2 0x1147 JUMPI POP POP SWAP1 PUSH1 0x20 PUSH2 0x111A SWAP3 DUP3 ADD ADD CODESIZE PUSH2 0x110D JUMP JUMPDEST PUSH1 0x20 SWAP2 SWAP4 POP DUP1 PUSH1 0x1 SWAP2 SLOAD DUP4 DUP6 DUP10 ADD ADD MSTORE ADD SWAP2 ADD SWAP1 SWAP2 DUP5 SWAP3 PUSH2 0x112E JUMP JUMPDEST SWAP1 POP PUSH1 0x20 SWAP3 POP PUSH2 0x111A SWAP5 SWAP2 POP PUSH1 0xFF NOT AND DUP3 DUP5 ADD MSTORE ISZERO ISZERO PUSH1 0x5 SHL DUP3 ADD ADD CODESIZE PUSH2 0x110D JUMP JUMPDEST DUP1 MLOAD DUP3 LT ISZERO PUSH2 0x1199 JUMPI PUSH1 0x20 SWAP2 PUSH1 0x5 SHL ADD ADD SWAP1 JUMP JUMPDEST PUSH4 0x4E487B71 PUSH1 0xE0 SHL PUSH1 0x0 MSTORE PUSH1 0x32 PUSH1 0x4 MSTORE PUSH1 0x24 PUSH1 0x0 REVERT JUMPDEST PUSH1 0x0 MSTORE PUSH1 0x4 PUSH1 0x20 MSTORE PUSH1 0x40 PUSH1 0x0 KECCAK256 DUP1 SLOAD PUSH1 0x1 PUSH1 0x1 PUSH1 0x40 SHL SUB DUP2 GT PUSH2 0x79F JUMPI PUSH1 0x40 MLOAD SWAP2 PUSH2 0x11E0 PUSH1 0x20 DUP4 PUSH1 0x5 SHL ADD DUP5 PUSH2 0x1004 JUMP JUMPDEST DUP2 DUP4 MSTORE PUSH1 0x20 DUP4 ADD SWAP1 PUSH1 0x0 MSTORE PUSH1 0x20 PUSH1 0x0 KECCAK256 PUSH1 0x0 SWAP2 JUMPDEST DUP4 DUP4 LT PUSH2 0x1252 JUMPI POP POP POP POP PUSH1 0x0 JUMPDEST DUP2 MLOAD DUP2 LT ISZERO PUSH2 0x124A JUMPI PUSH1 0x1 PUSH1 0x1 PUSH1 0xA0 SHL SUB PUSH2 0x121D DUP3 DUP5 PUSH2 0x1185 JUMP JUMPDEST MLOAD MLOAD AND PUSH1 0x1 PUSH1 0x1 PUSH1 0xA0 SHL SUB DUP5 AND EQ PUSH2 0x1237 JUMPI PUSH1 0x1 ADD PUSH2 0x1202 JUMP JUMPDEST PUSH1 0x80 SWAP3 POP PUSH2 0x1244 SWAP2 PUSH2 0x1185 JUMP JUMPDEST MLOAD ADD MLOAD SWAP1 JUMP JUMPDEST POP POP POP PUSH1 0x0 SWAP1 JUMP JUMPDEST PUSH1 0x5 PUSH1 0x20 PUSH1 0x1 SWAP3 PUSH1 0x40 MLOAD PUSH2 0x1265 DUP2 PUSH2 0xFCE JUMP JUMPDEST PUSH1 0xFF DUP7 SLOAD DUP7 DUP1 PUSH1 0xA0 SHL SUB DUP2 AND DUP4 MSTORE PUSH1 0xA0 SHR AND ISZERO ISZERO DUP4 DUP3 ADD MSTORE PUSH2 0x1288 DUP6 DUP8 ADD PUSH2 0x10E1 JUMP JUMPDEST PUSH1 0x40 DUP3 ADD MSTORE PUSH2 0x1299 PUSH1 0x2 DUP8 ADD PUSH2 0x10E1 JUMP JUMPDEST PUSH1 0x60 DUP3 ADD MSTORE PUSH1 0x3 DUP7 ADD SLOAD PUSH1 0x80 DUP3 ADD MSTORE PUSH1 0x4 DUP7 ADD SLOAD PUSH1 0xA0 DUP3 ADD MSTORE DUP2 MSTORE ADD SWAP3 ADD SWAP3 ADD SWAP2 SWAP1 PUSH2 0x11F4 JUMP JUMPDEST PUSH1 0x0 MSTORE PUSH1 0x0 PUSH1 0x20 MSTORE PUSH1 0x40 PUSH1 0x0 KECCAK256 SWAP1 PUSH1 0x40 MLOAD SWAP1 PUSH2 0x12DB DUP3 PUSH2 0xFE9 JUMP JUMPDEST DUP3 SLOAD DUP3 MSTORE PUSH1 0x1 DUP4 ADD SLOAD PUSH1 0x1 PUSH1 0x1 PUSH1 0xA0 SHL SUB AND PUSH1 0x20 DUP4 ADD SWAP1 DUP2 MSTORE PUSH2 0x1300 PUSH1 0x2 DUP6 ADD PUSH2 0x10E1 JUMP JUMPDEST PUSH1 0x40 DUP5 ADD MSTORE PUSH1 0xFF PUSH1 0x3 DUP6 ADD SLOAD AND PUSH1 0x60 DUP5 ADD SWAP1 ISZERO ISZERO DUP2 MSTORE PUSH2 0x1322 PUSH1 0x4 DUP7 ADD PUSH2 0x10E1 JUMP JUMPDEST SWAP2 PUSH1 0x80 DUP6 ADD SWAP3 DUP4 MSTORE PUSH1 0xC0 PUSH2 0x1349 PUSH1 0x6 PUSH1 0xFF PUSH1 0x5 DUP11 ADD SLOAD AND SWAP9 PUSH1 0xA0 DUP10 ADD SWAP10 ISZERO ISZERO DUP11 MSTORE ADD PUSH2 0x10E1 JUMP JUMPDEST SWAP6 ADD SWAP5 DUP6 MSTORE MLOAD PUSH1 0x1 PUSH1 0x1 PUSH1 0xA0 SHL SUB AND ISZERO SWAP1 DUP2 ISZERO PUSH2 0x13A6 JUMPI JUMPDEST POP PUSH2 0x1374 JUMPI MLOAD SWAP3 MLOAD SWAP2 MLOAD PUSH1 0x1 SWAP4 SWAP3 ISZERO ISZERO SWAP2 JUMP JUMPDEST POP SWAP2 POP POP PUSH1 0x0 SWAP1 PUSH1 0x40 MLOAD PUSH2 0x1389 PUSH1 0x20 DUP3 PUSH2 0x1004 JUMP JUMPDEST PUSH1 0x0 DUP2 MSTORE SWAP1 PUSH1 0x0 SWAP1 PUSH1 0x40 MLOAD PUSH2 0x139F PUSH1 0x20 DUP3 PUSH2 0x1004 JUMP JUMPDEST PUSH1 0x0 DUP2 MSTORE SWAP1 JUMP JUMPDEST SWAP1 POP MLOAD ISZERO CODESIZE PUSH2 0x1361 JUMP JUMPDEST DUP2 DUP2 MUL SWAP3 SWAP2 DUP2 ISZERO SWAP2 DUP5 DIV EQ OR ISZERO PUSH2 0x1084 JUMPI JUMP JUMPDEST PUSH1 0x1F DUP3 GT PUSH2 0x13D0 JUMPI POP POP POP JUMP JUMPDEST PUSH1 0x0 MSTORE PUSH1 0x20 PUSH1 0x0 KECCAK256 SWAP1 PUSH1 0x20 PUSH1 0x1F DUP5 ADD PUSH1 0x5 SHR DUP4 ADD SWAP4 LT PUSH2 0x140B JUMPI JUMPDEST PUSH1 0x1F ADD PUSH1 0x5 SHR ADD SWAP1 JUMPDEST DUP2 DUP2 LT PUSH2 0x13FF JUMPI POP POP JUMP JUMPDEST PUSH1 0x0 DUP2 SSTORE PUSH1 0x1 ADD PUSH2 0x13F4 JUMP JUMPDEST SWAP1 SWAP2 POP DUP2 SWAP1 PUSH2 0x13EB JUMP JUMPDEST SWAP1 DUP1 PUSH1 0x20 SWAP4 SWAP3 DUP2 DUP5 MSTORE DUP5 DUP5 ADD CALLDATACOPY PUSH1 0x0 DUP3 DUP3 ADD DUP5 ADD MSTORE PUSH1 0x1F ADD PUSH1 0x1F NOT AND ADD ADD SWAP1 JUMP JUMPDEST DUP2 PUSH1 0x1F DUP3 ADD SLT ISZERO PUSH2 0x253 JUMPI DUP1 MLOAD PUSH2 0x144C DUP2 PUSH2 0x1025 JUMP JUMPDEST SWAP3 PUSH2 0x145A PUSH1 0x40 MLOAD SWAP5 DUP6 PUSH2 0x1004 JUMP JUMPDEST DUP2 DUP5 MSTORE PUSH1 0x20 DUP3 DUP5 ADD ADD GT PUSH2 0x253 JUMPI PUSH2 0x1478 SWAP2 PUSH1 0x20 DUP1 DUP6 ADD SWAP2 ADD PUSH2 0xF4A JUMP JUMPDEST SWAP1 JUMP JUMPDEST SWAP2 SWAP1 SWAP2 PUSH1 0x40 DUP2 DUP5 SUB SLT PUSH2 0x253 JUMPI DUP1 MLOAD PUSH1 0x1 PUSH1 0x1 PUSH1 0x40 SHL SUB DUP2 GT PUSH2 0x253 JUMPI DUP4 PUSH2 0x14A4 SWAP2 DUP4 ADD PUSH2 0x1436 JUMP JUMPDEST SWAP3 PUSH1 0x20 DUP3 ADD MLOAD PUSH1 0x1 PUSH1 0x1 PUSH1 0x40 SHL SUB DUP2 GT PUSH2 0x253 JUMPI PUSH2 0x1478 SWAP3 ADD PUSH2 0x1436 JUMP JUMPDEST DUP1 SLOAD DUP3 LT ISZERO PUSH2 0x1199 JUMPI PUSH1 0x0 MSTORE PUSH1 0x5 PUSH1 0x20 PUSH1 0x0 KECCAK256 SWAP2 MUL ADD SWAP1 PUSH1 0x0 SWAP1 JUMP JUMPDEST PUSH1 0x40 MLOAD SWAP1 PUSH2 0x14ED PUSH1 0x40 DUP4 PUSH2 0x1004 JUMP JUMPDEST PUSH1 0x3 DUP3 MSTORE PUSH3 0x594553 PUSH1 0xE8 SHL PUSH1 0x20 DUP4 ADD MSTORE JUMP JUMPDEST SWAP10 SWAP8 SWAP2 SWAP4 SWAP5 SWAP6 SWAP7 SWAP10 PUSH2 0x120 MSTORE PUSH1 0xC0 MSTORE PUSH2 0x120 MLOAD PUSH1 0x0 MSTORE PUSH1 0x0 PUSH1 0x20 MSTORE PUSH1 0x40 PUSH1 0x0 KECCAK256 SWAP9 PUSH1 0x1 DUP1 PUSH1 0xA0 SHL SUB PUSH1 0x1 DUP12 ADD SLOAD AND ISZERO PUSH2 0x2002 JUMPI PUSH1 0xFF PUSH1 0x3 DUP12 ADD SLOAD AND PUSH2 0x15B0 JUMPI PUSH1 0x1 PUSH1 0x1 PUSH1 0xA0 SHL SUB DUP10 AND PUSH1 0x0 SWAP1 DUP2 MSTORE PUSH1 0x2 PUSH1 0x20 MSTORE PUSH1 0x40 SWAP1 KECCAK256 SLOAD SWAP2 DUP3 ISZERO PUSH2 0xA1A JUMPI PUSH1 0x0 JUMPDEST PUSH2 0x120 MLOAD PUSH1 0x0 MSTORE PUSH1 0x4 PUSH1 0x20 MSTORE PUSH1 0x40 PUSH1 0x0 KECCAK256 SLOAD DUP2 LT ISZERO PUSH2 0x15C1 JUMPI PUSH2 0x120 MLOAD PUSH1 0x0 MSTORE PUSH1 0x4 PUSH1 0x20 MSTORE PUSH2 0x1594 DUP2 PUSH1 0x40 PUSH1 0x0 KECCAK256 PUSH2 0x14C2 JUMP JUMPDEST POP SLOAD PUSH1 0x1 PUSH1 0x1 PUSH1 0xA0 SHL SUB DUP13 DUP2 AND SWAP2 AND EQ PUSH2 0x15B0 JUMPI PUSH1 0x1 ADD PUSH2 0x1561 JUMP JUMPDEST PUSH4 0x4A4117F9 PUSH1 0xE0 SHL PUSH1 0x0 MSTORE PUSH1 0x4 PUSH1 0x0 REVERT JUMPDEST POP SWAP1 SWAP2 SWAP3 SWAP5 SWAP7 SWAP9 SWAP4 SWAP6 SWAP8 SWAP10 PUSH1 0x2 PUSH2 0x15D8 SWAP2 ADD PUSH2 0x10E1 JUMP JUMPDEST PUSH1 0x40 PUSH2 0x160 DUP2 SWAP1 MSTORE DUP1 MLOAD SWAP2 SWAP11 SWAP2 SWAP1 PUSH2 0x15F0 SWAP1 DUP3 PUSH2 0x1004 JUMP JUMPDEST PUSH1 0xE DUP2 MSTORE PUSH14 0x64656661756C742D736F75726365 PUSH1 0x90 SHL PUSH1 0x20 DUP3 ADD MSTORE PUSH2 0x1A0 MSTORE PUSH2 0x160 MLOAD DUP1 MLOAD SWAP1 PUSH2 0x1620 SWAP1 DUP3 PUSH2 0x1004 JUMP JUMPDEST PUSH1 0xD DUP2 MSTORE PUSH13 0x64656661756C742D6C6F676963 PUSH1 0x98 SHL PUSH1 0x20 DUP3 ADD MSTORE SWAP10 DUP1 MLOAD PUSH2 0x1F86 JUMPI JUMPDEST POP PUSH1 0x0 PUSH1 0xE0 MSTORE PUSH1 0xC0 MLOAD ISZERO PUSH2 0x1F5E JUMPI PUSH2 0x1658 PUSH2 0x14DE JUMP JUMPDEST PUSH1 0xE0 MSTORE JUMPDEST PUSH2 0x160 MLOAD DUP1 MLOAD PUSH2 0x1C0 DUP2 SWAP1 MSTORE PUSH2 0x1672 SWAP2 SWAP1 PUSH2 0x1004 JUMP JUMPDEST PUSH1 0x20 PUSH2 0x1C0 MLOAD MSTORE PUSH1 0x1F NOT PUSH2 0x160 MLOAD ADD CALLDATASIZE PUSH1 0x20 PUSH2 0x1C0 MLOAD ADD CALLDATACOPY PUSH1 0x0 PUSH2 0x180 MSTORE JUMPDEST PUSH2 0x1A0 MLOAD MLOAD PUSH2 0x180 MLOAD LT DUP1 PUSH2 0x1F51 JUMPI JUMPDEST ISZERO PUSH2 0x16ED JUMPI PUSH1 0xFF PUSH1 0xF8 SHL PUSH2 0x16BB PUSH2 0x180 MLOAD PUSH2 0x1A0 MLOAD PUSH2 0x2396 JUMP JUMPDEST MLOAD AND PUSH1 0x0 BYTE PUSH2 0x16D0 PUSH2 0x180 MLOAD PUSH2 0x1C0 MLOAD PUSH2 0x2396 JUMP JUMPDEST MSTORE8 PUSH2 0x180 MLOAD PUSH1 0x0 NOT EQ PUSH2 0x1084 JUMPI PUSH1 0x1 PUSH2 0x180 MLOAD ADD PUSH2 0x180 MSTORE PUSH2 0x1691 JUMP JUMPDEST PUSH2 0x160 MLOAD MLOAD PUSH1 0x0 PUSH1 0x20 DUP3 ADD MSTORE DUP3 PUSH2 0x160 MLOAD DUP3 ADD MSTORE PUSH2 0x160 MLOAD DUP2 MSTORE PUSH2 0x1712 PUSH1 0x60 DUP3 PUSH2 0x1004 JUMP JUMPDEST PUSH2 0x160 MLOAD MLOAD PUSH2 0x140 MSTORE PUSH2 0x172B PUSH2 0x160 MLOAD PUSH2 0x140 MLOAD PUSH2 0x1004 JUMP JUMPDEST PUSH1 0x20 PUSH2 0x140 MLOAD MSTORE PUSH1 0x1F NOT PUSH2 0x160 MLOAD ADD CALLDATASIZE PUSH1 0x20 PUSH2 0x140 MLOAD ADD CALLDATACOPY PUSH1 0x0 JUMPDEST PUSH1 0x20 DUP2 LT PUSH2 0x1F15 JUMPI POP POP DUP10 MLOAD PUSH2 0x160 MLOAD MLOAD SWAP1 PUSH1 0x0 PUSH1 0x20 DUP4 ADD MSTORE PUSH2 0x160 MLOAD DUP3 ADD MSTORE PUSH2 0x160 MLOAD DUP2 MSTORE PUSH2 0x1777 PUSH1 0x60 DUP3 PUSH2 0x1004 JUMP JUMPDEST PUSH2 0x160 MLOAD MLOAD SWAP1 PUSH2 0x178A PUSH2 0x160 MLOAD DUP4 PUSH2 0x1004 JUMP JUMPDEST PUSH1 0x20 DUP3 MSTORE PUSH1 0x1F NOT PUSH2 0x160 MLOAD ADD CALLDATASIZE PUSH1 0x20 DUP5 ADD CALLDATACOPY PUSH1 0x0 JUMPDEST PUSH1 0x20 DUP2 LT PUSH2 0x1EDC JUMPI POP POP PUSH1 0xE0 MLOAD MLOAD PUSH2 0x100 MSTORE PUSH1 0x1 PUSH2 0x100 MLOAD ADD PUSH2 0x100 MLOAD GT PUSH2 0x1084 JUMPI PUSH2 0x17E3 PUSH2 0x17D3 PUSH1 0x1 PUSH2 0x100 MLOAD ADD PUSH2 0x1025 JUMP JUMPDEST PUSH2 0x160 MLOAD MLOAD PUSH1 0xA0 MSTORE PUSH1 0xA0 MLOAD PUSH2 0x1004 JUMP JUMPDEST PUSH1 0x1 PUSH2 0x100 MLOAD ADD PUSH1 0xA0 MLOAD MSTORE PUSH1 0xA0 MLOAD POP PUSH2 0x1801 PUSH1 0x1 PUSH2 0x100 MLOAD ADD PUSH2 0x1025 JUMP JUMPDEST PUSH1 0x1F NOT ADD CALLDATASIZE PUSH1 0x20 PUSH1 0xA0 MLOAD ADD CALLDATACOPY PUSH1 0x0 JUMPDEST PUSH1 0xE0 MLOAD MLOAD DUP2 LT ISZERO PUSH2 0x1847 JUMPI PUSH1 0x1 SWAP1 PUSH1 0xFF PUSH1 0xF8 SHL PUSH2 0x182F DUP3 PUSH1 0xE0 MLOAD PUSH2 0x2396 JUMP JUMPDEST MLOAD AND PUSH1 0x0 BYTE PUSH2 0x1840 DUP3 PUSH1 0xA0 MLOAD PUSH2 0x2396 JUMP JUMPDEST MSTORE8 ADD PUSH2 0x1810 JUMP JUMPDEST POP PUSH1 0x20 PUSH2 0x18E0 PUSH1 0x0 SWAP3 DUP3 PUSH2 0x191C SWAP6 SWAP7 SWAP8 SWAP9 SWAP10 SWAP11 SWAP12 SWAP13 SWAP14 SWAP15 PUSH2 0x18BB PUSH2 0x160 MLOAD MLOAD SWAP6 DUP7 SWAP5 PUSH2 0x18AD DUP3 PUSH2 0x1C0 MLOAD MLOAD PUSH2 0x1884 DUP2 DUP4 DUP12 ADD DUP5 PUSH2 0x1C0 MLOAD ADD PUSH2 0xF4A JUMP JUMPDEST DUP9 ADD PUSH2 0x140 MLOAD MLOAD SWAP1 PUSH2 0x189E DUP3 DUP5 DUP4 ADD DUP6 PUSH2 0x140 MLOAD ADD PUSH2 0xF4A JUMP JUMPDEST ADD ADD SWAP2 DUP3 DUP2 MLOAD SWAP5 DUP6 SWAP3 ADD PUSH2 0xF4A JUMP JUMPDEST ADD SWAP2 DUP3 DUP2 MLOAD SWAP5 DUP6 SWAP3 ADD PUSH2 0xF4A JUMP JUMPDEST ADD PUSH1 0xA0 MLOAD MLOAD SWAP1 PUSH2 0x18D1 DUP3 DUP3 PUSH1 0x20 PUSH1 0xA0 MLOAD ADD PUSH2 0xF4A JUMP JUMPDEST ADD SUB PUSH1 0x1F NOT DUP2 ADD DUP4 MSTORE DUP3 PUSH2 0x1004 JUMP JUMPDEST PUSH2 0x160 MLOAD MLOAD DUP1 SWAP4 DUP2 SWAP3 PUSH4 0x7BF41D77 PUSH1 0xE1 SHL DUP4 MSTORE PUSH2 0x160 MLOAD PUSH1 0x4 DUP5 ADD MSTORE PUSH2 0x190A PUSH1 0x44 DUP5 ADD DUP11 DUP10 PUSH2 0x1415 JUMP JUMPDEST DUP4 DUP2 SUB PUSH1 0x3 NOT ADD PUSH1 0x24 DUP6 ADD MSTORE SWAP1 PUSH2 0xF6D JUMP JUMPDEST SUB DUP2 PUSH32 0x0 PUSH1 0x1 PUSH1 0x1 PUSH1 0xA0 SHL SUB AND GAS STATICCALL SWAP1 DUP2 ISZERO PUSH2 0x1ECE JUMPI PUSH1 0x0 SWAP1 DUP2 SWAP3 PUSH2 0x1E74 JUMPI JUMPDEST POP ISZERO PUSH2 0x1E64 JUMPI PUSH1 0x20 DUP2 MLOAD SWAP2 ADD KECCAK256 PUSH2 0x1970 PUSH2 0x14DE JUMP JUMPDEST PUSH1 0x20 DUP2 MLOAD SWAP2 ADD KECCAK256 EQ PUSH1 0xC0 MLOAD ISZERO ISZERO PUSH1 0x80 MSTORE PUSH1 0x80 MLOAD SUB PUSH2 0x1E54 JUMPI PUSH2 0x1993 CALLDATASIZE DUP5 DUP4 PUSH2 0x1040 JUMP JUMPDEST PUSH1 0x20 DUP2 MLOAD SWAP2 ADD KECCAK256 SWAP3 PUSH2 0x120 MLOAD PUSH1 0x0 MSTORE PUSH1 0x7 PUSH1 0x20 MSTORE PUSH2 0x160 MLOAD PUSH1 0x0 KECCAK256 PUSH1 0x0 SWAP1 PUSH1 0x1 DUP1 PUSH1 0xA0 SHL SUB DUP9 AND DUP3 MSTORE PUSH1 0x20 MSTORE PUSH2 0x160 MLOAD SWAP1 KECCAK256 SWAP2 PUSH1 0x1 PUSH1 0x1 PUSH1 0x40 SHL SUB DUP3 GT PUSH2 0x79F JUMPI PUSH2 0x19E2 DUP3 PUSH2 0x598 DUP6 SLOAD PUSH2 0x10A7 JUMP JUMPDEST PUSH1 0x0 SWAP1 PUSH1 0x1F DUP4 GT PUSH1 0x1 EQ PUSH2 0x1DF0 JUMPI PUSH2 0x1A12 SWAP3 SWAP2 PUSH1 0x0 SWAP2 DUP4 PUSH2 0x1DE5 JUMPI POP POP DUP2 PUSH1 0x1 SHL SWAP2 PUSH1 0x0 NOT SWAP1 PUSH1 0x3 SHL SHR NOT AND OR SWAP1 JUMP JUMPDEST SWAP1 SSTORE JUMPDEST PUSH2 0x120 MLOAD PUSH1 0x0 MSTORE PUSH1 0x4 PUSH1 0x20 MSTORE PUSH2 0x160 MLOAD PUSH1 0x0 KECCAK256 SWAP2 PUSH2 0x160 MLOAD MLOAD SWAP2 PUSH2 0x1A38 DUP4 PUSH2 0xFCE JUMP JUMPDEST PUSH1 0x1 PUSH1 0x1 PUSH1 0xA0 SHL SUB DUP7 AND DUP4 MSTORE PUSH1 0x80 MLOAD PUSH1 0x20 DUP5 ADD SWAP1 DUP2 MSTORE SWAP4 PUSH2 0x1A5A CALLDATASIZE DUP10 DUP12 PUSH2 0x1040 JUMP JUMPDEST SWAP2 PUSH2 0x160 MLOAD DUP6 ADD SWAP3 DUP4 MSTORE PUSH2 0x1A6F CALLDATASIZE DUP14 DUP14 PUSH2 0x1040 JUMP JUMPDEST SWAP4 PUSH1 0x60 DUP7 ADD SWAP5 DUP6 MSTORE PUSH1 0x80 DUP7 ADD MSTORE PUSH1 0xA0 DUP6 ADD MSTORE DUP1 SLOAD PUSH9 0x10000000000000000 DUP2 LT ISZERO PUSH2 0x79F JUMPI PUSH2 0x1AA3 SWAP2 PUSH1 0x1 DUP3 ADD DUP2 SSTORE PUSH2 0x14C2 JUMP JUMPDEST SWAP5 SWAP1 SWAP5 PUSH2 0x1DCF JUMPI DUP4 MLOAD DUP6 SLOAD SWAP2 MLOAD PUSH1 0x1 PUSH1 0x1 PUSH1 0xA8 SHL SUB NOT SWAP1 SWAP3 AND PUSH1 0x1 PUSH1 0x1 PUSH1 0xA0 SHL SUB SWAP2 SWAP1 SWAP2 AND OR SWAP1 ISZERO ISZERO PUSH1 0xA0 SHL PUSH1 0xFF PUSH1 0xA0 SHL AND OR DUP5 SSTORE MLOAD DUP1 MLOAD PUSH1 0x1 DUP6 ADD SWAP2 PUSH1 0x1 PUSH1 0x1 PUSH1 0x40 SHL SUB DUP3 GT PUSH2 0x79F JUMPI PUSH2 0x1AFC DUP3 PUSH2 0x598 DUP6 SLOAD PUSH2 0x10A7 JUMP JUMPDEST PUSH1 0x20 SWAP1 PUSH1 0x1F DUP4 GT PUSH1 0x1 EQ PUSH2 0x1D68 JUMPI PUSH2 0x1B2C SWAP3 SWAP2 PUSH1 0x0 SWAP2 DUP4 PUSH2 0x1CC7 JUMPI POP POP DUP2 PUSH1 0x1 SHL SWAP2 PUSH1 0x0 NOT SWAP1 PUSH1 0x3 SHL SHR NOT AND OR SWAP1 JUMP JUMPDEST SWAP1 SSTORE JUMPDEST MLOAD DUP1 MLOAD PUSH1 0x2 DUP5 ADD SWAP2 PUSH1 0x1 PUSH1 0x1 PUSH1 0x40 SHL SUB DUP3 GT PUSH2 0x79F JUMPI PUSH2 0x1B53 DUP3 PUSH2 0x598 DUP6 SLOAD PUSH2 0x10A7 JUMP JUMPDEST PUSH1 0x20 SWAP1 PUSH1 0x1F DUP4 GT PUSH1 0x1 EQ PUSH2 0x1CD2 JUMPI SWAP4 PUSH32 0x4164D38FCC30943A577283F30908D604D84A89A2E856B65B3329632355355805 SWAP10 SWAP9 SWAP8 SWAP6 SWAP4 PUSH2 0x1BB3 DUP5 PUSH1 0x4 SWAP6 PUSH1 0xA0 SWAP6 PUSH2 0x1C34 SWAP12 SWAP10 PUSH1 0x0 SWAP3 PUSH2 0x1CC7 JUMPI POP POP DUP2 PUSH1 0x1 SHL SWAP2 PUSH1 0x0 NOT SWAP1 PUSH1 0x3 SHL SHR NOT AND OR SWAP1 JUMP JUMPDEST SWAP1 SSTORE JUMPDEST PUSH1 0x80 DUP2 ADD MLOAD PUSH1 0x3 DUP6 ADD SSTORE ADD MLOAD SWAP2 ADD SSTORE PUSH2 0x120 MLOAD PUSH1 0x0 MSTORE PUSH1 0x5 PUSH1 0x20 MSTORE PUSH2 0x160 MLOAD PUSH1 0x0 KECCAK256 PUSH1 0x80 MLOAD PUSH1 0x0 MSTORE PUSH1 0x20 MSTORE PUSH2 0x1BF3 PUSH2 0x160 MLOAD PUSH1 0x0 KECCAK256 SWAP2 DUP3 SLOAD PUSH2 0x109A JUMP JUMPDEST SWAP1 SSTORE PUSH2 0x1C16 PUSH2 0x160 MLOAD MLOAD SWAP5 DUP6 SWAP5 PUSH1 0x80 MLOAD DUP7 MSTORE PUSH1 0x60 PUSH1 0x20 DUP8 ADD MSTORE PUSH1 0x60 DUP7 ADD SWAP2 PUSH2 0x1415 JUMP JUMPDEST SWAP1 DUP4 DUP3 SUB PUSH2 0x160 MLOAD DUP6 ADD MSTORE PUSH1 0x1 DUP1 PUSH1 0xA0 SHL SUB AND SWAP7 PUSH2 0x120 MLOAD SWAP7 PUSH2 0x1415 JUMP JUMPDEST SUB SWAP1 LOG3 PUSH2 0x120 MLOAD PUSH1 0x0 MSTORE PUSH1 0x5 PUSH1 0x20 MSTORE PUSH2 0x160 MLOAD PUSH1 0x0 KECCAK256 PUSH1 0x80 MLOAD PUSH1 0x0 MSTORE PUSH1 0x20 MSTORE PUSH2 0x160 MLOAD PUSH1 0x0 KECCAK256 SLOAD PUSH1 0x3 SLOAD PUSH1 0x64 PUSH2 0x1C6C PUSH1 0x6 SLOAD DUP4 PUSH2 0x13B0 JUMP JUMPDEST DIV DUP3 LT ISZERO SWAP1 DUP2 PUSH2 0x1CBD JUMPI JUMPDEST POP PUSH2 0x1C7F JUMPI POP JUMP JUMPDEST PUSH2 0x160 MLOAD MLOAD SWAP1 PUSH1 0x80 MLOAD DUP3 MSTORE PUSH1 0x20 DUP3 ADD MSTORE PUSH32 0x4788C192B43B1EAA29D531808A78165D3487D939B8246058F5AD10D22FC2BD0D PUSH2 0x120 MLOAD SWAP2 PUSH2 0x160 MLOAD SWAP1 LOG2 JUMP JUMPDEST SWAP1 POP ISZERO ISZERO CODESIZE PUSH2 0x1C77 JUMP JUMPDEST ADD MLOAD SWAP1 POP CODESIZE DUP1 PUSH2 0x5C1 JUMP JUMPDEST SWAP1 PUSH1 0x1F NOT DUP4 AND SWAP2 DUP5 PUSH1 0x0 MSTORE DUP2 PUSH1 0x0 KECCAK256 SWAP3 PUSH1 0x0 JUMPDEST DUP2 DUP2 LT PUSH2 0x1D50 JUMPI POP DUP5 PUSH1 0xA0 SWAP5 PUSH2 0x1C34 SWAP11 SWAP9 SWAP5 PUSH32 0x4164D38FCC30943A577283F30908D604D84A89A2E856B65B3329632355355805 SWAP15 SWAP14 SWAP13 SWAP11 SWAP9 SWAP5 PUSH1 0x4 SWAP9 PUSH1 0x1 SWAP6 LT PUSH2 0x1D37 JUMPI JUMPDEST POP POP POP DUP2 SHL ADD SWAP1 SSTORE PUSH2 0x1BB6 JUMP JUMPDEST ADD MLOAD PUSH1 0x0 NOT PUSH1 0xF8 DUP5 PUSH1 0x3 SHL AND SHR NOT AND SWAP1 SSTORE CODESIZE DUP1 DUP1 PUSH2 0x1D2A JUMP JUMPDEST SWAP3 SWAP4 PUSH1 0x20 PUSH1 0x1 DUP2 SWAP3 DUP8 DUP7 ADD MLOAD DUP2 SSTORE ADD SWAP6 ADD SWAP4 ADD PUSH2 0x1CE5 JUMP JUMPDEST SWAP1 PUSH1 0x1F NOT DUP4 AND SWAP2 DUP5 PUSH1 0x0 MSTORE DUP2 PUSH1 0x0 KECCAK256 SWAP3 PUSH1 0x0 JUMPDEST DUP2 DUP2 LT PUSH2 0x1DB7 JUMPI POP SWAP1 DUP5 PUSH1 0x1 SWAP6 SWAP5 SWAP4 SWAP3 LT PUSH2 0x1D9E JUMPI JUMPDEST POP POP POP DUP2 SHL ADD SWAP1 SSTORE PUSH2 0x1B2F JUMP JUMPDEST ADD MLOAD PUSH1 0x0 NOT PUSH1 0xF8 DUP5 PUSH1 0x3 SHL AND SHR NOT AND SWAP1 SSTORE CODESIZE DUP1 DUP1 PUSH2 0x1D91 JUMP JUMPDEST SWAP3 SWAP4 PUSH1 0x20 PUSH1 0x1 DUP2 SWAP3 DUP8 DUP7 ADD MLOAD DUP2 SSTORE ADD SWAP6 ADD SWAP4 ADD PUSH2 0x1D7B JUMP JUMPDEST PUSH4 0x4E487B71 PUSH1 0xE0 SHL PUSH1 0x0 MSTORE PUSH1 0x0 PUSH1 0x4 MSTORE PUSH1 0x24 PUSH1 0x0 REVERT JUMPDEST ADD CALLDATALOAD SWAP1 POP CODESIZE DUP1 PUSH2 0x5C1 JUMP JUMPDEST DUP4 DUP3 MSTORE PUSH1 0x20 DUP3 KECCAK256 SWAP2 PUSH1 0x1F NOT DUP5 AND DUP2 JUMPDEST DUP2 DUP2 LT PUSH2 0x1E3C JUMPI POP SWAP1 DUP5 PUSH1 0x1 SWAP6 SWAP5 SWAP4 SWAP3 LT PUSH2 0x1E22 JUMPI JUMPDEST POP POP POP DUP2 SHL ADD SWAP1 SSTORE PUSH2 0x1A15 JUMP JUMPDEST ADD CALLDATALOAD PUSH1 0x0 NOT PUSH1 0x3 DUP5 SWAP1 SHL PUSH1 0xF8 AND SHR NOT AND SWAP1 SSTORE CODESIZE DUP1 DUP1 PUSH2 0x1E15 JUMP JUMPDEST SWAP2 SWAP4 PUSH1 0x20 PUSH1 0x1 DUP2 SWAP3 DUP8 DUP8 ADD CALLDATALOAD DUP2 SSTORE ADD SWAP6 ADD SWAP3 ADD PUSH2 0x1DFF JUMP JUMPDEST SWAP1 POP PUSH2 0xB4C SWAP3 DUP5 PUSH2 0x120 MLOAD PUSH2 0x23A7 JUMP JUMPDEST PUSH2 0xB4C DUP5 DUP4 DUP8 DUP10 PUSH2 0x120 MLOAD PUSH2 0x23A7 JUMP JUMPDEST SWAP2 POP RETURNDATASIZE DUP1 DUP3 DUP5 RETURNDATACOPY PUSH2 0x1E85 DUP2 DUP5 PUSH2 0x1004 JUMP JUMPDEST DUP3 ADD SWAP1 PUSH2 0x160 MLOAD DUP4 DUP4 SUB SLT PUSH2 0x1EC7 JUMPI DUP3 MLOAD SWAP3 DUP4 ISZERO ISZERO DUP5 SUB PUSH2 0x1ECA JUMPI PUSH1 0x20 DUP2 ADD MLOAD SWAP2 PUSH1 0x1 PUSH1 0x1 PUSH1 0x40 SHL SUB DUP4 GT PUSH2 0x1EC7 JUMPI POP PUSH2 0x1EC0 SWAP3 SWAP2 ADD PUSH2 0x1436 JUMP JUMPDEST SWAP1 CODESIZE PUSH2 0x195B JUMP JUMPDEST DUP1 REVERT JUMPDEST POP DUP1 REVERT JUMPDEST PUSH2 0x160 MLOAD MLOAD RETURNDATASIZE PUSH1 0x0 DUP3 RETURNDATACOPY RETURNDATASIZE SWAP1 REVERT JUMPDEST PUSH1 0x20 DUP2 ADD SWAP1 DUP2 DUP2 GT PUSH2 0x1084 JUMPI PUSH1 0x1 SWAP2 PUSH1 0x1 PUSH1 0x1 PUSH1 0xF8 SHL SUB NOT SWAP1 PUSH2 0x1EFF SWAP1 DUP6 PUSH2 0x2396 JUMP JUMPDEST MLOAD AND PUSH1 0x0 BYTE PUSH2 0x1F0E DUP3 DUP7 PUSH2 0x2396 JUMP JUMPDEST MSTORE8 ADD PUSH2 0x179F JUMP JUMPDEST PUSH1 0x20 DUP2 ADD SWAP1 DUP2 DUP2 GT PUSH2 0x1084 JUMPI PUSH1 0x1 SWAP2 PUSH1 0x1 PUSH1 0x1 PUSH1 0xF8 SHL SUB NOT SWAP1 PUSH2 0x1F38 SWAP1 DUP6 PUSH2 0x2396 JUMP JUMPDEST MLOAD AND PUSH1 0x0 BYTE PUSH2 0x1F4A DUP3 PUSH2 0x140 MLOAD PUSH2 0x2396 JUMP JUMPDEST MSTORE8 ADD PUSH2 0x1746 JUMP JUMPDEST POP PUSH1 0x20 PUSH2 0x180 MLOAD LT PUSH2 0x16A1 JUMP JUMPDEST PUSH2 0x160 MLOAD DUP1 MLOAD SWAP1 PUSH2 0x1F6F SWAP1 DUP3 PUSH2 0x1004 JUMP JUMPDEST PUSH1 0x2 DUP2 MSTORE PUSH2 0x4E4F PUSH1 0xF0 SHL PUSH1 0x20 DUP3 ADD MSTORE PUSH1 0xE0 MSTORE PUSH2 0x165C JUMP JUMPDEST PUSH1 0x0 PUSH2 0x1FB0 SWAP2 PUSH2 0x160 MLOAD MLOAD DUP1 SWAP4 DUP2 SWAP3 PUSH4 0x34492069 PUSH1 0xE2 SHL DUP4 MSTORE PUSH1 0x20 PUSH1 0x4 DUP5 ADD MSTORE PUSH1 0x24 DUP4 ADD SWAP1 PUSH2 0xF6D JUMP JUMPDEST SUB DUP2 ADDRESS GAS STATICCALL SWAP1 DUP2 PUSH1 0x0 SWAP2 PUSH1 0x0 SWAP4 PUSH2 0x1FDB JUMPI JUMPDEST POP PUSH2 0x1FCE JUMPI JUMPDEST POP PUSH2 0x1642 JUMP JUMPDEST PUSH2 0x1A0 MSTORE SWAP10 POP CODESIZE DUP1 PUSH2 0x1FC8 JUMP JUMPDEST SWAP1 SWAP3 POP PUSH2 0x1FFB SWAP2 POP RETURNDATASIZE DUP1 PUSH1 0x0 DUP4 RETURNDATACOPY PUSH2 0x1FF3 DUP2 DUP4 PUSH2 0x1004 JUMP JUMPDEST DUP2 ADD SWAP1 PUSH2 0x147B JUMP JUMPDEST SWAP2 CODESIZE PUSH2 0x1FC2 JUMP JUMPDEST PUSH4 0xC5723B51 PUSH1 0xE0 SHL PUSH1 0x0 MSTORE PUSH1 0x4 PUSH1 0x0 REVERT JUMPDEST SWAP1 PUSH1 0x3 SLOAD SWAP2 DUP3 ISZERO PUSH2 0x124A JUMPI PUSH1 0x0 MSTORE PUSH1 0x5 PUSH1 0x20 MSTORE PUSH1 0x40 PUSH1 0x0 KECCAK256 SWAP1 ISZERO ISZERO PUSH1 0x0 MSTORE PUSH1 0x20 MSTORE PUSH1 0x64 PUSH2 0x2049 PUSH1 0x40 PUSH1 0x0 KECCAK256 SLOAD SWAP3 PUSH1 0x6 SLOAD SWAP1 PUSH2 0x13B0 JUMP JUMPDEST DIV GT ISZERO SWAP1 JUMP JUMPDEST SWAP2 SWAP1 DUP3 PUSH1 0x0 MSTORE PUSH1 0x0 PUSH1 0x20 MSTORE PUSH1 0x40 PUSH1 0x0 KECCAK256 SWAP2 PUSH1 0x1 DUP1 PUSH1 0xA0 SHL SUB PUSH1 0x1 DUP5 ADD SLOAD AND ISZERO PUSH2 0x2002 JUMPI PUSH1 0x3 DUP4 ADD SWAP2 DUP3 SLOAD SWAP4 PUSH1 0xFF DUP6 AND PUSH2 0x15B0 JUMPI PUSH2 0x208C DUP3 DUP8 PUSH2 0x2013 JUMP JUMPDEST ISZERO PUSH2 0xB4C JUMPI PUSH1 0x20 SWAP4 PUSH1 0x40 MLOAD PUSH2 0x20A1 DUP7 DUP3 PUSH2 0x1004 JUMP JUMPDEST PUSH1 0x0 DUP2 MSTORE SWAP6 DUP8 PUSH1 0x0 MSTORE PUSH1 0x4 DUP7 MSTORE PUSH1 0x40 PUSH1 0x0 KECCAK256 SLOAD PUSH2 0x234F JUMPI JUMPDEST PUSH1 0xFF NOT AND PUSH1 0x1 OR SWAP1 SSTORE DUP5 MLOAD PUSH1 0x4 DUP3 ADD SWAP1 PUSH1 0x1 PUSH1 0x1 PUSH1 0x40 SHL SUB DUP2 GT PUSH2 0x79F JUMPI PUSH2 0x20EB DUP2 PUSH2 0x20E5 DUP5 SLOAD PUSH2 0x10A7 JUMP JUMPDEST DUP5 PUSH2 0x13C3 JUMP JUMPDEST DUP6 PUSH1 0x1F DUP3 GT PUSH1 0x1 EQ PUSH2 0x22E6 JUMPI DUP2 PUSH1 0x6 SWAP5 SWAP4 SWAP3 PUSH2 0x211D SWAP3 PUSH1 0x0 SWAP2 PUSH2 0x22DB JUMPI JUMPDEST POP DUP2 PUSH1 0x1 SHL SWAP2 PUSH1 0x0 NOT SWAP1 PUSH1 0x3 SHL SHR NOT AND OR SWAP1 JUMP JUMPDEST SWAP1 SSTORE JUMPDEST PUSH2 0x2139 DUP4 PUSH1 0x5 DUP4 ADD SWAP1 PUSH1 0xFF DUP1 NOT DUP4 SLOAD AND SWAP2 ISZERO ISZERO AND OR SWAP1 SSTORE JUMP JUMPDEST ADD DUP3 MLOAD PUSH1 0x1 PUSH1 0x1 PUSH1 0x40 SHL SUB DUP2 GT PUSH2 0x79F JUMPI PUSH2 0x2158 DUP2 PUSH2 0x20E5 DUP5 SLOAD PUSH2 0x10A7 JUMP JUMPDEST DUP5 PUSH1 0x1F DUP3 GT PUSH1 0x1 EQ PUSH2 0x224C JUMPI SWAP3 PUSH2 0x222B SWAP6 SWAP3 PUSH2 0x21B1 DUP4 PUSH32 0x89B763933EFE68C9FB105BE2523D43AFBB04F27B42BDA7793A30BB6AE16BC4FF SWAP10 SWAP8 SWAP5 PUSH2 0x223C SWAP8 PUSH1 0x0 SWAP2 PUSH2 0x2241 JUMPI POP DUP2 PUSH1 0x1 SHL SWAP2 PUSH1 0x0 NOT SWAP1 PUSH1 0x3 SHL SHR NOT AND OR SWAP1 JUMP JUMPDEST SWAP1 SSTORE JUMPDEST DUP8 PUSH1 0x0 MSTORE PUSH1 0x5 DUP4 MSTORE PUSH1 0x40 PUSH1 0x0 KECCAK256 SWAP1 ISZERO ISZERO SWAP1 DUP2 PUSH1 0x0 MSTORE DUP4 MSTORE DUP8 PUSH32 0x62C5313AC9057B028C77D3D71A8BC78681AB575A0CAB56A1FEF1E7484CD6B48D PUSH1 0x40 PUSH1 0x0 KECCAK256 SLOAD PUSH1 0x40 MLOAD DUP1 SWAP2 DUP6 DUP3 MSTORE PUSH1 0x60 DUP9 DUP4 ADD MSTORE PUSH2 0x220E PUSH1 0x60 DUP4 ADD DUP9 PUSH2 0xF6D JUMP JUMPDEST SWAP1 PUSH1 0x40 DUP4 ADD MSTORE SUB SWAP1 LOG2 PUSH1 0x40 MLOAD SWAP6 DUP7 SWAP6 PUSH1 0x60 DUP8 MSTORE PUSH1 0x60 DUP8 ADD SWAP1 PUSH2 0xF6D JUMP JUMPDEST SWAP3 DUP6 ADD MSTORE DUP4 DUP3 SUB PUSH1 0x40 DUP6 ADD MSTORE PUSH2 0xF6D JUMP JUMPDEST SUB SWAP1 LOG2 JUMP JUMPDEST SWAP1 POP DUP6 ADD MLOAD CODESIZE PUSH2 0x2109 JUMP JUMPDEST PUSH1 0x1F NOT DUP3 AND SWAP1 DUP4 PUSH1 0x0 MSTORE DUP7 PUSH1 0x0 KECCAK256 SWAP2 PUSH1 0x0 JUMPDEST DUP2 DUP2 LT PUSH2 0x22C4 JUMPI POP DUP4 PUSH2 0x223C SWAP7 SWAP4 PUSH2 0x222B SWAP10 SWAP7 SWAP4 PUSH32 0x89B763933EFE68C9FB105BE2523D43AFBB04F27B42BDA7793A30BB6AE16BC4FF SWAP12 SWAP10 SWAP7 PUSH1 0x1 SWAP5 LT PUSH2 0x22AB JUMPI JUMPDEST POP POP DUP2 SHL ADD SWAP1 SSTORE PUSH2 0x21B4 JUMP JUMPDEST DUP7 ADD MLOAD PUSH1 0x0 NOT PUSH1 0xF8 DUP5 PUSH1 0x3 SHL AND SHR NOT AND SWAP1 SSTORE CODESIZE DUP1 PUSH2 0x229F JUMP JUMPDEST SWAP2 SWAP3 DUP9 PUSH1 0x1 DUP2 SWAP3 DUP7 DUP12 ADD MLOAD DUP2 SSTORE ADD SWAP5 ADD SWAP3 ADD PUSH2 0x225E JUMP JUMPDEST SWAP1 POP DUP10 ADD MLOAD CODESIZE PUSH2 0x2109 JUMP JUMPDEST PUSH1 0x1F NOT DUP3 AND SWAP1 DUP4 PUSH1 0x0 MSTORE DUP8 PUSH1 0x0 KECCAK256 SWAP2 PUSH1 0x0 JUMPDEST DUP10 DUP12 DUP4 DUP4 LT PUSH2 0x233A JUMPI POP POP POP SWAP2 DUP4 SWAP2 PUSH1 0x6 SWAP7 SWAP6 SWAP5 PUSH1 0x1 SWAP5 LT PUSH2 0x2321 JUMPI JUMPDEST POP POP DUP2 SHL ADD SWAP1 SSTORE PUSH2 0x2120 JUMP JUMPDEST DUP11 ADD MLOAD PUSH1 0x0 NOT PUSH1 0xF8 DUP5 PUSH1 0x3 SHL AND SHR NOT AND SWAP1 SSTORE CODESIZE DUP1 PUSH2 0x2315 JUMP JUMPDEST DUP5 ADD MLOAD DUP6 SSTORE PUSH1 0x1 SWAP1 SWAP5 ADD SWAP4 SWAP3 DUP4 ADD SWAP3 ADD PUSH2 0x22F8 JUMP JUMPDEST SWAP6 POP DUP7 PUSH1 0x0 MSTORE PUSH1 0x4 DUP6 MSTORE PUSH1 0x40 PUSH1 0x0 KECCAK256 PUSH1 0x0 SWAP1 DUP1 SLOAD ISZERO PUSH2 0x2382 JUMPI PUSH1 0x1 DUP8 DUP4 PUSH2 0x237A SWAP4 DUP4 SWAP6 MSTORE KECCAK256 ADD PUSH2 0x10E1 JUMP JUMPDEST SWAP7 SWAP1 POP PUSH2 0x20B9 JUMP JUMPDEST PUSH4 0x4E487B71 PUSH1 0xE0 SHL DUP3 MSTORE PUSH1 0x32 PUSH1 0x4 MSTORE PUSH1 0x24 DUP3 REVERT JUMPDEST SWAP1 DUP2 MLOAD DUP2 LT ISZERO PUSH2 0x1199 JUMPI ADD PUSH1 0x20 ADD SWAP1 JUMP JUMPDEST SWAP2 SWAP5 SWAP4 SWAP3 SWAP1 SWAP3 PUSH1 0x0 SWAP4 PUSH1 0x1 DUP1 PUSH1 0xA0 SHL SUB AND SWAP4 DUP5 DUP2 MSTORE PUSH1 0x2 PUSH1 0x20 MSTORE DUP1 PUSH1 0x40 DUP2 KECCAK256 SSTORE PUSH2 0x23D3 DUP8 PUSH1 0x3 SLOAD PUSH2 0x1077 JUMP JUMPDEST PUSH1 0x3 SSTORE PUSH1 0x40 MLOAD PUSH4 0x991D881 PUSH1 0xE2 SHL DUP2 MSTORE PUSH1 0x4 DUP2 ADD DUP7 SWAP1 MSTORE PUSH32 0x0 PUSH1 0x1 PUSH1 0x1 PUSH1 0xA0 SHL SUB AND SWAP1 PUSH1 0x20 DUP2 PUSH1 0x24 DUP2 DUP6 GAS STATICCALL SWAP1 DUP2 ISZERO PUSH2 0x2546 JUMPI DUP4 SWAP2 PUSH2 0x2514 JUMPI JUMPDEST POP DUP1 PUSH2 0x2478 JUMPI JUMPDEST POP POP POP PUSH32 0xAFFD8B9FFB2058F05FE3E1C643891491B6253AABE27BF992F581214AE071ABCC SWAP3 SWAP4 SWAP5 SWAP6 POP PUSH2 0x2473 PUSH1 0x40 MLOAD SWAP3 DUP4 SWAP3 PUSH1 0x20 DUP5 MSTORE PUSH1 0x20 DUP5 ADD SWAP2 PUSH2 0x1415 JUMP JUMPDEST SUB SWAP1 LOG3 JUMP JUMPDEST DUP3 SWAP9 DUP2 DUP2 GT PUSH1 0x0 EQ PUSH2 0x250C JUMPI POP SWAP1 JUMPDEST DUP1 EXTCODESIZE ISZERO PUSH2 0x2508 JUMPI PUSH1 0x44 DUP4 SWAP3 PUSH1 0x40 MLOAD SWAP11 DUP12 SWAP4 DUP5 SWAP3 PUSH4 0x2FB4D85 PUSH1 0xE0 SHL DUP5 MSTORE DUP12 PUSH1 0x4 DUP6 ADD MSTORE PUSH1 0x24 DUP5 ADD MSTORE GAS CALL SWAP7 DUP8 ISZERO PUSH2 0x24FB JUMPI PUSH32 0xAFFD8B9FFB2058F05FE3E1C643891491B6253AABE27BF992F581214AE071ABCC SWAP5 SWAP6 SWAP7 SWAP8 PUSH2 0x24EB JUMPI JUMPDEST DUP8 SWAP7 SWAP6 SWAP5 PUSH2 0x2433 JUMP JUMPDEST DUP2 PUSH2 0x24F5 SWAP2 PUSH2 0x1004 JUMP JUMPDEST CODESIZE PUSH2 0x24E2 JUMP JUMPDEST POP PUSH1 0x40 MLOAD SWAP1 RETURNDATASIZE SWAP1 DUP3 RETURNDATACOPY RETURNDATASIZE SWAP1 REVERT JUMPDEST DUP3 DUP1 REVERT JUMPDEST SWAP1 POP SWAP1 PUSH2 0x2487 JUMP JUMPDEST SWAP1 POP PUSH1 0x20 DUP2 RETURNDATASIZE PUSH1 0x20 GT PUSH2 0x253E JUMPI JUMPDEST DUP2 PUSH2 0x252F PUSH1 0x20 SWAP4 DUP4 PUSH2 0x1004 JUMP JUMPDEST DUP2 ADD SUB SLT PUSH2 0x2508 JUMPI MLOAD CODESIZE PUSH2 0x242C JUMP JUMPDEST RETURNDATASIZE SWAP2 POP PUSH2 0x2522 JUMP JUMPDEST PUSH1 0x40 MLOAD RETURNDATASIZE DUP6 DUP3 RETURNDATACOPY RETURNDATASIZE SWAP1 REVERT INVALID LOG2 PUSH5 0x6970667358 0x22 SLT KECCAK256 0xB2 0xBE CREATE2 DUP14 CALLDATALOAD 0xDF 0x4C EXTCODECOPY 0xD5 0xDC 0xCD AND 0xB1 DUP7 0xB9 0xED 0xCD 0xD6 0x21 0x26 ADDMOD 0xE9 PUSH3 0x38E43 DUP2 0xFB 0xC3 PUSH30 0xC44064736F6C634300081A00330000000000000000000000000000000000 "},"methodIdentifiers":{"admin()":"f851a440","avsNodes(address)":"f1d1b381","decodeRequestData(bytes)":"d12481a4","eigenVerify()":"2e52ec8b","finalizeResolution(bytes32,bool,bytes)":"9378c8fa","fulfillVerification(bytes32,bytes,bool,bytes)":"285b80a2","getAttestations(bytes32)":"37e59e36","getFulfillment(bytes32)":"96c59cc1","getProof(bytes32,address)":"276d6526","getProofHash(bytes32,address)":"2af002e8","getQuorumStatus(bytes32)":"c09fff13","getRequest(bytes32)":"fb1e61ca","operatorWeights(address)":"b457c25a","quorumThreshold()":"7b7a91dd","requestResolution(bytes32,bytes)":"c2438071","setAVSNode(address,bool)":"f7c226da","setOperatorWeight(address,uint256)":"0e6b1110","setQuorumThreshold(uint256)":"4524c7e1","slashing()":"ca31fb9f","submitAttestation(bytes32,bool,bytes,bytes,bytes,uint256)":"9e4174aa","totalOperatorWeight()":"c5e9a279"}}}}}