{"contracts/adapter/UMAAdapter.sol":{"UMAAdapter":{"abi":[{"inputs":[{"internalType":"address","name":"veyraOracleAVS_","type":"address"},{"internalType":"address","name":"umaOracle_","type":"address"},{"internalType":"address","name":"admin_","type":"address"}],"stateMutability":"nonpayable","type":"constructor"},{"inputs":[],"name":"AlreadyFulfilled","type":"error"},{"inputs":[],"name":"NotFound","type":"error"},{"inputs":[],"name":"OnlyAdmin","type":"error"},{"inputs":[],"name":"ZeroAddress","type":"error"},{"anonymous":false,"inputs":[{"indexed":true,"internalType":"bytes32","name":"assertionId","type":"bytes32"},{"indexed":true,"internalType":"bytes32","name":"requestId","type":"bytes32"},{"indexed":false,"internalType":"bytes","name":"claim","type":"bytes"}],"name":"AssertionHandled","type":"event"},{"anonymous":false,"inputs":[{"indexed":true,"internalType":"bytes32","name":"assertionId","type":"bytes32"},{"indexed":true,"internalType":"bytes32","name":"requestId","type":"bytes32"},{"indexed":false,"internalType":"bool","name":"outcome","type":"bool"}],"name":"OutcomeSubmitted","type":"event"},{"anonymous":false,"inputs":[{"indexed":true,"internalType":"bytes32","name":"newAssertionId","type":"bytes32"},{"indexed":true,"internalType":"bytes32","name":"originalAssertionId","type":"bytes32"},{"indexed":false,"internalType":"bool","name":"outcome","type":"bool"}],"name":"UMAAssertionCreated","type":"event"},{"inputs":[],"name":"admin","outputs":[{"internalType":"address","name":"","type":"address"}],"stateMutability":"view","type":"function"},{"inputs":[{"internalType":"bytes32","name":"","type":"bytes32"}],"name":"assertionSubmitted","outputs":[{"internalType":"bool","name":"","type":"bool"}],"stateMutability":"view","type":"function"},{"inputs":[{"internalType":"bytes32","name":"","type":"bytes32"}],"name":"assertionToRequest","outputs":[{"internalType":"bytes32","name":"","type":"bytes32"}],"stateMutability":"view","type":"function"},{"inputs":[{"internalType":"bytes32","name":"requestId","type":"bytes32"}],"name":"getAssertionId","outputs":[{"internalType":"bytes32","name":"assertionId","type":"bytes32"}],"stateMutability":"view","type":"function"},{"inputs":[{"internalType":"bytes32","name":"assertionId","type":"bytes32"}],"name":"getRequestId","outputs":[{"internalType":"bytes32","name":"requestId","type":"bytes32"}],"stateMutability":"view","type":"function"},{"inputs":[{"internalType":"bytes32","name":"assertionId","type":"bytes32"},{"internalType":"bytes","name":"claim","type":"bytes"},{"internalType":"bytes","name":"data","type":"bytes"}],"name":"handleAssertion","outputs":[{"internalType":"bytes32","name":"requestId","type":"bytes32"}],"stateMutability":"nonpayable","type":"function"},{"inputs":[{"internalType":"bytes32","name":"","type":"bytes32"}],"name":"requestToAssertion","outputs":[{"internalType":"bytes32","name":"","type":"bytes32"}],"stateMutability":"view","type":"function"},{"inputs":[{"internalType":"bytes32","name":"requestId","type":"bytes32"},{"internalType":"bytes","name":"claim","type":"bytes"},{"internalType":"uint64","name":"liveness","type":"uint64"},{"internalType":"address","name":"currency","type":"address"},{"internalType":"uint256","name":"bond","type":"uint256"},{"internalType":"bytes32","name":"identifier","type":"bytes32"}],"name":"submitOutcomeToUMA","outputs":[{"internalType":"bytes32","name":"assertionId","type":"bytes32"}],"stateMutability":"nonpayable","type":"function"},{"inputs":[],"name":"umaOracle","outputs":[{"internalType":"contract IUMAOptimisticOracle","name":"","type":"address"}],"stateMutability":"view","type":"function"},{"inputs":[],"name":"veyraOracleAVS","outputs":[{"internalType":"contract IVeyraOracleAVS","name":"","type":"address"}],"stateMutability":"view","type":"function"}],"evm":{"bytecode":{"linkReferences":{},"object":"60c0346100f957601f610bd338819003918201601f19168301916001600160401b038311848410176100fe578084926060946040528339810103126100f95761004781610114565b61005f604061005860208501610114565b9301610114565b6001600160a01b039091169182156100e8576001600160a01b03169081156100e8576001600160a01b03169182156100e85760805260a052600080546001600160a01b031916919091179055604051610aaa908161012982396080518181816101e2015281816104090152610617015260a05181818161015b0152818161044e01526106840152f35b63d92e233d60e01b60005260046000fd5b600080fd5b634e487b7160e01b600052604160045260246000fd5b51906001600160a01b03821682036100f95756fe608080604052600436101561001357600080fd5b60003560e01c9081633456aaee146104a9575080634769ff621461047d5780635ff474c2146104385780636abe0ed4146103f35780638e2f4e17146103575780639c50ff19146103265780639d8b43a51461008d578063b78a4a3c146100e7578063f851a440146100be5763f9c559cd1461008d57600080fd5b346100b95760203660031901126100b95760043560005260016020526020604060002054604051908152f35b600080fd5b346100b95760003660031901126100b9576000546040516001600160a01b039091168152602090f35b346100b95760603660031901126100b95760043560243567ffffffffffffffff81116100b95761011b9036906004016104d1565b9060443567ffffffffffffffff81116100b95761013c9036906004016104d1565b60405163220c0a2160e21b8152600481018690529193916000816024817f00000000000000000000000000000000000000000000000000000000000000006001600160a01b03165afa9081156102dc576000916102f9575b506102e8578460005260016020526040600020546102e8576101dc93602091604051958692839263c243807160e01b84528960048501526040602485015260448401916105bc565b038160007f00000000000000000000000000000000000000000000000000000000000000006001600160a01b03165af19283156102dc57600093610281575b50927f96e176bdf2e627b012aa5d1dde1ecf7a96bed0717e098901f57c05eed70541be8392602095836000526001875284604060002055846000526002875283604060002055610276604051928392898452898401916105bc565b0390a3604051908152f35b939091926020853d6020116102d4575b8161029e602093836104ff565b810103126102d15750925191907f96e176bdf2e627b012aa5d1dde1ecf7a96bed0717e098901f57c05eed70541be61021b565b80fd5b3d9150610291565b6040513d6000823e3d90fd5b634a4117f960e01b60005260046000fd5b61031691503d806000833e61030e81836104ff565b8101906109d7565b5097505050505050505086610194565b346100b95760203660031901126100b9576004356000526003602052602060ff604060002054166040519015158152f35b346100b95760c03660031901126100b95760243567ffffffffffffffff81116100b9576103889036906004016104d1565b6044359067ffffffffffffffff821682036100b957606435926001600160a01b03841684036100b9576000546001600160a01b031633036103e2576020936103da9360a43593608435936004356105dd565b604051908152f35b634755657960e01b60005260046000fd5b346100b95760003660031901126100b9576040517f00000000000000000000000000000000000000000000000000000000000000006001600160a01b03168152602090f35b346100b95760003660031901126100b9576040517f00000000000000000000000000000000000000000000000000000000000000006001600160a01b03168152602090f35b346100b95760203660031901126100b95760043560005260026020526020604060002054604051908152f35b346100b95760203660031901126100b957602090600435600052600282526040600020548152f35b9181601f840112156100b95782359167ffffffffffffffff83116100b957602083818601950101116100b957565b90601f8019910116810190811067ffffffffffffffff82111761052157604052565b634e487b7160e01b600052604160045260246000fd5b519081151582036100b957565b60005b8381106105575750506000910152565b8181015183820152602001610547565b81601f820112156100b957805167ffffffffffffffff8111610521576040519261059b601f8301601f1916602001856104ff565b818452602082840101116100b9576105b99160208085019101610544565b90565b908060209392818452848401376000828201840152601f01601f1916010190565b93929190969495846000526002602052604060002054968715610931576040516396c59cc160e01b815260048101879052946000866024817f00000000000000000000000000000000000000000000000000000000000000006001600160a01b03165afa9586156102dc576000908197610942575b50156109315788600052600360205260ff604060002054166102e85760405163220c0a2160e21b8152600481018a90527f00000000000000000000000000000000000000000000000000000000000000006001600160a01b03169a906000816024818f5afa9081156102dc5760009161090c575b50610867576107056020969567ffffffffffffffff9a9b9c9561074c9560009561071d610124966040519687918e8301976040895260608401916105bc565b9d15159d8e604083015203601f1981018752866104ff565b6040519d8e9a8b998a97631720baf960e31b895261010060048a0152518097816101048b01528a8a0190610544565b30602488015260448701899052606487018990521660848601526001600160a01b031660a485015260c484015260e4830152601f01601f191681010301925af19182156102dc57859360009361080e575b507f1cea36dc9209638445baf21c42e838817870eac7ca4ebb0e0d0816ab9bdef9eb9160209185600052600383526040600020600160ff19825416179055857f861f889fafa35245ea81c5686f0384184157732d97e07a1cb3be800584989c7f84604051858152a3604051908152a3565b935091506020833d60201161085f575b8161082b602093836104ff565b810103126100b9579151849290917f1cea36dc9209638445baf21c42e838817870eac7ca4ebb0e0d0816ab9bdef9eb61079d565b3d915061081e565b50505050505050909260006024916040519283809263220c0a2160e21b82528760048301525afa80156102dc5760207f861f889fafa35245ea81c5686f0384184157732d97e07a1cb3be800584989c7f9185936000916108e7575b5083600052600382526040600020600160ff198254161790556040519015158152a390565b6108fc91503d806000833e61030e81836104ff565b98505050505050505050386108c2565b61092191503d806000833e61030e81836104ff565b50975050505050505050386106c6565b63c5723b5160e01b60005260046000fd5b96503d8082893e61095381896104ff565b87016080888203126109bf5761096888610537565b91602089015167ffffffffffffffff81116109bf5782610989918b01610567565b5061099660408a01610537565b9860608101519167ffffffffffffffff83116102d157506109b8929101610567565b5038610652565b5080fd5b51906001600160a01b03821682036100b957565b919091610140818403126100b9576109ee816109c3565b9260208201519067ffffffffffffffff82116100b957610a0f918301610567565b91610a1c604083016109c3565b91610a29606082016109c3565b91608082015167ffffffffffffffff811681036100b95791610a4d60a082016109c3565b9160c08201519160e0810151916105b9610120610a6d6101008501610537565b930161053756fea2646970667358221220bbc611db39616db2b2d31901916008a87f3682b39dea17dcd920c01325ac0c9964736f6c634300081a0033","opcodes":"PUSH1 0xC0 CALLVALUE PUSH2 0xF9 JUMPI PUSH1 0x1F PUSH2 0xBD3 CODESIZE DUP2 SWAP1 SUB SWAP2 DUP3 ADD PUSH1 0x1F NOT AND DUP4 ADD SWAP2 PUSH1 0x1 PUSH1 0x1 PUSH1 0x40 SHL SUB DUP4 GT DUP5 DUP5 LT OR PUSH2 0xFE JUMPI DUP1 DUP5 SWAP3 PUSH1 0x60 SWAP5 PUSH1 0x40 MSTORE DUP4 CODECOPY DUP2 ADD SUB SLT PUSH2 0xF9 JUMPI PUSH2 0x47 DUP2 PUSH2 0x114 JUMP JUMPDEST PUSH2 0x5F PUSH1 0x40 PUSH2 0x58 PUSH1 0x20 DUP6 ADD PUSH2 0x114 JUMP JUMPDEST SWAP4 ADD PUSH2 0x114 JUMP JUMPDEST PUSH1 0x1 PUSH1 0x1 PUSH1 0xA0 SHL SUB SWAP1 SWAP2 AND SWAP2 DUP3 ISZERO PUSH2 0xE8 JUMPI PUSH1 0x1 PUSH1 0x1 PUSH1 0xA0 SHL SUB AND SWAP1 DUP2 ISZERO PUSH2 0xE8 JUMPI PUSH1 0x1 PUSH1 0x1 PUSH1 0xA0 SHL SUB AND SWAP2 DUP3 ISZERO PUSH2 0xE8 JUMPI PUSH1 0x80 MSTORE PUSH1 0xA0 MSTORE PUSH1 0x0 DUP1 SLOAD PUSH1 0x1 PUSH1 0x1 PUSH1 0xA0 SHL SUB NOT AND SWAP2 SWAP1 SWAP2 OR SWAP1 SSTORE PUSH1 0x40 MLOAD PUSH2 0xAAA SWAP1 DUP2 PUSH2 0x129 DUP3 CODECOPY PUSH1 0x80 MLOAD DUP2 DUP2 DUP2 PUSH2 0x1E2 ADD MSTORE DUP2 DUP2 PUSH2 0x409 ADD MSTORE PUSH2 0x617 ADD MSTORE PUSH1 0xA0 MLOAD DUP2 DUP2 DUP2 PUSH2 0x15B ADD MSTORE DUP2 DUP2 PUSH2 0x44E ADD MSTORE PUSH2 0x684 ADD MSTORE RETURN JUMPDEST PUSH4 0xD92E233D PUSH1 0xE0 SHL PUSH1 0x0 MSTORE PUSH1 0x4 PUSH1 0x0 REVERT JUMPDEST PUSH1 0x0 DUP1 REVERT JUMPDEST PUSH4 0x4E487B71 PUSH1 0xE0 SHL PUSH1 0x0 MSTORE PUSH1 0x41 PUSH1 0x4 MSTORE PUSH1 0x24 PUSH1 0x0 REVERT JUMPDEST MLOAD SWAP1 PUSH1 0x1 PUSH1 0x1 PUSH1 0xA0 SHL SUB DUP3 AND DUP3 SUB PUSH2 0xF9 JUMPI JUMP INVALID PUSH1 0x80 DUP1 PUSH1 0x40 MSTORE PUSH1 0x4 CALLDATASIZE LT ISZERO PUSH2 0x13 JUMPI PUSH1 0x0 DUP1 REVERT JUMPDEST PUSH1 0x0 CALLDATALOAD PUSH1 0xE0 SHR SWAP1 DUP2 PUSH4 0x3456AAEE EQ PUSH2 0x4A9 JUMPI POP DUP1 PUSH4 0x4769FF62 EQ PUSH2 0x47D JUMPI DUP1 PUSH4 0x5FF474C2 EQ PUSH2 0x438 JUMPI DUP1 PUSH4 0x6ABE0ED4 EQ PUSH2 0x3F3 JUMPI DUP1 PUSH4 0x8E2F4E17 EQ PUSH2 0x357 JUMPI DUP1 PUSH4 0x9C50FF19 EQ PUSH2 0x326 JUMPI DUP1 PUSH4 0x9D8B43A5 EQ PUSH2 0x8D JUMPI DUP1 PUSH4 0xB78A4A3C EQ PUSH2 0xE7 JUMPI DUP1 PUSH4 0xF851A440 EQ PUSH2 0xBE JUMPI PUSH4 0xF9C559CD EQ PUSH2 0x8D JUMPI PUSH1 0x0 DUP1 REVERT JUMPDEST CALLVALUE PUSH2 0xB9 JUMPI PUSH1 0x20 CALLDATASIZE PUSH1 0x3 NOT ADD SLT PUSH2 0xB9 JUMPI PUSH1 0x4 CALLDATALOAD PUSH1 0x0 MSTORE PUSH1 0x1 PUSH1 0x20 MSTORE PUSH1 0x20 PUSH1 0x40 PUSH1 0x0 KECCAK256 SLOAD PUSH1 0x40 MLOAD SWAP1 DUP2 MSTORE RETURN JUMPDEST PUSH1 0x0 DUP1 REVERT JUMPDEST CALLVALUE PUSH2 0xB9 JUMPI PUSH1 0x0 CALLDATASIZE PUSH1 0x3 NOT ADD SLT PUSH2 0xB9 JUMPI PUSH1 0x0 SLOAD PUSH1 0x40 MLOAD PUSH1 0x1 PUSH1 0x1 PUSH1 0xA0 SHL SUB SWAP1 SWAP2 AND DUP2 MSTORE PUSH1 0x20 SWAP1 RETURN JUMPDEST CALLVALUE PUSH2 0xB9 JUMPI PUSH1 0x60 CALLDATASIZE PUSH1 0x3 NOT ADD SLT PUSH2 0xB9 JUMPI PUSH1 0x4 CALLDATALOAD PUSH1 0x24 CALLDATALOAD PUSH8 0xFFFFFFFFFFFFFFFF DUP2 GT PUSH2 0xB9 JUMPI PUSH2 0x11B SWAP1 CALLDATASIZE SWAP1 PUSH1 0x4 ADD PUSH2 0x4D1 JUMP JUMPDEST SWAP1 PUSH1 0x44 CALLDATALOAD PUSH8 0xFFFFFFFFFFFFFFFF DUP2 GT PUSH2 0xB9 JUMPI PUSH2 0x13C SWAP1 CALLDATASIZE SWAP1 PUSH1 0x4 ADD PUSH2 0x4D1 JUMP JUMPDEST PUSH1 0x40 MLOAD PUSH4 0x220C0A21 PUSH1 0xE2 SHL DUP2 MSTORE PUSH1 0x4 DUP2 ADD DUP7 SWAP1 MSTORE SWAP2 SWAP4 SWAP2 PUSH1 0x0 DUP2 PUSH1 0x24 DUP2 PUSH32 0x0 PUSH1 0x1 PUSH1 0x1 PUSH1 0xA0 SHL SUB AND GAS STATICCALL SWAP1 DUP2 ISZERO PUSH2 0x2DC JUMPI PUSH1 0x0 SWAP2 PUSH2 0x2F9 JUMPI JUMPDEST POP PUSH2 0x2E8 JUMPI DUP5 PUSH1 0x0 MSTORE PUSH1 0x1 PUSH1 0x20 MSTORE PUSH1 0x40 PUSH1 0x0 KECCAK256 SLOAD PUSH2 0x2E8 JUMPI PUSH2 0x1DC SWAP4 PUSH1 0x20 SWAP2 PUSH1 0x40 MLOAD SWAP6 DUP7 SWAP3 DUP4 SWAP3 PUSH4 0xC2438071 PUSH1 0xE0 SHL DUP5 MSTORE DUP10 PUSH1 0x4 DUP6 ADD MSTORE PUSH1 0x40 PUSH1 0x24 DUP6 ADD MSTORE PUSH1 0x44 DUP5 ADD SWAP2 PUSH2 0x5BC JUMP JUMPDEST SUB DUP2 PUSH1 0x0 PUSH32 0x0 PUSH1 0x1 PUSH1 0x1 PUSH1 0xA0 SHL SUB AND GAS CALL SWAP3 DUP4 ISZERO PUSH2 0x2DC JUMPI PUSH1 0x0 SWAP4 PUSH2 0x281 JUMPI JUMPDEST POP SWAP3 PUSH32 0x96E176BDF2E627B012AA5D1DDE1ECF7A96BED0717E098901F57C05EED70541BE DUP4 SWAP3 PUSH1 0x20 SWAP6 DUP4 PUSH1 0x0 MSTORE PUSH1 0x1 DUP8 MSTORE DUP5 PUSH1 0x40 PUSH1 0x0 KECCAK256 SSTORE DUP5 PUSH1 0x0 MSTORE PUSH1 0x2 DUP8 MSTORE DUP4 PUSH1 0x40 PUSH1 0x0 KECCAK256 SSTORE PUSH2 0x276 PUSH1 0x40 MLOAD SWAP3 DUP4 SWAP3 DUP10 DUP5 MSTORE DUP10 DUP5 ADD SWAP2 PUSH2 0x5BC JUMP JUMPDEST SUB SWAP1 LOG3 PUSH1 0x40 MLOAD SWAP1 DUP2 MSTORE RETURN JUMPDEST SWAP4 SWAP1 SWAP2 SWAP3 PUSH1 0x20 DUP6 RETURNDATASIZE PUSH1 0x20 GT PUSH2 0x2D4 JUMPI JUMPDEST DUP2 PUSH2 0x29E PUSH1 0x20 SWAP4 DUP4 PUSH2 0x4FF JUMP JUMPDEST DUP2 ADD SUB SLT PUSH2 0x2D1 JUMPI POP SWAP3 MLOAD SWAP2 SWAP1 PUSH32 0x96E176BDF2E627B012AA5D1DDE1ECF7A96BED0717E098901F57C05EED70541BE PUSH2 0x21B JUMP JUMPDEST DUP1 REVERT JUMPDEST RETURNDATASIZE SWAP2 POP PUSH2 0x291 JUMP JUMPDEST PUSH1 0x40 MLOAD RETURNDATASIZE PUSH1 0x0 DUP3 RETURNDATACOPY RETURNDATASIZE SWAP1 REVERT JUMPDEST PUSH4 0x4A4117F9 PUSH1 0xE0 SHL PUSH1 0x0 MSTORE PUSH1 0x4 PUSH1 0x0 REVERT JUMPDEST PUSH2 0x316 SWAP2 POP RETURNDATASIZE DUP1 PUSH1 0x0 DUP4 RETURNDATACOPY PUSH2 0x30E DUP2 DUP4 PUSH2 0x4FF JUMP JUMPDEST DUP2 ADD SWAP1 PUSH2 0x9D7 JUMP JUMPDEST POP SWAP8 POP POP POP POP POP POP POP POP DUP7 PUSH2 0x194 JUMP JUMPDEST CALLVALUE PUSH2 0xB9 JUMPI PUSH1 0x20 CALLDATASIZE PUSH1 0x3 NOT ADD SLT PUSH2 0xB9 JUMPI PUSH1 0x4 CALLDATALOAD PUSH1 0x0 MSTORE PUSH1 0x3 PUSH1 0x20 MSTORE PUSH1 0x20 PUSH1 0xFF PUSH1 0x40 PUSH1 0x0 KECCAK256 SLOAD AND PUSH1 0x40 MLOAD SWAP1 ISZERO ISZERO DUP2 MSTORE RETURN JUMPDEST CALLVALUE PUSH2 0xB9 JUMPI PUSH1 0xC0 CALLDATASIZE PUSH1 0x3 NOT ADD SLT PUSH2 0xB9 JUMPI PUSH1 0x24 CALLDATALOAD PUSH8 0xFFFFFFFFFFFFFFFF DUP2 GT PUSH2 0xB9 JUMPI PUSH2 0x388 SWAP1 CALLDATASIZE SWAP1 PUSH1 0x4 ADD PUSH2 0x4D1 JUMP JUMPDEST PUSH1 0x44 CALLDATALOAD SWAP1 PUSH8 0xFFFFFFFFFFFFFFFF DUP3 AND DUP3 SUB PUSH2 0xB9 JUMPI PUSH1 0x64 CALLDATALOAD SWAP3 PUSH1 0x1 PUSH1 0x1 PUSH1 0xA0 SHL SUB DUP5 AND DUP5 SUB PUSH2 0xB9 JUMPI PUSH1 0x0 SLOAD PUSH1 0x1 PUSH1 0x1 PUSH1 0xA0 SHL SUB AND CALLER SUB PUSH2 0x3E2 JUMPI PUSH1 0x20 SWAP4 PUSH2 0x3DA SWAP4 PUSH1 0xA4 CALLDATALOAD SWAP4 PUSH1 0x84 CALLDATALOAD SWAP4 PUSH1 0x4 CALLDATALOAD PUSH2 0x5DD JUMP JUMPDEST PUSH1 0x40 MLOAD SWAP1 DUP2 MSTORE RETURN JUMPDEST PUSH4 0x47556579 PUSH1 0xE0 SHL PUSH1 0x0 MSTORE PUSH1 0x4 PUSH1 0x0 REVERT JUMPDEST CALLVALUE PUSH2 0xB9 JUMPI PUSH1 0x0 CALLDATASIZE PUSH1 0x3 NOT ADD SLT PUSH2 0xB9 JUMPI PUSH1 0x40 MLOAD PUSH32 0x0 PUSH1 0x1 PUSH1 0x1 PUSH1 0xA0 SHL SUB AND DUP2 MSTORE PUSH1 0x20 SWAP1 RETURN JUMPDEST CALLVALUE PUSH2 0xB9 JUMPI PUSH1 0x0 CALLDATASIZE PUSH1 0x3 NOT ADD SLT PUSH2 0xB9 JUMPI PUSH1 0x40 MLOAD PUSH32 0x0 PUSH1 0x1 PUSH1 0x1 PUSH1 0xA0 SHL SUB AND DUP2 MSTORE PUSH1 0x20 SWAP1 RETURN JUMPDEST CALLVALUE PUSH2 0xB9 JUMPI PUSH1 0x20 CALLDATASIZE PUSH1 0x3 NOT ADD SLT PUSH2 0xB9 JUMPI PUSH1 0x4 CALLDATALOAD PUSH1 0x0 MSTORE PUSH1 0x2 PUSH1 0x20 MSTORE PUSH1 0x20 PUSH1 0x40 PUSH1 0x0 KECCAK256 SLOAD PUSH1 0x40 MLOAD SWAP1 DUP2 MSTORE RETURN JUMPDEST CALLVALUE PUSH2 0xB9 JUMPI PUSH1 0x20 CALLDATASIZE PUSH1 0x3 NOT ADD SLT PUSH2 0xB9 JUMPI PUSH1 0x20 SWAP1 PUSH1 0x4 CALLDATALOAD PUSH1 0x0 MSTORE PUSH1 0x2 DUP3 MSTORE PUSH1 0x40 PUSH1 0x0 KECCAK256 SLOAD DUP2 MSTORE RETURN JUMPDEST SWAP2 DUP2 PUSH1 0x1F DUP5 ADD SLT ISZERO PUSH2 0xB9 JUMPI DUP3 CALLDATALOAD SWAP2 PUSH8 0xFFFFFFFFFFFFFFFF DUP4 GT PUSH2 0xB9 JUMPI PUSH1 0x20 DUP4 DUP2 DUP7 ADD SWAP6 ADD ADD GT PUSH2 0xB9 JUMPI JUMP JUMPDEST SWAP1 PUSH1 0x1F DUP1 NOT SWAP2 ADD AND DUP2 ADD SWAP1 DUP2 LT PUSH8 0xFFFFFFFFFFFFFFFF DUP3 GT OR PUSH2 0x521 JUMPI PUSH1 0x40 MSTORE JUMP JUMPDEST PUSH4 0x4E487B71 PUSH1 0xE0 SHL PUSH1 0x0 MSTORE PUSH1 0x41 PUSH1 0x4 MSTORE PUSH1 0x24 PUSH1 0x0 REVERT JUMPDEST MLOAD SWAP1 DUP2 ISZERO ISZERO DUP3 SUB PUSH2 0xB9 JUMPI JUMP JUMPDEST PUSH1 0x0 JUMPDEST DUP4 DUP2 LT PUSH2 0x557 JUMPI POP POP PUSH1 0x0 SWAP2 ADD MSTORE JUMP JUMPDEST DUP2 DUP2 ADD MLOAD DUP4 DUP3 ADD MSTORE PUSH1 0x20 ADD PUSH2 0x547 JUMP JUMPDEST DUP2 PUSH1 0x1F DUP3 ADD SLT ISZERO PUSH2 0xB9 JUMPI DUP1 MLOAD PUSH8 0xFFFFFFFFFFFFFFFF DUP2 GT PUSH2 0x521 JUMPI PUSH1 0x40 MLOAD SWAP3 PUSH2 0x59B PUSH1 0x1F DUP4 ADD PUSH1 0x1F NOT AND PUSH1 0x20 ADD DUP6 PUSH2 0x4FF JUMP JUMPDEST DUP2 DUP5 MSTORE PUSH1 0x20 DUP3 DUP5 ADD ADD GT PUSH2 0xB9 JUMPI PUSH2 0x5B9 SWAP2 PUSH1 0x20 DUP1 DUP6 ADD SWAP2 ADD PUSH2 0x544 JUMP JUMPDEST SWAP1 JUMP JUMPDEST SWAP1 DUP1 PUSH1 0x20 SWAP4 SWAP3 DUP2 DUP5 MSTORE DUP5 DUP5 ADD CALLDATACOPY PUSH1 0x0 DUP3 DUP3 ADD DUP5 ADD MSTORE PUSH1 0x1F ADD PUSH1 0x1F NOT AND ADD ADD SWAP1 JUMP JUMPDEST SWAP4 SWAP3 SWAP2 SWAP1 SWAP7 SWAP5 SWAP6 DUP5 PUSH1 0x0 MSTORE PUSH1 0x2 PUSH1 0x20 MSTORE PUSH1 0x40 PUSH1 0x0 KECCAK256 SLOAD SWAP7 DUP8 ISZERO PUSH2 0x931 JUMPI PUSH1 0x40 MLOAD PUSH4 0x96C59CC1 PUSH1 0xE0 SHL DUP2 MSTORE PUSH1 0x4 DUP2 ADD DUP8 SWAP1 MSTORE SWAP5 PUSH1 0x0 DUP7 PUSH1 0x24 DUP2 PUSH32 0x0 PUSH1 0x1 PUSH1 0x1 PUSH1 0xA0 SHL SUB AND GAS STATICCALL SWAP6 DUP7 ISZERO PUSH2 0x2DC JUMPI PUSH1 0x0 SWAP1 DUP2 SWAP8 PUSH2 0x942 JUMPI JUMPDEST POP ISZERO PUSH2 0x931 JUMPI DUP9 PUSH1 0x0 MSTORE PUSH1 0x3 PUSH1 0x20 MSTORE PUSH1 0xFF PUSH1 0x40 PUSH1 0x0 KECCAK256 SLOAD AND PUSH2 0x2E8 JUMPI PUSH1 0x40 MLOAD PUSH4 0x220C0A21 PUSH1 0xE2 SHL DUP2 MSTORE PUSH1 0x4 DUP2 ADD DUP11 SWAP1 MSTORE PUSH32 0x0 PUSH1 0x1 PUSH1 0x1 PUSH1 0xA0 SHL SUB AND SWAP11 SWAP1 PUSH1 0x0 DUP2 PUSH1 0x24 DUP2 DUP16 GAS STATICCALL SWAP1 DUP2 ISZERO PUSH2 0x2DC JUMPI PUSH1 0x0 SWAP2 PUSH2 0x90C JUMPI JUMPDEST POP PUSH2 0x867 JUMPI PUSH2 0x705 PUSH1 0x20 SWAP7 SWAP6 PUSH8 0xFFFFFFFFFFFFFFFF SWAP11 SWAP12 SWAP13 SWAP6 PUSH2 0x74C SWAP6 PUSH1 0x0 SWAP6 PUSH2 0x71D PUSH2 0x124 SWAP7 PUSH1 0x40 MLOAD SWAP7 DUP8 SWAP2 DUP15 DUP4 ADD SWAP8 PUSH1 0x40 DUP10 MSTORE PUSH1 0x60 DUP5 ADD SWAP2 PUSH2 0x5BC JUMP JUMPDEST SWAP14 ISZERO ISZERO SWAP14 DUP15 PUSH1 0x40 DUP4 ADD MSTORE SUB PUSH1 0x1F NOT DUP2 ADD DUP8 MSTORE DUP7 PUSH2 0x4FF JUMP JUMPDEST PUSH1 0x40 MLOAD SWAP14 DUP15 SWAP11 DUP12 SWAP10 DUP11 SWAP8 PUSH4 0x1720BAF9 PUSH1 0xE3 SHL DUP10 MSTORE PUSH2 0x100 PUSH1 0x4 DUP11 ADD MSTORE MLOAD DUP1 SWAP8 DUP2 PUSH2 0x104 DUP12 ADD MSTORE DUP11 DUP11 ADD SWAP1 PUSH2 0x544 JUMP JUMPDEST ADDRESS PUSH1 0x24 DUP9 ADD MSTORE PUSH1 0x44 DUP8 ADD DUP10 SWAP1 MSTORE PUSH1 0x64 DUP8 ADD DUP10 SWAP1 MSTORE AND PUSH1 0x84 DUP7 ADD MSTORE PUSH1 0x1 PUSH1 0x1 PUSH1 0xA0 SHL SUB AND PUSH1 0xA4 DUP6 ADD MSTORE PUSH1 0xC4 DUP5 ADD MSTORE PUSH1 0xE4 DUP4 ADD MSTORE PUSH1 0x1F ADD PUSH1 0x1F NOT AND DUP2 ADD SUB ADD SWAP3 GAS CALL SWAP2 DUP3 ISZERO PUSH2 0x2DC JUMPI DUP6 SWAP4 PUSH1 0x0 SWAP4 PUSH2 0x80E JUMPI JUMPDEST POP PUSH32 0x1CEA36DC9209638445BAF21C42E838817870EAC7CA4EBB0E0D0816AB9BDEF9EB SWAP2 PUSH1 0x20 SWAP2 DUP6 PUSH1 0x0 MSTORE PUSH1 0x3 DUP4 MSTORE PUSH1 0x40 PUSH1 0x0 KECCAK256 PUSH1 0x1 PUSH1 0xFF NOT DUP3 SLOAD AND OR SWAP1 SSTORE DUP6 PUSH32 0x861F889FAFA35245EA81C5686F0384184157732D97E07A1CB3BE800584989C7F DUP5 PUSH1 0x40 MLOAD DUP6 DUP2 MSTORE LOG3 PUSH1 0x40 MLOAD SWAP1 DUP2 MSTORE LOG3 JUMP JUMPDEST SWAP4 POP SWAP2 POP PUSH1 0x20 DUP4 RETURNDATASIZE PUSH1 0x20 GT PUSH2 0x85F JUMPI JUMPDEST DUP2 PUSH2 0x82B PUSH1 0x20 SWAP4 DUP4 PUSH2 0x4FF JUMP JUMPDEST DUP2 ADD SUB SLT PUSH2 0xB9 JUMPI SWAP2 MLOAD DUP5 SWAP3 SWAP1 SWAP2 PUSH32 0x1CEA36DC9209638445BAF21C42E838817870EAC7CA4EBB0E0D0816AB9BDEF9EB PUSH2 0x79D JUMP JUMPDEST RETURNDATASIZE SWAP2 POP PUSH2 0x81E JUMP JUMPDEST POP POP POP POP POP POP POP SWAP1 SWAP3 PUSH1 0x0 PUSH1 0x24 SWAP2 PUSH1 0x40 MLOAD SWAP3 DUP4 DUP1 SWAP3 PUSH4 0x220C0A21 PUSH1 0xE2 SHL DUP3 MSTORE DUP8 PUSH1 0x4 DUP4 ADD MSTORE GAS STATICCALL DUP1 ISZERO PUSH2 0x2DC JUMPI PUSH1 0x20 PUSH32 0x861F889FAFA35245EA81C5686F0384184157732D97E07A1CB3BE800584989C7F SWAP2 DUP6 SWAP4 PUSH1 0x0 SWAP2 PUSH2 0x8E7 JUMPI JUMPDEST POP DUP4 PUSH1 0x0 MSTORE PUSH1 0x3 DUP3 MSTORE PUSH1 0x40 PUSH1 0x0 KECCAK256 PUSH1 0x1 PUSH1 0xFF NOT DUP3 SLOAD AND OR SWAP1 SSTORE PUSH1 0x40 MLOAD SWAP1 ISZERO ISZERO DUP2 MSTORE LOG3 SWAP1 JUMP JUMPDEST PUSH2 0x8FC SWAP2 POP RETURNDATASIZE DUP1 PUSH1 0x0 DUP4 RETURNDATACOPY PUSH2 0x30E DUP2 DUP4 PUSH2 0x4FF JUMP JUMPDEST SWAP9 POP POP POP POP POP POP POP POP POP CODESIZE PUSH2 0x8C2 JUMP JUMPDEST PUSH2 0x921 SWAP2 POP RETURNDATASIZE DUP1 PUSH1 0x0 DUP4 RETURNDATACOPY PUSH2 0x30E DUP2 DUP4 PUSH2 0x4FF JUMP JUMPDEST POP SWAP8 POP POP POP POP POP POP POP POP CODESIZE PUSH2 0x6C6 JUMP JUMPDEST PUSH4 0xC5723B51 PUSH1 0xE0 SHL PUSH1 0x0 MSTORE PUSH1 0x4 PUSH1 0x0 REVERT JUMPDEST SWAP7 POP RETURNDATASIZE DUP1 DUP3 DUP10 RETURNDATACOPY PUSH2 0x953 DUP2 DUP10 PUSH2 0x4FF JUMP JUMPDEST DUP8 ADD PUSH1 0x80 DUP9 DUP3 SUB SLT PUSH2 0x9BF JUMPI PUSH2 0x968 DUP9 PUSH2 0x537 JUMP JUMPDEST SWAP2 PUSH1 0x20 DUP10 ADD MLOAD PUSH8 0xFFFFFFFFFFFFFFFF DUP2 GT PUSH2 0x9BF JUMPI DUP3 PUSH2 0x989 SWAP2 DUP12 ADD PUSH2 0x567 JUMP JUMPDEST POP PUSH2 0x996 PUSH1 0x40 DUP11 ADD PUSH2 0x537 JUMP JUMPDEST SWAP9 PUSH1 0x60 DUP2 ADD MLOAD SWAP2 PUSH8 0xFFFFFFFFFFFFFFFF DUP4 GT PUSH2 0x2D1 JUMPI POP PUSH2 0x9B8 SWAP3 SWAP2 ADD PUSH2 0x567 JUMP JUMPDEST POP CODESIZE PUSH2 0x652 JUMP JUMPDEST POP DUP1 REVERT JUMPDEST MLOAD SWAP1 PUSH1 0x1 PUSH1 0x1 PUSH1 0xA0 SHL SUB DUP3 AND DUP3 SUB PUSH2 0xB9 JUMPI JUMP JUMPDEST SWAP2 SWAP1 SWAP2 PUSH2 0x140 DUP2 DUP5 SUB SLT PUSH2 0xB9 JUMPI PUSH2 0x9EE DUP2 PUSH2 0x9C3 JUMP JUMPDEST SWAP3 PUSH1 0x20 DUP3 ADD MLOAD SWAP1 PUSH8 0xFFFFFFFFFFFFFFFF DUP3 GT PUSH2 0xB9 JUMPI PUSH2 0xA0F SWAP2 DUP4 ADD PUSH2 0x567 JUMP JUMPDEST SWAP2 PUSH2 0xA1C PUSH1 0x40 DUP4 ADD PUSH2 0x9C3 JUMP JUMPDEST SWAP2 PUSH2 0xA29 PUSH1 0x60 DUP3 ADD PUSH2 0x9C3 JUMP JUMPDEST SWAP2 PUSH1 0x80 DUP3 ADD MLOAD PUSH8 0xFFFFFFFFFFFFFFFF DUP2 AND DUP2 SUB PUSH2 0xB9 JUMPI SWAP2 PUSH2 0xA4D PUSH1 0xA0 DUP3 ADD PUSH2 0x9C3 JUMP JUMPDEST SWAP2 PUSH1 0xC0 DUP3 ADD MLOAD SWAP2 PUSH1 0xE0 DUP2 ADD MLOAD SWAP2 PUSH2 0x5B9 PUSH2 0x120 PUSH2 0xA6D PUSH2 0x100 DUP6 ADD PUSH2 0x537 JUMP JUMPDEST SWAP4 ADD PUSH2 0x537 JUMP INVALID LOG2 PUSH5 0x6970667358 0x22 SLT KECCAK256 0xBB 0xC6 GT 0xDB CODECOPY PUSH2 0x6DB2 0xB2 0xD3 NOT ADD SWAP2 PUSH1 0x8 0xA8 PUSH32 0x3682B39DEA17DCD920C01325AC0C9964736F6C634300081A0033000000000000 "},"methodIdentifiers":{"admin()":"f851a440","assertionSubmitted(bytes32)":"9c50ff19","assertionToRequest(bytes32)":"f9c559cd","getAssertionId(bytes32)":"3456aaee","getRequestId(bytes32)":"9d8b43a5","handleAssertion(bytes32,bytes,bytes)":"b78a4a3c","requestToAssertion(bytes32)":"4769ff62","submitOutcomeToUMA(bytes32,bytes,uint64,address,uint256,bytes32)":"8e2f4e17","umaOracle()":"5ff474c2","veyraOracleAVS()":"6abe0ed4"}}}}}