{
  "_format": "hh-sol-artifact-1",
  "contractName": "UMAAdapter",
  "sourceName": "contracts/adapter/UMAAdapter.sol",
  "abi": [
    {
      "inputs": [
        {
          "internalType": "address",
          "name": "vpoAdapter_",
          "type": "address"
        },
        {
          "internalType": "address",
          "name": "umaOracle_",
          "type": "address"
        },
        {
          "internalType": "address",
          "name": "admin_",
          "type": "address"
        }
      ],
      "stateMutability": "nonpayable",
      "type": "constructor"
    },
    {
      "inputs": [],
      "name": "AlreadyFulfilled",
      "type": "error"
    },
    {
      "inputs": [],
      "name": "NotFound",
      "type": "error"
    },
    {
      "inputs": [],
      "name": "OnlyAdmin",
      "type": "error"
    },
    {
      "inputs": [],
      "name": "ZeroAddress",
      "type": "error"
    },
    {
      "anonymous": false,
      "inputs": [
        {
          "indexed": true,
          "internalType": "bytes32",
          "name": "assertionId",
          "type": "bytes32"
        },
        {
          "indexed": true,
          "internalType": "bytes32",
          "name": "requestId",
          "type": "bytes32"
        },
        {
          "indexed": false,
          "internalType": "bytes",
          "name": "claim",
          "type": "bytes"
        }
      ],
      "name": "AssertionHandled",
      "type": "event"
    },
    {
      "anonymous": false,
      "inputs": [
        {
          "indexed": true,
          "internalType": "bytes32",
          "name": "assertionId",
          "type": "bytes32"
        },
        {
          "indexed": true,
          "internalType": "bytes32",
          "name": "requestId",
          "type": "bytes32"
        },
        {
          "indexed": false,
          "internalType": "bool",
          "name": "outcome",
          "type": "bool"
        }
      ],
      "name": "OutcomeSubmitted",
      "type": "event"
    },
    {
      "anonymous": false,
      "inputs": [
        {
          "indexed": true,
          "internalType": "bytes32",
          "name": "newAssertionId",
          "type": "bytes32"
        },
        {
          "indexed": true,
          "internalType": "bytes32",
          "name": "originalAssertionId",
          "type": "bytes32"
        },
        {
          "indexed": false,
          "internalType": "bool",
          "name": "outcome",
          "type": "bool"
        }
      ],
      "name": "UMAAssertionCreated",
      "type": "event"
    },
    {
      "inputs": [],
      "name": "admin",
      "outputs": [
        {
          "internalType": "address",
          "name": "",
          "type": "address"
        }
      ],
      "stateMutability": "view",
      "type": "function"
    },
    {
      "inputs": [
        {
          "internalType": "bytes32",
          "name": "",
          "type": "bytes32"
        }
      ],
      "name": "assertionSubmitted",
      "outputs": [
        {
          "internalType": "bool",
          "name": "",
          "type": "bool"
        }
      ],
      "stateMutability": "view",
      "type": "function"
    },
    {
      "inputs": [
        {
          "internalType": "bytes32",
          "name": "",
          "type": "bytes32"
        }
      ],
      "name": "assertionToRequest",
      "outputs": [
        {
          "internalType": "bytes32",
          "name": "",
          "type": "bytes32"
        }
      ],
      "stateMutability": "view",
      "type": "function"
    },
    {
      "inputs": [
        {
          "internalType": "bytes32",
          "name": "requestId",
          "type": "bytes32"
        }
      ],
      "name": "getAssertionId",
      "outputs": [
        {
          "internalType": "bytes32",
          "name": "assertionId",
          "type": "bytes32"
        }
      ],
      "stateMutability": "view",
      "type": "function"
    },
    {
      "inputs": [
        {
          "internalType": "bytes32",
          "name": "assertionId",
          "type": "bytes32"
        }
      ],
      "name": "getRequestId",
      "outputs": [
        {
          "internalType": "bytes32",
          "name": "requestId",
          "type": "bytes32"
        }
      ],
      "stateMutability": "view",
      "type": "function"
    },
    {
      "inputs": [
        {
          "internalType": "bytes32",
          "name": "assertionId",
          "type": "bytes32"
        },
        {
          "internalType": "bytes",
          "name": "claim",
          "type": "bytes"
        },
        {
          "internalType": "bytes",
          "name": "data",
          "type": "bytes"
        }
      ],
      "name": "handleAssertion",
      "outputs": [
        {
          "internalType": "bytes32",
          "name": "requestId",
          "type": "bytes32"
        }
      ],
      "stateMutability": "nonpayable",
      "type": "function"
    },
    {
      "inputs": [
        {
          "internalType": "bytes32",
          "name": "",
          "type": "bytes32"
        }
      ],
      "name": "requestToAssertion",
      "outputs": [
        {
          "internalType": "bytes32",
          "name": "",
          "type": "bytes32"
        }
      ],
      "stateMutability": "view",
      "type": "function"
    },
    {
      "inputs": [
        {
          "internalType": "bytes32",
          "name": "requestId",
          "type": "bytes32"
        },
        {
          "internalType": "bytes",
          "name": "claim",
          "type": "bytes"
        },
        {
          "internalType": "uint64",
          "name": "liveness",
          "type": "uint64"
        },
        {
          "internalType": "address",
          "name": "currency",
          "type": "address"
        },
        {
          "internalType": "uint256",
          "name": "bond",
          "type": "uint256"
        },
        {
          "internalType": "bytes32",
          "name": "identifier",
          "type": "bytes32"
        }
      ],
      "name": "submitOutcomeToUMA",
      "outputs": [
        {
          "internalType": "bytes32",
          "name": "assertionId",
          "type": "bytes32"
        }
      ],
      "stateMutability": "nonpayable",
      "type": "function"
    },
    {
      "inputs": [],
      "name": "umaOracle",
      "outputs": [
        {
          "internalType": "contract IUMAOptimisticOracle",
          "name": "",
          "type": "address"
        }
      ],
      "stateMutability": "view",
      "type": "function"
    },
    {
      "inputs": [],
      "name": "vpoAdapter",
      "outputs": [
        {
          "internalType": "contract IVPOAdapter",
          "name": "",
          "type": "address"
        }
      ],
      "stateMutability": "view",
      "type": "function"
    }
  ],
  "bytecode": "0x60c060405234801561001057600080fd5b50604051610f38380380610f3883398101604081905261002f916100ee565b6001600160a01b0383166100565760405163d92e233d60e01b815260040160405180910390fd5b6001600160a01b03821661007d5760405163d92e233d60e01b815260040160405180910390fd5b6001600160a01b0381166100a45760405163d92e233d60e01b815260040160405180910390fd5b6001600160a01b0392831660805290821660a052600080546001600160a01b03191691909216179055610131565b80516001600160a01b03811681146100e957600080fd5b919050565b60008060006060848603121561010357600080fd5b61010c846100d2565b925061011a602085016100d2565b9150610128604085016100d2565b90509250925092565b60805160a051610db961017f6000396000818161013a015281816104cf015281816106b70152818161075901526107f201526000818160fb0152818161028501526105ac0152610db96000f3fe608060405234801561001057600080fd5b506004361061009e5760003560e01c80639c50ff19116100665780639c50ff191461016f5780639d8b43a5146101a2578063b78a4a3c146101c2578063f851a440146101d5578063f9c559cd146101e857600080fd5b80633456aaee146100a35780634769ff62146100d6578063591b2daf146100f65780635ff474c2146101355780638e2f4e171461015c575b600080fd5b6100c36100b1366004610882565b60009081526002602052604090205490565b6040519081526020015b60405180910390f35b6100c36100e4366004610882565b60026020526000908152604090205481565b61011d7f000000000000000000000000000000000000000000000000000000000000000081565b6040516001600160a01b0390911681526020016100cd565b61011d7f000000000000000000000000000000000000000000000000000000000000000081565b6100c361016a366004610912565b610208565b61019261017d366004610882565b60036020526000908152604090205460ff1681565b60405190151581526020016100cd565b6100c36101b0366004610882565b60009081526001602052604090205490565b6100c36101d0366004610998565b6104ac565b60005461011d906001600160a01b031681565b6100c36101f6366004610882565b60016020526000908152604090205481565b600080546001600160a01b0316331461023457604051634755657960e01b815260040160405180910390fd5b50600087815260026020526040902054806102625760405163c5723b5160e01b815260040160405180910390fd5b6040516396c59cc160e01b81526004810189905260009081906001600160a01b037f000000000000000000000000000000000000000000000000000000000000000016906396c59cc190602401600060405180830381865afa1580156102cc573d6000803e3d6000fd5b505050506040513d6000823e601f3d908101601f191682016040526102f49190810190610af1565b509250509150816103185760405163c5723b5160e01b815260040160405180910390fd5b60008381526003602052604090205460ff161561034857604051634a4117f960e01b815260040160405180910390fd5b600061035384610694565b905080156103cb57600061036685610736565b60008681526003602052604090819020805460ff19166001179055519091508c9086907f861f889fafa35245ea81c5686f0384184157732d97e07a1cb3be800584989c7f906103ba90851515815260200190565b60405180910390a3505050506104a1565b60008a8a846040516020016103e293929190610ba4565b60405160208183030381529060405290506000610402828b8b8b8b6107d8565b60008781526003602052604090819020805460ff19166001179055519091508d9087907f861f889fafa35245ea81c5686f0384184157732d97e07a1cb3be800584989c7f9061045690881515815260200190565b60405180910390a385817f1cea36dc9209638445baf21c42e838817870eac7ca4ebb0e0d0816ab9bdef9eb86604051610493911515815260200190565b60405180910390a350505050505b979650505050505050565b60405163220c0a2160e21b81526004810186905260009081906001600160a01b037f00000000000000000000000000000000000000000000000000000000000000001690638830288490602401600060405180830381865afa158015610516573d6000803e3d6000fd5b505050506040513d6000823e601f3d908101601f1916820160405261053e9190810190610bd5565b5098505050505050505050801561056857604051634a4117f960e01b815260040160405180910390fd5b6000878152600160205260409020541561059557604051634a4117f960e01b815260040160405180910390fd5b6040516329384caf60e21b81526001600160a01b037f0000000000000000000000000000000000000000000000000000000000000000169063a4e132bc906105e5908a9088908890600401610ca8565b6020604051808303816000875af1158015610604573d6000803e3d6000fd5b505050506040513d601f19601f820116820180604052508101906106289190610ccb565b600088815260016020908152604080832084905583835260029091529081902089905551909250829088907f96e176bdf2e627b012aa5d1dde1ecf7a96bed0717e098901f57c05eed70541be90610682908a908a90610ce4565b60405180910390a35095945050505050565b60405163220c0a2160e21b81526004810182905260009081906001600160a01b037f00000000000000000000000000000000000000000000000000000000000000001690638830288490602401600060405180830381865afa1580156106fe573d6000803e3d6000fd5b505050506040513d6000823e601f3d908101601f191682016040526107269190810190610bd5565b509b9a5050505050505050505050565b60405163220c0a2160e21b81526004810182905260009081906001600160a01b037f00000000000000000000000000000000000000000000000000000000000000001690638830288490602401600060405180830381865afa1580156107a0573d6000803e3d6000fd5b505050506040513d6000823e601f3d908101601f191682016040526107c89190810190610bd5565b9c9b505050505050505050505050565b604051631720baf960e31b81526000906001600160a01b037f0000000000000000000000000000000000000000000000000000000000000000169063b905d7c8906108359089903090869081908c908c908c908c90600401610cf8565b6020604051808303816000875af1158015610854573d6000803e3d6000fd5b505050506040513d601f19601f820116820180604052508101906108789190610ccb565b9695505050505050565b60006020828403121561089457600080fd5b5035919050565b60008083601f8401126108ad57600080fd5b50813567ffffffffffffffff8111156108c557600080fd5b6020830191508360208285010111156108dd57600080fd5b9250929050565b67ffffffffffffffff811681146108fa57600080fd5b50565b6001600160a01b03811681146108fa57600080fd5b600080600080600080600060c0888a03121561092d57600080fd5b87359650602088013567ffffffffffffffff81111561094b57600080fd5b6109578a828b0161089b565b909750955050604088013561096b816108e4565b9350606088013561097b816108fd565b969995985093969295946080840135945060a09093013592915050565b6000806000806000606086880312156109b057600080fd5b85359450602086013567ffffffffffffffff8111156109ce57600080fd5b6109da8882890161089b565b909550935050604086013567ffffffffffffffff8111156109fa57600080fd5b610a068882890161089b565b969995985093965092949392505050565b80518015158114610a2757600080fd5b919050565b634e487b7160e01b600052604160045260246000fd5b60005b83811015610a5d578181015183820152602001610a45565b50506000910152565b600082601f830112610a7757600080fd5b815167ffffffffffffffff811115610a9157610a91610a2c565b604051601f8201601f19908116603f0116810167ffffffffffffffff81118282101715610ac057610ac0610a2c565b604052818152838201602001851015610ad857600080fd5b610ae9826020830160208701610a42565b949350505050565b60008060008060808587031215610b0757600080fd5b610b1085610a17565b9350602085015167ffffffffffffffff811115610b2c57600080fd5b610b3887828801610a66565b935050610b4760408601610a17565b9150606085015167ffffffffffffffff811115610b6357600080fd5b610b6f87828801610a66565b91505092959194509250565b81835281816020850137506000828201602090810191909152601f909101601f19169091010190565b604081526000610bb8604083018587610b7b565b90508215156020830152949350505050565b8051610a27816108fd565b6000806000806000806000806000806101408b8d031215610bf557600080fd5b8a51610c00816108fd565b60208c0151909a5067ffffffffffffffff811115610c1d57600080fd5b610c298d828e01610a66565b99505060408b0151610c3a816108fd565b60608c0151909850610c4b816108fd565b60808c0151909750610c5c816108e4565b9550610c6a60a08c01610bca565b60c08c015160e08d015191965094509250610c886101008c01610a17565b9150610c976101208c01610a17565b90509295989b9194979a5092959850565b838152604060208201526000610cc2604083018486610b7b565b95945050505050565b600060208284031215610cdd57600080fd5b5051919050565b602081526000610ae9602083018486610b7b565b61010081526000895180610100840152610d1a81610120850160208e01610a42565b6001600160a01b038a8116602085015289811660408501528816606084015267ffffffffffffffff87166080840152601f01601f19168201610120019050610d6d60a08301866001600160a01b03169052565b60c082019390935260e00152969550505050505056fea26469706673582212200d700cf2c454f2ff8e4628fcad08ec75dd0010e91c1680fe5a543a4fee076f7664736f6c634300081a0033",
  "linkReferences": {},
  "deployedLinkReferences": {}
}