{
  "_format": "hh-sol-artifact-1",
  "contractName": "MockDelegationManager",
  "sourceName": "protocol/contracts/test/MockDelegationManager.sol",
  "abi": [
    {
      "inputs": [
        {
          "internalType": "address",
          "name": "operator",
          "type": "address"
        }
      ],
      "name": "getOperatorShares",
      "outputs": [
        {
          "internalType": "uint256",
          "name": "totalShares",
          "type": "uint256"
        }
      ],
      "stateMutability": "view",
      "type": "function"
    },
    {
      "inputs": [
        {
          "internalType": "address",
          "name": "operator",
          "type": "address"
        }
      ],
      "name": "isOperator",
      "outputs": [
        {
          "internalType": "bool",
          "name": "isRegistered",
          "type": "bool"
        }
      ],
      "stateMutability": "view",
      "type": "function"
    },
    {
      "inputs": [
        {
          "internalType": "address",
          "name": "operator",
          "type": "address"
        },
        {
          "internalType": "address",
          "name": "avs",
          "type": "address"
        }
      ],
      "name": "operatorShares",
      "outputs": [
        {
          "internalType": "uint256",
          "name": "shares",
          "type": "uint256"
        }
      ],
      "stateMutability": "view",
      "type": "function"
    },
    {
      "inputs": [
        {
          "internalType": "address",
          "name": "operator",
          "type": "address"
        },
        {
          "internalType": "bool",
          "name": "isRegistered",
          "type": "bool"
        }
      ],
      "name": "setOperator",
      "outputs": [],
      "stateMutability": "nonpayable",
      "type": "function"
    },
    {
      "inputs": [
        {
          "internalType": "address",
          "name": "operator",
          "type": "address"
        },
        {
          "internalType": "address",
          "name": "avs",
          "type": "address"
        },
        {
          "internalType": "uint256",
          "name": "shares",
          "type": "uint256"
        }
      ],
      "name": "setOperatorShares",
      "outputs": [],
      "stateMutability": "nonpayable",
      "type": "function"
    }
  ],
  "bytecode": "0x6080806040523460155761025c908161001b8239f35b600080fdfe6080604052600436101561001257600080fd5b60003560e01c8063558a7297146101ac5780636d70f7ae1461016d578063778e55f31461011e578063cd8e9cd3146100bb5763dbe35bd81461005357600080fd5b346100b65760603660031901126100b65761006c6101fa565b610074610210565b6001600160a01b03918216600081815260208181526040808320959094168252938452828120604435905590815260019283905220805460ff19169091179055005b600080fd5b346100b65760203660031901126100b6576001600160a01b036100dc6101fa565b16600052600160205260ff60406000205416600014610115576020683635c9adc5dea000005b68ffffffffffffffffff60405191168152f35b60206000610102565b346100b65760403660031901126100b6576101376101fa565b61013f610210565b6001600160a01b03918216600090815260208181526040808320949093168252928352819020549051908152f35b346100b65760203660031901126100b6576001600160a01b0361018e6101fa565b166000526001602052602060ff604060002054166040519015158152f35b346100b65760403660031901126100b6576101c56101fa565b602435908115158092036100b65760018060a01b0316600052600160205260406000209060ff80198354169116179055600080f35b600435906001600160a01b03821682036100b657565b602435906001600160a01b03821682036100b65756fea264697066735822122050278ca062b3288d9c17d810523d68f089a46e07aa1fe8598c5ab8286c6b833464736f6c634300081a0033",
  "linkReferences": {},
  "deployedLinkReferences": {}
}