{
  "_format": "hh-sol-artifact-1",
  "contractName": "MockSlashingCoordinator",
  "sourceName": "protocol/contracts/test/MockSlashingCoordinator.sol",
  "abi": [
    {
      "anonymous": false,
      "inputs": [
        {
          "indexed": true,
          "internalType": "address",
          "name": "operator",
          "type": "address"
        },
        {
          "indexed": true,
          "internalType": "bytes32",
          "name": "avsId",
          "type": "bytes32"
        },
        {
          "indexed": false,
          "internalType": "uint256",
          "name": "slashedAmount",
          "type": "uint256"
        }
      ],
      "name": "OperatorSlashed",
      "type": "event"
    },
    {
      "inputs": [
        {
          "internalType": "address",
          "name": "operator",
          "type": "address"
        },
        {
          "internalType": "bytes32",
          "name": "avsId",
          "type": "bytes32"
        }
      ],
      "name": "canSlashOperator",
      "outputs": [
        {
          "internalType": "bool",
          "name": "canSlash",
          "type": "bool"
        }
      ],
      "stateMutability": "view",
      "type": "function"
    },
    {
      "inputs": [
        {
          "internalType": "address",
          "name": "operator",
          "type": "address"
        },
        {
          "internalType": "bytes32",
          "name": "avsId",
          "type": "bytes32"
        }
      ],
      "name": "getSlashedAmount",
      "outputs": [
        {
          "internalType": "uint256",
          "name": "",
          "type": "uint256"
        }
      ],
      "stateMutability": "view",
      "type": "function"
    },
    {
      "inputs": [
        {
          "internalType": "address",
          "name": "operator",
          "type": "address"
        },
        {
          "internalType": "bytes32",
          "name": "avsId",
          "type": "bytes32"
        },
        {
          "internalType": "bool",
          "name": "canSlash",
          "type": "bool"
        }
      ],
      "name": "setCanSlash",
      "outputs": [],
      "stateMutability": "nonpayable",
      "type": "function"
    },
    {
      "inputs": [
        {
          "internalType": "address",
          "name": "operator",
          "type": "address"
        },
        {
          "internalType": "bytes32",
          "name": "avsId",
          "type": "bytes32"
        },
        {
          "internalType": "bytes",
          "name": "slashingParams",
          "type": "bytes"
        }
      ],
      "name": "slashOperator",
      "outputs": [],
      "stateMutability": "nonpayable",
      "type": "function"
    }
  ],
  "bytecode": "0x60808060405234601557610303908161001b8239f35b600080fdfe6080604052600436101561001257600080fd5b60003560e01c8063332083951461012257806339fdff53146100da57806396c0f948146100a95763eb480cce1461004857600080fd5b346100a45760603660031901126100a457610061610285565b604435908115158092036100a45760018060a01b03166000526000602052604060002060243560005260205260406000209060ff80198354169116179055600080f35b600080fd5b346100a45760403660031901126100a45760206100d06100c7610285565b6024359061029b565b6040519015158152f35b346100a45760403660031901126100a4576001600160a01b036100fb610285565b16600052600160205260406000206024356000526020526020604060002054604051908152f35b346100a45760603660031901126100a45761013b610285565b602435906044359067ffffffffffffffff82116100a457366023830112156100a45781600401359167ffffffffffffffff83116100a4578281013660248201116100a457610189858461029b565b1561024857602068056bc75e2d63100000941015610219575b505060018060a01b0316908160005260016020526040600020836000526020526040600020805491808301809311610203577f9ab8c55f47086ab820db7ecbb4620d7df3acf9349ab6ccb5ef23525f2ed8ae6b9260209255604051908152a3005b634e487b7160e01b600052601160045260246000fd5b91925090604090829003126100a45760248101356001600160a01b038116036100a457604401359083806101a2565b60405162461bcd60e51b815260206004820152601560248201527421b0b73737ba1039b630b9b41037b832b930ba37b960591b6044820152606490fd5b600435906001600160a01b03821682036100a457565b6001600160a01b0316600090815260208181526040808320938352929052205460ff1680156102c75790565b5060019056fea2646970667358221220aedd3339ba786bd85a5ee131cc3b96745825761a6591865f92423cc45c3724a264736f6c634300081a0033",
  "linkReferences": {},
  "deployedLinkReferences": {}
}