{
  "_format": "hh-sol-artifact-1",
  "contractName": "EigenVerify",
  "sourceName": "contracts/verification/EigenVerify.sol",
  "abi": [
    {
      "inputs": [
        {
          "internalType": "address",
          "name": "admin_",
          "type": "address"
        }
      ],
      "stateMutability": "nonpayable",
      "type": "constructor"
    },
    {
      "inputs": [],
      "name": "InvalidParameter",
      "type": "error"
    },
    {
      "inputs": [],
      "name": "InvalidSignature",
      "type": "error"
    },
    {
      "inputs": [],
      "name": "OnlyAdmin",
      "type": "error"
    },
    {
      "inputs": [],
      "name": "ZeroAddress",
      "type": "error"
    },
    {
      "anonymous": false,
      "inputs": [
        {
          "indexed": true,
          "internalType": "address",
          "name": "verifier",
          "type": "address"
        },
        {
          "indexed": false,
          "internalType": "bool",
          "name": "enabled",
          "type": "bool"
        }
      ],
      "name": "VerifierUpdated",
      "type": "event"
    },
    {
      "inputs": [],
      "name": "admin",
      "outputs": [
        {
          "internalType": "address",
          "name": "",
          "type": "address"
        }
      ],
      "stateMutability": "view",
      "type": "function"
    },
    {
      "inputs": [
        {
          "internalType": "address",
          "name": "",
          "type": "address"
        }
      ],
      "name": "authorizedVerifiers",
      "outputs": [
        {
          "internalType": "bool",
          "name": "",
          "type": "bool"
        }
      ],
      "stateMutability": "view",
      "type": "function"
    },
    {
      "inputs": [
        {
          "internalType": "address",
          "name": "verifier",
          "type": "address"
        },
        {
          "internalType": "bool",
          "name": "enabled",
          "type": "bool"
        }
      ],
      "name": "setAuthorizedVerifier",
      "outputs": [],
      "stateMutability": "nonpayable",
      "type": "function"
    },
    {
      "inputs": [
        {
          "internalType": "bytes",
          "name": "proof",
          "type": "bytes"
        },
        {
          "internalType": "bytes",
          "name": "dataSpec",
          "type": "bytes"
        }
      ],
      "name": "verify",
      "outputs": [
        {
          "internalType": "bool",
          "name": "valid",
          "type": "bool"
        },
        {
          "internalType": "string",
          "name": "result",
          "type": "string"
        }
      ],
      "stateMutability": "view",
      "type": "function"
    }
  ],
  "bytecode": "0x608034608657601f610b6c38819003918201601f19168301916001600160401b03831184841017608b57808492602094604052833981010312608657516001600160a01b038116908190036086578015607557600180546001600160a01b031916919091179055604051610aca90816100a28239f35b63d92e233d60e01b60005260046000fd5b600080fd5b634e487b7160e01b600052604160045260246000fdfe6080604052600436101561001257600080fd5b60003560e01c80635423ac8e146100575780639a89171614610052578063f7e83aee1461004d5763f851a4401461004857600080fd5b61024d565b6101b3565b610123565b346101085760403660031901126101085761007061010d565b60243590811515809203610108576001546001600160a01b031633036100f7576001600160a01b03169081156100e657816000526000602052604060002060ff1981541660ff83161790556080527fba5f7031ad83095931ee4b5138591db2dc3cfc56178367622fa4b05c2efad23160206080a2005b63d92e233d60e01b60005260046000fd5b634755657960e01b60005260046000fd5b600080fd5b600435906001600160a01b038216820361010857565b34610108576020366003190112610108576001600160a01b0361014461010d565b166000526000602052602060ff604060002054166040519015158152f35b9181601f840112156101085782359167ffffffffffffffff8311610108576020838186019501011161010857565b60005b8381106101a35750506000910152565b8181015183820152602001610193565b346101085760403660031901126101085760043567ffffffffffffffff8111610108576101e4903690600401610162565b6024359067ffffffffffffffff82116101085760609261020b610213933690600401610162565b9290916104a2565b9190604051928391151582526040602083015261023f8151809281604086015260208686019101610190565b601f01601f19168101030190f35b34610108576000366003190112610108576001546040516001600160a01b039091168152602090f35b634e487b7160e01b600052604160045260246000fd5b90601f8019910116810190811067ffffffffffffffff8211176102ae57604052565b610276565b6040519060a0820182811067ffffffffffffffff8211176102ae5760405260006080838281528260208201528260408201526060808201520152565b906020116101085790602090565b906040116101085760200190602090565b906060116101085760400190602090565b9060a1116101085760600190604190565b906060116101085790606090565b90929192836060116101085783116101085760600191605f190190565b90939293848311610108578411610108578101920390565b359060208110610381575090565b6000199060200360031b1b1690565b67ffffffffffffffff81116102ae57601f01601f191660200190565b604051906103bb60208361028c565b60008252565b9291926103cd82610390565b916103db604051938461028c565b829481845281830111610108578281602093846000960137010152565b602092919061040e849282815194859201610190565b019081520190565b60405160809190610427838261028c565b6060815291601f1901366020840137565b9061044282610390565b61044f604051918261028c565b8281528092610460601f1991610390565b0190602036910137565b634e487b7160e01b600052603260045260246000fd5b9082101561048c570190565b61046a565b90815181101561048c570160200190565b92909192606083106106d1576104b66102b3565b906104ca6104c485836102ef565b90610373565b82526104d96104c485836102fd565b602083019081526104ed6104c4868461030e565b604084019081529560a186106106ac5761055361054361051e610510898761031f565b9190606089019236916103c1565b815261053461052d8a88610330565b36916103c1565b6020815191012090519061071b565b6001600160a01b03166080860152565b608084019461059661059261058b610571895160018060a01b031690565b6001600160a01b0316600090815260208190526040902090565b5460ff1690565b1590565b6106be576105a391610898565b906105ae82516109fc565b6105ca6105d860408501516040519283916020830195866103f8565b03601f19810183528261028c565b5190208451036106ac5760208201516020815191012090510361069b576060019485516020815191012090510361068b57610611610416565b9360005b606081106106585750505060600151905161063f926105929290916001600160a01b031691610a72565b6106495751600191565b506000906106556103ac565b90565b806106776106696001938587610480565b356001600160f81b03191690565b60001a6106848289610491565b5301610615565b50505050506000906106556103ac565b5050505050506000906106556103ac565b505050505050506000906106556103ac565b50505050505050506000906106556103ac565b630309cb8760e51b60005260046000fd5b634e487b7160e01b600052601160045260246000fd5b60ff601b9116019060ff821161070a57565b6106e2565b6040513d6000823e3d90fd5b60418251036107f657604051610763816105ca602082019485603c917f19457468657265756d205369676e6564204d6573736167653a0a3332000000008252601c8201520190565b5190209060009160418251036108285760208201519260606040840151930151901a90601b8210610818575b60ff8216601b811415908161080c575b506107f6576107d3600093602095604051948594859094939260ff6060936080840197845216602083015260408201520152565b838052039060015afa1561080757600051906001600160a01b038216156107f657565b638baa579f60e01b60005260046000fd5b61070f565b601c915014153861079f565b90610822906106f8565b9061078f565b638baa579f60e01b8352600483fd5b604051906080820182811067ffffffffffffffff8211176102ae576040526060808360008152816020820152600060408201520152565b606001908160601161070a57565b60001981019190821161070a57565b801561070a576000190190565b91906108a2610837565b92604082106106d1576108b86104c483836102ef565b84526108c76104c483836102fd565b604085015260608210156108f3575b505060608201805151156108e75750565b6108ef6103ac565b9052565b6109006104c4838361030e565b6109098161086e565b831015610917575b506108d6565b8061093161052d61092a61093b9461086e565b868661033e565b602087015261086e565b918281111561091157610952928161052d9361035b565b9081515b801515806109d6575b156109725761096d9061088b565b610956565b91909180610981575b80610911565b61098a81610438565b9160005b8281106109a4575050506060830152388061097b565b806109c26109b460019385610491565b516001600160f81b03191690565b60001a6109cf8287610491565b530161098e565b506001600160f81b03196109f56109b46109ef8461087c565b86610491565b161561095f565b60205b80151580610a56575b15610a1b57610a169061088b565b6109ff565b90610a2582610438565b9160005b818110610a365750505090565b602081101561048c5780836001921a610a4f8287610491565b5301610a29565b50610a608161087c565b602081101561048c5782901a15610a08565b90610a83916020815191012061071b565b6001600160a01b039081169116149056fea2646970667358221220ef41a3d75afb0a4c0db35dc9c2dfce8b4f9aa2175a279ffc6824a46c3814f66c64736f6c634300081a0033",
  "linkReferences": {},
  "deployedLinkReferences": {}
}