{
  "_format": "hh-sol-artifact-1",
  "contractName": "VeyraOracleAVS",
  "sourceName": "contracts/adapter/VeyraOracleAVS.sol",
  "abi": [
    {
      "inputs": [
        {
          "internalType": "address",
          "name": "admin_",
          "type": "address"
        },
        {
          "internalType": "address",
          "name": "eigenVerify_",
          "type": "address"
        },
        {
          "internalType": "address",
          "name": "slashing_",
          "type": "address"
        }
      ],
      "stateMutability": "nonpayable",
      "type": "constructor"
    },
    {
      "inputs": [],
      "name": "AlreadyFulfilled",
      "type": "error"
    },
    {
      "inputs": [],
      "name": "InvalidParameter",
      "type": "error"
    },
    {
      "inputs": [],
      "name": "NotFound",
      "type": "error"
    },
    {
      "inputs": [],
      "name": "OnlyAdmin",
      "type": "error"
    },
    {
      "inputs": [],
      "name": "Unauthorized",
      "type": "error"
    },
    {
      "inputs": [],
      "name": "ZeroAddress",
      "type": "error"
    },
    {
      "anonymous": false,
      "inputs": [
        {
          "indexed": true,
          "internalType": "address",
          "name": "node",
          "type": "address"
        },
        {
          "indexed": false,
          "internalType": "bool",
          "name": "enabled",
          "type": "bool"
        }
      ],
      "name": "AVSNodeUpdated",
      "type": "event"
    },
    {
      "anonymous": false,
      "inputs": [
        {
          "indexed": true,
          "internalType": "bytes32",
          "name": "requestId",
          "type": "bytes32"
        },
        {
          "indexed": true,
          "internalType": "address",
          "name": "operator",
          "type": "address"
        },
        {
          "indexed": false,
          "internalType": "bool",
          "name": "outcome",
          "type": "bool"
        },
        {
          "indexed": false,
          "internalType": "bytes",
          "name": "attestationCid",
          "type": "bytes"
        },
        {
          "indexed": false,
          "internalType": "bytes",
          "name": "signature",
          "type": "bytes"
        }
      ],
      "name": "AttestationSubmitted",
      "type": "event"
    },
    {
      "anonymous": false,
      "inputs": [
        {
          "indexed": true,
          "internalType": "address",
          "name": "operator",
          "type": "address"
        },
        {
          "indexed": false,
          "internalType": "uint256",
          "name": "weight",
          "type": "uint256"
        }
      ],
      "name": "OperatorWeightUpdated",
      "type": "event"
    },
    {
      "anonymous": false,
      "inputs": [
        {
          "indexed": true,
          "internalType": "bytes32",
          "name": "requestId",
          "type": "bytes32"
        },
        {
          "indexed": true,
          "internalType": "address",
          "name": "operator",
          "type": "address"
        },
        {
          "indexed": false,
          "internalType": "bytes",
          "name": "proof",
          "type": "bytes"
        }
      ],
      "name": "ProofVerificationFailed",
      "type": "event"
    },
    {
      "anonymous": false,
      "inputs": [
        {
          "indexed": true,
          "internalType": "bytes32",
          "name": "requestId",
          "type": "bytes32"
        },
        {
          "indexed": false,
          "internalType": "bool",
          "name": "outcome",
          "type": "bool"
        },
        {
          "indexed": false,
          "internalType": "uint256",
          "name": "totalWeight",
          "type": "uint256"
        }
      ],
      "name": "QuorumReached",
      "type": "event"
    },
    {
      "anonymous": false,
      "inputs": [
        {
          "indexed": false,
          "internalType": "uint256",
          "name": "threshold",
          "type": "uint256"
        }
      ],
      "name": "QuorumThresholdUpdated",
      "type": "event"
    },
    {
      "anonymous": false,
      "inputs": [
        {
          "indexed": true,
          "internalType": "bytes32",
          "name": "requestId",
          "type": "bytes32"
        },
        {
          "indexed": false,
          "internalType": "bool",
          "name": "outcome",
          "type": "bool"
        },
        {
          "indexed": false,
          "internalType": "bytes",
          "name": "aggregateSignature",
          "type": "bytes"
        },
        {
          "indexed": false,
          "internalType": "uint256",
          "name": "totalWeight",
          "type": "uint256"
        }
      ],
      "name": "ResolutionFinalized",
      "type": "event"
    },
    {
      "anonymous": false,
      "inputs": [
        {
          "indexed": true,
          "internalType": "bytes32",
          "name": "requestId",
          "type": "bytes32"
        },
        {
          "indexed": false,
          "internalType": "bytes",
          "name": "attestationCid",
          "type": "bytes"
        },
        {
          "indexed": false,
          "internalType": "bool",
          "name": "outcome",
          "type": "bool"
        },
        {
          "indexed": false,
          "internalType": "bytes",
          "name": "metadata",
          "type": "bytes"
        }
      ],
      "name": "VerificationFulfilled",
      "type": "event"
    },
    {
      "anonymous": false,
      "inputs": [
        {
          "indexed": true,
          "internalType": "bytes32",
          "name": "requestId",
          "type": "bytes32"
        },
        {
          "indexed": true,
          "internalType": "address",
          "name": "requester",
          "type": "address"
        },
        {
          "indexed": true,
          "internalType": "bytes32",
          "name": "marketRef",
          "type": "bytes32"
        },
        {
          "indexed": false,
          "internalType": "bytes",
          "name": "data",
          "type": "bytes"
        }
      ],
      "name": "VerificationRequested",
      "type": "event"
    },
    {
      "inputs": [],
      "name": "admin",
      "outputs": [
        {
          "internalType": "address",
          "name": "",
          "type": "address"
        }
      ],
      "stateMutability": "view",
      "type": "function"
    },
    {
      "inputs": [
        {
          "internalType": "address",
          "name": "",
          "type": "address"
        }
      ],
      "name": "avsNodes",
      "outputs": [
        {
          "internalType": "bool",
          "name": "",
          "type": "bool"
        }
      ],
      "stateMutability": "view",
      "type": "function"
    },
    {
      "inputs": [
        {
          "internalType": "bytes",
          "name": "data",
          "type": "bytes"
        }
      ],
      "name": "decodeRequestData",
      "outputs": [
        {
          "internalType": "string",
          "name": "source",
          "type": "string"
        },
        {
          "internalType": "string",
          "name": "logic",
          "type": "string"
        }
      ],
      "stateMutability": "pure",
      "type": "function"
    },
    {
      "inputs": [],
      "name": "eigenVerify",
      "outputs": [
        {
          "internalType": "contract IEigenVerify",
          "name": "",
          "type": "address"
        }
      ],
      "stateMutability": "view",
      "type": "function"
    },
    {
      "inputs": [
        {
          "internalType": "bytes32",
          "name": "requestId",
          "type": "bytes32"
        },
        {
          "internalType": "bool",
          "name": "outcome",
          "type": "bool"
        },
        {
          "internalType": "bytes",
          "name": "aggregateSignature",
          "type": "bytes"
        }
      ],
      "name": "finalizeResolution",
      "outputs": [],
      "stateMutability": "nonpayable",
      "type": "function"
    },
    {
      "inputs": [
        {
          "internalType": "bytes32",
          "name": "requestId",
          "type": "bytes32"
        },
        {
          "internalType": "bytes",
          "name": "attestationCid",
          "type": "bytes"
        },
        {
          "internalType": "bool",
          "name": "outcome",
          "type": "bool"
        },
        {
          "internalType": "bytes",
          "name": "metadata",
          "type": "bytes"
        },
        {
          "internalType": "uint256",
          "name": "timestamp",
          "type": "uint256"
        }
      ],
      "name": "fulfillVerification",
      "outputs": [],
      "stateMutability": "nonpayable",
      "type": "function"
    },
    {
      "inputs": [
        {
          "internalType": "bytes32",
          "name": "requestId",
          "type": "bytes32"
        }
      ],
      "name": "getAttestations",
      "outputs": [
        {
          "components": [
            {
              "internalType": "address",
              "name": "operator",
              "type": "address"
            },
            {
              "internalType": "bool",
              "name": "outcome",
              "type": "bool"
            },
            {
              "internalType": "bytes",
              "name": "attestationCid",
              "type": "bytes"
            },
            {
              "internalType": "bytes",
              "name": "signature",
              "type": "bytes"
            },
            {
              "internalType": "bytes32",
              "name": "proofHash",
              "type": "bytes32"
            },
            {
              "internalType": "uint256",
              "name": "timestamp",
              "type": "uint256"
            }
          ],
          "internalType": "struct VeyraOracleAVS.Attestation[]",
          "name": "",
          "type": "tuple[]"
        }
      ],
      "stateMutability": "view",
      "type": "function"
    },
    {
      "inputs": [
        {
          "internalType": "bytes32",
          "name": "requestId",
          "type": "bytes32"
        }
      ],
      "name": "getFulfillment",
      "outputs": [
        {
          "internalType": "bool",
          "name": "exists",
          "type": "bool"
        },
        {
          "internalType": "bytes",
          "name": "attestationCid",
          "type": "bytes"
        },
        {
          "internalType": "bool",
          "name": "outcome",
          "type": "bool"
        },
        {
          "internalType": "bytes",
          "name": "metadata",
          "type": "bytes"
        }
      ],
      "stateMutability": "view",
      "type": "function"
    },
    {
      "inputs": [
        {
          "internalType": "bytes32",
          "name": "requestId",
          "type": "bytes32"
        },
        {
          "internalType": "address",
          "name": "operator",
          "type": "address"
        }
      ],
      "name": "getProof",
      "outputs": [
        {
          "internalType": "bytes",
          "name": "proof",
          "type": "bytes"
        }
      ],
      "stateMutability": "view",
      "type": "function"
    },
    {
      "inputs": [
        {
          "internalType": "bytes32",
          "name": "requestId",
          "type": "bytes32"
        },
        {
          "internalType": "address",
          "name": "operator",
          "type": "address"
        }
      ],
      "name": "getProofHash",
      "outputs": [
        {
          "internalType": "bytes32",
          "name": "proofHash",
          "type": "bytes32"
        }
      ],
      "stateMutability": "view",
      "type": "function"
    },
    {
      "inputs": [
        {
          "internalType": "bytes32",
          "name": "requestId",
          "type": "bytes32"
        }
      ],
      "name": "getQuorumStatus",
      "outputs": [
        {
          "internalType": "bool",
          "name": "isQuorumReached",
          "type": "bool"
        },
        {
          "internalType": "uint256",
          "name": "yesWeight",
          "type": "uint256"
        },
        {
          "internalType": "uint256",
          "name": "noWeight",
          "type": "uint256"
        },
        {
          "internalType": "uint256",
          "name": "requiredWeight",
          "type": "uint256"
        }
      ],
      "stateMutability": "view",
      "type": "function"
    },
    {
      "inputs": [
        {
          "internalType": "bytes32",
          "name": "requestId",
          "type": "bytes32"
        }
      ],
      "name": "getRequest",
      "outputs": [
        {
          "components": [
            {
              "internalType": "bytes32",
              "name": "marketRef",
              "type": "bytes32"
            },
            {
              "internalType": "address",
              "name": "requester",
              "type": "address"
            },
            {
              "internalType": "bytes",
              "name": "data",
              "type": "bytes"
            },
            {
              "internalType": "bool",
              "name": "fulfilled",
              "type": "bool"
            },
            {
              "internalType": "bytes",
              "name": "attestationCid",
              "type": "bytes"
            },
            {
              "internalType": "bool",
              "name": "outcome",
              "type": "bool"
            },
            {
              "internalType": "bytes",
              "name": "metadata",
              "type": "bytes"
            }
          ],
          "internalType": "struct VeyraOracleAVS.Request",
          "name": "",
          "type": "tuple"
        }
      ],
      "stateMutability": "view",
      "type": "function"
    },
    {
      "inputs": [
        {
          "internalType": "address",
          "name": "",
          "type": "address"
        }
      ],
      "name": "operatorWeights",
      "outputs": [
        {
          "internalType": "uint256",
          "name": "",
          "type": "uint256"
        }
      ],
      "stateMutability": "view",
      "type": "function"
    },
    {
      "inputs": [],
      "name": "quorumThreshold",
      "outputs": [
        {
          "internalType": "uint256",
          "name": "",
          "type": "uint256"
        }
      ],
      "stateMutability": "view",
      "type": "function"
    },
    {
      "inputs": [
        {
          "internalType": "bytes32",
          "name": "marketRef",
          "type": "bytes32"
        },
        {
          "internalType": "bytes",
          "name": "data",
          "type": "bytes"
        }
      ],
      "name": "requestResolution",
      "outputs": [
        {
          "internalType": "bytes32",
          "name": "requestId",
          "type": "bytes32"
        }
      ],
      "stateMutability": "nonpayable",
      "type": "function"
    },
    {
      "inputs": [
        {
          "internalType": "address",
          "name": "node",
          "type": "address"
        },
        {
          "internalType": "bool",
          "name": "enabled",
          "type": "bool"
        }
      ],
      "name": "setAVSNode",
      "outputs": [],
      "stateMutability": "nonpayable",
      "type": "function"
    },
    {
      "inputs": [
        {
          "internalType": "address",
          "name": "operator",
          "type": "address"
        },
        {
          "internalType": "uint256",
          "name": "weight",
          "type": "uint256"
        }
      ],
      "name": "setOperatorWeight",
      "outputs": [],
      "stateMutability": "nonpayable",
      "type": "function"
    },
    {
      "inputs": [
        {
          "internalType": "uint256",
          "name": "threshold",
          "type": "uint256"
        }
      ],
      "name": "setQuorumThreshold",
      "outputs": [],
      "stateMutability": "nonpayable",
      "type": "function"
    },
    {
      "inputs": [],
      "name": "slashing",
      "outputs": [
        {
          "internalType": "contract ISlashing",
          "name": "",
          "type": "address"
        }
      ],
      "stateMutability": "view",
      "type": "function"
    },
    {
      "inputs": [
        {
          "internalType": "bytes32",
          "name": "requestId",
          "type": "bytes32"
        },
        {
          "internalType": "bool",
          "name": "outcome",
          "type": "bool"
        },
        {
          "internalType": "bytes",
          "name": "attestationCid",
          "type": "bytes"
        },
        {
          "internalType": "bytes",
          "name": "signature",
          "type": "bytes"
        },
        {
          "internalType": "bytes",
          "name": "proof",
          "type": "bytes"
        },
        {
          "internalType": "uint256",
          "name": "timestamp",
          "type": "uint256"
        }
      ],
      "name": "submitAttestation",
      "outputs": [],
      "stateMutability": "nonpayable",
      "type": "function"
    },
    {
      "inputs": [],
      "name": "totalOperatorWeight",
      "outputs": [
        {
          "internalType": "uint256",
          "name": "",
          "type": "uint256"
        }
      ],
      "stateMutability": "view",
      "type": "function"
    }
  ],
  "bytecode": "0x60c0346100f057601f61238538819003918201601f19168301916001600160401b038311848410176100f5578084926060946040528339810103126100f0576100478161010b565b61005f60406100586020850161010b565b930161010b565b60426006556001600160a01b039091169182156100df576001600160a01b03169081156100df576001600160a01b03169182156100df57600880546001600160a01b03191691909117905560805260a05260405161226590816101208239608051818181610dc5015261172e015260a05181818161040c01526120ca0152f35b63d92e233d60e01b60005260046000fd5b600080fd5b634e487b7160e01b600052604160045260246000fd5b51906001600160a01b03821682036100f05756fe60a0604052600436101561001257600080fd5b60003560e01c80630e6b111014610e7e578063276d652614610e225780632af002e814610df45780632e52ec8b14610daf57806337e59e3614610c295780634524c7e114610bb85780634b97f3db14610aeb5780637b7a91dd14610acd5780639378c8fa14610a7e57806396c59cc114610a295780639e4174aa14610973578063b457c25a14610939578063c09fff13146108a8578063c243807114610459578063c5e9a2791461043b578063ca31fb9f146103f6578063d12481a414610378578063f1d1b38114610339578063f7c226da14610280578063f851a440146102575763fb1e61ca1461010357600080fd5b3461025257602036600319011261025257606060c060405161012481610fea565b6000815260006020820152826040820152600083820152826080820152600060a082015201526004356000526000602052604060002060405161016681610fea565b8154815260018201546001600160a01b0316602082019081529161024e90610190600282016110e2565b6040840190815261023360ff6003840154166060860190151581526101b7600485016110e2565b608087019081526102186101de600660ff6005890154169760a08b019815158952016110e2565b9460c08901958652604051998a9960208b525160208b015260018060a01b0390511660408a01525160e060608a0152610100890190610f6e565b91511515608088015251868203601f190160a0880152610f6e565b9151151560c085015251838203601f190160e0850152610f6e565b0390f35b600080fd5b34610252576000366003190112610252576008546040516001600160a01b039091168152602090f35b3461025257604036600319011261025257610299610f1f565b6102a1610fc0565b6008549091906001600160a01b03163303610328576001600160a01b03169081156103175760207fa8cfb85fb565846d65e4062d92a89056ecb7aa24252225132315978a9ed574c191836000526001825261030c8160406000209060ff801983541691151516179055565b6040519015158152a2005b63d92e233d60e01b60005260046000fd5b634755657960e01b60005260046000fd5b34610252576020366003190112610252576001600160a01b0361035a610f1f565b166000526001602052602060ff604060002054166040519015158152f35b34610252576020366003190112610252576004356001600160401b03811161025257366023820112156102525761024e6103d16103c26103e8933690602481600401359101611041565b6020808251830101910161147c565b604092919251938493604085526040850190610f6e565b908382036020850152610f6e565b34610252576000366003190112610252576040517f00000000000000000000000000000000000000000000000000000000000000006001600160a01b03168152602090f35b34610252576000366003190112610252576020600354604051908152f35b34610252576040366003190112610252576004356024356001600160401b0381116102525761048c903690600401610f93565b909160405160208101908282523360601b6040820152426054820152838560748301376104cb6020607483878101448382015203018084520182611005565b51902091604051936104dc85610fea565b82855260208501903382526104f2368483611041565b9560408101968752606081019660008852602097604051906105148a83611005565b600082526080840191825260a084019260008452604051966105368c89611005565b600080895260c087019889528b8152808d526040902095518655516001860180546001600160a01b0319166001600160a01b039290921691909117905551805160028601916001600160401b03821161079e5761059d8261059785546110a8565b856113c4565b8c908d601f841160011461083a575091806105d5926105f096959460009261082f575b50508160011b916000199060031b1c19161790565b90555b511515600385019060ff801983541691151516179055565b51805160048401916001600160401b03821161079e576106148261059785546110a8565b8a90601f83116001146107bf57826006969593610667959361064c936000926107b45750508160011b916000199060031b1c19161790565b90555b511515600583019060ff801983541691151516179055565b0191519182516001600160401b03811161079e57869361068b8261059785546110a8565b8890601f831160011461070e57827f34602e40c4c49141c143fef967cb05afc0207ba0f21b2bc82b56b712b4250fca95936106f895936106e1936000926107035750508160011b916000199060031b1c19161790565b90555b60405191829189835233968a840191611416565b0390a4604051908152f35b015190508c806105c0565b90601f19831691846000528a6000209260005b8c8282106107855750509260019285927f34602e40c4c49141c143fef967cb05afc0207ba0f21b2bc82b56b712b4250fca98966106f898961061076c575b505050811b0190556106e4565b015160001960f88460031b161c191690558b808061075f565b8484015186558c99506001909501949384019301610721565b634e487b7160e01b600052604160045260246000fd5b015190508e806105c0565b60008481528c8120929190601f198516908e5b82821061081757505092600192859260069998966106679896106107fe575b505050811b01905561064f565b015160001960f88460031b161c191690558d80806107f1565b806001869782949787015181550196019401906107d2565b015190508f806105c0565b9190601f1984168560005283600020936000905b8282106108905750509160019391856105f09897969410610877575b505050811b0190556105d8565b015160001960f88460031b161c191690558e808061086a565b8060018697829497870151815501960194019061084e565b346102525760203660031901126102525760806004356003549060646108d0600654846113b1565b600092835260056020908152604080852060018652909152808420548480529320549190048083108015949193919061092e575b84610924575b506040519315158452602084015260408301526060820152f35b151593508561090a565b838310159450610904565b34610252576020366003190112610252576001600160a01b0361095a610f1f565b1660005260026020526020604060002054604051908152f35b346102525760c03660031901126102525761098c610fc0565b6044356001600160401b038111610252576109ab903690600401610f93565b916064356001600160401b038111610252576109cb903690600401610f93565b906084356001600160401b038111610252576109eb903690600401610f93565b92909133600052600160205260ff6040600020541615610a1957610a1796339660a43596600435611500565b005b6282b42960e81b60005260046000fd5b346102525760203660031901126102525761024e610a486004356112c1565b610a6960409593955195869515158652608060208701526080860190610f6e565b91151560408501528382036060850152610f6e565b3461025257606036600319011261025257610a97610fc0565b604435906001600160401b03821161025257610ac4610abd610a17933690600401610f93565b3691611041565b90600435611d3e565b34610252576000366003190112610252576020600654604051908152f35b346102525760a0366003190112610252576004356024356001600160401b03811161025257610b1e903690600401610f93565b9190604435928315158403610252576064356001600160401b03811161025257610b4c903690600401610f93565b929033600052600160205260ff6040600020541615610a1957610b829360608110610bae579081815b3395608435958a8a611500565b610b8c8282611d02565b610b9257005b610a179160405191610ba5602084611005565b60008352611d3e565b8190600092610b75565b3461025257602036600319011261025257600854600435906001600160a01b031633036103285760648111610c18576020817fbc589fccf641d342b7853c2c6faca39631d4d19efbe77e71e5611e31678c220e92600655604051908152a1005b630309cb8760e51b60005260046000fd5b3461025257602036600319011261025257600435600052600460205260406000208054906001600160401b03821161079e5760405191610c6f60208260051b0184611005565b80835260208301809260005260206000206000915b838310610d4157848660405191829160208301906020845251809152604083019060408160051b85010192916000905b828210610cc357505050500390f35b919360019193955060208091603f19898203018552875190848060a01b0382511681528282015115158382015260a080610d21610d0f604086015160c0604087015260c0860190610f6e565b60608601518582036060870152610f6e565b936080810151608085015201519101529601920192018594939192610cb4565b60056020600192604051610d5481610fcf565b60ff8654868060a01b038116835260a01c16151583820152610d778587016110e2565b6040820152610d88600287016110e2565b606082015260038601546080820152600486015460a0820152815201920192019190610c84565b34610252576000366003190112610252576040517f00000000000000000000000000000000000000000000000000000000000000006001600160a01b03168152602090f35b34610252576040366003190112610252576020610e1a610e12610f35565b6004356111b0565b604051908152f35b3461025257604036600319011261025257610e3b610f35565b600435600052600760205260406000209060018060a01b031660005260205261024e610e6a60406000206110e2565b604051918291602083526020830190610f6e565b3461025257604036600319011261025257610e97610f1f565b60085460243591906001600160a01b03163303610328576001600160a01b03169081156103175760207ff21e638cbccad60709e37c990768543730ce2449d9c79b38e1e972fa99b3a219918360005260028252610f1381610f0e604060002054876000526002865282604060002055600354611078565b61109b565b600355604051908152a2005b600435906001600160a01b038216820361025257565b602435906001600160a01b038216820361025257565b60005b838110610f5e5750506000910152565b8181015183820152602001610f4e565b90602091610f8781518092818552858086019101610f4b565b601f01601f1916010190565b9181601f84011215610252578235916001600160401b038311610252576020838186019501011161025257565b60243590811515820361025257565b60c081019081106001600160401b0382111761079e57604052565b60e081019081106001600160401b0382111761079e57604052565b90601f801991011681019081106001600160401b0382111761079e57604052565b6001600160401b03811161079e57601f01601f191660200190565b92919261104d82611026565b9161105b6040519384611005565b829481845281830111610252578281602093846000960137010152565b9190820391821161108557565b634e487b7160e01b600052601160045260246000fd5b9190820180921161108557565b90600182811c921680156110d8575b60208310146110c257565b634e487b7160e01b600052602260045260246000fd5b91607f16916110b7565b90604051918260008254926110f6846110a8565b8084529360018116908115611164575060011461111d575b5061111b92500383611005565b565b90506000929192526020600020906000915b81831061114857505090602061111b928201013861110e565b602091935080600191548385890101520191019091849261112f565b90506020925061111b94915060ff191682840152151560051b8201013861110e565b805182101561119a5760209160051b010190565b634e487b7160e01b600052603260045260246000fd5b6000526004602052604060002080546001600160401b03811161079e57604051916111e160208360051b0184611005565b818352602083019060005260206000206000915b838310611253575050505060005b815181101561124b576001600160a01b0361121e8284611186565b5151166001600160a01b0384161461123857600101611203565b6080925061124591611186565b51015190565b505050600090565b6005602060019260405161126681610fcf565b60ff8654868060a01b038116835260a01c161515838201526112898587016110e2565b604082015261129a600287016110e2565b606082015260038601546080820152600486015460a08201528152019201920191906111f5565b6000526000602052604060002090604051906112dc82610fea565b8254825260018301546001600160a01b031660208301908152611301600285016110e2565b604084015260ff600385015416606084019015158152611323600486016110e2565b916080850192835260c061134a600660ff60058a0154169860a089019915158a52016110e2565b9501948552516001600160a01b0316159081156113a7575b5061137557519251915160019392151591565b5091505060009060405161138a602082611005565b60008152906000906040516113a0602082611005565b6000815290565b9050511538611362565b8181029291811591840414171561108557565b601f82116113d157505050565b6000526020600020906020601f840160051c8301931061140c575b601f0160051c01905b818110611400575050565b600081556001016113f5565b90915081906113ec565b908060209392818452848401376000828201840152601f01601f1916010190565b81601f8201121561025257805161144d81611026565b9261145b6040519485611005565b81845260208284010111610252576114799160208085019101610f4b565b90565b9190916040818403126102525780516001600160401b03811161025257836114a5918301611437565b9260208201516001600160401b038111610252576114799201611437565b805482101561119a576000526005602060002091020190600090565b604051906114ee604083611005565b600382526259455360e81b6020830152565b9997989590969994919394608052608051600052600060205260406000209960018060a01b0360018c01541615611cf15760ff60038c0154166115ad576001600160a01b038716600081815260026020526040902054909a90928315610a195760005b60805160005260046020526040600020548110156115be5760805160005260046020528c6115958260406000206114c3565b50546001600160a01b0316146115ad57600101611563565b634a4117f960e01b60005260046000fd5b509091929394959697999b6002909b999b016115d9906110e2565b9960409a8b8d81516115eb8382611005565b600e8152602081016d64656661756c742d736f7572636560901b90529282516116148482611005565b600d8152602081016c64656661756c742d6c6f67696360981b90529381511515600014946000946116bc946116f39461172a98611ce2578761167191845180938192633449206960e21b8352602060048401526024830190610f6e565b0381305afa908189918a93611cbc575b50611caf575b50506116e592916116cd915b88908914611c8d57506116a46114df565b925b81519788966080602089015260a0880190610f6e565b91601f198784030190870152610f6e565b908a6060850152601f19848303016080850152610f6e565b03601f198101835282611005565b8d80519384928392637bf41d7760e11b84526004840152611718604484018b8a611416565b83810360031901602485015290610f6e565b03817f00000000000000000000000000000000000000000000000000000000000000006001600160a01b03165afa908115611c82576000908192611c2b575b5015611c1c576020815191012061177e6114df565b60208151910120149b1515809c03611c0d575061179c368483611041565b602081519101209260805160005260076020528a806000206000908c825260205220916001600160401b03821161079e576117db8261059785546110a8565b600090601f8311600114611ba95761180b929160009183611b9e5750508160011b916000199060031b1c19161790565b90555b6080516000526004602052886000209189519161182a83610fcf565b89835260208301938c855261184036898b611041565b918c850192835261185236898d611041565b9360608601948552608086015260a085015280546801000000000000000081101561079e57611886916001820181556114c3565b949094611b88578351855491516001600160a81b03199092166001600160a01b03919091161790151560a01b60ff60a01b1617845551805160018501916001600160401b03821161079e576118df8261059785546110a8565b602090601f8311600114611b215761190f929160009183611a7e5750508160011b916000199060031b1c19161790565b90555b51805160028401916001600160401b03821161079e576119368261059785546110a8565b602090601f8311600114611a8957937f4164d38fcc30943a577283f30908d604d84a89a2e856b65b332963235535580599989795936119968460049560a0956119fc9b99600092611a7e5750508160011b916000199060031b1c19161790565b90555b6080810151600385015501519101556080516000526005602052886000208a6000526020526119cd8960002091825461109b565b90556119eb88519485948b8652606060208701526060860191611416565b908382038985015260805196611416565b0390a3608051600052600560205280600020826000526020528060002054906003546064611a2c600654836113b1565b048310159081611a74575b50611a4157505050565b7f4788c192b43b1eaa29d531808a78165d3487d939b8246058f5ad10d22fc2bd0d918151938452602084015260805192a2565b9050151538611a37565b0151905038806105c0565b9083600052806000209160005b601f1985168110611b0957509360018460a0946119fc9a98947f4164d38fcc30943a577283f30908d604d84a89a2e856b65b33296323553558059e9d9c9a98600498601f19811610611af0575b505050811b019055611999565b015160001960f88460031b161c19169055388080611ae3565b91926020600181928685015181550194019201611a96565b90601f1983169184600052816000209260005b818110611b705750908460019594939210611b57575b505050811b019055611912565b015160001960f88460031b161c19169055388080611b4a565b92936020600181928786015181550195019301611b34565b634e487b7160e01b600052600060045260246000fd5b0135905038806105c0565b8382526020822091601f198416815b818110611bf55750908460019594939210611bdb575b505050811b01905561180e565b0135600019600384901b60f8161c19169055388080611bce565b91936020600181928787013581550195019201611bb8565b610c1894919250608051612085565b610c1885848885608051612085565b91503d8082843e611c3c8184611005565b8201908d83830312611c7b578251928315158403611c7e576020810151916001600160401b038311611c7b5750611c74929101611437565b9038611769565b80fd5b5080fd5b8c513d6000823e3d90fd5b508051611c9a8282611005565b60028152614e4f60f01b6020820152926116a6565b94509250816116e5611687565b909250611cdb91503d808b833e611cd38183611005565b81019061147c565b9138611681565b506116e592916116cd91611693565b63c5723b5160e01b60005260046000fd5b9060035491821561124b57600052600560205260406000209015156000526020526064611d3860406000205492600654906113b1565b04111590565b919082600052600060205260406000209160018060a01b0360018401541615611cf157600383019182549360ff85166115ad57611d7b8287611d02565b15610c1857602093604051611d908682611005565b6000815295876000526004865260406000205461203e575b60ff19166001179055845160048201906001600160401b03811161079e57611dda81611dd484546110a8565b846113c4565b85601f8211600114611fd557816006949392611e0c92600091611fca575b508160011b916000199060031b1c19161790565b90555b611e2883600583019060ff801983541691151516179055565b0182516001600160401b03811161079e57611e4781611dd484546110a8565b84601f8211600114611f3b5792611f1a9592611ea0837f89b763933efe68c9fb105be2523d43afbb04f27b42bda7793a30bb6ae16bc4ff999794611f2b97600091611f3057508160011b916000199060031b1c19161790565b90555b8760005260058352604060002090151590816000528352877f62c5313ac9057b028c77d3d71a8bc78681ab575a0cab56a1fef1e7484cd6b48d6040600020546040518091858252606088830152611efd6060830188610f6e565b9060408301520390a2604051958695606087526060870190610f6e565b928501528382036040850152610f6e565b0390a2565b905085015138611df8565b601f1982169083600052866000209160005b818110611fb3575083611f2b9693611f1a9996937f89b763933efe68c9fb105be2523d43afbb04f27b42bda7793a30bb6ae16bc4ff9b999660019410611f9a575b5050811b019055611ea3565b86015160001960f88460031b161c191690553880611f8e565b91928860018192868b015181550194019201611f4d565b905089015138611df8565b601f1982169083600052876000209160005b898b83831061202957505050918391600696959460019410612010575b5050811b019055611e0f565b8a015160001960f88460031b161c191690553880612004565b84015185556001909401939283019201611fe7565b95508660005260048552604060002060009080541561207157600187836120699383955220016110e2565b969050611da8565b634e487b7160e01b82526032600452602482fd5b91949392909260009360018060a01b03169384815260026020528060408120556120b187600354611078565b600355604051630991d88160e21b8152600481018690527f00000000000000000000000000000000000000000000000000000000000000006001600160a01b031690602081602481855afa9081156122245783916121f2575b5080612156575b5050507faffd8b9ffb2058f05fe3e1c643891491b6253aabe27bf992f581214ae071abcc9293949550612151604051928392602084526020840191611416565b0390a3565b82988181116000146121ea5750905b803b156121e657604483926040519a8b9384926302fb4d8560e01b84528b600485015260248401525af19687156121d9577faffd8b9ffb2058f05fe3e1c643891491b6253aabe27bf992f581214ae071abcc949596976121c9575b87969594612111565b816121d391611005565b386121c0565b50604051903d90823e3d90fd5b8280fd5b905090612165565b90506020813d60201161221c575b8161220d60209383611005565b810103126121e657513861210a565b3d9150612200565b6040513d85823e3d90fdfea264697066735822122004dbd797ffbdc84ffba8dd451e464a09329a8ce12d56b00585cd241615104aff64736f6c634300081a0033",
  "linkReferences": {},
  "deployedLinkReferences": {}
}